{
    "_format": "hh3-artifact-1",
    "contractName": "DepositoryV3",
    "sourceName": "contracts/v3/DepositoryV3.sol",
    "abi": [
        {
            "inputs": [
                {
                    "internalType": "address",
                    "name": "target",
                    "type": "address"
                }
            ],
            "name": "AddressEmptyCode",
            "type": "error"
        },
        {
            "inputs": [
                {
                    "internalType": "address",
                    "name": "implementation",
                    "type": "address"
                }
            ],
            "name": "ERC1967InvalidImplementation",
            "type": "error"
        },
        {
            "inputs": [],
            "name": "ERC1967NonPayable",
            "type": "error"
        },
        {
            "inputs": [],
            "name": "FailedCall",
            "type": "error"
        },
        {
            "inputs": [
                {
                    "internalType": "IntentID",
                    "name": "intentId",
                    "type": "bytes32"
                }
            ],
            "name": "IntentAlreadyFilled",
            "type": "error"
        },
        {
            "inputs": [
                {
                    "internalType": "IntentID",
                    "name": "intentId",
                    "type": "bytes32"
                }
            ],
            "name": "IntentAlreadyLocked",
            "type": "error"
        },
        {
            "inputs": [
                {
                    "internalType": "uint256",
                    "name": "quoteTTL",
                    "type": "uint256"
                },
                {
                    "internalType": "uint256",
                    "name": "currentTime",
                    "type": "uint256"
                }
            ],
            "name": "IntentExpired",
            "type": "error"
        },
        {
            "inputs": [
                {
                    "internalType": "IntentID",
                    "name": "intentId",
                    "type": "bytes32"
                }
            ],
            "name": "IntentNotLocked",
            "type": "error"
        },
        {
            "inputs": [],
            "name": "InvalidDepositAmount",
            "type": "error"
        },
        {
            "inputs": [],
            "name": "InvalidDepositor",
            "type": "error"
        },
        {
            "inputs": [],
            "name": "InvalidFillUnlocker",
            "type": "error"
        },
        {
            "inputs": [],
            "name": "InvalidInitialization",
            "type": "error"
        },
        {
            "inputs": [],
            "name": "InvalidRecipient",
            "type": "error"
        },
        {
            "inputs": [],
            "name": "InvalidSettlementUnlocker",
            "type": "error"
        },
        {
            "inputs": [],
            "name": "NotInitializing",
            "type": "error"
        },
        {
            "inputs": [
                {
                    "internalType": "address",
                    "name": "owner",
                    "type": "address"
                }
            ],
            "name": "OwnableInvalidOwner",
            "type": "error"
        },
        {
            "inputs": [
                {
                    "internalType": "address",
                    "name": "account",
                    "type": "address"
                }
            ],
            "name": "OwnableUnauthorizedAccount",
            "type": "error"
        },
        {
            "inputs": [],
            "name": "ReentrancyGuardReentrantCall",
            "type": "error"
        },
        {
            "inputs": [
                {
                    "internalType": "address",
                    "name": "token",
                    "type": "address"
                }
            ],
            "name": "SafeERC20FailedOperation",
            "type": "error"
        },
        {
            "inputs": [],
            "name": "UUPSUnauthorizedCallContext",
            "type": "error"
        },
        {
            "inputs": [
                {
                    "internalType": "bytes32",
                    "name": "slot",
                    "type": "bytes32"
                }
            ],
            "name": "UUPSUnsupportedProxiableUUID",
            "type": "error"
        },
        {
            "inputs": [],
            "name": "UnauthorizedUnlocker",
            "type": "error"
        },
        {
            "inputs": [
                {
                    "internalType": "uint256",
                    "name": "expected",
                    "type": "uint256"
                },
                {
                    "internalType": "uint256",
                    "name": "actual",
                    "type": "uint256"
                }
            ],
            "name": "WrongSrcChain",
            "type": "error"
        },
        {
            "anonymous": false,
            "inputs": [
                {
                    "indexed": false,
                    "internalType": "uint64",
                    "name": "version",
                    "type": "uint64"
                }
            ],
            "name": "Initialized",
            "type": "event"
        },
        {
            "anonymous": false,
            "inputs": [
                {
                    "indexed": true,
                    "internalType": "IntentID",
                    "name": "intentId",
                    "type": "bytes32"
                },
                {
                    "indexed": true,
                    "internalType": "address",
                    "name": "solver",
                    "type": "address"
                },
                {
                    "indexed": false,
                    "internalType": "bytes",
                    "name": "solution",
                    "type": "bytes"
                }
            ],
            "name": "IntentFilled",
            "type": "event"
        },
        {
            "anonymous": false,
            "inputs": [
                {
                    "indexed": true,
                    "internalType": "IntentID",
                    "name": "intentId",
                    "type": "bytes32"
                },
                {
                    "components": [
                        {
                            "internalType": "contract IERC20",
                            "name": "token",
                            "type": "address"
                        },
                        {
                            "internalType": "uint256",
                            "name": "amount",
                            "type": "uint256"
                        },
                        {
                            "internalType": "address",
                            "name": "depositor",
                            "type": "address"
                        },
                        {
                            "internalType": "uint256",
                            "name": "quoteTTL",
                            "type": "uint256"
                        },
                        {
                            "internalType": "uint256",
                            "name": "srcChainId",
                            "type": "uint256"
                        }
                    ],
                    "indexed": false,
                    "internalType": "struct DepositoryV3Types.DepositParams",
                    "name": "depositParams",
                    "type": "tuple"
                },
                {
                    "components": [
                        {
                            "internalType": "contract IFillUnlocker",
                            "name": "fillUnlocker",
                            "type": "address"
                        },
                        {
                            "internalType": "contract ISettlementUnlocker",
                            "name": "settlementUnlocker",
                            "type": "address"
                        },
                        {
                            "internalType": "bytes",
                            "name": "condition",
                            "type": "bytes"
                        }
                    ],
                    "indexed": false,
                    "internalType": "struct DepositoryV3Types.FillCondition",
                    "name": "fillCondition",
                    "type": "tuple"
                },
                {
                    "components": [
                        {
                            "internalType": "uint256",
                            "name": "blockNumber",
                            "type": "uint256"
                        },
                        {
                            "internalType": "uint256",
                            "name": "timestamp",
                            "type": "uint256"
                        }
                    ],
                    "indexed": false,
                    "internalType": "struct DepositoryV3Types.BlockchainState",
                    "name": "lockState",
                    "type": "tuple"
                }
            ],
            "name": "IntentLocked",
            "type": "event"
        },
        {
            "anonymous": false,
            "inputs": [
                {
                    "indexed": true,
                    "internalType": "IntentID",
                    "name": "intentId",
                    "type": "bytes32"
                },
                {
                    "indexed": true,
                    "internalType": "address",
                    "name": "to",
                    "type": "address"
                },
                {
                    "indexed": false,
                    "internalType": "contract IERC20",
                    "name": "token",
                    "type": "address"
                },
                {
                    "indexed": false,
                    "internalType": "uint256",
                    "name": "amount",
                    "type": "uint256"
                }
            ],
            "name": "IntentUnlocked",
            "type": "event"
        },
        {
            "anonymous": false,
            "inputs": [
                {
                    "indexed": true,
                    "internalType": "address",
                    "name": "previousOwner",
                    "type": "address"
                },
                {
                    "indexed": true,
                    "internalType": "address",
                    "name": "newOwner",
                    "type": "address"
                }
            ],
            "name": "OwnershipTransferStarted",
            "type": "event"
        },
        {
            "anonymous": false,
            "inputs": [
                {
                    "indexed": true,
                    "internalType": "address",
                    "name": "previousOwner",
                    "type": "address"
                },
                {
                    "indexed": true,
                    "internalType": "address",
                    "name": "newOwner",
                    "type": "address"
                }
            ],
            "name": "OwnershipTransferred",
            "type": "event"
        },
        {
            "anonymous": false,
            "inputs": [
                {
                    "indexed": true,
                    "internalType": "address",
                    "name": "unlocker",
                    "type": "address"
                },
                {
                    "indexed": false,
                    "internalType": "bool",
                    "name": "enabled",
                    "type": "bool"
                }
            ],
            "name": "UnlockerSet",
            "type": "event"
        },
        {
            "anonymous": false,
            "inputs": [
                {
                    "indexed": true,
                    "internalType": "address",
                    "name": "implementation",
                    "type": "address"
                }
            ],
            "name": "Upgraded",
            "type": "event"
        },
        {
            "inputs": [],
            "name": "UPGRADE_INTERFACE_VERSION",
            "outputs": [
                {
                    "internalType": "string",
                    "name": "",
                    "type": "string"
                }
            ],
            "stateMutability": "view",
            "type": "function"
        },
        {
            "inputs": [],
            "name": "acceptOwnership",
            "outputs": [],
            "stateMutability": "nonpayable",
            "type": "function"
        },
        {
            "inputs": [
                {
                    "components": [
                        {
                            "internalType": "contract IERC20",
                            "name": "token",
                            "type": "address"
                        },
                        {
                            "internalType": "uint256",
                            "name": "amount",
                            "type": "uint256"
                        },
                        {
                            "internalType": "address",
                            "name": "depositor",
                            "type": "address"
                        },
                        {
                            "internalType": "uint256",
                            "name": "quoteTTL",
                            "type": "uint256"
                        },
                        {
                            "internalType": "uint256",
                            "name": "srcChainId",
                            "type": "uint256"
                        }
                    ],
                    "internalType": "struct DepositoryV3Types.DepositParams",
                    "name": "depositParams",
                    "type": "tuple"
                },
                {
                    "components": [
                        {
                            "internalType": "contract IFillUnlocker",
                            "name": "fillUnlocker",
                            "type": "address"
                        },
                        {
                            "internalType": "contract ISettlementUnlocker",
                            "name": "settlementUnlocker",
                            "type": "address"
                        },
                        {
                            "internalType": "bytes",
                            "name": "condition",
                            "type": "bytes"
                        }
                    ],
                    "internalType": "struct DepositoryV3Types.FillCondition",
                    "name": "fillCondition",
                    "type": "tuple"
                }
            ],
            "name": "deposit",
            "outputs": [],
            "stateMutability": "nonpayable",
            "type": "function"
        },
        {
            "inputs": [
                {
                    "internalType": "IntentID",
                    "name": "intentId",
                    "type": "bytes32"
                }
            ],
            "name": "deposits",
            "outputs": [
                {
                    "components": [
                        {
                            "internalType": "address",
                            "name": "depositor",
                            "type": "address"
                        },
                        {
                            "internalType": "contract IERC20",
                            "name": "token",
                            "type": "address"
                        },
                        {
                            "internalType": "uint256",
                            "name": "amount",
                            "type": "uint256"
                        }
                    ],
                    "internalType": "struct DepositoryV3Types.Deposit",
                    "name": "",
                    "type": "tuple"
                }
            ],
            "stateMutability": "view",
            "type": "function"
        },
        {
            "inputs": [
                {
                    "components": [
                        {
                            "internalType": "contract IERC20",
                            "name": "token",
                            "type": "address"
                        },
                        {
                            "internalType": "uint256",
                            "name": "amount",
                            "type": "uint256"
                        },
                        {
                            "internalType": "address",
                            "name": "depositor",
                            "type": "address"
                        },
                        {
                            "internalType": "uint256",
                            "name": "quoteTTL",
                            "type": "uint256"
                        },
                        {
                            "internalType": "uint256",
                            "name": "srcChainId",
                            "type": "uint256"
                        }
                    ],
                    "internalType": "struct DepositoryV3Types.DepositParams",
                    "name": "depositParams",
                    "type": "tuple"
                },
                {
                    "components": [
                        {
                            "internalType": "contract IFillUnlocker",
                            "name": "fillUnlocker",
                            "type": "address"
                        },
                        {
                            "internalType": "contract ISettlementUnlocker",
                            "name": "settlementUnlocker",
                            "type": "address"
                        },
                        {
                            "internalType": "bytes",
                            "name": "condition",
                            "type": "bytes"
                        }
                    ],
                    "internalType": "struct DepositoryV3Types.FillCondition",
                    "name": "fillCondition",
                    "type": "tuple"
                },
                {
                    "components": [
                        {
                            "internalType": "uint256",
                            "name": "blockNumber",
                            "type": "uint256"
                        },
                        {
                            "internalType": "uint256",
                            "name": "timestamp",
                            "type": "uint256"
                        }
                    ],
                    "internalType": "struct DepositoryV3Types.BlockchainState",
                    "name": "lockState",
                    "type": "tuple"
                },
                {
                    "internalType": "bytes",
                    "name": "solution",
                    "type": "bytes"
                }
            ],
            "name": "fill",
            "outputs": [],
            "stateMutability": "nonpayable",
            "type": "function"
        },
        {
            "inputs": [
                {
                    "internalType": "IntentID",
                    "name": "intentId",
                    "type": "bytes32"
                }
            ],
            "name": "fills",
            "outputs": [
                {
                    "components": [
                        {
                            "internalType": "contract ISettlementUnlocker",
                            "name": "settlementUnlocker",
                            "type": "address"
                        },
                        {
                            "internalType": "bytes",
                            "name": "solution",
                            "type": "bytes"
                        }
                    ],
                    "internalType": "struct DepositoryV3Types.FillRecord",
                    "name": "",
                    "type": "tuple"
                }
            ],
            "stateMutability": "view",
            "type": "function"
        },
        {
            "inputs": [],
            "name": "initialize",
            "outputs": [],
            "stateMutability": "nonpayable",
            "type": "function"
        },
        {
            "inputs": [
                {
                    "components": [
                        {
                            "internalType": "contract IERC20",
                            "name": "token",
                            "type": "address"
                        },
                        {
                            "internalType": "uint256",
                            "name": "amount",
                            "type": "uint256"
                        },
                        {
                            "internalType": "address",
                            "name": "depositor",
                            "type": "address"
                        },
                        {
                            "internalType": "uint256",
                            "name": "quoteTTL",
                            "type": "uint256"
                        },
                        {
                            "internalType": "uint256",
                            "name": "srcChainId",
                            "type": "uint256"
                        }
                    ],
                    "internalType": "struct DepositoryV3Types.DepositParams",
                    "name": "depositParams",
                    "type": "tuple"
                },
                {
                    "components": [
                        {
                            "internalType": "contract IFillUnlocker",
                            "name": "fillUnlocker",
                            "type": "address"
                        },
                        {
                            "internalType": "contract ISettlementUnlocker",
                            "name": "settlementUnlocker",
                            "type": "address"
                        },
                        {
                            "internalType": "bytes",
                            "name": "condition",
                            "type": "bytes"
                        }
                    ],
                    "internalType": "struct DepositoryV3Types.FillCondition",
                    "name": "fillCondition",
                    "type": "tuple"
                },
                {
                    "components": [
                        {
                            "internalType": "uint256",
                            "name": "blockNumber",
                            "type": "uint256"
                        },
                        {
                            "internalType": "uint256",
                            "name": "timestamp",
                            "type": "uint256"
                        }
                    ],
                    "internalType": "struct DepositoryV3Types.BlockchainState",
                    "name": "lockState",
                    "type": "tuple"
                }
            ],
            "name": "intentID",
            "outputs": [
                {
                    "internalType": "IntentID",
                    "name": "",
                    "type": "bytes32"
                }
            ],
            "stateMutability": "pure",
            "type": "function"
        },
        {
            "inputs": [],
            "name": "owner",
            "outputs": [
                {
                    "internalType": "address",
                    "name": "",
                    "type": "address"
                }
            ],
            "stateMutability": "view",
            "type": "function"
        },
        {
            "inputs": [],
            "name": "pendingOwner",
            "outputs": [
                {
                    "internalType": "address",
                    "name": "",
                    "type": "address"
                }
            ],
            "stateMutability": "view",
            "type": "function"
        },
        {
            "inputs": [],
            "name": "proxiableUUID",
            "outputs": [
                {
                    "internalType": "bytes32",
                    "name": "",
                    "type": "bytes32"
                }
            ],
            "stateMutability": "view",
            "type": "function"
        },
        {
            "inputs": [],
            "name": "renounceOwnership",
            "outputs": [],
            "stateMutability": "nonpayable",
            "type": "function"
        },
        {
            "inputs": [
                {
                    "internalType": "address",
                    "name": "unlocker",
                    "type": "address"
                },
                {
                    "internalType": "bool",
                    "name": "enabled",
                    "type": "bool"
                }
            ],
            "name": "setUnlocker",
            "outputs": [],
            "stateMutability": "nonpayable",
            "type": "function"
        },
        {
            "inputs": [
                {
                    "internalType": "address",
                    "name": "newOwner",
                    "type": "address"
                }
            ],
            "name": "transferOwnership",
            "outputs": [],
            "stateMutability": "nonpayable",
            "type": "function"
        },
        {
            "inputs": [
                {
                    "internalType": "IntentID",
                    "name": "intentId",
                    "type": "bytes32"
                },
                {
                    "internalType": "address",
                    "name": "to",
                    "type": "address"
                }
            ],
            "name": "unlock",
            "outputs": [],
            "stateMutability": "nonpayable",
            "type": "function"
        },
        {
            "inputs": [
                {
                    "internalType": "address",
                    "name": "",
                    "type": "address"
                }
            ],
            "name": "unlockers",
            "outputs": [
                {
                    "internalType": "bool",
                    "name": "",
                    "type": "bool"
                }
            ],
            "stateMutability": "view",
            "type": "function"
        },
        {
            "inputs": [
                {
                    "internalType": "address",
                    "name": "newImplementation",
                    "type": "address"
                },
                {
                    "internalType": "bytes",
                    "name": "data",
                    "type": "bytes"
                }
            ],
            "name": "upgradeToAndCall",
            "outputs": [],
            "stateMutability": "payable",
            "type": "function"
        }
    ],
    "bytecode": "0x60a060405234602f57600e6033565b6040516124e16100838239608051818181611a9c0152611c7f01526124e190f35b5f80fd5b6039603b565b565b60396039603960396076565b605990605c906001600160a01b031682565b90565b6001600160a01b031690565b6059906047565b6059906068565b607d30606f565b60805256fe60806040526004361015610011575f80fd5b5f3560e01c8063172b09f91461012057806320158c441461011b57806327978c85146101165780633d4dff7b146101115780634f1ef2861461010c57806352d1902d1461010757806353b1d92514610102578063715018a6146100fd57806379ba5097146100f85780638129fc1c146100f35780638da5cb5b146100ee578063ad3cb1cc146100e9578063d3fff0f6146100e4578063d8248741146100df578063e30c3978146100da578063f2fde38b146100d55763ffece88303610146576107d9565b61078b565b610770565b610754565b6106f6565b610697565b6105f4565b6105dc565b6105c4565b6105ac565b610590565b6104a2565b610484565b610366565b610308565b6102be565b6101dd565b6001600160a01b031690565b90565b6001600160a01b0381165b0361014657565b5f80fd5b9050359061015782610134565b565b90602082820312610146576101319161014a565b610125610131610131926001600160a01b031690565b6101319061016d565b61013190610183565b9061019f9061018c565b5f5260205260405f2090565b610131916008021c5b60ff1690565b9061013191546101ab565b5f6101d4610131926002610195565b6101ba565b9052565b346101465761020b6101f86101f3366004610159565b6101c5565b6040515b91829182901515815260200190565b0390f35b8061013f565b905035906101578261020f565b906020828203126101465761013191610215565b6101d99061018c565b90825f9392825e0152565b61026b61027460209361027e9361025f815190565b80835293849260200190565b9586910161023f565b601f01601f191690565b0190565b610131916020604082019261029d5f8201515f850190610236565b015190602081840391015261024a565b602080825261013192910190610282565b346101465761020b6102d96102d4366004610222565b61095f565b604051918291826102ad565b9190604083820312610146576101319060206103018286610215565b940161014a565b346101465761032161031b3660046102e5565b90610cb0565b604051005b80516001600160a01b031682526101579190604090819061034f60208201516020860190610236565b0151910152565b6060810192916101579190610326565b346101465761020b61038161037c366004610222565b610cdd565b60405191829182610356565b634e487b7160e01b5f52604160045260245ffd5b90601f01601f1916810190811067ffffffffffffffff8211176103c357604052565b61038d565b906101576103d560405190565b92836103a1565b67ffffffffffffffff81116103c357602090601f01601f19160190565b90825f939282370152565b90929192610419610414826103dc565b6103c8565b9381855281830111610146576101579160208501906103f9565b9080601f830112156101465781602061013193359101610404565b91909160408184031261014657610465838261014a565b92602082013567ffffffffffffffff8111610146576101319201610433565b61032161049236600461044e565b90610d13565b5f91031261014657565b34610146576104b2366004610498565b61020b6104bd610d60565b6040519182918290815260200190565b908160a09103126101465790565b908160609103126101465790565b908160409103126101465790565b909182601f830112156101465781359167ffffffffffffffff831161014657602001926001830284011161014657565b90610120828203126101465761053d81836104cd565b9260a083013567ffffffffffffffff8111610146578261055e9185016104db565b9261056c8360c083016104e9565b9261010082013567ffffffffffffffff81116101465761058c92016104f7565b9091565b34610146576103216105a3366004610527565b93929092610ebf565b34610146576105bc366004610498565b610321610ee8565b34610146576105d4366004610498565b610321610ef0565b34610146576105ec366004610498565b61032161117a565b3461014657610604366004610498565b61020b61060f611182565b604051918291826001600160a01b03909116815260200190565b90610636610414836103dc565b918252565b6106456005610629565b7f352e302e30000000000000000000000000000000000000000000000000000000602082015290565b61013161063b565b61013161066e565b610131610676565b60208082526101319291019061024a565b34610146576106a7366004610498565b61020b6106b261067e565b60405191829182610686565b80151561013f565b90503590610157826106be565b9190604083820312610146576101319060206106ef828661014a565b94016106c6565b34610146576103216107093660046106d3565b9061122b565b9091610100828403126101465761072683836104cd565b9260a08301359067ffffffffffffffff82116101465760c061074d826101319487016104db565b94016104e9565b346101465761020b6104bd61076a36600461070f565b916113c3565b3461014657610780366004610498565b61020b61060f611408565b346101465761032161079e366004610159565b6114dd565b91909160c081840312610146576107ba83826104cd565b9260a082013567ffffffffffffffff81116101465761013192016104db565b34610146576103216107ec3660046107a3565b90611937565b61013160406103c8565b6108046107f2565b905f825260606020830152565b6101316107fc565b9061019f565b61013190610125565b610131905461081f565b906101d99061081f565b634e487b7160e01b5f52602260045260245ffd5b9060016002830492168015610870575b602083101461086b57565b61083c565b91607f1691610860565b80545f93929161089661088c83610850565b8085529360200190565b91600181169081156108e557506001146108af57505050565b6108c091929394505f5260205f2090565b915f925b8184106108d15750500190565b8054848401526020909301926001016108c4565b92949550505060ff1916825215156020020190565b906101319161087a565b9061015761091e9261091560405190565b938480926108fa565b03836103a1565b9061015761094f60016109366107f2565b9461094961094382610828565b87610832565b01610904565b6020840152565b61013190610925565b6109766101319161096e610811565b506001610819565b610956565b9061098d9161098861194b565b610b8c565b6101576119c1565b610131906101b4565b6101319054610995565b156109af57565b7fc3f236db000000000000000000000000000000000000000000000000000000005f90815260045b035ffd5b6101256101316101319290565b610131906109db565b156109f857565b7f9c8d2cd2000000000000000000000000000000000000000000000000000000005f908152600490fd5b6101319081565b6101319054610a22565b61013160606103c8565b90610157610a866002610a4e610a33565b94610a68610a5b82610828565b6001600160a01b03168752565b610a80610a7760018301610828565b60208801610832565b01610a29565b6040840152565b61013190610a3d565b15610a9e5750565b7f02ae88ad000000000000000000000000000000000000000000000000000000005f908152600491909152602490fd5b915f1960089290920291821b911b610ae6565b921b90565b9181191691161790565b6101316101316101319290565b9190610b0e610131610b1693610af0565b908354610ace565b9055565b610157915f91610afd565b5f8082556001820181905561015791600201610b1a565b634e487b7160e01b5f525f60045260245ffd5b905f03610b5f5761015790610b25565b610b3c565b610131905161081f565b916020610157929493610b8860408201965f830190610236565b0152565b61015791610bab610ba6610ba1336002610195565b61099e565b6109a8565b610caa610ca5610bba5f6109e8565b610bd86001600160a01b0382166001600160a01b03861614156109f1565b610c2785610bee610be9825f610819565b610a8d565b92610c20610c13610c0686516001600160a01b031690565b926001600160a01b031690565b916001600160a01b031690565b1415610a96565b610c3a5f610c358782610819565b610b4f565b60208101906040610c4a83610b64565b9101957f6da464ca823ff64f70cc9030a3849d08d4d4a1dffae2d22061d6da0f2d6f6997610c7d610c79895190565b9290565b91610c878861018c565b93610c9d610c9460405190565b92839283610b6e565b0390a3610b64565b925190565b91611a49565b906101579161097b565b610cc2610a33565b5f80825260208201819052604082015290565b610131610cba565b610be961013191610cec610cd5565b505f610819565b9061015791610d00611a91565b9061015791610d0e81611b29565b611b53565b9061015791610cf3565b61013190610d29611c69565b610d57565b6101317f360894a13ba1a3210667c828492db98dca3e2076cc3735a920a3ca505d382bbc610af0565b50610131610d2e565b6101315f610d1d565b9061098d94939291610d7961194b565b610e19565b61013f8161081f565b3561013181610d7e565b903590601e193682900301821215610146570180359067ffffffffffffffff8211610146576020019136829003831361014657565b919061027481610ddd8161027e9560209181520190565b80956103f9565b9290610e0090610131959360408601918683035f880152610dc6565b926020818503910152610dc6565b6040513d5f823e3d90fd5b83829493610e28938793611e69565b610e47610e3c610e3784610d87565b61018c565b926040810190610d91565b8391933b15610146575f8094610e92610e5f60405190565b978896879586947f5b492b7000000000000000000000000000000000000000000000000000000000865260048601610de4565b03925af18015610eba57610ea35750565b610157905f610eb281836103a1565b810190610498565b610e0e565b9061015794939291610d69565b610ed4611f4e565b610157610157610ee35f6109e8565b611fa7565b610157610ecc565b33610ef9611408565b610f0b6001600160a01b038316610c13565b03610f195761015790611fa7565b7f118cdaa7000000000000000000000000000000000000000000000000000000005f9081526001600160a01b039091166004526024035ffd5b6101319060401c6101b4565b6101319054610f52565b610131905b67ffffffffffffffff1690565b6101319054610f68565b610f6d6101316101319290565b9067ffffffffffffffff90610ae6565b610f6d6101316101319267ffffffffffffffff1690565b90610fc8610131610b1692610fa1565b8254610f91565b9068ff00000000000000009060401b610ae6565b90610ff3610131610b1692151590565b8254610fcf565b6101d990610f84565b6020810192916101579190610ffa565b61101b611fda565b8061103561102f61102b83610f5e565b1590565b92610f7a565b9161103f5f610f84565b67ffffffffffffffff8416148061115a575b60019361106e61106086610f84565b9167ffffffffffffffff1690565b149081611132575b155b9081611129575b506110ff578061109b5f61109286610f84565b94019384610fb8565b6110f0575b6110a8611161565b6110b0575050565b7fc7f505b2f371ae2175ee4913f4499e1f2633a7b5936321eed1cdaeb6115181d2916110df5f6110eb93610fe3565b60405191829182611003565b0390a1565b6110fa8383610fe3565b6110a0565b7ff92ee8a9000000000000000000000000000000000000000000000000000000005f908152600490fd5b1590505f61107f565b90506110786111403061018c565b3b61115161114d5f610af0565b9190565b14919050611076565b5080611051565b61116a33611ff7565b611172612008565b610157612023565b610157611013565b6101315f7f9016d09d72d40fdae2fd8ceac6b6234c7706214fd39c1cd1e609a0528c1993005b01610828565b90610157916111bb611f4e565b6111e0565b9060ff90610ae6565b906111d9610131610b1692151590565b82546111c0565b61122661121c7f60209f49f531418079ff149eb1d71f100566dcaba03bf5a34930e08111df20c492610e3785611217836002610195565b6111c9565b926101fc60405190565b0390a2565b90610157916111ae565b9050359061015782610d7e565b50610131906020810190611235565b50610131906020810190610215565b5061013190602081019061014a565b9060806112e66101579361128f6112885f830183611242565b8590610236565b6112a661129f6020830183611251565b6020860152565b6112c66112b66040830183611260565b6001600160a01b03166040860152565b6112dd6112d66060830183611251565b6060860152565b82810190611251565b910152565b9035601e19368390030181121561014657016020813591019167ffffffffffffffff82116101465736829003831361014657565b610131916060810191611364906113406113398280611242565b8490610236565b61135a6113506020830183611242565b6020850190610236565b60408101906112eb565b916040818503910152610dc6565b9060206112e6610157936112dd61138b5f830183611251565b8552565b9392906113bb60c091610157946113ae6101008901925f8a019061126f565b87820360a089015261131f565b940190611372565b61013192916113f2916113e66113d860405190565b94859360208501938461138f565b908103825203826103a1565b6114046113fd825190565b9160200190565b2090565b6101315f7f237e158222e3e6968b72b9db0d8043aacf074ad9f650f0d1606b4d82ee432c006111a8565b6101579061143e611f4e565b611469565b906001600160a01b0390610ae6565b90611462610131610b169261018c565b8254611443565b611496815f7f237e158222e3e6968b72b9db0d8043aacf074ad9f650f0d1606b4d82ee432c005b01611452565b6114aa6114a4610e37611182565b9161018c565b907f38d16b8cac22d99fc7c124b9cd0de2d3fa1faef420bfe791d8c362d765e227006114d560405190565b80805b0390a3565b61015790611432565b9061098d916114f361194b565b61173e565b356101318161020f565b9081526040810192916101579160200152565b1561151e575050565b7f6f08ee6e000000000000000000000000000000000000000000000000000000005f908152916109d7916004611502565b1561155657565b7ffe9ba5cd000000000000000000000000000000000000000000000000000000005f908152600490fd5b3561013181610134565b1561159157565b7f9be803a2000000000000000000000000000000000000000000000000000000005f908152600490fd5b156115c4575050565b7f6d6c55e8000000000000000000000000000000000000000000000000000000005f908152916109d7916004611502565b156115fc57565b7f027585ad000000000000000000000000000000000000000000000000000000005f908152600490fd5b1561162d57565b7fa46df864000000000000000000000000000000000000000000000000000000005f908152600490fd5b805182526101579190602090819061034f565b93929061168960c091610157946113ae6101008901925f8a019061126f565b940190611657565b156116995750565b7f93b45bbf000000000000000000000000000000000000000000000000000000005f908152600491909152602490fd5b905f1990610ae6565b906116e2610131610b1692610af0565b82546116c9565b600261172d60406101579461171061170a5f8301516001600160a01b031690565b86611452565b61172861171f60208301610b64565b60018701611452565b015190565b91016116d2565b90610157916116e9565b9061191c6118c16101579361176f6060820161176861175f610131836114f8565b421115916114f8565b4291611515565b7f8b4cbc791dddb376fb89eba475c41896f97673ece5db78a30bb2340d2772cb4560208201946117b36117a1876114f8565b6117ad61114d5f610af0565b1161154f565b60408301926119146119016117c786611580565b6117ed6117d35f6109e8565b916117e66001600160a01b038416610c13565b141561158a565b61181060808501611808611800826114f8565b4614916114f8565b9046906115bb565b61183261181f610e3787610d87565b3b61182c61114d5f610af0565b116115f5565b611857611844610e3760208801610d87565b3b61185161114d5f610af0565b11611626565b6101316118ad611865612047565b986118a861188c8b6113f28b8b6113e661187e60405190565b94859360208501938461166a565b80956118a2610c13610c065f6111a88682610819565b14611691565b611580565b6118f28c6118eb6118c75f8a019d8e610d87565b926114f8565b916118e26118d3610a33565b6001600160a01b039096168652565b60208501610832565b6040830152565b6118fc835f610819565b611734565b9461190b60405190565b9384938461166a565b0390a2610d87565b9061192f6119293061018c565b916114f8565b913390612088565b90610157916114e6565b6101316002610af0565b7f9b779b17422d0df92223018b32b4d1fa46e071723d6817e2486d003becc55f0061197581610a29565b61197d611941565b90811461198d57610157916116d2565b7f3ee5aeb5000000000000000000000000000000000000000000000000000000005f908152600490fd5b6101316001610af0565b6101577f9b779b17422d0df92223018b32b4d1fa46e071723d6817e2486d003becc55f005f61172d6119b7565b611a07611a016101319263ffffffff1690565b60e01b90565b7fffffffff000000000000000000000000000000000000000000000000000000001690565b6001600160a01b0390911681526040810192916101579160200152565b611a8c600492611a7d61015795611a6363a9059cbb6119ee565b92611a6d60405190565b9687946020860190815201611a2c565b602082018103825203836103a1565b6120be565b611a9a3061018c565b7f000000000000000000000000000000000000000000000000000000000000000090611ace6001600160a01b038316610c13565b14908115611b08575b50611ade57565b7fe07c8dba000000000000000000000000000000000000000000000000000000005f908152600490fd5b9050611b18610c13610c06612167565b14155f611ad7565b50610157611f4e565b61015790611b20565b905051906101578261020f565b906020828203126101465761013191611b32565b90611b60610e378361018c565b906020611b6c60405190565b7f52d1902d00000000000000000000000000000000000000000000000000000000815292839060049082905afa5f9281611c38575b50611bea5750506001611bb15750565b7f4c9c8ce3000000000000000000000000000000000000000000000000000000005f9081526001600160a01b039091166004526024035ffd5b909291611bf8610131610d2e565b8403611c0957610157929350612176565b7faa1d49a4000000000000000000000000000000000000000000000000000000005f9081526004859052602490fd5b611c5b91935060203d602011611c62575b611c5381836103a1565b810190611b3f565b915f611ba1565b503d611c49565b611c723061018c565b611ca46001600160a01b037f000000000000000000000000000000000000000000000000000000000000000016610c13565b03611ade57565b15611cb35750565b7f758b4028000000000000000000000000000000000000000000000000000000005f908152600491909152602490fd5b610131913691610404565b818110611cf9575050565b80611d065f600193610b1a565b01611cee565b9190601f8111611d1b57505050565b611d2b610157935f5260205f2090565b906020601f840181900483019310611d4d575b6020601f909101040190611cee565b9091508190611d3e565b90611d60815190565b9067ffffffffffffffff82116103c357611d8482611d7e8554610850565b85611d0c565b602090601f8311600114611dbd57610b1692915f9183611db2575b50505f19600883021c1916906002021790565b015190505f80611d9f565b601f19831691611dd0855f5260205f2090565b925f5b818110611e0c57509160029391856001969410611df4575b50505002019055565b01515f196008601f8516021c191690555f8080611deb565b91936020600181928787015181550195019201611dd3565b9061015791611d57565b6001611e4760206101579461172861170a5f8301610b64565b9101611e24565b9061015791611e2e565b602080825261013193910191610dc6565b90610131611ef86020611ec66113e66113f27f4f02007c5b383d0fb2923b90ac1cc973e61e27f22ce6b7f5c651faa9cdcf21ec98611f2e989b9a9b611eb561181f610e375f8c01610d87565b6040519384928a888501938461138f565b93611ef285611edd610e375f6111a8846001610819565b611eec610c136101255f6109e8565b14611cab565b01610d87565b611f0a611f036107f2565b9182610832565b611f1e611f178789611ce3565b6020830152565b611f29836001610819565b611e4e565b91611f383361018c565b936114d8611f4560405190565b92839283611e58565b611f56611182565b3390611f6182610c13565b03610f195750565b91906008610ae6910291610ae16001600160a01b03841b90565b9190611f94610131610b169361018c565b908354611f69565b610157915f91611f83565b61015790611fd55f7f237e158222e3e6968b72b9db0d8043aacf074ad9f650f0d1606b4d82ee432c00611f9c565b6121e0565b61013161226e565b61015790611fee612276565b61015790612322565b61015790611fe2565b610157612276565b610157612000565b612018612276565b610157610157612333565b610157612010565b6120336107f2565b905f82525f6020830152565b61013161202b565b61204f61203f565b906101578261205c438252565b602042910152565b6001600160a01b039182168152911660208201526060810192916101579160400152565b90611a8c90611a7d610157956004956120a46323b872dd6119ee565b936120ae60405190565b9788956020870190815201612064565b905f6020916120ca5f90565b50828151910182855af115610e0e573d5f51906120e961114d5f610af0565b0361215357506120f88161018c565b3b61210561114d5f610af0565b145b61210e5750565b6109d761211b5f9261018c565b7f5274afe70000000000000000000000000000000000000000000000000000000083526001600160a01b031660048301526024820190565b61216061114d6001610af0565b1415612107565b6101315f6111a8610131610d2e565b906121808261233b565b6121898261018c565b7fbc7cd75a20ee27fd9adebab32041f755214dbc6bffa90cc0225b39da2e5c2d3b6121b360405190565b5f90a280516121c461114d5f610af0565b11156121d6576121d3916123b7565b50565b505061015761235e565b61221a6114a47f9016d09d72d40fdae2fd8ceac6b6234c7706214fd39c1cd1e609a0528c199300610e378461221483610828565b92611452565b907f8be0079c531659141344cd1fd0a4f28419497f9722a3daafe3b4186f6b6457e06114d560405190565b6101317ff0c57e16840df040f15088dc2f81fe391c3923bec73e23a9662efc9c229c6a00610af0565b610131612245565b61228161102b6123dd565b61228757565b7fd7e6bcf8000000000000000000000000000000000000000000000000000000005f908152600490fd5b610157906122bd612276565b6122c65f6109e8565b6001600160a01b0381166001600160a01b038316146122e9575061015790611fa7565b7f1e4fbdf7000000000000000000000000000000000000000000000000000000005f9081526001600160a01b039091166004526024035ffd5b610157906122b1565b61098d612276565b61015761232b565b803b61234961114d5f610af0565b14611bb157610157905f611490610131610d2e565b6123675f610af0565b341161236f57565b7fb398979f000000000000000000000000000000000000000000000000000000005f908152600490fd5b3d156123b2576123a83d610629565b903d5f602084013e565b606090565b5f80610131936123c5606090565b50602081519101845af46123d7612399565b916123ef565b6101315f6123e9611fda565b01610f5e565b906123fa5750612465565b815161240861114d5f610af0565b1480612450575b612417575090565b7f9996b315000000000000000000000000000000000000000000000000000000005f9081526001600160a01b039091166004526024035ffd5b50803b61245f61114d5f610af0565b1461240f565b805161247361114d5f610af0565b111561248157805190602001fd5b7fd6bda275000000000000000000000000000000000000000000000000000000005f908152600490fdfea2646970667358221220003dbcc8ba090c2b76d2081b569867816c6703c95addd8523703ab20cdec246364736f6c634300081c0033",
    "linkReferences": {},
    "deployedLinkReferences": {},
    "immutableReferences": {
        "8704": [
            {
                "length": 32,
                "start": 6812
            },
            {
                "length": 32,
                "start": 7295
            }
        ]
    },
    "inputSourceName": "project/contracts/v3/DepositoryV3.sol",
    "buildInfoId": "solc-0_8_28-7720f71f1012efa959128fdcfb05b94e6a17ae8f"
}