{
    "_format": "hh3-artifact-1",
    "contractName": "DirectUnlocker",
    "sourceName": "contracts/v3/unlockers/DirectUnlocker.sol",
    "abi": [
        {
            "inputs": [
                {
                    "internalType": "address",
                    "name": "token",
                    "type": "address"
                }
            ],
            "name": "SafeERC20FailedOperation",
            "type": "error"
        },
        {
            "inputs": [
                {
                    "internalType": "uint256",
                    "name": "actual",
                    "type": "uint256"
                },
                {
                    "internalType": "uint256",
                    "name": "expected",
                    "type": "uint256"
                }
            ],
            "name": "WrongDstChain",
            "type": "error"
        },
        {
            "inputs": [
                {
                    "components": [
                        {
                            "internalType": "address",
                            "name": "recipient",
                            "type": "address"
                        },
                        {
                            "internalType": "contract IERC20",
                            "name": "dstToken",
                            "type": "address"
                        },
                        {
                            "internalType": "uint256",
                            "name": "amount",
                            "type": "uint256"
                        },
                        {
                            "internalType": "uint256",
                            "name": "dstChainId",
                            "type": "uint256"
                        }
                    ],
                    "internalType": "struct DirectUnlocker.Condition",
                    "name": "c",
                    "type": "tuple"
                }
            ],
            "name": "encodeCondition",
            "outputs": [
                {
                    "internalType": "bytes",
                    "name": "",
                    "type": "bytes"
                }
            ],
            "stateMutability": "pure",
            "type": "function"
        },
        {
            "inputs": [
                {
                    "components": [
                        {
                            "internalType": "address",
                            "name": "solverAddress",
                            "type": "address"
                        }
                    ],
                    "internalType": "struct DirectUnlocker.Solution",
                    "name": "s",
                    "type": "tuple"
                }
            ],
            "name": "encodeSolution",
            "outputs": [
                {
                    "internalType": "bytes",
                    "name": "",
                    "type": "bytes"
                }
            ],
            "stateMutability": "pure",
            "type": "function"
        },
        {
            "inputs": [
                {
                    "internalType": "bytes",
                    "name": "condition",
                    "type": "bytes"
                },
                {
                    "internalType": "bytes",
                    "name": "solution",
                    "type": "bytes"
                }
            ],
            "name": "fill",
            "outputs": [],
            "stateMutability": "nonpayable",
            "type": "function"
        },
        {
            "inputs": [
                {
                    "internalType": "bytes",
                    "name": "solution",
                    "type": "bytes"
                }
            ],
            "name": "resolveRecipient",
            "outputs": [
                {
                    "internalType": "address",
                    "name": "",
                    "type": "address"
                }
            ],
            "stateMutability": "pure",
            "type": "function"
        },
        {
            "inputs": [
                {
                    "internalType": "contract IERC20",
                    "name": "token",
                    "type": "address"
                },
                {
                    "internalType": "address",
                    "name": "to",
                    "type": "address"
                }
            ],
            "name": "sweep",
            "outputs": [],
            "stateMutability": "nonpayable",
            "type": "function"
        }
    ],
    "bytecode": "0x60806040523460195760405161090d61001e823961090d90f35b5f80fdfe60806040526004361015610011575f80fd5b5f3560e01c80635b492b70146100605780635d1584611461005b5780635db2558c14610056578063b8dc491b146100515763c24358fa03610095576102b4565b610279565b6101f4565b610148565b6100e7565b909182601f830112156100955781359167ffffffffffffffff831161009557602001926001830284011161009557565b5f80fd5b909160408284031261009557813567ffffffffffffffff811161009557836100c2918401610065565b929093602082013567ffffffffffffffff8111610095576100e39201610065565b9091565b34610095576101036100fa366004610099565b9291909161043c565b60405180805b0390f35b9060208282031261009557813567ffffffffffffffff8111610095576100e39201610065565b6001600160a01b031690565b90565b9052565b565b346100955761010961016461015e36600461010d565b90610504565b604051918291826001600160a01b03909116815260200190565b908160809103126100955790565b906080828203126100955761013f9161017e565b90825f9392825e0152565b6101cc6101d56020936101df936101c0815190565b80835293849260200190565b958691016101a0565b601f01601f191690565b0190565b602080825261013f929101906101ab565b346100955761010961020f61020a36600461018c565b6105cc565b604051918291826101e3565b6001600160a01b0381165b0361009557565b905035906101468261021b565b6001600160a01b038116610226565b905035906101468261023a565b91906040838203126100955761013f906020610272828661022d565b9401610249565b346100955761010361028c366004610256565b90610620565b908160209103126100955790565b906020828203126100955761013f91610292565b346100955761010961020f6102ca3660046102a0565b610704565b7f4e487b71000000000000000000000000000000000000000000000000000000005f52604160045260245ffd5b90601f01601f1916810190811067ffffffffffffffff82111761031e57604052565b6102cf565b9061014661033060405190565b92836102fc565b80610226565b9050359061014682610337565b91906080838203126100955761039d9060606103666080610323565b946103718382610249565b8652610380836020830161022d565b6020870152610392836040830161033d565b60408701520161033d565b6060830152565b906080828203126100955761013f9161034a565b9081526040810192916101469160200152565b156103d4575050565b7ffbb40379000000000000000000000000000000000000000000000000000000005f908152916104059160046103b8565b035ffd5b919060208382031261009557610424905f6102726020610323565b8252565b906020828203126100955761013f91610409565b91610451610146949361047e938101906103a4565b926104766060850161046e61046761013f835190565b4614915190565b9046906103cb565b810190610428565b906104a65f61049760208401516001600160a01b031690565b9301516001600160a01b031690565b6104c260406104bc84516001600160a01b031690565b93015190565b92610782565b906020828203126100955761013f91610249565b61013361013f61013f926001600160a01b031690565b61013f906104dc565b61013f906104f2565b61051c9061013f926105135f90565b508101906104c8565b6104fb565b5061013f906020810190610249565b5061013f90602081019061022d565b610142906104fb565b5061013f90602081019061033d565b9060606105b76101469361057d6105705f830183610521565b6001600160a01b03168552565b61059761058d6020830183610530565b602086019061053f565b6105ae6105a76040830183610548565b6040860152565b82810190610548565b910152565b6080810192916101469190610557565b61013f6105d860405190565b80926105e86020830191826105bc565b908103825203826102fc565b9050519061014682610337565b906020828203126100955761013f916105f4565b6040513d5f823e3d90fd5b61068391602061062f836104fb565b610638306104fb565b9061064260405190565b958692839182917f70a08231000000000000000000000000000000000000000000000000000000008352600483016001600160a01b03909116815260200190565b03915afa9182156106d057610146935f9361069f575b506107e9565b6106c291935060203d6020116106c9575b6106ba81836102fc565b810190610601565b915f610699565b503d6106b0565b610615565b61014691905f906106e69080610521565b6001600160a01b0316910152565b60208101929161014691906106d5565b61013f61071060405190565b80926105e86020830191826106f4565b61073961073361013f9263ffffffff1690565b60e01b90565b7fffffffff000000000000000000000000000000000000000000000000000000001690565b6001600160a01b039182168152911660208201526060810192916101469160400152565b906107c7906107b86101469560049561079e6323b872dd610720565b936107a860405190565b978895602087019081520161075e565b602082018103825203836102fc565b61082a565b6001600160a01b0390911681526040810192916101469160200152565b6107c76004926107b86101469561080363a9059cbb610720565b9261080d60405190565b96879460208601908152016107cc565b61013f61013f61013f9290565b905f6020916108365f90565b50828151910182855af115610615573d5f51906108596108555f61081d565b9190565b036108c35750610868816104fb565b3b6108756108555f61081d565b145b61087e5750565b61040561088b5f926104fb565b7f5274afe70000000000000000000000000000000000000000000000000000000083526001600160a01b031660048301526024820190565b6108d0610855600161081d565b141561087756fea264697066735822122028384999fcc2e7773ed42e7285e4f45668c4a686bcfc486ec86b9864c221a14f64736f6c634300081c0033",
    "linkReferences": {},
    "deployedLinkReferences": {},
    "immutableReferences": {},
    "inputSourceName": "project/contracts/v3/unlockers/DirectUnlocker.sol",
    "buildInfoId": "solc-0_8_28-2fe8af0290fc2413c11ae4ec5b0fbce3238cc7c9"
}