{
    "_format": "hh3-artifact-1",
    "contractName": "Bridge",
    "sourceName": "contracts/v3/Bridge.sol",
    "abi": [
        {
            "inputs": [],
            "name": "InvalidInitialization",
            "type": "error"
        },
        {
            "inputs": [],
            "name": "NotInitializing",
            "type": "error"
        },
        {
            "inputs": [
                {
                    "internalType": "address",
                    "name": "owner",
                    "type": "address"
                }
            ],
            "name": "OwnableInvalidOwner",
            "type": "error"
        },
        {
            "inputs": [
                {
                    "internalType": "address",
                    "name": "account",
                    "type": "address"
                }
            ],
            "name": "OwnableUnauthorizedAccount",
            "type": "error"
        },
        {
            "inputs": [
                {
                    "internalType": "address",
                    "name": "token",
                    "type": "address"
                }
            ],
            "name": "SafeERC20FailedOperation",
            "type": "error"
        },
        {
            "anonymous": false,
            "inputs": [
                {
                    "indexed": false,
                    "internalType": "uint64",
                    "name": "version",
                    "type": "uint64"
                }
            ],
            "name": "Initialized",
            "type": "event"
        },
        {
            "anonymous": false,
            "inputs": [
                {
                    "indexed": true,
                    "internalType": "address",
                    "name": "oldMPC",
                    "type": "address"
                },
                {
                    "indexed": true,
                    "internalType": "address",
                    "name": "newMPC",
                    "type": "address"
                },
                {
                    "indexed": true,
                    "internalType": "uint256",
                    "name": "effectiveTime",
                    "type": "uint256"
                },
                {
                    "indexed": false,
                    "internalType": "uint256",
                    "name": "chainId",
                    "type": "uint256"
                }
            ],
            "name": "LogChangeMPC",
            "type": "event"
        },
        {
            "anonymous": false,
            "inputs": [
                {
                    "indexed": false,
                    "internalType": "address",
                    "name": "bridge",
                    "type": "address"
                },
                {
                    "indexed": false,
                    "internalType": "bytes",
                    "name": "callData",
                    "type": "bytes"
                },
                {
                    "indexed": false,
                    "internalType": "address",
                    "name": "receiveSide",
                    "type": "address"
                },
                {
                    "indexed": false,
                    "internalType": "address",
                    "name": "oppositeBridge",
                    "type": "address"
                },
                {
                    "indexed": false,
                    "internalType": "uint256",
                    "name": "chainId",
                    "type": "uint256"
                }
            ],
            "name": "OracleRequest",
            "type": "event"
        },
        {
            "anonymous": false,
            "inputs": [
                {
                    "indexed": true,
                    "internalType": "address",
                    "name": "previousOwner",
                    "type": "address"
                },
                {
                    "indexed": true,
                    "internalType": "address",
                    "name": "newOwner",
                    "type": "address"
                }
            ],
            "name": "OwnershipTransferStarted",
            "type": "event"
        },
        {
            "anonymous": false,
            "inputs": [
                {
                    "indexed": true,
                    "internalType": "address",
                    "name": "previousOwner",
                    "type": "address"
                },
                {
                    "indexed": true,
                    "internalType": "address",
                    "name": "newOwner",
                    "type": "address"
                }
            ],
            "name": "OwnershipTransferred",
            "type": "event"
        },
        {
            "anonymous": false,
            "inputs": [
                {
                    "indexed": true,
                    "internalType": "address",
                    "name": "transmitter",
                    "type": "address"
                },
                {
                    "indexed": false,
                    "internalType": "bool",
                    "name": "status",
                    "type": "bool"
                }
            ],
            "name": "SetTransmitterStatus",
            "type": "event"
        },
        {
            "inputs": [],
            "name": "acceptOwnership",
            "outputs": [],
            "stateMutability": "nonpayable",
            "type": "function"
        },
        {
            "inputs": [
                {
                    "internalType": "address",
                    "name": "_newMPC",
                    "type": "address"
                }
            ],
            "name": "changeMPC",
            "outputs": [
                {
                    "internalType": "bool",
                    "name": "",
                    "type": "bool"
                }
            ],
            "stateMutability": "nonpayable",
            "type": "function"
        },
        {
            "inputs": [
                {
                    "internalType": "address",
                    "name": "_newMPC",
                    "type": "address"
                },
                {
                    "internalType": "bytes",
                    "name": "signature",
                    "type": "bytes"
                }
            ],
            "name": "changeMPCSigned",
            "outputs": [
                {
                    "internalType": "bool",
                    "name": "",
                    "type": "bool"
                }
            ],
            "stateMutability": "nonpayable",
            "type": "function"
        },
        {
            "inputs": [],
            "name": "currentChainId",
            "outputs": [
                {
                    "internalType": "uint256",
                    "name": "",
                    "type": "uint256"
                }
            ],
            "stateMutability": "view",
            "type": "function"
        },
        {
            "inputs": [
                {
                    "internalType": "address",
                    "name": "_newMPC",
                    "type": "address"
                }
            ],
            "name": "getMpcHash",
            "outputs": [
                {
                    "internalType": "bytes32",
                    "name": "",
                    "type": "bytes32"
                }
            ],
            "stateMutability": "view",
            "type": "function"
        },
        {
            "inputs": [
                {
                    "internalType": "bytes",
                    "name": "_callData",
                    "type": "bytes"
                },
                {
                    "internalType": "address",
                    "name": "_receiveSide",
                    "type": "address"
                }
            ],
            "name": "getRequestHash",
            "outputs": [
                {
                    "internalType": "bytes32",
                    "name": "",
                    "type": "bytes32"
                }
            ],
            "stateMutability": "view",
            "type": "function"
        },
        {
            "inputs": [
                {
                    "internalType": "address",
                    "name": "_mpc",
                    "type": "address"
                }
            ],
            "name": "initialize",
            "outputs": [],
            "stateMutability": "nonpayable",
            "type": "function"
        },
        {
            "inputs": [
                {
                    "internalType": "address",
                    "name": "",
                    "type": "address"
                }
            ],
            "name": "isTransmitter",
            "outputs": [
                {
                    "internalType": "bool",
                    "name": "",
                    "type": "bool"
                }
            ],
            "stateMutability": "view",
            "type": "function"
        },
        {
            "inputs": [],
            "name": "mpc",
            "outputs": [
                {
                    "internalType": "address",
                    "name": "",
                    "type": "address"
                }
            ],
            "stateMutability": "view",
            "type": "function"
        },
        {
            "inputs": [],
            "name": "newMPC",
            "outputs": [
                {
                    "internalType": "address",
                    "name": "",
                    "type": "address"
                }
            ],
            "stateMutability": "view",
            "type": "function"
        },
        {
            "inputs": [],
            "name": "newMPCEffectiveTime",
            "outputs": [
                {
                    "internalType": "uint256",
                    "name": "",
                    "type": "uint256"
                }
            ],
            "stateMutability": "view",
            "type": "function"
        },
        {
            "inputs": [],
            "name": "oldMPC",
            "outputs": [
                {
                    "internalType": "address",
                    "name": "",
                    "type": "address"
                }
            ],
            "stateMutability": "view",
            "type": "function"
        },
        {
            "inputs": [],
            "name": "owner",
            "outputs": [
                {
                    "internalType": "address",
                    "name": "",
                    "type": "address"
                }
            ],
            "stateMutability": "view",
            "type": "function"
        },
        {
            "inputs": [],
            "name": "pendingOwner",
            "outputs": [
                {
                    "internalType": "address",
                    "name": "",
                    "type": "address"
                }
            ],
            "stateMutability": "view",
            "type": "function"
        },
        {
            "inputs": [
                {
                    "internalType": "bytes",
                    "name": "_callData",
                    "type": "bytes"
                },
                {
                    "internalType": "address",
                    "name": "_receiveSide",
                    "type": "address"
                }
            ],
            "name": "receiveRequestV2",
            "outputs": [],
            "stateMutability": "nonpayable",
            "type": "function"
        },
        {
            "inputs": [
                {
                    "internalType": "bytes",
                    "name": "_callData",
                    "type": "bytes"
                },
                {
                    "internalType": "address",
                    "name": "_receiveSide",
                    "type": "address"
                },
                {
                    "internalType": "bytes",
                    "name": "signature",
                    "type": "bytes"
                }
            ],
            "name": "receiveRequestV2Signed",
            "outputs": [],
            "stateMutability": "nonpayable",
            "type": "function"
        },
        {
            "inputs": [],
            "name": "renounceOwnership",
            "outputs": [],
            "stateMutability": "nonpayable",
            "type": "function"
        },
        {
            "inputs": [
                {
                    "internalType": "address",
                    "name": "_transmitter",
                    "type": "address"
                },
                {
                    "internalType": "bool",
                    "name": "_status",
                    "type": "bool"
                }
            ],
            "name": "setTransmitterStatus",
            "outputs": [],
            "stateMutability": "nonpayable",
            "type": "function"
        },
        {
            "inputs": [
                {
                    "internalType": "address",
                    "name": "newOwner",
                    "type": "address"
                }
            ],
            "name": "transferOwnership",
            "outputs": [],
            "stateMutability": "nonpayable",
            "type": "function"
        },
        {
            "inputs": [
                {
                    "internalType": "bytes",
                    "name": "_callData",
                    "type": "bytes"
                },
                {
                    "internalType": "address",
                    "name": "_receiveSide",
                    "type": "address"
                },
                {
                    "internalType": "address",
                    "name": "_oppositeBridge",
                    "type": "address"
                },
                {
                    "internalType": "uint256",
                    "name": "_chainId",
                    "type": "uint256"
                }
            ],
            "name": "transmitRequestV2",
            "outputs": [],
            "stateMutability": "nonpayable",
            "type": "function"
        },
        {
            "inputs": [
                {
                    "internalType": "contract IERC20",
                    "name": "token",
                    "type": "address"
                },
                {
                    "internalType": "address",
                    "name": "to",
                    "type": "address"
                },
                {
                    "internalType": "uint256",
                    "name": "amount",
                    "type": "uint256"
                }
            ],
            "name": "withdrawFee",
            "outputs": [],
            "stateMutability": "nonpayable",
            "type": "function"
        }
    ],
    "bytecode": "0x608060405234601957604051611ba961001e8239611ba990f35b5f80fdfe60806040526004361015610011575f80fd5b5f3560e01c80631095b6d714610160578063154fbf241461015b57806319117d931461015657806338899935146101515780633d05b0881461014c578063405fb4f714610147578063474a245a146101425780635b7b018c1461013d5780636cbadbfa146101385780636cebc9c2146101335780636fac30071461012e578063715018a61461012957806379ba50971461012457806384d61c971461011f5780638da5cb5b1461011a578063c00f8a3d14610115578063c4d66de814610110578063e30c39781461010b578063f2fde38b14610106578063f75c2664146101015763f7f1baf0036101865761074d565b610732565b61071a565b6106ff565b6106e7565b6106cc565b6106a6565b61068d565b610620565b610608565b6105ed565b610565565b610504565b6104e9565b6104b4565b610470565b610429565b6103c4565b610297565b610233565b6101f8565b6001600160a01b031690565b90565b6001600160a01b0381165b0361018657565b5f80fd5b9050359061019782610174565b565b6001600160a01b03811661017f565b9050359061019782610199565b8061017f565b90503590610197826101b5565b9091606082840312610186576101716101e1848461018a565b9360406101f182602087016101a8565b94016101bb565b346101865761021161020b3660046101c8565b9161077f565b60405180805b0390f35b9060208282031261018657610171916101a8565b9052565b346101865761021761024e61024936600461021b565b610855565b6040515b9182918290815260200190565b80151561017f565b905035906101978261025f565b91906040838203126101865761017190602061029082866101a8565b9401610267565b34610186576102116102aa366004610274565b9061092b565b7f4e487b71000000000000000000000000000000000000000000000000000000005f52604160045260245ffd5b90601f01601f1916810190811067ffffffffffffffff8211176102ff57604052565b6102b0565b9061019761031160405190565b92836102dd565b67ffffffffffffffff81116102ff57602090601f01601f19160190565b0190565b90825f939282370152565b9092919261035961035482610318565b610304565b938185528183011161018657610197916020850190610339565b9080601f830112156101865781602061017193359101610344565b919091604081840312610186576103a583826101a8565b92602082013567ffffffffffffffff8111610186576101719201610373565b34610186576102176103e06103da36600461038e565b90610a71565b6040515b91829182901515815260200190565b91906040838203126101865782359067ffffffffffffffff821161018657602061042282610171948701610373565b94016101a8565b346101865761021761024e61043f3660046103f3565b90610b25565b5f91031261018657565b610171916008021c81565b90610171915461044f565b6101715f600261045a565b3461018657610480366004610445565b61021761024e610465565b610171916008021c6001600160a01b031690565b90610171915461048b565b6101715f8061049f565b34610186576104c4366004610445565b6102176104cf6104aa565b604051918291826001600160a01b03909116815260200190565b34610186576102176103e06104ff36600461021b565b610c1c565b3461018657610514366004610445565b6102174661024e565b60808183031261018657803567ffffffffffffffff81116101865782610544918301610373565b9261017161055584602085016101a8565b9360606101f182604087016101a8565b346101865761021161057836600461051d565b92919091610d8a565b610165610171610171926001600160a01b031690565b61017190610581565b61017190610597565b906105b3906105a0565b5f5260205260405f2090565b610171916008021c5b60ff1690565b9061017191546105bf565b5f6105e86101719260036105a9565b6105ce565b34610186576102176103e061060336600461021b565b6105d9565b3461018657610618366004610445565b610211610dcd565b3461018657610630366004610445565b610211610dd5565b9160608383031261018657823567ffffffffffffffff81116101865782610660918501610373565b9261066e83602083016101a8565b92604082013567ffffffffffffffff8111610186576101719201610373565b34610186576102116106a0366004610638565b91610ee1565b34610186576106b6366004610445565b6102176104cf610eec565b6101715f600161049f565b34610186576106dc366004610445565b6102176104cf6106c1565b34610186576102116106fa36600461021b565b61118e565b346101865761070f366004610445565b6102176104cf611197565b346101865761021161072d36600461021b565b61123b565b3461018657610742366004610445565b6102176104cf611255565b34610186576102116107603660046103f3565b906112f6565b906101979291610774611300565b906101979291611376565b906101979291610766565b6107a66107a0610171926001600160a01b031690565b60601b90565b6bffffffffffffffffffffffff191690565b6101719061078a565b6101716101716101719290565b6014939261080b8561033594610821600960209661080b817f6368616e67654d504300000000000000000000000000000000000000000000009052565b0180926bffffffffffffffffffffffff19169052565b01918252565b906101979193929361084961083b60405190565b9586936020850193846107ce565b908103825203836102dd565b610869610889916108635f90565b506107b8565b610872466107c1565b61088361087e306105a0565b6107b8565b91610827565b61089b610894825190565b9160200190565b2090565b90610197916108ac611300565b6108db565b9060ff905b9181191691161790565b906108d06101716108d792151590565b82546108b1565b9055565b61092661091c7feeec8b4e2d317fc608f301f859237a6081b9813f150a3fcfb02fd54276c8be4092610917856109128360036105a9565b6108c0565b6105a0565b926103e460405190565b0390a2565b906101979161089f565b90505190610197826101b5565b906020828203126101865761017191610935565b6040513d5f823e3d90fd5b1561096857565b60405162461bcd60e51b815260206004820152601b60248201527f42726964676556323a20696e76616c6964207369676e617475726500000000006044820152606490fd5b91906109b8306105a0565b9260206109c460405190565b7f154fbf240000000000000000000000000000000000000000000000000000000081526001600160a01b038416600482015294859060249082905afa938415610a6157610a288461017196610a2d935f91610a32575b50610a23611255565b611404565b610961565b610a66565b610a54915060203d602011610a5a575b610a4c81836102dd565b810190610942565b5f610a1a565b503d610a42565b610956565b6101719250506114b0565b61017191905f6109ad565b90825f9392825e0152565b610335610a9f92602092610a99815190565b94859290565b93849101610a7c565b9261080b601461033594610821610af06020966010859b9a610ae9817f72656365697665526571756573745632000000000000000000000000000000009052565b0190610a87565b80926bffffffffffffffffffffffff19169052565b610849610197939594610b1760405190565b968794602086019485610aa8565b610b33610889926108635f90565b610b3c466107c1565b90610b4961087e306105a0565b92610b05565b15610b5657565b60405162461bcd60e51b8152602060048201526024808201527f42726964676556323a206f6e6c79206f776e6572206f72204d50432063616e2060448201527f63616c6c000000000000000000000000000000000000000000000000000000006064820152608490fd5b9061017191610bcd611255565b610bdf335b916001600160a01b031690565b148015610bf5575b610bf090610b4f565b610c12565b50610bf0610c01610eec565b610c0a33610bd2565b149050610be7565b50610171906114b0565b610171905f610bc0565b610171906105c8565b6101719054610c26565b15610c4057565b60405162461bcd60e51b815260206004820152601b60248201527f42726964676556323a206e6f742061207472616e736d697474657200000000006044820152606490fd5b90610197939291610ca7610ca2610c9d3360036105a9565b610c2f565b610c39565b610d42565b610ccd610cd660209361033593610cc1815190565b80835293849260200190565b95869101610a7c565b601f01601f191690565b9061019794610d2e610d1c610d3e936080969a99979a610d0f60a08801925f8901906001600160a01b03169052565b8682036020880152610cac565b6001600160a01b039099166040850152565b6001600160a01b03166060830152565b0152565b917f532dbb6d061eee97ab4370060f60ede10b3dc361cc1214c07ae5e34dd86e6aaf93610d8591610d72306105a0565b93610d7c60405190565b95869586610ce0565b0390a1565b90610197939291610c85565b610d9e611300565b610197610dbc565b6101656101716101719290565b61017190610da6565b610197610dc85f610db3565b6115a8565b610197610d96565b33610dde611197565b610df06001600160a01b038316610bd2565b03610dfe57610197906115a8565b7f118cdaa7000000000000000000000000000000000000000000000000000000005f9081526001600160a01b0390911660045260245b035ffd5b92916020610e546101979360408701908782035f890152610cac565b9401906001600160a01b03169052565b9190610e6f306105a0565b926020610e7b60405190565b9485907f3d05b0880000000000000000000000000000000000000000000000000000000082528180610eb1878760048401610e38565b03915afa938415610a6157610a288461019796610ed7935f91610a325750610a23611255565b6101979250611657565b906101979291610e64565b6101715f7f9016d09d72d40fdae2fd8ceac6b6234c7706214fd39c1cd1e609a0528c1993005b01546001600160a01b031690565b6101719060401c6105c8565b6101719054610f20565b610171905b67ffffffffffffffff1690565b6101719054610f36565b610f3b6101716101719290565b9067ffffffffffffffff906108b6565b610f3b6101716101719267ffffffffffffffff1690565b90610f966101716108d792610f6f565b8254610f5f565b9068ff00000000000000009060401b6108b6565b90610fc16101716108d792151590565b8254610f9d565b61022f90610f52565b6020810192916101979190610fc8565b610fe96116f3565b80611003610ffd610ff983610f2c565b1590565b91610f48565b9261100d5f610f52565b67ffffffffffffffff85161480611123575b60019461103c61102e87610f52565b9167ffffffffffffffff1690565b1490816110fb575b155b90816110f2575b506110c857611076908261106d5f61106488610f52565b96019586610f86565b6110b957611170565b61107e575050565b7fc7f505b2f371ae2175ee4913f4499e1f2633a7b5936321eed1cdaeb6115181d2916110ad5f610d8593610fb1565b60405191829182610fd1565b6110c38585610fb1565b611170565b7ff92ee8a9000000000000000000000000000000000000000000000000000000005f908152600490fd5b1590505f61104d565b9050611046611109306105a0565b3b61111a6111165f6107c1565b9190565b14919050611044565b508161101f565b906001600160a01b03906108b6565b906111496101716108d7926105a0565b825461112a565b905f19906108b6565b906111696101716108d7926107c1565b8254611150565b6111839061117d33611710565b5f611139565b610197426002611159565b61019790610fe1565b6101715f7f237e158222e3e6968b72b9db0d8043aacf074ad9f650f0d1606b4d82ee432c00610f12565b610197906111cd611300565b6111f7817f237e158222e3e6968b72b9db0d8043aacf074ad9f650f0d1606b4d82ee432c00611139565b61120b611205610917610eec565b916105a0565b907f38d16b8cac22d99fc7c124b9cd0de2d3fa1faef420bfe791d8c362d765e2270061123660405190565b5f90a3565b610197906111c1565b6101719081565b6101719054611244565b611262610171600261124b565b421015611278576001546001600160a01b031690565b5f546001600160a01b031690565b1561128d57565b60405162461bcd60e51b815260206004820152601360248201527f42726964676556323a20666f7262696464656e000000000000000000000000006044820152606490fd5b90610197916112ec6112e5610165611255565b3314611286565b9061019791611657565b90610197916112d2565b611308610eec565b339061131382610bd2565b03610dfe5750565b61133461132e6101719263ffffffff1690565b60e01b90565b7fffffffff000000000000000000000000000000000000000000000000000000001690565b6001600160a01b0390911681526040810192916101979160200152565b6113b96004926113aa6101979561139063a9059cbb61131b565b9261139a60405190565b9687946020860190815201611359565b602082018103825203836102dd565b611719565b7f4e487b71000000000000000000000000000000000000000000000000000000005f52602160045260245ffd5b600411156113f557565b6113be565b90610197826113eb565b9190823b6114146111165f6107c1565b0361145b5790611423916118b0565b506114366114305f6113fa565b916113fa565b14918261144257505090565b909150611457906001600160a01b0316610bd2565b1490565b610171926117da565b1561146b57565b60405162461bcd60e51b815260206004820152601660248201527f42726964676556323a20616464726573732830783029000000000000000000006044820152606490fd5b6114e6906114d46114c36101655f610db3565b6001600160a01b0383161415611464565b61117d6114df611255565b6001611139565b6114f1426002611159565b6001546001600160a01b03165f546001600160a01b0316611512600261124b565b907fcda32bc39904597666dfa9f9c845714756e1ffffad55b52e0d344673a219812161155d61155361154d61154746976105a0565b946105a0565b946107c1565b9461025260405190565b0390a4600190565b919060086108b691029161157f6001600160a01b03841b90565b921b90565b91906115956101716108d7936105a0565b908354611565565b610197915f91611584565b610197906115d65f7f237e158222e3e6968b72b9db0d8043aacf074ad9f650f0d1606b4d82ee432c0061159d565b611915565b156115e257565b60405162461bcd60e51b815260206004820152601f60248201527f42726964676556323a20756e74727573746564207472616e736d6974746572006044820152606490fd5b9061163461035483610318565b918252565b3d15611652576116483d611627565b903d5f602084013e565b606090565b5f9190829161167261166d610c9d8360036105a9565b6115db565b82602083519301915af161168c611687611639565b911590565b6116935750565b80516116a16111165f6107c1565b116116eb5760405162461bcd60e51b815260206004820152601560248201527f42726964676556323a2063616c6c206661696c656400000000000000000000006044820152606490fd5b602081519101fd5b6101716119ab565b610197906117076119b3565b61019790611a5f565b610197906116fb565b905f6020916117255f90565b50828151910182855af115610956573d5f51906117446111165f6107c1565b036117ae5750611753816105a0565b3b6117606111165f6107c1565b145b6117695750565b610e346117765f926105a0565b7f5274afe70000000000000000000000000000000000000000000000000000000083526001600160a01b031660048301526024820190565b6117bb61111660016107c1565b1415611762565b90815260406020820181905261017192910190610cac565b915f9261182884936117e95f90565b506113aa6117f660405190565b9485926004602085017f1626ba7e000000000000000000000000000000000000000000000000000000008152016117c2565b602082519201905afa611839611639565b81611891575b81611848575090565b61186291506020611857825190565b818301019101610942565b6114576111166101717f1626ba7e00000000000000000000000000000000000000000000000000000000611334565b905061189b815190565b6118a861111660206107c1565b10159061183f565b905f916118bb825190565b6118c861111660416107c1565b036118f1576118ea9250602082015190606060408401519301515f1a90611aa0565b9192909190565b50905061190d6119086119035f610db3565b925190565b6107c1565b909160029190565b6119576112057f9016d09d72d40fdae2fd8ceac6b6234c7706214fd39c1cd1e609a0528c1993006109178461195183546001600160a01b031690565b92611139565b907f8be0079c531659141344cd1fd0a4f28419497f9722a3daafe3b4186f6b6457e061123660405190565b6101717ff0c57e16840df040f15088dc2f81fe391c3923bec73e23a9662efc9c229c6a006107c1565b610171611982565b6119be610ff9611b61565b6119c457565b7fd7e6bcf8000000000000000000000000000000000000000000000000000000005f908152600490fd5b610197906119fa6119b3565b611a035f610db3565b6001600160a01b0381166001600160a01b03831614611a265750610197906115a8565b7f1e4fbdf7000000000000000000000000000000000000000000000000000000005f9081526001600160a01b039091166004526024035ffd5b610197906119ee565b610171906107c1565b610d3e61019794611a99606094989795611a8f608086019a5f870152565b60ff166020850152565b6040830152565b9091611aab84611a68565b611ad76111167f7fffffffffffffffffffffffffffffff5d576e7357a4501ddfe92f46681b20a06107c1565b11611b4e5790611af86020945f9493611aef60405190565b94859485611a71565b838052039060015afa15610a61575f51611b115f610db3565b6001600160a01b0381166001600160a01b03831614611b3b5750611b345f6107c1565b90915f9190565b9050611b465f6107c1565b909160019190565b505050611b5a5f610db3565b9160039190565b6101715f611b6d6116f3565b01610f2c56fea264697066735822122034926f3beba847898fbc2c2c800a6f84f97e895db261cb86405f9babd402fb0364736f6c634300081c0033",
    "linkReferences": {},
    "deployedLinkReferences": {},
    "immutableReferences": {},
    "inputSourceName": "project/contracts/v3/Bridge.sol",
    "buildInfoId": "solc-0_8_28-74d12c940df3b8e518dd6cf90acd7737144128bf"
}