{
    "_format": "hh3-artifact-1",
    "contractName": "Bridge",
    "sourceName": "contracts/v3/Bridge.sol",
    "abi": [
        {
            "inputs": [],
            "stateMutability": "nonpayable",
            "type": "constructor"
        },
        {
            "inputs": [
                {
                    "internalType": "address",
                    "name": "target",
                    "type": "address"
                }
            ],
            "name": "AddressEmptyCode",
            "type": "error"
        },
        {
            "inputs": [
                {
                    "internalType": "address",
                    "name": "implementation",
                    "type": "address"
                }
            ],
            "name": "ERC1967InvalidImplementation",
            "type": "error"
        },
        {
            "inputs": [],
            "name": "ERC1967NonPayable",
            "type": "error"
        },
        {
            "inputs": [],
            "name": "FailedCall",
            "type": "error"
        },
        {
            "inputs": [],
            "name": "InvalidInitialization",
            "type": "error"
        },
        {
            "inputs": [],
            "name": "NotInitializing",
            "type": "error"
        },
        {
            "inputs": [
                {
                    "internalType": "address",
                    "name": "owner",
                    "type": "address"
                }
            ],
            "name": "OwnableInvalidOwner",
            "type": "error"
        },
        {
            "inputs": [
                {
                    "internalType": "address",
                    "name": "account",
                    "type": "address"
                }
            ],
            "name": "OwnableUnauthorizedAccount",
            "type": "error"
        },
        {
            "inputs": [
                {
                    "internalType": "address",
                    "name": "token",
                    "type": "address"
                }
            ],
            "name": "SafeERC20FailedOperation",
            "type": "error"
        },
        {
            "inputs": [],
            "name": "UUPSUnauthorizedCallContext",
            "type": "error"
        },
        {
            "inputs": [
                {
                    "internalType": "bytes32",
                    "name": "slot",
                    "type": "bytes32"
                }
            ],
            "name": "UUPSUnsupportedProxiableUUID",
            "type": "error"
        },
        {
            "anonymous": false,
            "inputs": [
                {
                    "indexed": false,
                    "internalType": "uint64",
                    "name": "version",
                    "type": "uint64"
                }
            ],
            "name": "Initialized",
            "type": "event"
        },
        {
            "anonymous": false,
            "inputs": [
                {
                    "indexed": true,
                    "internalType": "address",
                    "name": "oldMPC",
                    "type": "address"
                },
                {
                    "indexed": true,
                    "internalType": "address",
                    "name": "newMPC",
                    "type": "address"
                },
                {
                    "indexed": true,
                    "internalType": "uint256",
                    "name": "effectiveTime",
                    "type": "uint256"
                },
                {
                    "indexed": false,
                    "internalType": "uint256",
                    "name": "chainId",
                    "type": "uint256"
                }
            ],
            "name": "LogChangeMPC",
            "type": "event"
        },
        {
            "anonymous": false,
            "inputs": [
                {
                    "indexed": false,
                    "internalType": "address",
                    "name": "bridge",
                    "type": "address"
                },
                {
                    "indexed": false,
                    "internalType": "bytes",
                    "name": "callData",
                    "type": "bytes"
                },
                {
                    "indexed": false,
                    "internalType": "address",
                    "name": "receiveSide",
                    "type": "address"
                },
                {
                    "indexed": false,
                    "internalType": "address",
                    "name": "oppositeBridge",
                    "type": "address"
                },
                {
                    "indexed": false,
                    "internalType": "uint256",
                    "name": "chainId",
                    "type": "uint256"
                }
            ],
            "name": "OracleRequest",
            "type": "event"
        },
        {
            "anonymous": false,
            "inputs": [
                {
                    "indexed": true,
                    "internalType": "address",
                    "name": "previousOwner",
                    "type": "address"
                },
                {
                    "indexed": true,
                    "internalType": "address",
                    "name": "newOwner",
                    "type": "address"
                }
            ],
            "name": "OwnershipTransferStarted",
            "type": "event"
        },
        {
            "anonymous": false,
            "inputs": [
                {
                    "indexed": true,
                    "internalType": "address",
                    "name": "previousOwner",
                    "type": "address"
                },
                {
                    "indexed": true,
                    "internalType": "address",
                    "name": "newOwner",
                    "type": "address"
                }
            ],
            "name": "OwnershipTransferred",
            "type": "event"
        },
        {
            "anonymous": false,
            "inputs": [
                {
                    "indexed": true,
                    "internalType": "address",
                    "name": "transmitter",
                    "type": "address"
                },
                {
                    "indexed": false,
                    "internalType": "bool",
                    "name": "status",
                    "type": "bool"
                }
            ],
            "name": "SetTransmitterStatus",
            "type": "event"
        },
        {
            "anonymous": false,
            "inputs": [
                {
                    "indexed": true,
                    "internalType": "address",
                    "name": "implementation",
                    "type": "address"
                }
            ],
            "name": "Upgraded",
            "type": "event"
        },
        {
            "inputs": [],
            "name": "UPGRADE_INTERFACE_VERSION",
            "outputs": [
                {
                    "internalType": "string",
                    "name": "",
                    "type": "string"
                }
            ],
            "stateMutability": "view",
            "type": "function"
        },
        {
            "inputs": [],
            "name": "acceptOwnership",
            "outputs": [],
            "stateMutability": "nonpayable",
            "type": "function"
        },
        {
            "inputs": [
                {
                    "internalType": "address",
                    "name": "_newMPC",
                    "type": "address"
                }
            ],
            "name": "changeMPC",
            "outputs": [
                {
                    "internalType": "bool",
                    "name": "",
                    "type": "bool"
                }
            ],
            "stateMutability": "nonpayable",
            "type": "function"
        },
        {
            "inputs": [
                {
                    "internalType": "address",
                    "name": "_newMPC",
                    "type": "address"
                },
                {
                    "internalType": "bytes",
                    "name": "signature",
                    "type": "bytes"
                }
            ],
            "name": "changeMPCSigned",
            "outputs": [
                {
                    "internalType": "bool",
                    "name": "",
                    "type": "bool"
                }
            ],
            "stateMutability": "nonpayable",
            "type": "function"
        },
        {
            "inputs": [],
            "name": "currentChainId",
            "outputs": [
                {
                    "internalType": "uint256",
                    "name": "",
                    "type": "uint256"
                }
            ],
            "stateMutability": "view",
            "type": "function"
        },
        {
            "inputs": [
                {
                    "internalType": "address",
                    "name": "_newMPC",
                    "type": "address"
                }
            ],
            "name": "getMpcHash",
            "outputs": [
                {
                    "internalType": "bytes32",
                    "name": "",
                    "type": "bytes32"
                }
            ],
            "stateMutability": "view",
            "type": "function"
        },
        {
            "inputs": [
                {
                    "internalType": "bytes",
                    "name": "_callData",
                    "type": "bytes"
                },
                {
                    "internalType": "address",
                    "name": "_receiveSide",
                    "type": "address"
                }
            ],
            "name": "getRequestHash",
            "outputs": [
                {
                    "internalType": "bytes32",
                    "name": "",
                    "type": "bytes32"
                }
            ],
            "stateMutability": "view",
            "type": "function"
        },
        {
            "inputs": [
                {
                    "internalType": "address",
                    "name": "_mpc",
                    "type": "address"
                },
                {
                    "internalType": "address",
                    "name": "owner_",
                    "type": "address"
                }
            ],
            "name": "initialize",
            "outputs": [],
            "stateMutability": "nonpayable",
            "type": "function"
        },
        {
            "inputs": [
                {
                    "internalType": "address",
                    "name": "",
                    "type": "address"
                }
            ],
            "name": "isTransmitter",
            "outputs": [
                {
                    "internalType": "bool",
                    "name": "",
                    "type": "bool"
                }
            ],
            "stateMutability": "view",
            "type": "function"
        },
        {
            "inputs": [],
            "name": "mpc",
            "outputs": [
                {
                    "internalType": "address",
                    "name": "",
                    "type": "address"
                }
            ],
            "stateMutability": "view",
            "type": "function"
        },
        {
            "inputs": [],
            "name": "newMPC",
            "outputs": [
                {
                    "internalType": "address",
                    "name": "",
                    "type": "address"
                }
            ],
            "stateMutability": "view",
            "type": "function"
        },
        {
            "inputs": [],
            "name": "newMPCEffectiveTime",
            "outputs": [
                {
                    "internalType": "uint256",
                    "name": "",
                    "type": "uint256"
                }
            ],
            "stateMutability": "view",
            "type": "function"
        },
        {
            "inputs": [],
            "name": "oldMPC",
            "outputs": [
                {
                    "internalType": "address",
                    "name": "",
                    "type": "address"
                }
            ],
            "stateMutability": "view",
            "type": "function"
        },
        {
            "inputs": [],
            "name": "owner",
            "outputs": [
                {
                    "internalType": "address",
                    "name": "",
                    "type": "address"
                }
            ],
            "stateMutability": "view",
            "type": "function"
        },
        {
            "inputs": [],
            "name": "pendingOwner",
            "outputs": [
                {
                    "internalType": "address",
                    "name": "",
                    "type": "address"
                }
            ],
            "stateMutability": "view",
            "type": "function"
        },
        {
            "inputs": [],
            "name": "proxiableUUID",
            "outputs": [
                {
                    "internalType": "bytes32",
                    "name": "",
                    "type": "bytes32"
                }
            ],
            "stateMutability": "view",
            "type": "function"
        },
        {
            "inputs": [
                {
                    "internalType": "bytes",
                    "name": "_callData",
                    "type": "bytes"
                },
                {
                    "internalType": "address",
                    "name": "_receiveSide",
                    "type": "address"
                }
            ],
            "name": "receiveRequestV2",
            "outputs": [],
            "stateMutability": "nonpayable",
            "type": "function"
        },
        {
            "inputs": [
                {
                    "internalType": "bytes",
                    "name": "_callData",
                    "type": "bytes"
                },
                {
                    "internalType": "address",
                    "name": "_receiveSide",
                    "type": "address"
                },
                {
                    "internalType": "bytes",
                    "name": "signature",
                    "type": "bytes"
                }
            ],
            "name": "receiveRequestV2Signed",
            "outputs": [],
            "stateMutability": "nonpayable",
            "type": "function"
        },
        {
            "inputs": [],
            "name": "renounceOwnership",
            "outputs": [],
            "stateMutability": "nonpayable",
            "type": "function"
        },
        {
            "inputs": [
                {
                    "internalType": "address",
                    "name": "_transmitter",
                    "type": "address"
                },
                {
                    "internalType": "bool",
                    "name": "_status",
                    "type": "bool"
                }
            ],
            "name": "setTransmitterStatus",
            "outputs": [],
            "stateMutability": "nonpayable",
            "type": "function"
        },
        {
            "inputs": [
                {
                    "internalType": "address",
                    "name": "newOwner",
                    "type": "address"
                }
            ],
            "name": "transferOwnership",
            "outputs": [],
            "stateMutability": "nonpayable",
            "type": "function"
        },
        {
            "inputs": [
                {
                    "internalType": "bytes",
                    "name": "_callData",
                    "type": "bytes"
                },
                {
                    "internalType": "address",
                    "name": "_receiveSide",
                    "type": "address"
                },
                {
                    "internalType": "address",
                    "name": "_oppositeBridge",
                    "type": "address"
                },
                {
                    "internalType": "uint256",
                    "name": "_chainId",
                    "type": "uint256"
                }
            ],
            "name": "transmitRequestV2",
            "outputs": [],
            "stateMutability": "nonpayable",
            "type": "function"
        },
        {
            "inputs": [
                {
                    "internalType": "address",
                    "name": "newImplementation",
                    "type": "address"
                },
                {
                    "internalType": "bytes",
                    "name": "data",
                    "type": "bytes"
                }
            ],
            "name": "upgradeToAndCall",
            "outputs": [],
            "stateMutability": "payable",
            "type": "function"
        },
        {
            "inputs": [
                {
                    "internalType": "contract IERC20",
                    "name": "token",
                    "type": "address"
                },
                {
                    "internalType": "address",
                    "name": "to",
                    "type": "address"
                },
                {
                    "internalType": "uint256",
                    "name": "amount",
                    "type": "uint256"
                }
            ],
            "name": "withdrawFee",
            "outputs": [],
            "stateMutability": "nonpayable",
            "type": "function"
        }
    ],
    "bytecode": "0x60a06040523461003257610011610036565b6040516120e66101ec823960805181818161173b01526118fa01526120e690f35b5f80fd5b61003e610048565b61004661010f565b565b61004661004661004661008b565b61006a9061006d906001600160a01b031682565b90565b6001600160a01b031690565b61006a90610056565b61006a90610079565b61009430610082565b608052565b61006a9060401c60ff1690565b61006a9054610099565b61006a905b6001600160401b031690565b61006a90546100b0565b61006a906100b5906001600160401b031682565b906100ef61006a61010b926100cb565b82546001600160401b0319166001600160401b03919091161790565b9055565b5f6101186101a5565b01610122816100a6565b6101945761012f816100c1565b6001600160401b0391908290811603610146575050565b816101757fc7f505b2f371ae2175ee4913f4499e1f2633a7b5936321eed1cdaeb6115181d29361018f936100df565b604051918291826001600160401b03909116815260200190565b0390a1565b63f92ee8a960e01b5f908152600490fd5b61006a6101e3565b61006a61006a61006a9290565b61006a7ff0c57e16840df040f15088dc2f81fe391c3923bec73e23a9662efc9c229c6a006101ad565b61006a6101ba56fe60806040526004361015610011575f80fd5b5f3560e01c80631095b6d714610190578063154fbf241461018b57806319117d931461018657806338899935146101815780633d05b0881461017c578063405fb4f714610177578063474a245a14610172578063485cc9551461016d5780634f1ef2861461016857806352d1902d146101635780635b7b018c1461015e5780636cbadbfa146101595780636cebc9c2146101545780636fac30071461014f578063715018a61461014a57806379ba50971461014557806384d61c97146101405780638da5cb5b1461013b578063ad3cb1cc14610136578063c00f8a3d14610131578063e30c39781461012c578063f2fde38b14610127578063f75c2664146101225763f7f1baf0036101b65761089d565b610882565b61086a565b61084f565b610834565b610802565b61073a565b610721565b6106b4565b61069c565b610681565b6105f9565b610598565b61057d565b610562565b61054e565b610535565b6104e4565b6104a0565b610459565b6103f4565b6102c7565b610263565b610228565b6001600160a01b031690565b90565b6001600160a01b0381165b036101b657565b5f80fd5b905035906101c7826101a4565b565b6001600160a01b0381166101af565b905035906101c7826101c9565b806101af565b905035906101c7826101e5565b90916060828403126101b6576101a161021184846101ba565b93604061022182602087016101d8565b94016101eb565b346101b65761024161023b3660046101f8565b916108cf565b60405180805b0390f35b906020828203126101b6576101a1916101d8565b9052565b346101b65761024761027e61027936600461024b565b6109a5565b6040515b9182918290815260200190565b8015156101af565b905035906101c78261028f565b91906040838203126101b6576101a19060206102c082866101d8565b9401610297565b346101b6576102416102da3660046102a4565b90610a7b565b7f4e487b71000000000000000000000000000000000000000000000000000000005f52604160045260245ffd5b90601f01601f1916810190811067ffffffffffffffff82111761032f57604052565b6102e0565b906101c761034160405190565b928361030d565b67ffffffffffffffff811161032f57602090601f01601f19160190565b0190565b90825f939282370152565b9092919261038961038482610348565b610334565b93818552818301116101b6576101c7916020850190610369565b9080601f830112156101b6578160206101a193359101610374565b9190916040818403126101b6576103d583826101d8565b92602082013567ffffffffffffffff81116101b6576101a192016103a3565b346101b65761024761041061040a3660046103be565b90610bc1565b6040515b91829182901515815260200190565b91906040838203126101b65782359067ffffffffffffffff82116101b6576020610452826101a19487016103a3565b94016101d8565b346101b65761024761027e61046f366004610423565b90610c6a565b5f9103126101b657565b6101a1916008021c81565b906101a1915461047f565b6101a15f600261048a565b346101b6576104b0366004610475565b61024761027e610495565b6101a1916008021c6001600160a01b031690565b906101a191546104bb565b6101a15f806104cf565b346101b6576104f4366004610475565b6102476104ff6104da565b604051918291826001600160a01b03909116815260200190565b91906040838203126101b6576101a190602061045282866101d8565b346101b657610241610548366004610519565b90610f12565b61024161055c3660046103be565b90610f3c565b346101b657610572366004610475565b61024761027e610f89565b346101b65761024761041061059336600461024b565b61105f565b346101b6576105a8366004610475565b6102474661027e565b6080818303126101b657803567ffffffffffffffff81116101b657826105d89183016103a3565b926101a16105e984602085016101d8565b93606061022182604087016101d8565b346101b65761024161060c3660046105b1565b92919091611194565b6101956101a16101a1926001600160a01b031690565b6101a190610615565b6101a19061062b565b9061064790610634565b5f5260205260405f2090565b6101a1916008021c5b60ff1690565b906101a19154610653565b5f61067c6101a192600361063d565b610662565b346101b65761024761041061069736600461024b565b61066d565b346101b6576106ac366004610475565b6102416111d7565b346101b6576106c4366004610475565b6102416111df565b916060838303126101b657823567ffffffffffffffff81116101b657826106f49185016103a3565b9261070283602083016101d8565b92604082013567ffffffffffffffff81116101b6576101a192016103a3565b346101b6576102416107343660046106cc565b916112ea565b346101b65761074a366004610475565b6102476104ff6112f5565b9061076261038483610348565b918252565b6107716005610755565b7f352e302e30000000000000000000000000000000000000000000000000000000602082015290565b6101a1610767565b6101a161079a565b6101a16107a2565b90825f9392825e0152565b6107de6107e7602093610365936107d2815190565b80835293849260200190565b958691016107b2565b601f01601f191690565b60208082526101a1929101906107bd565b346101b657610812366004610475565b61024761081d6107aa565b604051918291826107f1565b6101a15f60016104cf565b346101b657610844366004610475565b6102476104ff610829565b346101b65761085f366004610475565b6102476104ff611329565b346101b65761024161087d36600461024b565b6113d0565b346101b657610892366004610475565b6102476104ff6113ea565b346101b6576102416108b0366004610423565b9061148b565b906101c792916108c4611495565b906101c7929161150b565b906101c792916108b6565b6108f66108f06101a1926001600160a01b031690565b60601b90565b6bffffffffffffffffffffffff191690565b6101a1906108da565b6101a16101a16101a19290565b6014939261095b8561036594610971600960209661095b817f6368616e67654d504300000000000000000000000000000000000000000000009052565b0180926bffffffffffffffffffffffff19169052565b01918252565b906101c79193929361099961098b60405190565b95869360208501938461091e565b9081038252038361030d565b6109b96109d9916109b35f90565b50610908565b6109c246610911565b6109d36109ce30610634565b610908565b91610977565b6109eb6109e4825190565b9160200190565b2090565b906101c7916109fc611495565b610a2b565b9060ff905b9181191691161790565b90610a206101a1610a2792151590565b8254610a01565b9055565b610a76610a6c7feeec8b4e2d317fc608f301f859237a6081b9813f150a3fcfb02fd54276c8be4092610a6785610a6283600361063d565b610a10565b610634565b9261041460405190565b0390a2565b906101c7916109ef565b905051906101c7826101e5565b906020828203126101b6576101a191610a85565b6040513d5f823e3d90fd5b15610ab857565b60405162461bcd60e51b815260206004820152601b60248201527f42726964676556323a20696e76616c6964207369676e617475726500000000006044820152606490fd5b9190610b0830610634565b926020610b1460405190565b7f154fbf240000000000000000000000000000000000000000000000000000000081526001600160a01b038416600482015294859060249082905afa938415610bb157610b78846101a196610b7d935f91610b82575b50610b736113ea565b611599565b610ab1565b610bb6565b610ba4915060203d602011610baa575b610b9c818361030d565b810190610a92565b5f610b6a565b503d610b92565b610aa6565b6101a1925050611645565b6101a191905f610afd565b610365610be492602092610bde815190565b94859290565b938491016107b2565b9261095b601461036594610971610c356020966010859b9a610c2e817f72656365697665526571756573745632000000000000000000000000000000009052565b0190610bcc565b80926bffffffffffffffffffffffff19169052565b6109996101c7939594610c5c60405190565b968794602086019485610bed565b610c786109d9926109b35f90565b610c8146610911565b90610c8e6109ce30610634565b92610c4a565b6101a19060401c61065c565b6101a19054610c94565b6101a1905b67ffffffffffffffff1690565b6101a19054610caa565b610caf6101a16101a19290565b9067ffffffffffffffff90610a06565b610caf6101a16101a19267ffffffffffffffff1690565b90610d0a6101a1610a2792610ce3565b8254610cd3565b9068ff00000000000000009060401b610a06565b90610d356101a1610a2792151590565b8254610d11565b61025f90610cc6565b6020810192916101c79190610d3c565b610d5d6116fa565b908190610d79610d73610d6f84610ca0565b1590565b92610cbc565b93610d835f610cc6565b67ffffffffffffffff86161480610ea0575b600195610db2610da488610cc6565b9167ffffffffffffffff1690565b149081610e78575b155b9081610e6f575b50610e4357610dec9183610de35f610dda89610cc6565b97019687610cfa565b610e3457610eed565b610df4575050565b7fc7f505b2f371ae2175ee4913f4499e1f2633a7b5936321eed1cdaeb6115181d291610e235f610e2f93610d25565b60405191829182610d45565b0390a1565b610e3e8686610d25565b610eed565b7ff92ee8a9000000000000000000000000000000000000000000000000000000005f90815260045b035ffd5b1590505f610dc3565b9050610dbc610e8630610634565b3b610e97610e935f610911565b9190565b14919050610dba565b5082610d95565b906001600160a01b0390610a06565b90610ec66101a1610a2792610634565b8254610ea7565b905f1990610a06565b90610ee66101a1610a2792610911565b8254610ecd565b610ef9610f0792611717565b610f01611728565b5f610eb6565b6101c7426002610ed6565b906101c791610d55565b906101c791610f29611730565b906101c791610f37816117d5565b6117de565b906101c791610f1c565b6101a190610f526118e4565b610f80565b6101a17f360894a13ba1a3210667c828492db98dca3e2076cc3735a920a3ca505d382bbc610911565b506101a1610f57565b6101a15f610f46565b15610f9957565b60405162461bcd60e51b8152602060048201526024808201527f42726964676556323a206f6e6c79206f776e6572206f72204d50432063616e2060448201527f63616c6c000000000000000000000000000000000000000000000000000000006064820152608490fd5b906101a1916110106113ea565b611022335b916001600160a01b031690565b148015611038575b61103390610f92565b611055565b506110336110446112f5565b61104d33611015565b14905061102a565b506101a190611645565b6101a1905f611003565b6101a19061065c565b6101a19054611069565b1561108357565b60405162461bcd60e51b815260206004820152601b60248201527f42726964676556323a206e6f742061207472616e736d697474657200000000006044820152606490fd5b906101c79392916110ea6110e56110e033600361063d565b611072565b61107c565b611151565b906101c79461113d61112b61114d936080969a99979a61111e60a08801925f8901906001600160a01b03169052565b86820360208801526107bd565b6001600160a01b039099166040850152565b6001600160a01b03166060830152565b0152565b917f532dbb6d061eee97ab4370060f60ede10b3dc361cc1214c07ae5e34dd86e6aaf93610e2f9161118130610634565b9361118b60405190565b958695866110ef565b906101c79392916110c8565b6111a8611495565b6101c76111c6565b6101956101a16101a19290565b6101a1906111b0565b6101c76111d25f6111bd565b611969565b6101c76111a0565b336111e8611329565b6111fa6001600160a01b038316611015565b03611208576101c790611969565b7f118cdaa7000000000000000000000000000000000000000000000000000000005f9081526001600160a01b039091166004526024035ffd5b9291602061125d6101c79360408701908782035f8901526107bd565b9401906001600160a01b03169052565b919061127830610634565b92602061128460405190565b9485907f3d05b08800000000000000000000000000000000000000000000000000000000825281806112ba878760048401611241565b03915afa938415610bb157610b78846101c7966112e0935f91610b825750610b736113ea565b6101c79250611a06565b906101c7929161126d565b6101a15f7f9016d09d72d40fdae2fd8ceac6b6234c7706214fd39c1cd1e609a0528c1993005b01546001600160a01b031690565b6101a15f7f237e158222e3e6968b72b9db0d8043aacf074ad9f650f0d1606b4d82ee432c0061131b565b6101c79061135f611495565b61138c815f7f237e158222e3e6968b72b9db0d8043aacf074ad9f650f0d1606b4d82ee432c005b01610eb6565b6113a061139a610a676112f5565b91610634565b907f38d16b8cac22d99fc7c124b9cd0de2d3fa1faef420bfe791d8c362d765e227006113cb60405190565b5f90a3565b6101c790611353565b6101a19081565b6101a190546113d9565b6113f76101a160026113e0565b42101561140d576001546001600160a01b031690565b5f546001600160a01b031690565b1561142257565b60405162461bcd60e51b815260206004820152601360248201527f42726964676556323a20666f7262696464656e000000000000000000000000006044820152606490fd5b906101c79161148161147a6101956113ea565b331461141b565b906101c791611a06565b906101c791611467565b61149d6112f5565b33906114a882611015565b036112085750565b6114c96114c36101a19263ffffffff1690565b60e01b90565b7fffffffff000000000000000000000000000000000000000000000000000000001690565b6001600160a01b0390911681526040810192916101c79160200152565b61154e60049261153f6101c79561152563a9059cbb6114b0565b9261152f60405190565b96879460208601908152016114ee565b6020820181038252038361030d565b611aa2565b7f4e487b71000000000000000000000000000000000000000000000000000000005f52602160045260245ffd5b6004111561158a57565b611553565b906101c782611580565b9190823b6115a9610e935f610911565b036115f057906115b891611c39565b506115cb6115c55f61158f565b9161158f565b1491826115d757505090565b9091506115ec906001600160a01b0316611015565b1490565b6101a192611b63565b1561160057565b60405162461bcd60e51b815260206004820152601660248201527f42726964676556323a20616464726573732830783029000000000000000000006044820152606490fd5b61167b906116696116586101955f6111bd565b6001600160a01b03831614156115f9565b610f016116746113ea565b6001610eb6565b611686426002610ed6565b6001546001600160a01b03165f546001600160a01b03166116a760026113e0565b907fcda32bc39904597666dfa9f9c845714756e1ffffad55b52e0d344673a21981216116f26116e86116e26116dc4697610634565b94610634565b94610911565b9461028260405190565b0390a4600190565b6101a1611cc7565b6101c79061170e611ccf565b6101c790611d7b565b6101c790611702565b6101c7611ccf565b6101c7611720565b61173930610634565b7f00000000000000000000000000000000000000000000000000000000000000009061176d6001600160a01b038316611015565b149081156117a7575b5061177d57565b7fe07c8dba000000000000000000000000000000000000000000000000000000005f908152600490fd5b90506117c46110156117b7611d84565b926001600160a01b031690565b14155f611776565b506101c7611495565b6101c7906117cc565b906117eb610a6783610634565b9060206117f760405190565b7f52d1902d00000000000000000000000000000000000000000000000000000000815292839060049082905afa5f92816118c3575b50611875575050600161183c5750565b7f4c9c8ce3000000000000000000000000000000000000000000000000000000005f9081526001600160a01b039091166004526024035ffd5b9092916118836101a1610f57565b8403611894576101c7929350611d93565b7faa1d49a4000000000000000000000000000000000000000000000000000000005f9081526004859052602490fd5b6118dd91935060203d602011610baa57610b9c818361030d565b915f61182c565b6118ed30610634565b61191f6001600160a01b037f000000000000000000000000000000000000000000000000000000000000000016611015565b0361177d57565b91906008610a069102916119406001600160a01b03841b90565b921b90565b91906119566101a1610a2793610634565b908354611926565b6101c7915f91611945565b6101c7906119975f7f237e158222e3e6968b72b9db0d8043aacf074ad9f650f0d1606b4d82ee432c0061195e565b611dfd565b156119a357565b60405162461bcd60e51b815260206004820152601f60248201527f42726964676556323a20756e74727573746564207472616e736d6974746572006044820152606490fd5b3d15611a01576119f73d610755565b903d5f602084013e565b606090565b5f91908291611a21611a1c6110e083600361063d565b61199c565b82602083519301915af1611a3b611a366119e8565b911590565b611a425750565b8051611a50610e935f610911565b11611a9a5760405162461bcd60e51b815260206004820152601560248201527f42726964676556323a2063616c6c206661696c656400000000000000000000006044820152606490fd5b602081519101fd5b905f602091611aae5f90565b50828151910182855af115610aa6573d5f5190611acd610e935f610911565b03611b375750611adc81610634565b3b611ae9610e935f610911565b145b611af25750565b610e6b611aff5f92610634565b7f5274afe70000000000000000000000000000000000000000000000000000000083526001600160a01b031660048301526024820190565b611b44610e936001610911565b1415611aeb565b9081526040602082018190526101a1929101906107bd565b915f92611bb18493611b725f90565b5061153f611b7f60405190565b9485926004602085017f1626ba7e00000000000000000000000000000000000000000000000000000000815201611b4b565b602082519201905afa611bc26119e8565b81611c1a575b81611bd1575090565b611beb91506020611be0825190565b818301019101610a92565b6115ec610e936101a17f1626ba7e000000000000000000000000000000000000000000000000000000006114c9565b9050611c24815190565b611c31610e936020610911565b101590611bc8565b905f91611c44825190565b611c51610e936041610911565b03611c7a57611c739250602082015190606060408401519301515f1a90611ea2565b9192909190565b509050611c96611c91611c8c5f6111bd565b925190565b610911565b909160029190565b6101a17ff0c57e16840df040f15088dc2f81fe391c3923bec73e23a9662efc9c229c6a00610911565b6101a1611c9e565b611cda610d6f611f63565b611ce057565b7fd7e6bcf8000000000000000000000000000000000000000000000000000000005f908152600490fd5b6101c790611d16611ccf565b611d1f5f6111bd565b6001600160a01b0381166001600160a01b03831614611d4257506101c790611969565b7f1e4fbdf7000000000000000000000000000000000000000000000000000000005f9081526001600160a01b039091166004526024035ffd5b6101c790611d0a565b6101a15f61131b6101a1610f57565b90611d9d82611f75565b611da682610634565b7fbc7cd75a20ee27fd9adebab32041f755214dbc6bffa90cc0225b39da2e5c2d3b611dd060405190565b5f90a28051611de1610e935f610911565b1115611df357611df091611fd3565b50565b50506101c7611f98565b611e3f61139a7f9016d09d72d40fdae2fd8ceac6b6234c7706214fd39c1cd1e609a0528c199300610a6784611e3983546001600160a01b031690565b92610eb6565b907f8be0079c531659141344cd1fd0a4f28419497f9722a3daafe3b4186f6b6457e06113cb60405190565b6101a190610911565b61114d6101c794611e9b606094989795611e91608086019a5f870152565b60ff166020850152565b6040830152565b9091611ead84611e6a565b611ed9610e937f7fffffffffffffffffffffffffffffff5d576e7357a4501ddfe92f46681b20a0610911565b11611f505790611efa6020945f9493611ef160405190565b94859485611e73565b838052039060015afa15610bb1575f51611f135f6111bd565b6001600160a01b0381166001600160a01b03831614611f3d5750611f365f610911565b90915f9190565b9050611f485f610911565b909160019190565b505050611f5c5f6111bd565b9160039190565b6101a15f611f6f6116fa565b01610ca0565b803b611f83610e935f610911565b1461183c576101c7905f6113866101a1610f57565b611fa15f610911565b3411611fa957565b7fb398979f000000000000000000000000000000000000000000000000000000005f908152600490fd5b5f806101a193611fe1606090565b50602081519101845af4611ff36119e8565b9190611fff575061206a565b815161200d610e935f610911565b1480612055575b61201c575090565b7f9996b315000000000000000000000000000000000000000000000000000000005f9081526001600160a01b039091166004526024035ffd5b50803b612064610e935f610911565b14612014565b8051612078610e935f610911565b111561208657805190602001fd5b7fd6bda275000000000000000000000000000000000000000000000000000000005f908152600490fdfea264697066735822122048e3317e95077e5a6e99fc1406ed6af32961c22d7b47b9058c3cdfe275e4ef0b64736f6c634300081c0033",
    "linkReferences": {},
    "deployedLinkReferences": {},
    "immutableReferences": {
        "8704": [
            {
                "length": 32,
                "start": 5947
            },
            {
                "length": 32,
                "start": 6394
            }
        ]
    },
    "inputSourceName": "project/contracts/v3/Bridge.sol",
    "buildInfoId": "solc-0_8_28-a4c12c1572ae7eaa8b72c066ff2a953e1a7e1e13"
}