{
    "_format": "hh3-artifact-1",
    "contractName": "DeadlineUnlocker",
    "sourceName": "contracts/v3/unlockers/DeadlineUnlocker.sol",
    "abi": [
        {
            "inputs": [
                {
                    "internalType": "address",
                    "name": "owner_",
                    "type": "address"
                }
            ],
            "stateMutability": "nonpayable",
            "type": "constructor"
        },
        {
            "inputs": [
                {
                    "internalType": "address",
                    "name": "actor",
                    "type": "address"
                },
                {
                    "internalType": "address",
                    "name": "depositor",
                    "type": "address"
                }
            ],
            "name": "ActorNotDepositor",
            "type": "error"
        },
        {
            "inputs": [
                {
                    "internalType": "uint256",
                    "name": "deadline",
                    "type": "uint256"
                },
                {
                    "internalType": "uint256",
                    "name": "timestamp",
                    "type": "uint256"
                }
            ],
            "name": "DeadlineExceeded",
            "type": "error"
        },
        {
            "inputs": [
                {
                    "internalType": "uint256",
                    "name": "deadline",
                    "type": "uint256"
                },
                {
                    "internalType": "uint256",
                    "name": "timestamp",
                    "type": "uint256"
                }
            ],
            "name": "DeadlineNotReached",
            "type": "error"
        },
        {
            "inputs": [],
            "name": "FeeReceiverNotSet",
            "type": "error"
        },
        {
            "inputs": [
                {
                    "internalType": "uint256",
                    "name": "bps",
                    "type": "uint256"
                }
            ],
            "name": "InvalidVolumeFee",
            "type": "error"
        },
        {
            "inputs": [
                {
                    "internalType": "address",
                    "name": "owner",
                    "type": "address"
                }
            ],
            "name": "OwnableInvalidOwner",
            "type": "error"
        },
        {
            "inputs": [
                {
                    "internalType": "address",
                    "name": "account",
                    "type": "address"
                }
            ],
            "name": "OwnableUnauthorizedAccount",
            "type": "error"
        },
        {
            "inputs": [],
            "name": "ReentrancyGuardReentrantCall",
            "type": "error"
        },
        {
            "inputs": [
                {
                    "internalType": "address",
                    "name": "token",
                    "type": "address"
                }
            ],
            "name": "SafeERC20FailedOperation",
            "type": "error"
        },
        {
            "inputs": [
                {
                    "internalType": "uint256",
                    "name": "actual",
                    "type": "uint256"
                },
                {
                    "internalType": "uint256",
                    "name": "expected",
                    "type": "uint256"
                }
            ],
            "name": "WrongDstChain",
            "type": "error"
        },
        {
            "anonymous": false,
            "inputs": [
                {
                    "indexed": false,
                    "internalType": "address",
                    "name": "oldReceiver",
                    "type": "address"
                },
                {
                    "indexed": false,
                    "internalType": "address",
                    "name": "newReceiver",
                    "type": "address"
                }
            ],
            "name": "FeeReceiverSet",
            "type": "event"
        },
        {
            "anonymous": false,
            "inputs": [
                {
                    "indexed": true,
                    "internalType": "address",
                    "name": "previousOwner",
                    "type": "address"
                },
                {
                    "indexed": true,
                    "internalType": "address",
                    "name": "newOwner",
                    "type": "address"
                }
            ],
            "name": "OwnershipTransferred",
            "type": "event"
        },
        {
            "anonymous": false,
            "inputs": [
                {
                    "indexed": true,
                    "internalType": "address",
                    "name": "token",
                    "type": "address"
                },
                {
                    "indexed": true,
                    "internalType": "address",
                    "name": "recipient",
                    "type": "address"
                },
                {
                    "indexed": false,
                    "internalType": "uint256",
                    "name": "recipientAmount",
                    "type": "uint256"
                },
                {
                    "indexed": false,
                    "internalType": "uint256",
                    "name": "feeAmount",
                    "type": "uint256"
                },
                {
                    "indexed": false,
                    "internalType": "enum DeadlineUnlocker.Branch",
                    "name": "branch",
                    "type": "uint8"
                }
            ],
            "name": "Settled",
            "type": "event"
        },
        {
            "anonymous": false,
            "inputs": [
                {
                    "indexed": false,
                    "internalType": "uint256",
                    "name": "oldBps",
                    "type": "uint256"
                },
                {
                    "indexed": false,
                    "internalType": "uint256",
                    "name": "newBps",
                    "type": "uint256"
                }
            ],
            "name": "VolumeFeeBpsSet",
            "type": "event"
        },
        {
            "inputs": [],
            "name": "BPS_DENOMINATOR",
            "outputs": [
                {
                    "internalType": "uint256",
                    "name": "",
                    "type": "uint256"
                }
            ],
            "stateMutability": "view",
            "type": "function"
        },
        {
            "inputs": [
                {
                    "components": [
                        {
                            "internalType": "address",
                            "name": "recipient",
                            "type": "address"
                        },
                        {
                            "internalType": "address",
                            "name": "depositor",
                            "type": "address"
                        },
                        {
                            "internalType": "contract IERC20",
                            "name": "dstToken",
                            "type": "address"
                        },
                        {
                            "internalType": "uint256",
                            "name": "amount",
                            "type": "uint256"
                        },
                        {
                            "internalType": "uint256",
                            "name": "dstChainId",
                            "type": "uint256"
                        },
                        {
                            "internalType": "uint256",
                            "name": "deadline",
                            "type": "uint256"
                        }
                    ],
                    "internalType": "struct DeadlineUnlocker.Condition",
                    "name": "c",
                    "type": "tuple"
                }
            ],
            "name": "encodeCondition",
            "outputs": [
                {
                    "internalType": "bytes",
                    "name": "",
                    "type": "bytes"
                }
            ],
            "stateMutability": "pure",
            "type": "function"
        },
        {
            "inputs": [
                {
                    "components": [
                        {
                            "internalType": "enum DeadlineUnlocker.Branch",
                            "name": "branch",
                            "type": "uint8"
                        },
                        {
                            "internalType": "address",
                            "name": "actor",
                            "type": "address"
                        }
                    ],
                    "internalType": "struct DeadlineUnlocker.Solution",
                    "name": "s",
                    "type": "tuple"
                }
            ],
            "name": "encodeSolution",
            "outputs": [
                {
                    "internalType": "bytes",
                    "name": "",
                    "type": "bytes"
                }
            ],
            "stateMutability": "pure",
            "type": "function"
        },
        {
            "inputs": [],
            "name": "feeReceiver",
            "outputs": [
                {
                    "internalType": "address",
                    "name": "",
                    "type": "address"
                }
            ],
            "stateMutability": "view",
            "type": "function"
        },
        {
            "inputs": [
                {
                    "internalType": "bytes",
                    "name": "condition",
                    "type": "bytes"
                },
                {
                    "internalType": "bytes",
                    "name": "solution",
                    "type": "bytes"
                }
            ],
            "name": "fill",
            "outputs": [],
            "stateMutability": "nonpayable",
            "type": "function"
        },
        {
            "inputs": [],
            "name": "owner",
            "outputs": [
                {
                    "internalType": "address",
                    "name": "",
                    "type": "address"
                }
            ],
            "stateMutability": "view",
            "type": "function"
        },
        {
            "inputs": [],
            "name": "renounceOwnership",
            "outputs": [],
            "stateMutability": "nonpayable",
            "type": "function"
        },
        {
            "inputs": [
                {
                    "internalType": "address",
                    "name": "receiver",
                    "type": "address"
                }
            ],
            "name": "setFeeReceiver",
            "outputs": [],
            "stateMutability": "nonpayable",
            "type": "function"
        },
        {
            "inputs": [
                {
                    "internalType": "uint256",
                    "name": "bps",
                    "type": "uint256"
                }
            ],
            "name": "setVolumeFeeBps",
            "outputs": [],
            "stateMutability": "nonpayable",
            "type": "function"
        },
        {
            "inputs": [
                {
                    "internalType": "contract IERC20",
                    "name": "token",
                    "type": "address"
                },
                {
                    "internalType": "address",
                    "name": "to",
                    "type": "address"
                }
            ],
            "name": "sweep",
            "outputs": [],
            "stateMutability": "nonpayable",
            "type": "function"
        },
        {
            "inputs": [
                {
                    "internalType": "address",
                    "name": "newOwner",
                    "type": "address"
                }
            ],
            "name": "transferOwnership",
            "outputs": [],
            "stateMutability": "nonpayable",
            "type": "function"
        },
        {
            "inputs": [
                {
                    "internalType": "bytes",
                    "name": "",
                    "type": "bytes"
                },
                {
                    "internalType": "bytes",
                    "name": "solution",
                    "type": "bytes"
                },
                {
                    "internalType": "contract IERC20",
                    "name": "token",
                    "type": "address"
                },
                {
                    "internalType": "uint256",
                    "name": "amount",
                    "type": "uint256"
                }
            ],
            "name": "unlock",
            "outputs": [],
            "stateMutability": "nonpayable",
            "type": "function"
        },
        {
            "inputs": [],
            "name": "volumeFeeBps",
            "outputs": [
                {
                    "internalType": "uint256",
                    "name": "",
                    "type": "uint256"
                }
            ],
            "stateMutability": "view",
            "type": "function"
        }
    ],
    "bytecode": "0x60806040523461002a576100196100146100bf565b6100dd565b60405161137e610267823961137e90f35b5f80fd5b634e487b7160e01b5f52604160045260245ffd5b90601f01601f191681019081106001600160401b0382111761006357604052565b61002e565b9061007c61007560405190565b9283610042565b565b6001600160a01b031690565b90565b6001600160a01b0381160361002a57565b9050519061007c8261008d565b9060208282031261002a5761008a9161009e565b61008a6115e5803803806100d281610068565b9283398101906100ab565b61007c90610127565b61008a61008a61008a9290565b61008a60016100e6565b905f19905b9181191691161790565b9061011c61008a610123926100e6565b82546100fd565b9055565b6101309061016b565b61007c61013b6100f3565b600161010c565b61007e61008a61008a9290565b61008a90610142565b6001600160a01b03909116815260200190565b6101745f61014f565b6001600160a01b0381166001600160a01b03831614610197575061007c90610212565b631e4fbdf760e01b5f908152906101af906004610158565b035ffd5b61008a9061007e565b61008a90546101b3565b906001600160a01b0390610102565b61008a9061007e906001600160a01b031682565b61008a906101d5565b61008a906101e9565b9061020b61008a610123926101f2565b82546101c6565b6102366102306102215f6101bc565b61022b845f6101fb565b6101f2565b916101f2565b907f8be0079c531659141344cd1fd0a4f28419497f9722a3daafe3b4186f6b6457e061026160405190565b5f90a356fe60806040526004361015610011575f80fd5b5f3560e01c80635b492b70146100e057806361253e5c146100db578063653b7fb8146100d6578063715018a6146100d15780638da5cb5b146100cc578063b3f00674146100c7578063b8c621d7146100c2578063b8dc491b146100bd578063ce5d448d146100b8578063e1a45218146100b3578063efdcd974146100ae578063f2fde38b146100a95763fa6015d503610115576104f3565b6104b9565b6104a1565b610472565b610427565b6103ed565b6103ab565b61030b565b6102a3565b61027b565b610259565b610206565b610167565b909182601f830112156101155781359167ffffffffffffffff831161011557602001926001830284011161011557565b5f80fd5b909160408284031261011557813567ffffffffffffffff811161011557836101429184016100e5565b929093602082013567ffffffffffffffff81116101155761016392016100e5565b9091565b346101155761018361017a366004610119565b92919091610792565b60405180805b0390f35b908160c09103126101155790565b9060c082820312610115576101af9161018d565b90565b90825f9392825e0152565b6101de6101e76020936101f1936101d2815190565b80835293849260200190565b958691016101b2565b601f01601f191690565b0190565b60208082526101af929101906101bd565b346101155761018961022161021c36600461019b565b6109ed565b604051918291826101f5565b805b0361011557565b905035906102438261022d565b565b90602082820312610115576101af91610236565b346101155761018361026c366004610245565b610aff565b5f91031261011557565b346101155761028b366004610271565b610183610b3f565b6001600160a01b031690565b9052565b34610115576102b3366004610271565b6101896102c75f546001600160a01b031690565b604051918291826001600160a01b03909116815260200190565b6101af916008021c6001600160a01b031690565b906101af91546102e1565b6101af5f60036102f5565b346101155761031b366004610271565b6101896102c7610300565b6001600160a01b03811661022f565b9050359061024382610326565b919060808382031261011557823567ffffffffffffffff8111610115578161036b9185016100e5565b92909360208101359167ffffffffffffffff831161011557610392846101af9484016100e5565b93909460606103a48260408701610335565b9401610236565b34610115576101836103be366004610342565b94939093929192610df7565b9190604083820312610115576101af9060206103e68286610335565b9401610335565b34610115576101836104003660046103ca565b90610e31565b6101af916008021c81565b906101af9154610406565b6101af5f6002610411565b3461011557610437366004610271565b61018961044261041c565b6040519182918290815260200190565b6101af6101af6101af9290565b6101af612710610452565b6101af61045f565b3461011557610482366004610271565b61018961044261046a565b90602082820312610115576101af91610335565b34610115576101836104b436600461048d565b610f89565b34610115576101836104cc36600461048d565b611003565b908160409103126101155790565b90604082820312610115576101af916104d1565b34610115576101896102216105093660046104df565b611062565b634e487b7160e01b5f52604160045260245ffd5b90601f01601f1916810190811067ffffffffffffffff82111761054457604052565b61050e565b9061024361055660405190565b9283610522565b919060c083820312610115576105d49060a061057960c0610549565b946105848382610335565b86526105938360208301610335565b60208701526105a58360408301610335565b60408701526105b78360608301610236565b60608701526105c98360808301610236565b608087015201610236565b60a0830152565b9060c082820312610115576101af9161055d565b9081526040810192916102439160200152565b1561060b575050565b7ffbb40379000000000000000000000000000000000000000000000000000000005f9081529161063c9160046105ef565b035ffd5b6002111561011557565b9050359061024382610640565b9190604083820312610115576106869060206106736040610549565b9461067e838261064a565b865201610335565b6020830152565b90604082820312610115576101af91610657565b634e487b7160e01b5f52602160045260245ffd5b600211156106bf57565b6106a1565b90610243826106b5565b6101af90516106c4565b156106e1575050565b7f523b7228000000000000000000000000000000000000000000000000000000005f9081529161063c9160046105ef565b1561071b575050565b7f8f50cee1000000000000000000000000000000000000000000000000000000005f9081526001600160a01b039182166004529116602452604490fd5b15610761575050565b7f24bf66c5000000000000000000000000000000000000000000000000000000005f9081529161063c9160046105ef565b6107a3906107d093928101906105db565b926107c8608085016107c06107b96101af835190565b4614915190565b904690610602565b81019061068d565b906107da826106ce565b6107ec6107e65f6106c4565b916106c4565b0361086357908161081960a0610243940161081261080b6101af835190565b4210915190565b4291610758565b610841602061083260408401516001600160a01b031690565b9301516001600160a01b031690565b61085d606061085784516001600160a01b031690565b93015190565b926110e0565b60206102439261088d60a0840161088661087e6101af835190565b421015915190565b42916106d8565b01906108ec6108de60206108a885516001600160a01b031690565b9301926108cf6108c261029386516001600160a01b031690565b916001600160a01b031690565b1493516001600160a01b031690565b91516001600160a01b031690565b91610712565b506101af906020810190610335565b6102936101af6101af926001600160a01b031690565b6101af90610901565b6101af90610917565b61029f90610920565b506101af906020810190610236565b9060a06109d86102439361096761095a5f8301836108f2565b6001600160a01b03168552565b61098761097760208301836108f2565b6001600160a01b03166020860152565b6109a161099760408301836108f2565b6040860190610929565b6109b86109b16060830183610932565b6060860152565b6109cf6109c86080830183610932565b6080860152565b82810190610932565b910152565b60c0810192916102439190610941565b6101af6109f960405190565b8092610a096020830191826109dd565b90810382520382610522565b61024390610a2161112a565b610a99565b15610a2e5750565b7f2f3cdef2000000000000000000000000000000000000000000000000000000005f908152600491909152602490fd5b6101af9081565b6101af9054610a5e565b905f19905b9181191691161790565b90610a8e6101af610a9592610452565b8254610a6f565b9055565b61024390610ab481610aac6101af61045f565b811115610a26565b7fbc746c1b8cf7bef91e22587dc4db83d0e76dd76b6aad2f49bc94c3f0acf832f281610ae06002610a65565b610af5610aec60405190565b928392836105ef565b0390a16002610a7e565b61024390610a15565b610b1061112a565b610243610b2e565b6102936101af6101af9290565b6101af90610b18565b610243610b3a5f610b25565b611181565b610243610b08565b90610b5d9594939291610b586111e4565b610c5a565b61024361123c565b61029f90610452565b6101af906106c4565b61029f90610b6e565b908152606081019392610243929091604091610ba0906020830190610b65565b0190610b77565b634e487b7160e01b5f52601160045260245ffd5b81810292918115918404141715610bce57565b610ba7565b634e487b7160e01b5f52601260045260245ffd5b90610bf1565b9190565b908115610bfc570490565b610bd3565b91908203918211610bce57565b15610c1557565b7f0b37568b000000000000000000000000000000000000000000000000000000005f908152600490fd5b908152606081019392610243929091604091610ba090610686565b5050610c689181019061068d565b91610c72836106ce565b610c7e6107e65f6106c4565b03610d96577f2fdfc95b3dadeb6ad1149e0fdade29939418e5b3fa4f2ea6f319399c07af026090610d2e610d28610d22610d146020610ce1610cda610ccc610cc66002610a65565b89610bbb565b610cd461045f565b90610be7565b8097610c01565b98610ceb5f610452565b8711610d4a575b0196610d0f89610d098a516001600160a01b031690565b8361126b565b610920565b95516001600160a01b031690565b94610920565b93610920565b93610d455f610d3c60405190565b93849384610c3f565b0390a3565b610d75610d5f6003546001600160a01b031690565b610d6e6108c26102935f610b25565b1415610c0e565b610d9187610d8b6003546001600160a01b031690565b8b61126b565b610cf2565b915f610ddf610d28610d22610d1460207f2fdfc95b3dadeb6ad1149e0fdade29939418e5b3fa4f2ea6f319399c07af0260960196610d0f89610d098a516001600160a01b031690565b93610d456001610dee60405190565b93849384610b80565b906102439594939291610b47565b905051906102438261022d565b90602082820312610115576101af91610e05565b6040513d5f823e3d90fd5b610e94916020610e4083610920565b610e4930610920565b90610e5360405190565b958692839182917f70a08231000000000000000000000000000000000000000000000000000000008352600483016001600160a01b03909116815260200190565b03915afa918215610ee157610243935f93610eb0575b5061126b565b610ed391935060203d602011610eda575b610ecb8183610522565b810190610e12565b915f610eaa565b503d610ec1565b610e26565b61024390610ef261112a565b610f1d565b906001600160a01b0390610a74565b90610f166101af610a9592610920565b8254610ef7565b610243907f49bc8f1c292131e71bfca22660d0716072ff2442b58d72840474dd83a390411c81610f556003546001600160a01b031690565b610f7f610f6160405190565b928392836001600160a01b0391821681529116602082015260400190565b0390a16003610f06565b61024390610ee6565b61024390610f9e61112a565b610fa75f610b25565b6001600160a01b0381166001600160a01b03831614610fca575061024390611181565b7f1e4fbdf7000000000000000000000000000000000000000000000000000000005f9081526001600160a01b039091166004526024035ffd5b61024390610f92565b506101af90602081019061064a565b9060206110446102439361103b6110345f83018361100c565b8590610b77565b828101906108f2565b6001600160a01b0316910152565b604081019291610243919061101b565b6101af61106e60405190565b8092610a09602083019182611052565b6110976110916101af9263ffffffff1690565b60e01b90565b7fffffffff000000000000000000000000000000000000000000000000000000001690565b6001600160a01b039182168152911660208201526060810192916102439160400152565b9061112590611116610243956004956110fc6323b872dd61107e565b9361110660405190565b97889560208701908152016110bc565b60208201810382520383610522565b61129f565b5f546001600160a01b03163390611140826108c2565b036111485750565b7f118cdaa7000000000000000000000000000000000000000000000000000000005f9081526001600160a01b039091166004526024035ffd5b6111a86111a26111985f546001600160a01b031690565b610d0f845f610f06565b91610920565b907f8be0079c531659141344cd1fd0a4f28419497f9722a3daafe3b4186f6b6457e06111d360405190565b8080610d45565b6101af6002610452565b6111ee6001610a65565b6111f66111da565b90811461120857610243906001610a7e565b7f3ee5aeb5000000000000000000000000000000000000000000000000000000005f908152600490fd5b6101af6001610452565b610243611247611232565b6001610a7e565b6001600160a01b0390911681526040810192916102439160200152565b6111256004926111166102439561128563a9059cbb61107e565b9261128f60405190565b968794602086019081520161124e565b905f6020916112ab5f90565b50828151910182855af115610e26573d5f51906112ca610bed5f610452565b0361133457506112d981610920565b3b6112e6610bed5f610452565b145b6112ef5750565b61063c6112fc5f92610920565b7f5274afe70000000000000000000000000000000000000000000000000000000083526001600160a01b031660048301526024820190565b611341610bed6001610452565b14156112e856fea26469706673582212201ba75633bfb5bd2e8cab8d13598beefbb19edcf533bc3456793598fb05c1018764736f6c634300081c0033",
    "linkReferences": {},
    "deployedLinkReferences": {},
    "immutableReferences": {},
    "inputSourceName": "project/contracts/v3/unlockers/DeadlineUnlocker.sol",
    "buildInfoId": "solc-0_8_28-0d81914b03758795f335e41e3229da84972a82a8"
}