{
    "_format": "hh3-artifact-1",
    "contractName": "DeadlineUnlocker",
    "sourceName": "contracts/v3/unlockers/DeadlineUnlocker.sol",
    "abi": [
        {
            "inputs": [
                {
                    "internalType": "address",
                    "name": "owner_",
                    "type": "address"
                }
            ],
            "stateMutability": "nonpayable",
            "type": "constructor"
        },
        {
            "inputs": [
                {
                    "internalType": "address",
                    "name": "actor",
                    "type": "address"
                },
                {
                    "internalType": "address",
                    "name": "depositor",
                    "type": "address"
                }
            ],
            "name": "ActorNotDepositor",
            "type": "error"
        },
        {
            "inputs": [
                {
                    "internalType": "uint256",
                    "name": "deadline",
                    "type": "uint256"
                },
                {
                    "internalType": "uint256",
                    "name": "timestamp",
                    "type": "uint256"
                }
            ],
            "name": "DeadlineExceeded",
            "type": "error"
        },
        {
            "inputs": [
                {
                    "internalType": "uint256",
                    "name": "deadline",
                    "type": "uint256"
                },
                {
                    "internalType": "uint256",
                    "name": "timestamp",
                    "type": "uint256"
                }
            ],
            "name": "DeadlineNotReached",
            "type": "error"
        },
        {
            "inputs": [],
            "name": "FeeReceiverNotSet",
            "type": "error"
        },
        {
            "inputs": [
                {
                    "internalType": "uint256",
                    "name": "bps",
                    "type": "uint256"
                }
            ],
            "name": "InvalidVolumeFee",
            "type": "error"
        },
        {
            "inputs": [
                {
                    "internalType": "uint256",
                    "name": "expected",
                    "type": "uint256"
                },
                {
                    "internalType": "uint256",
                    "name": "actual",
                    "type": "uint256"
                }
            ],
            "name": "NativeAmountMismatch",
            "type": "error"
        },
        {
            "inputs": [],
            "name": "NativeTransferFailed",
            "type": "error"
        },
        {
            "inputs": [
                {
                    "internalType": "address",
                    "name": "owner",
                    "type": "address"
                }
            ],
            "name": "OwnableInvalidOwner",
            "type": "error"
        },
        {
            "inputs": [
                {
                    "internalType": "address",
                    "name": "account",
                    "type": "address"
                }
            ],
            "name": "OwnableUnauthorizedAccount",
            "type": "error"
        },
        {
            "inputs": [],
            "name": "ReentrancyGuardReentrantCall",
            "type": "error"
        },
        {
            "inputs": [
                {
                    "internalType": "address",
                    "name": "token",
                    "type": "address"
                }
            ],
            "name": "SafeERC20FailedOperation",
            "type": "error"
        },
        {
            "inputs": [],
            "name": "UnexpectedNativeValue",
            "type": "error"
        },
        {
            "inputs": [
                {
                    "internalType": "uint256",
                    "name": "actual",
                    "type": "uint256"
                },
                {
                    "internalType": "uint256",
                    "name": "expected",
                    "type": "uint256"
                }
            ],
            "name": "WrongDstChain",
            "type": "error"
        },
        {
            "anonymous": false,
            "inputs": [
                {
                    "indexed": false,
                    "internalType": "address",
                    "name": "oldReceiver",
                    "type": "address"
                },
                {
                    "indexed": false,
                    "internalType": "address",
                    "name": "newReceiver",
                    "type": "address"
                }
            ],
            "name": "FeeReceiverSet",
            "type": "event"
        },
        {
            "anonymous": false,
            "inputs": [
                {
                    "indexed": true,
                    "internalType": "address",
                    "name": "token",
                    "type": "address"
                },
                {
                    "indexed": false,
                    "internalType": "uint256",
                    "name": "amount",
                    "type": "uint256"
                },
                {
                    "indexed": true,
                    "internalType": "address",
                    "name": "recipient",
                    "type": "address"
                },
                {
                    "indexed": true,
                    "internalType": "address",
                    "name": "sender",
                    "type": "address"
                }
            ],
            "name": "Filled",
            "type": "event"
        },
        {
            "anonymous": false,
            "inputs": [
                {
                    "indexed": true,
                    "internalType": "address",
                    "name": "previousOwner",
                    "type": "address"
                },
                {
                    "indexed": true,
                    "internalType": "address",
                    "name": "newOwner",
                    "type": "address"
                }
            ],
            "name": "OwnershipTransferred",
            "type": "event"
        },
        {
            "anonymous": false,
            "inputs": [
                {
                    "indexed": true,
                    "internalType": "address",
                    "name": "token",
                    "type": "address"
                },
                {
                    "indexed": true,
                    "internalType": "address",
                    "name": "recipient",
                    "type": "address"
                },
                {
                    "indexed": false,
                    "internalType": "uint256",
                    "name": "recipientAmount",
                    "type": "uint256"
                },
                {
                    "indexed": false,
                    "internalType": "uint256",
                    "name": "feeAmount",
                    "type": "uint256"
                },
                {
                    "indexed": false,
                    "internalType": "enum DeadlineUnlocker.Branch",
                    "name": "branch",
                    "type": "uint8"
                }
            ],
            "name": "Settled",
            "type": "event"
        },
        {
            "anonymous": false,
            "inputs": [
                {
                    "indexed": false,
                    "internalType": "uint256",
                    "name": "oldBps",
                    "type": "uint256"
                },
                {
                    "indexed": false,
                    "internalType": "uint256",
                    "name": "newBps",
                    "type": "uint256"
                }
            ],
            "name": "VolumeFeeBpsSet",
            "type": "event"
        },
        {
            "inputs": [],
            "name": "BPS_DENOMINATOR",
            "outputs": [
                {
                    "internalType": "uint256",
                    "name": "",
                    "type": "uint256"
                }
            ],
            "stateMutability": "view",
            "type": "function"
        },
        {
            "inputs": [
                {
                    "components": [
                        {
                            "internalType": "address",
                            "name": "recipient",
                            "type": "address"
                        },
                        {
                            "internalType": "address",
                            "name": "depositor",
                            "type": "address"
                        },
                        {
                            "internalType": "contract IERC20",
                            "name": "dstToken",
                            "type": "address"
                        },
                        {
                            "internalType": "uint256",
                            "name": "amount",
                            "type": "uint256"
                        },
                        {
                            "internalType": "uint256",
                            "name": "dstChainId",
                            "type": "uint256"
                        },
                        {
                            "internalType": "uint256",
                            "name": "deadline",
                            "type": "uint256"
                        }
                    ],
                    "internalType": "struct DeadlineUnlocker.Condition",
                    "name": "c",
                    "type": "tuple"
                }
            ],
            "name": "encodeCondition",
            "outputs": [
                {
                    "internalType": "bytes",
                    "name": "",
                    "type": "bytes"
                }
            ],
            "stateMutability": "pure",
            "type": "function"
        },
        {
            "inputs": [
                {
                    "components": [
                        {
                            "internalType": "enum DeadlineUnlocker.Branch",
                            "name": "branch",
                            "type": "uint8"
                        },
                        {
                            "internalType": "address",
                            "name": "actor",
                            "type": "address"
                        }
                    ],
                    "internalType": "struct DeadlineUnlocker.Solution",
                    "name": "s",
                    "type": "tuple"
                }
            ],
            "name": "encodeSolution",
            "outputs": [
                {
                    "internalType": "bytes",
                    "name": "",
                    "type": "bytes"
                }
            ],
            "stateMutability": "pure",
            "type": "function"
        },
        {
            "inputs": [],
            "name": "feeReceiver",
            "outputs": [
                {
                    "internalType": "address",
                    "name": "",
                    "type": "address"
                }
            ],
            "stateMutability": "view",
            "type": "function"
        },
        {
            "inputs": [
                {
                    "internalType": "bytes",
                    "name": "condition",
                    "type": "bytes"
                },
                {
                    "internalType": "bytes",
                    "name": "solution",
                    "type": "bytes"
                }
            ],
            "name": "fill",
            "outputs": [],
            "stateMutability": "payable",
            "type": "function"
        },
        {
            "inputs": [],
            "name": "owner",
            "outputs": [
                {
                    "internalType": "address",
                    "name": "",
                    "type": "address"
                }
            ],
            "stateMutability": "view",
            "type": "function"
        },
        {
            "inputs": [],
            "name": "renounceOwnership",
            "outputs": [],
            "stateMutability": "nonpayable",
            "type": "function"
        },
        {
            "inputs": [
                {
                    "internalType": "address",
                    "name": "receiver",
                    "type": "address"
                }
            ],
            "name": "setFeeReceiver",
            "outputs": [],
            "stateMutability": "nonpayable",
            "type": "function"
        },
        {
            "inputs": [
                {
                    "internalType": "uint256",
                    "name": "bps",
                    "type": "uint256"
                }
            ],
            "name": "setVolumeFeeBps",
            "outputs": [],
            "stateMutability": "nonpayable",
            "type": "function"
        },
        {
            "inputs": [
                {
                    "internalType": "contract IERC20",
                    "name": "token",
                    "type": "address"
                },
                {
                    "internalType": "address",
                    "name": "to",
                    "type": "address"
                }
            ],
            "name": "sweep",
            "outputs": [],
            "stateMutability": "nonpayable",
            "type": "function"
        },
        {
            "inputs": [
                {
                    "internalType": "address",
                    "name": "to",
                    "type": "address"
                }
            ],
            "name": "sweepNative",
            "outputs": [],
            "stateMutability": "nonpayable",
            "type": "function"
        },
        {
            "inputs": [
                {
                    "internalType": "address",
                    "name": "newOwner",
                    "type": "address"
                }
            ],
            "name": "transferOwnership",
            "outputs": [],
            "stateMutability": "nonpayable",
            "type": "function"
        },
        {
            "inputs": [
                {
                    "internalType": "bytes",
                    "name": "",
                    "type": "bytes"
                },
                {
                    "internalType": "bytes",
                    "name": "solution",
                    "type": "bytes"
                },
                {
                    "internalType": "contract IERC20",
                    "name": "token",
                    "type": "address"
                },
                {
                    "internalType": "uint256",
                    "name": "amount",
                    "type": "uint256"
                }
            ],
            "name": "unlock",
            "outputs": [],
            "stateMutability": "payable",
            "type": "function"
        },
        {
            "inputs": [],
            "name": "volumeFeeBps",
            "outputs": [
                {
                    "internalType": "uint256",
                    "name": "",
                    "type": "uint256"
                }
            ],
            "stateMutability": "view",
            "type": "function"
        },
        {
            "stateMutability": "payable",
            "type": "receive"
        }
    ],
    "bytecode": "0x60806040523461002a576100196100146100bf565b6100dd565b6040516116d261026782396116d290f35b5f80fd5b634e487b7160e01b5f52604160045260245ffd5b90601f01601f191681019081106001600160401b0382111761006357604052565b61002e565b9061007c61007560405190565b9283610042565b565b6001600160a01b031690565b90565b6001600160a01b0381160361002a57565b9050519061007c8261008d565b9060208282031261002a5761008a9161009e565b61008a611939803803806100d281610068565b9283398101906100ab565b61007c90610127565b61008a61008a61008a9290565b61008a60016100e6565b905f19905b9181191691161790565b9061011c61008a610123926100e6565b82546100fd565b9055565b6101309061016b565b61007c61013b6100f3565b600161010c565b61007e61008a61008a9290565b61008a90610142565b6001600160a01b03909116815260200190565b6101745f61014f565b6001600160a01b0381166001600160a01b03831614610197575061007c90610212565b631e4fbdf760e01b5f908152906101af906004610158565b035ffd5b61008a9061007e565b61008a90546101b3565b906001600160a01b0390610102565b61008a9061007e906001600160a01b031682565b61008a906101d5565b61008a906101e9565b9061020b61008a610123926101f2565b82546101c6565b6102366102306102215f6101bc565b61022b845f6101fb565b6101f2565b916101f2565b907f8be0079c531659141344cd1fd0a4f28419497f9722a3daafe3b4186f6b6457e061026160405190565b5f90a356fe6080604052600436101561001a575b3615610018575f80fd5b005b5f3560e01c80635b492b70146100f957806361253e5c146100f4578063653b7fb8146100ef578063715018a6146100ea57806378c093cf146100e55780638da5cb5b146100e0578063b3f00674146100db578063b8c621d7146100d6578063b8dc491b146100d1578063ce5d448d146100cc578063e1a45218146100c7578063efdcd974146100c2578063f2fde38b146100bd5763fa6015d50361000e5761051b565b6104e1565b6104c9565b6104ae565b610462565b610428565b6103eb565b610367565b6102ff565b6102e3565b61028f565b61026d565b61021a565b610180565b909182601f8301121561012e5781359167ffffffffffffffff831161012e57602001926001830284011161012e57565b5f80fd5b909160408284031261012e57813567ffffffffffffffff811161012e578361015b9184016100fe565b929093602082013567ffffffffffffffff811161012e5761017c92016100fe565b9091565b61019761018e366004610132565b929190916108d0565b60405180805b0390f35b908160c091031261012e5790565b9060c08282031261012e576101c3916101a1565b90565b90825f9392825e0152565b6101f26101fb602093610205936101e6815190565b80835293849260200190565b958691016101c6565b601f01601f191690565b0190565b60208082526101c3929101906101d1565b3461012e5761019d6102356102303660046101af565b610c38565b60405191829182610209565b805b0361012e57565b9050359061025782610241565b565b9060208282031261012e576101c39161024a565b3461012e57610197610280366004610259565b610d4a565b5f91031261012e57565b3461012e5761029f366004610285565b610197610d8a565b6001600160a01b031690565b6001600160a01b038116610243565b90503590610257826102b3565b9060208282031261012e576101c3916102c2565b3461012e576101976102f63660046102cf565b610d92565b9052565b3461012e5761030f366004610285565b61019d6103235f546001600160a01b031690565b604051918291826001600160a01b03909116815260200190565b6101c3916008021c6001600160a01b031690565b906101c3915461033d565b6101c35f6003610351565b3461012e57610377366004610285565b61019d61032361035c565b919060808382031261012e57823567ffffffffffffffff811161012e57816103ab9185016100fe565b92909360208101359167ffffffffffffffff831161012e576103d2846101c39484016100fe565b93909460606103e482604087016102c2565b940161024a565b6101976103f9366004610382565b9493909392919261114b565b919060408382031261012e576101c390602061042182866102c2565b94016102c2565b3461012e5761019761043b366004610405565b90611185565b6101c3916008021c81565b906101c39154610441565b6101c35f600261044c565b3461012e57610472366004610285565b61019d61047d610457565b6040515b9182918290815260200190565b6101c36101c36101c39290565b6101c361271061048e565b6101c361049b565b3461012e576104be366004610285565b61019d61047d6104a6565b3461012e576101976104dc3660046102cf565b6112dd565b3461012e576101976104f43660046102cf565b611357565b9081604091031261012e5790565b9060408282031261012e576101c3916104f9565b3461012e5761019d610235610531366004610507565b6113b6565b634e487b7160e01b5f52604160045260245ffd5b90601f01601f1916810190811067ffffffffffffffff82111761056c57604052565b610536565b9061025761057e60405190565b928361054a565b919060c08382031261012e576105fc9060a06105a160c0610571565b946105ac83826102c2565b86526105bb83602083016102c2565b60208701526105cd83604083016102c2565b60408701526105df836060830161024a565b60608701526105f1836080830161024a565b60808701520161024a565b60a0830152565b9060c08282031261012e576101c391610585565b9081526040810192916102579160200152565b15610633575050565b7ffbb40379000000000000000000000000000000000000000000000000000000005f90815291610664916004610617565b035ffd5b6002111561012e57565b9050359061025782610668565b919060408382031261012e576106ae90602061069b6040610571565b946106a68382610672565b8652016102c2565b6020830152565b9060408282031261012e576101c39161067f565b634e487b7160e01b5f52602160045260245ffd5b600211156106e757565b6106c9565b90610257826106dd565b6101c390516106ec565b1561070757565b7fe0aeda7d000000000000000000000000000000000000000000000000000000005f908152600490fd5b1561073a575050565b7f523b7228000000000000000000000000000000000000000000000000000000005f90815291610664916004610617565b15610774575050565b7f8f50cee1000000000000000000000000000000000000000000000000000000005f9081526001600160a01b039182166004529116602452604490fd5b156107ba575050565b7f24bf66c5000000000000000000000000000000000000000000000000000000005f90815291610664916004610617565b6102a76101c36101c3926001600160a01b031690565b6101c3906107eb565b6101c390610801565b1561081c575050565b7f7e957b11000000000000000000000000000000000000000000000000000000005f90815291610664916004610617565b67ffffffffffffffff811161056c57602090601f01601f19160190565b9061087c6108778361084d565b610571565b918252565b3d1561089a576108903d61086a565b903d5f602084013e565b606090565b156108a657565b7ff4b3b1bc000000000000000000000000000000000000000000000000000000005f908152600490fd5b6108e19061090e9392810190610603565b92610906608085016108fe6108f76101c3835190565b4614915190565b90469061062a565b8101906106b5565b610917816106f6565b6109296109235f6106ec565b916106ec565b03610ad65761095160a0830161094a6109436101c3835190565b4210915190565b42916107b1565b610a0961096f6040840161097461096f82516001600160a01b031690565b61080a565b61099a73eeeeeeeeeeeeeeeeeeeeeeeeeeeeeeeeeeeeeeee5b916001600160a01b031690565b03610a84576109fc5f80606088016109c76109b66101c3835190565b34146109c0835190565b3491610813565b6109e26109dd838b01516001600160a01b031690565b915190565b6040515b9081805b03925af16109f6610881565b5061089f565b516001600160a01b031690565b907f378381bc5e6c9d6ef5ec537a0bab55ecbf51f170e784499f5b4949b03dadcc29610a7f610a75610a6f610a6f610a696020610a5a5f610a4b60608d015190565b9b01516001600160a01b031690565b9701516001600160a01b031690565b9661080a565b9461080a565b9461048160405190565b0390a4565b610a97610a905f61048e565b3414610700565b6109fc610aab82516001600160a01b031690565b60208601516001600160a01b031687516001600160a01b031690610ad060608a015190565b92611434565b90602061025792610ae9610a905f61048e565b610b0d60a08401610b06610afe6101c3835190565b421015915190565b4291610731565b0190610b5f610b516020610b2885516001600160a01b031690565b930192610b4261098d6102a786516001600160a01b031690565b1493516001600160a01b031690565b91516001600160a01b031690565b9161076b565b506101c39060208101906102c2565b6102fb9061080a565b506101c390602081019061024a565b9060a0610c2361025793610bb2610ba55f830183610b65565b6001600160a01b03168552565b610bd2610bc26020830183610b65565b6001600160a01b03166020860152565b610bec610be26040830183610b65565b6040860190610b74565b610c03610bfc6060830183610b7d565b6060860152565b610c1a610c136080830183610b7d565b6080860152565b82810190610b7d565b910152565b60c0810192916102579190610b8c565b6101c3610c4460405190565b8092610c54602083019182610c28565b9081038252038261054a565b61025790610c6c61147e565b610ce4565b15610c795750565b7f2f3cdef2000000000000000000000000000000000000000000000000000000005f908152600491909152602490fd5b6101c39081565b6101c39054610ca9565b905f19905b9181191691161790565b90610cd96101c3610ce09261048e565b8254610cba565b9055565b61025790610cff81610cf76101c361049b565b811115610c71565b7fbc746c1b8cf7bef91e22587dc4db83d0e76dd76b6aad2f49bc94c3f0acf832f281610d2b6002610cb0565b610d40610d3760405190565b92839283610617565b0390a16002610cc9565b61025790610c60565b610d5b61147e565b610257610d79565b6102a76101c36101c39290565b6101c390610d63565b610257610d855f610d70565b6114d5565b610257610d53565b610d9b3061080a565b3190610da65f61048e565b8211610db0575050565b5f8091610257936109e660405190565b90610dd69594939291610dd1611538565b610ed3565b610257611590565b6102fb9061048e565b6101c3906106ec565b6102fb90610de7565b908152606081019392610257929091604091610e19906020830190610dde565b0190610df0565b634e487b7160e01b5f52601160045260245ffd5b81810292918115918404141715610e4757565b610e20565b634e487b7160e01b5f52601260045260245ffd5b90610e6a565b9190565b908115610e75570490565b610e4c565b91908203918211610e4757565b15610e8e57565b7f0b37568b000000000000000000000000000000000000000000000000000000005f908152600490fd5b908152606081019392610257929091604091610e19906106ae565b5050610f03907f2fdfc95b3dadeb6ad1149e0fdade29939418e5b3fa4f2ea6f319399c07af0260928101906106b5565b610f0c816106f6565b610f186109235f6106ec565b036110b757610fe5610fdf610a6f6020610f4c610f3e610f386002610cb0565b8a610e34565b610f4661049b565b90610e60565b94610f57868a610e7a565b9889610f628a61080a565b9973eeeeeeeeeeeeeeeeeeeeeeeeeeeeeeeeeeeeeeee6001600160a01b038c160361105357505080610f94610f9e9290565b3414903491610813565b610fa75f61048e565b8611611001575b610fd15f80610fc6858501516001600160a01b031690565b6040518d81806109ea565b01516001600160a01b031690565b9361080a565b93610ffc5f610ff360405190565b93849384610eb8565b0390a3565b61102c6110166003546001600160a01b031690565b61102561098d6102a75f610d70565b1415610e87565b61104e5f806110436003546001600160a01b031690565b6040518a81806109ea565b610fae565b61107c92506110615f61048e565b8911611081575b838501516001600160a01b03165b906115bf565b610fd1565b6110966110166003546001600160a01b031690565b6110b2896110ac6003546001600160a01b031690565b836115bf565b611068565b61111c610fdf610a6f60205f946110cd8861080a565b978973eeeeeeeeeeeeeeeeeeeeeeeeeeeeeeeeeeeeeeee6001600160a01b038b1614881461113457611104915034148a3491610813565b610fd18680610fc6858501516001600160a01b031690565b93610ffc600161112b60405190565b93849384610df9565b61107c91611076858501516001600160a01b031690565b906102579594939291610dc0565b9050519061025782610241565b9060208282031261012e576101c391611159565b6040513d5f823e3d90fd5b6111e89160206111948361080a565b61119d3061080a565b906111a760405190565b958692839182917f70a08231000000000000000000000000000000000000000000000000000000008352600483016001600160a01b03909116815260200190565b03915afa91821561123557610257935f93611204575b506115bf565b61122791935060203d60201161122e575b61121f818361054a565b810190611166565b915f6111fe565b503d611215565b61117a565b6102579061124661147e565b611271565b906001600160a01b0390610cbf565b9061126a6101c3610ce09261080a565b825461124b565b610257907f49bc8f1c292131e71bfca22660d0716072ff2442b58d72840474dd83a390411c816112a96003546001600160a01b031690565b6112d36112b560405190565b928392836001600160a01b0391821681529116602082015260400190565b0390a1600361125a565b6102579061123a565b610257906112f261147e565b6112fb5f610d70565b6001600160a01b0381166001600160a01b0383161461131e5750610257906114d5565b7f1e4fbdf7000000000000000000000000000000000000000000000000000000005f9081526001600160a01b039091166004526024035ffd5b610257906112e6565b506101c3906020810190610672565b9060206113986102579361138f6113885f830183611360565b8590610df0565b82810190610b65565b6001600160a01b0316910152565b604081019291610257919061136f565b6101c36113c260405190565b8092610c546020830191826113a6565b6113eb6113e56101c39263ffffffff1690565b60e01b90565b7fffffffff000000000000000000000000000000000000000000000000000000001690565b6001600160a01b039182168152911660208201526060810192916102579160400152565b906114799061146a610257956004956114506323b872dd6113d2565b9361145a60405190565b9788956020870190815201611410565b6020820181038252038361054a565b6115f3565b5f546001600160a01b031633906114948261098d565b0361149c5750565b7f118cdaa7000000000000000000000000000000000000000000000000000000005f9081526001600160a01b039091166004526024035ffd5b6114fc6114f66114ec5f546001600160a01b031690565b61096f845f61125a565b9161080a565b907f8be0079c531659141344cd1fd0a4f28419497f9722a3daafe3b4186f6b6457e061152760405190565b8080610ffc565b6101c3600261048e565b6115426001610cb0565b61154a61152e565b90811461155c57610257906001610cc9565b7f3ee5aeb5000000000000000000000000000000000000000000000000000000005f908152600490fd5b6101c3600161048e565b61025761159b611586565b6001610cc9565b6001600160a01b0390911681526040810192916102579160200152565b61147960049261146a610257956115d963a9059cbb6113d2565b926115e360405190565b96879460208601908152016115a2565b905f6020916115ff5f90565b50828151910182855af11561117a573d5f519061161e610e665f61048e565b03611688575061162d8161080a565b3b61163a610e665f61048e565b145b6116435750565b6106646116505f9261080a565b7f5274afe70000000000000000000000000000000000000000000000000000000083526001600160a01b031660048301526024820190565b611695610e66600161048e565b141561163c56fea26469706673582212200bd288c1ca4acc4290ed0a7d0659f678104f8cf9291a004854b91ab7150aa5ad64736f6c634300081c0033",
    "linkReferences": {},
    "deployedLinkReferences": {},
    "immutableReferences": {},
    "inputSourceName": "project/contracts/v3/unlockers/DeadlineUnlocker.sol",
    "buildInfoId": "solc-0_8_28-e0f1f68077c9794ff2a1b914c2ffb37fb79845ee"
}