{
    "_format": "hh3-artifact-1",
    "contractName": "DeadlineUnlocker",
    "sourceName": "contracts/v3/unlockers/DeadlineUnlocker.sol",
    "abi": [
        {
            "inputs": [
                {
                    "internalType": "address",
                    "name": "owner_",
                    "type": "address"
                }
            ],
            "stateMutability": "nonpayable",
            "type": "constructor"
        },
        {
            "inputs": [
                {
                    "internalType": "address",
                    "name": "actor",
                    "type": "address"
                },
                {
                    "internalType": "address",
                    "name": "depositor",
                    "type": "address"
                }
            ],
            "name": "ActorNotDepositor",
            "type": "error"
        },
        {
            "inputs": [
                {
                    "internalType": "uint256",
                    "name": "deadline",
                    "type": "uint256"
                },
                {
                    "internalType": "uint256",
                    "name": "timestamp",
                    "type": "uint256"
                }
            ],
            "name": "DeadlineExceeded",
            "type": "error"
        },
        {
            "inputs": [
                {
                    "internalType": "uint256",
                    "name": "deadline",
                    "type": "uint256"
                },
                {
                    "internalType": "uint256",
                    "name": "timestamp",
                    "type": "uint256"
                }
            ],
            "name": "DeadlineNotReached",
            "type": "error"
        },
        {
            "inputs": [],
            "name": "FeeReceiverNotSet",
            "type": "error"
        },
        {
            "inputs": [
                {
                    "internalType": "uint256",
                    "name": "bps",
                    "type": "uint256"
                }
            ],
            "name": "InvalidVolumeFee",
            "type": "error"
        },
        {
            "inputs": [
                {
                    "internalType": "uint256",
                    "name": "expected",
                    "type": "uint256"
                },
                {
                    "internalType": "uint256",
                    "name": "actual",
                    "type": "uint256"
                }
            ],
            "name": "NativeAmountMismatch",
            "type": "error"
        },
        {
            "inputs": [],
            "name": "NativeTransferFailed",
            "type": "error"
        },
        {
            "inputs": [
                {
                    "internalType": "address",
                    "name": "owner",
                    "type": "address"
                }
            ],
            "name": "OwnableInvalidOwner",
            "type": "error"
        },
        {
            "inputs": [
                {
                    "internalType": "address",
                    "name": "account",
                    "type": "address"
                }
            ],
            "name": "OwnableUnauthorizedAccount",
            "type": "error"
        },
        {
            "inputs": [],
            "name": "ReentrancyGuardReentrantCall",
            "type": "error"
        },
        {
            "inputs": [
                {
                    "internalType": "address",
                    "name": "token",
                    "type": "address"
                }
            ],
            "name": "SafeERC20FailedOperation",
            "type": "error"
        },
        {
            "inputs": [],
            "name": "UnexpectedNativeValue",
            "type": "error"
        },
        {
            "inputs": [
                {
                    "internalType": "uint256",
                    "name": "actual",
                    "type": "uint256"
                },
                {
                    "internalType": "uint256",
                    "name": "expected",
                    "type": "uint256"
                }
            ],
            "name": "WrongDstChain",
            "type": "error"
        },
        {
            "anonymous": false,
            "inputs": [
                {
                    "indexed": false,
                    "internalType": "address",
                    "name": "oldReceiver",
                    "type": "address"
                },
                {
                    "indexed": false,
                    "internalType": "address",
                    "name": "newReceiver",
                    "type": "address"
                }
            ],
            "name": "FeeReceiverSet",
            "type": "event"
        },
        {
            "anonymous": false,
            "inputs": [
                {
                    "indexed": true,
                    "internalType": "address",
                    "name": "previousOwner",
                    "type": "address"
                },
                {
                    "indexed": true,
                    "internalType": "address",
                    "name": "newOwner",
                    "type": "address"
                }
            ],
            "name": "OwnershipTransferred",
            "type": "event"
        },
        {
            "anonymous": false,
            "inputs": [
                {
                    "indexed": true,
                    "internalType": "address",
                    "name": "token",
                    "type": "address"
                },
                {
                    "indexed": true,
                    "internalType": "address",
                    "name": "recipient",
                    "type": "address"
                },
                {
                    "indexed": false,
                    "internalType": "uint256",
                    "name": "recipientAmount",
                    "type": "uint256"
                },
                {
                    "indexed": false,
                    "internalType": "uint256",
                    "name": "feeAmount",
                    "type": "uint256"
                },
                {
                    "indexed": false,
                    "internalType": "enum DeadlineUnlocker.Branch",
                    "name": "branch",
                    "type": "uint8"
                }
            ],
            "name": "Settled",
            "type": "event"
        },
        {
            "anonymous": false,
            "inputs": [
                {
                    "indexed": false,
                    "internalType": "uint256",
                    "name": "oldBps",
                    "type": "uint256"
                },
                {
                    "indexed": false,
                    "internalType": "uint256",
                    "name": "newBps",
                    "type": "uint256"
                }
            ],
            "name": "VolumeFeeBpsSet",
            "type": "event"
        },
        {
            "inputs": [],
            "name": "BPS_DENOMINATOR",
            "outputs": [
                {
                    "internalType": "uint256",
                    "name": "",
                    "type": "uint256"
                }
            ],
            "stateMutability": "view",
            "type": "function"
        },
        {
            "inputs": [
                {
                    "components": [
                        {
                            "internalType": "address",
                            "name": "recipient",
                            "type": "address"
                        },
                        {
                            "internalType": "address",
                            "name": "depositor",
                            "type": "address"
                        },
                        {
                            "internalType": "contract IERC20",
                            "name": "dstToken",
                            "type": "address"
                        },
                        {
                            "internalType": "uint256",
                            "name": "amount",
                            "type": "uint256"
                        },
                        {
                            "internalType": "uint256",
                            "name": "dstChainId",
                            "type": "uint256"
                        },
                        {
                            "internalType": "uint256",
                            "name": "deadline",
                            "type": "uint256"
                        }
                    ],
                    "internalType": "struct DeadlineUnlocker.Condition",
                    "name": "c",
                    "type": "tuple"
                }
            ],
            "name": "encodeCondition",
            "outputs": [
                {
                    "internalType": "bytes",
                    "name": "",
                    "type": "bytes"
                }
            ],
            "stateMutability": "pure",
            "type": "function"
        },
        {
            "inputs": [
                {
                    "components": [
                        {
                            "internalType": "enum DeadlineUnlocker.Branch",
                            "name": "branch",
                            "type": "uint8"
                        },
                        {
                            "internalType": "address",
                            "name": "actor",
                            "type": "address"
                        }
                    ],
                    "internalType": "struct DeadlineUnlocker.Solution",
                    "name": "s",
                    "type": "tuple"
                }
            ],
            "name": "encodeSolution",
            "outputs": [
                {
                    "internalType": "bytes",
                    "name": "",
                    "type": "bytes"
                }
            ],
            "stateMutability": "pure",
            "type": "function"
        },
        {
            "inputs": [],
            "name": "feeReceiver",
            "outputs": [
                {
                    "internalType": "address",
                    "name": "",
                    "type": "address"
                }
            ],
            "stateMutability": "view",
            "type": "function"
        },
        {
            "inputs": [
                {
                    "internalType": "bytes",
                    "name": "condition",
                    "type": "bytes"
                },
                {
                    "internalType": "bytes",
                    "name": "solution",
                    "type": "bytes"
                }
            ],
            "name": "fill",
            "outputs": [],
            "stateMutability": "payable",
            "type": "function"
        },
        {
            "inputs": [],
            "name": "owner",
            "outputs": [
                {
                    "internalType": "address",
                    "name": "",
                    "type": "address"
                }
            ],
            "stateMutability": "view",
            "type": "function"
        },
        {
            "inputs": [],
            "name": "renounceOwnership",
            "outputs": [],
            "stateMutability": "nonpayable",
            "type": "function"
        },
        {
            "inputs": [
                {
                    "internalType": "address",
                    "name": "receiver",
                    "type": "address"
                }
            ],
            "name": "setFeeReceiver",
            "outputs": [],
            "stateMutability": "nonpayable",
            "type": "function"
        },
        {
            "inputs": [
                {
                    "internalType": "uint256",
                    "name": "bps",
                    "type": "uint256"
                }
            ],
            "name": "setVolumeFeeBps",
            "outputs": [],
            "stateMutability": "nonpayable",
            "type": "function"
        },
        {
            "inputs": [
                {
                    "internalType": "contract IERC20",
                    "name": "token",
                    "type": "address"
                },
                {
                    "internalType": "address",
                    "name": "to",
                    "type": "address"
                }
            ],
            "name": "sweep",
            "outputs": [],
            "stateMutability": "nonpayable",
            "type": "function"
        },
        {
            "inputs": [
                {
                    "internalType": "address",
                    "name": "to",
                    "type": "address"
                }
            ],
            "name": "sweepNative",
            "outputs": [],
            "stateMutability": "nonpayable",
            "type": "function"
        },
        {
            "inputs": [
                {
                    "internalType": "address",
                    "name": "newOwner",
                    "type": "address"
                }
            ],
            "name": "transferOwnership",
            "outputs": [],
            "stateMutability": "nonpayable",
            "type": "function"
        },
        {
            "inputs": [
                {
                    "internalType": "bytes",
                    "name": "",
                    "type": "bytes"
                },
                {
                    "internalType": "bytes",
                    "name": "solution",
                    "type": "bytes"
                },
                {
                    "internalType": "contract IERC20",
                    "name": "token",
                    "type": "address"
                },
                {
                    "internalType": "uint256",
                    "name": "amount",
                    "type": "uint256"
                }
            ],
            "name": "unlock",
            "outputs": [],
            "stateMutability": "payable",
            "type": "function"
        },
        {
            "inputs": [],
            "name": "volumeFeeBps",
            "outputs": [
                {
                    "internalType": "uint256",
                    "name": "",
                    "type": "uint256"
                }
            ],
            "stateMutability": "view",
            "type": "function"
        },
        {
            "stateMutability": "payable",
            "type": "receive"
        }
    ],
    "bytecode": "0x60806040523461002a576100196100146100bf565b6100dd565b60405161164a610267823961164a90f35b5f80fd5b634e487b7160e01b5f52604160045260245ffd5b90601f01601f191681019081106001600160401b0382111761006357604052565b61002e565b9061007c61007560405190565b9283610042565b565b6001600160a01b031690565b90565b6001600160a01b0381160361002a57565b9050519061007c8261008d565b9060208282031261002a5761008a9161009e565b61008a6118b1803803806100d281610068565b9283398101906100ab565b61007c90610127565b61008a61008a61008a9290565b61008a60016100e6565b905f19905b9181191691161790565b9061011c61008a610123926100e6565b82546100fd565b9055565b6101309061016b565b61007c61013b6100f3565b600161010c565b61007e61008a61008a9290565b61008a90610142565b6001600160a01b03909116815260200190565b6101745f61014f565b6001600160a01b0381166001600160a01b03831614610197575061007c90610212565b631e4fbdf760e01b5f908152906101af906004610158565b035ffd5b61008a9061007e565b61008a90546101b3565b906001600160a01b0390610102565b61008a9061007e906001600160a01b031682565b61008a906101d5565b61008a906101e9565b9061020b61008a610123926101f2565b82546101c6565b6102366102306102215f6101bc565b61022b845f6101fb565b6101f2565b916101f2565b907f8be0079c531659141344cd1fd0a4f28419497f9722a3daafe3b4186f6b6457e061026160405190565b5f90a356fe6080604052600436101561001a575b3615610018575f80fd5b005b5f3560e01c80635b492b70146100f957806361253e5c146100f4578063653b7fb8146100ef578063715018a6146100ea57806378c093cf146100e55780638da5cb5b146100e0578063b3f00674146100db578063b8c621d7146100d6578063b8dc491b146100d1578063ce5d448d146100cc578063e1a45218146100c7578063efdcd974146100c2578063f2fde38b146100bd5763fa6015d50361000e5761051a565b6104e0565b6104c8565b6104ad565b610462565b610428565b6103eb565b610367565b6102ff565b6102e3565b61028f565b61026d565b61021a565b610180565b909182601f8301121561012e5781359167ffffffffffffffff831161012e57602001926001830284011161012e57565b5f80fd5b909160408284031261012e57813567ffffffffffffffff811161012e578361015b9184016100fe565b929093602082013567ffffffffffffffff811161012e5761017c92016100fe565b9091565b61019761018e366004610132565b929190916108cf565b60405180805b0390f35b908160c091031261012e5790565b9060c08282031261012e576101c3916101a1565b90565b90825f9392825e0152565b6101f26101fb602093610205936101e6815190565b80835293849260200190565b958691016101c6565b601f01601f191690565b0190565b60208082526101c3929101906101d1565b3461012e5761019d6102356102303660046101af565b610bb8565b60405191829182610209565b805b0361012e57565b9050359061025782610241565b565b9060208282031261012e576101c39161024a565b3461012e57610197610280366004610259565b610cca565b5f91031261012e57565b3461012e5761029f366004610285565b610197610d0a565b6001600160a01b031690565b6001600160a01b038116610243565b90503590610257826102b3565b9060208282031261012e576101c3916102c2565b3461012e576101976102f63660046102cf565b610d12565b9052565b3461012e5761030f366004610285565b61019d6103235f546001600160a01b031690565b604051918291826001600160a01b03909116815260200190565b6101c3916008021c6001600160a01b031690565b906101c3915461033d565b6101c35f6003610351565b3461012e57610377366004610285565b61019d61032361035c565b919060808382031261012e57823567ffffffffffffffff811161012e57816103ab9185016100fe565b92909360208101359167ffffffffffffffff831161012e576103d2846101c39484016100fe565b93909460606103e482604087016102c2565b940161024a565b6101976103f9366004610382565b949390939291926110c3565b919060408382031261012e576101c390602061042182866102c2565b94016102c2565b3461012e5761019761043b366004610405565b906110fd565b6101c3916008021c81565b906101c39154610441565b6101c35f600261044c565b3461012e57610472366004610285565b61019d61047d610457565b6040519182918290815260200190565b6101c36101c36101c39290565b6101c361271061048d565b6101c361049a565b3461012e576104bd366004610285565b61019d61047d6104a5565b3461012e576101976104db3660046102cf565b611255565b3461012e576101976104f33660046102cf565b6112cf565b9081604091031261012e5790565b9060408282031261012e576101c3916104f8565b3461012e5761019d610235610530366004610506565b61132e565b634e487b7160e01b5f52604160045260245ffd5b90601f01601f1916810190811067ffffffffffffffff82111761056b57604052565b610535565b9061025761057d60405190565b9283610549565b919060c08382031261012e576105fb9060a06105a060c0610570565b946105ab83826102c2565b86526105ba83602083016102c2565b60208701526105cc83604083016102c2565b60408701526105de836060830161024a565b60608701526105f0836080830161024a565b60808701520161024a565b60a0830152565b9060c08282031261012e576101c391610584565b9081526040810192916102579160200152565b15610632575050565b7ffbb40379000000000000000000000000000000000000000000000000000000005f90815291610663916004610616565b035ffd5b6002111561012e57565b9050359061025782610667565b919060408382031261012e576106ad90602061069a6040610570565b946106a58382610671565b8652016102c2565b6020830152565b9060408282031261012e576101c39161067e565b634e487b7160e01b5f52602160045260245ffd5b600211156106e657565b6106c8565b90610257826106dc565b6101c390516106eb565b1561070657565b7fe0aeda7d000000000000000000000000000000000000000000000000000000005f908152600490fd5b15610739575050565b7f523b7228000000000000000000000000000000000000000000000000000000005f90815291610663916004610616565b15610773575050565b7f8f50cee1000000000000000000000000000000000000000000000000000000005f9081526001600160a01b039182166004529116602452604490fd5b156107b9575050565b7f24bf66c5000000000000000000000000000000000000000000000000000000005f90815291610663916004610616565b6102a76101c36101c3926001600160a01b031690565b6101c3906107ea565b6101c390610800565b1561081b575050565b7f7e957b11000000000000000000000000000000000000000000000000000000005f90815291610663916004610616565b67ffffffffffffffff811161056b57602090601f01601f19160190565b9061087b6108768361084c565b610570565b918252565b3d156108995761088f3d610869565b903d5f602084013e565b606090565b156108a557565b7ff4b3b1bc000000000000000000000000000000000000000000000000000000005f908152600490fd5b6108e09061090d9392810190610602565b92610905608085016108fd6108f66101c3835190565b4614915190565b904690610629565b8101906106b4565b610916816106f5565b6109286109225f6106eb565b916106eb565b03610a565761095060a083016109496109426101c3835190565b4210915190565b42916107b0565b6040820161096d61096882516001600160a01b031690565b610809565b61099373eeeeeeeeeeeeeeeeeeeeeeeeeeeeeeeeeeeeeeee5b916001600160a01b031690565b036109f85750505f80826109de6109d98360606102579701936109cb6109ba6101c3875190565b34146109c4875190565b3491610812565b01516001600160a01b031690565b915190565b6040515b9081805b03925af16109f2610880565b5061089e565b91610a346020610a2561025795610a18610a115f61048d565b34146106ff565b516001600160a01b031690565b9301516001600160a01b031690565b610a506060610a4a84516001600160a01b031690565b93015190565b926113ac565b90602061025792610a69610a115f61048d565b610a8d60a08401610a86610a7e6101c3835190565b421015915190565b4291610730565b0190610adf610ad16020610aa885516001600160a01b031690565b930192610ac26109866102a786516001600160a01b031690565b1493516001600160a01b031690565b91516001600160a01b031690565b9161076a565b506101c39060208101906102c2565b6102fb90610809565b506101c390602081019061024a565b9060a0610ba361025793610b32610b255f830183610ae5565b6001600160a01b03168552565b610b52610b426020830183610ae5565b6001600160a01b03166020860152565b610b6c610b626040830183610ae5565b6040860190610af4565b610b83610b7c6060830183610afd565b6060860152565b610b9a610b936080830183610afd565b6080860152565b82810190610afd565b910152565b60c0810192916102579190610b0c565b6101c3610bc460405190565b8092610bd4602083019182610ba8565b90810382520382610549565b61025790610bec6113f6565b610c64565b15610bf95750565b7f2f3cdef2000000000000000000000000000000000000000000000000000000005f908152600491909152602490fd5b6101c39081565b6101c39054610c29565b905f19905b9181191691161790565b90610c596101c3610c609261048d565b8254610c3a565b9055565b61025790610c7f81610c776101c361049a565b811115610bf1565b7fbc746c1b8cf7bef91e22587dc4db83d0e76dd76b6aad2f49bc94c3f0acf832f281610cab6002610c30565b610cc0610cb760405190565b92839283610616565b0390a16002610c49565b61025790610be0565b610cdb6113f6565b610257610cf9565b6102a76101c36101c39290565b6101c390610ce3565b610257610d055f610cf0565b61144d565b610257610cd3565b610d1b30610809565b3190610d265f61048d565b8211610d30575050565b5f8091610257936109e260405190565b90610d569594939291610d516114b0565b610e53565b610257611508565b6102fb9061048d565b6101c3906106eb565b6102fb90610d67565b908152606081019392610257929091604091610d99906020830190610d5e565b0190610d70565b634e487b7160e01b5f52601160045260245ffd5b81810292918115918404141715610dc757565b610da0565b634e487b7160e01b5f52601260045260245ffd5b90610dea565b9190565b908115610df5570490565b610dcc565b91908203918211610dc757565b15610e0e57565b7f0b37568b000000000000000000000000000000000000000000000000000000005f908152600490fd5b908152606081019392610257929091604091610d99906106ad565b5050610e83907f2fdfc95b3dadeb6ad1149e0fdade29939418e5b3fa4f2ea6f319399c07af0260928101906106b4565b610e8c816106f5565b610e986109225f6106eb565b0361102f57610f5d610f57610f516020610ecc610ebe610eb86002610c30565b8a610db4565b610ec661049a565b90610de0565b94610ed7868a610dfa565b9889610ee28a610809565b9973eeeeeeeeeeeeeeeeeeeeeeeeeeeeeeeeeeeeeeee6001600160a01b038c1603610fcb57505080610f14610f1e9290565b3414903491610812565b610f275f61048d565b8611610f79575b6109cb5f80610f46858501516001600160a01b031690565b6040518d81806109e6565b94610809565b93610809565b93610f745f610f6b60405190565b93849384610e38565b0390a3565b610fa4610f8e6003546001600160a01b031690565b610f9d6109866102a75f610cf0565b1415610e07565b610fc65f80610fbb6003546001600160a01b031690565b6040518a81806109e6565b610f2e565b610ff49250610fd95f61048d565b8911610ff9575b838501516001600160a01b03165b90611537565b6109cb565b61100e610f8e6003546001600160a01b031690565b61102a896110246003546001600160a01b031690565b83611537565b610fe0565b611094610f57610f5160205f9461104588610809565b978973eeeeeeeeeeeeeeeeeeeeeeeeeeeeeeeeeeeeeeee6001600160a01b038b161488146110ac5761107c915034148a3491610812565b6109cb8680610f46858501516001600160a01b031690565b93610f7460016110a360405190565b93849384610d79565b610ff491610fee858501516001600160a01b031690565b906102579594939291610d40565b9050519061025782610241565b9060208282031261012e576101c3916110d1565b6040513d5f823e3d90fd5b61116091602061110c83610809565b61111530610809565b9061111f60405190565b958692839182917f70a08231000000000000000000000000000000000000000000000000000000008352600483016001600160a01b03909116815260200190565b03915afa9182156111ad57610257935f9361117c575b50611537565b61119f91935060203d6020116111a6575b6111978183610549565b8101906110de565b915f611176565b503d61118d565b6110f2565b610257906111be6113f6565b6111e9565b906001600160a01b0390610c3f565b906111e26101c3610c6092610809565b82546111c3565b610257907f49bc8f1c292131e71bfca22660d0716072ff2442b58d72840474dd83a390411c816112216003546001600160a01b031690565b61124b61122d60405190565b928392836001600160a01b0391821681529116602082015260400190565b0390a160036111d2565b610257906111b2565b6102579061126a6113f6565b6112735f610cf0565b6001600160a01b0381166001600160a01b0383161461129657506102579061144d565b7f1e4fbdf7000000000000000000000000000000000000000000000000000000005f9081526001600160a01b039091166004526024035ffd5b6102579061125e565b506101c3906020810190610671565b906020611310610257936113076113005f8301836112d8565b8590610d70565b82810190610ae5565b6001600160a01b0316910152565b60408101929161025791906112e7565b6101c361133a60405190565b8092610bd460208301918261131e565b61136361135d6101c39263ffffffff1690565b60e01b90565b7fffffffff000000000000000000000000000000000000000000000000000000001690565b6001600160a01b039182168152911660208201526060810192916102579160400152565b906113f1906113e2610257956004956113c86323b872dd61134a565b936113d260405190565b9788956020870190815201611388565b60208201810382520383610549565b61156b565b5f546001600160a01b0316339061140c82610986565b036114145750565b7f118cdaa7000000000000000000000000000000000000000000000000000000005f9081526001600160a01b039091166004526024035ffd5b61147461146e6114645f546001600160a01b031690565b610968845f6111d2565b91610809565b907f8be0079c531659141344cd1fd0a4f28419497f9722a3daafe3b4186f6b6457e061149f60405190565b8080610f74565b6101c3600261048d565b6114ba6001610c30565b6114c26114a6565b9081146114d457610257906001610c49565b7f3ee5aeb5000000000000000000000000000000000000000000000000000000005f908152600490fd5b6101c3600161048d565b6102576115136114fe565b6001610c49565b6001600160a01b0390911681526040810192916102579160200152565b6113f16004926113e26102579561155163a9059cbb61134a565b9261155b60405190565b968794602086019081520161151a565b905f6020916115775f90565b50828151910182855af1156110f2573d5f5190611596610de65f61048d565b0361160057506115a581610809565b3b6115b2610de65f61048d565b145b6115bb5750565b6106636115c85f92610809565b7f5274afe70000000000000000000000000000000000000000000000000000000083526001600160a01b031660048301526024820190565b61160d610de6600161048d565b14156115b456fea26469706673582212205cae206cefeaf6df031dcbe0e26fe6b5e50e40020d1af4a59e7fcec72fc7741e64736f6c634300081c0033",
    "linkReferences": {},
    "deployedLinkReferences": {},
    "immutableReferences": {},
    "inputSourceName": "project/contracts/v3/unlockers/DeadlineUnlocker.sol",
    "buildInfoId": "solc-0_8_28-291c89ebb4465cb9610eea1beb733ded7272190f"
}