{
    "_format": "hh3-artifact-1",
    "contractName": "DepositoryDst",
    "sourceName": "contracts/v3/DepositoryDst.sol",
    "abi": [
        {
            "inputs": [
                {
                    "internalType": "address",
                    "name": "target",
                    "type": "address"
                }
            ],
            "name": "AddressEmptyCode",
            "type": "error"
        },
        {
            "inputs": [],
            "name": "BridgeNotSet",
            "type": "error"
        },
        {
            "inputs": [
                {
                    "internalType": "address",
                    "name": "implementation",
                    "type": "address"
                }
            ],
            "name": "ERC1967InvalidImplementation",
            "type": "error"
        },
        {
            "inputs": [],
            "name": "ERC1967NonPayable",
            "type": "error"
        },
        {
            "inputs": [],
            "name": "FailedCall",
            "type": "error"
        },
        {
            "inputs": [
                {
                    "internalType": "IntentID",
                    "name": "intentId",
                    "type": "bytes32"
                }
            ],
            "name": "IntentAlreadyFilled",
            "type": "error"
        },
        {
            "inputs": [
                {
                    "internalType": "IntentID",
                    "name": "intentId",
                    "type": "bytes32"
                }
            ],
            "name": "IntentNotFilled",
            "type": "error"
        },
        {
            "inputs": [],
            "name": "InvalidFillUnlocker",
            "type": "error"
        },
        {
            "inputs": [],
            "name": "InvalidInitialization",
            "type": "error"
        },
        {
            "inputs": [
                {
                    "internalType": "IntentID",
                    "name": "intentId",
                    "type": "bytes32"
                }
            ],
            "name": "InvalidSolution",
            "type": "error"
        },
        {
            "inputs": [],
            "name": "NotInitializing",
            "type": "error"
        },
        {
            "inputs": [
                {
                    "internalType": "address",
                    "name": "owner",
                    "type": "address"
                }
            ],
            "name": "OwnableInvalidOwner",
            "type": "error"
        },
        {
            "inputs": [
                {
                    "internalType": "address",
                    "name": "account",
                    "type": "address"
                }
            ],
            "name": "OwnableUnauthorizedAccount",
            "type": "error"
        },
        {
            "inputs": [],
            "name": "ReentrancyGuardReentrantCall",
            "type": "error"
        },
        {
            "inputs": [],
            "name": "UUPSUnauthorizedCallContext",
            "type": "error"
        },
        {
            "inputs": [
                {
                    "internalType": "bytes32",
                    "name": "slot",
                    "type": "bytes32"
                }
            ],
            "name": "UUPSUnsupportedProxiableUUID",
            "type": "error"
        },
        {
            "anonymous": false,
            "inputs": [
                {
                    "indexed": true,
                    "internalType": "address",
                    "name": "bridge",
                    "type": "address"
                }
            ],
            "name": "BridgeSet",
            "type": "event"
        },
        {
            "anonymous": false,
            "inputs": [
                {
                    "indexed": false,
                    "internalType": "uint64",
                    "name": "version",
                    "type": "uint64"
                }
            ],
            "name": "Initialized",
            "type": "event"
        },
        {
            "anonymous": false,
            "inputs": [
                {
                    "indexed": true,
                    "internalType": "IntentID",
                    "name": "intentId",
                    "type": "bytes32"
                },
                {
                    "indexed": true,
                    "internalType": "address",
                    "name": "solver",
                    "type": "address"
                },
                {
                    "indexed": false,
                    "internalType": "bytes",
                    "name": "solution",
                    "type": "bytes"
                }
            ],
            "name": "IntentFilled",
            "type": "event"
        },
        {
            "anonymous": false,
            "inputs": [
                {
                    "indexed": true,
                    "internalType": "address",
                    "name": "previousOwner",
                    "type": "address"
                },
                {
                    "indexed": true,
                    "internalType": "address",
                    "name": "newOwner",
                    "type": "address"
                }
            ],
            "name": "OwnershipTransferStarted",
            "type": "event"
        },
        {
            "anonymous": false,
            "inputs": [
                {
                    "indexed": true,
                    "internalType": "address",
                    "name": "previousOwner",
                    "type": "address"
                },
                {
                    "indexed": true,
                    "internalType": "address",
                    "name": "newOwner",
                    "type": "address"
                }
            ],
            "name": "OwnershipTransferred",
            "type": "event"
        },
        {
            "anonymous": false,
            "inputs": [
                {
                    "indexed": true,
                    "internalType": "address",
                    "name": "implementation",
                    "type": "address"
                }
            ],
            "name": "Upgraded",
            "type": "event"
        },
        {
            "inputs": [],
            "name": "UPGRADE_INTERFACE_VERSION",
            "outputs": [
                {
                    "internalType": "string",
                    "name": "",
                    "type": "string"
                }
            ],
            "stateMutability": "view",
            "type": "function"
        },
        {
            "inputs": [],
            "name": "acceptOwnership",
            "outputs": [],
            "stateMutability": "nonpayable",
            "type": "function"
        },
        {
            "inputs": [],
            "name": "bridge",
            "outputs": [
                {
                    "internalType": "address",
                    "name": "",
                    "type": "address"
                }
            ],
            "stateMutability": "view",
            "type": "function"
        },
        {
            "inputs": [
                {
                    "components": [
                        {
                            "internalType": "contract IERC20",
                            "name": "token",
                            "type": "address"
                        },
                        {
                            "internalType": "uint256",
                            "name": "amount",
                            "type": "uint256"
                        },
                        {
                            "internalType": "address",
                            "name": "depositor",
                            "type": "address"
                        },
                        {
                            "internalType": "uint256",
                            "name": "quoteTTL",
                            "type": "uint256"
                        },
                        {
                            "internalType": "uint256",
                            "name": "srcChainId",
                            "type": "uint256"
                        }
                    ],
                    "internalType": "struct DepositoryTypes.DepositParams",
                    "name": "depositParams",
                    "type": "tuple"
                },
                {
                    "components": [
                        {
                            "internalType": "contract IFillUnlocker",
                            "name": "fillUnlocker",
                            "type": "address"
                        },
                        {
                            "internalType": "contract ISettlementUnlocker",
                            "name": "settlementUnlocker",
                            "type": "address"
                        },
                        {
                            "internalType": "bytes",
                            "name": "condition",
                            "type": "bytes"
                        }
                    ],
                    "internalType": "struct DepositoryTypes.FillCondition",
                    "name": "fillCondition",
                    "type": "tuple"
                },
                {
                    "components": [
                        {
                            "internalType": "uint256",
                            "name": "blockNumber",
                            "type": "uint256"
                        },
                        {
                            "internalType": "uint256",
                            "name": "timestamp",
                            "type": "uint256"
                        }
                    ],
                    "internalType": "struct DepositoryTypes.BlockchainState",
                    "name": "lockState",
                    "type": "tuple"
                },
                {
                    "internalType": "bytes",
                    "name": "solution",
                    "type": "bytes"
                }
            ],
            "name": "fill",
            "outputs": [],
            "stateMutability": "nonpayable",
            "type": "function"
        },
        {
            "inputs": [
                {
                    "internalType": "IntentID",
                    "name": "intentId",
                    "type": "bytes32"
                }
            ],
            "name": "fills",
            "outputs": [
                {
                    "internalType": "bytes32",
                    "name": "",
                    "type": "bytes32"
                }
            ],
            "stateMutability": "view",
            "type": "function"
        },
        {
            "inputs": [],
            "name": "initialize",
            "outputs": [],
            "stateMutability": "nonpayable",
            "type": "function"
        },
        {
            "inputs": [
                {
                    "components": [
                        {
                            "internalType": "contract IERC20",
                            "name": "token",
                            "type": "address"
                        },
                        {
                            "internalType": "uint256",
                            "name": "amount",
                            "type": "uint256"
                        },
                        {
                            "internalType": "address",
                            "name": "depositor",
                            "type": "address"
                        },
                        {
                            "internalType": "uint256",
                            "name": "quoteTTL",
                            "type": "uint256"
                        },
                        {
                            "internalType": "uint256",
                            "name": "srcChainId",
                            "type": "uint256"
                        }
                    ],
                    "internalType": "struct DepositoryTypes.DepositParams",
                    "name": "depositParams",
                    "type": "tuple"
                },
                {
                    "components": [
                        {
                            "internalType": "contract IFillUnlocker",
                            "name": "fillUnlocker",
                            "type": "address"
                        },
                        {
                            "internalType": "contract ISettlementUnlocker",
                            "name": "settlementUnlocker",
                            "type": "address"
                        },
                        {
                            "internalType": "bytes",
                            "name": "condition",
                            "type": "bytes"
                        }
                    ],
                    "internalType": "struct DepositoryTypes.FillCondition",
                    "name": "fillCondition",
                    "type": "tuple"
                },
                {
                    "components": [
                        {
                            "internalType": "uint256",
                            "name": "blockNumber",
                            "type": "uint256"
                        },
                        {
                            "internalType": "uint256",
                            "name": "timestamp",
                            "type": "uint256"
                        }
                    ],
                    "internalType": "struct DepositoryTypes.BlockchainState",
                    "name": "lockState",
                    "type": "tuple"
                }
            ],
            "name": "intentID",
            "outputs": [
                {
                    "internalType": "IntentID",
                    "name": "",
                    "type": "bytes32"
                }
            ],
            "stateMutability": "pure",
            "type": "function"
        },
        {
            "inputs": [],
            "name": "owner",
            "outputs": [
                {
                    "internalType": "address",
                    "name": "",
                    "type": "address"
                }
            ],
            "stateMutability": "view",
            "type": "function"
        },
        {
            "inputs": [],
            "name": "pendingOwner",
            "outputs": [
                {
                    "internalType": "address",
                    "name": "",
                    "type": "address"
                }
            ],
            "stateMutability": "view",
            "type": "function"
        },
        {
            "inputs": [],
            "name": "proxiableUUID",
            "outputs": [
                {
                    "internalType": "bytes32",
                    "name": "",
                    "type": "bytes32"
                }
            ],
            "stateMutability": "view",
            "type": "function"
        },
        {
            "inputs": [],
            "name": "renounceOwnership",
            "outputs": [],
            "stateMutability": "nonpayable",
            "type": "function"
        },
        {
            "inputs": [
                {
                    "internalType": "address",
                    "name": "bridge_",
                    "type": "address"
                }
            ],
            "name": "setBridge",
            "outputs": [],
            "stateMutability": "nonpayable",
            "type": "function"
        },
        {
            "inputs": [
                {
                    "components": [
                        {
                            "components": [
                                {
                                    "internalType": "contract IERC20",
                                    "name": "token",
                                    "type": "address"
                                },
                                {
                                    "internalType": "uint256",
                                    "name": "amount",
                                    "type": "uint256"
                                },
                                {
                                    "internalType": "address",
                                    "name": "depositor",
                                    "type": "address"
                                },
                                {
                                    "internalType": "uint256",
                                    "name": "quoteTTL",
                                    "type": "uint256"
                                },
                                {
                                    "internalType": "uint256",
                                    "name": "srcChainId",
                                    "type": "uint256"
                                }
                            ],
                            "internalType": "struct DepositoryTypes.DepositParams",
                            "name": "depositParams",
                            "type": "tuple"
                        },
                        {
                            "components": [
                                {
                                    "internalType": "contract IFillUnlocker",
                                    "name": "fillUnlocker",
                                    "type": "address"
                                },
                                {
                                    "internalType": "contract ISettlementUnlocker",
                                    "name": "settlementUnlocker",
                                    "type": "address"
                                },
                                {
                                    "internalType": "bytes",
                                    "name": "condition",
                                    "type": "bytes"
                                }
                            ],
                            "internalType": "struct DepositoryTypes.FillCondition",
                            "name": "fillCondition",
                            "type": "tuple"
                        },
                        {
                            "components": [
                                {
                                    "internalType": "uint256",
                                    "name": "blockNumber",
                                    "type": "uint256"
                                },
                                {
                                    "internalType": "uint256",
                                    "name": "timestamp",
                                    "type": "uint256"
                                }
                            ],
                            "internalType": "struct DepositoryTypes.BlockchainState",
                            "name": "lockState",
                            "type": "tuple"
                        },
                        {
                            "internalType": "bytes",
                            "name": "solution",
                            "type": "bytes"
                        }
                    ],
                    "internalType": "struct DepositoryTypes.UnlockRequest[]",
                    "name": "items",
                    "type": "tuple[]"
                },
                {
                    "internalType": "uint256",
                    "name": "srcChainId",
                    "type": "uint256"
                },
                {
                    "internalType": "address",
                    "name": "srcDepository",
                    "type": "address"
                },
                {
                    "internalType": "address",
                    "name": "oppositeBridge",
                    "type": "address"
                }
            ],
            "name": "settleBatch",
            "outputs": [],
            "stateMutability": "nonpayable",
            "type": "function"
        },
        {
            "inputs": [
                {
                    "internalType": "address",
                    "name": "newOwner",
                    "type": "address"
                }
            ],
            "name": "transferOwnership",
            "outputs": [],
            "stateMutability": "nonpayable",
            "type": "function"
        },
        {
            "inputs": [
                {
                    "internalType": "address",
                    "name": "newImplementation",
                    "type": "address"
                },
                {
                    "internalType": "bytes",
                    "name": "data",
                    "type": "bytes"
                }
            ],
            "name": "upgradeToAndCall",
            "outputs": [],
            "stateMutability": "payable",
            "type": "function"
        }
    ],
    "bytecode": "0x60a060405234602f57600e6033565b604051611bc6610083823960805181818161148201526116720152611bc690f35b5f80fd5b6039603b565b565b60396039603960396076565b605990605c906001600160a01b031682565b90565b6001600160a01b031690565b6059906047565b6059906068565b607d30606f565b60805256fe60806040526004361015610011575f80fd5b5f3560e01c806320158c44146101005780634f1ef286146100fb57806352d1902d146100f657806353b1d925146100f1578063715018a6146100ec57806379ba5097146100e75780638129fc1c146100e25780638da5cb5b146100dd5780638dd14802146100d8578063ac8baa3a146100d3578063ad3cb1cc146100ce578063d8248741146100c9578063e30c3978146100c4578063e78cea92146100bf5763f2fde38b0361010e57610676565b61065b565b610640565b610624565b6105b8565b6104ef565b610455565b61040c565b6103f4565b6103dc565b6103c4565b6103a8565b6102ca565b6102a7565b61013c565b805b0361010e57565b5f80fd5b9050359061011f82610105565b565b9060208282031261010e5761013591610112565b90565b9052565b3461010e57610167610157610152366004610121565b61069f565b6040519182918290815260200190565b0390f35b6001600160a01b031690565b6001600160a01b038116610107565b9050359061011f82610177565b7f4e487b71000000000000000000000000000000000000000000000000000000005f52604160045260245ffd5b90601f01601f1916810190811067ffffffffffffffff8211176101e257604052565b610193565b9061011f6101f460405190565b92836101c0565b67ffffffffffffffff81116101e257602090601f01601f19160190565b0190565b90825f939282370152565b9092919261023c610237826101fb565b6101e7565b938185528183011161010e5761011f91602085019061021c565b9080601f8301121561010e5781602061013593359101610227565b91909160408184031261010e576102888382610186565b92602082013567ffffffffffffffff811161010e576101359201610256565b6102bb6102b5366004610271565b906106e1565b604051005b5f91031261010e57565b3461010e576102da3660046102c0565b61016761015761073b565b908160a091031261010e5790565b9081606091031261010e5790565b9081604091031261010e5790565b909182601f8301121561010e5781359167ffffffffffffffff831161010e57602001926001830284011161010e57565b906101208282031261010e5761035581836102e5565b9260a083013567ffffffffffffffff811161010e57826103769185016102f3565b926103848360c08301610301565b9261010082013567ffffffffffffffff811161010e576103a4920161030f565b9091565b3461010e576102bb6103bb36600461033f565b93929092610be7565b3461010e576103d43660046102c0565b6102bb610c2b565b3461010e576103ec3660046102c0565b6102bb610c33565b3461010e576104043660046102c0565b6102bb610ec3565b3461010e5761041c3660046102c0565b610167610427610ecb565b604051918291826001600160a01b03909116815260200190565b9060208282031261010e5761013591610186565b3461010e576102bb610468366004610441565b610f7c565b909182601f8301121561010e5781359167ffffffffffffffff831161010e57602001926020830284011161010e57565b9060808282031261010e57813567ffffffffffffffff811161010e57816104c591840161046d565b9290936101356104d88460208501610112565b9360606104e88260408701610186565b9401610186565b3461010e576102bb61050236600461049d565b939290926111f1565b90610518610237836101fb565b918252565b610527600561050b565b7f352e302e30000000000000000000000000000000000000000000000000000000602082015290565b61013561051d565b610135610550565b610135610558565b90825f9392825e0152565b61059461059d60209361021893610588815190565b80835293849260200190565b95869101610568565b601f01601f191690565b602080825261013592910190610573565b3461010e576105c83660046102c0565b6101676105d3610560565b604051918291826105a7565b90916101008284031261010e576105f683836102e5565b9260a08301359067ffffffffffffffff821161010e5760c061061d826101359487016102f3565b9401610301565b3461010e5761016761015761063a3660046105df565b9161139d565b3461010e576106503660046102c0565b6101676104276113b2565b3461010e5761066b3660046102c0565b6101676104276113dc565b3461010e576102bb610689366004610441565b61146e565b6101359081565b610135905461068e565b6106bc610135916106ad5f90565b505f905f5260205260405f2090565b610695565b9061011f916106ce611477565b9061011f916106dc8161151c565b611546565b9061011f916106c1565b610135906106f761165c565b610732565b6101356101356101359290565b6101357f360894a13ba1a3210667c828492db98dca3e2076cc3735a920a3ca505d382bbc6106fc565b50610135610709565b6101355f6106eb565b90610759949392916107546116b8565b610a43565b61011f61172e565b3561013581610177565b61016b610135610135926001600160a01b031690565b6101359061076b565b61013590610781565b1561079a57565b7f027585ad000000000000000000000000000000000000000000000000000000005f908152600490fd5b50610135906020810190610186565b6101389061078a565b50610135906020810190610112565b90608061086261011f9361080b6108045f8301836107c4565b85906107d3565b61082261081b60208301836107dc565b6020860152565b61084261083260408301836107c4565b6001600160a01b03166040860152565b61085961085260608301836107dc565b6060860152565b828101906107dc565b910152565b9035601e19368390030181121561010e57016020813591019167ffffffffffffffff821161010e5736829003831361010e57565b919061059d816108b2816102189560209181520190565b809561021c565b6101359160608101916108fe906108da6108d382806107c4565b84906107d3565b6108f46108ea60208301836107c4565b60208501906107d3565b6040810190610867565b91604081850391015261089b565b90602061086261011f936108596109255f8301836107dc565b8552565b93929061095560c09161011f946109486101008901925f8a01906107eb565b87820360a08901526108b9565b94019061090c565b156109655750565b7f758b4028000000000000000000000000000000000000000000000000000000005f908152600491909152602490fd5b610135913691610227565b905f19905b9181191691161790565b906109bd6101356109c49290565b82546109a0565b9055565b60208082526101359391019161089b565b903590601e19368290030182121561010e570180359067ffffffffffffffff821161010e576020019136829003831361010e57565b9290610a2a90610135959360408601918683035f88015261089b565b92602081850391015261089b565b6040513d5f823e3d90fd5b610a92610a9e610b12939594610ab493610a80610a69610a645f8b01610761565b61078a565b3b610a7a610a765f6106fc565b9190565b11610793565b60405193849289602085019384610929565b908103825203826101c0565b610ab0610aa9825190565b9160200190565b2090565b610ae281610acd6106bc825f905f5260205260405f2090565b610adc610a766101355f6106fc565b1461095d565b610135610aef8685610995565b610afa610aa9825190565b20610b0d835f905f5260205260405f2090565b6109af565b610b1b3361078a565b907f4f02007c5b383d0fb2923b90ac1cc973e61e27f22ce6b7f5c651faa9cdcf21ec610b4660405190565b80610b528887836109c8565b0390a3610b6f610b64610a6484610761565b9260408101906109d9565b8391933b1561010e575f8094610bba610b8760405190565b978896879586947f5b492b7000000000000000000000000000000000000000000000000000000000865260048601610a0e565b03925af18015610be257610bcb5750565b61011f905f610bda81836101c0565b8101906102c0565b610a38565b9061011f94939291610744565b610bfc611762565b61011f610c1a565b61016b6101356101359290565b61013590610c04565b61011f610c265f610c11565b6117c0565b61011f610bf4565b33610c3c6113b2565b610c576001600160a01b0383165b916001600160a01b031690565b03610c655761011f906117c0565b7f118cdaa7000000000000000000000000000000000000000000000000000000005f9081526001600160a01b039091166004526024035ffd5b6101359060401c60ff1690565b6101359054610c9e565b610135905b67ffffffffffffffff1690565b6101359054610cb5565b610cba6101356101359290565b9067ffffffffffffffff906109a5565b610cba6101356101359267ffffffffffffffff1690565b90610d156101356109c492610cee565b8254610cde565b9068ff00000000000000009060401b6109a5565b90610d406101356109c492151590565b8254610d1c565b61013890610cd1565b60208101929161011f9190610d47565b610d686117f3565b80610d82610d7c610d7883610cab565b1590565b92610cc7565b91610d8c5f610cd1565b67ffffffffffffffff84161480610ea3575b600193610dbb610dad86610cd1565b9167ffffffffffffffff1690565b149081610e7f575b155b9081610e76575b50610e4c5780610de85f610ddf86610cd1565b94019384610d05565b610e3d575b610df5610eaa565b610dfd575050565b7fc7f505b2f371ae2175ee4913f4499e1f2633a7b5936321eed1cdaeb6115181d291610e2c5f610e3893610d30565b60405191829182610d50565b0390a1565b610e478383610d30565b610ded565b7ff92ee8a9000000000000000000000000000000000000000000000000000000005f908152600490fd5b1590505f610dcc565b9050610dc5610e8d3061078a565b3b610e9a610a765f6106fc565b14919050610dc3565b5080610d9e565b610eb333611810565b610ebb611821565b61011f61183c565b61011f610d60565b6101355f7f9016d09d72d40fdae2fd8ceac6b6234c7706214fd39c1cd1e609a0528c1993005b01546001600160a01b031690565b61011f90610f0b611762565b610f36565b906001600160a01b03906109a5565b90610f2f6101356109c49261078a565b8254610f10565b610f4d90610a64610f468261078a565b6001610f1f565b7fa49730bff544fd0b716395c592e39c6fd2d2481a19b9229b5b240483db95a495610f7760405190565b5f90a2565b61011f90610eff565b15610f8c57565b7f733fa4c3000000000000000000000000000000000000000000000000000000005f908152600490fd5b7f4e487b71000000000000000000000000000000000000000000000000000000005f52603260045260245ffd5b90359061011e19368290030182121561010e570190565b908210156110115760206101359202810190610fe3565b610fb6565b903590605e19368290030182121561010e570190565b156110345750565b7fbcac7e58000000000000000000000000000000000000000000000000000000005f908152600491909152602490fd5b1561106c5750565b7fc57a8073000000000000000000000000000000000000000000000000000000005f908152600491909152602490fd5b9035605e19368390030181121561010e570190565b610135916111016110e461012083016110ca84866107eb565b6110d760a086018661109c565b84820360a08601526108b9565b926110f660c0820160c085019061090c565b610100810190610867565b9161010081850391015261089b565b90610135916110b1565b903561011e19368390030181121561010e570190565b8183529160200190816111466020830284019490565b92835f925b84841061115b5750505050505090565b9091929394956020611187611180838560019503885261117b8b8861111a565b611110565b9860200190565b94019401929493919061114b565b602080825261013593910191611130565b6111ed61011f946111dd6111cb6060959998969960808601908682035f880152610573565b6001600160a01b039099166020850152565b6001600160a01b03166040830152565b0152565b949190929361122461120e610a646001546001600160a01b031690565b61121d610c4a61016b5f610c11565b1415610f85565b61122d5f6106fc565b848110156112e757806112dc6112476112e293888b610ffa565b61127a81610a9e61125b60a0830183611016565b60c0850192610a9261126c60405190565b948593602085019384610929565b906112d6610a766112c66112c061129c6106bc875f905f5260205260405f2090565b946112b5876112ad6101355f6106fc565b88141561102c565b6101008101906109d9565b90610995565b6112d1610aa9825190565b209290565b14611064565b60010190565b61122d565b50919461133e9094919461132f6112fd60405190565b9586926004602085017f77b0173e00000000000000000000000000000000000000000000000000000000815201611195565b602082018103825203846101c0565b611353610a646001546001600160a01b031690565b90813b1561010e575f8094610bba61136a60405190565b978896879586947f6cebc9c2000000000000000000000000000000000000000000000000000000008652600486016111a6565b6101359291610a9e91610a9261126c60405190565b6101355f7f237e158222e3e6968b72b9db0d8043aacf074ad9f650f0d1606b4d82ee432c00610ef1565b610135610a646001546001600160a01b031690565b61011f906113fd611762565b61142a815f7f237e158222e3e6968b72b9db0d8043aacf074ad9f650f0d1606b4d82ee432c005b01610f1f565b61143e611438610a64610ecb565b9161078a565b907f38d16b8cac22d99fc7c124b9cd0de2d3fa1faef420bfe791d8c362d765e2270061146960405190565b5f90a3565b61011f906113f1565b6114803061078a565b7f0000000000000000000000000000000000000000000000000000000000000000906114b46001600160a01b038316610c4a565b149081156114ee575b506114c457565b7fe07c8dba000000000000000000000000000000000000000000000000000000005f908152600490fd5b905061150b610c4a6114fe611844565b926001600160a01b031690565b14155f6114bd565b5061011f611762565b61011f90611513565b9050519061011f82610105565b9060208282031261010e5761013591611525565b90611553610a648361078a565b90602061155f60405190565b7f52d1902d00000000000000000000000000000000000000000000000000000000815292839060049082905afa5f928161162b575b506115dd57505060016115a45750565b7f4c9c8ce3000000000000000000000000000000000000000000000000000000005f9081526001600160a01b039091166004526024035ffd5b9092916115eb610135610709565b84036115fc5761011f929350611853565b7faa1d49a4000000000000000000000000000000000000000000000000000000005f9081526004859052602490fd5b61164e91935060203d602011611655575b61164681836101c0565b810190611532565b915f611594565b503d61163c565b6116653061078a565b6116976001600160a01b037f000000000000000000000000000000000000000000000000000000000000000016610c4a565b036114c457565b61013560026106fc565b906109bd6101356109c4926106fc565b7f9b779b17422d0df92223018b32b4d1fa46e071723d6817e2486d003becc55f006116e281610695565b6116ea61169e565b9081146116fa5761011f916116a8565b7f3ee5aeb5000000000000000000000000000000000000000000000000000000005f908152600490fd5b61013560016106fc565b61011f7f9b779b17422d0df92223018b32b4d1fa46e071723d6817e2486d003becc55f005f61175b611724565b91016116a8565b61176a610ecb565b339061177582610c4a565b03610c655750565b919060086109a59102916117976001600160a01b03841b90565b921b90565b91906117ad6101356109c49361078a565b90835461177d565b61011f915f9161179c565b61011f906117ee5f7f237e158222e3e6968b72b9db0d8043aacf074ad9f650f0d1606b4d82ee432c006117b5565b6118bd565b610135611953565b61011f9061180761195b565b61011f90611a07565b61011f906117fb565b61011f61195b565b61011f611819565b61183161195b565b61011f61011f611a18565b61011f611829565b6101355f610ef1610135610709565b9061185d82611a20565b6118668261078a565b7fbc7cd75a20ee27fd9adebab32041f755214dbc6bffa90cc0225b39da2e5c2d3b61189060405190565b5f90a280516118a1610a765f6106fc565b11156118b3576118b091611a9c565b50565b505061011f611a43565b6118ff6114387f9016d09d72d40fdae2fd8ceac6b6234c7706214fd39c1cd1e609a0528c199300610a64846118f983546001600160a01b031690565b92610f1f565b907f8be0079c531659141344cd1fd0a4f28419497f9722a3daafe3b4186f6b6457e061146960405190565b6101357ff0c57e16840df040f15088dc2f81fe391c3923bec73e23a9662efc9c229c6a006106fc565b61013561192a565b611966610d78611ac2565b61196c57565b7fd7e6bcf8000000000000000000000000000000000000000000000000000000005f908152600490fd5b61011f906119a261195b565b6119ab5f610c11565b6001600160a01b0381166001600160a01b038316146119ce575061011f906117c0565b7f1e4fbdf7000000000000000000000000000000000000000000000000000000005f9081526001600160a01b039091166004526024035ffd5b61011f90611996565b61075961195b565b61011f611a10565b803b611a2e610a765f6106fc565b146115a45761011f905f611424610135610709565b611a4c5f6106fc565b3411611a5457565b7fb398979f000000000000000000000000000000000000000000000000000000005f908152600490fd5b3d15611a9757611a8d3d61050b565b903d5f602084013e565b606090565b5f8061013593611aaa606090565b50602081519101845af4611abc611a7e565b91611ad4565b6101355f611ace6117f3565b01610cab565b90611adf5750611b4a565b8151611aed610a765f6106fc565b1480611b35575b611afc575090565b7f9996b315000000000000000000000000000000000000000000000000000000005f9081526001600160a01b039091166004526024035ffd5b50803b611b44610a765f6106fc565b14611af4565b8051611b58610a765f6106fc565b1115611b6657805190602001fd5b7fd6bda275000000000000000000000000000000000000000000000000000000005f908152600490fdfea26469706673582212207c233acdcfd69df585e466ad0b3fa0321125f058188bc891fdc61fb4158b7fae64736f6c634300081c0033",
    "linkReferences": {},
    "deployedLinkReferences": {},
    "immutableReferences": {
        "8704": [
            {
                "length": 32,
                "start": 5250
            },
            {
                "length": 32,
                "start": 5746
            }
        ]
    },
    "inputSourceName": "project/contracts/v3/DepositoryDst.sol",
    "buildInfoId": "solc-0_8_28-ce5414e27b62102c81dc9a8d88c7bcbc3bdca6f9"
}