{
    "_format": "hh3-artifact-1",
    "contractName": "DepositorySrc",
    "sourceName": "contracts/v3/DepositorySrc.sol",
    "abi": [
        {
            "inputs": [],
            "stateMutability": "nonpayable",
            "type": "constructor"
        },
        {
            "inputs": [
                {
                    "internalType": "address",
                    "name": "target",
                    "type": "address"
                }
            ],
            "name": "AddressEmptyCode",
            "type": "error"
        },
        {
            "inputs": [],
            "name": "BridgeNotSet",
            "type": "error"
        },
        {
            "inputs": [
                {
                    "internalType": "address",
                    "name": "implementation",
                    "type": "address"
                }
            ],
            "name": "ERC1967InvalidImplementation",
            "type": "error"
        },
        {
            "inputs": [],
            "name": "ERC1967NonPayable",
            "type": "error"
        },
        {
            "inputs": [],
            "name": "FailedCall",
            "type": "error"
        },
        {
            "inputs": [
                {
                    "internalType": "IntentID",
                    "name": "intentId",
                    "type": "bytes32"
                }
            ],
            "name": "IntentAlreadyLocked",
            "type": "error"
        },
        {
            "inputs": [
                {
                    "internalType": "uint256",
                    "name": "quoteTTL",
                    "type": "uint256"
                },
                {
                    "internalType": "uint256",
                    "name": "currentTime",
                    "type": "uint256"
                }
            ],
            "name": "IntentExpired",
            "type": "error"
        },
        {
            "inputs": [
                {
                    "internalType": "IntentID",
                    "name": "intentId",
                    "type": "bytes32"
                }
            ],
            "name": "IntentNotLocked",
            "type": "error"
        },
        {
            "inputs": [],
            "name": "InvalidDepositAmount",
            "type": "error"
        },
        {
            "inputs": [],
            "name": "InvalidDepositor",
            "type": "error"
        },
        {
            "inputs": [],
            "name": "InvalidFillUnlocker",
            "type": "error"
        },
        {
            "inputs": [],
            "name": "InvalidInitialization",
            "type": "error"
        },
        {
            "inputs": [],
            "name": "InvalidRecipient",
            "type": "error"
        },
        {
            "inputs": [],
            "name": "InvalidSettlementUnlocker",
            "type": "error"
        },
        {
            "inputs": [],
            "name": "NotInitializing",
            "type": "error"
        },
        {
            "inputs": [
                {
                    "internalType": "address",
                    "name": "owner",
                    "type": "address"
                }
            ],
            "name": "OwnableInvalidOwner",
            "type": "error"
        },
        {
            "inputs": [
                {
                    "internalType": "address",
                    "name": "account",
                    "type": "address"
                }
            ],
            "name": "OwnableUnauthorizedAccount",
            "type": "error"
        },
        {
            "inputs": [],
            "name": "ReentrancyGuardReentrantCall",
            "type": "error"
        },
        {
            "inputs": [
                {
                    "internalType": "address",
                    "name": "token",
                    "type": "address"
                }
            ],
            "name": "SafeERC20FailedOperation",
            "type": "error"
        },
        {
            "inputs": [],
            "name": "UUPSUnauthorizedCallContext",
            "type": "error"
        },
        {
            "inputs": [
                {
                    "internalType": "bytes32",
                    "name": "slot",
                    "type": "bytes32"
                }
            ],
            "name": "UUPSUnsupportedProxiableUUID",
            "type": "error"
        },
        {
            "inputs": [],
            "name": "UnauthorizedBridge",
            "type": "error"
        },
        {
            "inputs": [],
            "name": "UnauthorizedUnlocker",
            "type": "error"
        },
        {
            "inputs": [
                {
                    "internalType": "uint256",
                    "name": "expected",
                    "type": "uint256"
                },
                {
                    "internalType": "uint256",
                    "name": "actual",
                    "type": "uint256"
                }
            ],
            "name": "WrongSrcChain",
            "type": "error"
        },
        {
            "anonymous": false,
            "inputs": [
                {
                    "indexed": true,
                    "internalType": "address",
                    "name": "bridge",
                    "type": "address"
                }
            ],
            "name": "BridgeSet",
            "type": "event"
        },
        {
            "anonymous": false,
            "inputs": [
                {
                    "indexed": false,
                    "internalType": "uint64",
                    "name": "version",
                    "type": "uint64"
                }
            ],
            "name": "Initialized",
            "type": "event"
        },
        {
            "anonymous": false,
            "inputs": [
                {
                    "indexed": true,
                    "internalType": "IntentID",
                    "name": "intentId",
                    "type": "bytes32"
                },
                {
                    "components": [
                        {
                            "internalType": "contract IERC20",
                            "name": "token",
                            "type": "address"
                        },
                        {
                            "internalType": "uint256",
                            "name": "amount",
                            "type": "uint256"
                        },
                        {
                            "internalType": "address",
                            "name": "depositor",
                            "type": "address"
                        },
                        {
                            "internalType": "uint256",
                            "name": "quoteTTL",
                            "type": "uint256"
                        },
                        {
                            "internalType": "uint256",
                            "name": "srcChainId",
                            "type": "uint256"
                        }
                    ],
                    "indexed": false,
                    "internalType": "struct DepositoryTypes.DepositParams",
                    "name": "depositParams",
                    "type": "tuple"
                },
                {
                    "components": [
                        {
                            "internalType": "contract IFillUnlocker",
                            "name": "fillUnlocker",
                            "type": "address"
                        },
                        {
                            "internalType": "contract ISettlementUnlocker",
                            "name": "settlementUnlocker",
                            "type": "address"
                        },
                        {
                            "internalType": "bytes",
                            "name": "condition",
                            "type": "bytes"
                        }
                    ],
                    "indexed": false,
                    "internalType": "struct DepositoryTypes.FillCondition",
                    "name": "fillCondition",
                    "type": "tuple"
                },
                {
                    "components": [
                        {
                            "internalType": "uint256",
                            "name": "blockNumber",
                            "type": "uint256"
                        },
                        {
                            "internalType": "uint256",
                            "name": "timestamp",
                            "type": "uint256"
                        }
                    ],
                    "indexed": false,
                    "internalType": "struct DepositoryTypes.BlockchainState",
                    "name": "lockState",
                    "type": "tuple"
                }
            ],
            "name": "IntentLocked",
            "type": "event"
        },
        {
            "anonymous": false,
            "inputs": [
                {
                    "indexed": true,
                    "internalType": "IntentID",
                    "name": "intentId",
                    "type": "bytes32"
                },
                {
                    "indexed": true,
                    "internalType": "address",
                    "name": "settlementUnlocker",
                    "type": "address"
                },
                {
                    "indexed": false,
                    "internalType": "bytes",
                    "name": "solution",
                    "type": "bytes"
                },
                {
                    "indexed": false,
                    "internalType": "contract IERC20",
                    "name": "token",
                    "type": "address"
                },
                {
                    "indexed": false,
                    "internalType": "uint256",
                    "name": "amount",
                    "type": "uint256"
                }
            ],
            "name": "IntentUnlocked",
            "type": "event"
        },
        {
            "anonymous": false,
            "inputs": [
                {
                    "indexed": true,
                    "internalType": "address",
                    "name": "previousOwner",
                    "type": "address"
                },
                {
                    "indexed": true,
                    "internalType": "address",
                    "name": "newOwner",
                    "type": "address"
                }
            ],
            "name": "OwnershipTransferStarted",
            "type": "event"
        },
        {
            "anonymous": false,
            "inputs": [
                {
                    "indexed": true,
                    "internalType": "address",
                    "name": "previousOwner",
                    "type": "address"
                },
                {
                    "indexed": true,
                    "internalType": "address",
                    "name": "newOwner",
                    "type": "address"
                }
            ],
            "name": "OwnershipTransferred",
            "type": "event"
        },
        {
            "anonymous": false,
            "inputs": [
                {
                    "indexed": true,
                    "internalType": "address",
                    "name": "unlocker",
                    "type": "address"
                },
                {
                    "indexed": false,
                    "internalType": "bool",
                    "name": "enabled",
                    "type": "bool"
                }
            ],
            "name": "UnlockerSet",
            "type": "event"
        },
        {
            "anonymous": false,
            "inputs": [
                {
                    "indexed": true,
                    "internalType": "address",
                    "name": "implementation",
                    "type": "address"
                }
            ],
            "name": "Upgraded",
            "type": "event"
        },
        {
            "inputs": [],
            "name": "UPGRADE_INTERFACE_VERSION",
            "outputs": [
                {
                    "internalType": "string",
                    "name": "",
                    "type": "string"
                }
            ],
            "stateMutability": "view",
            "type": "function"
        },
        {
            "inputs": [],
            "name": "acceptOwnership",
            "outputs": [],
            "stateMutability": "nonpayable",
            "type": "function"
        },
        {
            "inputs": [],
            "name": "bridge",
            "outputs": [
                {
                    "internalType": "address",
                    "name": "",
                    "type": "address"
                }
            ],
            "stateMutability": "view",
            "type": "function"
        },
        {
            "inputs": [
                {
                    "components": [
                        {
                            "internalType": "contract IERC20",
                            "name": "token",
                            "type": "address"
                        },
                        {
                            "internalType": "uint256",
                            "name": "amount",
                            "type": "uint256"
                        },
                        {
                            "internalType": "address",
                            "name": "depositor",
                            "type": "address"
                        },
                        {
                            "internalType": "uint256",
                            "name": "quoteTTL",
                            "type": "uint256"
                        },
                        {
                            "internalType": "uint256",
                            "name": "srcChainId",
                            "type": "uint256"
                        }
                    ],
                    "internalType": "struct DepositoryTypes.DepositParams",
                    "name": "depositParams",
                    "type": "tuple"
                },
                {
                    "components": [
                        {
                            "internalType": "contract IFillUnlocker",
                            "name": "fillUnlocker",
                            "type": "address"
                        },
                        {
                            "internalType": "contract ISettlementUnlocker",
                            "name": "settlementUnlocker",
                            "type": "address"
                        },
                        {
                            "internalType": "bytes",
                            "name": "condition",
                            "type": "bytes"
                        }
                    ],
                    "internalType": "struct DepositoryTypes.FillCondition",
                    "name": "fillCondition",
                    "type": "tuple"
                }
            ],
            "name": "deposit",
            "outputs": [],
            "stateMutability": "nonpayable",
            "type": "function"
        },
        {
            "inputs": [
                {
                    "internalType": "IntentID",
                    "name": "intentId",
                    "type": "bytes32"
                }
            ],
            "name": "deposits",
            "outputs": [
                {
                    "internalType": "bool",
                    "name": "",
                    "type": "bool"
                }
            ],
            "stateMutability": "view",
            "type": "function"
        },
        {
            "inputs": [
                {
                    "internalType": "address",
                    "name": "owner_",
                    "type": "address"
                }
            ],
            "name": "initialize",
            "outputs": [],
            "stateMutability": "nonpayable",
            "type": "function"
        },
        {
            "inputs": [
                {
                    "components": [
                        {
                            "internalType": "contract IERC20",
                            "name": "token",
                            "type": "address"
                        },
                        {
                            "internalType": "uint256",
                            "name": "amount",
                            "type": "uint256"
                        },
                        {
                            "internalType": "address",
                            "name": "depositor",
                            "type": "address"
                        },
                        {
                            "internalType": "uint256",
                            "name": "quoteTTL",
                            "type": "uint256"
                        },
                        {
                            "internalType": "uint256",
                            "name": "srcChainId",
                            "type": "uint256"
                        }
                    ],
                    "internalType": "struct DepositoryTypes.DepositParams",
                    "name": "depositParams",
                    "type": "tuple"
                },
                {
                    "components": [
                        {
                            "internalType": "contract IFillUnlocker",
                            "name": "fillUnlocker",
                            "type": "address"
                        },
                        {
                            "internalType": "contract ISettlementUnlocker",
                            "name": "settlementUnlocker",
                            "type": "address"
                        },
                        {
                            "internalType": "bytes",
                            "name": "condition",
                            "type": "bytes"
                        }
                    ],
                    "internalType": "struct DepositoryTypes.FillCondition",
                    "name": "fillCondition",
                    "type": "tuple"
                },
                {
                    "components": [
                        {
                            "internalType": "uint256",
                            "name": "blockNumber",
                            "type": "uint256"
                        },
                        {
                            "internalType": "uint256",
                            "name": "timestamp",
                            "type": "uint256"
                        }
                    ],
                    "internalType": "struct DepositoryTypes.BlockchainState",
                    "name": "lockState",
                    "type": "tuple"
                }
            ],
            "name": "intentID",
            "outputs": [
                {
                    "internalType": "IntentID",
                    "name": "",
                    "type": "bytes32"
                }
            ],
            "stateMutability": "pure",
            "type": "function"
        },
        {
            "inputs": [],
            "name": "owner",
            "outputs": [
                {
                    "internalType": "address",
                    "name": "",
                    "type": "address"
                }
            ],
            "stateMutability": "view",
            "type": "function"
        },
        {
            "inputs": [],
            "name": "pendingOwner",
            "outputs": [
                {
                    "internalType": "address",
                    "name": "",
                    "type": "address"
                }
            ],
            "stateMutability": "view",
            "type": "function"
        },
        {
            "inputs": [],
            "name": "proxiableUUID",
            "outputs": [
                {
                    "internalType": "bytes32",
                    "name": "",
                    "type": "bytes32"
                }
            ],
            "stateMutability": "view",
            "type": "function"
        },
        {
            "inputs": [],
            "name": "renounceOwnership",
            "outputs": [],
            "stateMutability": "nonpayable",
            "type": "function"
        },
        {
            "inputs": [
                {
                    "internalType": "address",
                    "name": "bridge_",
                    "type": "address"
                }
            ],
            "name": "setBridge",
            "outputs": [],
            "stateMutability": "nonpayable",
            "type": "function"
        },
        {
            "inputs": [
                {
                    "internalType": "address",
                    "name": "unlocker",
                    "type": "address"
                },
                {
                    "internalType": "bool",
                    "name": "enabled",
                    "type": "bool"
                }
            ],
            "name": "setUnlocker",
            "outputs": [],
            "stateMutability": "nonpayable",
            "type": "function"
        },
        {
            "inputs": [
                {
                    "internalType": "address",
                    "name": "newOwner",
                    "type": "address"
                }
            ],
            "name": "transferOwnership",
            "outputs": [],
            "stateMutability": "nonpayable",
            "type": "function"
        },
        {
            "inputs": [
                {
                    "components": [
                        {
                            "internalType": "contract IERC20",
                            "name": "token",
                            "type": "address"
                        },
                        {
                            "internalType": "uint256",
                            "name": "amount",
                            "type": "uint256"
                        },
                        {
                            "internalType": "address",
                            "name": "depositor",
                            "type": "address"
                        },
                        {
                            "internalType": "uint256",
                            "name": "quoteTTL",
                            "type": "uint256"
                        },
                        {
                            "internalType": "uint256",
                            "name": "srcChainId",
                            "type": "uint256"
                        }
                    ],
                    "internalType": "struct DepositoryTypes.DepositParams",
                    "name": "depositParams",
                    "type": "tuple"
                },
                {
                    "components": [
                        {
                            "internalType": "contract IFillUnlocker",
                            "name": "fillUnlocker",
                            "type": "address"
                        },
                        {
                            "internalType": "contract ISettlementUnlocker",
                            "name": "settlementUnlocker",
                            "type": "address"
                        },
                        {
                            "internalType": "bytes",
                            "name": "condition",
                            "type": "bytes"
                        }
                    ],
                    "internalType": "struct DepositoryTypes.FillCondition",
                    "name": "fillCondition",
                    "type": "tuple"
                },
                {
                    "components": [
                        {
                            "internalType": "uint256",
                            "name": "blockNumber",
                            "type": "uint256"
                        },
                        {
                            "internalType": "uint256",
                            "name": "timestamp",
                            "type": "uint256"
                        }
                    ],
                    "internalType": "struct DepositoryTypes.BlockchainState",
                    "name": "lockState",
                    "type": "tuple"
                },
                {
                    "internalType": "address",
                    "name": "to",
                    "type": "address"
                }
            ],
            "name": "unlock",
            "outputs": [],
            "stateMutability": "nonpayable",
            "type": "function"
        },
        {
            "inputs": [
                {
                    "components": [
                        {
                            "components": [
                                {
                                    "internalType": "contract IERC20",
                                    "name": "token",
                                    "type": "address"
                                },
                                {
                                    "internalType": "uint256",
                                    "name": "amount",
                                    "type": "uint256"
                                },
                                {
                                    "internalType": "address",
                                    "name": "depositor",
                                    "type": "address"
                                },
                                {
                                    "internalType": "uint256",
                                    "name": "quoteTTL",
                                    "type": "uint256"
                                },
                                {
                                    "internalType": "uint256",
                                    "name": "srcChainId",
                                    "type": "uint256"
                                }
                            ],
                            "internalType": "struct DepositoryTypes.DepositParams",
                            "name": "depositParams",
                            "type": "tuple"
                        },
                        {
                            "components": [
                                {
                                    "internalType": "contract IFillUnlocker",
                                    "name": "fillUnlocker",
                                    "type": "address"
                                },
                                {
                                    "internalType": "contract ISettlementUnlocker",
                                    "name": "settlementUnlocker",
                                    "type": "address"
                                },
                                {
                                    "internalType": "bytes",
                                    "name": "condition",
                                    "type": "bytes"
                                }
                            ],
                            "internalType": "struct DepositoryTypes.FillCondition",
                            "name": "fillCondition",
                            "type": "tuple"
                        },
                        {
                            "components": [
                                {
                                    "internalType": "uint256",
                                    "name": "blockNumber",
                                    "type": "uint256"
                                },
                                {
                                    "internalType": "uint256",
                                    "name": "timestamp",
                                    "type": "uint256"
                                }
                            ],
                            "internalType": "struct DepositoryTypes.BlockchainState",
                            "name": "lockState",
                            "type": "tuple"
                        },
                        {
                            "internalType": "bytes",
                            "name": "solution",
                            "type": "bytes"
                        }
                    ],
                    "internalType": "struct DepositoryTypes.UnlockRequest[]",
                    "name": "requests",
                    "type": "tuple[]"
                }
            ],
            "name": "unlockBatch",
            "outputs": [],
            "stateMutability": "nonpayable",
            "type": "function"
        },
        {
            "inputs": [
                {
                    "internalType": "address",
                    "name": "",
                    "type": "address"
                }
            ],
            "name": "unlockers",
            "outputs": [
                {
                    "internalType": "bool",
                    "name": "",
                    "type": "bool"
                }
            ],
            "stateMutability": "view",
            "type": "function"
        },
        {
            "inputs": [
                {
                    "internalType": "address",
                    "name": "newImplementation",
                    "type": "address"
                },
                {
                    "internalType": "bytes",
                    "name": "data",
                    "type": "bytes"
                }
            ],
            "name": "upgradeToAndCall",
            "outputs": [],
            "stateMutability": "payable",
            "type": "function"
        }
    ],
    "bytecode": "0x60a06040523461003257610011610036565b6040516121f86101ef82396080518181816118b70152611aa701526121f890f35b5f80fd5b61003e610048565b610046610112565b565b61004661004661004661004661008e565b61006d90610070906001600160a01b031682565b90565b6001600160a01b031690565b61006d90610059565b61006d9061007c565b61009730610085565b608052565b61006d9060401c60ff1690565b61006d905461009c565b61006d905b6001600160401b031690565b61006d90546100b3565b61006d906100b8906001600160401b031682565b906100f261006d61010e926100ce565b82546001600160401b0319166001600160401b03919091161790565b9055565b5f61011b6101a8565b01610125816100a9565b61019757610132816100c4565b6001600160401b0391908290811603610149575050565b816101787fc7f505b2f371ae2175ee4913f4499e1f2633a7b5936321eed1cdaeb6115181d293610192936100e2565b604051918291826001600160401b03909116815260200190565b0390a1565b63f92ee8a960e01b5f908152600490fd5b61006d6101e6565b61006d61006d61006d9290565b61006d7ff0c57e16840df040f15088dc2f81fe391c3923bec73e23a9662efc9c229c6a006101b0565b61006d6101bd56fe60806040526004361015610011575f80fd5b5f3560e01c8063172b09f9146101305780633d4dff7b1461012b5780634f1ef2861461012657806352d1902d14610121578063715018a61461011c57806377b0173e1461011757806379ba5097146101125780638da5cb5b1461010d5780638dd1480214610108578063ad3cb1cc14610103578063c4d66de8146100fe578063d3fff0f6146100f9578063d8248741146100f4578063db33467b146100ef578063e30c3978146100ea578063e78cea92146100e5578063f2fde38b146100e05763ffece883036101565761076c565b61071e565b610703565b6106e8565b6106cc565b61065f565b6105d7565b610587565b610560565b61049b565b610466565b61044e565b610435565b6103c3565b610398565b610375565b610246565b6101ed565b6001600160a01b031690565b90565b6001600160a01b0381165b0361015657565b5f80fd5b9050359061016782610144565b565b90602082820312610156576101419161015a565b610135610141610141926001600160a01b031690565b6101419061017d565b61014190610193565b906101af9061019c565b5f5260205260405f2090565b610141916008021c5b60ff1690565b9061014191546101bb565b5f6101e46101419260016101a5565b6101ca565b9052565b346101565761021b610208610203366004610169565b6101d5565b6040515b91829182901515815260200190565b0390f35b8061014f565b905035906101678261021f565b906020828203126101565761014191610225565b346101565761021b61020861025c366004610232565b61079e565b7f4e487b71000000000000000000000000000000000000000000000000000000005f52604160045260245ffd5b90601f01601f1916810190811067ffffffffffffffff8211176102b057604052565b610261565b906101676102c260405190565b928361028e565b67ffffffffffffffff81116102b057602090601f01601f19160190565b0190565b90825f939282370152565b9092919261030a610305826102c9565b6102b5565b9381855281830111610156576101679160208501906102ea565b9080601f8301121561015657816020610141933591016102f5565b91909160408184031261015657610356838261015a565b92602082013567ffffffffffffffff8111610156576101419201610324565b61038961038336600461033f565b906107d8565b604051005b5f91031261015657565b34610156576103a836600461038e565b61021b6103b3610832565b6040519182918290815260200190565b34610156576103d336600461038e565b610389610872565b909182601f830112156101565781359167ffffffffffffffff831161015657602001926020830284011161015657565b9060208282031261015657813567ffffffffffffffff81116101565761043192016103db565b9091565b346101565761038961044836600461040b565b90610ec3565b346101565761045e36600461038e565b610389610ecd565b346101565761047636600461038e565b61021b610481610f38565b604051918291826001600160a01b03909116815260200190565b34610156576103896104ae366004610169565b610fe4565b906104c0610305836102c9565b918252565b6104cf60056104b3565b7f352e302e30000000000000000000000000000000000000000000000000000000602082015290565b6101416104c5565b6101416104f8565b610141610500565b90825f9392825e0152565b61053c6105456020936102e693610530815190565b80835293849260200190565b95869101610510565b601f01601f191690565b60208082526101419291019061051b565b346101565761057036600461038e565b61021b61057b610508565b6040519182918261054f565b346101565761038961059a366004610169565b611215565b80151561014f565b905035906101678261059f565b9190604083820312610156576101419060206105d0828661015a565b94016105a7565b34610156576103896105ea3660046105b4565b90611296565b908160a09103126101565790565b908160609103126101565790565b908160409103126101565790565b9091610100828403126101565761063183836105f0565b9260a08301359067ffffffffffffffff82116101565760c0610658826101419487016105fe565b940161060c565b346101565761021b6103b361067536600461061a565b916112a0565b610120818303126101565761069082826105f0565b9260a082013567ffffffffffffffff8111610156576106b4846101419285016105fe565b936101006106c58260c0870161060c565b940161015a565b34610156576103896106df36600461067b565b92919091611477565b34610156576106f836600461038e565b61021b610481611483565b346101565761071336600461038e565b61021b6104816114ad565b3461015657610389610731366004610169565b611537565b91909160c0818403126101565761074d83826105f0565b9260a082013567ffffffffffffffff81116101565761014192016105fe565b346101565761038961077f366004610736565b906118a2565b906101af565b610141906101c4565b610141905461078b565b6107b3610141916107ac5f90565b505f610785565b610794565b90610167916107c56118ac565b90610167916107d381611951565b61197b565b90610167916107b8565b610141906107ee611a91565b610829565b6101416101416101419290565b6101417f360894a13ba1a3210667c828492db98dca3e2076cc3735a920a3ca505d382bbc6107f3565b50610141610800565b6101415f6107e2565b610843611ad3565b610167610861565b6101356101416101419290565b6101419061084b565b61016761086d5f610858565b611b2c565b61016761083b565b61014190610135565b610141905461087a565b1561089457565b7f5c17929c000000000000000000000000000000000000000000000000000000005f90815260045b035ffd5b90610167916108e46108dd6101356108d86002610883565b61019c565b331461088d565b906108f6916108f1611b9a565b610cb4565b610167611c10565b7f4e487b71000000000000000000000000000000000000000000000000000000005f52603260045260245ffd5b9035907ffffffffffffffffffffffffffffffffffffffffffffffffffffffffffffffee13682900301821215610156570190565b90821015610976576020610141920281019061092b565b6108fe565b9035907fffffffffffffffffffffffffffffffffffffffffffffffffffffffffffffffa13682900301821215610156570190565b61014f8161087a565b90503590610167826109af565b506101419060208101906109b8565b6101e99061019c565b50610141906020810190610225565b5061014190602081019061015a565b906080610a7261016793610a1b610a145f8301836109c5565b85906109d4565b610a32610a2b60208301836109dd565b6020860152565b610a52610a4260408301836109ec565b6001600160a01b03166040860152565b610a69610a6260608301836109dd565b6060860152565b828101906109dd565b910152565b9035601e19368390030181121561015657016020813591019167ffffffffffffffff82116101565736829003831361015657565b919061054581610ac2816102e69560209181520190565b80956102ea565b610141916060810191610b0e90610aea610ae382806109c5565b84906109d4565b610b04610afa60208301836109c5565b60208501906109d4565b6040810190610a77565b916040818503910152610aab565b906020610a7261016793610a69610b355f8301836109dd565b8552565b939290610b6560c09161016794610b586101008901925f8a01906109fb565b87820360a0890152610ac9565b940190610b1c565b15610b755750565b7f02ae88ad000000000000000000000000000000000000000000000000000000005f908152600491909152602490fd5b91906008610bbe910291610bb960ff841b90565b921b90565b9181191691161790565b9190610bd9610141610be193151590565b908354610ba5565b9055565b610167915f91610bc8565b35610141816109af565b903590601e193682900301821215610156570180359067ffffffffffffffff8211610156576020019136829003831361015657565b356101418161021f565b610c65610c5a6040936101679698979560608501918583035f870152610aab565b9660208301906109d4565b0152565b9160609361016796989795610c90610c6594610c9e9460808801918883035f8a0152610aab565b918583036020870152610aab565b9660408301906109d4565b6040513d5f823e3d90fd5b610cbd5f6107f3565b82811015610ebe57610cd081848461095f565b9060a0820182610ce0828261097b565b60c0850190610cee60405190565b9182916020830191610d01918684610b39565b908103825203610d11908261028e565b805190602001209182610d24815f610785565b610d2d90610794565b90610d3791610b6d565b610d41835f610785565b5f610d4b91610be5565b610d55818661097b565b602001610d6190610bf0565b610d6a9061019c565b90610100860190610d7b8288610bfa565b959085610d8781610bf0565b9060200197610d9589610c2f565b9392610da08861019c565b94610daa60405190565b938493610db79385610c39565b037f5ddce0700a1a8691f425337a0d17990cc84e1e8d6d4b148b8ad8ae1a41f11f1791a3610de484610bf0565b83610dee87610c2f565b90610df892611c9f565b610e02908761097b565b60408101610e0f91610bfa565b91610e1a9197610bfa565b969093610e2690610bf0565b94610e3090610c2f565b90833b1561015657610e7c5f96928793610e4960405190565b9a8b98899788967fb8c621d700000000000000000000000000000000000000000000000000000000885260048801610c69565b03925af1918215610eb957610e9792610e9c575b5060010190565b610cbd565b610eb3905f610eab818361028e565b81019061038e565b5f610e90565b610ca9565b505050565b90610167916108c0565b33610ed6611483565b610ef16001600160a01b0383165b916001600160a01b031690565b03610eff5761016790611b2c565b7f118cdaa7000000000000000000000000000000000000000000000000000000005f9081526001600160a01b039091166004526024035ffd5b6101415f7f9016d09d72d40fdae2fd8ceac6b6234c7706214fd39c1cd1e609a0528c1993005b01610883565b61016790610f70611ad3565b610f9b565b906001600160a01b0390610bbe565b90610f94610141610be19261019c565b8254610f75565b610fb2906108d8610fab8261019c565b6002610f84565b7fa49730bff544fd0b716395c592e39c6fd2d2481a19b9229b5b240483db95a495610fdc60405190565b80805b0390a2565b61016790610f64565b6101419060401c6101c4565b6101419054610fed565b610141905b67ffffffffffffffff1690565b6101419054611003565b6110086101416101419290565b9067ffffffffffffffff90610bbe565b6110086101416101419267ffffffffffffffff1690565b90611063610141610be19261103c565b825461102c565b9068ff00000000000000009060401b610bbe565b9061108e610141610be192151590565b825461106a565b6101e99061101f565b6020810192916101679190611095565b6110b6611ce7565b806110d06110ca6110c683610ff9565b1590565b91611015565b926110da5f61101f565b67ffffffffffffffff851614806111f5575b6001946111096110fb8761101f565b9167ffffffffffffffff1690565b1490816111cd575b155b90816111c4575b5061119a57611143908261113a5f6111318861101f565b96019586611053565b61118b576111fc565b61114b575050565b7fc7f505b2f371ae2175ee4913f4499e1f2633a7b5936321eed1cdaeb6115181d29161117a5f6111869361107e565b6040519182918261109e565b0390a1565b611195858561107e565b6111fc565b7ff92ee8a9000000000000000000000000000000000000000000000000000000005f908152600490fd5b1590505f61111a565b90506111136111db3061019c565b3b6111ec6111e85f6107f3565b9190565b14919050611111565b50816110ec565b61120590611d04565b61120d611d15565b610167611d30565b610167906110ae565b906101679161122b611ad3565b611250565b9060ff90610bbe565b90611249610141610be192151590565b8254611230565b610fdf61128c7f60209f49f531418079ff149eb1d71f100566dcaba03bf5a34930e08111df20c4926108d8856112878360016101a5565b611239565b9261020c60405190565b906101679161121e565b61014192916112cf916112c36112b560405190565b948593602085019384610b39565b9081038252038261028e565b6112e16112da825190565b9160200190565b2090565b906108f69392916112f4611b9a565b61137b565b1561130057565b7fc3f236db000000000000000000000000000000000000000000000000000000005f908152600490fd5b1561133157565b7f9c8d2cd2000000000000000000000000000000000000000000000000000000005f908152600490fd5b60608082525f9082015290929161016791604090610c6560808201610c5a565b9161146b6113d96112c36112cf6114719461016798966113a76113a26107b33360016101a5565b6112f9565b6113c76113b66101355f610858565b6001600160a01b038a16141561132a565b60405193849260208401928b84610b39565b936113f0856113eb6107b3825f610785565b610b6d565b6114035f6113fe8782610785565b610be5565b80602061140f82610bf0565b9101957f5ddce0700a1a8691f425337a0d17990cc84e1e8d6d4b148b8ad8ae1a41f11f1761144361143f89610c2f565b9290565b9161144d8861019c565b9361146361145a60405190565b9283928361135b565b0390a3610bf0565b92610c2f565b91611c9f565b906101679392916112e5565b6101415f7f237e158222e3e6968b72b9db0d8043aacf074ad9f650f0d1606b4d82ee432c00610f5e565b6101416108d86002610883565b610167906114c6611ad3565b6114f3815f7f237e158222e3e6968b72b9db0d8043aacf074ad9f650f0d1606b4d82ee432c005b01610f84565b6115076115016108d8610f38565b9161019c565b907f38d16b8cac22d99fc7c124b9cd0de2d3fa1faef420bfe791d8c362d765e2270061153260405190565b5f90a3565b610167906114ba565b906108f69161154d611b9a565b611710565b9081526040810192916101679160200152565b1561156e575050565b7f6f08ee6e000000000000000000000000000000000000000000000000000000005f908152916108bc916004611552565b156115a657565b7ffe9ba5cd000000000000000000000000000000000000000000000000000000005f908152600490fd5b3561014181610144565b156115e157565b7f9be803a2000000000000000000000000000000000000000000000000000000005f908152600490fd5b15611614575050565b7f6d6c55e8000000000000000000000000000000000000000000000000000000005f908152916108bc916004611552565b1561164c57565b7f027585ad000000000000000000000000000000000000000000000000000000005f908152600490fd5b1561167d57565b7fa46df864000000000000000000000000000000000000000000000000000000005f908152600490fd5b9392906116c660c09161016794610b586101008901925f8a01906109fb565b94019080518252602090810151910152565b156116e05750565b7f93b45bbf000000000000000000000000000000000000000000000000000000005f908152600491909152602490fd5b906118875f6101679361173f6060820161173861172f61014183610c2f565b42111591610c2f565b4291611565565b602081019361176261175086610c2f565b61175c6111e8866107f3565b1161159f565b611787611771604084016115d0565b611780610ee461013587610858565b14156115da565b6117aa608083016117a261179a82610c2f565b461491610c2f565b90469061160b565b6117ce6117bb6108d8858401610bf0565b3b6117c86111e8866107f3565b11611645565b6117f36117e06108d860208401610bf0565b3b6117ed6111e8866107f3565b11611676565b7f8b4cbc791dddb376fb89eba475c41896f97673ece5db78a30bb2340d2772cb4561181c611d5e565b61186761183f61182b60405190565b6112cf81602081016112c3878a8c846116a7565b611858816118536110c66107b3838c610785565b6116d8565b6101416001611287838a610785565b9261187e61187460405190565b92839287846116a7565b0390a201610bf0565b9061189a6118943061019c565b91610c2f565b913390611d9f565b9061016791611540565b6118b53061019c565b7f0000000000000000000000000000000000000000000000000000000000000000906118e96001600160a01b038316610ee4565b14908115611923575b506118f957565b7fe07c8dba000000000000000000000000000000000000000000000000000000005f908152600490fd5b9050611940610ee4611933611dd5565b926001600160a01b031690565b14155f6118f2565b50610167611ad3565b61016790611948565b905051906101678261021f565b90602082820312610156576101419161195a565b906119886108d88361019c565b90602061199460405190565b7f52d1902d00000000000000000000000000000000000000000000000000000000815292839060049082905afa5f9281611a60575b50611a1257505060016119d95750565b7f4c9c8ce3000000000000000000000000000000000000000000000000000000005f9081526001600160a01b039091166004526024035ffd5b909291611a20610141610800565b8403611a3157610167929350611de4565b7faa1d49a4000000000000000000000000000000000000000000000000000000005f9081526004859052602490fd5b611a8391935060203d602011611a8a575b611a7b818361028e565b810190611967565b915f6119c9565b503d611a71565b611a9a3061019c565b611acc6001600160a01b037f000000000000000000000000000000000000000000000000000000000000000016610ee4565b036118f957565b611adb610f38565b3390611ae682610ee4565b03610eff5750565b91906008610bbe910291610bb96001600160a01b03841b90565b9190611b19610141610be19361019c565b908354611aee565b610167915f91611b08565b61016790611b5a5f7f237e158222e3e6968b72b9db0d8043aacf074ad9f650f0d1606b4d82ee432c00611b21565b611e4e565b6101419081565b6101419054611b5f565b61014160026107f3565b905f1990610bbe565b90611b93610141610be1926107f3565b8254611b7a565b7f9b779b17422d0df92223018b32b4d1fa46e071723d6817e2486d003becc55f00611bc481611b66565b611bcc611b70565b908114611bdc5761016791611b83565b7f3ee5aeb5000000000000000000000000000000000000000000000000000000005f908152600490fd5b61014160016107f3565b6101677f9b779b17422d0df92223018b32b4d1fa46e071723d6817e2486d003becc55f005f611c3d611c06565b9101611b83565b611c5d611c576101419263ffffffff1690565b60e01b90565b7fffffffff000000000000000000000000000000000000000000000000000000001690565b6001600160a01b0390911681526040810192916101679160200152565b611ce2600492611cd361016795611cb963a9059cbb611c44565b92611cc360405190565b9687946020860190815201611c82565b6020820181038252038361028e565b611eb3565b610141611f85565b61016790611cfb611f8d565b61016790612039565b61016790611cef565b610167611f8d565b610167611d0d565b611d25611f8d565b61016761016761204a565b610167611d1d565b61014160406102b5565b611d4a611d38565b905f82525f6020830152565b610141611d42565b611d66611d56565b9061016782611d73438252565b602042910152565b6001600160a01b039182168152911660208201526060810192916101679160400152565b90611ce290611cd361016795600495611dbb6323b872dd611c44565b93611dc560405190565b9788956020870190815201611d7b565b6101415f610f5e610141610800565b90611dee82612052565b611df78261019c565b7fbc7cd75a20ee27fd9adebab32041f755214dbc6bffa90cc0225b39da2e5c2d3b611e2160405190565b5f90a28051611e326111e85f6107f3565b1115611e4457611e41916120ce565b50565b5050610167612075565b611e886115017f9016d09d72d40fdae2fd8ceac6b6234c7706214fd39c1cd1e609a0528c1993006108d884611e8283610883565b92610f84565b907f8be0079c531659141344cd1fd0a4f28419497f9722a3daafe3b4186f6b6457e061153260405190565b905f602091611ebf5f90565b50828151910182855af115610ca9573d5f5190611ede6111e85f6107f3565b03611f485750611eed8161019c565b3b611efa6111e85f6107f3565b145b611f035750565b6108bc611f105f9261019c565b7f5274afe70000000000000000000000000000000000000000000000000000000083526001600160a01b031660048301526024820190565b611f556111e860016107f3565b1415611efc565b6101417ff0c57e16840df040f15088dc2f81fe391c3923bec73e23a9662efc9c229c6a006107f3565b610141611f5c565b611f986110c66120f4565b611f9e57565b7fd7e6bcf8000000000000000000000000000000000000000000000000000000005f908152600490fd5b61016790611fd4611f8d565b611fdd5f610858565b6001600160a01b0381166001600160a01b03831614612000575061016790611b2c565b7f1e4fbdf7000000000000000000000000000000000000000000000000000000005f9081526001600160a01b039091166004526024035ffd5b61016790611fc8565b6108f6611f8d565b610167612042565b803b6120606111e85f6107f3565b146119d957610167905f6114ed610141610800565b61207e5f6107f3565b341161208657565b7fb398979f000000000000000000000000000000000000000000000000000000005f908152600490fd5b3d156120c9576120bf3d6104b3565b903d5f602084013e565b606090565b5f80610141936120dc606090565b50602081519101845af46120ee6120b0565b91612106565b6101415f612100611ce7565b01610ff9565b90612111575061217c565b815161211f6111e85f6107f3565b1480612167575b61212e575090565b7f9996b315000000000000000000000000000000000000000000000000000000005f9081526001600160a01b039091166004526024035ffd5b50803b6121766111e85f6107f3565b14612126565b805161218a6111e85f6107f3565b111561219857805190602001fd5b7fd6bda275000000000000000000000000000000000000000000000000000000005f908152600490fdfea2646970667358221220c25d7a533083728d9b9eecd212384b0506b1f7897341b208364f584cdef3c92264736f6c634300081c0033",
    "linkReferences": {},
    "deployedLinkReferences": {},
    "immutableReferences": {
        "619": [
            {
                "length": 32,
                "start": 6327
            },
            {
                "length": 32,
                "start": 6823
            }
        ]
    },
    "inputSourceName": "project/contracts/v3/DepositorySrc.sol",
    "buildInfoId": "solc-0_8_28-0d81914b03758795f335e41e3229da84972a82a8"
}