{
    "_format": "hh3-artifact-1",
    "contractName": "DepositorySrc",
    "sourceName": "contracts/v3/DepositorySrc.sol",
    "abi": [
        {
            "inputs": [],
            "stateMutability": "nonpayable",
            "type": "constructor"
        },
        {
            "inputs": [
                {
                    "internalType": "address",
                    "name": "target",
                    "type": "address"
                }
            ],
            "name": "AddressEmptyCode",
            "type": "error"
        },
        {
            "inputs": [],
            "name": "BridgeNotSet",
            "type": "error"
        },
        {
            "inputs": [
                {
                    "internalType": "address",
                    "name": "implementation",
                    "type": "address"
                }
            ],
            "name": "ERC1967InvalidImplementation",
            "type": "error"
        },
        {
            "inputs": [],
            "name": "ERC1967NonPayable",
            "type": "error"
        },
        {
            "inputs": [],
            "name": "FailedCall",
            "type": "error"
        },
        {
            "inputs": [
                {
                    "internalType": "IntentID",
                    "name": "intentId",
                    "type": "bytes32"
                }
            ],
            "name": "IntentAlreadyLocked",
            "type": "error"
        },
        {
            "inputs": [
                {
                    "internalType": "uint256",
                    "name": "quoteTTL",
                    "type": "uint256"
                },
                {
                    "internalType": "uint256",
                    "name": "currentTime",
                    "type": "uint256"
                }
            ],
            "name": "IntentExpired",
            "type": "error"
        },
        {
            "inputs": [
                {
                    "internalType": "IntentID",
                    "name": "intentId",
                    "type": "bytes32"
                }
            ],
            "name": "IntentNotLocked",
            "type": "error"
        },
        {
            "inputs": [],
            "name": "InvalidDepositAmount",
            "type": "error"
        },
        {
            "inputs": [],
            "name": "InvalidDepositor",
            "type": "error"
        },
        {
            "inputs": [],
            "name": "InvalidFillUnlocker",
            "type": "error"
        },
        {
            "inputs": [],
            "name": "InvalidInitialization",
            "type": "error"
        },
        {
            "inputs": [],
            "name": "InvalidRecipient",
            "type": "error"
        },
        {
            "inputs": [],
            "name": "InvalidSettlementUnlocker",
            "type": "error"
        },
        {
            "inputs": [
                {
                    "internalType": "uint256",
                    "name": "expected",
                    "type": "uint256"
                },
                {
                    "internalType": "uint256",
                    "name": "actual",
                    "type": "uint256"
                }
            ],
            "name": "NativeAmountMismatch",
            "type": "error"
        },
        {
            "inputs": [],
            "name": "NativeTransferFailed",
            "type": "error"
        },
        {
            "inputs": [],
            "name": "NotInitializing",
            "type": "error"
        },
        {
            "inputs": [
                {
                    "internalType": "address",
                    "name": "owner",
                    "type": "address"
                }
            ],
            "name": "OwnableInvalidOwner",
            "type": "error"
        },
        {
            "inputs": [
                {
                    "internalType": "address",
                    "name": "account",
                    "type": "address"
                }
            ],
            "name": "OwnableUnauthorizedAccount",
            "type": "error"
        },
        {
            "inputs": [],
            "name": "ReentrancyGuardReentrantCall",
            "type": "error"
        },
        {
            "inputs": [
                {
                    "internalType": "address",
                    "name": "token",
                    "type": "address"
                }
            ],
            "name": "SafeERC20FailedOperation",
            "type": "error"
        },
        {
            "inputs": [],
            "name": "UUPSUnauthorizedCallContext",
            "type": "error"
        },
        {
            "inputs": [
                {
                    "internalType": "bytes32",
                    "name": "slot",
                    "type": "bytes32"
                }
            ],
            "name": "UUPSUnsupportedProxiableUUID",
            "type": "error"
        },
        {
            "inputs": [],
            "name": "UnauthorizedBridge",
            "type": "error"
        },
        {
            "inputs": [],
            "name": "UnauthorizedUnlocker",
            "type": "error"
        },
        {
            "inputs": [],
            "name": "UnexpectedNativeValue",
            "type": "error"
        },
        {
            "inputs": [
                {
                    "internalType": "uint256",
                    "name": "expected",
                    "type": "uint256"
                },
                {
                    "internalType": "uint256",
                    "name": "actual",
                    "type": "uint256"
                }
            ],
            "name": "WrongSrcChain",
            "type": "error"
        },
        {
            "anonymous": false,
            "inputs": [
                {
                    "indexed": true,
                    "internalType": "address",
                    "name": "bridge",
                    "type": "address"
                }
            ],
            "name": "BridgeSet",
            "type": "event"
        },
        {
            "anonymous": false,
            "inputs": [
                {
                    "indexed": false,
                    "internalType": "uint64",
                    "name": "version",
                    "type": "uint64"
                }
            ],
            "name": "Initialized",
            "type": "event"
        },
        {
            "anonymous": false,
            "inputs": [
                {
                    "indexed": true,
                    "internalType": "IntentID",
                    "name": "intentId",
                    "type": "bytes32"
                },
                {
                    "components": [
                        {
                            "internalType": "contract IERC20",
                            "name": "token",
                            "type": "address"
                        },
                        {
                            "internalType": "uint256",
                            "name": "amount",
                            "type": "uint256"
                        },
                        {
                            "internalType": "address",
                            "name": "depositor",
                            "type": "address"
                        },
                        {
                            "internalType": "uint256",
                            "name": "quoteTTL",
                            "type": "uint256"
                        },
                        {
                            "internalType": "uint256",
                            "name": "srcChainId",
                            "type": "uint256"
                        }
                    ],
                    "indexed": false,
                    "internalType": "struct DepositoryTypes.DepositParams",
                    "name": "depositParams",
                    "type": "tuple"
                },
                {
                    "components": [
                        {
                            "internalType": "contract IFillUnlocker",
                            "name": "fillUnlocker",
                            "type": "address"
                        },
                        {
                            "internalType": "contract ISettlementUnlocker",
                            "name": "settlementUnlocker",
                            "type": "address"
                        },
                        {
                            "internalType": "bytes",
                            "name": "condition",
                            "type": "bytes"
                        }
                    ],
                    "indexed": false,
                    "internalType": "struct DepositoryTypes.FillCondition",
                    "name": "fillCondition",
                    "type": "tuple"
                },
                {
                    "components": [
                        {
                            "internalType": "uint256",
                            "name": "blockNumber",
                            "type": "uint256"
                        },
                        {
                            "internalType": "uint256",
                            "name": "timestamp",
                            "type": "uint256"
                        }
                    ],
                    "indexed": false,
                    "internalType": "struct DepositoryTypes.BlockchainState",
                    "name": "lockState",
                    "type": "tuple"
                }
            ],
            "name": "IntentLocked",
            "type": "event"
        },
        {
            "anonymous": false,
            "inputs": [
                {
                    "indexed": true,
                    "internalType": "IntentID",
                    "name": "intentId",
                    "type": "bytes32"
                },
                {
                    "indexed": true,
                    "internalType": "address",
                    "name": "settlementUnlocker",
                    "type": "address"
                },
                {
                    "indexed": false,
                    "internalType": "bytes",
                    "name": "solution",
                    "type": "bytes"
                },
                {
                    "indexed": false,
                    "internalType": "contract IERC20",
                    "name": "token",
                    "type": "address"
                },
                {
                    "indexed": false,
                    "internalType": "uint256",
                    "name": "amount",
                    "type": "uint256"
                }
            ],
            "name": "IntentUnlocked",
            "type": "event"
        },
        {
            "anonymous": false,
            "inputs": [
                {
                    "indexed": true,
                    "internalType": "address",
                    "name": "previousOwner",
                    "type": "address"
                },
                {
                    "indexed": true,
                    "internalType": "address",
                    "name": "newOwner",
                    "type": "address"
                }
            ],
            "name": "OwnershipTransferStarted",
            "type": "event"
        },
        {
            "anonymous": false,
            "inputs": [
                {
                    "indexed": true,
                    "internalType": "address",
                    "name": "previousOwner",
                    "type": "address"
                },
                {
                    "indexed": true,
                    "internalType": "address",
                    "name": "newOwner",
                    "type": "address"
                }
            ],
            "name": "OwnershipTransferred",
            "type": "event"
        },
        {
            "anonymous": false,
            "inputs": [
                {
                    "indexed": true,
                    "internalType": "address",
                    "name": "unlocker",
                    "type": "address"
                },
                {
                    "indexed": false,
                    "internalType": "bool",
                    "name": "enabled",
                    "type": "bool"
                }
            ],
            "name": "UnlockerSet",
            "type": "event"
        },
        {
            "anonymous": false,
            "inputs": [
                {
                    "indexed": true,
                    "internalType": "address",
                    "name": "implementation",
                    "type": "address"
                }
            ],
            "name": "Upgraded",
            "type": "event"
        },
        {
            "inputs": [],
            "name": "UPGRADE_INTERFACE_VERSION",
            "outputs": [
                {
                    "internalType": "string",
                    "name": "",
                    "type": "string"
                }
            ],
            "stateMutability": "view",
            "type": "function"
        },
        {
            "inputs": [],
            "name": "acceptOwnership",
            "outputs": [],
            "stateMutability": "nonpayable",
            "type": "function"
        },
        {
            "inputs": [],
            "name": "bridge",
            "outputs": [
                {
                    "internalType": "address",
                    "name": "",
                    "type": "address"
                }
            ],
            "stateMutability": "view",
            "type": "function"
        },
        {
            "inputs": [
                {
                    "components": [
                        {
                            "internalType": "contract IERC20",
                            "name": "token",
                            "type": "address"
                        },
                        {
                            "internalType": "uint256",
                            "name": "amount",
                            "type": "uint256"
                        },
                        {
                            "internalType": "address",
                            "name": "depositor",
                            "type": "address"
                        },
                        {
                            "internalType": "uint256",
                            "name": "quoteTTL",
                            "type": "uint256"
                        },
                        {
                            "internalType": "uint256",
                            "name": "srcChainId",
                            "type": "uint256"
                        }
                    ],
                    "internalType": "struct DepositoryTypes.DepositParams",
                    "name": "depositParams",
                    "type": "tuple"
                },
                {
                    "components": [
                        {
                            "internalType": "contract IFillUnlocker",
                            "name": "fillUnlocker",
                            "type": "address"
                        },
                        {
                            "internalType": "contract ISettlementUnlocker",
                            "name": "settlementUnlocker",
                            "type": "address"
                        },
                        {
                            "internalType": "bytes",
                            "name": "condition",
                            "type": "bytes"
                        }
                    ],
                    "internalType": "struct DepositoryTypes.FillCondition",
                    "name": "fillCondition",
                    "type": "tuple"
                }
            ],
            "name": "deposit",
            "outputs": [],
            "stateMutability": "payable",
            "type": "function"
        },
        {
            "inputs": [
                {
                    "internalType": "IntentID",
                    "name": "intentId",
                    "type": "bytes32"
                }
            ],
            "name": "deposits",
            "outputs": [
                {
                    "internalType": "bool",
                    "name": "",
                    "type": "bool"
                }
            ],
            "stateMutability": "view",
            "type": "function"
        },
        {
            "inputs": [
                {
                    "internalType": "address",
                    "name": "owner_",
                    "type": "address"
                }
            ],
            "name": "initialize",
            "outputs": [],
            "stateMutability": "nonpayable",
            "type": "function"
        },
        {
            "inputs": [
                {
                    "components": [
                        {
                            "internalType": "contract IERC20",
                            "name": "token",
                            "type": "address"
                        },
                        {
                            "internalType": "uint256",
                            "name": "amount",
                            "type": "uint256"
                        },
                        {
                            "internalType": "address",
                            "name": "depositor",
                            "type": "address"
                        },
                        {
                            "internalType": "uint256",
                            "name": "quoteTTL",
                            "type": "uint256"
                        },
                        {
                            "internalType": "uint256",
                            "name": "srcChainId",
                            "type": "uint256"
                        }
                    ],
                    "internalType": "struct DepositoryTypes.DepositParams",
                    "name": "depositParams",
                    "type": "tuple"
                },
                {
                    "components": [
                        {
                            "internalType": "contract IFillUnlocker",
                            "name": "fillUnlocker",
                            "type": "address"
                        },
                        {
                            "internalType": "contract ISettlementUnlocker",
                            "name": "settlementUnlocker",
                            "type": "address"
                        },
                        {
                            "internalType": "bytes",
                            "name": "condition",
                            "type": "bytes"
                        }
                    ],
                    "internalType": "struct DepositoryTypes.FillCondition",
                    "name": "fillCondition",
                    "type": "tuple"
                },
                {
                    "components": [
                        {
                            "internalType": "uint256",
                            "name": "blockNumber",
                            "type": "uint256"
                        },
                        {
                            "internalType": "uint256",
                            "name": "timestamp",
                            "type": "uint256"
                        }
                    ],
                    "internalType": "struct DepositoryTypes.BlockchainState",
                    "name": "lockState",
                    "type": "tuple"
                }
            ],
            "name": "intentID",
            "outputs": [
                {
                    "internalType": "IntentID",
                    "name": "",
                    "type": "bytes32"
                }
            ],
            "stateMutability": "pure",
            "type": "function"
        },
        {
            "inputs": [],
            "name": "owner",
            "outputs": [
                {
                    "internalType": "address",
                    "name": "",
                    "type": "address"
                }
            ],
            "stateMutability": "view",
            "type": "function"
        },
        {
            "inputs": [],
            "name": "pendingOwner",
            "outputs": [
                {
                    "internalType": "address",
                    "name": "",
                    "type": "address"
                }
            ],
            "stateMutability": "view",
            "type": "function"
        },
        {
            "inputs": [],
            "name": "proxiableUUID",
            "outputs": [
                {
                    "internalType": "bytes32",
                    "name": "",
                    "type": "bytes32"
                }
            ],
            "stateMutability": "view",
            "type": "function"
        },
        {
            "inputs": [],
            "name": "renounceOwnership",
            "outputs": [],
            "stateMutability": "nonpayable",
            "type": "function"
        },
        {
            "inputs": [
                {
                    "internalType": "address",
                    "name": "bridge_",
                    "type": "address"
                }
            ],
            "name": "setBridge",
            "outputs": [],
            "stateMutability": "nonpayable",
            "type": "function"
        },
        {
            "inputs": [
                {
                    "internalType": "address",
                    "name": "unlocker",
                    "type": "address"
                },
                {
                    "internalType": "bool",
                    "name": "enabled",
                    "type": "bool"
                }
            ],
            "name": "setUnlocker",
            "outputs": [],
            "stateMutability": "nonpayable",
            "type": "function"
        },
        {
            "inputs": [
                {
                    "internalType": "address",
                    "name": "newOwner",
                    "type": "address"
                }
            ],
            "name": "transferOwnership",
            "outputs": [],
            "stateMutability": "nonpayable",
            "type": "function"
        },
        {
            "inputs": [
                {
                    "components": [
                        {
                            "internalType": "contract IERC20",
                            "name": "token",
                            "type": "address"
                        },
                        {
                            "internalType": "uint256",
                            "name": "amount",
                            "type": "uint256"
                        },
                        {
                            "internalType": "address",
                            "name": "depositor",
                            "type": "address"
                        },
                        {
                            "internalType": "uint256",
                            "name": "quoteTTL",
                            "type": "uint256"
                        },
                        {
                            "internalType": "uint256",
                            "name": "srcChainId",
                            "type": "uint256"
                        }
                    ],
                    "internalType": "struct DepositoryTypes.DepositParams",
                    "name": "depositParams",
                    "type": "tuple"
                },
                {
                    "components": [
                        {
                            "internalType": "contract IFillUnlocker",
                            "name": "fillUnlocker",
                            "type": "address"
                        },
                        {
                            "internalType": "contract ISettlementUnlocker",
                            "name": "settlementUnlocker",
                            "type": "address"
                        },
                        {
                            "internalType": "bytes",
                            "name": "condition",
                            "type": "bytes"
                        }
                    ],
                    "internalType": "struct DepositoryTypes.FillCondition",
                    "name": "fillCondition",
                    "type": "tuple"
                },
                {
                    "components": [
                        {
                            "internalType": "uint256",
                            "name": "blockNumber",
                            "type": "uint256"
                        },
                        {
                            "internalType": "uint256",
                            "name": "timestamp",
                            "type": "uint256"
                        }
                    ],
                    "internalType": "struct DepositoryTypes.BlockchainState",
                    "name": "lockState",
                    "type": "tuple"
                },
                {
                    "internalType": "address",
                    "name": "to",
                    "type": "address"
                }
            ],
            "name": "unlock",
            "outputs": [],
            "stateMutability": "nonpayable",
            "type": "function"
        },
        {
            "inputs": [
                {
                    "components": [
                        {
                            "components": [
                                {
                                    "internalType": "contract IERC20",
                                    "name": "token",
                                    "type": "address"
                                },
                                {
                                    "internalType": "uint256",
                                    "name": "amount",
                                    "type": "uint256"
                                },
                                {
                                    "internalType": "address",
                                    "name": "depositor",
                                    "type": "address"
                                },
                                {
                                    "internalType": "uint256",
                                    "name": "quoteTTL",
                                    "type": "uint256"
                                },
                                {
                                    "internalType": "uint256",
                                    "name": "srcChainId",
                                    "type": "uint256"
                                }
                            ],
                            "internalType": "struct DepositoryTypes.DepositParams",
                            "name": "depositParams",
                            "type": "tuple"
                        },
                        {
                            "components": [
                                {
                                    "internalType": "contract IFillUnlocker",
                                    "name": "fillUnlocker",
                                    "type": "address"
                                },
                                {
                                    "internalType": "contract ISettlementUnlocker",
                                    "name": "settlementUnlocker",
                                    "type": "address"
                                },
                                {
                                    "internalType": "bytes",
                                    "name": "condition",
                                    "type": "bytes"
                                }
                            ],
                            "internalType": "struct DepositoryTypes.FillCondition",
                            "name": "fillCondition",
                            "type": "tuple"
                        },
                        {
                            "components": [
                                {
                                    "internalType": "uint256",
                                    "name": "blockNumber",
                                    "type": "uint256"
                                },
                                {
                                    "internalType": "uint256",
                                    "name": "timestamp",
                                    "type": "uint256"
                                }
                            ],
                            "internalType": "struct DepositoryTypes.BlockchainState",
                            "name": "lockState",
                            "type": "tuple"
                        },
                        {
                            "internalType": "bytes",
                            "name": "solution",
                            "type": "bytes"
                        }
                    ],
                    "internalType": "struct DepositoryTypes.UnlockRequest[]",
                    "name": "requests",
                    "type": "tuple[]"
                }
            ],
            "name": "unlockBatch",
            "outputs": [],
            "stateMutability": "nonpayable",
            "type": "function"
        },
        {
            "inputs": [
                {
                    "internalType": "address",
                    "name": "",
                    "type": "address"
                }
            ],
            "name": "unlockers",
            "outputs": [
                {
                    "internalType": "bool",
                    "name": "",
                    "type": "bool"
                }
            ],
            "stateMutability": "view",
            "type": "function"
        },
        {
            "inputs": [
                {
                    "internalType": "address",
                    "name": "newImplementation",
                    "type": "address"
                },
                {
                    "internalType": "bytes",
                    "name": "data",
                    "type": "bytes"
                }
            ],
            "name": "upgradeToAndCall",
            "outputs": [],
            "stateMutability": "payable",
            "type": "function"
        },
        {
            "stateMutability": "payable",
            "type": "receive"
        }
    ],
    "bytecode": "0x60a06040523461003257610011610036565b6040516123bf6101ef8239608051818181611a9c0152611c8c01526123bf90f35b5f80fd5b61003e610048565b610046610112565b565b61004661004661004661004661008e565b61006d90610070906001600160a01b031682565b90565b6001600160a01b031690565b61006d90610059565b61006d9061007c565b61009730610085565b608052565b61006d9060401c60ff1690565b61006d905461009c565b61006d905b6001600160401b031690565b61006d90546100b3565b61006d906100b8906001600160401b031682565b906100f261006d61010e926100ce565b82546001600160401b0319166001600160401b03919091161790565b9055565b5f61011b6101a8565b01610125816100a9565b61019757610132816100c4565b6001600160401b0391908290811603610149575050565b816101787fc7f505b2f371ae2175ee4913f4499e1f2633a7b5936321eed1cdaeb6115181d293610192936100e2565b604051918291826001600160401b03909116815260200190565b0390a1565b63f92ee8a960e01b5f908152600490fd5b61006d6101e6565b61006d61006d61006d9290565b61006d7ff0c57e16840df040f15088dc2f81fe391c3923bec73e23a9662efc9c229c6a006101b0565b61006d6101bd56fe6080604052600436101561001a575b3615610018575f80fd5b005b5f3560e01c8063172b09f9146101395780633d4dff7b146101345780634f1ef2861461012f57806352d1902d1461012a578063715018a61461012557806377b0173e1461012057806379ba50971461011b5780638da5cb5b146101165780638dd1480214610111578063ad3cb1cc1461010c578063c4d66de814610107578063d3fff0f614610102578063d8248741146100fd578063db33467b146100f8578063e30c3978146100f3578063e78cea92146100ee578063f2fde38b146100e95763ffece8830361000e57610775565b610727565b61070c565b6106f1565b6106d5565b610668565b6105e0565b610590565b610569565b6104a4565b61046f565b610457565b61043e565b6103cc565b6103a1565b61037e565b61024f565b6101f6565b6001600160a01b031690565b90565b6001600160a01b0381165b0361015f57565b5f80fd5b905035906101708261014d565b565b9060208282031261015f5761014a91610163565b61013e61014a61014a926001600160a01b031690565b61014a90610186565b61014a9061019c565b906101b8906101a5565b5f5260205260405f2090565b61014a916008021c5b60ff1690565b9061014a91546101c4565b5f6101ed61014a9260016101ae565b6101d3565b9052565b3461015f5761022461021161020c366004610172565b6101de565b6040515b91829182901515815260200190565b0390f35b80610158565b9050359061017082610228565b9060208282031261015f5761014a9161022e565b3461015f5761022461021161026536600461023b565b6107a2565b7f4e487b71000000000000000000000000000000000000000000000000000000005f52604160045260245ffd5b90601f01601f1916810190811067ffffffffffffffff8211176102b957604052565b61026a565b906101706102cb60405190565b9283610297565b67ffffffffffffffff81116102b957602090601f01601f19160190565b0190565b90825f939282370152565b9092919261031361030e826102d2565b6102be565b938185528183011161015f576101709160208501906102f3565b9080601f8301121561015f5781602061014a933591016102fe565b91909160408184031261015f5761035f8382610163565b92602082013567ffffffffffffffff811161015f5761014a920161032d565b61039261038c366004610348565b906107dc565b604051005b5f91031261015f57565b3461015f576103b1366004610397565b6102246103bc610836565b6040519182918290815260200190565b3461015f576103dc366004610397565b610392610876565b909182601f8301121561015f5781359167ffffffffffffffff831161015f57602001926020830284011161015f57565b9060208282031261015f57813567ffffffffffffffff811161015f5761043a92016103e4565b9091565b3461015f57610392610451366004610414565b90610f6d565b3461015f57610467366004610397565b610392610f77565b3461015f5761047f366004610397565b61022461048a610fd9565b604051918291826001600160a01b03909116815260200190565b3461015f576103926104b7366004610172565b611085565b906104c961030e836102d2565b918252565b6104d860056104bc565b7f352e302e30000000000000000000000000000000000000000000000000000000602082015290565b61014a6104ce565b61014a610501565b61014a610509565b90825f9392825e0152565b61054561054e6020936102ef93610539815190565b80835293849260200190565b95869101610519565b601f01601f191690565b602080825261014a92910190610524565b3461015f57610579366004610397565b610224610584610511565b60405191829182610558565b3461015f576103926105a3366004610172565b6112b6565b801515610158565b90503590610170826105a8565b919060408382031261015f5761014a9060206105d98286610163565b94016105b0565b3461015f576103926105f33660046105bd565b90611337565b908160a091031261015f5790565b9081606091031261015f5790565b9081604091031261015f5790565b90916101008284031261015f5761063a83836105f9565b9260a08301359067ffffffffffffffff821161015f5760c06106618261014a948701610607565b9401610615565b3461015f576102246103bc61067e366004610623565b91611341565b6101208183031261015f5761069982826105f9565b9260a082013567ffffffffffffffff811161015f576106bd8461014a928501610607565b936101006106ce8260c08701610615565b9401610163565b3461015f576103926106e8366004610684565b9291909161158c565b3461015f57610701366004610397565b61022461048a611598565b3461015f5761071c366004610397565b61022461048a6115c2565b3461015f5761039261073a366004610172565b61164c565b91909160c08184031261015f5761075683826105f9565b9260a082013567ffffffffffffffff811161015f5761014a9201610607565b61039261078336600461073f565b90611a87565b906101b8565b61014a906101cd565b61014a905461078f565b6107b761014a916107b05f90565b505f610789565b610798565b90610170916107c9611a91565b90610170916107d781611b36565b611b60565b90610170916107bc565b61014a906107f2611c76565b61082d565b61014a61014a61014a9290565b61014a7f360894a13ba1a3210667c828492db98dca3e2076cc3735a920a3ca505d382bbc6107f7565b5061014a610804565b61014a5f6107e6565b610847611cb8565b610170610865565b61013e61014a61014a9290565b61014a9061084f565b6101706108715f61085c565b611d11565b61017061083f565b61014a9061013e565b61014a905461087e565b1561089857565b7f5c17929c000000000000000000000000000000000000000000000000000000005f90815260045b035ffd5b90610170916108e86108e161013e6108dc6002610887565b6101a5565b3314610891565b906108fa916108f5611d7f565b610cb8565b610170611df5565b7f4e487b71000000000000000000000000000000000000000000000000000000005f52603260045260245ffd5b9035907ffffffffffffffffffffffffffffffffffffffffffffffffffffffffffffffee1368290030182121561015f570190565b9082101561097a57602061014a920281019061092f565b610902565b9035907fffffffffffffffffffffffffffffffffffffffffffffffffffffffffffffffa1368290030182121561015f570190565b6101588161087e565b90503590610170826109b3565b5061014a9060208101906109bc565b6101f2906101a5565b5061014a90602081019061022e565b5061014a906020810190610163565b906080610a7661017093610a1f610a185f8301836109c9565b85906109d8565b610a36610a2f60208301836109e1565b6020860152565b610a56610a4660408301836109f0565b6001600160a01b03166040860152565b610a6d610a6660608301836109e1565b6060860152565b828101906109e1565b910152565b9035601e19368390030181121561015f57016020813591019167ffffffffffffffff821161015f5736829003831361015f57565b919061054e81610ac6816102ef9560209181520190565b80956102f3565b61014a916060810191610b1290610aee610ae782806109c9565b84906109d8565b610b08610afe60208301836109c9565b60208501906109d8565b6040810190610a7b565b916040818503910152610aaf565b906020610a7661017093610a6d610b395f8301836109e1565b8552565b939290610b6960c09161017094610b5c6101008901925f8a01906109ff565b87820360a0890152610acd565b940190610b20565b15610b795750565b7f02ae88ad000000000000000000000000000000000000000000000000000000005f908152600491909152602490fd5b91906008610bc2910291610bbd60ff841b90565b921b90565b9181191691161790565b9190610bdd61014a610be593151590565b908354610ba9565b9055565b610170915f91610bcc565b3561014a816109b3565b903590601e19368290030182121561015f570180359067ffffffffffffffff821161015f576020019136829003831361015f57565b3561014a81610228565b610c69610c5e6040936101709698979560608501918583035f870152610aaf565b9660208301906109d8565b0152565b9160609361017096989795610c94610c6994610ca29460808801918883035f8a0152610aaf565b918583036020870152610aaf565b9660408301906109d8565b6040513d5f823e3d90fd5b610cc15f6107f7565b82811015610f6857610cd4818484610963565b9060a0820182610d2c610d0a610d16610ced858561097f565b60c0850190610cfb60405190565b93849260208401928b84610b3d565b90810382520382610297565b610d28610d21825190565b9160200190565b2090565b91610d4383610d3e6107b7825f610789565b610b71565b610d565f610d518582610789565b610be9565b610d6e6108dc6020610d68848661097f565b01610bf4565b90610100830195610d7f8785610bfe565b909582917f5ddce0700a1a8691f425337a0d17990cc84e1e8d6d4b148b8ad8ae1a41f11f17906020610db085610bf4565b940198610de3610dc6610dc28c610c33565b9590565b94610dd08a6101a5565b96610dda60405190565b94859485610c3d565b0390a3610df26108dc82610bf4565b610e1873eeeeeeeeeeeeeeeeeeeeeeeeeeeeeeeeeeeeeeee5b916001600160a01b031690565b03610ed85790610e5e9163b8c621d790610e64610e56610e4e610e44610e3d8b610c33565b968a61097f565b6040810190610bfe565b9b9098610bfe565b959092610bf4565b97610c33565b853b1561015f575f97610e8b95610e9693610e7e60405190565b9c8d9a8b998a9860e01b90565b885260048801610c6d565b03925af1918215610ed357610eb192610eb6575b5060010190565b610cc1565b610ecd905f610ec58183610297565b810190610397565b5f610eaa565b610cad565b92610f22610f14610f0c610e44610f1c9a95610f06610ef68a610bf4565b89610f008d610c33565b91611e84565b8561097f565b949093610bfe565b989095610bf4565b95610c33565b90833b1561015f57610e965f96928793610f3b60405190565b9a8b98899788967fb8c621d700000000000000000000000000000000000000000000000000000000610e8b565b505050565b90610170916108c4565b33610f80611598565b610f926001600160a01b038316610e0b565b03610fa05761017090611d11565b7f118cdaa7000000000000000000000000000000000000000000000000000000005f9081526001600160a01b039091166004526024035ffd5b61014a5f7f9016d09d72d40fdae2fd8ceac6b6234c7706214fd39c1cd1e609a0528c1993005b01610887565b61017090611011611cb8565b61103c565b906001600160a01b0390610bc2565b9061103561014a610be5926101a5565b8254611016565b611053906108dc61104c826101a5565b6002611025565b7fa49730bff544fd0b716395c592e39c6fd2d2481a19b9229b5b240483db95a49561107d60405190565b80805b0390a2565b61017090611005565b61014a9060401c6101cd565b61014a905461108e565b61014a905b67ffffffffffffffff1690565b61014a90546110a4565b6110a961014a61014a9290565b9067ffffffffffffffff90610bc2565b6110a961014a61014a9267ffffffffffffffff1690565b9061110461014a610be5926110dd565b82546110cd565b9068ff00000000000000009060401b610bc2565b9061112f61014a610be592151590565b825461110b565b6101f2906110c0565b6020810192916101709190611136565b611157611ecc565b8061117161116b6111678361109a565b1590565b916110b6565b9261117b5f6110c0565b67ffffffffffffffff85161480611296575b6001946111aa61119c876110c0565b9167ffffffffffffffff1690565b14908161126e575b155b9081611265575b5061123b576111e490826111db5f6111d2886110c0565b960195866110f4565b61122c5761129d565b6111ec575050565b7fc7f505b2f371ae2175ee4913f4499e1f2633a7b5936321eed1cdaeb6115181d29161121b5f6112279361111f565b6040519182918261113f565b0390a1565b611236858561111f565b61129d565b7ff92ee8a9000000000000000000000000000000000000000000000000000000005f908152600490fd5b1590505f6111bb565b90506111b461127c306101a5565b3b61128d6112895f6107f7565b9190565b149190506111b2565b508161118d565b6112a690611ee9565b6112ae611efa565b610170611f15565b6101709061114f565b90610170916112cc611cb8565b6112f1565b9060ff90610bc2565b906112ea61014a610be592151590565b82546112d1565b61108061132d7f60209f49f531418079ff149eb1d71f100566dcaba03bf5a34930e08111df20c4926108dc856113288360016101ae565b6112da565b9261021560405190565b90610170916112bf565b61014a9291610d1691610d0a61135660405190565b948593602085019384610b3d565b906108fa939291611373611d7f565b611449565b1561137f57565b7fc3f236db000000000000000000000000000000000000000000000000000000005f908152600490fd5b156113b057565b7f9c8d2cd2000000000000000000000000000000000000000000000000000000005f908152600490fd5b60608082525f9082015290929161017091604090610c6960808201610c5e565b3d15611413576114093d6104bc565b903d5f602084013e565b606090565b1561141f57565b7ff4b3b1bc000000000000000000000000000000000000000000000000000000005f908152600490fd5b91610d16610d0a9161149d9361146b6114666107b73360016101ae565b611378565b61148b61147a61013e5f61085c565b6001600160a01b03891614156113a9565b60405193849260208401928884610b3d565b906114af82610d3e6107b7825f610789565b6114bd5f610d518482610789565b8060206114c982610bf4565b9101927f5ddce0700a1a8691f425337a0d17990cc84e1e8d6d4b148b8ad8ae1a41f11f176114fd6114f986610c33565b9290565b91611507876101a5565b9361151d61151460405190565b928392836113da565b0390a361152c6108dc82610bf4565b61154973eeeeeeeeeeeeeeeeeeeeeeeeeeeeeeeeeeeeeeee610e0b565b0361157657505f6101709261155e8293610c33565b60405190818003925af16115706113fa565b50611418565b91610f0061158661017094610bf4565b92610c33565b90610170939291611364565b61014a5f7f237e158222e3e6968b72b9db0d8043aacf074ad9f650f0d1606b4d82ee432c00610fff565b61014a6108dc6002610887565b610170906115db611cb8565b611608815f7f237e158222e3e6968b72b9db0d8043aacf074ad9f650f0d1606b4d82ee432c005b01611025565b61161c6116166108dc610fd9565b916101a5565b907f38d16b8cac22d99fc7c124b9cd0de2d3fa1faef420bfe791d8c362d765e2270061164760405190565b5f90a3565b610170906115cf565b906108fa91611662611d7f565b611890565b9081526040810192916101709160200152565b15611683575050565b7f6f08ee6e000000000000000000000000000000000000000000000000000000005f908152916108c0916004611667565b156116bb57565b7ffe9ba5cd000000000000000000000000000000000000000000000000000000005f908152600490fd5b3561014a8161014d565b156116f657565b7f9be803a2000000000000000000000000000000000000000000000000000000005f908152600490fd5b15611729575050565b7f6d6c55e8000000000000000000000000000000000000000000000000000000005f908152916108c0916004611667565b1561176157565b7f027585ad000000000000000000000000000000000000000000000000000000005f908152600490fd5b1561179257565b7fa46df864000000000000000000000000000000000000000000000000000000005f908152600490fd5b9392906117db60c09161017094610b5c6101008901925f8a01906109ff565b94019080518252602090810151910152565b156117f55750565b7f93b45bbf000000000000000000000000000000000000000000000000000000005f908152600491909152602490fd5b1561182c57565b7fe0aeda7d000000000000000000000000000000000000000000000000000000005f908152600490fd5b1561185f575050565b7f7e957b11000000000000000000000000000000000000000000000000000000005f908152916108c0916004611667565b5f906118b8606082016118b16118a861014a83610c33565b42111591610c33565b429161167a565b60208101926118db6118c985610c33565b6118d5611289866107f7565b116116b4565b6119006118ea604084016116e5565b6118f9610e0b61013e8761085c565b14156116ef565b6119256080830161191d61191382610c33565b46905b1491610c33565b904690611720565b6119496119366108dc858401610bf4565b3b611943611289866107f7565b1161175a565b61196e61195b6108dc60208401610bf4565b3b611968611289866107f7565b1161178b565b7f8b4cbc791dddb376fb89eba475c41896f97673ece5db78a30bb2340d2772cb45611997611f43565b6119e26119ba6119a660405190565b610d168160208101610d0a878a8c846117bc565b6119d3816119ce6111676107b7838c610789565b6117ed565b61014a6001611328838a610789565b926119f96119ef60405190565b92839287846117bc565b0390a20190611a0a6108dc83610bf4565b611a2773eeeeeeeeeeeeeeeeeeeeeeeeeeeeeeeeeeeeeeee610e0b565b03611a4d576101709150611a46611a4061014a83610c33565b34611916565b3491611856565b611a6c61017092611a67611a605f6107f7565b3414611825565b610bf4565b90611a7f611a79306101a5565b91610c33565b913390611f84565b9061017091611655565b611a9a306101a5565b7f000000000000000000000000000000000000000000000000000000000000000090611ace6001600160a01b038316610e0b565b14908115611b08575b50611ade57565b7fe07c8dba000000000000000000000000000000000000000000000000000000005f908152600490fd5b9050611b25610e0b611b18611fba565b926001600160a01b031690565b14155f611ad7565b50610170611cb8565b61017090611b2d565b9050519061017082610228565b9060208282031261015f5761014a91611b3f565b90611b6d6108dc836101a5565b906020611b7960405190565b7f52d1902d00000000000000000000000000000000000000000000000000000000815292839060049082905afa5f9281611c45575b50611bf75750506001611bbe5750565b7f4c9c8ce3000000000000000000000000000000000000000000000000000000005f9081526001600160a01b039091166004526024035ffd5b909291611c0561014a610804565b8403611c1657610170929350611fc9565b7faa1d49a4000000000000000000000000000000000000000000000000000000005f9081526004859052602490fd5b611c6891935060203d602011611c6f575b611c608183610297565b810190611b4c565b915f611bae565b503d611c56565b611c7f306101a5565b611cb16001600160a01b037f000000000000000000000000000000000000000000000000000000000000000016610e0b565b03611ade57565b611cc0610fd9565b3390611ccb82610e0b565b03610fa05750565b91906008610bc2910291610bbd6001600160a01b03841b90565b9190611cfe61014a610be5936101a5565b908354611cd3565b610170915f91611ced565b61017090611d3f5f7f237e158222e3e6968b72b9db0d8043aacf074ad9f650f0d1606b4d82ee432c00611d06565b612033565b61014a9081565b61014a9054611d44565b61014a60026107f7565b905f1990610bc2565b90611d7861014a610be5926107f7565b8254611d5f565b7f9b779b17422d0df92223018b32b4d1fa46e071723d6817e2486d003becc55f00611da981611d4b565b611db1611d55565b908114611dc15761017091611d68565b7f3ee5aeb5000000000000000000000000000000000000000000000000000000005f908152600490fd5b61014a60016107f7565b6101707f9b779b17422d0df92223018b32b4d1fa46e071723d6817e2486d003becc55f005f611e22611deb565b9101611d68565b611e42611e3c61014a9263ffffffff1690565b60e01b90565b7fffffffff000000000000000000000000000000000000000000000000000000001690565b6001600160a01b0390911681526040810192916101709160200152565b611ec7600492611eb861017095611e9e63a9059cbb611e29565b92611ea860405190565b9687946020860190815201611e67565b60208201810382520383610297565b612098565b61014a61216a565b61017090611ee0612172565b6101709061221e565b61017090611ed4565b610170612172565b610170611ef2565b611f0a612172565b61017061017061222f565b610170611f02565b61014a60406102be565b611f2f611f1d565b905f82525f6020830152565b61014a611f27565b611f4b611f3b565b9061017082611f58438252565b602042910152565b6001600160a01b039182168152911660208201526060810192916101709160400152565b90611ec790611eb861017095600495611fa06323b872dd611e29565b93611faa60405190565b9788956020870190815201611f60565b61014a5f610fff61014a610804565b90611fd382612237565b611fdc826101a5565b7fbc7cd75a20ee27fd9adebab32041f755214dbc6bffa90cc0225b39da2e5c2d3b61200660405190565b5f90a280516120176112895f6107f7565b11156120295761202691612295565b50565b505061017061225a565b61206d6116167f9016d09d72d40fdae2fd8ceac6b6234c7706214fd39c1cd1e609a0528c1993006108dc8461206783610887565b92611025565b907f8be0079c531659141344cd1fd0a4f28419497f9722a3daafe3b4186f6b6457e061164760405190565b905f6020916120a45f90565b50828151910182855af115610cad573d5f51906120c36112895f6107f7565b0361212d57506120d2816101a5565b3b6120df6112895f6107f7565b145b6120e85750565b6108c06120f55f926101a5565b7f5274afe70000000000000000000000000000000000000000000000000000000083526001600160a01b031660048301526024820190565b61213a61128960016107f7565b14156120e1565b61014a7ff0c57e16840df040f15088dc2f81fe391c3923bec73e23a9662efc9c229c6a006107f7565b61014a612141565b61217d6111676122bb565b61218357565b7fd7e6bcf8000000000000000000000000000000000000000000000000000000005f908152600490fd5b610170906121b9612172565b6121c25f61085c565b6001600160a01b0381166001600160a01b038316146121e5575061017090611d11565b7f1e4fbdf7000000000000000000000000000000000000000000000000000000005f9081526001600160a01b039091166004526024035ffd5b610170906121ad565b6108fa612172565b610170612227565b803b6122456112895f6107f7565b14611bbe57610170905f61160261014a610804565b6122635f6107f7565b341161226b57565b7fb398979f000000000000000000000000000000000000000000000000000000005f908152600490fd5b5f8061014a936122a3606090565b50602081519101845af46122b56113fa565b916122cd565b61014a5f6122c7611ecc565b0161109a565b906122d85750612343565b81516122e66112895f6107f7565b148061232e575b6122f5575090565b7f9996b315000000000000000000000000000000000000000000000000000000005f9081526001600160a01b039091166004526024035ffd5b50803b61233d6112895f6107f7565b146122ed565b80516123516112895f6107f7565b111561235f57805190602001fd5b7fd6bda275000000000000000000000000000000000000000000000000000000005f908152600490fdfea2646970667358221220e662e339834a0d5177f2af764b0b1ef5abb6a78b042c63ac99c920306fdce45264736f6c634300081c0033",
    "linkReferences": {},
    "deployedLinkReferences": {},
    "immutableReferences": {
        "619": [
            {
                "length": 32,
                "start": 6812
            },
            {
                "length": 32,
                "start": 7308
            }
        ]
    },
    "inputSourceName": "project/contracts/v3/DepositorySrc.sol",
    "buildInfoId": "solc-0_8_28-291c89ebb4465cb9610eea1beb733ded7272190f"
}