{
    "_format": "hh3-artifact-1",
    "contractName": "DepositoryDst",
    "sourceName": "contracts/v3/DepositoryDst.sol",
    "abi": [
        {
            "inputs": [],
            "stateMutability": "nonpayable",
            "type": "constructor"
        },
        {
            "inputs": [
                {
                    "internalType": "address",
                    "name": "target",
                    "type": "address"
                }
            ],
            "name": "AddressEmptyCode",
            "type": "error"
        },
        {
            "inputs": [],
            "name": "BridgeNotSet",
            "type": "error"
        },
        {
            "inputs": [
                {
                    "internalType": "address",
                    "name": "implementation",
                    "type": "address"
                }
            ],
            "name": "ERC1967InvalidImplementation",
            "type": "error"
        },
        {
            "inputs": [],
            "name": "ERC1967NonPayable",
            "type": "error"
        },
        {
            "inputs": [],
            "name": "FailedCall",
            "type": "error"
        },
        {
            "inputs": [
                {
                    "internalType": "uint256",
                    "name": "required",
                    "type": "uint256"
                },
                {
                    "internalType": "uint256",
                    "name": "provided",
                    "type": "uint256"
                }
            ],
            "name": "InsufficientRelayFee",
            "type": "error"
        },
        {
            "inputs": [
                {
                    "internalType": "IntentID",
                    "name": "intentId",
                    "type": "bytes32"
                }
            ],
            "name": "IntentAlreadyFilled",
            "type": "error"
        },
        {
            "inputs": [
                {
                    "internalType": "IntentID",
                    "name": "intentId",
                    "type": "bytes32"
                }
            ],
            "name": "IntentNotFilled",
            "type": "error"
        },
        {
            "inputs": [],
            "name": "InvalidFillUnlocker",
            "type": "error"
        },
        {
            "inputs": [],
            "name": "InvalidInitialization",
            "type": "error"
        },
        {
            "inputs": [
                {
                    "internalType": "IntentID",
                    "name": "intentId",
                    "type": "bytes32"
                }
            ],
            "name": "InvalidSolution",
            "type": "error"
        },
        {
            "inputs": [],
            "name": "NotInitializing",
            "type": "error"
        },
        {
            "inputs": [
                {
                    "internalType": "address",
                    "name": "owner",
                    "type": "address"
                }
            ],
            "name": "OwnableInvalidOwner",
            "type": "error"
        },
        {
            "inputs": [
                {
                    "internalType": "address",
                    "name": "account",
                    "type": "address"
                }
            ],
            "name": "OwnableUnauthorizedAccount",
            "type": "error"
        },
        {
            "inputs": [],
            "name": "ReentrancyGuardReentrantCall",
            "type": "error"
        },
        {
            "inputs": [],
            "name": "UUPSUnauthorizedCallContext",
            "type": "error"
        },
        {
            "inputs": [
                {
                    "internalType": "bytes32",
                    "name": "slot",
                    "type": "bytes32"
                }
            ],
            "name": "UUPSUnsupportedProxiableUUID",
            "type": "error"
        },
        {
            "anonymous": false,
            "inputs": [
                {
                    "indexed": true,
                    "internalType": "address",
                    "name": "bridge",
                    "type": "address"
                }
            ],
            "name": "BridgeSet",
            "type": "event"
        },
        {
            "anonymous": false,
            "inputs": [
                {
                    "indexed": false,
                    "internalType": "uint64",
                    "name": "version",
                    "type": "uint64"
                }
            ],
            "name": "Initialized",
            "type": "event"
        },
        {
            "anonymous": false,
            "inputs": [
                {
                    "indexed": true,
                    "internalType": "IntentID",
                    "name": "intentId",
                    "type": "bytes32"
                },
                {
                    "indexed": true,
                    "internalType": "address",
                    "name": "solver",
                    "type": "address"
                },
                {
                    "indexed": false,
                    "internalType": "bytes",
                    "name": "solution",
                    "type": "bytes"
                }
            ],
            "name": "IntentFilled",
            "type": "event"
        },
        {
            "anonymous": false,
            "inputs": [
                {
                    "indexed": true,
                    "internalType": "address",
                    "name": "previousOwner",
                    "type": "address"
                },
                {
                    "indexed": true,
                    "internalType": "address",
                    "name": "newOwner",
                    "type": "address"
                }
            ],
            "name": "OwnershipTransferStarted",
            "type": "event"
        },
        {
            "anonymous": false,
            "inputs": [
                {
                    "indexed": true,
                    "internalType": "address",
                    "name": "previousOwner",
                    "type": "address"
                },
                {
                    "indexed": true,
                    "internalType": "address",
                    "name": "newOwner",
                    "type": "address"
                }
            ],
            "name": "OwnershipTransferred",
            "type": "event"
        },
        {
            "anonymous": false,
            "inputs": [
                {
                    "indexed": false,
                    "internalType": "uint256",
                    "name": "oldFee",
                    "type": "uint256"
                },
                {
                    "indexed": false,
                    "internalType": "uint256",
                    "name": "newFee",
                    "type": "uint256"
                }
            ],
            "name": "RelayFeeSet",
            "type": "event"
        },
        {
            "anonymous": false,
            "inputs": [
                {
                    "indexed": true,
                    "internalType": "bytes32",
                    "name": "requestHash",
                    "type": "bytes32"
                },
                {
                    "indexed": true,
                    "internalType": "address",
                    "name": "solver",
                    "type": "address"
                },
                {
                    "indexed": false,
                    "internalType": "IntentID[]",
                    "name": "intentIds",
                    "type": "bytes32[]"
                },
                {
                    "indexed": false,
                    "internalType": "uint256",
                    "name": "srcChainId",
                    "type": "uint256"
                }
            ],
            "name": "SettleBatchRequested",
            "type": "event"
        },
        {
            "anonymous": false,
            "inputs": [
                {
                    "indexed": true,
                    "internalType": "address",
                    "name": "implementation",
                    "type": "address"
                }
            ],
            "name": "Upgraded",
            "type": "event"
        },
        {
            "inputs": [],
            "name": "UPGRADE_INTERFACE_VERSION",
            "outputs": [
                {
                    "internalType": "string",
                    "name": "",
                    "type": "string"
                }
            ],
            "stateMutability": "view",
            "type": "function"
        },
        {
            "inputs": [],
            "name": "acceptOwnership",
            "outputs": [],
            "stateMutability": "nonpayable",
            "type": "function"
        },
        {
            "inputs": [],
            "name": "bridge",
            "outputs": [
                {
                    "internalType": "address",
                    "name": "",
                    "type": "address"
                }
            ],
            "stateMutability": "view",
            "type": "function"
        },
        {
            "inputs": [
                {
                    "components": [
                        {
                            "internalType": "contract IERC20",
                            "name": "token",
                            "type": "address"
                        },
                        {
                            "internalType": "uint256",
                            "name": "amount",
                            "type": "uint256"
                        },
                        {
                            "internalType": "address",
                            "name": "depositor",
                            "type": "address"
                        },
                        {
                            "internalType": "uint256",
                            "name": "quoteTTL",
                            "type": "uint256"
                        },
                        {
                            "internalType": "uint256",
                            "name": "srcChainId",
                            "type": "uint256"
                        }
                    ],
                    "internalType": "struct DepositoryTypes.DepositParams",
                    "name": "depositParams",
                    "type": "tuple"
                },
                {
                    "components": [
                        {
                            "internalType": "contract IFillUnlocker",
                            "name": "fillUnlocker",
                            "type": "address"
                        },
                        {
                            "internalType": "contract ISettlementUnlocker",
                            "name": "settlementUnlocker",
                            "type": "address"
                        },
                        {
                            "internalType": "bytes",
                            "name": "condition",
                            "type": "bytes"
                        }
                    ],
                    "internalType": "struct DepositoryTypes.FillCondition",
                    "name": "fillCondition",
                    "type": "tuple"
                },
                {
                    "components": [
                        {
                            "internalType": "uint256",
                            "name": "blockNumber",
                            "type": "uint256"
                        },
                        {
                            "internalType": "uint256",
                            "name": "timestamp",
                            "type": "uint256"
                        }
                    ],
                    "internalType": "struct DepositoryTypes.BlockchainState",
                    "name": "lockState",
                    "type": "tuple"
                },
                {
                    "internalType": "bytes",
                    "name": "solution",
                    "type": "bytes"
                }
            ],
            "name": "fill",
            "outputs": [],
            "stateMutability": "payable",
            "type": "function"
        },
        {
            "inputs": [
                {
                    "internalType": "IntentID",
                    "name": "intentId",
                    "type": "bytes32"
                }
            ],
            "name": "fills",
            "outputs": [
                {
                    "internalType": "bytes32",
                    "name": "",
                    "type": "bytes32"
                }
            ],
            "stateMutability": "view",
            "type": "function"
        },
        {
            "inputs": [
                {
                    "internalType": "address",
                    "name": "owner_",
                    "type": "address"
                }
            ],
            "name": "initialize",
            "outputs": [],
            "stateMutability": "nonpayable",
            "type": "function"
        },
        {
            "inputs": [
                {
                    "components": [
                        {
                            "internalType": "contract IERC20",
                            "name": "token",
                            "type": "address"
                        },
                        {
                            "internalType": "uint256",
                            "name": "amount",
                            "type": "uint256"
                        },
                        {
                            "internalType": "address",
                            "name": "depositor",
                            "type": "address"
                        },
                        {
                            "internalType": "uint256",
                            "name": "quoteTTL",
                            "type": "uint256"
                        },
                        {
                            "internalType": "uint256",
                            "name": "srcChainId",
                            "type": "uint256"
                        }
                    ],
                    "internalType": "struct DepositoryTypes.DepositParams",
                    "name": "depositParams",
                    "type": "tuple"
                },
                {
                    "components": [
                        {
                            "internalType": "contract IFillUnlocker",
                            "name": "fillUnlocker",
                            "type": "address"
                        },
                        {
                            "internalType": "contract ISettlementUnlocker",
                            "name": "settlementUnlocker",
                            "type": "address"
                        },
                        {
                            "internalType": "bytes",
                            "name": "condition",
                            "type": "bytes"
                        }
                    ],
                    "internalType": "struct DepositoryTypes.FillCondition",
                    "name": "fillCondition",
                    "type": "tuple"
                },
                {
                    "components": [
                        {
                            "internalType": "uint256",
                            "name": "blockNumber",
                            "type": "uint256"
                        },
                        {
                            "internalType": "uint256",
                            "name": "timestamp",
                            "type": "uint256"
                        }
                    ],
                    "internalType": "struct DepositoryTypes.BlockchainState",
                    "name": "lockState",
                    "type": "tuple"
                }
            ],
            "name": "intentID",
            "outputs": [
                {
                    "internalType": "IntentID",
                    "name": "",
                    "type": "bytes32"
                }
            ],
            "stateMutability": "pure",
            "type": "function"
        },
        {
            "inputs": [],
            "name": "owner",
            "outputs": [
                {
                    "internalType": "address",
                    "name": "",
                    "type": "address"
                }
            ],
            "stateMutability": "view",
            "type": "function"
        },
        {
            "inputs": [],
            "name": "pendingOwner",
            "outputs": [
                {
                    "internalType": "address",
                    "name": "",
                    "type": "address"
                }
            ],
            "stateMutability": "view",
            "type": "function"
        },
        {
            "inputs": [],
            "name": "proxiableUUID",
            "outputs": [
                {
                    "internalType": "bytes32",
                    "name": "",
                    "type": "bytes32"
                }
            ],
            "stateMutability": "view",
            "type": "function"
        },
        {
            "inputs": [],
            "name": "relayFee",
            "outputs": [
                {
                    "internalType": "uint256",
                    "name": "",
                    "type": "uint256"
                }
            ],
            "stateMutability": "view",
            "type": "function"
        },
        {
            "inputs": [],
            "name": "renounceOwnership",
            "outputs": [],
            "stateMutability": "nonpayable",
            "type": "function"
        },
        {
            "inputs": [
                {
                    "internalType": "address",
                    "name": "bridge_",
                    "type": "address"
                }
            ],
            "name": "setBridge",
            "outputs": [],
            "stateMutability": "nonpayable",
            "type": "function"
        },
        {
            "inputs": [
                {
                    "internalType": "uint256",
                    "name": "fee",
                    "type": "uint256"
                }
            ],
            "name": "setRelayFee",
            "outputs": [],
            "stateMutability": "nonpayable",
            "type": "function"
        },
        {
            "inputs": [
                {
                    "components": [
                        {
                            "components": [
                                {
                                    "internalType": "contract IERC20",
                                    "name": "token",
                                    "type": "address"
                                },
                                {
                                    "internalType": "uint256",
                                    "name": "amount",
                                    "type": "uint256"
                                },
                                {
                                    "internalType": "address",
                                    "name": "depositor",
                                    "type": "address"
                                },
                                {
                                    "internalType": "uint256",
                                    "name": "quoteTTL",
                                    "type": "uint256"
                                },
                                {
                                    "internalType": "uint256",
                                    "name": "srcChainId",
                                    "type": "uint256"
                                }
                            ],
                            "internalType": "struct DepositoryTypes.DepositParams",
                            "name": "depositParams",
                            "type": "tuple"
                        },
                        {
                            "components": [
                                {
                                    "internalType": "contract IFillUnlocker",
                                    "name": "fillUnlocker",
                                    "type": "address"
                                },
                                {
                                    "internalType": "contract ISettlementUnlocker",
                                    "name": "settlementUnlocker",
                                    "type": "address"
                                },
                                {
                                    "internalType": "bytes",
                                    "name": "condition",
                                    "type": "bytes"
                                }
                            ],
                            "internalType": "struct DepositoryTypes.FillCondition",
                            "name": "fillCondition",
                            "type": "tuple"
                        },
                        {
                            "components": [
                                {
                                    "internalType": "uint256",
                                    "name": "blockNumber",
                                    "type": "uint256"
                                },
                                {
                                    "internalType": "uint256",
                                    "name": "timestamp",
                                    "type": "uint256"
                                }
                            ],
                            "internalType": "struct DepositoryTypes.BlockchainState",
                            "name": "lockState",
                            "type": "tuple"
                        },
                        {
                            "internalType": "bytes",
                            "name": "solution",
                            "type": "bytes"
                        }
                    ],
                    "internalType": "struct DepositoryTypes.UnlockRequest[]",
                    "name": "items",
                    "type": "tuple[]"
                },
                {
                    "internalType": "uint256",
                    "name": "srcChainId",
                    "type": "uint256"
                },
                {
                    "internalType": "address",
                    "name": "srcDepository",
                    "type": "address"
                },
                {
                    "internalType": "address",
                    "name": "oppositeBridge",
                    "type": "address"
                }
            ],
            "name": "settleBatch",
            "outputs": [],
            "stateMutability": "payable",
            "type": "function"
        },
        {
            "inputs": [
                {
                    "internalType": "address",
                    "name": "newOwner",
                    "type": "address"
                }
            ],
            "name": "transferOwnership",
            "outputs": [],
            "stateMutability": "nonpayable",
            "type": "function"
        },
        {
            "inputs": [
                {
                    "internalType": "address",
                    "name": "newImplementation",
                    "type": "address"
                },
                {
                    "internalType": "bytes",
                    "name": "data",
                    "type": "bytes"
                }
            ],
            "name": "upgradeToAndCall",
            "outputs": [],
            "stateMutability": "payable",
            "type": "function"
        },
        {
            "inputs": [
                {
                    "internalType": "address",
                    "name": "to",
                    "type": "address"
                },
                {
                    "internalType": "uint256",
                    "name": "amount",
                    "type": "uint256"
                }
            ],
            "name": "withdrawRelayFee",
            "outputs": [],
            "stateMutability": "nonpayable",
            "type": "function"
        },
        {
            "stateMutability": "payable",
            "type": "receive"
        }
    ],
    "bytecode": "0x60a06040523461003257610011610036565b604051611f806101ef823960805181818161184c0152611a3c0152611f8090f35b5f80fd5b61003e610048565b610046610112565b565b61004661004661004661004661008e565b61006d90610070906001600160a01b031682565b90565b6001600160a01b031690565b61006d90610059565b61006d9061007c565b61009730610085565b608052565b61006d9060401c60ff1690565b61006d905461009c565b61006d905b6001600160401b031690565b61006d90546100b3565b61006d906100b8906001600160401b031682565b906100f261006d61010e926100ce565b82546001600160401b0319166001600160401b03919091161790565b9055565b5f61011b6101a8565b01610125816100a9565b61019757610132816100c4565b6001600160401b0391908290811603610149575050565b816101787fc7f505b2f371ae2175ee4913f4499e1f2633a7b5936321eed1cdaeb6115181d293610192936100e2565b604051918291826001600160401b03909116815260200190565b0390a1565b63f92ee8a960e01b5f908152600490fd5b61006d6101e6565b61006d61006d61006d9290565b61006d7ff0c57e16840df040f15088dc2f81fe391c3923bec73e23a9662efc9c229c6a006101b0565b61006d6101bd56fe6080604052600436101561001a575b3615610018575f80fd5b005b5f3560e01c806320158c44146101395780634f1ef2861461013457806352d1902d1461012f57806353b1d9251461012a5780636b90397014610125578063715018a61461012057806371d308631461011b57806379ba5097146101165780638da5cb5b146101115780638dd148021461010c5780639838510914610107578063ac8baa3a14610102578063ad3cb1cc146100fd578063c4d66de8146100f8578063d8248741146100f3578063e30c3978146100ee578063e78cea92146100e95763f2fde38b0361000e57610735565b61071a565b6106ff565b6106e3565b610686565b61065f565b61059b565b610501565b6104e9565b6104a0565b610488565b61046d565b610434565b61041b565b6103e1565b610303565b6102e0565b610175565b805b0361014757565b5f80fd5b905035906101588261013e565b565b906020828203126101475761016e9161014b565b90565b9052565b34610147576101a061019061018b36600461015a565b61075e565b6040519182918290815260200190565b0390f35b6001600160a01b031690565b6001600160a01b038116610140565b90503590610158826101b0565b7f4e487b71000000000000000000000000000000000000000000000000000000005f52604160045260245ffd5b90601f01601f1916810190811067ffffffffffffffff82111761021b57604052565b6101cc565b9061015861022d60405190565b92836101f9565b67ffffffffffffffff811161021b57602090601f01601f19160190565b0190565b90825f939282370152565b9092919261027561027082610234565b610220565b938185528183011161014757610158916020850190610255565b9080601f830112156101475781602061016e93359101610260565b919091604081840312610147576102c183826101bf565b92602082013567ffffffffffffffff81116101475761016e920161028f565b6102f46102ee3660046102aa565b906107a0565b604051005b5f91031261014757565b34610147576103133660046102f9565b6101a06101906107fa565b908160a09103126101475790565b908160609103126101475790565b908160409103126101475790565b909182601f830112156101475781359167ffffffffffffffff831161014757602001926001830284011161014757565b90610120828203126101475761038e818361031e565b9260a083013567ffffffffffffffff811161014757826103af91850161032c565b926103bd8360c0830161033a565b9261010082013567ffffffffffffffff8111610147576103dd9201610348565b9091565b6102f46103ef366004610378565b93929092610c97565b91906040838203126101475761016e90602061041482866101bf565b940161014b565b34610147576102f461042e3660046103f8565b90610cdb565b34610147576104443660046102f9565b6102f4610d1c565b61016e916008021c81565b9061016e915461044c565b61016e5f6002610457565b346101475761047d3660046102f9565b6101a0610190610462565b34610147576104983660046102f9565b6102f4610d24565b34610147576104b03660046102f9565b6101a06104bb610d8f565b604051918291826001600160a01b03909116815260200190565b906020828203126101475761016e916101bf565b34610147576102f46104fc3660046104d5565b610e40565b34610147576102f461051436600461015a565b610ed0565b909182601f830112156101475781359167ffffffffffffffff831161014757602001926020830284011161014757565b9060808282031261014757813567ffffffffffffffff81116101475781610571918401610519565b92909361016e610584846020850161014b565b93606061059482604087016101bf565b94016101bf565b6102f46105a9366004610549565b939290926112b6565b906105bf61027083610234565b918252565b6105ce60056105b2565b7f352e302e30000000000000000000000000000000000000000000000000000000602082015290565b61016e6105c4565b61016e6105f7565b61016e6105ff565b90825f9392825e0152565b61063b6106446020936102519361062f815190565b80835293849260200190565b9586910161060f565b601f01601f191690565b602080825261016e9291019061061a565b346101475761066f3660046102f9565b6101a061067a610607565b6040519182918261064e565b34610147576102f46106993660046104d5565b61175e565b909161010082840312610147576106b5838361031e565b9260a08301359067ffffffffffffffff82116101475760c06106dc8261016e94870161032c565b940161033a565b34610147576101a06101906106f936600461069e565b91611767565b346101475761070f3660046102f9565b6101a06104bb61177c565b346101475761072a3660046102f9565b6101a06104bb6117a6565b34610147576102f46107483660046104d5565b611838565b61016e9081565b61016e905461074d565b61077b61016e9161076c5f90565b505f905f5260205260405f2090565b610754565b906101589161078d611841565b906101589161079b816118e6565b611910565b9061015891610780565b61016e906107b6611a26565b6107f1565b61016e61016e61016e9290565b61016e7f360894a13ba1a3210667c828492db98dca3e2076cc3735a920a3ca505d382bbc6107bb565b5061016e6107c8565b61016e5f6107aa565b9061081894939291610813611a72565b610b04565b610158611ae8565b3561016e816101b0565b6101a461016e61016e926001600160a01b031690565b61016e9061082a565b61016e90610840565b1561085957565b7f027585ad000000000000000000000000000000000000000000000000000000005f90815260045b035ffd5b5061016e9060208101906101bf565b61017190610849565b5061016e90602081019061014b565b906080610923610158936108cc6108c55f830183610885565b8590610894565b6108e36108dc602083018361089d565b6020860152565b6109036108f36040830183610885565b6001600160a01b03166040860152565b61091a610913606083018361089d565b6060860152565b8281019061089d565b910152565b9035601e19368390030181121561014757016020813591019167ffffffffffffffff82116101475736829003831361014757565b919061064481610973816102519560209181520190565b8095610255565b61016e9160608101916109bf9061099b6109948280610885565b8490610894565b6109b56109ab6020830183610885565b6020850190610894565b6040810190610928565b91604081850391015261095c565b9060206109236101589361091a6109e65f83018361089d565b8552565b939290610a1660c09161015894610a096101008901925f8a01906108ac565b87820360a089015261097a565b9401906109cd565b15610a265750565b7f758b4028000000000000000000000000000000000000000000000000000000005f908152600491909152602490fd5b61016e913691610260565b905f19905b9181191691161790565b90610a7e61016e610a859290565b8254610a61565b9055565b602080825261016e9391019161095c565b903590601e193682900301821215610147570180359067ffffffffffffffff8211610147576020019136829003831361014757565b9290610aeb9061016e959360408601918683035f88015261095c565b92602081850391015261095c565b6040513d5f823e3d90fd5b610b52610b5e610bd29394610b7493610b40610b29610b245f8a01610820565b610849565b3b610b3a610b365f6107bb565b9190565b11610852565b604051938492886020850193846109ea565b908103825203826101f9565b610b70610b69825190565b9160200190565b2090565b610ba281610b8d61077b825f905f5260205260405f2090565b610b9c610b3661016e5f6107bb565b14610a1e565b61016e610baf8686610a56565b610bba610b69825190565b20610bcd835f905f5260205260405f2090565b610a70565b610bdb33610849565b907f4f02007c5b383d0fb2923b90ac1cc973e61e27f22ce6b7f5c651faa9cdcf21ec610c0660405190565b80610c12888883610a89565b0390a3610c21610b2482610820565b610c34635b492b70926040810190610a9a565b949092823b1561014757610c68610c5d925f96610c5060405190565b9889978896879660e01b90565b865260048601610acf565b039134905af18015610c9257610c7b5750565b610158905f610c8a81836101f9565b8101906102f9565b610af9565b9061015894939291610803565b9061015891610cb1611b1c565b5f808093610cc2610b248395610849565b828215610cd2575bf115610c9257565b506108fc610cca565b9061015891610ca4565b610ced611b1c565b610158610d0b565b6101a461016e61016e9290565b61016e90610cf5565b610158610d175f610d02565b611b7a565b610158610ce5565b33610d2d61177c565b610d486001600160a01b0383165b916001600160a01b031690565b03610d565761015890611b7a565b7f118cdaa7000000000000000000000000000000000000000000000000000000005f9081526001600160a01b039091166004526024035ffd5b61016e5f7f9016d09d72d40fdae2fd8ceac6b6234c7706214fd39c1cd1e609a0528c1993005b01546001600160a01b031690565b61015890610dcf611b1c565b610dfa565b906001600160a01b0390610a66565b90610df361016e610a8592610849565b8254610dd4565b610e1190610b24610e0a82610849565b6001610de3565b7fa49730bff544fd0b716395c592e39c6fd2d2481a19b9229b5b240483db95a495610e3b60405190565b5f90a2565b61015890610dc3565b61015890610e55611b1c565b610e81565b9081526040810192916101589160200152565b0152565b90610a7e61016e610a85926107bb565b610158907fa4985dd6c321807ab991746ac3a0237660c5e3aa374e90dd755f5d11099bad3c81610eb16002610754565b610ec6610ebd60405190565b92839283610e5a565b0390a16002610e71565b61015890610e49565b15610ee057565b7f733fa4c3000000000000000000000000000000000000000000000000000000005f908152600490fd5b15610f13575050565b7f9cd76295000000000000000000000000000000000000000000000000000000005f90815291610881916004610e5a565b67ffffffffffffffff811161021b5760208091020190565b906105bf61027083610f44565b369037565b90610158610f84610f7e84610f5c565b93610f44565b601f190160208401610f69565b7f4e487b71000000000000000000000000000000000000000000000000000000005f52603260045260245ffd5b90359061011e193682900301821215610147570190565b90821015610fec57602061016e9202810190610fbe565b610f91565b903590605e193682900301821215610147570190565b90611010825190565b811015610fec576020809102010190565b156110295750565b7fbcac7e58000000000000000000000000000000000000000000000000000000005f908152600491909152602490fd5b156110615750565b7fc57a8073000000000000000000000000000000000000000000000000000000005f908152600491909152602490fd5b9035605e193683900301811215610147570190565b61016e916110f66110d961012083016110bf84866108ac565b6110cc60a0860186611091565b84820360a086015261097a565b926110eb60c0820160c08501906109cd565b610100810190610928565b9161010081850391015261095c565b9061016e916110a6565b903561011e193683900301811215610147570190565b81835291602001908161113b6020830284019490565b92835f925b8484106111505750505050505090565b909192939495602061117c61117583856001950388526111708b8861110f565b611105565b9860200190565b940194019294939190611140565b602080825261016e93910191611125565b90610158946111e96111d7610e6d936080969a99979a6111ca60a08801925f8901906001600160a01b03169052565b868203602088015261061a565b6001600160a01b039099166040850152565b6001600160a01b03166060830152565b90611219611212611208845190565b8084529260200190565b9260200190565b905f5b8181106112295750505090565b90919261124661123f6001928651815260200190565b9460200190565b92910161121c565b9291602061126a6101589360408701908782035f8901526111f9565b940152565b610e6d610158946112a66112946060959998969960808601908682035f88015261061a565b6001600160a01b039099166020850152565b6001600160a01b03166040830152565b91949092946112e96112d3610b246001546001600160a01b031690565b6112e2610d3b6101a45f610d02565b1415610ed9565b61130d6112f961016e6002610754565b3410156113066002610754565b3491610f0a565b839461131886610f6e565b966113225f6107bb565b875b8110156113f5576113ee816113e8818c611387611345611324978e8e610fd5565b9161138461137c84610b5e61135d60a0830183610ff1565b60c0880192610b5261136e60405190565b9485936020850193846109ea565b948592611007565b52565b6113e2610b366113d26113cc6113a861077b875f905f5260205260405f2090565b946113c1876113b961016e5f6107bb565b881415611021565b610100810190610a9a565b90610a56565b6113dd610b69825190565b209290565b14611059565b60010190565b9050611322565b5092969195509261144d9061143e61140c60405190565b9687926004602085017f77b0173e0000000000000000000000000000000000000000000000000000000081520161118a565b602082018103825203856101f9565b611485611465610b246001546001600160a01b031690565b610b5e61147160405190565b8092610b528a89898c60208701958661119b565b7f0517f5d20eb91a9b5d67025455e2124eade1b76eb1ea5d768c3bcc010135b850866114b033610849565b936114c66114bd60405190565b9283928361124e565b0390a36114de610b246001546001600160a01b031690565b90813b15610147575f80946115286114f560405190565b978896879586947f6cebc9c20000000000000000000000000000000000000000000000000000000086526004860161126f565b03925af18015610c9257610c7b5750565b61016e9060401c60ff1690565b61016e9054611539565b61016e905b67ffffffffffffffff1690565b61016e9054611550565b61155561016e61016e9290565b9067ffffffffffffffff90610a66565b61155561016e61016e9267ffffffffffffffff1690565b906115b061016e610a8592611589565b8254611579565b9068ff00000000000000009060401b610a66565b906115db61016e610a8592151590565b82546115b7565b6101719061156c565b60208101929161015891906115e2565b611603611bad565b8061161d61161761161383611546565b1590565b91611562565b926116275f61156c565b67ffffffffffffffff8516148061173e575b6001946116566116488761156c565b9167ffffffffffffffff1690565b14908161171a575b155b9081611711575b506116e75761169090826116875f61167e8861156c565b960195866115a0565b6116d857611745565b611698575050565b7fc7f505b2f371ae2175ee4913f4499e1f2633a7b5936321eed1cdaeb6115181d2916116c75f6116d3936115cb565b604051918291826115eb565b0390a1565b6116e285856115cb565b611745565b7ff92ee8a9000000000000000000000000000000000000000000000000000000005f908152600490fd5b1590505f611667565b905061166061172830610849565b3b611735610b365f6107bb565b1491905061165e565b5081611639565b61174e90611bca565b611756611bdb565b610158611bf6565b610158906115fb565b61016e9291610b5e91610b5261136e60405190565b61016e5f7f237e158222e3e6968b72b9db0d8043aacf074ad9f650f0d1606b4d82ee432c00610db5565b61016e610b246001546001600160a01b031690565b610158906117c7611b1c565b6117f4815f7f237e158222e3e6968b72b9db0d8043aacf074ad9f650f0d1606b4d82ee432c005b01610de3565b611808611802610b24610d8f565b91610849565b907f38d16b8cac22d99fc7c124b9cd0de2d3fa1faef420bfe791d8c362d765e2270061183360405190565b5f90a3565b610158906117bb565b61184a30610849565b7f00000000000000000000000000000000000000000000000000000000000000009061187e6001600160a01b038316610d3b565b149081156118b8575b5061188e57565b7fe07c8dba000000000000000000000000000000000000000000000000000000005f908152600490fd5b90506118d5610d3b6118c8611bfe565b926001600160a01b031690565b14155f611887565b50610158611b1c565b610158906118dd565b905051906101588261013e565b906020828203126101475761016e916118ef565b9061191d610b2483610849565b90602061192960405190565b7f52d1902d00000000000000000000000000000000000000000000000000000000815292839060049082905afa5f92816119f5575b506119a7575050600161196e5750565b7f4c9c8ce3000000000000000000000000000000000000000000000000000000005f9081526001600160a01b039091166004526024035ffd5b9092916119b561016e6107c8565b84036119c657610158929350611c0d565b7faa1d49a4000000000000000000000000000000000000000000000000000000005f9081526004859052602490fd5b611a1891935060203d602011611a1f575b611a1081836101f9565b8101906118fc565b915f61195e565b503d611a06565b611a2f30610849565b611a616001600160a01b037f000000000000000000000000000000000000000000000000000000000000000016610d3b565b0361188e57565b61016e60026107bb565b7f9b779b17422d0df92223018b32b4d1fa46e071723d6817e2486d003becc55f00611a9c81610754565b611aa4611a68565b908114611ab45761015891610e71565b7f3ee5aeb5000000000000000000000000000000000000000000000000000000005f908152600490fd5b61016e60016107bb565b6101587f9b779b17422d0df92223018b32b4d1fa46e071723d6817e2486d003becc55f005f611b15611ade565b9101610e71565b611b24610d8f565b3390611b2f82610d3b565b03610d565750565b91906008610a66910291611b516001600160a01b03841b90565b921b90565b9190611b6761016e610a8593610849565b908354611b37565b610158915f91611b56565b61015890611ba85f7f237e158222e3e6968b72b9db0d8043aacf074ad9f650f0d1606b4d82ee432c00611b6f565b611c77565b61016e611d0d565b61015890611bc1611d15565b61015890611dc1565b61015890611bb5565b610158611d15565b610158611bd3565b611beb611d15565b610158610158611dd2565b610158611be3565b61016e5f610db561016e6107c8565b90611c1782611dda565b611c2082610849565b7fbc7cd75a20ee27fd9adebab32041f755214dbc6bffa90cc0225b39da2e5c2d3b611c4a60405190565b5f90a28051611c5b610b365f6107bb565b1115611c6d57611c6a91611e56565b50565b5050610158611dfd565b611cb96118027f9016d09d72d40fdae2fd8ceac6b6234c7706214fd39c1cd1e609a0528c199300610b2484611cb383546001600160a01b031690565b92610de3565b907f8be0079c531659141344cd1fd0a4f28419497f9722a3daafe3b4186f6b6457e061183360405190565b61016e7ff0c57e16840df040f15088dc2f81fe391c3923bec73e23a9662efc9c229c6a006107bb565b61016e611ce4565b611d20611613611e7c565b611d2657565b7fd7e6bcf8000000000000000000000000000000000000000000000000000000005f908152600490fd5b61015890611d5c611d15565b611d655f610d02565b6001600160a01b0381166001600160a01b03831614611d88575061015890611b7a565b7f1e4fbdf7000000000000000000000000000000000000000000000000000000005f9081526001600160a01b039091166004526024035ffd5b61015890611d50565b610818611d15565b610158611dca565b803b611de8610b365f6107bb565b1461196e57610158905f6117ee61016e6107c8565b611e065f6107bb565b3411611e0e57565b7fb398979f000000000000000000000000000000000000000000000000000000005f908152600490fd5b3d15611e5157611e473d6105b2565b903d5f602084013e565b606090565b5f8061016e93611e64606090565b50602081519101845af4611e76611e38565b91611e8e565b61016e5f611e88611bad565b01611546565b90611e995750611f04565b8151611ea7610b365f6107bb565b1480611eef575b611eb6575090565b7f9996b315000000000000000000000000000000000000000000000000000000005f9081526001600160a01b039091166004526024035ffd5b50803b611efe610b365f6107bb565b14611eae565b8051611f12610b365f6107bb565b1115611f2057805190602001fd5b7fd6bda275000000000000000000000000000000000000000000000000000000005f908152600490fdfea26469706673582212200e1447da773c0364f3e3179f18ea20456a0edb67751ea527bcbb1f535ddc9aa364736f6c634300081c0033",
    "linkReferences": {},
    "deployedLinkReferences": {},
    "immutableReferences": {
        "619": [
            {
                "length": 32,
                "start": 6220
            },
            {
                "length": 32,
                "start": 6716
            }
        ]
    },
    "inputSourceName": "project/contracts/v3/DepositoryDst.sol",
    "buildInfoId": "solc-0_8_28-780fdd7c845c7512a286105667449716bb714af5"
}