{
    "_format": "hh3-artifact-1",
    "contractName": "DepositoryDst",
    "sourceName": "contracts/v3/DepositoryDst.sol",
    "abi": [
        {
            "inputs": [],
            "stateMutability": "nonpayable",
            "type": "constructor"
        },
        {
            "inputs": [
                {
                    "internalType": "address",
                    "name": "target",
                    "type": "address"
                }
            ],
            "name": "AddressEmptyCode",
            "type": "error"
        },
        {
            "inputs": [],
            "name": "BridgeNotSet",
            "type": "error"
        },
        {
            "inputs": [
                {
                    "internalType": "address",
                    "name": "implementation",
                    "type": "address"
                }
            ],
            "name": "ERC1967InvalidImplementation",
            "type": "error"
        },
        {
            "inputs": [],
            "name": "ERC1967NonPayable",
            "type": "error"
        },
        {
            "inputs": [],
            "name": "FailedCall",
            "type": "error"
        },
        {
            "inputs": [
                {
                    "internalType": "uint256",
                    "name": "required",
                    "type": "uint256"
                },
                {
                    "internalType": "uint256",
                    "name": "provided",
                    "type": "uint256"
                }
            ],
            "name": "InsufficientRelayFee",
            "type": "error"
        },
        {
            "inputs": [
                {
                    "internalType": "IntentID",
                    "name": "intentId",
                    "type": "bytes32"
                }
            ],
            "name": "IntentAlreadyFilled",
            "type": "error"
        },
        {
            "inputs": [
                {
                    "internalType": "IntentID",
                    "name": "intentId",
                    "type": "bytes32"
                }
            ],
            "name": "IntentNotFilled",
            "type": "error"
        },
        {
            "inputs": [],
            "name": "InvalidFillUnlocker",
            "type": "error"
        },
        {
            "inputs": [],
            "name": "InvalidInitialization",
            "type": "error"
        },
        {
            "inputs": [
                {
                    "internalType": "IntentID",
                    "name": "intentId",
                    "type": "bytes32"
                }
            ],
            "name": "InvalidSolution",
            "type": "error"
        },
        {
            "inputs": [],
            "name": "NotInitializing",
            "type": "error"
        },
        {
            "inputs": [
                {
                    "internalType": "address",
                    "name": "owner",
                    "type": "address"
                }
            ],
            "name": "OwnableInvalidOwner",
            "type": "error"
        },
        {
            "inputs": [
                {
                    "internalType": "address",
                    "name": "account",
                    "type": "address"
                }
            ],
            "name": "OwnableUnauthorizedAccount",
            "type": "error"
        },
        {
            "inputs": [],
            "name": "ReentrancyGuardReentrantCall",
            "type": "error"
        },
        {
            "inputs": [],
            "name": "UUPSUnauthorizedCallContext",
            "type": "error"
        },
        {
            "inputs": [
                {
                    "internalType": "bytes32",
                    "name": "slot",
                    "type": "bytes32"
                }
            ],
            "name": "UUPSUnsupportedProxiableUUID",
            "type": "error"
        },
        {
            "anonymous": false,
            "inputs": [
                {
                    "indexed": true,
                    "internalType": "address",
                    "name": "bridge",
                    "type": "address"
                }
            ],
            "name": "BridgeSet",
            "type": "event"
        },
        {
            "anonymous": false,
            "inputs": [
                {
                    "indexed": false,
                    "internalType": "uint64",
                    "name": "version",
                    "type": "uint64"
                }
            ],
            "name": "Initialized",
            "type": "event"
        },
        {
            "anonymous": false,
            "inputs": [
                {
                    "indexed": true,
                    "internalType": "IntentID",
                    "name": "intentId",
                    "type": "bytes32"
                },
                {
                    "indexed": true,
                    "internalType": "address",
                    "name": "solver",
                    "type": "address"
                },
                {
                    "indexed": false,
                    "internalType": "bytes",
                    "name": "solution",
                    "type": "bytes"
                }
            ],
            "name": "IntentFilled",
            "type": "event"
        },
        {
            "anonymous": false,
            "inputs": [
                {
                    "indexed": true,
                    "internalType": "address",
                    "name": "previousOwner",
                    "type": "address"
                },
                {
                    "indexed": true,
                    "internalType": "address",
                    "name": "newOwner",
                    "type": "address"
                }
            ],
            "name": "OwnershipTransferStarted",
            "type": "event"
        },
        {
            "anonymous": false,
            "inputs": [
                {
                    "indexed": true,
                    "internalType": "address",
                    "name": "previousOwner",
                    "type": "address"
                },
                {
                    "indexed": true,
                    "internalType": "address",
                    "name": "newOwner",
                    "type": "address"
                }
            ],
            "name": "OwnershipTransferred",
            "type": "event"
        },
        {
            "anonymous": false,
            "inputs": [
                {
                    "indexed": false,
                    "internalType": "uint256",
                    "name": "oldFee",
                    "type": "uint256"
                },
                {
                    "indexed": false,
                    "internalType": "uint256",
                    "name": "newFee",
                    "type": "uint256"
                }
            ],
            "name": "RelayFeeSet",
            "type": "event"
        },
        {
            "anonymous": false,
            "inputs": [
                {
                    "indexed": true,
                    "internalType": "address",
                    "name": "implementation",
                    "type": "address"
                }
            ],
            "name": "Upgraded",
            "type": "event"
        },
        {
            "inputs": [],
            "name": "UPGRADE_INTERFACE_VERSION",
            "outputs": [
                {
                    "internalType": "string",
                    "name": "",
                    "type": "string"
                }
            ],
            "stateMutability": "view",
            "type": "function"
        },
        {
            "inputs": [],
            "name": "acceptOwnership",
            "outputs": [],
            "stateMutability": "nonpayable",
            "type": "function"
        },
        {
            "inputs": [],
            "name": "bridge",
            "outputs": [
                {
                    "internalType": "address",
                    "name": "",
                    "type": "address"
                }
            ],
            "stateMutability": "view",
            "type": "function"
        },
        {
            "inputs": [
                {
                    "components": [
                        {
                            "internalType": "contract IERC20",
                            "name": "token",
                            "type": "address"
                        },
                        {
                            "internalType": "uint256",
                            "name": "amount",
                            "type": "uint256"
                        },
                        {
                            "internalType": "address",
                            "name": "depositor",
                            "type": "address"
                        },
                        {
                            "internalType": "uint256",
                            "name": "quoteTTL",
                            "type": "uint256"
                        },
                        {
                            "internalType": "uint256",
                            "name": "srcChainId",
                            "type": "uint256"
                        }
                    ],
                    "internalType": "struct DepositoryTypes.DepositParams",
                    "name": "depositParams",
                    "type": "tuple"
                },
                {
                    "components": [
                        {
                            "internalType": "contract IFillUnlocker",
                            "name": "fillUnlocker",
                            "type": "address"
                        },
                        {
                            "internalType": "contract ISettlementUnlocker",
                            "name": "settlementUnlocker",
                            "type": "address"
                        },
                        {
                            "internalType": "bytes",
                            "name": "condition",
                            "type": "bytes"
                        }
                    ],
                    "internalType": "struct DepositoryTypes.FillCondition",
                    "name": "fillCondition",
                    "type": "tuple"
                },
                {
                    "components": [
                        {
                            "internalType": "uint256",
                            "name": "blockNumber",
                            "type": "uint256"
                        },
                        {
                            "internalType": "uint256",
                            "name": "timestamp",
                            "type": "uint256"
                        }
                    ],
                    "internalType": "struct DepositoryTypes.BlockchainState",
                    "name": "lockState",
                    "type": "tuple"
                },
                {
                    "internalType": "bytes",
                    "name": "solution",
                    "type": "bytes"
                }
            ],
            "name": "fill",
            "outputs": [],
            "stateMutability": "nonpayable",
            "type": "function"
        },
        {
            "inputs": [
                {
                    "internalType": "IntentID",
                    "name": "intentId",
                    "type": "bytes32"
                }
            ],
            "name": "fills",
            "outputs": [
                {
                    "internalType": "bytes32",
                    "name": "",
                    "type": "bytes32"
                }
            ],
            "stateMutability": "view",
            "type": "function"
        },
        {
            "inputs": [
                {
                    "internalType": "address",
                    "name": "owner_",
                    "type": "address"
                }
            ],
            "name": "initialize",
            "outputs": [],
            "stateMutability": "nonpayable",
            "type": "function"
        },
        {
            "inputs": [
                {
                    "components": [
                        {
                            "internalType": "contract IERC20",
                            "name": "token",
                            "type": "address"
                        },
                        {
                            "internalType": "uint256",
                            "name": "amount",
                            "type": "uint256"
                        },
                        {
                            "internalType": "address",
                            "name": "depositor",
                            "type": "address"
                        },
                        {
                            "internalType": "uint256",
                            "name": "quoteTTL",
                            "type": "uint256"
                        },
                        {
                            "internalType": "uint256",
                            "name": "srcChainId",
                            "type": "uint256"
                        }
                    ],
                    "internalType": "struct DepositoryTypes.DepositParams",
                    "name": "depositParams",
                    "type": "tuple"
                },
                {
                    "components": [
                        {
                            "internalType": "contract IFillUnlocker",
                            "name": "fillUnlocker",
                            "type": "address"
                        },
                        {
                            "internalType": "contract ISettlementUnlocker",
                            "name": "settlementUnlocker",
                            "type": "address"
                        },
                        {
                            "internalType": "bytes",
                            "name": "condition",
                            "type": "bytes"
                        }
                    ],
                    "internalType": "struct DepositoryTypes.FillCondition",
                    "name": "fillCondition",
                    "type": "tuple"
                },
                {
                    "components": [
                        {
                            "internalType": "uint256",
                            "name": "blockNumber",
                            "type": "uint256"
                        },
                        {
                            "internalType": "uint256",
                            "name": "timestamp",
                            "type": "uint256"
                        }
                    ],
                    "internalType": "struct DepositoryTypes.BlockchainState",
                    "name": "lockState",
                    "type": "tuple"
                }
            ],
            "name": "intentID",
            "outputs": [
                {
                    "internalType": "IntentID",
                    "name": "",
                    "type": "bytes32"
                }
            ],
            "stateMutability": "pure",
            "type": "function"
        },
        {
            "inputs": [],
            "name": "owner",
            "outputs": [
                {
                    "internalType": "address",
                    "name": "",
                    "type": "address"
                }
            ],
            "stateMutability": "view",
            "type": "function"
        },
        {
            "inputs": [],
            "name": "pendingOwner",
            "outputs": [
                {
                    "internalType": "address",
                    "name": "",
                    "type": "address"
                }
            ],
            "stateMutability": "view",
            "type": "function"
        },
        {
            "inputs": [],
            "name": "proxiableUUID",
            "outputs": [
                {
                    "internalType": "bytes32",
                    "name": "",
                    "type": "bytes32"
                }
            ],
            "stateMutability": "view",
            "type": "function"
        },
        {
            "inputs": [],
            "name": "relayFee",
            "outputs": [
                {
                    "internalType": "uint256",
                    "name": "",
                    "type": "uint256"
                }
            ],
            "stateMutability": "view",
            "type": "function"
        },
        {
            "inputs": [],
            "name": "renounceOwnership",
            "outputs": [],
            "stateMutability": "nonpayable",
            "type": "function"
        },
        {
            "inputs": [
                {
                    "internalType": "address",
                    "name": "bridge_",
                    "type": "address"
                }
            ],
            "name": "setBridge",
            "outputs": [],
            "stateMutability": "nonpayable",
            "type": "function"
        },
        {
            "inputs": [
                {
                    "internalType": "uint256",
                    "name": "fee",
                    "type": "uint256"
                }
            ],
            "name": "setRelayFee",
            "outputs": [],
            "stateMutability": "nonpayable",
            "type": "function"
        },
        {
            "inputs": [
                {
                    "components": [
                        {
                            "components": [
                                {
                                    "internalType": "contract IERC20",
                                    "name": "token",
                                    "type": "address"
                                },
                                {
                                    "internalType": "uint256",
                                    "name": "amount",
                                    "type": "uint256"
                                },
                                {
                                    "internalType": "address",
                                    "name": "depositor",
                                    "type": "address"
                                },
                                {
                                    "internalType": "uint256",
                                    "name": "quoteTTL",
                                    "type": "uint256"
                                },
                                {
                                    "internalType": "uint256",
                                    "name": "srcChainId",
                                    "type": "uint256"
                                }
                            ],
                            "internalType": "struct DepositoryTypes.DepositParams",
                            "name": "depositParams",
                            "type": "tuple"
                        },
                        {
                            "components": [
                                {
                                    "internalType": "contract IFillUnlocker",
                                    "name": "fillUnlocker",
                                    "type": "address"
                                },
                                {
                                    "internalType": "contract ISettlementUnlocker",
                                    "name": "settlementUnlocker",
                                    "type": "address"
                                },
                                {
                                    "internalType": "bytes",
                                    "name": "condition",
                                    "type": "bytes"
                                }
                            ],
                            "internalType": "struct DepositoryTypes.FillCondition",
                            "name": "fillCondition",
                            "type": "tuple"
                        },
                        {
                            "components": [
                                {
                                    "internalType": "uint256",
                                    "name": "blockNumber",
                                    "type": "uint256"
                                },
                                {
                                    "internalType": "uint256",
                                    "name": "timestamp",
                                    "type": "uint256"
                                }
                            ],
                            "internalType": "struct DepositoryTypes.BlockchainState",
                            "name": "lockState",
                            "type": "tuple"
                        },
                        {
                            "internalType": "bytes",
                            "name": "solution",
                            "type": "bytes"
                        }
                    ],
                    "internalType": "struct DepositoryTypes.UnlockRequest[]",
                    "name": "items",
                    "type": "tuple[]"
                },
                {
                    "internalType": "uint256",
                    "name": "srcChainId",
                    "type": "uint256"
                },
                {
                    "internalType": "address",
                    "name": "srcDepository",
                    "type": "address"
                },
                {
                    "internalType": "address",
                    "name": "oppositeBridge",
                    "type": "address"
                }
            ],
            "name": "settleBatch",
            "outputs": [],
            "stateMutability": "payable",
            "type": "function"
        },
        {
            "inputs": [
                {
                    "internalType": "address",
                    "name": "newOwner",
                    "type": "address"
                }
            ],
            "name": "transferOwnership",
            "outputs": [],
            "stateMutability": "nonpayable",
            "type": "function"
        },
        {
            "inputs": [
                {
                    "internalType": "address",
                    "name": "newImplementation",
                    "type": "address"
                },
                {
                    "internalType": "bytes",
                    "name": "data",
                    "type": "bytes"
                }
            ],
            "name": "upgradeToAndCall",
            "outputs": [],
            "stateMutability": "payable",
            "type": "function"
        },
        {
            "inputs": [
                {
                    "internalType": "address",
                    "name": "to",
                    "type": "address"
                },
                {
                    "internalType": "uint256",
                    "name": "amount",
                    "type": "uint256"
                }
            ],
            "name": "withdrawRelayFee",
            "outputs": [],
            "stateMutability": "nonpayable",
            "type": "function"
        },
        {
            "stateMutability": "payable",
            "type": "receive"
        }
    ],
    "bytecode": "0x60a06040523461003257610011610036565b604051611da86101ef823960805181818161167401526118640152611da890f35b5f80fd5b61003e610048565b610046610112565b565b61004661004661004661004661008e565b61006d90610070906001600160a01b031682565b90565b6001600160a01b031690565b61006d90610059565b61006d9061007c565b61009730610085565b608052565b61006d9060401c60ff1690565b61006d905461009c565b61006d905b6001600160401b031690565b61006d90546100b3565b61006d906100b8906001600160401b031682565b906100f261006d61010e926100ce565b82546001600160401b0319166001600160401b03919091161790565b9055565b5f61011b6101a8565b01610125816100a9565b61019757610132816100c4565b6001600160401b0391908290811603610149575050565b816101787fc7f505b2f371ae2175ee4913f4499e1f2633a7b5936321eed1cdaeb6115181d293610192936100e2565b604051918291826001600160401b03909116815260200190565b0390a1565b63f92ee8a960e01b5f908152600490fd5b61006d6101e6565b61006d61006d61006d9290565b61006d7ff0c57e16840df040f15088dc2f81fe391c3923bec73e23a9662efc9c229c6a006101b0565b61006d6101bd56fe6080604052600436101561001a575b3615610018575f80fd5b005b5f3560e01c806320158c44146101395780634f1ef2861461013457806352d1902d1461012f57806353b1d9251461012a5780636b90397014610125578063715018a61461012057806371d308631461011b57806379ba5097146101165780638da5cb5b146101115780638dd148021461010c5780639838510914610107578063ac8baa3a14610102578063ad3cb1cc146100fd578063c4d66de8146100f8578063d8248741146100f3578063e30c3978146100ee578063e78cea92146100e95763f2fde38b0361000e5761073a565b61071f565b610704565b6106e8565b61068b565b610664565b6105a0565b610506565b6104ee565b6104a5565b61048d565b610472565b610439565b610420565b6103e1565b610303565b6102e0565b610175565b805b0361014757565b5f80fd5b905035906101588261013e565b565b906020828203126101475761016e9161014b565b90565b9052565b34610147576101a061019061018b36600461015a565b610763565b6040519182918290815260200190565b0390f35b6001600160a01b031690565b6001600160a01b038116610140565b90503590610158826101b0565b7f4e487b71000000000000000000000000000000000000000000000000000000005f52604160045260245ffd5b90601f01601f1916810190811067ffffffffffffffff82111761021b57604052565b6101cc565b9061015861022d60405190565b92836101f9565b67ffffffffffffffff811161021b57602090601f01601f19160190565b0190565b90825f939282370152565b9092919261027561027082610234565b610220565b938185528183011161014757610158916020850190610255565b9080601f830112156101475781602061016e93359101610260565b919091604081840312610147576102c183826101bf565b92602082013567ffffffffffffffff81116101475761016e920161028f565b6102f46102ee3660046102aa565b906107a5565b604051005b5f91031261014757565b34610147576103133660046102f9565b6101a06101906107ff565b908160a09103126101475790565b908160609103126101475790565b908160409103126101475790565b909182601f830112156101475781359167ffffffffffffffff831161014757602001926001830284011161014757565b90610120828203126101475761038e818361031e565b9260a083013567ffffffffffffffff811161014757826103af91850161032c565b926103bd8360c0830161033a565b9261010082013567ffffffffffffffff8111610147576103dd9201610348565b9091565b34610147576102f46103f4366004610378565b93929092610cad565b91906040838203126101475761016e90602061041982866101bf565b940161014b565b34610147576102f46104333660046103fd565b90610cf1565b34610147576104493660046102f9565b6102f4610d32565b61016e916008021c81565b9061016e9154610451565b61016e5f600261045c565b34610147576104823660046102f9565b6101a0610190610467565b346101475761049d3660046102f9565b6102f4610d3a565b34610147576104b53660046102f9565b6101a06104c0610da5565b604051918291826001600160a01b03909116815260200190565b906020828203126101475761016e916101bf565b34610147576102f46105013660046104da565b610e56565b34610147576102f461051936600461015a565b610ee6565b909182601f830112156101475781359167ffffffffffffffff831161014757602001926020830284011161014757565b9060808282031261014757813567ffffffffffffffff8111610147578161057691840161051e565b92909361016e610589846020850161014b565b93606061059982604087016101bf565b94016101bf565b6102f46105ae36600461054e565b93929092611191565b906105c461027083610234565b918252565b6105d360056105b7565b7f352e302e30000000000000000000000000000000000000000000000000000000602082015290565b61016e6105c9565b61016e6105fc565b61016e610604565b90825f9392825e0152565b61064061064960209361025193610634815190565b80835293849260200190565b95869101610614565b601f01601f191690565b602080825261016e9291019061061f565b34610147576106743660046102f9565b6101a061067f61060c565b60405191829182610653565b34610147576102f461069e3660046104da565b611586565b909161010082840312610147576106ba838361031e565b9260a08301359067ffffffffffffffff82116101475760c06106e18261016e94870161032c565b940161033a565b34610147576101a06101906106fe3660046106a3565b9161158f565b34610147576107143660046102f9565b6101a06104c06115a4565b346101475761072f3660046102f9565b6101a06104c06115ce565b34610147576102f461074d3660046104da565b611660565b61016e9081565b61016e9054610752565b61078061016e916107715f90565b505f905f5260205260405f2090565b610759565b9061015891610792611669565b90610158916107a08161170e565b611738565b9061015891610785565b61016e906107bb61184e565b6107f6565b61016e61016e61016e9290565b61016e7f360894a13ba1a3210667c828492db98dca3e2076cc3735a920a3ca505d382bbc6107c0565b5061016e6107cd565b61016e5f6107af565b9061081d9493929161081861189a565b610b09565b610158611910565b3561016e816101b0565b6101a461016e61016e926001600160a01b031690565b61016e9061082f565b61016e90610845565b1561085e57565b7f027585ad000000000000000000000000000000000000000000000000000000005f90815260045b035ffd5b5061016e9060208101906101bf565b6101719061084e565b5061016e90602081019061014b565b906080610928610158936108d16108ca5f83018361088a565b8590610899565b6108e86108e160208301836108a2565b6020860152565b6109086108f8604083018361088a565b6001600160a01b03166040860152565b61091f61091860608301836108a2565b6060860152565b828101906108a2565b910152565b9035601e19368390030181121561014757016020813591019167ffffffffffffffff82116101475736829003831361014757565b919061064981610978816102519560209181520190565b8095610255565b61016e9160608101916109c4906109a0610999828061088a565b8490610899565b6109ba6109b0602083018361088a565b6020850190610899565b604081019061092d565b916040818503910152610961565b9060206109286101589361091f6109eb5f8301836108a2565b8552565b939290610a1b60c09161015894610a0e6101008901925f8a01906108b1565b87820360a089015261097f565b9401906109d2565b15610a2b5750565b7f758b4028000000000000000000000000000000000000000000000000000000005f908152600491909152602490fd5b61016e913691610260565b905f19905b9181191691161790565b90610a8361016e610a8a9290565b8254610a66565b9055565b602080825261016e93910191610961565b903590601e193682900301821215610147570180359067ffffffffffffffff8211610147576020019136829003831361014757565b9290610af09061016e959360408601918683035f880152610961565b926020818503910152610961565b6040513d5f823e3d90fd5b610b58610b64610bd8939594610b7a93610b46610b2f610b2a5f8b01610825565b61084e565b3b610b40610b3c5f6107c0565b9190565b11610857565b604051938492896020850193846109ef565b908103825203826101f9565b610b76610b6f825190565b9160200190565b2090565b610ba881610b93610780825f905f5260205260405f2090565b610ba2610b3c61016e5f6107c0565b14610a23565b61016e610bb58685610a5b565b610bc0610b6f825190565b20610bd3835f905f5260205260405f2090565b610a75565b610be13361084e565b907f4f02007c5b383d0fb2923b90ac1cc973e61e27f22ce6b7f5c651faa9cdcf21ec610c0c60405190565b80610c18888783610a8e565b0390a3610c35610c2a610b2a84610825565b926040810190610a9f565b8391933b15610147575f8094610c80610c4d60405190565b978896879586947f5b492b7000000000000000000000000000000000000000000000000000000000865260048601610ad4565b03925af18015610ca857610c915750565b610158905f610ca081836101f9565b8101906102f9565b610afe565b9061015894939291610808565b9061015891610cc7611944565b5f808093610cd8610b2a839561084e565b828215610ce8575bf115610ca857565b506108fc610ce0565b9061015891610cba565b610d03611944565b610158610d21565b6101a461016e61016e9290565b61016e90610d0b565b610158610d2d5f610d18565b6119a2565b610158610cfb565b33610d436115a4565b610d5e6001600160a01b0383165b916001600160a01b031690565b03610d6c57610158906119a2565b7f118cdaa7000000000000000000000000000000000000000000000000000000005f9081526001600160a01b039091166004526024035ffd5b61016e5f7f9016d09d72d40fdae2fd8ceac6b6234c7706214fd39c1cd1e609a0528c1993005b01546001600160a01b031690565b61015890610de5611944565b610e10565b906001600160a01b0390610a6b565b90610e0961016e610a8a9261084e565b8254610dea565b610e2790610b2a610e208261084e565b6001610df9565b7fa49730bff544fd0b716395c592e39c6fd2d2481a19b9229b5b240483db95a495610e5160405190565b5f90a2565b61015890610dd9565b61015890610e6b611944565b610e97565b9081526040810192916101589160200152565b0152565b90610a8361016e610a8a926107c0565b610158907fa4985dd6c321807ab991746ac3a0237660c5e3aa374e90dd755f5d11099bad3c81610ec76002610759565b610edc610ed360405190565b92839283610e70565b0390a16002610e87565b61015890610e5f565b15610ef657565b7f733fa4c3000000000000000000000000000000000000000000000000000000005f908152600490fd5b15610f29575050565b7f9cd76295000000000000000000000000000000000000000000000000000000005f90815291610886916004610e70565b7f4e487b71000000000000000000000000000000000000000000000000000000005f52603260045260245ffd5b90359061011e193682900301821215610147570190565b90821015610fb557602061016e9202810190610f87565b610f5a565b903590605e193682900301821215610147570190565b15610fd85750565b7fbcac7e58000000000000000000000000000000000000000000000000000000005f908152600491909152602490fd5b156110105750565b7fc57a8073000000000000000000000000000000000000000000000000000000005f908152600491909152602490fd5b9035605e193683900301811215610147570190565b61016e916110a5611088610120830161106e84866108b1565b61107b60a0860186611040565b84820360a086015261097f565b9261109a60c0820160c08501906109d2565b61010081019061092d565b91610100818503910152610961565b9061016e91611055565b903561011e193683900301811215610147570190565b8183529160200190816110ea6020830284019490565b92835f925b8484106110ff5750505050505090565b909192939495602061112b611124838560019503885261111f8b886110be565b6110b4565b9860200190565b9401940192949391906110ef565b602080825261016e939101916110d4565b610e836101589461118161116f6060959998969960808601908682035f88015261061f565b6001600160a01b039099166020850152565b6001600160a01b03166040830152565b94919092936111c46111ae610b2a6001546001600160a01b031690565b6111bd610d516101a45f610d18565b1415610eef565b6111e86111d461016e6002610759565b3410156111e16002610759565b3491610f20565b6111f15f6107c0565b848110156112ab57806112a061120b6112a693888b610f9e565b61123e81610b6461121f60a0830183610fba565b60c0850192610b5861123060405190565b9485936020850193846109ef565b9061129a610b3c61128a611284611260610780875f905f5260205260405f2090565b946112798761127161016e5f6107c0565b881415610fd0565b610100810190610a9f565b90610a5b565b611295610b6f825190565b209290565b14611008565b60010190565b6111f1565b509194611302909491946112f36112c160405190565b9586926004602085017f77b0173e00000000000000000000000000000000000000000000000000000000815201611139565b602082018103825203846101f9565b611317610b2a6001546001600160a01b031690565b90813b15610147575f8094610c8061132e60405190565b978896879586947f6cebc9c20000000000000000000000000000000000000000000000000000000086526004860161114a565b61016e9060401c60ff1690565b61016e9054611361565b61016e905b67ffffffffffffffff1690565b61016e9054611378565b61137d61016e61016e9290565b9067ffffffffffffffff90610a6b565b61137d61016e61016e9267ffffffffffffffff1690565b906113d861016e610a8a926113b1565b82546113a1565b9068ff00000000000000009060401b610a6b565b9061140361016e610a8a92151590565b82546113df565b61017190611394565b602081019291610158919061140a565b61142b6119d5565b8061144561143f61143b8361136e565b1590565b9161138a565b9261144f5f611394565b67ffffffffffffffff85161480611566575b60019461147e61147087611394565b9167ffffffffffffffff1690565b149081611542575b155b9081611539575b5061150f576114b890826114af5f6114a688611394565b960195866113c8565b6115005761156d565b6114c0575050565b7fc7f505b2f371ae2175ee4913f4499e1f2633a7b5936321eed1cdaeb6115181d2916114ef5f6114fb936113f3565b60405191829182611413565b0390a1565b61150a85856113f3565b61156d565b7ff92ee8a9000000000000000000000000000000000000000000000000000000005f908152600490fd5b1590505f61148f565b90506114886115503061084e565b3b61155d610b3c5f6107c0565b14919050611486565b5081611461565b611576906119f2565b61157e611a03565b610158611a1e565b61015890611423565b61016e9291610b6491610b5861123060405190565b61016e5f7f237e158222e3e6968b72b9db0d8043aacf074ad9f650f0d1606b4d82ee432c00610dcb565b61016e610b2a6001546001600160a01b031690565b610158906115ef611944565b61161c815f7f237e158222e3e6968b72b9db0d8043aacf074ad9f650f0d1606b4d82ee432c005b01610df9565b61163061162a610b2a610da5565b9161084e565b907f38d16b8cac22d99fc7c124b9cd0de2d3fa1faef420bfe791d8c362d765e2270061165b60405190565b5f90a3565b610158906115e3565b6116723061084e565b7f0000000000000000000000000000000000000000000000000000000000000000906116a66001600160a01b038316610d51565b149081156116e0575b506116b657565b7fe07c8dba000000000000000000000000000000000000000000000000000000005f908152600490fd5b90506116fd610d516116f0611a26565b926001600160a01b031690565b14155f6116af565b50610158611944565b61015890611705565b905051906101588261013e565b906020828203126101475761016e91611717565b90611745610b2a8361084e565b90602061175160405190565b7f52d1902d00000000000000000000000000000000000000000000000000000000815292839060049082905afa5f928161181d575b506117cf57505060016117965750565b7f4c9c8ce3000000000000000000000000000000000000000000000000000000005f9081526001600160a01b039091166004526024035ffd5b9092916117dd61016e6107cd565b84036117ee57610158929350611a35565b7faa1d49a4000000000000000000000000000000000000000000000000000000005f9081526004859052602490fd5b61184091935060203d602011611847575b61183881836101f9565b810190611724565b915f611786565b503d61182e565b6118573061084e565b6118896001600160a01b037f000000000000000000000000000000000000000000000000000000000000000016610d51565b036116b657565b61016e60026107c0565b7f9b779b17422d0df92223018b32b4d1fa46e071723d6817e2486d003becc55f006118c481610759565b6118cc611890565b9081146118dc5761015891610e87565b7f3ee5aeb5000000000000000000000000000000000000000000000000000000005f908152600490fd5b61016e60016107c0565b6101587f9b779b17422d0df92223018b32b4d1fa46e071723d6817e2486d003becc55f005f61193d611906565b9101610e87565b61194c610da5565b339061195782610d51565b03610d6c5750565b91906008610a6b9102916119796001600160a01b03841b90565b921b90565b919061198f61016e610a8a9361084e565b90835461195f565b610158915f9161197e565b610158906119d05f7f237e158222e3e6968b72b9db0d8043aacf074ad9f650f0d1606b4d82ee432c00611997565b611a9f565b61016e611b35565b610158906119e9611b3d565b61015890611be9565b610158906119dd565b610158611b3d565b6101586119fb565b611a13611b3d565b610158610158611bfa565b610158611a0b565b61016e5f610dcb61016e6107cd565b90611a3f82611c02565b611a488261084e565b7fbc7cd75a20ee27fd9adebab32041f755214dbc6bffa90cc0225b39da2e5c2d3b611a7260405190565b5f90a28051611a83610b3c5f6107c0565b1115611a9557611a9291611c7e565b50565b5050610158611c25565b611ae161162a7f9016d09d72d40fdae2fd8ceac6b6234c7706214fd39c1cd1e609a0528c199300610b2a84611adb83546001600160a01b031690565b92610df9565b907f8be0079c531659141344cd1fd0a4f28419497f9722a3daafe3b4186f6b6457e061165b60405190565b61016e7ff0c57e16840df040f15088dc2f81fe391c3923bec73e23a9662efc9c229c6a006107c0565b61016e611b0c565b611b4861143b611ca4565b611b4e57565b7fd7e6bcf8000000000000000000000000000000000000000000000000000000005f908152600490fd5b61015890611b84611b3d565b611b8d5f610d18565b6001600160a01b0381166001600160a01b03831614611bb05750610158906119a2565b7f1e4fbdf7000000000000000000000000000000000000000000000000000000005f9081526001600160a01b039091166004526024035ffd5b61015890611b78565b61081d611b3d565b610158611bf2565b803b611c10610b3c5f6107c0565b1461179657610158905f61161661016e6107cd565b611c2e5f6107c0565b3411611c3657565b7fb398979f000000000000000000000000000000000000000000000000000000005f908152600490fd5b3d15611c7957611c6f3d6105b7565b903d5f602084013e565b606090565b5f8061016e93611c8c606090565b50602081519101845af4611c9e611c60565b91611cb6565b61016e5f611cb06119d5565b0161136e565b90611cc15750611d2c565b8151611ccf610b3c5f6107c0565b1480611d17575b611cde575090565b7f9996b315000000000000000000000000000000000000000000000000000000005f9081526001600160a01b039091166004526024035ffd5b50803b611d26610b3c5f6107c0565b14611cd6565b8051611d3a610b3c5f6107c0565b1115611d4857805190602001fd5b7fd6bda275000000000000000000000000000000000000000000000000000000005f908152600490fdfea264697066735822122007f10b24073af19dd200dc76fe3fce25d04b74f5f22b828ad113429f60a01de764736f6c634300081c0033",
    "linkReferences": {},
    "deployedLinkReferences": {},
    "immutableReferences": {
        "8704": [
            {
                "length": 32,
                "start": 5748
            },
            {
                "length": 32,
                "start": 6244
            }
        ]
    },
    "inputSourceName": "project/contracts/v3/DepositoryDst.sol",
    "buildInfoId": "solc-0_8_28-a4c12c1572ae7eaa8b72c066ff2a953e1a7e1e13"
}