{
    "_format": "hh3-artifact-1",
    "contractName": "DepositorySrc",
    "sourceName": "contracts/v3/DepositorySrc.sol",
    "abi": [
        {
            "inputs": [
                {
                    "internalType": "address",
                    "name": "target",
                    "type": "address"
                }
            ],
            "name": "AddressEmptyCode",
            "type": "error"
        },
        {
            "inputs": [],
            "name": "BridgeNotSet",
            "type": "error"
        },
        {
            "inputs": [
                {
                    "internalType": "address",
                    "name": "implementation",
                    "type": "address"
                }
            ],
            "name": "ERC1967InvalidImplementation",
            "type": "error"
        },
        {
            "inputs": [],
            "name": "ERC1967NonPayable",
            "type": "error"
        },
        {
            "inputs": [],
            "name": "FailedCall",
            "type": "error"
        },
        {
            "inputs": [
                {
                    "internalType": "IntentID",
                    "name": "intentId",
                    "type": "bytes32"
                }
            ],
            "name": "IntentAlreadyLocked",
            "type": "error"
        },
        {
            "inputs": [
                {
                    "internalType": "uint256",
                    "name": "quoteTTL",
                    "type": "uint256"
                },
                {
                    "internalType": "uint256",
                    "name": "currentTime",
                    "type": "uint256"
                }
            ],
            "name": "IntentExpired",
            "type": "error"
        },
        {
            "inputs": [
                {
                    "internalType": "IntentID",
                    "name": "intentId",
                    "type": "bytes32"
                }
            ],
            "name": "IntentNotLocked",
            "type": "error"
        },
        {
            "inputs": [],
            "name": "InvalidDepositAmount",
            "type": "error"
        },
        {
            "inputs": [],
            "name": "InvalidDepositor",
            "type": "error"
        },
        {
            "inputs": [],
            "name": "InvalidFillUnlocker",
            "type": "error"
        },
        {
            "inputs": [],
            "name": "InvalidInitialization",
            "type": "error"
        },
        {
            "inputs": [],
            "name": "InvalidRecipient",
            "type": "error"
        },
        {
            "inputs": [],
            "name": "InvalidSettlementUnlocker",
            "type": "error"
        },
        {
            "inputs": [],
            "name": "NotInitializing",
            "type": "error"
        },
        {
            "inputs": [
                {
                    "internalType": "address",
                    "name": "owner",
                    "type": "address"
                }
            ],
            "name": "OwnableInvalidOwner",
            "type": "error"
        },
        {
            "inputs": [
                {
                    "internalType": "address",
                    "name": "account",
                    "type": "address"
                }
            ],
            "name": "OwnableUnauthorizedAccount",
            "type": "error"
        },
        {
            "inputs": [],
            "name": "ReentrancyGuardReentrantCall",
            "type": "error"
        },
        {
            "inputs": [
                {
                    "internalType": "address",
                    "name": "token",
                    "type": "address"
                }
            ],
            "name": "SafeERC20FailedOperation",
            "type": "error"
        },
        {
            "inputs": [],
            "name": "UUPSUnauthorizedCallContext",
            "type": "error"
        },
        {
            "inputs": [
                {
                    "internalType": "bytes32",
                    "name": "slot",
                    "type": "bytes32"
                }
            ],
            "name": "UUPSUnsupportedProxiableUUID",
            "type": "error"
        },
        {
            "inputs": [],
            "name": "UnauthorizedBridge",
            "type": "error"
        },
        {
            "inputs": [],
            "name": "UnauthorizedUnlocker",
            "type": "error"
        },
        {
            "inputs": [
                {
                    "internalType": "uint256",
                    "name": "expected",
                    "type": "uint256"
                },
                {
                    "internalType": "uint256",
                    "name": "actual",
                    "type": "uint256"
                }
            ],
            "name": "WrongSrcChain",
            "type": "error"
        },
        {
            "anonymous": false,
            "inputs": [
                {
                    "indexed": true,
                    "internalType": "address",
                    "name": "bridge",
                    "type": "address"
                }
            ],
            "name": "BridgeSet",
            "type": "event"
        },
        {
            "anonymous": false,
            "inputs": [
                {
                    "indexed": false,
                    "internalType": "uint64",
                    "name": "version",
                    "type": "uint64"
                }
            ],
            "name": "Initialized",
            "type": "event"
        },
        {
            "anonymous": false,
            "inputs": [
                {
                    "indexed": true,
                    "internalType": "IntentID",
                    "name": "intentId",
                    "type": "bytes32"
                },
                {
                    "components": [
                        {
                            "internalType": "contract IERC20",
                            "name": "token",
                            "type": "address"
                        },
                        {
                            "internalType": "uint256",
                            "name": "amount",
                            "type": "uint256"
                        },
                        {
                            "internalType": "address",
                            "name": "depositor",
                            "type": "address"
                        },
                        {
                            "internalType": "uint256",
                            "name": "quoteTTL",
                            "type": "uint256"
                        },
                        {
                            "internalType": "uint256",
                            "name": "srcChainId",
                            "type": "uint256"
                        }
                    ],
                    "indexed": false,
                    "internalType": "struct DepositoryTypes.DepositParams",
                    "name": "depositParams",
                    "type": "tuple"
                },
                {
                    "components": [
                        {
                            "internalType": "contract IFillUnlocker",
                            "name": "fillUnlocker",
                            "type": "address"
                        },
                        {
                            "internalType": "contract ISettlementUnlocker",
                            "name": "settlementUnlocker",
                            "type": "address"
                        },
                        {
                            "internalType": "bytes",
                            "name": "condition",
                            "type": "bytes"
                        }
                    ],
                    "indexed": false,
                    "internalType": "struct DepositoryTypes.FillCondition",
                    "name": "fillCondition",
                    "type": "tuple"
                },
                {
                    "components": [
                        {
                            "internalType": "uint256",
                            "name": "blockNumber",
                            "type": "uint256"
                        },
                        {
                            "internalType": "uint256",
                            "name": "timestamp",
                            "type": "uint256"
                        }
                    ],
                    "indexed": false,
                    "internalType": "struct DepositoryTypes.BlockchainState",
                    "name": "lockState",
                    "type": "tuple"
                }
            ],
            "name": "IntentLocked",
            "type": "event"
        },
        {
            "anonymous": false,
            "inputs": [
                {
                    "indexed": true,
                    "internalType": "IntentID",
                    "name": "intentId",
                    "type": "bytes32"
                },
                {
                    "indexed": true,
                    "internalType": "address",
                    "name": "to",
                    "type": "address"
                },
                {
                    "indexed": false,
                    "internalType": "contract IERC20",
                    "name": "token",
                    "type": "address"
                },
                {
                    "indexed": false,
                    "internalType": "uint256",
                    "name": "amount",
                    "type": "uint256"
                }
            ],
            "name": "IntentUnlocked",
            "type": "event"
        },
        {
            "anonymous": false,
            "inputs": [
                {
                    "indexed": true,
                    "internalType": "address",
                    "name": "previousOwner",
                    "type": "address"
                },
                {
                    "indexed": true,
                    "internalType": "address",
                    "name": "newOwner",
                    "type": "address"
                }
            ],
            "name": "OwnershipTransferStarted",
            "type": "event"
        },
        {
            "anonymous": false,
            "inputs": [
                {
                    "indexed": true,
                    "internalType": "address",
                    "name": "previousOwner",
                    "type": "address"
                },
                {
                    "indexed": true,
                    "internalType": "address",
                    "name": "newOwner",
                    "type": "address"
                }
            ],
            "name": "OwnershipTransferred",
            "type": "event"
        },
        {
            "anonymous": false,
            "inputs": [
                {
                    "indexed": true,
                    "internalType": "address",
                    "name": "unlocker",
                    "type": "address"
                },
                {
                    "indexed": false,
                    "internalType": "bool",
                    "name": "enabled",
                    "type": "bool"
                }
            ],
            "name": "UnlockerSet",
            "type": "event"
        },
        {
            "anonymous": false,
            "inputs": [
                {
                    "indexed": true,
                    "internalType": "address",
                    "name": "implementation",
                    "type": "address"
                }
            ],
            "name": "Upgraded",
            "type": "event"
        },
        {
            "inputs": [],
            "name": "UPGRADE_INTERFACE_VERSION",
            "outputs": [
                {
                    "internalType": "string",
                    "name": "",
                    "type": "string"
                }
            ],
            "stateMutability": "view",
            "type": "function"
        },
        {
            "inputs": [],
            "name": "acceptOwnership",
            "outputs": [],
            "stateMutability": "nonpayable",
            "type": "function"
        },
        {
            "inputs": [],
            "name": "bridge",
            "outputs": [
                {
                    "internalType": "address",
                    "name": "",
                    "type": "address"
                }
            ],
            "stateMutability": "view",
            "type": "function"
        },
        {
            "inputs": [
                {
                    "components": [
                        {
                            "internalType": "contract IERC20",
                            "name": "token",
                            "type": "address"
                        },
                        {
                            "internalType": "uint256",
                            "name": "amount",
                            "type": "uint256"
                        },
                        {
                            "internalType": "address",
                            "name": "depositor",
                            "type": "address"
                        },
                        {
                            "internalType": "uint256",
                            "name": "quoteTTL",
                            "type": "uint256"
                        },
                        {
                            "internalType": "uint256",
                            "name": "srcChainId",
                            "type": "uint256"
                        }
                    ],
                    "internalType": "struct DepositoryTypes.DepositParams",
                    "name": "depositParams",
                    "type": "tuple"
                },
                {
                    "components": [
                        {
                            "internalType": "contract IFillUnlocker",
                            "name": "fillUnlocker",
                            "type": "address"
                        },
                        {
                            "internalType": "contract ISettlementUnlocker",
                            "name": "settlementUnlocker",
                            "type": "address"
                        },
                        {
                            "internalType": "bytes",
                            "name": "condition",
                            "type": "bytes"
                        }
                    ],
                    "internalType": "struct DepositoryTypes.FillCondition",
                    "name": "fillCondition",
                    "type": "tuple"
                }
            ],
            "name": "deposit",
            "outputs": [],
            "stateMutability": "nonpayable",
            "type": "function"
        },
        {
            "inputs": [
                {
                    "internalType": "IntentID",
                    "name": "intentId",
                    "type": "bytes32"
                }
            ],
            "name": "deposits",
            "outputs": [
                {
                    "internalType": "bool",
                    "name": "",
                    "type": "bool"
                }
            ],
            "stateMutability": "view",
            "type": "function"
        },
        {
            "inputs": [],
            "name": "initialize",
            "outputs": [],
            "stateMutability": "nonpayable",
            "type": "function"
        },
        {
            "inputs": [
                {
                    "components": [
                        {
                            "internalType": "contract IERC20",
                            "name": "token",
                            "type": "address"
                        },
                        {
                            "internalType": "uint256",
                            "name": "amount",
                            "type": "uint256"
                        },
                        {
                            "internalType": "address",
                            "name": "depositor",
                            "type": "address"
                        },
                        {
                            "internalType": "uint256",
                            "name": "quoteTTL",
                            "type": "uint256"
                        },
                        {
                            "internalType": "uint256",
                            "name": "srcChainId",
                            "type": "uint256"
                        }
                    ],
                    "internalType": "struct DepositoryTypes.DepositParams",
                    "name": "depositParams",
                    "type": "tuple"
                },
                {
                    "components": [
                        {
                            "internalType": "contract IFillUnlocker",
                            "name": "fillUnlocker",
                            "type": "address"
                        },
                        {
                            "internalType": "contract ISettlementUnlocker",
                            "name": "settlementUnlocker",
                            "type": "address"
                        },
                        {
                            "internalType": "bytes",
                            "name": "condition",
                            "type": "bytes"
                        }
                    ],
                    "internalType": "struct DepositoryTypes.FillCondition",
                    "name": "fillCondition",
                    "type": "tuple"
                },
                {
                    "components": [
                        {
                            "internalType": "uint256",
                            "name": "blockNumber",
                            "type": "uint256"
                        },
                        {
                            "internalType": "uint256",
                            "name": "timestamp",
                            "type": "uint256"
                        }
                    ],
                    "internalType": "struct DepositoryTypes.BlockchainState",
                    "name": "lockState",
                    "type": "tuple"
                }
            ],
            "name": "intentID",
            "outputs": [
                {
                    "internalType": "IntentID",
                    "name": "",
                    "type": "bytes32"
                }
            ],
            "stateMutability": "pure",
            "type": "function"
        },
        {
            "inputs": [],
            "name": "owner",
            "outputs": [
                {
                    "internalType": "address",
                    "name": "",
                    "type": "address"
                }
            ],
            "stateMutability": "view",
            "type": "function"
        },
        {
            "inputs": [],
            "name": "pendingOwner",
            "outputs": [
                {
                    "internalType": "address",
                    "name": "",
                    "type": "address"
                }
            ],
            "stateMutability": "view",
            "type": "function"
        },
        {
            "inputs": [],
            "name": "proxiableUUID",
            "outputs": [
                {
                    "internalType": "bytes32",
                    "name": "",
                    "type": "bytes32"
                }
            ],
            "stateMutability": "view",
            "type": "function"
        },
        {
            "inputs": [],
            "name": "renounceOwnership",
            "outputs": [],
            "stateMutability": "nonpayable",
            "type": "function"
        },
        {
            "inputs": [
                {
                    "internalType": "address",
                    "name": "bridge_",
                    "type": "address"
                }
            ],
            "name": "setBridge",
            "outputs": [],
            "stateMutability": "nonpayable",
            "type": "function"
        },
        {
            "inputs": [
                {
                    "internalType": "address",
                    "name": "unlocker",
                    "type": "address"
                },
                {
                    "internalType": "bool",
                    "name": "enabled",
                    "type": "bool"
                }
            ],
            "name": "setUnlocker",
            "outputs": [],
            "stateMutability": "nonpayable",
            "type": "function"
        },
        {
            "inputs": [
                {
                    "internalType": "address",
                    "name": "newOwner",
                    "type": "address"
                }
            ],
            "name": "transferOwnership",
            "outputs": [],
            "stateMutability": "nonpayable",
            "type": "function"
        },
        {
            "inputs": [
                {
                    "components": [
                        {
                            "internalType": "contract IERC20",
                            "name": "token",
                            "type": "address"
                        },
                        {
                            "internalType": "uint256",
                            "name": "amount",
                            "type": "uint256"
                        },
                        {
                            "internalType": "address",
                            "name": "depositor",
                            "type": "address"
                        },
                        {
                            "internalType": "uint256",
                            "name": "quoteTTL",
                            "type": "uint256"
                        },
                        {
                            "internalType": "uint256",
                            "name": "srcChainId",
                            "type": "uint256"
                        }
                    ],
                    "internalType": "struct DepositoryTypes.DepositParams",
                    "name": "depositParams",
                    "type": "tuple"
                },
                {
                    "components": [
                        {
                            "internalType": "contract IFillUnlocker",
                            "name": "fillUnlocker",
                            "type": "address"
                        },
                        {
                            "internalType": "contract ISettlementUnlocker",
                            "name": "settlementUnlocker",
                            "type": "address"
                        },
                        {
                            "internalType": "bytes",
                            "name": "condition",
                            "type": "bytes"
                        }
                    ],
                    "internalType": "struct DepositoryTypes.FillCondition",
                    "name": "fillCondition",
                    "type": "tuple"
                },
                {
                    "components": [
                        {
                            "internalType": "uint256",
                            "name": "blockNumber",
                            "type": "uint256"
                        },
                        {
                            "internalType": "uint256",
                            "name": "timestamp",
                            "type": "uint256"
                        }
                    ],
                    "internalType": "struct DepositoryTypes.BlockchainState",
                    "name": "lockState",
                    "type": "tuple"
                },
                {
                    "internalType": "address",
                    "name": "to",
                    "type": "address"
                }
            ],
            "name": "unlock",
            "outputs": [],
            "stateMutability": "nonpayable",
            "type": "function"
        },
        {
            "inputs": [
                {
                    "components": [
                        {
                            "components": [
                                {
                                    "internalType": "contract IERC20",
                                    "name": "token",
                                    "type": "address"
                                },
                                {
                                    "internalType": "uint256",
                                    "name": "amount",
                                    "type": "uint256"
                                },
                                {
                                    "internalType": "address",
                                    "name": "depositor",
                                    "type": "address"
                                },
                                {
                                    "internalType": "uint256",
                                    "name": "quoteTTL",
                                    "type": "uint256"
                                },
                                {
                                    "internalType": "uint256",
                                    "name": "srcChainId",
                                    "type": "uint256"
                                }
                            ],
                            "internalType": "struct DepositoryTypes.DepositParams",
                            "name": "depositParams",
                            "type": "tuple"
                        },
                        {
                            "components": [
                                {
                                    "internalType": "contract IFillUnlocker",
                                    "name": "fillUnlocker",
                                    "type": "address"
                                },
                                {
                                    "internalType": "contract ISettlementUnlocker",
                                    "name": "settlementUnlocker",
                                    "type": "address"
                                },
                                {
                                    "internalType": "bytes",
                                    "name": "condition",
                                    "type": "bytes"
                                }
                            ],
                            "internalType": "struct DepositoryTypes.FillCondition",
                            "name": "fillCondition",
                            "type": "tuple"
                        },
                        {
                            "components": [
                                {
                                    "internalType": "uint256",
                                    "name": "blockNumber",
                                    "type": "uint256"
                                },
                                {
                                    "internalType": "uint256",
                                    "name": "timestamp",
                                    "type": "uint256"
                                }
                            ],
                            "internalType": "struct DepositoryTypes.BlockchainState",
                            "name": "lockState",
                            "type": "tuple"
                        },
                        {
                            "internalType": "bytes",
                            "name": "solution",
                            "type": "bytes"
                        }
                    ],
                    "internalType": "struct DepositoryTypes.UnlockRequest[]",
                    "name": "requests",
                    "type": "tuple[]"
                }
            ],
            "name": "unlockBatch",
            "outputs": [],
            "stateMutability": "nonpayable",
            "type": "function"
        },
        {
            "inputs": [
                {
                    "internalType": "address",
                    "name": "",
                    "type": "address"
                }
            ],
            "name": "unlockers",
            "outputs": [
                {
                    "internalType": "bool",
                    "name": "",
                    "type": "bool"
                }
            ],
            "stateMutability": "view",
            "type": "function"
        },
        {
            "inputs": [
                {
                    "internalType": "address",
                    "name": "newImplementation",
                    "type": "address"
                },
                {
                    "internalType": "bytes",
                    "name": "data",
                    "type": "bytes"
                }
            ],
            "name": "upgradeToAndCall",
            "outputs": [],
            "stateMutability": "payable",
            "type": "function"
        }
    ],
    "bytecode": "0x60a060405234602f57600e6033565b6040516120ec61008382396080518181816117ab015261199b01526120ec90f35b5f80fd5b6039603b565b565b60396039603960396076565b605990605c906001600160a01b031682565b90565b6001600160a01b031690565b6059906047565b6059906068565b607d30606f565b60805256fe60806040526004361015610011575f80fd5b5f3560e01c8063172b09f9146101305780633d4dff7b1461012b5780634f1ef2861461012657806352d1902d14610121578063715018a61461011c57806377b0173e1461011757806379ba5097146101125780638129fc1c1461010d5780638da5cb5b146101085780638dd1480214610103578063ad3cb1cc146100fe578063d3fff0f6146100f9578063d8248741146100f4578063db33467b146100ef578063e30c3978146100ea578063e78cea92146100e5578063f2fde38b146100e05763ffece883036101565761076c565b61071e565b610703565b6106e8565b6106cc565b61065f565b6105d7565b610578565b6104b3565b61047e565b610466565b61044e565b610435565b6103c3565b610398565b610375565b610246565b6101ed565b6001600160a01b031690565b90565b6001600160a01b0381165b0361015657565b5f80fd5b9050359061016782610144565b565b90602082820312610156576101419161015a565b610135610141610141926001600160a01b031690565b6101419061017d565b61014190610193565b906101af9061019c565b5f5260205260405f2090565b610141916008021c5b60ff1690565b9061014191546101bb565b5f6101e46101419260016101a5565b6101ca565b9052565b346101565761021b610208610203366004610169565b6101d5565b6040515b91829182901515815260200190565b0390f35b8061014f565b905035906101678261021f565b906020828203126101565761014191610225565b346101565761021b61020861025c366004610232565b61079e565b7f4e487b71000000000000000000000000000000000000000000000000000000005f52604160045260245ffd5b90601f01601f1916810190811067ffffffffffffffff8211176102b057604052565b610261565b906101676102c260405190565b928361028e565b67ffffffffffffffff81116102b057602090601f01601f19160190565b0190565b90825f939282370152565b9092919261030a610305826102c9565b6102b5565b9381855281830111610156576101679160208501906102ea565b9080601f8301121561015657816020610141933591016102f5565b91909160408184031261015657610356838261015a565b92602082013567ffffffffffffffff8111610156576101419201610324565b61038961038336600461033f565b906107d8565b604051005b5f91031261015657565b34610156576103a836600461038e565b61021b6103b3610832565b6040519182918290815260200190565b34610156576103d336600461038e565b610389610872565b909182601f830112156101565781359167ffffffffffffffff831161015657602001926020830284011161015657565b9060208282031261015657813567ffffffffffffffff81116101565761043192016103db565b9091565b346101565761038961044836600461040b565b90610eb9565b346101565761045e36600461038e565b610389610ec3565b346101565761047636600461038e565b610389611156565b346101565761048e36600461038e565b61021b61049961115e565b604051918291826001600160a01b03909116815260200190565b34610156576103896104c6366004610169565b61120a565b906104d8610305836102c9565b918252565b6104e760056104cb565b7f352e302e30000000000000000000000000000000000000000000000000000000602082015290565b6101416104dd565b610141610510565b610141610518565b90825f9392825e0152565b61055461055d6020936102e693610548815190565b80835293849260200190565b95869101610528565b601f01601f191690565b602080825261014192910190610533565b346101565761058836600461038e565b61021b610593610520565b60405191829182610567565b80151561014f565b905035906101678261059f565b9190604083820312610156576101419060206105d0828661015a565b94016105a7565b34610156576103896105ea3660046105b4565b9061128b565b908160a09103126101565790565b908160609103126101565790565b908160409103126101565790565b9091610100828403126101565761063183836105f0565b9260a08301359067ffffffffffffffff82116101565760c0610658826101419487016105fe565b940161060c565b346101565761021b6103b361067536600461061a565b91611295565b610120818303126101565761069082826105f0565b9260a082013567ffffffffffffffff8111610156576106b4846101419285016105fe565b936101006106c58260c0870161060c565b940161015a565b34610156576103896106df36600461067b565b9291909161136b565b34610156576106f836600461038e565b61021b610499611377565b346101565761071336600461038e565b61021b6104996113a1565b3461015657610389610731366004610169565b61142b565b91909160c0818403126101565761074d83826105f0565b9260a082013567ffffffffffffffff81116101565761014192016105fe565b346101565761038961077f366004610736565b90611796565b906101af565b610141906101c4565b610141905461078b565b6107b3610141916107ac5f90565b505f610785565b610794565b90610167916107c56117a0565b90610167916107d381611845565b61186f565b90610167916107b8565b610141906107ee611985565b610829565b6101416101416101419290565b6101417f360894a13ba1a3210667c828492db98dca3e2076cc3735a920a3ca505d382bbc6107f3565b50610141610800565b6101415f6107e2565b6108436119c7565b610167610861565b6101356101416101419290565b6101419061084b565b61016761086d5f610858565b611a20565b61016761083b565b61014190610135565b610141905461087a565b1561089457565b7f5c17929c000000000000000000000000000000000000000000000000000000005f90815260045b035ffd5b90610167916108e46108dd6101356108d86002610883565b61019c565b331461088d565b906108f6916108f1611a8e565b610cc5565b610167611b04565b7f4e487b71000000000000000000000000000000000000000000000000000000005f52603260045260245ffd5b9035907ffffffffffffffffffffffffffffffffffffffffffffffffffffffffffffffee13682900301821215610156570190565b90821015610976576020610141920281019061092b565b6108fe565b9035907fffffffffffffffffffffffffffffffffffffffffffffffffffffffffffffffa13682900301821215610156570190565b61014f8161087a565b90503590610167826109af565b506101419060208101906109b8565b6101e99061019c565b50610141906020810190610225565b5061014190602081019061015a565b906080610a7261016793610a1b610a145f8301836109c5565b85906109d4565b610a32610a2b60208301836109dd565b6020860152565b610a52610a4260408301836109ec565b6001600160a01b03166040860152565b610a69610a6260608301836109dd565b6060860152565b828101906109dd565b910152565b9035601e19368390030181121561015657016020813591019167ffffffffffffffff82116101565736829003831361015657565b919061055d81610ac2816102e69560209181520190565b80956102ea565b610141916060810191610b0e90610aea610ae382806109c5565b84906109d4565b610b04610afa60208301836109c5565b60208501906109d4565b6040810190610a77565b916040818503910152610aab565b906020610a7261016793610a69610b355f8301836109dd565b8552565b939290610b6560c09161016794610b586101008901925f8a01906109fb565b87820360a0890152610ac9565b940190610b1c565b15610b755750565b7f02ae88ad000000000000000000000000000000000000000000000000000000005f908152600491909152602490fd5b35610141816109af565b903590601e193682900301821215610156570180359067ffffffffffffffff8211610156576020019136829003831361015657565b9050519061016782610144565b906020828203126101565761014191610be4565b602080825261014193910191610aab565b6040513d5f823e3d90fd5b15610c2857565b7f9c8d2cd2000000000000000000000000000000000000000000000000000000005f908152600490fd5b91906008610c6b910291610c6660ff841b90565b921b90565b9181191691161790565b9190610c86610141610c8e93151590565b908354610c52565b9055565b610167915f91610c75565b356101418161021f565b916020610167929493610cc160408201965f8301906109d4565b0152565b610cce5f6107f3565b82811015610eb457610ce181848461095f565b90610da360a08301602084610d79610d6d6108d884610d67610d4a86610d34610d0a8b8361097b565b60c08a0192610d28610d1b60405190565b9485938985019384610b39565b9081038252038261028e565b610d46610d3f825190565b9160200190565b2090565b97610d6189610d5c6107b3825f610785565b610b6d565b8661097b565b01610ba5565b91610100810190610baf565b9190610d8460405190565b809681948293610d98635d15846160e01b90565b845260048401610c05565b03915afa8015610eaf57610e7294610e6c935f92610e77575b50610e60610e6691610de5610dd36101355f610858565b6001600160a01b0386165b1415610c21565b610df85f610df38782610785565b610c92565b806020610e0482610ba5565b9101957f6da464ca823ff64f70cc9030a3849d08d4d4a1dffae2d22061d6da0f2d6f6997610e38610e3489610c9d565b9290565b91610e428861019c565b93610e58610e4f60405190565b92839283610ca7565b0390a3610ba5565b92610c9d565b91611b93565b60010190565b610cce565b610e66919250610ea0610e609160203d8111610ea8575b610e98818361028e565b810190610bf1565b929150610dbc565b503d610e8e565b610c16565b505050565b90610167916108c0565b33610ecc611377565b610ee76001600160a01b0383165b916001600160a01b031690565b03610ef55761016790611a20565b7f118cdaa7000000000000000000000000000000000000000000000000000000005f9081526001600160a01b039091166004526024035ffd5b6101419060401c6101c4565b6101419054610f2e565b610141905b67ffffffffffffffff1690565b6101419054610f44565b610f496101416101419290565b9067ffffffffffffffff90610c6b565b610f496101416101419267ffffffffffffffff1690565b90610fa4610141610c8e92610f7d565b8254610f6d565b9068ff00000000000000009060401b610c6b565b90610fcf610141610c8e92151590565b8254610fab565b6101e990610f60565b6020810192916101679190610fd6565b610ff7611bdb565b8061101161100b61100783610f3a565b1590565b92610f56565b9161101b5f610f60565b67ffffffffffffffff84161480611136575b60019361104a61103c86610f60565b9167ffffffffffffffff1690565b14908161110e575b155b9081611105575b506110db57806110775f61106e86610f60565b94019384610f94565b6110cc575b61108461113d565b61108c575050565b7fc7f505b2f371ae2175ee4913f4499e1f2633a7b5936321eed1cdaeb6115181d2916110bb5f6110c793610fbf565b60405191829182610fdf565b0390a1565b6110d68383610fbf565b61107c565b7ff92ee8a9000000000000000000000000000000000000000000000000000000005f908152600490fd5b1590505f61105b565b905061105461111c3061019c565b3b61112d6111295f6107f3565b9190565b14919050611052565b508061102d565b61114633611bf8565b61114e611c09565b610167611c24565b610167610fef565b6101415f7f9016d09d72d40fdae2fd8ceac6b6234c7706214fd39c1cd1e609a0528c1993005b01610883565b610167906111966119c7565b6111c1565b906001600160a01b0390610c6b565b906111ba610141610c8e9261019c565b825461119b565b6111d8906108d86111d18261019c565b60026111aa565b7fa49730bff544fd0b716395c592e39c6fd2d2481a19b9229b5b240483db95a49561120260405190565b80805b0390a2565b6101679061118a565b90610167916112206119c7565b611245565b9060ff90610c6b565b9061123e610141610c8e92151590565b8254611225565b6112056112817f60209f49f531418079ff149eb1d71f100566dcaba03bf5a34930e08111df20c4926108d88561127c8360016101a5565b61122e565b9261020c60405190565b9061016791611213565b6101419291610d3491610d286112aa60405190565b948593602085019384610b39565b906108f69392916112c7611a8e565b6112fd565b156112d357565b7fc3f236db000000000000000000000000000000000000000000000000000000005f908152600490fd5b91610e60611359610d28610d34610e669461016798966113296113246107b33360016101a5565b6112cc565b6113476113386101355f610858565b6001600160a01b038a16610dde565b60405193849260208401928b84610b39565b93610de585610d5c6107b3825f610785565b906101679392916112b8565b6101415f7f237e158222e3e6968b72b9db0d8043aacf074ad9f650f0d1606b4d82ee432c00611184565b6101416108d86002610883565b610167906113ba6119c7565b6113e7815f7f237e158222e3e6968b72b9db0d8043aacf074ad9f650f0d1606b4d82ee432c005b016111aa565b6113fb6113f56108d861115e565b9161019c565b907f38d16b8cac22d99fc7c124b9cd0de2d3fa1faef420bfe791d8c362d765e2270061142660405190565b5f90a3565b610167906113ae565b906108f691611441611a8e565b611604565b9081526040810192916101679160200152565b15611462575050565b7f6f08ee6e000000000000000000000000000000000000000000000000000000005f908152916108bc916004611446565b1561149a57565b7ffe9ba5cd000000000000000000000000000000000000000000000000000000005f908152600490fd5b3561014181610144565b156114d557565b7f9be803a2000000000000000000000000000000000000000000000000000000005f908152600490fd5b15611508575050565b7f6d6c55e8000000000000000000000000000000000000000000000000000000005f908152916108bc916004611446565b1561154057565b7f027585ad000000000000000000000000000000000000000000000000000000005f908152600490fd5b1561157157565b7fa46df864000000000000000000000000000000000000000000000000000000005f908152600490fd5b9392906115ba60c09161016794610b586101008901925f8a01906109fb565b94019080518252602090810151910152565b156115d45750565b7f93b45bbf000000000000000000000000000000000000000000000000000000005f908152600491909152602490fd5b9061177b5f610167936116336060820161162c61162361014183610c9d565b42111591610c9d565b4291611459565b602081019361165661164486610c9d565b611650611129866107f3565b11611493565b61167b611665604084016114c4565b611674610eda61013587610858565b14156114ce565b61169e6080830161169661168e82610c9d565b461491610c9d565b9046906114ff565b6116c26116af6108d8858401610ba5565b3b6116bc611129866107f3565b11611539565b6116e76116d46108d860208401610ba5565b3b6116e1611129866107f3565b1161156a565b7f8b4cbc791dddb376fb89eba475c41896f97673ece5db78a30bb2340d2772cb45611710611c52565b61175b61173361171f60405190565b610d348160208101610d28878a8c8461159b565b61174c816117476110076107b3838c610785565b6115cc565b610141600161127c838a610785565b9261177261176860405190565b928392878461159b565b0390a201610ba5565b9061178e6117883061019c565b91610c9d565b913390611c93565b9061016791611434565b6117a93061019c565b7f0000000000000000000000000000000000000000000000000000000000000000906117dd6001600160a01b038316610eda565b14908115611817575b506117ed57565b7fe07c8dba000000000000000000000000000000000000000000000000000000005f908152600490fd5b9050611834610eda611827611cc9565b926001600160a01b031690565b14155f6117e6565b506101676119c7565b6101679061183c565b905051906101678261021f565b90602082820312610156576101419161184e565b9061187c6108d88361019c565b90602061188860405190565b7f52d1902d00000000000000000000000000000000000000000000000000000000815292839060049082905afa5f9281611954575b5061190657505060016118cd5750565b7f4c9c8ce3000000000000000000000000000000000000000000000000000000005f9081526001600160a01b039091166004526024035ffd5b909291611914610141610800565b840361192557610167929350611cd8565b7faa1d49a4000000000000000000000000000000000000000000000000000000005f9081526004859052602490fd5b61197791935060203d60201161197e575b61196f818361028e565b81019061185b565b915f6118bd565b503d611965565b61198e3061019c565b6119c06001600160a01b037f000000000000000000000000000000000000000000000000000000000000000016610eda565b036117ed57565b6119cf61115e565b33906119da82610eda565b03610ef55750565b91906008610c6b910291610c666001600160a01b03841b90565b9190611a0d610141610c8e9361019c565b9083546119e2565b610167915f916119fc565b61016790611a4e5f7f237e158222e3e6968b72b9db0d8043aacf074ad9f650f0d1606b4d82ee432c00611a15565b611d42565b6101419081565b6101419054611a53565b61014160026107f3565b905f1990610c6b565b90611a87610141610c8e926107f3565b8254611a6e565b7f9b779b17422d0df92223018b32b4d1fa46e071723d6817e2486d003becc55f00611ab881611a5a565b611ac0611a64565b908114611ad05761016791611a77565b7f3ee5aeb5000000000000000000000000000000000000000000000000000000005f908152600490fd5b61014160016107f3565b6101677f9b779b17422d0df92223018b32b4d1fa46e071723d6817e2486d003becc55f005f611b31611afa565b9101611a77565b611b51611b4b6101419263ffffffff1690565b60e01b90565b7fffffffff000000000000000000000000000000000000000000000000000000001690565b6001600160a01b0390911681526040810192916101679160200152565b611bd6600492611bc761016795611bad63a9059cbb611b38565b92611bb760405190565b9687946020860190815201611b76565b6020820181038252038361028e565b611da7565b610141611e79565b61016790611bef611e81565b61016790611f2d565b61016790611be3565b610167611e81565b610167611c01565b611c19611e81565b610167610167611f3e565b610167611c11565b61014160406102b5565b611c3e611c2c565b905f82525f6020830152565b610141611c36565b611c5a611c4a565b9061016782611c67438252565b602042910152565b6001600160a01b039182168152911660208201526060810192916101679160400152565b90611bd690611bc761016795600495611caf6323b872dd611b38565b93611cb960405190565b9788956020870190815201611c6f565b6101415f611184610141610800565b90611ce282611f46565b611ceb8261019c565b7fbc7cd75a20ee27fd9adebab32041f755214dbc6bffa90cc0225b39da2e5c2d3b611d1560405190565b5f90a28051611d266111295f6107f3565b1115611d3857611d3591611fc2565b50565b5050610167611f69565b611d7c6113f57f9016d09d72d40fdae2fd8ceac6b6234c7706214fd39c1cd1e609a0528c1993006108d884611d7683610883565b926111aa565b907f8be0079c531659141344cd1fd0a4f28419497f9722a3daafe3b4186f6b6457e061142660405190565b905f602091611db35f90565b50828151910182855af115610c16573d5f5190611dd26111295f6107f3565b03611e3c5750611de18161019c565b3b611dee6111295f6107f3565b145b611df75750565b6108bc611e045f9261019c565b7f5274afe70000000000000000000000000000000000000000000000000000000083526001600160a01b031660048301526024820190565b611e4961112960016107f3565b1415611df0565b6101417ff0c57e16840df040f15088dc2f81fe391c3923bec73e23a9662efc9c229c6a006107f3565b610141611e50565b611e8c611007611fe8565b611e9257565b7fd7e6bcf8000000000000000000000000000000000000000000000000000000005f908152600490fd5b61016790611ec8611e81565b611ed15f610858565b6001600160a01b0381166001600160a01b03831614611ef4575061016790611a20565b7f1e4fbdf7000000000000000000000000000000000000000000000000000000005f9081526001600160a01b039091166004526024035ffd5b61016790611ebc565b6108f6611e81565b610167611f36565b803b611f546111295f6107f3565b146118cd57610167905f6113e1610141610800565b611f725f6107f3565b3411611f7a57565b7fb398979f000000000000000000000000000000000000000000000000000000005f908152600490fd5b3d15611fbd57611fb33d6104cb565b903d5f602084013e565b606090565b5f8061014193611fd0606090565b50602081519101845af4611fe2611fa4565b91611ffa565b6101415f611ff4611bdb565b01610f3a565b906120055750612070565b81516120136111295f6107f3565b148061205b575b612022575090565b7f9996b315000000000000000000000000000000000000000000000000000000005f9081526001600160a01b039091166004526024035ffd5b50803b61206a6111295f6107f3565b1461201a565b805161207e6111295f6107f3565b111561208c57805190602001fd5b7fd6bda275000000000000000000000000000000000000000000000000000000005f908152600490fdfea2646970667358221220a6bdfb5b45d496cd4b4ae5b66844852f16e160c3b98cfebbffe7ef8f27f79e7064736f6c634300081c0033",
    "linkReferences": {},
    "deployedLinkReferences": {},
    "immutableReferences": {
        "8704": [
            {
                "length": 32,
                "start": 6059
            },
            {
                "length": 32,
                "start": 6555
            }
        ]
    },
    "inputSourceName": "project/contracts/v3/DepositorySrc.sol",
    "buildInfoId": "solc-0_8_28-ce5414e27b62102c81dc9a8d88c7bcbc3bdca6f9"
}