{
    "_format": "hh3-artifact-1",
    "contractName": "DepositorySrc",
    "sourceName": "contracts/v3/DepositorySrc.sol",
    "abi": [
        {
            "inputs": [],
            "stateMutability": "nonpayable",
            "type": "constructor"
        },
        {
            "inputs": [
                {
                    "internalType": "address",
                    "name": "target",
                    "type": "address"
                }
            ],
            "name": "AddressEmptyCode",
            "type": "error"
        },
        {
            "inputs": [],
            "name": "BridgeNotSet",
            "type": "error"
        },
        {
            "inputs": [
                {
                    "internalType": "address",
                    "name": "implementation",
                    "type": "address"
                }
            ],
            "name": "ERC1967InvalidImplementation",
            "type": "error"
        },
        {
            "inputs": [],
            "name": "ERC1967NonPayable",
            "type": "error"
        },
        {
            "inputs": [],
            "name": "FailedCall",
            "type": "error"
        },
        {
            "inputs": [
                {
                    "internalType": "IntentID",
                    "name": "intentId",
                    "type": "bytes32"
                }
            ],
            "name": "IntentAlreadyLocked",
            "type": "error"
        },
        {
            "inputs": [
                {
                    "internalType": "uint256",
                    "name": "quoteTTL",
                    "type": "uint256"
                },
                {
                    "internalType": "uint256",
                    "name": "currentTime",
                    "type": "uint256"
                }
            ],
            "name": "IntentExpired",
            "type": "error"
        },
        {
            "inputs": [
                {
                    "internalType": "IntentID",
                    "name": "intentId",
                    "type": "bytes32"
                }
            ],
            "name": "IntentNotLocked",
            "type": "error"
        },
        {
            "inputs": [],
            "name": "InvalidDepositAmount",
            "type": "error"
        },
        {
            "inputs": [],
            "name": "InvalidDepositor",
            "type": "error"
        },
        {
            "inputs": [],
            "name": "InvalidFillUnlocker",
            "type": "error"
        },
        {
            "inputs": [],
            "name": "InvalidInitialization",
            "type": "error"
        },
        {
            "inputs": [],
            "name": "InvalidRecipient",
            "type": "error"
        },
        {
            "inputs": [],
            "name": "InvalidSettlementUnlocker",
            "type": "error"
        },
        {
            "inputs": [
                {
                    "internalType": "uint256",
                    "name": "expected",
                    "type": "uint256"
                },
                {
                    "internalType": "uint256",
                    "name": "actual",
                    "type": "uint256"
                }
            ],
            "name": "NativeAmountMismatch",
            "type": "error"
        },
        {
            "inputs": [],
            "name": "NativeTransferFailed",
            "type": "error"
        },
        {
            "inputs": [],
            "name": "NotInitializing",
            "type": "error"
        },
        {
            "inputs": [
                {
                    "internalType": "address",
                    "name": "owner",
                    "type": "address"
                }
            ],
            "name": "OwnableInvalidOwner",
            "type": "error"
        },
        {
            "inputs": [
                {
                    "internalType": "address",
                    "name": "account",
                    "type": "address"
                }
            ],
            "name": "OwnableUnauthorizedAccount",
            "type": "error"
        },
        {
            "inputs": [],
            "name": "ReentrancyGuardReentrantCall",
            "type": "error"
        },
        {
            "inputs": [
                {
                    "internalType": "address",
                    "name": "token",
                    "type": "address"
                }
            ],
            "name": "SafeERC20FailedOperation",
            "type": "error"
        },
        {
            "inputs": [],
            "name": "UUPSUnauthorizedCallContext",
            "type": "error"
        },
        {
            "inputs": [
                {
                    "internalType": "bytes32",
                    "name": "slot",
                    "type": "bytes32"
                }
            ],
            "name": "UUPSUnsupportedProxiableUUID",
            "type": "error"
        },
        {
            "inputs": [],
            "name": "UnauthorizedBridge",
            "type": "error"
        },
        {
            "inputs": [],
            "name": "UnauthorizedUnlocker",
            "type": "error"
        },
        {
            "inputs": [],
            "name": "UnexpectedNativeValue",
            "type": "error"
        },
        {
            "inputs": [
                {
                    "internalType": "uint256",
                    "name": "expected",
                    "type": "uint256"
                },
                {
                    "internalType": "uint256",
                    "name": "actual",
                    "type": "uint256"
                }
            ],
            "name": "WrongSrcChain",
            "type": "error"
        },
        {
            "anonymous": false,
            "inputs": [
                {
                    "indexed": true,
                    "internalType": "address",
                    "name": "bridge",
                    "type": "address"
                }
            ],
            "name": "BridgeSet",
            "type": "event"
        },
        {
            "anonymous": false,
            "inputs": [
                {
                    "indexed": false,
                    "internalType": "bytes32",
                    "name": "intentId",
                    "type": "bytes32"
                },
                {
                    "indexed": true,
                    "internalType": "bytes32",
                    "name": "clientId",
                    "type": "bytes32"
                }
            ],
            "name": "ClientIdLog",
            "type": "event"
        },
        {
            "anonymous": false,
            "inputs": [
                {
                    "indexed": false,
                    "internalType": "uint64",
                    "name": "version",
                    "type": "uint64"
                }
            ],
            "name": "Initialized",
            "type": "event"
        },
        {
            "anonymous": false,
            "inputs": [
                {
                    "indexed": true,
                    "internalType": "IntentID",
                    "name": "intentId",
                    "type": "bytes32"
                },
                {
                    "components": [
                        {
                            "internalType": "contract IERC20",
                            "name": "token",
                            "type": "address"
                        },
                        {
                            "internalType": "uint256",
                            "name": "amount",
                            "type": "uint256"
                        },
                        {
                            "internalType": "address",
                            "name": "depositor",
                            "type": "address"
                        },
                        {
                            "internalType": "uint256",
                            "name": "quoteTTL",
                            "type": "uint256"
                        },
                        {
                            "internalType": "uint256",
                            "name": "srcChainId",
                            "type": "uint256"
                        }
                    ],
                    "indexed": false,
                    "internalType": "struct DepositoryTypes.DepositParams",
                    "name": "depositParams",
                    "type": "tuple"
                },
                {
                    "components": [
                        {
                            "internalType": "contract IFillUnlocker",
                            "name": "fillUnlocker",
                            "type": "address"
                        },
                        {
                            "internalType": "contract ISettlementUnlocker",
                            "name": "settlementUnlocker",
                            "type": "address"
                        },
                        {
                            "internalType": "bytes",
                            "name": "condition",
                            "type": "bytes"
                        }
                    ],
                    "indexed": false,
                    "internalType": "struct DepositoryTypes.FillCondition",
                    "name": "fillCondition",
                    "type": "tuple"
                },
                {
                    "components": [
                        {
                            "internalType": "uint256",
                            "name": "blockNumber",
                            "type": "uint256"
                        },
                        {
                            "internalType": "uint256",
                            "name": "timestamp",
                            "type": "uint256"
                        }
                    ],
                    "indexed": false,
                    "internalType": "struct DepositoryTypes.BlockchainState",
                    "name": "lockState",
                    "type": "tuple"
                }
            ],
            "name": "IntentLocked",
            "type": "event"
        },
        {
            "anonymous": false,
            "inputs": [
                {
                    "indexed": true,
                    "internalType": "IntentID",
                    "name": "intentId",
                    "type": "bytes32"
                },
                {
                    "indexed": true,
                    "internalType": "address",
                    "name": "settlementUnlocker",
                    "type": "address"
                },
                {
                    "indexed": false,
                    "internalType": "bytes",
                    "name": "solution",
                    "type": "bytes"
                },
                {
                    "indexed": false,
                    "internalType": "contract IERC20",
                    "name": "token",
                    "type": "address"
                },
                {
                    "indexed": false,
                    "internalType": "uint256",
                    "name": "amount",
                    "type": "uint256"
                }
            ],
            "name": "IntentUnlocked",
            "type": "event"
        },
        {
            "anonymous": false,
            "inputs": [
                {
                    "indexed": true,
                    "internalType": "address",
                    "name": "previousOwner",
                    "type": "address"
                },
                {
                    "indexed": true,
                    "internalType": "address",
                    "name": "newOwner",
                    "type": "address"
                }
            ],
            "name": "OwnershipTransferStarted",
            "type": "event"
        },
        {
            "anonymous": false,
            "inputs": [
                {
                    "indexed": true,
                    "internalType": "address",
                    "name": "previousOwner",
                    "type": "address"
                },
                {
                    "indexed": true,
                    "internalType": "address",
                    "name": "newOwner",
                    "type": "address"
                }
            ],
            "name": "OwnershipTransferred",
            "type": "event"
        },
        {
            "anonymous": false,
            "inputs": [
                {
                    "indexed": true,
                    "internalType": "address",
                    "name": "unlocker",
                    "type": "address"
                },
                {
                    "indexed": false,
                    "internalType": "bool",
                    "name": "enabled",
                    "type": "bool"
                }
            ],
            "name": "UnlockerSet",
            "type": "event"
        },
        {
            "anonymous": false,
            "inputs": [
                {
                    "indexed": true,
                    "internalType": "address",
                    "name": "implementation",
                    "type": "address"
                }
            ],
            "name": "Upgraded",
            "type": "event"
        },
        {
            "inputs": [],
            "name": "UPGRADE_INTERFACE_VERSION",
            "outputs": [
                {
                    "internalType": "string",
                    "name": "",
                    "type": "string"
                }
            ],
            "stateMutability": "view",
            "type": "function"
        },
        {
            "inputs": [],
            "name": "acceptOwnership",
            "outputs": [],
            "stateMutability": "nonpayable",
            "type": "function"
        },
        {
            "inputs": [],
            "name": "bridge",
            "outputs": [
                {
                    "internalType": "address",
                    "name": "",
                    "type": "address"
                }
            ],
            "stateMutability": "view",
            "type": "function"
        },
        {
            "inputs": [
                {
                    "components": [
                        {
                            "internalType": "contract IERC20",
                            "name": "token",
                            "type": "address"
                        },
                        {
                            "internalType": "uint256",
                            "name": "amount",
                            "type": "uint256"
                        },
                        {
                            "internalType": "address",
                            "name": "depositor",
                            "type": "address"
                        },
                        {
                            "internalType": "uint256",
                            "name": "quoteTTL",
                            "type": "uint256"
                        },
                        {
                            "internalType": "uint256",
                            "name": "srcChainId",
                            "type": "uint256"
                        }
                    ],
                    "internalType": "struct DepositoryTypes.DepositParams",
                    "name": "depositParams",
                    "type": "tuple"
                },
                {
                    "components": [
                        {
                            "internalType": "contract IFillUnlocker",
                            "name": "fillUnlocker",
                            "type": "address"
                        },
                        {
                            "internalType": "contract ISettlementUnlocker",
                            "name": "settlementUnlocker",
                            "type": "address"
                        },
                        {
                            "internalType": "bytes",
                            "name": "condition",
                            "type": "bytes"
                        }
                    ],
                    "internalType": "struct DepositoryTypes.FillCondition",
                    "name": "fillCondition",
                    "type": "tuple"
                },
                {
                    "internalType": "bytes32",
                    "name": "clientId",
                    "type": "bytes32"
                }
            ],
            "name": "deposit",
            "outputs": [],
            "stateMutability": "payable",
            "type": "function"
        },
        {
            "inputs": [
                {
                    "internalType": "IntentID",
                    "name": "intentId",
                    "type": "bytes32"
                }
            ],
            "name": "deposits",
            "outputs": [
                {
                    "internalType": "bool",
                    "name": "",
                    "type": "bool"
                }
            ],
            "stateMutability": "view",
            "type": "function"
        },
        {
            "inputs": [
                {
                    "internalType": "address",
                    "name": "owner_",
                    "type": "address"
                }
            ],
            "name": "initialize",
            "outputs": [],
            "stateMutability": "nonpayable",
            "type": "function"
        },
        {
            "inputs": [
                {
                    "components": [
                        {
                            "internalType": "contract IERC20",
                            "name": "token",
                            "type": "address"
                        },
                        {
                            "internalType": "uint256",
                            "name": "amount",
                            "type": "uint256"
                        },
                        {
                            "internalType": "address",
                            "name": "depositor",
                            "type": "address"
                        },
                        {
                            "internalType": "uint256",
                            "name": "quoteTTL",
                            "type": "uint256"
                        },
                        {
                            "internalType": "uint256",
                            "name": "srcChainId",
                            "type": "uint256"
                        }
                    ],
                    "internalType": "struct DepositoryTypes.DepositParams",
                    "name": "depositParams",
                    "type": "tuple"
                },
                {
                    "components": [
                        {
                            "internalType": "contract IFillUnlocker",
                            "name": "fillUnlocker",
                            "type": "address"
                        },
                        {
                            "internalType": "contract ISettlementUnlocker",
                            "name": "settlementUnlocker",
                            "type": "address"
                        },
                        {
                            "internalType": "bytes",
                            "name": "condition",
                            "type": "bytes"
                        }
                    ],
                    "internalType": "struct DepositoryTypes.FillCondition",
                    "name": "fillCondition",
                    "type": "tuple"
                },
                {
                    "components": [
                        {
                            "internalType": "uint256",
                            "name": "blockNumber",
                            "type": "uint256"
                        },
                        {
                            "internalType": "uint256",
                            "name": "timestamp",
                            "type": "uint256"
                        }
                    ],
                    "internalType": "struct DepositoryTypes.BlockchainState",
                    "name": "lockState",
                    "type": "tuple"
                }
            ],
            "name": "intentID",
            "outputs": [
                {
                    "internalType": "IntentID",
                    "name": "",
                    "type": "bytes32"
                }
            ],
            "stateMutability": "pure",
            "type": "function"
        },
        {
            "inputs": [],
            "name": "owner",
            "outputs": [
                {
                    "internalType": "address",
                    "name": "",
                    "type": "address"
                }
            ],
            "stateMutability": "view",
            "type": "function"
        },
        {
            "inputs": [],
            "name": "pendingOwner",
            "outputs": [
                {
                    "internalType": "address",
                    "name": "",
                    "type": "address"
                }
            ],
            "stateMutability": "view",
            "type": "function"
        },
        {
            "inputs": [],
            "name": "proxiableUUID",
            "outputs": [
                {
                    "internalType": "bytes32",
                    "name": "",
                    "type": "bytes32"
                }
            ],
            "stateMutability": "view",
            "type": "function"
        },
        {
            "inputs": [],
            "name": "renounceOwnership",
            "outputs": [],
            "stateMutability": "nonpayable",
            "type": "function"
        },
        {
            "inputs": [
                {
                    "internalType": "address",
                    "name": "bridge_",
                    "type": "address"
                }
            ],
            "name": "setBridge",
            "outputs": [],
            "stateMutability": "nonpayable",
            "type": "function"
        },
        {
            "inputs": [
                {
                    "internalType": "address",
                    "name": "unlocker",
                    "type": "address"
                },
                {
                    "internalType": "bool",
                    "name": "enabled",
                    "type": "bool"
                }
            ],
            "name": "setUnlocker",
            "outputs": [],
            "stateMutability": "nonpayable",
            "type": "function"
        },
        {
            "inputs": [
                {
                    "internalType": "address",
                    "name": "newOwner",
                    "type": "address"
                }
            ],
            "name": "transferOwnership",
            "outputs": [],
            "stateMutability": "nonpayable",
            "type": "function"
        },
        {
            "inputs": [
                {
                    "components": [
                        {
                            "internalType": "contract IERC20",
                            "name": "token",
                            "type": "address"
                        },
                        {
                            "internalType": "uint256",
                            "name": "amount",
                            "type": "uint256"
                        },
                        {
                            "internalType": "address",
                            "name": "depositor",
                            "type": "address"
                        },
                        {
                            "internalType": "uint256",
                            "name": "quoteTTL",
                            "type": "uint256"
                        },
                        {
                            "internalType": "uint256",
                            "name": "srcChainId",
                            "type": "uint256"
                        }
                    ],
                    "internalType": "struct DepositoryTypes.DepositParams",
                    "name": "depositParams",
                    "type": "tuple"
                },
                {
                    "components": [
                        {
                            "internalType": "contract IFillUnlocker",
                            "name": "fillUnlocker",
                            "type": "address"
                        },
                        {
                            "internalType": "contract ISettlementUnlocker",
                            "name": "settlementUnlocker",
                            "type": "address"
                        },
                        {
                            "internalType": "bytes",
                            "name": "condition",
                            "type": "bytes"
                        }
                    ],
                    "internalType": "struct DepositoryTypes.FillCondition",
                    "name": "fillCondition",
                    "type": "tuple"
                },
                {
                    "components": [
                        {
                            "internalType": "uint256",
                            "name": "blockNumber",
                            "type": "uint256"
                        },
                        {
                            "internalType": "uint256",
                            "name": "timestamp",
                            "type": "uint256"
                        }
                    ],
                    "internalType": "struct DepositoryTypes.BlockchainState",
                    "name": "lockState",
                    "type": "tuple"
                },
                {
                    "internalType": "address",
                    "name": "to",
                    "type": "address"
                }
            ],
            "name": "unlock",
            "outputs": [],
            "stateMutability": "nonpayable",
            "type": "function"
        },
        {
            "inputs": [
                {
                    "components": [
                        {
                            "components": [
                                {
                                    "internalType": "contract IERC20",
                                    "name": "token",
                                    "type": "address"
                                },
                                {
                                    "internalType": "uint256",
                                    "name": "amount",
                                    "type": "uint256"
                                },
                                {
                                    "internalType": "address",
                                    "name": "depositor",
                                    "type": "address"
                                },
                                {
                                    "internalType": "uint256",
                                    "name": "quoteTTL",
                                    "type": "uint256"
                                },
                                {
                                    "internalType": "uint256",
                                    "name": "srcChainId",
                                    "type": "uint256"
                                }
                            ],
                            "internalType": "struct DepositoryTypes.DepositParams",
                            "name": "depositParams",
                            "type": "tuple"
                        },
                        {
                            "components": [
                                {
                                    "internalType": "contract IFillUnlocker",
                                    "name": "fillUnlocker",
                                    "type": "address"
                                },
                                {
                                    "internalType": "contract ISettlementUnlocker",
                                    "name": "settlementUnlocker",
                                    "type": "address"
                                },
                                {
                                    "internalType": "bytes",
                                    "name": "condition",
                                    "type": "bytes"
                                }
                            ],
                            "internalType": "struct DepositoryTypes.FillCondition",
                            "name": "fillCondition",
                            "type": "tuple"
                        },
                        {
                            "components": [
                                {
                                    "internalType": "uint256",
                                    "name": "blockNumber",
                                    "type": "uint256"
                                },
                                {
                                    "internalType": "uint256",
                                    "name": "timestamp",
                                    "type": "uint256"
                                }
                            ],
                            "internalType": "struct DepositoryTypes.BlockchainState",
                            "name": "lockState",
                            "type": "tuple"
                        },
                        {
                            "internalType": "bytes",
                            "name": "solution",
                            "type": "bytes"
                        }
                    ],
                    "internalType": "struct DepositoryTypes.UnlockRequest[]",
                    "name": "requests",
                    "type": "tuple[]"
                }
            ],
            "name": "unlockBatch",
            "outputs": [],
            "stateMutability": "nonpayable",
            "type": "function"
        },
        {
            "inputs": [
                {
                    "internalType": "address",
                    "name": "",
                    "type": "address"
                }
            ],
            "name": "unlockers",
            "outputs": [
                {
                    "internalType": "bool",
                    "name": "",
                    "type": "bool"
                }
            ],
            "stateMutability": "view",
            "type": "function"
        },
        {
            "inputs": [
                {
                    "internalType": "address",
                    "name": "newImplementation",
                    "type": "address"
                },
                {
                    "internalType": "bytes",
                    "name": "data",
                    "type": "bytes"
                }
            ],
            "name": "upgradeToAndCall",
            "outputs": [],
            "stateMutability": "payable",
            "type": "function"
        },
        {
            "stateMutability": "payable",
            "type": "receive"
        }
    ],
    "bytecode": "0x60a06040523461003257610011610036565b6040516124076101ef8239608051818181611ae40152611cd4015261240790f35b5f80fd5b61003e610048565b610046610112565b565b61004661004661004661004661008e565b61006d90610070906001600160a01b031682565b90565b6001600160a01b031690565b61006d90610059565b61006d9061007c565b61009730610085565b608052565b61006d9060401c60ff1690565b61006d905461009c565b61006d905b6001600160401b031690565b61006d90546100b3565b61006d906100b8906001600160401b031682565b906100f261006d61010e926100ce565b82546001600160401b0319166001600160401b03919091161790565b9055565b5f61011b6101a8565b01610125816100a9565b61019757610132816100c4565b6001600160401b0391908290811603610149575050565b816101787fc7f505b2f371ae2175ee4913f4499e1f2633a7b5936321eed1cdaeb6115181d293610192936100e2565b604051918291826001600160401b03909116815260200190565b0390a1565b63f92ee8a960e01b5f908152600490fd5b61006d6101e6565b61006d61006d61006d9290565b61006d7ff0c57e16840df040f15088dc2f81fe391c3923bec73e23a9662efc9c229c6a006101b0565b61006d6101bd56fe6080604052600436101561001a575b3615610018575f80fd5b005b5f3560e01c8063172b09f9146101395780633d4dff7b146101345780634f1ef2861461012f57806352d1902d1461012a578063715018a61461012557806377b0173e1461012057806379ba50971461011b5780638da5cb5b146101165780638dd14802146101115780639e9c79971461010c578063ad3cb1cc14610107578063c4d66de814610102578063d3fff0f6146100fd578063d8248741146100f8578063db33467b146100f3578063e30c3978146100ee578063e78cea92146100e95763f2fde38b0361000e57610780565b610765565b61074a565b61072e565b6106c1565b610655565b610605565b6105de565b61051d565b6104a5565b610470565b610458565b61043f565b6103cd565b6103a1565b61037e565b61024f565b6101f6565b6001600160a01b031690565b90565b6001600160a01b0381165b0361015f57565b5f80fd5b905035906101708261014d565b565b9060208282031261015f5761014a91610163565b61013e61014a61014a926001600160a01b031690565b61014a90610186565b61014a9061019c565b906101b8906101a5565b5f5260205260405f2090565b61014a916008021c5b60ff1690565b9061014a91546101c4565b5f6101ed61014a9260016101ae565b6101d3565b9052565b3461015f5761022461021161020c366004610172565b6101de565b6040515b91829182901515815260200190565b0390f35b80610158565b9050359061017082610228565b9060208282031261015f5761014a9161022e565b3461015f5761022461021161026536600461023b565b6107b1565b7f4e487b71000000000000000000000000000000000000000000000000000000005f52604160045260245ffd5b90601f01601f1916810190811067ffffffffffffffff8211176102b957604052565b61026a565b906101706102cb60405190565b9283610297565b67ffffffffffffffff81116102b957602090601f01601f19160190565b0190565b90825f939282370152565b9092919261031361030e826102d2565b6102be565b938185528183011161015f576101709160208501906102f3565b9080601f8301121561015f5781602061014a933591016102fe565b91909160408184031261015f5761035f8382610163565b92602082013567ffffffffffffffff811161015f5761014a920161032d565b61039261038c366004610348565b906107eb565b604051005b5f91031261015f57565b3461015f576103b1366004610397565b6102246103bc610845565b6040515b9182918290815260200190565b3461015f576103dd366004610397565b610392610885565b909182601f8301121561015f5781359167ffffffffffffffff831161015f57602001926020830284011161015f57565b9060208282031261015f57813567ffffffffffffffff811161015f5761043b92016103e5565b9091565b3461015f57610392610452366004610415565b90610f7c565b3461015f57610468366004610397565b610392610f86565b3461015f57610480366004610397565b61022461048b610fe8565b604051918291826001600160a01b03909116815260200190565b3461015f576103926104b8366004610172565b611094565b908160a091031261015f5790565b9081606091031261015f5790565b909160e08284031261015f576104ef83836104bd565b9260a08301359067ffffffffffffffff821161015f5760c06105168261014a9487016104cb565b940161022e565b61039261052b3660046104d9565b91611539565b9061053e61030e836102d2565b918252565b61054d6005610531565b7f352e302e30000000000000000000000000000000000000000000000000000000602082015290565b61014a610543565b61014a610576565b61014a61057e565b90825f9392825e0152565b6105ba6105c36020936102ef936105ae815190565b80835293849260200190565b9586910161058e565b601f01601f191690565b602080825261014a92910190610599565b3461015f576105ee366004610397565b6102246105f9610586565b604051918291826105cd565b3461015f57610392610618366004610172565b611764565b801515610158565b905035906101708261061d565b919060408382031261015f5761014a90602061064e8286610163565b9401610625565b3461015f57610392610668366004610632565b906117bb565b9081604091031261015f5790565b90916101008284031261015f5761069383836104bd565b9260a08301359067ffffffffffffffff821161015f5760c06106ba8261014a9487016104cb565b940161066e565b3461015f576102246103bc6106d736600461067c565b916117c5565b6101208183031261015f576106f282826104bd565b9260a082013567ffffffffffffffff811161015f576107168461014a9285016104cb565b936101006107278260c0870161066e565b9401610163565b3461015f576103926107413660046106dd565b92919091611a10565b3461015f5761075a366004610397565b61022461048b611a1c565b3461015f57610775366004610397565b61022461048b611a46565b3461015f57610392610793366004610172565b611ad0565b906101b8565b61014a906101cd565b61014a905461079e565b6107c661014a916107bf5f90565b505f610798565b6107a7565b90610170916107d8611ad9565b90610170916107e681611b7e565b611ba8565b90610170916107cb565b61014a90610801611cbe565b61083c565b61014a61014a61014a9290565b61014a7f360894a13ba1a3210667c828492db98dca3e2076cc3735a920a3ca505d382bbc610806565b5061014a610813565b61014a5f6107f5565b610856611d00565b610170610874565b61013e61014a61014a9290565b61014a9061085e565b6101706108805f61086b565b611d59565b61017061084e565b61014a9061013e565b61014a905461088d565b156108a757565b7f5c17929c000000000000000000000000000000000000000000000000000000005f90815260045b035ffd5b90610170916108f76108f061013e6108eb6002610896565b6101a5565b33146108a0565b9061090991610904611dc7565b610cc7565b610170611e3d565b7f4e487b71000000000000000000000000000000000000000000000000000000005f52603260045260245ffd5b9035907ffffffffffffffffffffffffffffffffffffffffffffffffffffffffffffffee1368290030182121561015f570190565b9082101561098957602061014a920281019061093e565b610911565b9035907fffffffffffffffffffffffffffffffffffffffffffffffffffffffffffffffa1368290030182121561015f570190565b6101588161088d565b90503590610170826109c2565b5061014a9060208101906109cb565b6101f2906101a5565b5061014a90602081019061022e565b5061014a906020810190610163565b906080610a8561017093610a2e610a275f8301836109d8565b85906109e7565b610a45610a3e60208301836109f0565b6020860152565b610a65610a5560408301836109ff565b6001600160a01b03166040860152565b610a7c610a7560608301836109f0565b6060860152565b828101906109f0565b910152565b9035601e19368390030181121561015f57016020813591019167ffffffffffffffff821161015f5736829003831361015f57565b91906105c381610ad5816102ef9560209181520190565b80956102f3565b61014a916060810191610b2190610afd610af682806109d8565b84906109e7565b610b17610b0d60208301836109d8565b60208501906109e7565b6040810190610a8a565b916040818503910152610abe565b906020610a8561017093610a7c610b485f8301836109f0565b8552565b939290610b7860c09161017094610b6b6101008901925f8a0190610a0e565b87820360a0890152610adc565b940190610b2f565b15610b885750565b7f02ae88ad000000000000000000000000000000000000000000000000000000005f908152600491909152602490fd5b91906008610bd1910291610bcc60ff841b90565b921b90565b9181191691161790565b9190610bec61014a610bf493151590565b908354610bb8565b9055565b610170915f91610bdb565b3561014a816109c2565b903590601e19368290030182121561015f570180359067ffffffffffffffff821161015f576020019136829003831361015f57565b3561014a81610228565b610c78610c6d6040936101709698979560608501918583035f870152610abe565b9660208301906109e7565b0152565b9160609361017096989795610ca3610c7894610cb19460808801918883035f8a0152610abe565b918583036020870152610abe565b9660408301906109e7565b6040513d5f823e3d90fd5b610cd05f610806565b82811015610f7757610ce3818484610972565b9060a0820182610d3b610d19610d25610cfc858561098e565b60c0850190610d0a60405190565b93849260208401928b84610b4c565b90810382520382610297565b610d37610d30825190565b9160200190565b2090565b91610d5283610d4d6107c6825f610798565b610b80565b610d655f610d608582610798565b610bf8565b610d7d6108eb6020610d77848661098e565b01610c03565b90610100830195610d8e8785610c0d565b909582917f5ddce0700a1a8691f425337a0d17990cc84e1e8d6d4b148b8ad8ae1a41f11f17906020610dbf85610c03565b940198610df2610dd5610dd18c610c42565b9590565b94610ddf8a6101a5565b96610de960405190565b94859485610c4c565b0390a3610e016108eb82610c03565b610e2773eeeeeeeeeeeeeeeeeeeeeeeeeeeeeeeeeeeeeeee5b916001600160a01b031690565b03610ee75790610e6d9163b8c621d790610e73610e65610e5d610e53610e4c8b610c42565b968a61098e565b6040810190610c0d565b9b9098610c0d565b959092610c03565b97610c42565b853b1561015f575f97610e9a95610ea593610e8d60405190565b9c8d9a8b998a9860e01b90565b885260048801610c7c565b03925af1918215610ee257610ec092610ec5575b5060010190565b610cd0565b610edc905f610ed48183610297565b810190610397565b5f610eb9565b610cbc565b92610f31610f23610f1b610e53610f2b9a95610f15610f058a610c03565b89610f0f8d610c42565b91611ecc565b8561098e565b949093610c0d565b989095610c03565b95610c42565b90833b1561015f57610ea55f96928793610f4a60405190565b9a8b98899788967fb8c621d700000000000000000000000000000000000000000000000000000000610e9a565b505050565b90610170916108d3565b33610f8f611a1c565b610fa16001600160a01b038316610e1a565b03610faf5761017090611d59565b7f118cdaa7000000000000000000000000000000000000000000000000000000005f9081526001600160a01b039091166004526024035ffd5b61014a5f7f9016d09d72d40fdae2fd8ceac6b6234c7706214fd39c1cd1e609a0528c1993005b01610896565b61017090611020611d00565b61104b565b906001600160a01b0390610bd1565b9061104461014a610bf4926101a5565b8254611025565b611062906108eb61105b826101a5565b6002611034565b7fa49730bff544fd0b716395c592e39c6fd2d2481a19b9229b5b240483db95a49561108c60405190565b80805b0390a2565b61017090611014565b9061090992916110ab611dc7565b6112f9565b9081526040810192916101709160200152565b156110cc575050565b7f6f08ee6e000000000000000000000000000000000000000000000000000000005f908152916108cf9160046110b0565b1561110457565b7ffe9ba5cd000000000000000000000000000000000000000000000000000000005f908152600490fd5b3561014a8161014d565b1561113f57565b7f9be803a2000000000000000000000000000000000000000000000000000000005f908152600490fd5b15611172575050565b7f6d6c55e8000000000000000000000000000000000000000000000000000000005f908152916108cf9160046110b0565b156111aa57565b7f027585ad000000000000000000000000000000000000000000000000000000005f908152600490fd5b156111db57565b7fa46df864000000000000000000000000000000000000000000000000000000005f908152600490fd5b93929061122460c09161017094610b6b6101008901925f8a0190610a0e565b94019080518252602090810151910152565b1561123e5750565b7f93b45bbf000000000000000000000000000000000000000000000000000000005f908152600491909152602490fd5b9060ff90610bd1565b9061128761014a610bf492151590565b825461126e565b1561129557565b7fe0aeda7d000000000000000000000000000000000000000000000000000000005f908152600490fd5b156112c8575050565b7f7e957b11000000000000000000000000000000000000000000000000000000005f908152916108cf9160046110b0565b5f916113216060830161131a61131161014a83610c42565b42111591610c42565b42916110c3565b7f5a297b2c9a9f94a0f4e5a796c74ad38e219d1185fccf5f79c18726a830c2b6f56114ab6114a1602085019661136f61135989610c42565b6113696113658a610806565b9190565b116110fd565b61139461137e6040880161112e565b61138d610e1a61013e8b61086b565b1415611138565b6113b9608087016113b16113a782610c42565b46905b1491610c42565b904690611169565b6113dd6113ca6108eb898801610c03565b3b6113d76113658a610806565b116111a3565b6114026113ef6108eb60208801610c03565b3b6113fc6113658a610806565b116111d4565b61140a611f3a565b947f8b4cbc791dddb376fb89eba475c41896f97673ece5db78a30bb2340d2772cb4561148261145061143b60405190565b610d25818c610d198d89602085019384611205565b61146e816114696114656107c68f8490610798565b1590565b611236565b61014a600161147d838e610798565b611277565b96879261149b61149160405190565b9283928c84611205565b0390a290565b926103c060405190565b0390a201906114bc6108eb83610c03565b6114d973eeeeeeeeeeeeeeeeeeeeeeeeeeeeeeeeeeeeeeee610e1a565b036114ff5761017091506114f86114f261014a83610c42565b346113aa565b34916112bf565b61151e610170926115196115125f610806565b341461128e565b610c03565b9061153161152b306101a5565b91610c42565b913390611f7b565b90610170929161109d565b61014a9060401c6101cd565b61014a9054611544565b61014a905b67ffffffffffffffff1690565b61014a905461155a565b61155f61014a61014a9290565b9067ffffffffffffffff90610bd1565b61155f61014a61014a9267ffffffffffffffff1690565b906115ba61014a610bf492611593565b8254611583565b9068ff00000000000000009060401b610bd1565b906115e561014a610bf492151590565b82546115c1565b6101f290611576565b60208101929161017091906115ec565b61160d611fb1565b8061162361161d61146583611550565b9161156c565b9261162d5f611576565b67ffffffffffffffff85161480611744575b60019461165c61164e87611576565b9167ffffffffffffffff1690565b149081611720575b155b9081611717575b506116ed57611696908261168d5f61168488611576565b960195866115aa565b6116de5761174b565b61169e575050565b7fc7f505b2f371ae2175ee4913f4499e1f2633a7b5936321eed1cdaeb6115181d2916116cd5f6116d9936115d5565b604051918291826115f5565b0390a1565b6116e885856115d5565b61174b565b7ff92ee8a9000000000000000000000000000000000000000000000000000000005f908152600490fd5b1590505f61166d565b905061166661172e306101a5565b3b61173b6113655f610806565b14919050611664565b508161163f565b61175490611fce565b61175c611fdf565b610170611ffa565b61017090611605565b906101709161177a611d00565b61108f6117b17f60209f49f531418079ff149eb1d71f100566dcaba03bf5a34930e08111df20c4926108eb8561147d8360016101ae565b9261021560405190565b906101709161176d565b61014a9291610d2591610d196117da60405190565b948593602085019384610b4c565b906109099392916117f7611dc7565b6118cd565b1561180357565b7fc3f236db000000000000000000000000000000000000000000000000000000005f908152600490fd5b1561183457565b7f9c8d2cd2000000000000000000000000000000000000000000000000000000005f908152600490fd5b60608082525f9082015290929161017091604090610c7860808201610c6d565b3d156118975761188d3d610531565b903d5f602084013e565b606090565b156118a357565b7ff4b3b1bc000000000000000000000000000000000000000000000000000000005f908152600490fd5b91610d25610d1991611921936118ef6118ea6107c63360016101ae565b6117fc565b61190f6118fe61013e5f61086b565b6001600160a01b038916141561182d565b60405193849260208401928884610b4c565b9061193382610d4d6107c6825f610798565b6119415f610d608482610798565b80602061194d82610c03565b9101927f5ddce0700a1a8691f425337a0d17990cc84e1e8d6d4b148b8ad8ae1a41f11f1761198161197d86610c42565b9290565b9161198b876101a5565b936119a161199860405190565b9283928361185e565b0390a36119b06108eb82610c03565b6119cd73eeeeeeeeeeeeeeeeeeeeeeeeeeeeeeeeeeeeeeee610e1a565b036119fa57505f610170926119e28293610c42565b60405190818003925af16119f461187e565b5061189c565b91610f0f611a0a61017094610c03565b92610c42565b906101709392916117e8565b61014a5f7f237e158222e3e6968b72b9db0d8043aacf074ad9f650f0d1606b4d82ee432c0061100e565b61014a6108eb6002610896565b61017090611a5f611d00565b611a8c815f7f237e158222e3e6968b72b9db0d8043aacf074ad9f650f0d1606b4d82ee432c005b01611034565b611aa0611a9a6108eb610fe8565b916101a5565b907f38d16b8cac22d99fc7c124b9cd0de2d3fa1faef420bfe791d8c362d765e22700611acb60405190565b5f90a3565b61017090611a53565b611ae2306101a5565b7f000000000000000000000000000000000000000000000000000000000000000090611b166001600160a01b038316610e1a565b14908115611b50575b50611b2657565b7fe07c8dba000000000000000000000000000000000000000000000000000000005f908152600490fd5b9050611b6d610e1a611b60612002565b926001600160a01b031690565b14155f611b1f565b50610170611d00565b61017090611b75565b9050519061017082610228565b9060208282031261015f5761014a91611b87565b90611bb56108eb836101a5565b906020611bc160405190565b7f52d1902d00000000000000000000000000000000000000000000000000000000815292839060049082905afa5f9281611c8d575b50611c3f5750506001611c065750565b7f4c9c8ce3000000000000000000000000000000000000000000000000000000005f9081526001600160a01b039091166004526024035ffd5b909291611c4d61014a610813565b8403611c5e57610170929350612011565b7faa1d49a4000000000000000000000000000000000000000000000000000000005f9081526004859052602490fd5b611cb091935060203d602011611cb7575b611ca88183610297565b810190611b94565b915f611bf6565b503d611c9e565b611cc7306101a5565b611cf96001600160a01b037f000000000000000000000000000000000000000000000000000000000000000016610e1a565b03611b2657565b611d08610fe8565b3390611d1382610e1a565b03610faf5750565b91906008610bd1910291610bcc6001600160a01b03841b90565b9190611d4661014a610bf4936101a5565b908354611d1b565b610170915f91611d35565b61017090611d875f7f237e158222e3e6968b72b9db0d8043aacf074ad9f650f0d1606b4d82ee432c00611d4e565b61207b565b61014a9081565b61014a9054611d8c565b61014a6002610806565b905f1990610bd1565b90611dc061014a610bf492610806565b8254611da7565b7f9b779b17422d0df92223018b32b4d1fa46e071723d6817e2486d003becc55f00611df181611d93565b611df9611d9d565b908114611e095761017091611db0565b7f3ee5aeb5000000000000000000000000000000000000000000000000000000005f908152600490fd5b61014a6001610806565b6101707f9b779b17422d0df92223018b32b4d1fa46e071723d6817e2486d003becc55f005f611e6a611e33565b9101611db0565b611e8a611e8461014a9263ffffffff1690565b60e01b90565b7fffffffff000000000000000000000000000000000000000000000000000000001690565b6001600160a01b0390911681526040810192916101709160200152565b611f0f600492611f0061017095611ee663a9059cbb611e71565b92611ef060405190565b9687946020860190815201611eaf565b60208201810382520383610297565b6120e0565b61014a60406102be565b611f26611f14565b905f82525f6020830152565b61014a611f1e565b611f42611f32565b9061017082611f4f438252565b602042910152565b6001600160a01b039182168152911660208201526060810192916101709160400152565b90611f0f90611f0061017095600495611f976323b872dd611e71565b93611fa160405190565b9788956020870190815201611f57565b61014a6121b2565b61017090611fc56121ba565b61017090612266565b61017090611fb9565b6101706121ba565b610170611fd7565b611fef6121ba565b610170610170612277565b610170611fe7565b61014a5f61100e61014a610813565b9061201b8261227f565b612024826101a5565b7fbc7cd75a20ee27fd9adebab32041f755214dbc6bffa90cc0225b39da2e5c2d3b61204e60405190565b5f90a2805161205f6113655f610806565b11156120715761206e916122dd565b50565b50506101706122a2565b6120b5611a9a7f9016d09d72d40fdae2fd8ceac6b6234c7706214fd39c1cd1e609a0528c1993006108eb846120af83610896565b92611034565b907f8be0079c531659141344cd1fd0a4f28419497f9722a3daafe3b4186f6b6457e0611acb60405190565b905f6020916120ec5f90565b50828151910182855af115610cbc573d5f519061210b6113655f610806565b03612175575061211a816101a5565b3b6121276113655f610806565b145b6121305750565b6108cf61213d5f926101a5565b7f5274afe70000000000000000000000000000000000000000000000000000000083526001600160a01b031660048301526024820190565b6121826113656001610806565b1415612129565b61014a7ff0c57e16840df040f15088dc2f81fe391c3923bec73e23a9662efc9c229c6a00610806565b61014a612189565b6121c5611465612303565b6121cb57565b7fd7e6bcf8000000000000000000000000000000000000000000000000000000005f908152600490fd5b610170906122016121ba565b61220a5f61086b565b6001600160a01b0381166001600160a01b0383161461222d575061017090611d59565b7f1e4fbdf7000000000000000000000000000000000000000000000000000000005f9081526001600160a01b039091166004526024035ffd5b610170906121f5565b6109096121ba565b61017061226f565b803b61228d6113655f610806565b14611c0657610170905f611a8661014a610813565b6122ab5f610806565b34116122b357565b7fb398979f000000000000000000000000000000000000000000000000000000005f908152600490fd5b5f8061014a936122eb606090565b50602081519101845af46122fd61187e565b91612315565b61014a5f61230f611fb1565b01611550565b90612320575061238b565b815161232e6113655f610806565b1480612376575b61233d575090565b7f9996b315000000000000000000000000000000000000000000000000000000005f9081526001600160a01b039091166004526024035ffd5b50803b6123856113655f610806565b14612335565b80516123996113655f610806565b11156123a757805190602001fd5b7fd6bda275000000000000000000000000000000000000000000000000000000005f908152600490fdfea26469706673582212208f2711c7bb8decce1e1cf0e4a4a3048c8c28655ce0559a05c674ca8f6ca56e1864736f6c634300081c0033",
    "linkReferences": {},
    "deployedLinkReferences": {},
    "immutableReferences": {
        "619": [
            {
                "length": 32,
                "start": 6884
            },
            {
                "length": 32,
                "start": 7380
            }
        ]
    },
    "inputSourceName": "project/contracts/v3/DepositorySrc.sol",
    "buildInfoId": "solc-0_8_28-780fdd7c845c7512a286105667449716bb714af5"
}