{
    "_format": "hh3-artifact-1",
    "contractName": "DirectUnlocker",
    "sourceName": "contracts/v3/unlockers/DirectUnlocker.sol",
    "abi": [
        {
            "inputs": [
                {
                    "internalType": "uint256",
                    "name": "expected",
                    "type": "uint256"
                },
                {
                    "internalType": "uint256",
                    "name": "actual",
                    "type": "uint256"
                }
            ],
            "name": "NativeAmountMismatch",
            "type": "error"
        },
        {
            "inputs": [],
            "name": "NativeTransferFailed",
            "type": "error"
        },
        {
            "inputs": [
                {
                    "internalType": "address",
                    "name": "token",
                    "type": "address"
                }
            ],
            "name": "SafeERC20FailedOperation",
            "type": "error"
        },
        {
            "inputs": [],
            "name": "UnexpectedNativeValue",
            "type": "error"
        },
        {
            "inputs": [
                {
                    "internalType": "uint256",
                    "name": "actual",
                    "type": "uint256"
                },
                {
                    "internalType": "uint256",
                    "name": "expected",
                    "type": "uint256"
                }
            ],
            "name": "WrongDstChain",
            "type": "error"
        },
        {
            "inputs": [
                {
                    "components": [
                        {
                            "internalType": "address",
                            "name": "recipient",
                            "type": "address"
                        },
                        {
                            "internalType": "contract IERC20",
                            "name": "dstToken",
                            "type": "address"
                        },
                        {
                            "internalType": "uint256",
                            "name": "amount",
                            "type": "uint256"
                        },
                        {
                            "internalType": "uint256",
                            "name": "dstChainId",
                            "type": "uint256"
                        }
                    ],
                    "internalType": "struct DirectUnlocker.Condition",
                    "name": "c",
                    "type": "tuple"
                }
            ],
            "name": "encodeCondition",
            "outputs": [
                {
                    "internalType": "bytes",
                    "name": "",
                    "type": "bytes"
                }
            ],
            "stateMutability": "pure",
            "type": "function"
        },
        {
            "inputs": [
                {
                    "components": [
                        {
                            "internalType": "address",
                            "name": "solverAddress",
                            "type": "address"
                        }
                    ],
                    "internalType": "struct DirectUnlocker.Solution",
                    "name": "s",
                    "type": "tuple"
                }
            ],
            "name": "encodeSolution",
            "outputs": [
                {
                    "internalType": "bytes",
                    "name": "",
                    "type": "bytes"
                }
            ],
            "stateMutability": "pure",
            "type": "function"
        },
        {
            "inputs": [
                {
                    "internalType": "bytes",
                    "name": "condition",
                    "type": "bytes"
                },
                {
                    "internalType": "bytes",
                    "name": "solution",
                    "type": "bytes"
                }
            ],
            "name": "fill",
            "outputs": [],
            "stateMutability": "payable",
            "type": "function"
        },
        {
            "inputs": [
                {
                    "internalType": "contract IERC20",
                    "name": "token",
                    "type": "address"
                },
                {
                    "internalType": "address",
                    "name": "to",
                    "type": "address"
                }
            ],
            "name": "sweep",
            "outputs": [],
            "stateMutability": "nonpayable",
            "type": "function"
        },
        {
            "inputs": [
                {
                    "internalType": "address",
                    "name": "to",
                    "type": "address"
                }
            ],
            "name": "sweepNative",
            "outputs": [],
            "stateMutability": "nonpayable",
            "type": "function"
        },
        {
            "inputs": [
                {
                    "internalType": "bytes",
                    "name": "",
                    "type": "bytes"
                },
                {
                    "internalType": "bytes",
                    "name": "solution",
                    "type": "bytes"
                },
                {
                    "internalType": "contract IERC20",
                    "name": "token",
                    "type": "address"
                },
                {
                    "internalType": "uint256",
                    "name": "amount",
                    "type": "uint256"
                }
            ],
            "name": "unlock",
            "outputs": [],
            "stateMutability": "payable",
            "type": "function"
        },
        {
            "stateMutability": "payable",
            "type": "receive"
        }
    ],
    "bytecode": "0x608060405234601957604051610b7d61001e8239610b7d90f35b5f80fdfe6080604052600436101561001a575b3615610018575f80fd5b005b5f3560e01c80635b492b70146100795780635db2558c1461007457806378c093cf1461006f578063b8c621d71461006a578063b8dc491b146100655763c24358fa0361000e5761032a565b6102ef565b6102b2565b610202565b61019a565b610100565b909182601f830112156100ae5781359167ffffffffffffffff83116100ae5760200192600183028401116100ae57565b5f80fd5b90916040828403126100ae57813567ffffffffffffffff81116100ae57836100db91840161007e565b929093602082013567ffffffffffffffff81116100ae576100fc920161007e565b9091565b61011761010e3660046100b2565b929190916105c6565b60405180805b0390f35b908160809103126100ae5790565b906080828203126100ae5761014391610121565b90565b90825f9392825e0152565b61017261017b60209361018593610166815190565b80835293849260200190565b95869101610146565b601f01601f191690565b0190565b602080825261014392910190610151565b346100ae5761011d6101b56101b036600461012f565b6107b3565b60405191829182610189565b6001600160a01b031690565b6001600160a01b0381165b036100ae57565b905035906101ec826101cd565b565b906020828203126100ae57610143916101df565b346100ae576101176102153660046101ee565b6107db565b6001600160a01b0381166101d8565b905035906101ec8261021a565b806101d8565b905035906101ec82610236565b91906080838203126100ae57823567ffffffffffffffff81116100ae578161027291850161007e565b92909360208101359167ffffffffffffffff83116100ae576102998461014394840161007e565b93909460606102ab8260408701610229565b940161023c565b6101176102c0366004610249565b94939093929192610809565b91906040838203126100ae576101439060206102e88286610229565b94016101df565b346100ae576101176103023660046102cc565b9061089d565b908160209103126100ae5790565b906020828203126100ae5761014391610308565b346100ae5761011d6101b5610340366004610316565b610981565b7f4e487b71000000000000000000000000000000000000000000000000000000005f52604160045260245ffd5b90601f01601f1916810190811067ffffffffffffffff82111761039457604052565b610345565b906101ec6103a660405190565b9283610372565b91906080838203126100ae576104009060606103c96080610399565b946103d483826101df565b86526103e38360208301610229565b60208701526103f5836040830161023c565b60408701520161023c565b6060830152565b906080828203126100ae57610143916103ad565b9052565b9081526040810192916101ec9160200152565b1561043b575050565b7ffbb40379000000000000000000000000000000000000000000000000000000005f9081529161046c91600461041f565b035ffd5b91906020838203126100ae5761048b905f6102e86020610399565b8252565b906020828203126100ae5761014391610470565b6101c1610143610143926001600160a01b031690565b610143906104a3565b610143906104b9565b6101436101436101439290565b156104df57565b7fe0aeda7d000000000000000000000000000000000000000000000000000000005f908152600490fd5b15610512575050565b7f7e957b11000000000000000000000000000000000000000000000000000000005f9081529161046c91600461041f565b67ffffffffffffffff811161039457602090601f01601f19160190565b9061057261056d83610543565b610399565b918252565b3d15610590576105863d610560565b903d5f602084013e565b606090565b1561059c57565b7ff4b3b1bc000000000000000000000000000000000000000000000000000000005f908152600490fd5b6105d7906106049392810190610407565b926105fc606085016105f46105ed610143835190565b4614915190565b904690610432565b81019061048f565b6020820161062161061c82516001600160a01b031690565b6104c2565b61064773eeeeeeeeeeeeeeeeeeeeeeeeeeeeeeeeeeeeeeee5b916001600160a01b031690565b036106ab5750505f808261069261068d8360406101ec97019361067f61066e610143875190565b3414610678875190565b3491610509565b01516001600160a01b031690565b915190565b6040515b90818003925af16106a5610577565b50610595565b916106e65f6106d76101ec956106ca6106c3846104cb565b34146104d8565b516001600160a01b031690565b9301516001600160a01b031690565b61070260406106fc84516001600160a01b031690565b93015190565b926109ff565b506101439060208101906101df565b50610143906020810190610229565b61041b906104c2565b5061014390602081019061023c565b90606061079e6101ec936107646107575f830183610708565b6001600160a01b03168552565b61077e6107746020830183610717565b6020860190610726565b61079561078e604083018361072f565b6040860152565b8281019061072f565b910152565b6080810192916101ec919061073e565b6101436107bf60405190565b80926107cf6020830191826107a3565b90810382520382610372565b6107e4306104c2565b31906107ef5f6104cb565b82116107f9575050565b5f80916101ec9361069660405190565b505061067f5f9161081f9395949581019061048f565b91610829816104c2565b61084673eeeeeeeeeeeeeeeeeeeeeeeeeeeeeeeeeeeeeeee61063a565b0361086757505f6101ec928261069261085d849590565b3414823491610509565b916101ec92610a66565b905051906101ec82610236565b906020828203126100ae5761014391610871565b6040513d5f823e3d90fd5b6109009160206108ac836104c2565b6108b5306104c2565b906108bf60405190565b958692839182917f70a08231000000000000000000000000000000000000000000000000000000008352600483016001600160a01b03909116815260200190565b03915afa91821561094d576101ec935f9361091c575b50610a66565b61093f91935060203d602011610946575b6109378183610372565b81019061087e565b915f610916565b503d61092d565b610892565b6101ec91905f906109639080610708565b6001600160a01b0316910152565b6020810192916101ec9190610952565b61014361098d60405190565b80926107cf602083019182610971565b6109b66109b06101439263ffffffff1690565b60e01b90565b7fffffffff000000000000000000000000000000000000000000000000000000001690565b6001600160a01b039182168152911660208201526060810192916101ec9160400152565b90610a4490610a356101ec95600495610a1b6323b872dd61099d565b93610a2560405190565b97889560208701908152016109db565b60208201810382520383610372565b610a9a565b6001600160a01b0390911681526040810192916101ec9160200152565b610a44600492610a356101ec95610a8063a9059cbb61099d565b92610a8a60405190565b9687946020860190815201610a49565b905f602091610aa65f90565b50828151910182855af115610892573d5f5190610ac9610ac55f6104cb565b9190565b03610b335750610ad8816104c2565b3b610ae5610ac55f6104cb565b145b610aee5750565b61046c610afb5f926104c2565b7f5274afe70000000000000000000000000000000000000000000000000000000083526001600160a01b031660048301526024820190565b610b40610ac560016104cb565b1415610ae756fea2646970667358221220cecae0fba55d9df8cf87e3b611b5a86c571259438fb75843785fbd9cbe2b6af164736f6c634300081c0033",
    "linkReferences": {},
    "deployedLinkReferences": {},
    "immutableReferences": {},
    "inputSourceName": "project/contracts/v3/unlockers/DirectUnlocker.sol",
    "buildInfoId": "solc-0_8_28-291c89ebb4465cb9610eea1beb733ded7272190f"
}