{
    "_format": "hh3-artifact-1",
    "contractName": "DirectUnlocker",
    "sourceName": "contracts/v3/unlockers/DirectUnlocker.sol",
    "abi": [
        {
            "inputs": [
                {
                    "internalType": "address",
                    "name": "token",
                    "type": "address"
                }
            ],
            "name": "SafeERC20FailedOperation",
            "type": "error"
        },
        {
            "inputs": [
                {
                    "internalType": "uint256",
                    "name": "actual",
                    "type": "uint256"
                },
                {
                    "internalType": "uint256",
                    "name": "expected",
                    "type": "uint256"
                }
            ],
            "name": "WrongDstChain",
            "type": "error"
        },
        {
            "inputs": [
                {
                    "components": [
                        {
                            "internalType": "address",
                            "name": "recipient",
                            "type": "address"
                        },
                        {
                            "internalType": "contract IERC20",
                            "name": "dstToken",
                            "type": "address"
                        },
                        {
                            "internalType": "uint256",
                            "name": "amount",
                            "type": "uint256"
                        },
                        {
                            "internalType": "uint256",
                            "name": "dstChainId",
                            "type": "uint256"
                        }
                    ],
                    "internalType": "struct DirectUnlocker.Condition",
                    "name": "c",
                    "type": "tuple"
                }
            ],
            "name": "encodeCondition",
            "outputs": [
                {
                    "internalType": "bytes",
                    "name": "",
                    "type": "bytes"
                }
            ],
            "stateMutability": "pure",
            "type": "function"
        },
        {
            "inputs": [
                {
                    "components": [
                        {
                            "internalType": "address",
                            "name": "solverAddress",
                            "type": "address"
                        }
                    ],
                    "internalType": "struct DirectUnlocker.Solution",
                    "name": "s",
                    "type": "tuple"
                }
            ],
            "name": "encodeSolution",
            "outputs": [
                {
                    "internalType": "bytes",
                    "name": "",
                    "type": "bytes"
                }
            ],
            "stateMutability": "pure",
            "type": "function"
        },
        {
            "inputs": [
                {
                    "internalType": "bytes",
                    "name": "condition",
                    "type": "bytes"
                },
                {
                    "internalType": "bytes",
                    "name": "solution",
                    "type": "bytes"
                }
            ],
            "name": "fill",
            "outputs": [],
            "stateMutability": "nonpayable",
            "type": "function"
        },
        {
            "inputs": [
                {
                    "internalType": "contract IERC20",
                    "name": "token",
                    "type": "address"
                },
                {
                    "internalType": "address",
                    "name": "to",
                    "type": "address"
                }
            ],
            "name": "sweep",
            "outputs": [],
            "stateMutability": "nonpayable",
            "type": "function"
        },
        {
            "inputs": [
                {
                    "internalType": "bytes",
                    "name": "",
                    "type": "bytes"
                },
                {
                    "internalType": "bytes",
                    "name": "solution",
                    "type": "bytes"
                },
                {
                    "internalType": "contract IERC20",
                    "name": "token",
                    "type": "address"
                },
                {
                    "internalType": "uint256",
                    "name": "amount",
                    "type": "uint256"
                }
            ],
            "name": "unlock",
            "outputs": [],
            "stateMutability": "nonpayable",
            "type": "function"
        }
    ],
    "bytecode": "0x60806040523460195760405161093461001e823961093490f35b5f80fdfe60806040526004361015610011575f80fd5b5f3560e01c80635b492b70146100605780635db2558c1461005b578063b8c621d714610056578063b8dc491b146100515763c24358fa03610095576102ef565b6102b4565b610256565b610186565b6100e7565b909182601f830112156100955781359167ffffffffffffffff831161009557602001926001830284011161009557565b5f80fd5b909160408284031261009557813567ffffffffffffffff811161009557836100c2918401610065565b929093602082013567ffffffffffffffff8111610095576100e39201610065565b9091565b34610095576101036100fa366004610099565b92919091610468565b60405180805b0390f35b908160809103126100955790565b906080828203126100955761012f9161010d565b90565b90825f9392825e0152565b61015e61016760209361017193610152815190565b80835293849260200190565b95869101610132565b601f01601f191690565b0190565b602080825261012f9291019061013d565b34610095576101096101a161019c36600461011b565b6105c7565b60405191829182610175565b6001600160a01b031690565b6001600160a01b0381165b0361009557565b905035906101d8826101b9565b565b806101c4565b905035906101d8826101da565b919060808382031261009557823567ffffffffffffffff81116100955781610216918501610065565b92909360208101359167ffffffffffffffff83116100955761023d8461012f948401610065565b939094606061024f82604087016101cb565b94016101e0565b34610095576101036102693660046101ed565b949390939291926105ef565b6001600160a01b0381166101c4565b905035906101d882610275565b91906040838203126100955761012f9060206102ad82866101cb565b9401610284565b34610095576101036102c7366004610291565b90610647565b908160209103126100955790565b906020828203126100955761012f916102cd565b34610095576101096101a16103053660046102db565b61072b565b7f4e487b71000000000000000000000000000000000000000000000000000000005f52604160045260245ffd5b90601f01601f1916810190811067ffffffffffffffff82111761035957604052565b61030a565b906101d861036b60405190565b9283610337565b9190608083820312610095576103c590606061038e608061035e565b946103998382610284565b86526103a883602083016101cb565b60208701526103ba83604083016101e0565b6040870152016101e0565b6060830152565b906080828203126100955761012f91610372565b9052565b9081526040810192916101d89160200152565b15610400575050565b7ffbb40379000000000000000000000000000000000000000000000000000000005f908152916104319160046103e4565b035ffd5b919060208382031261009557610450905f6102ad602061035e565b8252565b906020828203126100955761012f91610435565b9161047d6101d894936104aa938101906103cc565b926104a26060850161049a61049361012f835190565b4614915190565b9046906103f7565b810190610454565b906104d25f6104c360208401516001600160a01b031690565b9301516001600160a01b031690565b6104ee60406104e884516001600160a01b031690565b93015190565b926107a9565b5061012f906020810190610284565b5061012f9060208101906101cb565b6101ad61012f61012f926001600160a01b031690565b61012f90610512565b61012f90610528565b6103e090610531565b5061012f9060208101906101e0565b9060606105b26101d89361057861056b5f8301836104f4565b6001600160a01b03168552565b6105926105886020830183610503565b602086019061053a565b6105a96105a26040830183610543565b6040860152565b82810190610543565b910152565b6080810192916101d89190610552565b61012f6105d360405190565b80926105e36020830191826105b7565b90810382520382610337565b50505f610607610615926101d8969594810190610454565b01516001600160a01b031690565b90610810565b905051906101d8826101da565b906020828203126100955761012f9161061b565b6040513d5f823e3d90fd5b6106aa91602061065683610531565b61065f30610531565b9061066960405190565b958692839182917f70a08231000000000000000000000000000000000000000000000000000000008352600483016001600160a01b03909116815260200190565b03915afa9182156106f7576101d8935f936106c6575b50610810565b6106e991935060203d6020116106f0575b6106e18183610337565b810190610628565b915f6106c0565b503d6106d7565b61063c565b6101d891905f9061070d90806104f4565b6001600160a01b0316910152565b6020810192916101d891906106fc565b61012f61073760405190565b80926105e360208301918261071b565b61076061075a61012f9263ffffffff1690565b60e01b90565b7fffffffff000000000000000000000000000000000000000000000000000000001690565b6001600160a01b039182168152911660208201526060810192916101d89160400152565b906107ee906107df6101d8956004956107c56323b872dd610747565b936107cf60405190565b9788956020870190815201610785565b60208201810382520383610337565b610851565b6001600160a01b0390911681526040810192916101d89160200152565b6107ee6004926107df6101d89561082a63a9059cbb610747565b9261083460405190565b96879460208601908152016107f3565b61012f61012f61012f9290565b905f60209161085d5f90565b50828151910182855af11561063c573d5f519061088061087c5f610844565b9190565b036108ea575061088f81610531565b3b61089c61087c5f610844565b145b6108a55750565b6104316108b25f92610531565b7f5274afe70000000000000000000000000000000000000000000000000000000083526001600160a01b031660048301526024820190565b6108f761087c6001610844565b141561089e56fea2646970667358221220beaea7d44ab89f81471565614ba2e481604ca8fcf2183b0102a8ed3d0fd636e764736f6c634300081c0033",
    "linkReferences": {},
    "deployedLinkReferences": {},
    "immutableReferences": {},
    "inputSourceName": "project/contracts/v3/unlockers/DirectUnlocker.sol",
    "buildInfoId": "solc-0_8_28-0d81914b03758795f335e41e3229da84972a82a8"
}