{
    "_format": "hh3-artifact-1",
    "contractName": "DirectUnlocker",
    "sourceName": "contracts/v3/unlockers/DirectUnlocker.sol",
    "abi": [
        {
            "inputs": [
                {
                    "internalType": "address",
                    "name": "token",
                    "type": "address"
                }
            ],
            "name": "SafeERC20FailedOperation",
            "type": "error"
        },
        {
            "inputs": [
                {
                    "internalType": "uint256",
                    "name": "actual",
                    "type": "uint256"
                },
                {
                    "internalType": "uint256",
                    "name": "expected",
                    "type": "uint256"
                }
            ],
            "name": "WrongDstChain",
            "type": "error"
        },
        {
            "inputs": [
                {
                    "components": [
                        {
                            "internalType": "address",
                            "name": "recipient",
                            "type": "address"
                        },
                        {
                            "internalType": "contract IERC20",
                            "name": "dstToken",
                            "type": "address"
                        },
                        {
                            "internalType": "uint256",
                            "name": "amount",
                            "type": "uint256"
                        },
                        {
                            "internalType": "uint256",
                            "name": "dstChainId",
                            "type": "uint256"
                        }
                    ],
                    "internalType": "struct DirectUnlocker.Condition",
                    "name": "c",
                    "type": "tuple"
                }
            ],
            "name": "encodeCondition",
            "outputs": [
                {
                    "internalType": "bytes",
                    "name": "",
                    "type": "bytes"
                }
            ],
            "stateMutability": "pure",
            "type": "function"
        },
        {
            "inputs": [
                {
                    "components": [
                        {
                            "internalType": "address",
                            "name": "solverAddress",
                            "type": "address"
                        }
                    ],
                    "internalType": "struct DirectUnlocker.Solution",
                    "name": "s",
                    "type": "tuple"
                }
            ],
            "name": "encodeSolution",
            "outputs": [
                {
                    "internalType": "bytes",
                    "name": "",
                    "type": "bytes"
                }
            ],
            "stateMutability": "pure",
            "type": "function"
        },
        {
            "inputs": [
                {
                    "internalType": "bytes",
                    "name": "condition",
                    "type": "bytes"
                },
                {
                    "internalType": "bytes",
                    "name": "solution",
                    "type": "bytes"
                }
            ],
            "name": "fill",
            "outputs": [],
            "stateMutability": "nonpayable",
            "type": "function"
        },
        {
            "inputs": [
                {
                    "internalType": "bytes",
                    "name": "solution",
                    "type": "bytes"
                }
            ],
            "name": "resolveRecipient",
            "outputs": [
                {
                    "internalType": "address",
                    "name": "",
                    "type": "address"
                }
            ],
            "stateMutability": "pure",
            "type": "function"
        },
        {
            "inputs": [
                {
                    "internalType": "contract IERC20",
                    "name": "token",
                    "type": "address"
                },
                {
                    "internalType": "address",
                    "name": "to",
                    "type": "address"
                }
            ],
            "name": "sweep",
            "outputs": [],
            "stateMutability": "nonpayable",
            "type": "function"
        }
    ],
    "bytecode": "0x60806040523460195760405161090361001e823961090390f35b5f80fdfe60806040526004361015610011575f80fd5b5f3560e01c80635b492b70146100605780635d1584611461005b5780635db2558c14610056578063b8dc491b146100515763c24358fa03610095576102b4565b610279565b6101f4565b610148565b6100e7565b909182601f830112156100955781359167ffffffffffffffff831161009557602001926001830284011161009557565b5f80fd5b909160408284031261009557813567ffffffffffffffff811161009557836100c2918401610065565b929093602082013567ffffffffffffffff8111610095576100e39201610065565b9091565b34610095576101036100fa366004610099565b9291909161043c565b60405180805b0390f35b9060208282031261009557813567ffffffffffffffff8111610095576100e39201610065565b6001600160a01b031690565b90565b9052565b565b346100955761010961016461015e36600461010d565b906104c8565b604051918291826001600160a01b03909116815260200190565b908160809103126100955790565b906080828203126100955761013f9161017e565b90825f9392825e0152565b6101cc6101d56020936101df936101c0815190565b80835293849260200190565b958691016101a0565b601f01601f191690565b0190565b602080825261013f929101906101ab565b346100955761010961020f61020a36600461018c565b6105c2565b604051918291826101e3565b6001600160a01b0381165b0361009557565b905035906101468261021b565b6001600160a01b038116610226565b905035906101468261023a565b91906040838203126100955761013f906020610272828661022d565b9401610249565b346100955761010361028c366004610256565b90610616565b908160209103126100955790565b906020828203126100955761013f91610292565b346100955761010961020f6102ca3660046102a0565b6106fa565b7f4e487b71000000000000000000000000000000000000000000000000000000005f52604160045260245ffd5b90601f01601f1916810190811067ffffffffffffffff82111761031e57604052565b6102cf565b9061014661033060405190565b92836102fc565b80610226565b9050359061014682610337565b91906080838203126100955761039d9060606103666080610323565b946103718382610249565b8652610380836020830161022d565b6020870152610392836040830161033d565b60408701520161033d565b6060830152565b906080828203126100955761013f9161034a565b9081526040810192916101469160200152565b156103d4575050565b7ffbb40379000000000000000000000000000000000000000000000000000000005f908152916104059160046103b8565b035ffd5b919060208382031261009557610424905f6102726020610323565b8252565b906020828203126100955761013f91610409565b91610451610146949361047e938101906103a4565b926104766060850161046e61046761013f835190565b4614915190565b9046906103cb565b810190610428565b906104a65f61049760208401516001600160a01b031690565b9301516001600160a01b031690565b6104c260406104bc84516001600160a01b031690565b93015190565b92610778565b6104e15f9161013f936104d85f90565b50810190610428565b01516001600160a01b031690565b5061013f906020810190610249565b5061013f90602081019061022d565b61013361013f61013f926001600160a01b031690565b61013f9061050d565b61013f90610523565b6101429061052c565b5061013f90602081019061033d565b9060606105ad610146936105736105665f8301836104ef565b6001600160a01b03168552565b61058d61058360208301836104fe565b6020860190610535565b6105a461059d604083018361053e565b6040860152565b8281019061053e565b910152565b608081019291610146919061054d565b61013f6105ce60405190565b80926105de6020830191826105b2565b908103825203826102fc565b9050519061014682610337565b906020828203126100955761013f916105ea565b6040513d5f823e3d90fd5b6106799160206106258361052c565b61062e3061052c565b9061063860405190565b958692839182917f70a08231000000000000000000000000000000000000000000000000000000008352600483016001600160a01b03909116815260200190565b03915afa9182156106c657610146935f93610695575b506107df565b6106b891935060203d6020116106bf575b6106b081836102fc565b8101906105f7565b915f61068f565b503d6106a6565b61060b565b61014691905f906106dc90806104ef565b6001600160a01b0316910152565b60208101929161014691906106cb565b61013f61070660405190565b80926105de6020830191826106ea565b61072f61072961013f9263ffffffff1690565b60e01b90565b7fffffffff000000000000000000000000000000000000000000000000000000001690565b6001600160a01b039182168152911660208201526060810192916101469160400152565b906107bd906107ae610146956004956107946323b872dd610716565b9361079e60405190565b9788956020870190815201610754565b602082018103825203836102fc565b610820565b6001600160a01b0390911681526040810192916101469160200152565b6107bd6004926107ae610146956107f963a9059cbb610716565b9261080360405190565b96879460208601908152016107c2565b61013f61013f61013f9290565b905f60209161082c5f90565b50828151910182855af11561060b573d5f519061084f61084b5f610813565b9190565b036108b9575061085e8161052c565b3b61086b61084b5f610813565b145b6108745750565b6104056108815f9261052c565b7f5274afe70000000000000000000000000000000000000000000000000000000083526001600160a01b031660048301526024820190565b6108c661084b6001610813565b141561086d56fea26469706673582212207297a8caa66dd4ac6b0ef8610db1adfca39d7840e3928cf1a3cd1f5caebfc3b764736f6c634300081c0033",
    "linkReferences": {},
    "deployedLinkReferences": {},
    "immutableReferences": {},
    "inputSourceName": "project/contracts/v3/unlockers/DirectUnlocker.sol",
    "buildInfoId": "solc-0_8_28-19341e6d3b92e56950e98a308bc811cce8f2aae1"
}