{
    "_format": "hh3-artifact-1",
    "contractName": "BranchedUnlocker",
    "sourceName": "contracts/DepositUnlockers.sol",
    "abi": [
        {
            "inputs": [
                {
                    "internalType": "uint256",
                    "name": "index",
                    "type": "uint256"
                },
                {
                    "internalType": "uint256",
                    "name": "unlockerCount",
                    "type": "uint256"
                }
            ],
            "name": "InvalidLockIndex",
            "type": "error"
        },
        {
            "anonymous": false,
            "inputs": [
                {
                    "indexed": false,
                    "internalType": "uint256",
                    "name": "index",
                    "type": "uint256"
                }
            ],
            "name": "UnlockBranch",
            "type": "event"
        },
        {
            "inputs": [
                {
                    "internalType": "bytes",
                    "name": "condition",
                    "type": "bytes"
                }
            ],
            "name": "decodeCondition",
            "outputs": [
                {
                    "components": [
                        {
                            "components": [
                                {
                                    "internalType": "contract IDepositUnlocker",
                                    "name": "unlocker",
                                    "type": "address"
                                },
                                {
                                    "internalType": "bytes",
                                    "name": "condition",
                                    "type": "bytes"
                                }
                            ],
                            "internalType": "struct DepositoryTypes.UnlockCondition[]",
                            "name": "branches",
                            "type": "tuple[]"
                        }
                    ],
                    "internalType": "struct BranchedUnlocker.Condition",
                    "name": "",
                    "type": "tuple"
                }
            ],
            "stateMutability": "pure",
            "type": "function"
        },
        {
            "inputs": [
                {
                    "components": [
                        {
                            "components": [
                                {
                                    "internalType": "contract IDepositUnlocker",
                                    "name": "unlocker",
                                    "type": "address"
                                },
                                {
                                    "internalType": "bytes",
                                    "name": "condition",
                                    "type": "bytes"
                                }
                            ],
                            "internalType": "struct DepositoryTypes.UnlockCondition[]",
                            "name": "branches",
                            "type": "tuple[]"
                        }
                    ],
                    "internalType": "struct BranchedUnlocker.Condition",
                    "name": "c",
                    "type": "tuple"
                }
            ],
            "name": "encodeCondition",
            "outputs": [
                {
                    "internalType": "bytes",
                    "name": "",
                    "type": "bytes"
                }
            ],
            "stateMutability": "pure",
            "type": "function"
        },
        {
            "inputs": [
                {
                    "components": [
                        {
                            "internalType": "uint256",
                            "name": "index",
                            "type": "uint256"
                        },
                        {
                            "internalType": "bytes",
                            "name": "solution",
                            "type": "bytes"
                        }
                    ],
                    "internalType": "struct BranchedUnlocker.Solution",
                    "name": "s",
                    "type": "tuple"
                }
            ],
            "name": "encodeSolution",
            "outputs": [
                {
                    "internalType": "bytes",
                    "name": "",
                    "type": "bytes"
                }
            ],
            "stateMutability": "pure",
            "type": "function"
        },
        {
            "inputs": [
                {
                    "internalType": "contract IRouter",
                    "name": "router",
                    "type": "address"
                },
                {
                    "components": [
                        {
                            "internalType": "contract IERC20",
                            "name": "token",
                            "type": "address"
                        },
                        {
                            "internalType": "uint256",
                            "name": "amount",
                            "type": "uint256"
                        },
                        {
                            "internalType": "uint256",
                            "name": "nonce",
                            "type": "uint256"
                        }
                    ],
                    "internalType": "struct DepositoryTypes.Deposit",
                    "name": "deposit",
                    "type": "tuple"
                },
                {
                    "components": [
                        {
                            "internalType": "uint256",
                            "name": "blockNumber",
                            "type": "uint256"
                        },
                        {
                            "internalType": "uint256",
                            "name": "timestamp",
                            "type": "uint256"
                        }
                    ],
                    "internalType": "struct DepositoryTypes.BlockchainState",
                    "name": "blockchainState",
                    "type": "tuple"
                },
                {
                    "internalType": "bytes",
                    "name": "condition",
                    "type": "bytes"
                },
                {
                    "internalType": "bytes",
                    "name": "solution",
                    "type": "bytes"
                }
            ],
            "name": "unlock",
            "outputs": [],
            "stateMutability": "nonpayable",
            "type": "function"
        }
    ],
    "bytecode": "0x6080604052348015600e575f5ffd5b50610bb48061001c5f395ff3fe608060405234801561000f575f5ffd5b506004361061004a575f3560e01c80634d8893d01461004e578063760bd1181461006357806385a600c71461008c578063b11e07ce146100ac575b5f5ffd5b61006161005c366004610405565b6100bf565b005b6100766100713660046104b2565b610284565b604051610083919061051e565b60405180910390f35b61009f61009a3660046105ab565b6102a6565b60405161008391906105e1565b61009f6100ba3660046105f3565b6102cf565b6100fe6040518060400160405280601f81526020017f4272616e63686564556e6c6f636b65722e756e6c6f636b28726f757465722900815250886102e2565b5f6101098585610284565b905061012f604051806060016040528060288152602001610b576028913982515161032b565b5f61013c83850185610725565b90506101806040518060400160405280601e81526020017f4272616e63686564556e6c6f636b65722e756e6c6f636b28696e646578290000815250825f015161032b565b8151518151908082106101b357604051633279a3b760e01b81526004810192909252602482015260440160405180910390fd5b505080516040519081527feeaef47f11404e0656fb7d615f8ebd0922a75f6493cb332d6d8665a546abfee09060200160405180910390a18151815181515f929190811061020257610202610799565b60200260200101519050805f01516001600160a01b0316634d8893d08b8b8b856020015187602001516040518663ffffffff1660e01b815260040161024b9594939291906107ad565b5f604051808303815f87803b158015610262575f5ffd5b505af1158015610274573d5f5f3e3d5ffd5b5050505050505050505050505050565b60408051602081019091526060815261029f8284018461082f565b9392505050565b6060816040516020016102b991906109e5565b6040516020818303038152906040529050919050565b6060816040516020016102b99190610ad6565b61032782826040516024016102f8929190610b0c565b60408051601f198184030181529190526020810180516001600160e01b031663319af33360e01b17905261036c565b5050565b6103278282604051602401610341929190610b35565b60408051601f198184030181529190526020810180516001600160e01b0316632d839cb360e21b1790525b61037581610378565b50565b5f6a636f6e736f6c652e6c6f6790505f5f835160208501845afa505050565b6001600160a01b0381168114610375575f5ffd5b5f604082840312156103bb575f5ffd5b50919050565b5f5f83601f8401126103d1575f5ffd5b5081356001600160401b038111156103e7575f5ffd5b6020830191508360208285010111156103fe575f5ffd5b9250929050565b5f5f5f5f5f5f5f87890361010081121561041d575f5ffd5b883561042881610397565b97506060601f198201121561043b575f5ffd5b5060208801955061044f8960808a016103ab565b945060c08801356001600160401b03811115610469575f5ffd5b6104758a828b016103c1565b90955093505060e08801356001600160401b03811115610493575f5ffd5b61049f8a828b016103c1565b989b979a50959850939692959293505050565b5f5f602083850312156104c3575f5ffd5b82356001600160401b038111156104d8575f5ffd5b6104e4858286016103c1565b90969095509350505050565b5f81518084528060208401602086015e5f602082860101526020601f19601f83011685010191505092915050565b602081525f60408201835160208085015281815180845260608601915060608160051b87010193506020830192505f5b8181101561059f57868503605f19018352835180516001600160a01b03168652602090810151604091870182905290610589908701826104f0565b955050602093840193929092019160010161054e565b50929695505050505050565b5f602082840312156105bb575f5ffd5b81356001600160401b038111156105d0575f5ffd5b82016020818503121561029f575f5ffd5b602081525f61029f60208301846104f0565b5f60208284031215610603575f5ffd5b81356001600160401b03811115610618575f5ffd5b610624848285016103ab565b949350505050565b634e487b7160e01b5f52604160045260245ffd5b604080519081016001600160401b03811182821017156106625761066261062c565b60405290565b604051602081016001600160401b03811182821017156106625761066261062c565b604051601f8201601f191681016001600160401b03811182821017156106b2576106b261062c565b604052919050565b5f82601f8301126106c9575f5ffd5b81356001600160401b038111156106e2576106e261062c565b6106f5601f8201601f191660200161068a565b818152846020838601011115610709575f5ffd5b816020850160208301375f918101602001919091529392505050565b5f60208284031215610735575f5ffd5b81356001600160401b0381111561074a575f5ffd5b82016040818503121561075b575f5ffd5b610763610640565b8135815260208201356001600160401b0381111561077f575f5ffd5b61078b868285016106ba565b602083015250949350505050565b634e487b7160e01b5f52603260045260245ffd5b6001600160a01b03861681525f85356107c581610397565b6001600160a01b03166020838101919091528681013560408085019190915287013560608401528535608084015285013560a083015261010060c08301819052610811908301856104f0565b82810360e084015261082381856104f0565b98975050505050505050565b5f6020828403121561083f575f5ffd5b81356001600160401b03811115610854575f5ffd5b820160208185031215610865575f5ffd5b61086d610668565b81356001600160401b03811115610882575f5ffd5b80830192505084601f830112610896575f5ffd5b81356001600160401b038111156108af576108af61062c565b8060051b6108bf6020820161068a565b918252602081850181019290810190888411156108da575f5ffd5b6020860192505b8383101561096e5782356001600160401b038111156108fe575f5ffd5b86016040818b03601f19011215610913575f5ffd5b61091b610640565b602082013561092981610397565b815260408201356001600160401b03811115610943575f5ffd5b6109528c6020838601016106ba565b60208301525080845250506020820191506020830192506108e1565b845250919695505050505050565b5f5f8335601e19843603018112610991575f5ffd5b83016020810192503590506001600160401b038111156109af575f5ffd5b8036038213156103fe575f5ffd5b81835281816020850137505f828201602090810191909152601f909101601f19169091010190565b602081525f604082018335601e19853603018112610a01575f5ffd5b84018035602082016001600160401b03821115610a1c575f5ffd5b8160051b803603821315610a2e575f5ffd5b6020878101529382905260609386018401935f908701605e1936869003015b84831015610ac857888703605f190182528335818112610a6b575f5ffd5b8601602081018035610a7c81610397565b6001600160a01b03168952610a94604083018261097c565b92509050604060208a0152610aad60408a0183836109bd565b98505050602084019350602082019150600183019250610a4d565b509498975050505050505050565b60208082528235828201525f90610aef9084018461097c565b604080850152610b036060850182846109bd565b95945050505050565b604081525f610b1e60408301856104f0565b905060018060a01b03831660208301529392505050565b604081525f610b4760408301856104f0565b9050826020830152939250505056fe4272616e63686564556e6c6f636b65722e756e6c6f636b286272616e636865732e6c656e67746829a2646970667358221220f6776bb70889d18f72330519a6d1ce0b85c22896bc316022a14216d7d838a58564736f6c634300081c0033",
    "linkReferences": {},
    "deployedLinkReferences": {},
    "immutableReferences": {},
    "inputSourceName": "project/contracts/DepositUnlockers.sol",
    "buildInfoId": "solc-0_8_28-854b14a7bf48c98c8a35d2a7ae40057335901f52"
}