{
    "_format": "hh-sol-artifact-1",
    "contractName": "BranchedUnlocker",
    "sourceName": "contracts/DepositUnlockers.sol",
    "abi": [
        {
            "inputs": [
                {
                    "internalType": "bytes",
                    "name": "condition",
                    "type": "bytes"
                }
            ],
            "name": "decodeCondition",
            "outputs": [
                {
                    "components": [
                        {
                            "components": [
                                {
                                    "internalType": "contract IDepositUnlocker",
                                    "name": "unlocker",
                                    "type": "address"
                                },
                                {
                                    "internalType": "bytes",
                                    "name": "condition",
                                    "type": "bytes"
                                }
                            ],
                            "internalType": "struct DepositoryTypes.Unlocker[]",
                            "name": "unlockers",
                            "type": "tuple[]"
                        }
                    ],
                    "internalType": "struct BranchedUnlocker.Condition",
                    "name": "",
                    "type": "tuple"
                }
            ],
            "stateMutability": "pure",
            "type": "function"
        },
        {
            "inputs": [
                {
                    "components": [
                        {
                            "components": [
                                {
                                    "internalType": "contract IDepositUnlocker",
                                    "name": "unlocker",
                                    "type": "address"
                                },
                                {
                                    "internalType": "bytes",
                                    "name": "condition",
                                    "type": "bytes"
                                }
                            ],
                            "internalType": "struct DepositoryTypes.Unlocker[]",
                            "name": "unlockers",
                            "type": "tuple[]"
                        }
                    ],
                    "internalType": "struct BranchedUnlocker.Condition",
                    "name": "c",
                    "type": "tuple"
                }
            ],
            "name": "encodeCondition",
            "outputs": [
                {
                    "internalType": "bytes",
                    "name": "",
                    "type": "bytes"
                }
            ],
            "stateMutability": "pure",
            "type": "function"
        },
        {
            "inputs": [
                {
                    "components": [
                        {
                            "internalType": "uint256",
                            "name": "index",
                            "type": "uint256"
                        },
                        {
                            "internalType": "bytes",
                            "name": "solution",
                            "type": "bytes"
                        }
                    ],
                    "internalType": "struct BranchedUnlocker.Solution",
                    "name": "s",
                    "type": "tuple"
                }
            ],
            "name": "encodeSolution",
            "outputs": [
                {
                    "internalType": "bytes",
                    "name": "",
                    "type": "bytes"
                }
            ],
            "stateMutability": "pure",
            "type": "function"
        },
        {
            "inputs": [
                {
                    "internalType": "contract IMetaRouter",
                    "name": "metarouter",
                    "type": "address"
                },
                {
                    "components": [
                        {
                            "internalType": "contract IERC20",
                            "name": "token",
                            "type": "address"
                        },
                        {
                            "internalType": "uint256",
                            "name": "amount",
                            "type": "uint256"
                        },
                        {
                            "internalType": "uint256",
                            "name": "nonce",
                            "type": "uint256"
                        }
                    ],
                    "internalType": "struct DepositoryTypes.Deposit",
                    "name": "deposit",
                    "type": "tuple"
                },
                {
                    "internalType": "bytes",
                    "name": "condition",
                    "type": "bytes"
                },
                {
                    "internalType": "bytes",
                    "name": "solution",
                    "type": "bytes"
                }
            ],
            "name": "unlock",
            "outputs": [],
            "stateMutability": "nonpayable",
            "type": "function"
        }
    ],
    "bytecode": "0x608060405234601957604051610dcf61001f8239610dcf90f35b600080fdfe6080604052600436101561001257600080fd5b60003560e01c806322c0bff814610052578063760bd1181461004d57806385a600c7146100485763b11e07ce03610092576103c7565b61036c565b6102ff565b61014e565b73ffffffffffffffffffffffffffffffffffffffff1690565b90565b73ffffffffffffffffffffffffffffffffffffffff81165b0361009257565b600080fd5b905035906100a482610073565b565b908160609103126100925790565b909182601f830112156100925781359167ffffffffffffffff831161009257602001926001830284011161009257565b919060c083820312610092576100fa8184610097565b9261010882602083016100a6565b92608082013567ffffffffffffffff811161009257836101299184016100b4565b92909360a082013567ffffffffffffffff81116100925761014a92016100b4565b9091565b346100925761016d6101613660046100e4565b949390939291926107b7565b60405180805b0390f35b9060208282031261009257813567ffffffffffffffff81116100925761014a92016100b4565b6100576100706100709273ffffffffffffffffffffffffffffffffffffffff1690565b6100709061019d565b610070906101c0565b6101db906101c9565b9052565b60005b8381106101f25750506000910152565b81810151838201526020016101e2565b61022361022c60209361023693610217815190565b80835293849260200190565b958691016101df565b601f01601f191690565b0190565b6100709160206040820192610257600082015160008501906101d2565b0151906020818403910152610202565b906100709161023a565b9061028761027d835190565b8083529160200190565b90816102996020830284019460200190565b926000915b8383106102ad57505050505090565b909192939460206102d06102c983856001950387528951610267565b9760200190565b930193019193929061029e565b516020808352610070920190610271565b6020808252610070929101906102dd565b346100925761017361031b610315366004610177565b90610a2f565b604051918291826102ee565b908160209103126100925790565b9060208282031261009257813567ffffffffffffffff8111610092576100709201610327565b602080825261007092910190610202565b3461009257610173610387610382366004610335565b610bd7565b6040519182918261035b565b908160409103126100925790565b9060208282031261009257813567ffffffffffffffff8111610092576100709201610393565b34610092576101736103876103dd3660046103a1565b610c2e565b634e487b7160e01b600052604160045260246000fd5b90601f01601f1916810190811067ffffffffffffffff82111761041a57604052565b6103e2565b906100a461042c60405190565b92836103f8565b67ffffffffffffffff811161041a57602090601f01601f19160190565b9061046261045d83610433565b61041f565b918252565b6104716023610450565b7f4272616e63686564556e6c6f636b65722e756e6c6f636b286d657461726f757460208201527f6572290000000000000000000000000000000000000000000000000000000000604082015290565b610070610467565b6104d26029610450565b7f4272616e63686564556e6c6f636b65722e756e6c6f636b28756e6c6f636b657260208201527f732e6c656e677468290000000000000000000000000000000000000000000000604082015290565b6100706104c8565b8061008b565b905035906100a482610529565b90826000939282370152565b9092919261055861045d82610433565b9381855281830111610092576100a491602085019061053c565b9080601f830112156100925781602061007093359101610548565b919091604081840312610092576105a4604061041f565b926105af818361052f565b8452602082013567ffffffffffffffff8111610092576105cf9201610572565b6020830152565b9060208282031261009257813567ffffffffffffffff811161009257610070920161058d565b610606601e610450565b7f4272616e63686564556e6c6f636b65722e756e6c6f636b28696e646578290000602082015290565b6100706105fc565b1561063e57565b6040517f08c379a0000000000000000000000000000000000000000000000000000000008152602060048201526024808201527f4272616e63686564556e6c6f636b65723a20696e76616c6964206c6f636b206960448201527f6e646578000000000000000000000000000000000000000000000000000000006064820152608490fd5b634e487b7160e01b600052603260045260246000fd5b906106e1825190565b8110156106f2576020809102010190565b6106c2565b600091031261009257565b50610070906020810190610097565b5061007090602081019061052f565b9060406107616100a49361074161073a6000830183610702565b85906101d2565b6107586107516020830183610711565b6020860152565b82810190610711565b910152565b929061079d91610790610070969461078660c088019460008901906101d2565b6020870190610720565b8482036080860152610202565b9160a0818403910152610202565b6040513d6000823e3d90fd5b9360006107e5610808939795610852956107e06107d38a6101c9565b6107db6104c0565b610c84565b610a2f565b01936108006107f386515190565b6107fb610521565b610d00565b8101906105d6565b91829061084c9061082261081a845190565b6107fb61062f565b61084661082d845190565b61084061083c61007085515190565b9190565b10610637565b51915190565b906106d8565b5160208061087c610877845173ffffffffffffffffffffffffffffffffffffffff1690565b6101c9565b92015192015193813b1561009257600080946108cd61089a60405190565b978896879586947f22c0bff800000000000000000000000000000000000000000000000000000000865260048601610766565b03925af180156108f6576108de5750565b6100a49060006108ee81836103f8565b8101906106f7565b6107ab565b610070602061041f565b61090d6108fb565b9060608252565b610070610905565b67ffffffffffffffff811161041a5760208091020190565b9190916040818403126100925761094b604061041f565b926105af8183610097565b92919061096561045d8261091c565b93818552602080860192028101918383116100925781905b83821061098b575050505050565b813567ffffffffffffffff8111610092576020916109ac8784938701610934565b81520191019061097d565b9080601f830112156100925781602061007093359101610956565b919091602081840312610092576109e9602061041f565b92813567ffffffffffffffff811161009257610a0592016109b7565b8252565b9060208282031261009257813567ffffffffffffffff81116100925761007092016109d2565b61007091610a3b610914565b50810190610a09565b9035601e19368390030181121561009257016020813591019167ffffffffffffffff821161009257602082023603831361009257565b9035601e19368390030181121561009257016020813591019167ffffffffffffffff82116100925736829003831361009257565b919061022c81610ac5816102369560209181520190565b809561053c565b610070916040810191610af790610aed610ae68280610702565b84906101d2565b6020810190610a7a565b916020818503910152610aae565b9061007091610acc565b90357fffffffffffffffffffffffffffffffffffffffffffffffffffffffffffffffc13683900301811215610092570190565b818352916020019081610b586020830284019490565b92836000925b848410610b6e5750505050505090565b9091929394956020610b9a610b938385600195038852610b8e8b88610b0f565b610b05565b9860200190565b940194019294939190610b5e565b610070916020810191610bbb9080610a44565b828403909252610b42565b602080825261007092910190610ba8565b610070610be360405190565b8092610bf3602083019182610bc6565b908103825203826103f8565b610070916040810191610af790610aed610c198280610711565b8452565b602080825261007092910190610bff565b610070610c3a60405190565b8092610bf3602083019182610c1d565b92916020610c676100a49360408701908782036000890152610202565b94019073ffffffffffffffffffffffffffffffffffffffff169052565b90610cd96100a492610cca610c9860405190565b9384926004602085017f319af33300000000000000000000000000000000000000000000000000000000815201610c4a565b602082018103825203826103f8565b610d46565b92916020610cfb6100a49360408701908782036000890152610202565b940152565b90610cd96100a492610cca610d1460405190565b9384926004602085017fb60e72cc00000000000000000000000000000000000000000000000000000000815201610cde565b6100a4906001610d89565b60008091610d676a636f6e736f6c652e6c6f6790565b602082519201905afa50565b634e487b7160e01b600052605160045260246000fd5b600103610d73576100a490610d5156fea26469706673582212203e02bdb89b19af3985597dc789722aba465c74d7612678e9e4cc247c6763de1a64736f6c634300081c0033",
    "linkReferences": {},
    "deployedLinkReferences": {}
}