{
    "_format": "hh-sol-artifact-1",
    "contractName": "BridgeV2NonEvm",
    "sourceName": "contracts/synth-core/non-evm-compatible/bridge/BridgeV2NonEvm.sol",
    "abi": [
        {
            "anonymous": false,
            "inputs": [
                {
                    "indexed": true,
                    "internalType": "address",
                    "name": "oldMPC",
                    "type": "address"
                },
                {
                    "indexed": true,
                    "internalType": "address",
                    "name": "newMPC",
                    "type": "address"
                },
                {
                    "indexed": true,
                    "internalType": "uint256",
                    "name": "effectiveTime",
                    "type": "uint256"
                },
                {
                    "indexed": false,
                    "internalType": "uint256",
                    "name": "chainId",
                    "type": "uint256"
                }
            ],
            "name": "LogChangeMPC",
            "type": "event"
        },
        {
            "anonymous": false,
            "inputs": [
                {
                    "indexed": false,
                    "internalType": "address",
                    "name": "bridge",
                    "type": "address"
                },
                {
                    "indexed": false,
                    "internalType": "bytes",
                    "name": "callData",
                    "type": "bytes"
                },
                {
                    "indexed": false,
                    "internalType": "bytes",
                    "name": "receiveSide",
                    "type": "bytes"
                },
                {
                    "indexed": false,
                    "internalType": "bytes",
                    "name": "oppositeBridge",
                    "type": "bytes"
                },
                {
                    "indexed": false,
                    "internalType": "uint256",
                    "name": "chainId",
                    "type": "uint256"
                }
            ],
            "name": "OracleRequest",
            "type": "event"
        },
        {
            "anonymous": false,
            "inputs": [
                {
                    "indexed": true,
                    "internalType": "address",
                    "name": "previousOwner",
                    "type": "address"
                },
                {
                    "indexed": true,
                    "internalType": "address",
                    "name": "newOwner",
                    "type": "address"
                }
            ],
            "name": "OwnershipTransferred",
            "type": "event"
        },
        {
            "anonymous": false,
            "inputs": [
                {
                    "indexed": true,
                    "internalType": "address",
                    "name": "admin",
                    "type": "address"
                },
                {
                    "indexed": false,
                    "internalType": "bool",
                    "name": "permission",
                    "type": "bool"
                }
            ],
            "name": "SetAdminPermission",
            "type": "event"
        },
        {
            "anonymous": false,
            "inputs": [
                {
                    "indexed": true,
                    "internalType": "address",
                    "name": "transmitter",
                    "type": "address"
                },
                {
                    "indexed": false,
                    "internalType": "bool",
                    "name": "status",
                    "type": "bool"
                }
            ],
            "name": "SetTransmitterStatus",
            "type": "event"
        },
        {
            "inputs": [
                {
                    "internalType": "address",
                    "name": "_newMPC",
                    "type": "address"
                }
            ],
            "name": "changeMPC",
            "outputs": [
                {
                    "internalType": "bool",
                    "name": "",
                    "type": "bool"
                }
            ],
            "stateMutability": "nonpayable",
            "type": "function"
        },
        {
            "inputs": [
                {
                    "internalType": "address",
                    "name": "_newMPC",
                    "type": "address"
                },
                {
                    "internalType": "bytes",
                    "name": "signature",
                    "type": "bytes"
                }
            ],
            "name": "changeMPCSigned",
            "outputs": [
                {
                    "internalType": "bool",
                    "name": "",
                    "type": "bool"
                }
            ],
            "stateMutability": "nonpayable",
            "type": "function"
        },
        {
            "inputs": [],
            "name": "currentChainId",
            "outputs": [
                {
                    "internalType": "uint256",
                    "name": "",
                    "type": "uint256"
                }
            ],
            "stateMutability": "view",
            "type": "function"
        },
        {
            "inputs": [
                {
                    "internalType": "address",
                    "name": "_mpc",
                    "type": "address"
                }
            ],
            "name": "initialize",
            "outputs": [],
            "stateMutability": "nonpayable",
            "type": "function"
        },
        {
            "inputs": [
                {
                    "internalType": "address",
                    "name": "",
                    "type": "address"
                }
            ],
            "name": "isAdmin",
            "outputs": [
                {
                    "internalType": "bool",
                    "name": "",
                    "type": "bool"
                }
            ],
            "stateMutability": "view",
            "type": "function"
        },
        {
            "inputs": [
                {
                    "internalType": "address",
                    "name": "",
                    "type": "address"
                }
            ],
            "name": "isTransmitter",
            "outputs": [
                {
                    "internalType": "bool",
                    "name": "",
                    "type": "bool"
                }
            ],
            "stateMutability": "view",
            "type": "function"
        },
        {
            "inputs": [],
            "name": "mpc",
            "outputs": [
                {
                    "internalType": "address",
                    "name": "",
                    "type": "address"
                }
            ],
            "stateMutability": "view",
            "type": "function"
        },
        {
            "inputs": [],
            "name": "newMPC",
            "outputs": [
                {
                    "internalType": "address",
                    "name": "",
                    "type": "address"
                }
            ],
            "stateMutability": "view",
            "type": "function"
        },
        {
            "inputs": [],
            "name": "newMPCEffectiveTime",
            "outputs": [
                {
                    "internalType": "uint256",
                    "name": "",
                    "type": "uint256"
                }
            ],
            "stateMutability": "view",
            "type": "function"
        },
        {
            "inputs": [
                {
                    "internalType": "bytes",
                    "name": "",
                    "type": "bytes"
                }
            ],
            "name": "nonce",
            "outputs": [
                {
                    "internalType": "uint256",
                    "name": "",
                    "type": "uint256"
                }
            ],
            "stateMutability": "view",
            "type": "function"
        },
        {
            "inputs": [],
            "name": "oldMPC",
            "outputs": [
                {
                    "internalType": "address",
                    "name": "",
                    "type": "address"
                }
            ],
            "stateMutability": "view",
            "type": "function"
        },
        {
            "inputs": [],
            "name": "owner",
            "outputs": [
                {
                    "internalType": "address",
                    "name": "",
                    "type": "address"
                }
            ],
            "stateMutability": "view",
            "type": "function"
        },
        {
            "inputs": [
                {
                    "internalType": "bytes",
                    "name": "_callData",
                    "type": "bytes"
                },
                {
                    "internalType": "address",
                    "name": "_receiveSide",
                    "type": "address"
                }
            ],
            "name": "receiveRequestV2",
            "outputs": [],
            "stateMutability": "nonpayable",
            "type": "function"
        },
        {
            "inputs": [
                {
                    "internalType": "bytes",
                    "name": "_callData",
                    "type": "bytes"
                },
                {
                    "internalType": "address",
                    "name": "_receiveSide",
                    "type": "address"
                },
                {
                    "internalType": "bytes",
                    "name": "signature",
                    "type": "bytes"
                }
            ],
            "name": "receiveRequestV2Signed",
            "outputs": [],
            "stateMutability": "nonpayable",
            "type": "function"
        },
        {
            "inputs": [],
            "name": "renounceOwnership",
            "outputs": [],
            "stateMutability": "nonpayable",
            "type": "function"
        },
        {
            "inputs": [
                {
                    "internalType": "address",
                    "name": "_user",
                    "type": "address"
                },
                {
                    "internalType": "bool",
                    "name": "_permission",
                    "type": "bool"
                }
            ],
            "name": "setAdminPermission",
            "outputs": [],
            "stateMutability": "nonpayable",
            "type": "function"
        },
        {
            "inputs": [
                {
                    "internalType": "address",
                    "name": "_transmitter",
                    "type": "address"
                },
                {
                    "internalType": "bool",
                    "name": "_status",
                    "type": "bool"
                }
            ],
            "name": "setTransmitterStatus",
            "outputs": [],
            "stateMutability": "nonpayable",
            "type": "function"
        },
        {
            "inputs": [
                {
                    "internalType": "address",
                    "name": "newOwner",
                    "type": "address"
                }
            ],
            "name": "transferOwnership",
            "outputs": [],
            "stateMutability": "nonpayable",
            "type": "function"
        },
        {
            "inputs": [
                {
                    "internalType": "bytes",
                    "name": "_callData",
                    "type": "bytes"
                },
                {
                    "internalType": "bytes",
                    "name": "_receiveSide",
                    "type": "bytes"
                },
                {
                    "internalType": "bytes",
                    "name": "_oppositeBridge",
                    "type": "bytes"
                },
                {
                    "internalType": "uint256",
                    "name": "_chainId",
                    "type": "uint256"
                }
            ],
            "name": "transmitRequestV2",
            "outputs": [],
            "stateMutability": "nonpayable",
            "type": "function"
        },
        {
            "inputs": [
                {
                    "internalType": "address",
                    "name": "token",
                    "type": "address"
                },
                {
                    "internalType": "address",
                    "name": "to",
                    "type": "address"
                },
                {
                    "internalType": "uint256",
                    "name": "amount",
                    "type": "uint256"
                }
            ],
            "name": "withdrawFee",
            "outputs": [
                {
                    "internalType": "bool",
                    "name": "",
                    "type": "bool"
                }
            ],
            "stateMutability": "nonpayable",
            "type": "function"
        }
    ],
    "bytecode": "0x608060405234801561001057600080fd5b50611a2a806100206000396000f3fe608060405234801561001057600080fd5b506004361061016c5760003560e01c80636fac3007116100cd578063c00f8a3d11610081578063f2fde38b11610066578063f2fde38b14610305578063f75c266414610318578063f7f1baf01461032057600080fd5b8063c00f8a3d146102df578063c4d66de8146102f257600080fd5b806375f3974b116100b257806375f3974b146102a857806384d61c97146102bb5780638da5cb5b146102ce57600080fd5b80636fac30071461027d578063715018a6146102a057600080fd5b8063405fb4f7116101245780634e765004116101095780634e765004146102395780635b7b018c146102645780636cbadbfa1461027757600080fd5b8063405fb4f7146101f7578063474a245a1461020e57600080fd5b806319117d931161015557806319117d93146101ae57806324d7806c146101c157806338899935146101e457600080fd5b806302c0ec80146101715780631095b6d714610186575b600080fd5b61018461017f3660046116ca565b610333565b005b6101996101943660046114ab565b6103dc565b60405190151581526020015b60405180910390f35b6101846101bc3660046114e7565b610477565b6101996101cf366004611490565b60656020526000908152604090205460ff1681565b6101996101f236600461151e565b610531565b61020060685481565b6040519081526020016101a5565b606654610221906001600160a01b031681565b6040516001600160a01b0390911681526020016101a5565b6102006102473660046115cb565b805160208183018101805160698252928201919093012091525481565b610199610272366004611490565b610610565b46610200565b61019961028b366004611490565b606a6020526000908152604090205460ff1681565b6101846106cb565b6101846102b63660046114e7565b610731565b6101846102c9366004611656565b6107e3565b6033546001600160a01b0316610221565b606754610221906001600160a01b031681565b610184610300366004611490565b61087f565b610184610313366004611490565b6109b6565b610221610a98565b61018461032e366004611608565b610ac3565b336000908152606a602052604090205460ff166103975760405162461bcd60e51b815260206004820152601b60248201527f42726964676556323a206e6f742061207472616e736d6974746572000000000060448201526064015b60405180910390fd5b7f518ee52098ebca33abd312a0bf822a38b7098f3385452c7ae7393500b08afc6130858585856040516103ce95949392919061187c565b60405180910390a150505050565b6000336103f16033546001600160a01b031690565b6001600160a01b0316148061041557503360009081526065602052604090205460ff165b6104615760405162461bcd60e51b815260206004820152601c60248201527f4f6e6c79206f776e6572206f722061646d696e2063616e2063616c6c00000000604482015260640161038e565b61046c848484610b35565b5060015b9392505050565b6033546001600160a01b031633146104d15760405162461bcd60e51b815260206004820181905260248201527f4f776e61626c653a2063616c6c6572206973206e6f7420746865206f776e6572604482015260640161038e565b6001600160a01b0382166000818152606a6020908152604091829020805460ff191685151590811790915591519182527feeec8b4e2d317fc608f301f859237a6081b9813f150a3fcfb02fd54276c8be4091015b60405180910390a25050565b6040517f6368616e67654d5043000000000000000000000000000000000000000000000060208201526bffffffffffffffffffffffff19606084811b8216602984015246603d84015230901b16605d82015260009060710160405160208183030381529060405280519060200120826105b26105ab610a98565b8383610c9d565b6105fe5760405162461bcd60e51b815260206004820152601b60248201527f42726964676556323a20696e76616c6964207369676e61747572650000000000604482015260640161038e565b61060785610e47565b95945050505050565b60003361061b610a98565b6001600160a01b0316148061064957503361063e6033546001600160a01b031690565b6001600160a01b0316145b6106ba5760405162461bcd60e51b8152602060048201526024808201527f42726964676556323a206f6e6c79206f776e6572206f72204d50432063616e2060448201527f63616c6c00000000000000000000000000000000000000000000000000000000606482015260840161038e565b6106c382610e47565b90505b919050565b6033546001600160a01b031633146107255760405162461bcd60e51b815260206004820181905260248201527f4f776e61626c653a2063616c6c6572206973206e6f7420746865206f776e6572604482015260640161038e565b61072f6000610f2c565b565b6033546001600160a01b0316331461078b5760405162461bcd60e51b815260206004820181905260248201527f4f776e61626c653a2063616c6c6572206973206e6f7420746865206f776e6572604482015260640161038e565b6001600160a01b038216600081815260656020908152604091829020805460ff191685151590811790915591519182527f0e7bea53cb2b3130dd1aac8d56b61cc8da7ebab0432e2d1622513523d848f2e79101610525565b604051610800908490606085811b91469130901b90602001611810565b60405160208183030381529060405280519060200120816108226105ab610a98565b61086e5760405162461bcd60e51b815260206004820152601b60248201527f42726964676556323a20696e76616c6964207369676e61747572650000000000604482015260640161038e565b6108788585610f8b565b5050505050565b600054610100900460ff1661089a5760005460ff161561089e565b303b155b6109105760405162461bcd60e51b815260206004820152602e60248201527f496e697469616c697a61626c653a20636f6e747261637420697320616c72656160448201527f647920696e697469616c697a6564000000000000000000000000000000000000606482015260840161038e565b600054610100900460ff1615801561094f57600080547fffffffffffffffffffffffffffffffffffffffffffffffffffffffffffff0000166101011790555b6109576110b8565b6066805473ffffffffffffffffffffffffffffffffffffffff19166001600160a01b0384161790554260685580156109b257600080547fffffffffffffffffffffffffffffffffffffffffffffffffffffffffffff00ff1690555b5050565b6033546001600160a01b03163314610a105760405162461bcd60e51b815260206004820181905260248201527f4f776e61626c653a2063616c6c6572206973206e6f7420746865206f776e6572604482015260640161038e565b6001600160a01b038116610a8c5760405162461bcd60e51b815260206004820152602660248201527f4f776e61626c653a206e6577206f776e657220697320746865207a65726f206160448201527f6464726573730000000000000000000000000000000000000000000000000000606482015260840161038e565b610a9581610f2c565b50565b60006068544210610ab357506066546001600160a01b031690565b506067546001600160a01b031690565b610acb610a98565b6001600160a01b0316336001600160a01b031614610b2b5760405162461bcd60e51b815260206004820152601360248201527f42726964676556323a20666f7262696464656e00000000000000000000000000604482015260640161038e565b6109b28282610f8b565b604080516001600160a01b038481166024830152604480830185905283518084039091018152606490920183526020820180517bffffffffffffffffffffffffffffffffffffffffffffffffffffffff167fa9059cbb000000000000000000000000000000000000000000000000000000001790529151600092839290871691610bbf91906117f4565b6000604051808303816000865af19150503d8060008114610bfc576040519150601f19603f3d011682016040523d82523d6000602084013e610c01565b606091505b5091509150818015610c2b575080511580610c2b575080806020019051810190610c2b919061156c565b6108785760405162461bcd60e51b815260206004820152602d60248201527f5472616e7366657248656c7065723a3a736166655472616e736665723a20747260448201527f616e73666572206661696c656400000000000000000000000000000000000000606482015260840161038e565b6000806000610cac8585611145565b90925090506000816004811115610cc557610cc5611988565b148015610ce35750856001600160a01b0316826001600160a01b0316145b15610cf357600192505050610470565b600080876001600160a01b0316631626ba7e60e01b8888604051602401610d1b9291906118d7565b60408051601f198184030181529181526020820180517bffffffffffffffffffffffffffffffffffffffffffffffffffffffff167fffffffff00000000000000000000000000000000000000000000000000000000909416939093179092529051610d8691906117f4565b600060405180830381855afa9150503d8060008114610dc1576040519150601f19603f3d011682016040523d82523d6000602084013e610dc6565b606091505b5091509150818015610dd9575080516020145b8015610e3b575080517f1626ba7e0000000000000000000000000000000000000000000000000000000090610e179083016020908101908401611589565b7fffffffff0000000000000000000000000000000000000000000000000000000016145b98975050505050505050565b60006001600160a01b038216610e9f5760405162461bcd60e51b815260206004820152601660248201527f42726964676556323a2061646472657373283078302900000000000000000000604482015260640161038e565b610ea7610a98565b606780546001600160a01b0392831673ffffffffffffffffffffffffffffffffffffffff19918216811790925560668054938616939091168317905542606881905591907fcda32bc39904597666dfa9f9c845714756e1ffffad55b52e0d344673a2198121610f134690565b60405190815260200160405180910390a4506001919050565b603380546001600160a01b0383811673ffffffffffffffffffffffffffffffffffffffff19831681179093556040519116919082907f8be0079c531659141344cd1fd0a4f28419497f9722a3daafe3b4186f6b6457e090600090a35050565b6001600160a01b0381166000908152606a602052604090205460ff16610ff35760405162461bcd60e51b815260206004820152601f60248201527f42726964676556323a20756e74727573746564207472616e736d697474657200604482015260640161038e565b600080826001600160a01b03168460405161100e91906117f4565b6000604051808303816000865af19150503d806000811461104b576040519150601f19603f3d011682016040523d82523d6000602084013e611050565b606091505b5091509150816110b257611099816040518060400160405280601581526020017f42726964676556323a2063616c6c206661696c656400000000000000000000008152506111b5565b60405162461bcd60e51b815260040161038e91906118f0565b50505050565b600054610100900460ff166111355760405162461bcd60e51b815260206004820152602b60248201527f496e697469616c697a61626c653a20636f6e7472616374206973206e6f74206960448201527f6e697469616c697a696e67000000000000000000000000000000000000000000606482015260840161038e565b61113d6111eb565b61072f611268565b60008082516041141561117c5760208301516040840151606085015160001a611170878285856112ee565b945094505050506111ae565b8251604014156111a6576020830151604084015161119b8683836113db565b9350935050506111ae565b506000905060025b9250929050565b60606044835110156111c85750806111e5565b600483019250828060200190518101906111e2919061175a565b90505b92915050565b600054610100900460ff1661072f5760405162461bcd60e51b815260206004820152602b60248201527f496e697469616c697a61626c653a20636f6e7472616374206973206e6f74206960448201527f6e697469616c697a696e67000000000000000000000000000000000000000000606482015260840161038e565b600054610100900460ff166112e55760405162461bcd60e51b815260206004820152602b60248201527f496e697469616c697a61626c653a20636f6e7472616374206973206e6f74206960448201527f6e697469616c697a696e67000000000000000000000000000000000000000000606482015260840161038e565b61072f33610f2c565b6000807f7fffffffffffffffffffffffffffffff5d576e7357a4501ddfe92f46681b20a083111561132557506000905060036113d2565b8460ff16601b1415801561133d57508460ff16601c14155b1561134e57506000905060046113d2565b6040805160008082526020820180845289905260ff881692820192909252606081018690526080810185905260019060a0016020604051602081039080840390855afa1580156113a2573d6000803e3d6000fd5b5050604051601f1901519150506001600160a01b0381166113cb576000600192509250506113d2565b9150600090505b94509492505050565b6000807f7fffffffffffffffffffffffffffffffffffffffffffffffffffffffffffffff831660ff84901c601b01611415878288856112ee565b935093505050935093915050565b80356001600160a01b03811681146106c657600080fd5b600082601f83011261144b57600080fd5b813561145e61145982611934565b611903565b81815284602083860101111561147357600080fd5b816020850160208301376000918101602001919091529392505050565b6000602082840312156114a257600080fd5b6111e282611423565b6000806000606084860312156114c057600080fd5b6114c984611423565b92506114d760208501611423565b9150604084013590509250925092565b600080604083850312156114fa57600080fd5b61150383611423565b91506020830135611513816119e6565b809150509250929050565b6000806040838503121561153157600080fd5b61153a83611423565b9150602083013567ffffffffffffffff81111561155657600080fd5b6115628582860161143a565b9150509250929050565b60006020828403121561157e57600080fd5b8151610470816119e6565b60006020828403121561159b57600080fd5b81517fffffffff000000000000000000000000000000000000000000000000000000008116811461047057600080fd5b6000602082840312156115dd57600080fd5b813567ffffffffffffffff8111156115f457600080fd5b6116008482850161143a565b949350505050565b6000806040838503121561161b57600080fd5b823567ffffffffffffffff81111561163257600080fd5b61163e8582860161143a565b92505061164d60208401611423565b90509250929050565b60008060006060848603121561166b57600080fd5b833567ffffffffffffffff8082111561168357600080fd5b61168f8783880161143a565b945061169d60208701611423565b935060408601359150808211156116b357600080fd5b506116c08682870161143a565b9150509250925092565b600080600080608085870312156116e057600080fd5b843567ffffffffffffffff808211156116f857600080fd5b6117048883890161143a565b9550602087013591508082111561171a57600080fd5b6117268883890161143a565b9450604087013591508082111561173c57600080fd5b506117498782880161143a565b949793965093946060013593505050565b60006020828403121561176c57600080fd5b815167ffffffffffffffff81111561178357600080fd5b8201601f8101841361179457600080fd5b80516117a261145982611934565b8181528560208385010111156117b757600080fd5b61060782602083016020860161195c565b600081518084526117e081602086016020860161195c565b601f01601f19169290920160200192915050565b6000825161180681846020870161195c565b9190910192915050565b7f7265636569766552657175657374563200000000000000000000000000000000815260008551611848816010850160208a0161195c565b6bffffffffffffffffffffffff19958616601093909101928301525060248101929092529091166044820152605801919050565b6001600160a01b038616815260a06020820152600061189e60a08301876117c8565b82810360408401526118b081876117c8565b905082810360608401526118c481866117c8565b9150508260808301529695505050505050565b82815260406020820152600061160060408301846117c8565b6020815260006111e260208301846117c8565b604051601f8201601f1916810167ffffffffffffffff8111828210171561192c5761192c6119b7565b604052919050565b600067ffffffffffffffff82111561194e5761194e6119b7565b50601f01601f191660200190565b60005b8381101561197757818101518382015260200161195f565b838111156110b25750506000910152565b7f4e487b7100000000000000000000000000000000000000000000000000000000600052602160045260246000fd5b7f4e487b7100000000000000000000000000000000000000000000000000000000600052604160045260246000fd5b8015158114610a9557600080fdfea2646970667358221220e706236909c63792478ea56d67fb5b3d0304fded642e1113fee66973c2fc2e6f64736f6c63430008070033",
    "linkReferences": {},
    "deployedLinkReferences": {}
}