{
    "_format": "hh3-artifact-1",
    "contractName": "Depository",
    "sourceName": "contracts/Depository.sol",
    "abi": [
        {
            "inputs": [
                {
                    "internalType": "address",
                    "name": "target",
                    "type": "address"
                }
            ],
            "name": "AddressEmptyCode",
            "type": "error"
        },
        {
            "inputs": [
                {
                    "internalType": "DepositID",
                    "name": "id",
                    "type": "bytes32"
                }
            ],
            "name": "DepositExists",
            "type": "error"
        },
        {
            "inputs": [
                {
                    "internalType": "DepositID",
                    "name": "id",
                    "type": "bytes32"
                }
            ],
            "name": "DepositUnavailable",
            "type": "error"
        },
        {
            "inputs": [
                {
                    "internalType": "address",
                    "name": "implementation",
                    "type": "address"
                }
            ],
            "name": "ERC1967InvalidImplementation",
            "type": "error"
        },
        {
            "inputs": [],
            "name": "ERC1967NonPayable",
            "type": "error"
        },
        {
            "inputs": [],
            "name": "FailedCall",
            "type": "error"
        },
        {
            "inputs": [],
            "name": "InvalidInitialization",
            "type": "error"
        },
        {
            "inputs": [],
            "name": "NotInitializing",
            "type": "error"
        },
        {
            "inputs": [
                {
                    "internalType": "address",
                    "name": "owner",
                    "type": "address"
                }
            ],
            "name": "OwnableInvalidOwner",
            "type": "error"
        },
        {
            "inputs": [
                {
                    "internalType": "address",
                    "name": "account",
                    "type": "address"
                }
            ],
            "name": "OwnableUnauthorizedAccount",
            "type": "error"
        },
        {
            "inputs": [
                {
                    "internalType": "address",
                    "name": "token",
                    "type": "address"
                }
            ],
            "name": "SafeERC20FailedOperation",
            "type": "error"
        },
        {
            "inputs": [],
            "name": "UUPSUnauthorizedCallContext",
            "type": "error"
        },
        {
            "inputs": [
                {
                    "internalType": "bytes32",
                    "name": "slot",
                    "type": "bytes32"
                }
            ],
            "name": "UUPSUnsupportedProxiableUUID",
            "type": "error"
        },
        {
            "anonymous": false,
            "inputs": [
                {
                    "indexed": true,
                    "internalType": "DepositID",
                    "name": "depositID",
                    "type": "bytes32"
                },
                {
                    "components": [
                        {
                            "internalType": "contract IERC20",
                            "name": "token",
                            "type": "address"
                        },
                        {
                            "internalType": "uint256",
                            "name": "amount",
                            "type": "uint256"
                        },
                        {
                            "internalType": "uint256",
                            "name": "nonce",
                            "type": "uint256"
                        }
                    ],
                    "indexed": false,
                    "internalType": "struct DepositoryTypes.Deposit",
                    "name": "deposit",
                    "type": "tuple"
                },
                {
                    "components": [
                        {
                            "internalType": "contract IDepositUnlocker",
                            "name": "unlocker",
                            "type": "address"
                        },
                        {
                            "internalType": "bytes",
                            "name": "condition",
                            "type": "bytes"
                        }
                    ],
                    "indexed": false,
                    "internalType": "struct DepositoryTypes.UnlockCondition",
                    "name": "unlocker",
                    "type": "tuple"
                },
                {
                    "components": [
                        {
                            "internalType": "uint256",
                            "name": "blockNumber",
                            "type": "uint256"
                        },
                        {
                            "internalType": "uint256",
                            "name": "timestamp",
                            "type": "uint256"
                        }
                    ],
                    "indexed": false,
                    "internalType": "struct DepositoryTypes.BlockchainState",
                    "name": "state",
                    "type": "tuple"
                }
            ],
            "name": "DepositLocked",
            "type": "event"
        },
        {
            "anonymous": false,
            "inputs": [
                {
                    "indexed": true,
                    "internalType": "DepositID",
                    "name": "depositID",
                    "type": "bytes32"
                }
            ],
            "name": "DepositUnlocked",
            "type": "event"
        },
        {
            "anonymous": false,
            "inputs": [
                {
                    "indexed": false,
                    "internalType": "uint64",
                    "name": "version",
                    "type": "uint64"
                }
            ],
            "name": "Initialized",
            "type": "event"
        },
        {
            "anonymous": false,
            "inputs": [
                {
                    "indexed": true,
                    "internalType": "address",
                    "name": "previousOwner",
                    "type": "address"
                },
                {
                    "indexed": true,
                    "internalType": "address",
                    "name": "newOwner",
                    "type": "address"
                }
            ],
            "name": "OwnershipTransferStarted",
            "type": "event"
        },
        {
            "anonymous": false,
            "inputs": [
                {
                    "indexed": true,
                    "internalType": "address",
                    "name": "previousOwner",
                    "type": "address"
                },
                {
                    "indexed": true,
                    "internalType": "address",
                    "name": "newOwner",
                    "type": "address"
                }
            ],
            "name": "OwnershipTransferred",
            "type": "event"
        },
        {
            "anonymous": false,
            "inputs": [
                {
                    "indexed": true,
                    "internalType": "contract IRouter",
                    "name": "oldRouter",
                    "type": "address"
                },
                {
                    "indexed": true,
                    "internalType": "contract IRouter",
                    "name": "newRouter",
                    "type": "address"
                }
            ],
            "name": "SetRouter",
            "type": "event"
        },
        {
            "anonymous": false,
            "inputs": [
                {
                    "indexed": true,
                    "internalType": "address",
                    "name": "implementation",
                    "type": "address"
                }
            ],
            "name": "Upgraded",
            "type": "event"
        },
        {
            "inputs": [],
            "name": "UPGRADE_INTERFACE_VERSION",
            "outputs": [
                {
                    "internalType": "string",
                    "name": "",
                    "type": "string"
                }
            ],
            "stateMutability": "view",
            "type": "function"
        },
        {
            "inputs": [],
            "name": "acceptOwnership",
            "outputs": [],
            "stateMutability": "nonpayable",
            "type": "function"
        },
        {
            "inputs": [
                {
                    "components": [
                        {
                            "internalType": "contract IERC20",
                            "name": "token",
                            "type": "address"
                        },
                        {
                            "internalType": "uint256",
                            "name": "amount",
                            "type": "uint256"
                        },
                        {
                            "internalType": "uint256",
                            "name": "nonce",
                            "type": "uint256"
                        }
                    ],
                    "internalType": "struct DepositoryTypes.Deposit",
                    "name": "deposit",
                    "type": "tuple"
                },
                {
                    "components": [
                        {
                            "internalType": "contract IDepositUnlocker",
                            "name": "unlocker",
                            "type": "address"
                        },
                        {
                            "internalType": "bytes",
                            "name": "condition",
                            "type": "bytes"
                        }
                    ],
                    "internalType": "struct DepositoryTypes.UnlockCondition",
                    "name": "condition",
                    "type": "tuple"
                },
                {
                    "components": [
                        {
                            "internalType": "uint256",
                            "name": "blockNumber",
                            "type": "uint256"
                        },
                        {
                            "internalType": "uint256",
                            "name": "timestamp",
                            "type": "uint256"
                        }
                    ],
                    "internalType": "struct DepositoryTypes.BlockchainState",
                    "name": "state",
                    "type": "tuple"
                }
            ],
            "name": "depositID",
            "outputs": [
                {
                    "internalType": "DepositID",
                    "name": "",
                    "type": "bytes32"
                }
            ],
            "stateMutability": "pure",
            "type": "function"
        },
        {
            "inputs": [
                {
                    "internalType": "DepositID",
                    "name": "",
                    "type": "bytes32"
                }
            ],
            "name": "depositStatus",
            "outputs": [
                {
                    "internalType": "bool",
                    "name": "",
                    "type": "bool"
                }
            ],
            "stateMutability": "view",
            "type": "function"
        },
        {
            "inputs": [],
            "name": "initialize",
            "outputs": [],
            "stateMutability": "nonpayable",
            "type": "function"
        },
        {
            "inputs": [
                {
                    "components": [
                        {
                            "internalType": "contract IERC20",
                            "name": "token",
                            "type": "address"
                        },
                        {
                            "internalType": "uint256",
                            "name": "amount",
                            "type": "uint256"
                        },
                        {
                            "internalType": "uint256",
                            "name": "nonce",
                            "type": "uint256"
                        }
                    ],
                    "internalType": "struct DepositoryTypes.Deposit",
                    "name": "deposit",
                    "type": "tuple"
                },
                {
                    "components": [
                        {
                            "internalType": "contract IDepositUnlocker",
                            "name": "unlocker",
                            "type": "address"
                        },
                        {
                            "internalType": "bytes",
                            "name": "condition",
                            "type": "bytes"
                        }
                    ],
                    "internalType": "struct DepositoryTypes.UnlockCondition",
                    "name": "condition",
                    "type": "tuple"
                }
            ],
            "name": "lock",
            "outputs": [],
            "stateMutability": "nonpayable",
            "type": "function"
        },
        {
            "inputs": [],
            "name": "owner",
            "outputs": [
                {
                    "internalType": "address",
                    "name": "",
                    "type": "address"
                }
            ],
            "stateMutability": "view",
            "type": "function"
        },
        {
            "inputs": [],
            "name": "pendingOwner",
            "outputs": [
                {
                    "internalType": "address",
                    "name": "",
                    "type": "address"
                }
            ],
            "stateMutability": "view",
            "type": "function"
        },
        {
            "inputs": [],
            "name": "proxiableUUID",
            "outputs": [
                {
                    "internalType": "bytes32",
                    "name": "",
                    "type": "bytes32"
                }
            ],
            "stateMutability": "view",
            "type": "function"
        },
        {
            "inputs": [],
            "name": "renounceOwnership",
            "outputs": [],
            "stateMutability": "nonpayable",
            "type": "function"
        },
        {
            "inputs": [],
            "name": "router",
            "outputs": [
                {
                    "internalType": "contract IRouter",
                    "name": "",
                    "type": "address"
                }
            ],
            "stateMutability": "view",
            "type": "function"
        },
        {
            "inputs": [
                {
                    "internalType": "contract IRouter",
                    "name": "_router",
                    "type": "address"
                }
            ],
            "name": "setRouter",
            "outputs": [],
            "stateMutability": "nonpayable",
            "type": "function"
        },
        {
            "inputs": [
                {
                    "internalType": "address",
                    "name": "newOwner",
                    "type": "address"
                }
            ],
            "name": "transferOwnership",
            "outputs": [],
            "stateMutability": "nonpayable",
            "type": "function"
        },
        {
            "inputs": [
                {
                    "components": [
                        {
                            "internalType": "contract IERC20",
                            "name": "token",
                            "type": "address"
                        },
                        {
                            "internalType": "uint256",
                            "name": "amount",
                            "type": "uint256"
                        },
                        {
                            "internalType": "uint256",
                            "name": "nonce",
                            "type": "uint256"
                        }
                    ],
                    "internalType": "struct DepositoryTypes.Deposit",
                    "name": "deposit",
                    "type": "tuple"
                },
                {
                    "components": [
                        {
                            "internalType": "contract IDepositUnlocker",
                            "name": "unlocker",
                            "type": "address"
                        },
                        {
                            "internalType": "bytes",
                            "name": "condition",
                            "type": "bytes"
                        }
                    ],
                    "internalType": "struct DepositoryTypes.UnlockCondition",
                    "name": "condition",
                    "type": "tuple"
                },
                {
                    "components": [
                        {
                            "internalType": "uint256",
                            "name": "blockNumber",
                            "type": "uint256"
                        },
                        {
                            "internalType": "uint256",
                            "name": "timestamp",
                            "type": "uint256"
                        }
                    ],
                    "internalType": "struct DepositoryTypes.BlockchainState",
                    "name": "blockchainState",
                    "type": "tuple"
                },
                {
                    "internalType": "bytes",
                    "name": "solution",
                    "type": "bytes"
                }
            ],
            "name": "unlock",
            "outputs": [],
            "stateMutability": "nonpayable",
            "type": "function"
        },
        {
            "inputs": [
                {
                    "internalType": "address",
                    "name": "newImplementation",
                    "type": "address"
                },
                {
                    "internalType": "bytes",
                    "name": "data",
                    "type": "bytes"
                }
            ],
            "name": "upgradeToAndCall",
            "outputs": [],
            "stateMutability": "payable",
            "type": "function"
        }
    ],
    "bytecode": "0x60a060405234602f57600e6033565b6040516119cc610081823960805181818161104e015261123e01526119cc90f35b5f80fd5b6039603b565b565b6039603960396074565b605790605a906001600160a01b031682565b90565b6001600160a01b031690565b6057906045565b6057906066565b607b30606d565b60805256fe60806040526004361015610011575f80fd5b5f3560e01c80634f1ef2861461010057806352d1902d146100fb578063715018a6146100f6578063794997aa146100f157806379ba5097146100ec5780637da9874f146100e75780638129fc1c146100e25780638da5cb5b146100dd578063ad3cb1cc146100d8578063c0d78655146100d3578063c358ec07146100ce578063d2563133146100c9578063e30c3978146100c4578063f2fde38b146100bf5763f887ea40036101265761072c565b6106a9565b61067a565b610661565b61060f565b61057d565b610526565b610444565b61042c565b6103ff565b61038b565b61036f565b6102a4565b610279565b61024d565b6001600160a01b031690565b90565b6001600160a01b0381165b0361012657565b5f80fd5b9050359061013782610114565b565b7f4e487b71000000000000000000000000000000000000000000000000000000005f52604160045260245ffd5b90601f01601f1916810190811067ffffffffffffffff82111761018857604052565b610139565b9061013761019a60405190565b9283610166565b67ffffffffffffffff811161018857602090601f01601f19160190565b0190565b90825f939282370152565b909291926101e26101dd826101a1565b61018d565b9381855281830111610126576101379160208501906101c2565b9080601f8301121561012657816020610111933591016101cd565b9190916040818403126101265761022e838261012a565b92602082013567ffffffffffffffff81116101265761011192016101fc565b61026161025b366004610217565b90610773565b60405180805b0390f35b5f91031261012657565b9052565b346101265761028936600461026b565b6102676102946107cd565b6040519182918290815260200190565b34610126576102b436600461026b565b61026161080d565b908160609103126101265790565b908160409103126101265790565b909182601f830112156101265781359167ffffffffffffffff831161012657602001926001830284011161012657565b9060e0828203126101265761031d81836102bc565b92606083013567ffffffffffffffff8111610126578261033e9185016102ca565b9261034c83608083016102ca565b9260c082013567ffffffffffffffff81116101265761036b92016102d8565b9091565b3461012657610261610382366004610308565b9392909261095b565b346101265761039b36600461026b565b610261610a4a565b8061011f565b90503590610137826103a3565b9060208282031261012657610111916103a9565b610111916008021c5b60ff1690565b9061011191546103ca565b5f6103fa6101119282905f5260205260405f2090565b6103d9565b346101265761026761041a6104153660046103b6565b6103e4565b60405191829182901515815260200190565b346101265761043c36600461026b565b610261610ce0565b346101265761045436600461026b565b61026761045f610ce8565b604051918291826001600160a01b03909116815260200190565b906104866101dd836101a1565b918252565b6104956005610479565b7f352e302e30000000000000000000000000000000000000000000000000000000602082015290565b61011161048b565b6101116104be565b6101116104c6565b90825f9392825e0152565b61050261050b6020936101be936104f6815190565b80835293849260200190565b958691016104d6565b601f01601f191690565b6020808252610111929101906104e1565b346101265761053636600461026b565b6102676105416104ce565b60405191829182610515565b6001600160a01b03811661011f565b905035906101378261054d565b90602082820312610126576101119161055c565b3461012657610261610590366004610569565b610daa565b9190604083820312610126576105c49060206105b1604061018d565b946105bc83826103a9565b8652016103a9565b6020830152565b909160c082840312610126576105e183836102bc565b9260608301359067ffffffffffffffff8211610126576080610608826101119487016102ca565b9401610595565b34610126576102676102946106253660046105cb565b91610db3565b9190916080818403126101265761064283826102bc565b92606082013567ffffffffffffffff81116101265761011192016102ca565b346101265761026161067436600461062b565b90610ed3565b346101265761068a36600461026b565b61026761045f610f93565b90602082820312610126576101119161012a565b34610126576102616106bc366004610695565b61103a565b610111916008021c6001600160a01b031690565b9061011191546106c1565b6101115f60016106d5565b610105610111610111926001600160a01b031690565b610111906106eb565b61011190610701565b6102759061070a565b6020810192916101379190610713565b346101265761073c36600461026b565b6102676107476106e0565b6040519182918261071c565b9061013791610760611043565b906101379161076e816110e8565b611112565b9061013791610753565b61011190610789611228565b6107c4565b6101116101116101119290565b6101117f360894a13ba1a3210667c828492db98dca3e2076cc3735a920a3ca505d382bbc61078e565b5061011161079b565b6101115f61077d565b6107de61126a565b6101376107fc565b6101056101116101119290565b610111906107e6565b6101376108085f6107f3565b6112c8565b6101376107d6565b356101118161054d565b35610111816103a3565b903590601e193682900301821215610126570180359067ffffffffffffffff8211610126576020019136829003831361012657565b5061011190602081019061055c565b506101119060208101906103a9565b9060406108bc6101379361089c6108955f83018361085e565b8590610713565b6108b36108ac602083018361086d565b6020860152565b8281019061086d565b910152565b9060206108bc610137936108b36108da5f83018361086d565b8552565b919061050b816108f5816101be9560209181520190565b80956101c2565b95936109356109429461092b6101119a9894956109216101008c01975f8d0190610713565b60208b019061087c565b60808901906108c1565b86830360c08801526108de565b9260e08185039101526108de565b6040513d5f823e3d90fd5b9392909361096a838683611376565b6109a261097682610815565b61099061098b6001546001600160a01b031690565b61070a565b61099c6020850161081f565b91611451565b6109ae61098b86610815565b916109cf6109c46001546001600160a01b031690565b966020810190610829565b849791973b15610126575f968793610a1d926109ea60405190565b9a8b998a9889977f4d8893d0000000000000000000000000000000000000000000000000000000008952600489016108fc565b03925af18015610a4557610a2e5750565b610137905f610a3d8183610166565b81019061026b565b610950565b33610a53610f93565b610a6e6001600160a01b0383165b916001600160a01b031690565b03610a7c57610137906112c8565b7f118cdaa7000000000000000000000000000000000000000000000000000000005f9081526001600160a01b0390911660045260245b035ffd5b6101119060401c6103d3565b6101119054610ab6565b610111905b67ffffffffffffffff1690565b6101119054610acc565b610ad16101116101119290565b9067ffffffffffffffff905b9181191691161790565b610ad16101116101119267ffffffffffffffff1690565b90610b32610111610b3992610b0b565b8254610af5565b9055565b9068ff00000000000000009060401b610b01565b90610b61610111610b3992151590565b8254610b3d565b61027590610ae8565b6020810192916101379190610b68565b610b89611499565b80610ba3610b9d610b9983610ac2565b1590565b92610ade565b91610bad5f610ae8565b67ffffffffffffffff84161480610cc8575b600193610bdc610bce86610ae8565b9167ffffffffffffffff1690565b149081610ca0575b155b9081610c97575b50610c6d5780610c095f610c0086610ae8565b94019384610b22565b610c5e575b610c16610ccf565b610c1e575050565b7fc7f505b2f371ae2175ee4913f4499e1f2633a7b5936321eed1cdaeb6115181d291610c4d5f610c5993610b51565b60405191829182610b71565b0390a1565b610c688383610b51565b610c0e565b7ff92ee8a9000000000000000000000000000000000000000000000000000000005f908152600490fd5b1590505f610bed565b9050610be6610cae3061070a565b3b610cbf610cbb5f61078e565b9190565b14919050610be4565b5080610bbf565b610cd8336114b6565b6101376114c7565b610137610b81565b6101115f7f9016d09d72d40fdae2fd8ceac6b6234c7706214fd39c1cd1e609a0528c1993005b01546001600160a01b031690565b61013790610d2861126a565b610d53565b906001600160a01b0390610b01565b90610d4c610111610b399261070a565b8254610d2d565b61013790610d6c61098b6001546001600160a01b031690565b610d758261070a565b907f50bfd9c0b9815c386500292d8de123643c6c935ffd384a364381b3b11e281e5c610da060405190565b5f90a36001610d3c565b61013790610d1c565b6101119291906114cf565b610111906103d3565b6101119054610dbe565b15610dd95750565b7fb0fe2b3f000000000000000000000000000000000000000000000000000000005f908152600491909152602490fd5b9060ff90610b01565b90610e22610111610b3992151590565b8254610e09565b9035601e19368390030181121561012657016020813591019167ffffffffffffffff82116101265736829003831361012657565b610111916040810191610e8890610e7e610e77828061085e565b8490610713565b6020810190610e29565b9160208185039101526108de565b939290610ec160809161013794610eb460c08901925f8a019061087c565b8782036060890152610e5d565b94019080518252602090810151910152565b907ff14a4a91301684b37f631329c0732f735c847a9090edcbe4c4362ac60316671190610efe61153a565b92610f8e610f7b610f108685856114cf565b610f39610f1c85610815565b610f253061070a565b610f316020880161081f565b91339061157b565b610f5f81610f5a610b99610f55835f905f5260205260405f2090565b610dc7565b610dd1565b6101116001610f76835f905f5260205260405f2090565b610e12565b94610f8560405190565b93849384610e96565b0390a2565b6101115f7f237e158222e3e6968b72b9db0d8043aacf074ad9f650f0d1606b4d82ee432c00610d0e565b61013790610fc961126a565b610ff6815f7f237e158222e3e6968b72b9db0d8043aacf074ad9f650f0d1606b4d82ee432c005b01610d3c565b61100a61100461098b610ce8565b9161070a565b907f38d16b8cac22d99fc7c124b9cd0de2d3fa1faef420bfe791d8c362d765e2270061103560405190565b5f90a3565b61013790610fbd565b61104c3061070a565b7f0000000000000000000000000000000000000000000000000000000000000000906110806001600160a01b038316610a61565b149081156110ba575b5061109057565b7fe07c8dba000000000000000000000000000000000000000000000000000000005f908152600490fd5b90506110d7610a616110ca6115b1565b926001600160a01b031690565b14155f611089565b5061013761126a565b610137906110df565b90505190610137826103a3565b9060208282031261012657610111916110f1565b9061111f61098b8361070a565b90602061112b60405190565b7f52d1902d00000000000000000000000000000000000000000000000000000000815292839060049082905afa5f92816111f7575b506111a957505060016111705750565b7f4c9c8ce3000000000000000000000000000000000000000000000000000000005f9081526001600160a01b039091166004526024035ffd5b9092916111b761011161079b565b84036111c8576101379293506115c0565b7faa1d49a4000000000000000000000000000000000000000000000000000000005f9081526004859052602490fd5b61121a91935060203d602011611221575b6112128183610166565b8101906110fe565b915f611160565b503d611208565b6112313061070a565b6112636001600160a01b037f000000000000000000000000000000000000000000000000000000000000000016610a61565b0361109057565b611272610ce8565b339061127d82610a61565b03610a7c5750565b91906008610b0191029161129f6001600160a01b03841b90565b921b90565b91906112b5610111610b399361070a565b908354611285565b610137915f916112a4565b610137906112f65f7f237e158222e3e6968b72b9db0d8043aacf074ad9f650f0d1606b4d82ee432c006112bd565b61162a565b610111903690610595565b1561130e5750565b7f78b83bac000000000000000000000000000000000000000000000000000000005f908152600491909152602490fd5b91906008610b0191029161129f60ff841b90565b9190611363610111610b3993151590565b90835461133e565b610137915f91611352565b61138c916113866113c5946112fb565b916114cf565b6113aa816113a5610f55825f905f5260205260405f2090565b611306565b6101115f6113c08382905f5260205260405f2090565b61136b565b7f7365d0eabb56c257feb8a9eac21febe335838563118e4e5c6041062d0832b2236113ef60405190565b8080610f8e565b61140f6114096101119263ffffffff1690565b60e01b90565b7fffffffff000000000000000000000000000000000000000000000000000000001690565b6001600160a01b0390911681526040810192916101379160200152565b6114946004926114856101379561146b63a9059cbb6113f6565b9261147560405190565b9687946020860190815201611434565b60208201810382520383610166565b611697565b610111611769565b610137906114ad611771565b6101379061181d565b610137906114a1565b610137611771565b6101376114bf565b61011192916114fe916114f26114e460405190565b948593602085019384610e96565b90810382520382610166565b611510611509825190565b9160200190565b2090565b610111604061018d565b611526611514565b905f82525f6020830152565b61011161151e565b611542611532565b906101378261154f438252565b602042910152565b6001600160a01b039182168152911660208201526060810192916101379160400152565b9061149490611485610137956004956115976323b872dd6113f6565b936115a160405190565b9788956020870190815201611557565b6101115f610d0e61011161079b565b906115ca82611826565b6115d38261070a565b7fbc7cd75a20ee27fd9adebab32041f755214dbc6bffa90cc0225b39da2e5c2d3b6115fd60405190565b5f90a2805161160e610cbb5f61078e565b11156116205761161d916118a2565b50565b5050610137611849565b61166c6110047f9016d09d72d40fdae2fd8ceac6b6234c7706214fd39c1cd1e609a0528c19930061098b8461166683546001600160a01b031690565b92610d3c565b907f8be0079c531659141344cd1fd0a4f28419497f9722a3daafe3b4186f6b6457e061103560405190565b905f6020916116a35f90565b50828151910182855af115610950573d5f51906116c2610cbb5f61078e565b0361172c57506116d18161070a565b3b6116de610cbb5f61078e565b145b6116e75750565b610ab26116f45f9261070a565b7f5274afe70000000000000000000000000000000000000000000000000000000083526001600160a01b031660048301526024820190565b611739610cbb600161078e565b14156116e0565b6101117ff0c57e16840df040f15088dc2f81fe391c3923bec73e23a9662efc9c229c6a0061078e565b610111611740565b61177c610b996118c8565b61178257565b7fd7e6bcf8000000000000000000000000000000000000000000000000000000005f908152600490fd5b610137906117b8611771565b6117c15f6107f3565b6001600160a01b0381166001600160a01b038316146117e45750610137906112c8565b7f1e4fbdf7000000000000000000000000000000000000000000000000000000005f9081526001600160a01b039091166004526024035ffd5b610137906117ac565b803b611834610cbb5f61078e565b1461117057610137905f610ff061011161079b565b6118525f61078e565b341161185a57565b7fb398979f000000000000000000000000000000000000000000000000000000005f908152600490fd5b3d1561189d576118933d610479565b903d5f602084013e565b606090565b5f80610111936118b0606090565b50602081519101845af46118c2611884565b916118da565b6101115f6118d4611499565b01610ac2565b906118e55750611950565b81516118f3610cbb5f61078e565b148061193b575b611902575090565b7f9996b315000000000000000000000000000000000000000000000000000000005f9081526001600160a01b039091166004526024035ffd5b50803b61194a610cbb5f61078e565b146118fa565b805161195e610cbb5f61078e565b111561196c57805190602001fd5b7fd6bda275000000000000000000000000000000000000000000000000000000005f908152600490fdfea26469706673582212205b1e3bae75a8cf63559a671dd9c9ce4318aa7992cd183544522378a33d2cf96c64736f6c634300081c0033",
    "linkReferences": {},
    "deployedLinkReferences": {},
    "immutableReferences": {
        "619": [
            {
                "length": 32,
                "start": 4174
            },
            {
                "length": 32,
                "start": 4670
            }
        ]
    },
    "inputSourceName": "project/contracts/Depository.sol",
    "buildInfoId": "solc-0_8_28-3fe966f8a34576cce02a720c90bdab3655185f46"
}