{
    "_format": "hh3-artifact-1",
    "contractName": "Router",
    "sourceName": "contracts/Router.sol",
    "abi": [
        {
            "inputs": [
                {
                    "internalType": "address",
                    "name": "target",
                    "type": "address"
                }
            ],
            "name": "CallToNonContract",
            "type": "error"
        },
        {
            "inputs": [
                {
                    "internalType": "address",
                    "name": "token",
                    "type": "address"
                }
            ],
            "name": "SafeERC20FailedOperation",
            "type": "error"
        },
        {
            "anonymous": false,
            "inputs": [
                {
                    "indexed": false,
                    "internalType": "address",
                    "name": "to",
                    "type": "address"
                },
                {
                    "indexed": false,
                    "internalType": "uint256",
                    "name": "amount",
                    "type": "uint256"
                }
            ],
            "name": "TransferNative",
            "type": "event"
        },
        {
            "inputs": [
                {
                    "internalType": "address",
                    "name": "token",
                    "type": "address"
                },
                {
                    "internalType": "uint256",
                    "name": "amount",
                    "type": "uint256"
                },
                {
                    "internalType": "address",
                    "name": "receiveSide",
                    "type": "address"
                },
                {
                    "internalType": "bytes",
                    "name": "_calldata",
                    "type": "bytes"
                },
                {
                    "internalType": "uint256",
                    "name": "offset",
                    "type": "uint256"
                }
            ],
            "name": "externalCall",
            "outputs": [],
            "stateMutability": "nonpayable",
            "type": "function"
        },
        {
            "inputs": [
                {
                    "internalType": "contract IWETH",
                    "name": "token",
                    "type": "address"
                },
                {
                    "internalType": "address",
                    "name": "to",
                    "type": "address"
                },
                {
                    "internalType": "uint256",
                    "name": "amount",
                    "type": "uint256"
                }
            ],
            "name": "transferNative",
            "outputs": [],
            "stateMutability": "nonpayable",
            "type": "function"
        },
        {
            "stateMutability": "payable",
            "type": "receive"
        }
    ],
    "bytecode": "0x6080604052348015600e575f5ffd5b5061059a8061001c5f395ff3fe60806040526004361061002b575f3560e01c80639a24265714610036578063e1ee0f7914610057575f5ffd5b3661003257005b5f5ffd5b348015610041575f5ffd5b50610055610050366004610455565b610076565b005b348015610062575f5ffd5b50610055610071366004610493565b61011c565b604080516001600160a01b0384168152602081018390527faaa330f73f343ed3da9c3ff8366ebc8dc13ab7f7c9edcf6d2a1774a81f717349910160405180910390a1604051632e1a7d4d60e01b8152600481018290526001600160a01b03841690632e1a7d4d906024015f604051808303815f87803b1580156100f7575f5ffd5b505af1158015610109573d5f5f3e3d5ffd5b505050506101178282610179565b505050565b5f61016087878787878080601f0160208091040260200160405190810160405280939291908181526020018383808284375f92019190915250899250610196915050565b50905080610170573d5f5f3e3d5ffd5b50505050505050565b5f385f3884865af16101925763b12d13eb5f526004601cfd5b5050565b5f60606101a487868861024b565b82156101b05785838501525b843b8580826101e35760405163dc5dd7fd60e01b81526001600160a01b0390911660048201526024015b60405180910390fd5b505050846001600160a01b0316846040516101fe9190610537565b5f604051808303815f865af19150503d805f8114610237576040519150601f19603f3d011682016040523d82523d5f602084013e61023c565b606091505b50909890975095505050505050565b604051636eb1769f60e11b81523060048201526001600160a01b03838116602483015282919085169063dd62ed3e90604401602060405180830381865afa158015610298573d5f5f3e3d5ffd5b505050506040513d601f19601f820116820180604052508101906102bc919061054d565b101561011757604080516001600160a01b0384811660248301525f1960448084018290528451808503909101815260649093019093526020820180516001600160e01b031663095ea7b360e01b17905261011792908616918591906103218482610389565b61038357604080516001600160a01b03851660248201525f6044808301919091528251808303909101815260649091019091526020810180516001600160e01b031663095ea7b360e01b1790526103799085906103d2565b61038384826103d2565b50505050565b5f5f5f5f60205f8651602088015f8a5af192503d91505f5190508280156103c8575081156103ba57806001146103c8565b5f866001600160a01b03163b115b9695505050505050565b5f5f60205f8451602086015f885af1806103f1576040513d5f823e3d81fd5b50505f513d91508115610408578060011415610415565b6001600160a01b0384163b155b1561038357604051635274afe760e01b81526001600160a01b03851660048201526024016101da565b6001600160a01b0381168114610452575f5ffd5b50565b5f5f5f60608486031215610467575f5ffd5b83356104728161043e565b925060208401356104828161043e565b929592945050506040919091013590565b5f5f5f5f5f5f60a087890312156104a8575f5ffd5b86356104b38161043e565b95506020870135945060408701356104ca8161043e565b9350606087013567ffffffffffffffff8111156104e5575f5ffd5b8701601f810189136104f5575f5ffd5b803567ffffffffffffffff81111561050b575f5ffd5b89602082840101111561051c575f5ffd5b96999598509396602090940195946080909401359392505050565b5f82518060208501845e5f920191825250919050565b5f6020828403121561055d575f5ffd5b505191905056fea2646970667358221220bbc2f25e73b269349752541376a8c126f771c68d6ae26f4a26c4eed68453607e64736f6c634300081c0033",
    "linkReferences": {},
    "deployedLinkReferences": {},
    "immutableReferences": {},
    "inputSourceName": "project/contracts/Router.sol",
    "buildInfoId": "solc-0_8_28-9ec2391fe89d04c59e54588594772651e0352ed4"
}