{
    "_format": "hh-sol-artifact-1",
    "contractName": "MetaRouter",
    "sourceName": "contracts/synth-core/metarouter/MetaRouter.sol",
    "abi": [
        {
            "inputs": [],
            "stateMutability": "nonpayable",
            "type": "constructor"
        },
        {
            "inputs": [
                {
                    "internalType": "address",
                    "name": "_token",
                    "type": "address"
                },
                {
                    "internalType": "uint256",
                    "name": "_amount",
                    "type": "uint256"
                },
                {
                    "internalType": "address",
                    "name": "_receiveSide",
                    "type": "address"
                },
                {
                    "internalType": "bytes",
                    "name": "_calldata",
                    "type": "bytes"
                },
                {
                    "internalType": "uint256",
                    "name": "_offset",
                    "type": "uint256"
                }
            ],
            "name": "externalCall",
            "outputs": [],
            "stateMutability": "nonpayable",
            "type": "function"
        },
        {
            "inputs": [
                {
                    "components": [
                        {
                            "internalType": "uint256",
                            "name": "stableBridgingFee",
                            "type": "uint256"
                        },
                        {
                            "internalType": "uint256",
                            "name": "amount",
                            "type": "uint256"
                        },
                        {
                            "internalType": "bytes32",
                            "name": "externalID",
                            "type": "bytes32"
                        },
                        {
                            "internalType": "address",
                            "name": "tokenReal",
                            "type": "address"
                        },
                        {
                            "internalType": "uint256",
                            "name": "chainID",
                            "type": "uint256"
                        },
                        {
                            "internalType": "address",
                            "name": "to",
                            "type": "address"
                        },
                        {
                            "internalType": "address[]",
                            "name": "swapTokens",
                            "type": "address[]"
                        },
                        {
                            "internalType": "address",
                            "name": "secondDexRouter",
                            "type": "address"
                        },
                        {
                            "internalType": "bytes",
                            "name": "secondSwapCalldata",
                            "type": "bytes"
                        },
                        {
                            "internalType": "address",
                            "name": "finalReceiveSide",
                            "type": "address"
                        },
                        {
                            "internalType": "bytes",
                            "name": "finalCalldata",
                            "type": "bytes"
                        },
                        {
                            "internalType": "uint256",
                            "name": "finalOffset",
                            "type": "uint256"
                        }
                    ],
                    "internalType": "struct MetaRouteStructs.MetaMintTransaction",
                    "name": "_metaMintTransaction",
                    "type": "tuple"
                }
            ],
            "name": "metaMintSwap",
            "outputs": [],
            "stateMutability": "nonpayable",
            "type": "function"
        },
        {
            "inputs": [
                {
                    "components": [
                        {
                            "internalType": "bytes",
                            "name": "firstSwapCalldata",
                            "type": "bytes"
                        },
                        {
                            "internalType": "bytes",
                            "name": "secondSwapCalldata",
                            "type": "bytes"
                        },
                        {
                            "internalType": "address[]",
                            "name": "approvedTokens",
                            "type": "address[]"
                        },
                        {
                            "internalType": "address",
                            "name": "firstDexRouter",
                            "type": "address"
                        },
                        {
                            "internalType": "address",
                            "name": "secondDexRouter",
                            "type": "address"
                        },
                        {
                            "internalType": "uint256",
                            "name": "amount",
                            "type": "uint256"
                        },
                        {
                            "internalType": "bool",
                            "name": "nativeIn",
                            "type": "bool"
                        },
                        {
                            "internalType": "address",
                            "name": "relayRecipient",
                            "type": "address"
                        },
                        {
                            "internalType": "bytes",
                            "name": "otherSideCalldata",
                            "type": "bytes"
                        }
                    ],
                    "internalType": "struct MetaRouteStructs.MetaRouteTransaction",
                    "name": "_metarouteTransaction",
                    "type": "tuple"
                }
            ],
            "name": "metaRoute",
            "outputs": [],
            "stateMutability": "payable",
            "type": "function"
        },
        {
            "inputs": [],
            "name": "metaRouterGateway",
            "outputs": [
                {
                    "internalType": "contract MetaRouterGateway",
                    "name": "",
                    "type": "address"
                }
            ],
            "stateMutability": "view",
            "type": "function"
        },
        {
            "inputs": [
                {
                    "internalType": "address",
                    "name": "_token",
                    "type": "address"
                },
                {
                    "internalType": "uint256",
                    "name": "_amount",
                    "type": "uint256"
                },
                {
                    "internalType": "address",
                    "name": "_router",
                    "type": "address"
                },
                {
                    "internalType": "bytes",
                    "name": "_swapCalldata",
                    "type": "bytes"
                },
                {
                    "internalType": "address",
                    "name": "_burnToken",
                    "type": "address"
                },
                {
                    "internalType": "address",
                    "name": "_synthesis",
                    "type": "address"
                },
                {
                    "internalType": "bytes",
                    "name": "_burnCalldata",
                    "type": "bytes"
                }
            ],
            "name": "returnSwap",
            "outputs": [],
            "stateMutability": "nonpayable",
            "type": "function"
        }
    ],
    "bytecode": "0x60a060405234801561001057600080fd5b503060405161001e90610060565b6001600160a01b039091168152602001604051809103906000f08015801561004a573d6000803e3d6000fd5b5060601b6001600160601b03191660805261006d565b6104d780611b3483390190565b60805160601c611a806100b46000396000818160a601528181610278015281816103be0152818161051e015281816107d601528181610aa0015261104a0152611a806000f3fe60806040526004361061005a5760003560e01c8063c394a5da11610043578063c394a5da14610094578063e1edd61c146100e4578063e1ee0f791461010457600080fd5b8063732cffe91461005f578063a11b119814610081575b600080fd5b34801561006b57600080fd5b5061007f61007a36600461159c565b610124565b005b61007f61008f3660046117fe565b61038d565b3480156100a057600080fd5b506100c87f000000000000000000000000000000000000000000000000000000000000000081565b6040516001600160a01b03909116815260200160405180910390f35b3480156100f057600080fd5b5061007f6100ff3660046117c2565b610bca565b34801561011057600080fd5b5061007f61011f36600461165d565b610fab565b60008061016c8b8b8b8b8b8080601f01602080910402602001604051908101604052809392919081815260200183838082843760009201919091525060249250611044915050565b91509150816101b95761019781604051806060016040528060228152602001611a0760229139611143565b60405162461bcd60e51b81526004016101b0919061187f565b60405180910390fd5b6040516370a0823160e01b81523060048201526000906001600160a01b038816906370a082319060240160206040518083038186803b1580156101fb57600080fd5b505afa15801561020f573d6000803e3d6000fd5b505050506040513d601f19601f82011682018060405250810190610233919061183a565b9050600085858080601f0160208091040260200160405190810160405280939291908181526020018383808284376000920191909152505050506064810183905290507f00000000000000000000000000000000000000000000000000000000000000006001600160a01b0390811690881614156102f35760405162461bcd60e51b815260206004820152601f60248201527f4d657461526f7574657256323a20696e76616c696420726563697069656e740060448201526064016101b0565b600080886001600160a01b03168360405161030e9190611863565b6000604051808303816000865af19150503d806000811461034b576040519150601f19603f3d011682016040523d82523d6000602084013e610350565b606091505b50915091508161037c57610197816040518060600160405280603181526020016119d660319139611143565b505050505050505050505050505050565b600061039c60408301836118b2565b91506103b0905060e0830160c084016116d4565b61049a576001600160a01b037f000000000000000000000000000000000000000000000000000000000000000016639fc314c86103f060408501856118b2565b600081811061040157610401611998565b90506020020160208101906104169190611581565b336040517fffffffff0000000000000000000000000000000000000000000000000000000060e085901b1681526001600160a01b0392831660048201529116602482015260a08501356044820152606401600060405180830381600087803b15801561048157600080fd5b505af1158015610495573d6000803e3d6000fd5b505050505b60a08201356104a983806118fc565b159050610716576104c060e0840160c085016116d4565b610514576105146104d460408501856118b2565b60008181106104e5576104e5611998565b90506020020160208101906104fa9190611581565b61050a6080860160608701611581565b8560a00135611179565b6001600160a01b037f00000000000000000000000000000000000000000000000000000000000000001661054e6080850160608601611581565b6001600160a01b031614156105a55760405162461bcd60e51b815260206004820181905260248201527f4d657461526f757465723a20696e76616c696420666972737420726f7574657260448201526064016101b0565b6000806105b86080860160608701611581565b6001600160a01b0316346105cc87806118fc565b6040516105da929190611853565b60006040518083038185875af1925050503d8060008114610617576040519150601f19603f3d011682016040523d82523d6000602084013e61061c565b606091505b50915091508161066557610197816040518060400160405280601d81526020017f4d657461526f757465723a2066697273742073776170206661696c6564000000815250611143565b61067260408601866118b2565b600181811061068357610683611998565b90506020020160208101906106989190611581565b6040516370a0823160e01b81523060048201526001600160a01b0391909116906370a082319060240160206040518083038186803b1580156106d957600080fd5b505afa1580156106ed573d6000803e3d6000fd5b505050506040513d601f19601f82011682018060405250810190610711919061183a565b925050505b8061072460208501856118fc565b1590506109f357600061073a60208601866118fc565b8080601f0160208091040260200160405190810160405280939291908181526020018383808284376000920191909152505050506024810184905290506107cc61078760408701876118b2565b610792600288611943565b8181106107a1576107a1611998565b90506020020160208101906107b69190611581565b6107c660a0880160808901611581565b85611179565b6001600160a01b037f00000000000000000000000000000000000000000000000000000000000000001661080660a0870160808801611581565b6001600160a01b031614156108835760405162461bcd60e51b815260206004820152602160248201527f4d657461526f757465723a20696e76616c6964207365636f6e6420726f75746560448201527f720000000000000000000000000000000000000000000000000000000000000060648201526084016101b0565b60008061089660a0880160808901611581565b6001600160a01b0316836040516108ad9190611863565b6000604051808303816000865af19150503d80600081146108ea576040519150601f19603f3d011682016040523d82523d6000602084013e6108ef565b606091505b50915091508161093857610197816040518060400160405280601e81526020017f4d657461526f757465723a207365636f6e642073776170206661696c65640000815250611143565b61094560408801886118b2565b610950600189611943565b81811061095f5761095f611998565b90506020020160208101906109749190611581565b6040516370a0823160e01b81523060048201526001600160a01b0391909116906370a082319060240160206040518083038186803b1580156109b557600080fd5b505afa1580156109c9573d6000803e3d6000fd5b505050506040513d601f19601f820116820180604052508101906109ed919061183a565b93505050505b610a49610a0360408601866118b2565b610a0e600187611943565b818110610a1d57610a1d611998565b9050602002016020810190610a329190611581565b610a43610100870160e08801611581565b83611179565b6000610a596101008601866118fc565b8080601f0160208091040260200160405190810160405280939291908181526020018383808284376000920191909152505050506064810183905290506001600160a01b037f000000000000000000000000000000000000000000000000000000000000000016610ad1610100870160e08801611581565b6001600160a01b03161415610b285760405162461bcd60e51b815260206004820152601d60248201527f4d657461526f757465723a20696e76616c696420726563697069656e7400000060448201526064016101b0565b600080610b3c610100880160e08901611581565b6001600160a01b031683604051610b539190611863565b6000604051808303816000865af19150503d8060008114610b90576040519150601f19603f3d011682016040523d82523d6000602084013e610b95565b606091505b509150915081610bc15761019781604051806060016040528060228152602001611a2960229139611143565b50505050505050565b6000610bd960c08301836118b2565b6000818110610bea57610bea611998565b9050602002016020810190610bff9190611581565b9050610c0f6101008301836118fc565b159050610d3057600080610cb0610c2960c08601866118b2565b6000818110610c3a57610c3a611998565b9050602002016020810190610c4f9190611581565b6020860135610c65610100880160e08901611581565b610c736101008901896118fc565b8080601f01602080910402602001604051908101604052809392919081815260200183838082843760009201919091525060249250611044915050565b9150915081610cf857610197816040518060400160405280602081526020017f4d657461526f757465723a20696e7465726e616c2073776170206661696c6564815250611143565b610d0560c08501856118b2565b6001818110610d1657610d16611998565b9050602002016020810190610d2b9190611581565b925050505b610d3e6101408301836118fc565b159050610e74576040516370a0823160e01b81523060048201526000906001600160a01b038316906370a082319060240160206040518083038186803b158015610d8757600080fd5b505afa158015610d9b573d6000803e3d6000fd5b505050506040513d601f19601f82011682018060405250810190610dbf919061183a565b9050600080610e288484610ddb61014089016101208a01611581565b610de96101408a018a6118fc565b8080601f0160208091040260200160405190810160405280939291908181526020018383808284376000920191909152505050506101608a0135611044565b9150915081610e7057610197816040518060400160405280601d81526020017f4d657461526f757465723a2066696e616c2063616c6c206661696c6564000000815250611143565b5050505b6000610e8360c08401846118b2565b6001610e9260c08701876118b2565b610e9d929150611943565b818110610eac57610eac611998565b9050602002016020810190610ec19190611581565b6040516370a0823160e01b81523060048201526001600160a01b0391909116906370a082319060240160206040518083038186803b158015610f0257600080fd5b505afa158015610f16573d6000803e3d6000fd5b505050506040513d601f19601f82011682018060405250810190610f3a919061183a565b90508015610fa657610fa6610f5260c08501856118b2565b6001610f6160c08801886118b2565b610f6c929150611943565b818110610f7b57610f7b611998565b9050602002016020810190610f909190611581565b610fa060c0860160a08701611581565b83611245565b505050565b600080610ff288888888888080601f0160208091040260200160405190810160405280939291908181526020018383808284376000920191909152508a9250611044915050565b915091508161103a57610197816040518060400160405280602081526020017f4d657461526f757465723a2065787465726e616c2063616c6c206661696c6564815250611143565b5050505050505050565b600060607f00000000000000000000000000000000000000000000000000000000000000006001600160a01b0316856001600160a01b031614156110ca5760405162461bcd60e51b815260206004820152601f60248201527f4d657461526f757465723a20696e76616c69642072656365697665536964650060448201526064016101b0565b6110d5878688611179565b8583850152846001600160a01b0316846040516110f29190611863565b6000604051808303816000865af19150503d806000811461112f576040519150601f19603f3d011682016040523d82523d6000602084013e611134565b606091505b50909890975095505050505050565b6060604483511015611156575080611173565b600483019250828060200190518101906111709190611715565b90505b92915050565b6040517fdd62ed3e0000000000000000000000000000000000000000000000000000000081523060048201526001600160a01b03838116602483015282919085169063dd62ed3e9060440160206040518083038186803b1580156111dc57600080fd5b505afa1580156111f0573d6000803e3d6000fd5b505050506040513d601f19601f82011682018060405250810190611214919061183a565b1015610fa657610fa683837fffffffffffffffffffffffffffffffffffffffffffffffffffffffffffffffff6113b4565b604080516001600160a01b038481166024830152604480830185905283518084039091018152606490920183526020820180517bffffffffffffffffffffffffffffffffffffffffffffffffffffffff167fa9059cbb0000000000000000000000000000000000000000000000000000000017905291516000928392908716916112cf9190611863565b6000604051808303816000865af19150503d806000811461130c576040519150601f19603f3d011682016040523d82523d6000602084013e611311565b606091505b509150915081801561133b57508051158061133b57508080602001905181019061133b91906116f8565b6113ad5760405162461bcd60e51b815260206004820152602d60248201527f5472616e7366657248656c7065723a3a736166655472616e736665723a20747260448201527f616e73666572206661696c65640000000000000000000000000000000000000060648201526084016101b0565b5050505050565b604080516001600160a01b038481166024830152604480830185905283518084039091018152606490920183526020820180517bffffffffffffffffffffffffffffffffffffffffffffffffffffffff167f095ea7b300000000000000000000000000000000000000000000000000000000179052915160009283929087169161143e9190611863565b6000604051808303816000865af19150503d806000811461147b576040519150601f19603f3d011682016040523d82523d6000602084013e611480565b606091505b50915091508180156114aa5750805115806114aa5750808060200190518101906114aa91906116f8565b6113ad5760405162461bcd60e51b815260206004820152602b60248201527f5472616e7366657248656c7065723a3a73616665417070726f76653a2061707060448201527f726f7665206661696c656400000000000000000000000000000000000000000060648201526084016101b0565b80356001600160a01b038116811461153357600080fd5b919050565b60008083601f84011261154a57600080fd5b50813567ffffffffffffffff81111561156257600080fd5b60208301915083602082850101111561157a57600080fd5b9250929050565b60006020828403121561159357600080fd5b6111708261151c565b600080600080600080600080600060e08a8c0312156115ba57600080fd5b6115c38a61151c565b985060208a013597506115d860408b0161151c565b965060608a013567ffffffffffffffff808211156115f557600080fd5b6116018d838e01611538565b909850965086915061161560808d0161151c565b955061162360a08d0161151c565b945060c08c013591508082111561163957600080fd5b506116468c828d01611538565b915080935050809150509295985092959850929598565b60008060008060008060a0878903121561167657600080fd5b61167f8761151c565b9550602087013594506116946040880161151c565b9350606087013567ffffffffffffffff8111156116b057600080fd5b6116bc89828a01611538565b979a9699509497949695608090950135949350505050565b6000602082840312156116e657600080fd5b81356116f1816119c4565b9392505050565b60006020828403121561170a57600080fd5b81516116f1816119c4565b60006020828403121561172757600080fd5b815167ffffffffffffffff8082111561173f57600080fd5b818401915084601f83011261175357600080fd5b815181811115611765576117656119ae565b604051601f8201601f19908116603f0116810190838211818310171561178d5761178d6119ae565b816040528281528760208487010111156117a657600080fd5b6117b7836020830160208801611968565b979650505050505050565b6000602082840312156117d457600080fd5b813567ffffffffffffffff8111156117eb57600080fd5b820161018081850312156116f157600080fd5b60006020828403121561181057600080fd5b813567ffffffffffffffff81111561182757600080fd5b820161012081850312156116f157600080fd5b60006020828403121561184c57600080fd5b5051919050565b8183823760009101908152919050565b60008251611875818460208701611968565b9190910192915050565b602081526000825180602084015261189e816040850160208701611968565b601f01601f19169190910160400192915050565b6000808335601e198436030181126118c957600080fd5b83018035915067ffffffffffffffff8211156118e457600080fd5b6020019150600581901b360382131561157a57600080fd5b6000808335601e1984360301811261191357600080fd5b83018035915067ffffffffffffffff82111561192e57600080fd5b60200191503681900382131561157a57600080fd5b60008282101561196357634e487b7160e01b600052601160045260246000fd5b500390565b60005b8381101561198357818101518382015260200161196b565b83811115611992576000848401525b50505050565b634e487b7160e01b600052603260045260246000fd5b634e487b7160e01b600052604160045260246000fd5b80151581146119d257600080fd5b5056fe4d657461526f7574657256323a2072657665727453796e74686573697a65526571756573742063616c6c206661696c65644d657461526f7574657256323a20696e7465726e616c2073776170206661696c65644d657461526f757465723a206f7468657220736964652063616c6c206661696c6564a26469706673582212209380d69a8e20fda8386882632ac7e25412e0d62df10c6cca727094ce2e2be34964736f6c6343000807003360a060405234801561001057600080fd5b506040516104d73803806104d783398101604081905261002f91610044565b60601b6001600160601b031916608052610074565b60006020828403121561005657600080fd5b81516001600160a01b038116811461006d57600080fd5b9392505050565b60805160601c61043961009e6000396000818160550152818160a2015261017101526104396000f3fe608060405234801561001057600080fd5b50600436106100365760003560e01c80639fc314c81461003b578063dbec15bb14610050575b600080fd5b61004e610049366004610363565b6100a0565b005b6100777f000000000000000000000000000000000000000000000000000000000000000081565b60405173ffffffffffffffffffffffffffffffffffffffff909116815260200160405180910390f35b7f000000000000000000000000000000000000000000000000000000000000000073ffffffffffffffffffffffffffffffffffffffff16331461016a576040517f08c379a000000000000000000000000000000000000000000000000000000000815260206004820152602260248201527f53796d623a2063616c6c6572206973206e6f7420746865206d657461726f757460448201527f657200000000000000000000000000000000000000000000000000000000000060648201526084015b60405180910390fd5b61019683837f00000000000000000000000000000000000000000000000000000000000000008461019b565b505050565b6040805173ffffffffffffffffffffffffffffffffffffffff85811660248301528481166044830152606480830185905283518084039091018152608490920183526020820180517bffffffffffffffffffffffffffffffffffffffffffffffffffffffff167f23b872dd00000000000000000000000000000000000000000000000000000000179052915160009283929088169161023a91906103c8565b6000604051808303816000865af19150503d8060008114610277576040519150601f19603f3d011682016040523d82523d6000602084013e61027c565b606091505b50915091508180156102a65750805115806102a65750808060200190518101906102a6919061039f565b610332576040517f08c379a000000000000000000000000000000000000000000000000000000000815260206004820152603160248201527f5472616e7366657248656c7065723a3a7472616e7366657246726f6d3a20747260448201527f616e7366657246726f6d206661696c65640000000000000000000000000000006064820152608401610161565b505050505050565b803573ffffffffffffffffffffffffffffffffffffffff8116811461035e57600080fd5b919050565b60008060006060848603121561037857600080fd5b6103818461033a565b925061038f6020850161033a565b9150604084013590509250925092565b6000602082840312156103b157600080fd5b815180151581146103c157600080fd5b9392505050565b6000825160005b818110156103e957602081860181015185830152016103cf565b818111156103f8576000828501525b50919091019291505056fea26469706673582212202568575dd38d51c811ca9abb487d12cf7f92601b834f2b8dba043bc452c3f35164736f6c63430008070033",
    "linkReferences": {},
    "deployedLinkReferences": {}
}