{
    "_format": "hh-sol-artifact-1",
    "contractName": "MetaRouterNonEvm",
    "sourceName": "contracts/synth-core/non-evm-compatible/metarouter/MetaRouterNonEvm.sol",
    "abi": [
        {
            "inputs": [],
            "stateMutability": "nonpayable",
            "type": "constructor"
        },
        {
            "inputs": [
                {
                    "internalType": "address",
                    "name": "_token",
                    "type": "address"
                },
                {
                    "internalType": "uint256",
                    "name": "_amount",
                    "type": "uint256"
                },
                {
                    "internalType": "address",
                    "name": "_receiveSide",
                    "type": "address"
                },
                {
                    "internalType": "bytes",
                    "name": "_calldata",
                    "type": "bytes"
                },
                {
                    "internalType": "uint256",
                    "name": "_offset",
                    "type": "uint256"
                }
            ],
            "name": "externalCall",
            "outputs": [],
            "stateMutability": "nonpayable",
            "type": "function"
        },
        {
            "inputs": [
                {
                    "components": [
                        {
                            "internalType": "uint256",
                            "name": "stableBridgingFee",
                            "type": "uint256"
                        },
                        {
                            "internalType": "uint256",
                            "name": "amount",
                            "type": "uint256"
                        },
                        {
                            "internalType": "bytes32",
                            "name": "externalID",
                            "type": "bytes32"
                        },
                        {
                            "internalType": "bytes",
                            "name": "tokenReal",
                            "type": "bytes"
                        },
                        {
                            "internalType": "uint256",
                            "name": "chainID",
                            "type": "uint256"
                        },
                        {
                            "internalType": "address",
                            "name": "to",
                            "type": "address"
                        },
                        {
                            "internalType": "address[]",
                            "name": "swapTokens",
                            "type": "address[]"
                        },
                        {
                            "internalType": "address",
                            "name": "secondDexRouter",
                            "type": "address"
                        },
                        {
                            "internalType": "bytes",
                            "name": "secondSwapCalldata",
                            "type": "bytes"
                        },
                        {
                            "internalType": "address",
                            "name": "finalReceiveSide",
                            "type": "address"
                        },
                        {
                            "internalType": "bytes",
                            "name": "finalCalldata",
                            "type": "bytes"
                        },
                        {
                            "internalType": "uint256",
                            "name": "finalOffset",
                            "type": "uint256"
                        }
                    ],
                    "internalType": "struct MetaRouteStructsNonEvm.MetaMintTransactionNonEvm",
                    "name": "_metaMintTransaction",
                    "type": "tuple"
                }
            ],
            "name": "metaMintSwap",
            "outputs": [],
            "stateMutability": "nonpayable",
            "type": "function"
        },
        {
            "inputs": [
                {
                    "components": [
                        {
                            "internalType": "bytes",
                            "name": "firstSwapCalldata",
                            "type": "bytes"
                        },
                        {
                            "internalType": "bytes",
                            "name": "secondSwapCalldata",
                            "type": "bytes"
                        },
                        {
                            "internalType": "address[]",
                            "name": "approvedTokens",
                            "type": "address[]"
                        },
                        {
                            "internalType": "address",
                            "name": "firstDexRouter",
                            "type": "address"
                        },
                        {
                            "internalType": "address",
                            "name": "secondDexRouter",
                            "type": "address"
                        },
                        {
                            "internalType": "uint256",
                            "name": "amount",
                            "type": "uint256"
                        },
                        {
                            "internalType": "bool",
                            "name": "nativeIn",
                            "type": "bool"
                        },
                        {
                            "internalType": "address",
                            "name": "relayRecipient",
                            "type": "address"
                        },
                        {
                            "internalType": "bytes",
                            "name": "otherSideCalldata",
                            "type": "bytes"
                        }
                    ],
                    "internalType": "struct MetaRouteStructsNonEvm.MetaRouteTransactionNonEvm",
                    "name": "_metarouteTransaction",
                    "type": "tuple"
                }
            ],
            "name": "metaRoute",
            "outputs": [],
            "stateMutability": "payable",
            "type": "function"
        },
        {
            "inputs": [],
            "name": "metaRouterGateway",
            "outputs": [
                {
                    "internalType": "contract MetaRouterGateway",
                    "name": "",
                    "type": "address"
                }
            ],
            "stateMutability": "view",
            "type": "function"
        }
    ],
    "bytecode": "0x60a060405234801561001057600080fd5b503060405161001e90610060565b6001600160a01b039091168152602001604051809103906000f08015801561004a573d6000803e3d6000fd5b5060601b6001600160601b03191660805261006d565b6104d78061191e83390190565b60805160601c6118716100ad60003960008181608b015281816105e20152818161074201528181610a0301528181610cb00152610e8201526118716000f3fe60806040526004361061003f5760003560e01c80635f86391314610044578063a11b119814610066578063c394a5da14610079578063e1ee0f79146100c9575b600080fd5b34801561005057600080fd5b5061006461005f366004611543565b6100e9565b005b61006461007436600461157f565b6105b1565b34801561008557600080fd5b506100ad7f000000000000000000000000000000000000000000000000000000000000000081565b6040516001600160a01b03909116815260200160405180910390f35b3480156100d557600080fd5b506100646100e43660046113af565b610e00565b60006100f860c0830183611633565b600081811061010957610109611720565b905060200201602081019061011e9190611394565b905061012e610100830183611684565b15905061036f576000806101cf61014860c0860186611633565b600081811061015957610159611720565b905060200201602081019061016e9190611394565b6020860135610184610100880160e08901611394565b610192610100890189611684565b8080601f01602080910402602001604051908101604052809392919081815260200183838082843760009201919091525060649250610e7c915050565b915091508161021c576101fa8160405180606001604052806026815260200161175e60269139610fa1565b60405162461bcd60e51b81526004016102139190611600565b60405180910390fd5b600061022b60c0860186611633565b600181811061023c5761023c611720565b90506020020160208101906102519190611394565b6040516370a0823160e01b81523060048201526001600160a01b0391909116906370a082319060240160206040518083038186803b15801561029257600080fd5b505afa1580156102a6573d6000803e3d6000fd5b505050506040513d601f19601f820116820180604052508101906102ca91906115bb565b90506102d960c0860186611633565b9050600214156103365761032f6102f360c0870187611633565b600181811061030457610304611720565b90506020020160208101906103199190611394565b61032960c0880160a08901611394565b83610fd7565b5050505050565b61034360c0860186611633565b600181811061035457610354611720565b90506020020160208101906103699190611394565b93505050505b6040516370a0823160e01b81523060048201526000906001600160a01b038316906370a082319060240160206040518083038186803b1580156103b157600080fd5b505afa1580156103c5573d6000803e3d6000fd5b505050506040513d601f19601f820116820180604052508101906103e991906115bb565b9050600080610452848461040561014089016101208a01611394565b6104136101408a018a611684565b8080601f0160208091040260200160405190810160405280939291908181526020018383808284376000920191909152505050506101608a0135610e7c565b915091508161047d576101fa8160405180606001604052806023815260200161181960239139610fa1565b600061048c60c0870187611633565b600161049b60c08a018a611633565b6104a69291506116cb565b8181106104b5576104b5611720565b90506020020160208101906104ca9190611394565b6040516370a0823160e01b81523060048201526001600160a01b0391909116906370a082319060240160206040518083038186803b15801561050b57600080fd5b505afa15801561051f573d6000803e3d6000fd5b505050506040513d601f19601f8201168201806040525081019061054391906115bb565b905080156105a9576105a961055b60c0880188611633565b600161056a60c08b018b611633565b6105759291506116cb565b81811061058457610584611720565b90506020020160208101906105999190611394565b61032960c0890160a08a01611394565b505050505050565b60006105c06040830183611633565b91506105d4905060e0830160c08401611455565b6106be576001600160a01b037f000000000000000000000000000000000000000000000000000000000000000016639fc314c86106146040850185611633565b600081811061062557610625611720565b905060200201602081019061063a9190611394565b336040517fffffffff0000000000000000000000000000000000000000000000000000000060e085901b1681526001600160a01b0392831660048201529116602482015260a08501356044820152606401600060405180830381600087803b1580156106a557600080fd5b505af11580156106b9573d6000803e3d6000fd5b505050505b60a08201356106cd8380611684565b159050610943576106e460e0840160c08501611455565b610738576107386106f86040850185611633565b600081811061070957610709611720565b905060200201602081019061071e9190611394565b61072e6080860160608701611394565b8560a0013561113f565b6001600160a01b037f0000000000000000000000000000000000000000000000000000000000000000166107726080850160608601611394565b6001600160a01b031614156107ef5760405162461bcd60e51b815260206004820152602660248201527f4d657461526f757465724e6f6e45766d3a20696e76616c69642066697273742060448201527f726f7574657200000000000000000000000000000000000000000000000000006064820152608401610213565b6000806108026080860160608701611394565b6001600160a01b0316346108168780611684565b6040516108249291906115d4565b60006040518083038185875af1925050503d8060008114610861576040519150601f19603f3d011682016040523d82523d6000602084013e610866565b606091505b509150915081610892576101fa816040518060600160405280602381526020016117d060239139610fa1565b61089f6040860186611633565b60018181106108b0576108b0611720565b90506020020160208101906108c59190611394565b6040516370a0823160e01b81523060048201526001600160a01b0391909116906370a082319060240160206040518083038186803b15801561090657600080fd5b505afa15801561091a573d6000803e3d6000fd5b505050506040513d601f19601f8201168201806040525081019061093e91906115bb565b925050505b806109516020850185611684565b159050610c035760006109676020860186611684565b8080601f0160208091040260200160405190810160405280939291908181526020018383808284376000920191909152505050506064810184905290506109f96109b46040870187611633565b6109bf6002886116cb565b8181106109ce576109ce611720565b90506020020160208101906109e39190611394565b6109f360a0880160808901611394565b8561113f565b6001600160a01b037f000000000000000000000000000000000000000000000000000000000000000016610a3360a0870160808801611394565b6001600160a01b03161415610ab05760405162461bcd60e51b815260206004820152602760248201527f4d657461526f757465724e6f6e45766d3a20696e76616c6964207365636f6e6460448201527f20726f75746572000000000000000000000000000000000000000000000000006064820152608401610213565b600080610ac360a0880160808901611394565b6001600160a01b031683604051610ada91906115e4565b6000604051808303816000865af19150503d8060008114610b17576040519150601f19603f3d011682016040523d82523d6000602084013e610b1c565b606091505b509150915081610b48576101fa8160405180606001604052806024815260200161178460249139610fa1565b610b556040880188611633565b610b606001896116cb565b818110610b6f57610b6f611720565b9050602002016020810190610b849190611394565b6040516370a0823160e01b81523060048201526001600160a01b0391909116906370a082319060240160206040518083038186803b158015610bc557600080fd5b505afa158015610bd9573d6000803e3d6000fd5b505050506040513d601f19601f82011682018060405250810190610bfd91906115bb565b93505050505b610c59610c136040860186611633565b610c1e6001876116cb565b818110610c2d57610c2d611720565b9050602002016020810190610c429190611394565b610c53610100870160e08801611394565b8361113f565b6000610c69610100860186611684565b8080601f0160208091040260200160405190810160405280939291908181526020018383808284376000920191909152505050506064810183905290506001600160a01b037f000000000000000000000000000000000000000000000000000000000000000016610ce1610100870160e08801611394565b6001600160a01b03161415610d5e5760405162461bcd60e51b815260206004820152602360248201527f4d657461526f757465724e6f6e45766d3a20696e76616c69642072656369706960448201527f656e7400000000000000000000000000000000000000000000000000000000006064820152608401610213565b600080610d72610100880160e08901611394565b6001600160a01b031683604051610d8991906115e4565b6000604051808303816000865af19150503d8060008114610dc6576040519150601f19603f3d011682016040523d82523d6000602084013e610dcb565b606091505b509150915081610df7576101fa816040518060600160405280602881526020016117a860289139610fa1565b50505050505050565b600080610e4788888888888080601f0160208091040260200160405190810160405280939291908181526020018383808284376000920191909152508a9250610e7c915050565b9150915081610e72576101fa816040518060600160405280602681526020016117f360269139610fa1565b5050505050505050565b600060607f00000000000000000000000000000000000000000000000000000000000000006001600160a01b0316856001600160a01b03161415610f285760405162461bcd60e51b815260206004820152602560248201527f4d657461526f757465724e6f6e45766d3a20696e76616c69642072656365697660448201527f65536964650000000000000000000000000000000000000000000000000000006064820152608401610213565b610f3387868861113f565b8583850152846001600160a01b031684604051610f5091906115e4565b6000604051808303816000865af19150503d8060008114610f8d576040519150601f19603f3d011682016040523d82523d6000602084013e610f92565b606091505b50909890975095505050505050565b6060604483511015610fb4575080610fd1565b60048301925082806020019051810190610fce9190611496565b90505b92915050565b604080516001600160a01b038481166024830152604480830185905283518084039091018152606490920183526020820180517bffffffffffffffffffffffffffffffffffffffffffffffffffffffff167fa9059cbb00000000000000000000000000000000000000000000000000000000179052915160009283929087169161106191906115e4565b6000604051808303816000865af19150503d806000811461109e576040519150601f19603f3d011682016040523d82523d6000602084013e6110a3565b606091505b50915091508180156110cd5750805115806110cd5750808060200190518101906110cd9190611479565b61032f5760405162461bcd60e51b815260206004820152602d60248201527f5472616e7366657248656c7065723a3a736166655472616e736665723a20747260448201527f616e73666572206661696c6564000000000000000000000000000000000000006064820152608401610213565b6040517fdd62ed3e0000000000000000000000000000000000000000000000000000000081523060048201526001600160a01b03838116602483015282919085169063dd62ed3e9060440160206040518083038186803b1580156111a257600080fd5b505afa1580156111b6573d6000803e3d6000fd5b505050506040513d601f19601f820116820180604052508101906111da91906115bb565b101561120b5761120b83837fffffffffffffffffffffffffffffffffffffffffffffffffffffffffffffffff611210565b505050565b604080516001600160a01b038481166024830152604480830185905283518084039091018152606490920183526020820180517bffffffffffffffffffffffffffffffffffffffffffffffffffffffff167f095ea7b300000000000000000000000000000000000000000000000000000000179052915160009283929087169161129a91906115e4565b6000604051808303816000865af19150503d80600081146112d7576040519150601f19603f3d011682016040523d82523d6000602084013e6112dc565b606091505b50915091508180156113065750805115806113065750808060200190518101906113069190611479565b61032f5760405162461bcd60e51b815260206004820152602b60248201527f5472616e7366657248656c7065723a3a73616665417070726f76653a2061707060448201527f726f7665206661696c65640000000000000000000000000000000000000000006064820152608401610213565b80356001600160a01b038116811461138f57600080fd5b919050565b6000602082840312156113a657600080fd5b610fce82611378565b60008060008060008060a087890312156113c857600080fd5b6113d187611378565b9550602087013594506113e660408801611378565b9350606087013567ffffffffffffffff8082111561140357600080fd5b818901915089601f83011261141757600080fd5b81358181111561142657600080fd5b8a602082850101111561143857600080fd5b602083019550809450505050608087013590509295509295509295565b60006020828403121561146757600080fd5b81356114728161174c565b9392505050565b60006020828403121561148b57600080fd5b81516114728161174c565b6000602082840312156114a857600080fd5b815167ffffffffffffffff808211156114c057600080fd5b818401915084601f8301126114d457600080fd5b8151818111156114e6576114e6611736565b604051601f8201601f19908116603f0116810190838211818310171561150e5761150e611736565b8160405282815287602084870101111561152757600080fd5b6115388360208301602088016116f0565b979650505050505050565b60006020828403121561155557600080fd5b813567ffffffffffffffff81111561156c57600080fd5b8201610180818503121561147257600080fd5b60006020828403121561159157600080fd5b813567ffffffffffffffff8111156115a857600080fd5b8201610120818503121561147257600080fd5b6000602082840312156115cd57600080fd5b5051919050565b8183823760009101908152919050565b600082516115f68184602087016116f0565b9190910192915050565b602081526000825180602084015261161f8160408501602087016116f0565b601f01601f19169190910160400192915050565b6000808335601e1984360301811261164a57600080fd5b83018035915067ffffffffffffffff82111561166557600080fd5b6020019150600581901b360382131561167d57600080fd5b9250929050565b6000808335601e1984360301811261169b57600080fd5b83018035915067ffffffffffffffff8211156116b657600080fd5b60200191503681900382131561167d57600080fd5b6000828210156116eb57634e487b7160e01b600052601160045260246000fd5b500390565b60005b8381101561170b5781810151838201526020016116f3565b8381111561171a576000848401525b50505050565b634e487b7160e01b600052603260045260246000fd5b634e487b7160e01b600052604160045260246000fd5b801515811461175a57600080fd5b5056fe4d657461526f757465724e6f6e45766d3a20696e7465726e616c2073776170206661696c65644d657461526f757465724e6f6e45766d3a207365636f6e642073776170206661696c65644d657461526f757465724e6f6e45766d3a206f7468657220736964652063616c6c206661696c65644d657461526f757465724e6f6e45766d3a2066697273742073776170206661696c65644d657461526f757465724e6f6e45766d3a2065787465726e616c2063616c6c206661696c65644d657461526f757465724e6f6e45766d3a2066696e616c2063616c6c206661696c6564a2646970667358221220750a937c39d06798790441b16b2b3142ff10804860bcf951fa92a82a2fd30f5e64736f6c6343000807003360a060405234801561001057600080fd5b506040516104d73803806104d783398101604081905261002f91610044565b60601b6001600160601b031916608052610074565b60006020828403121561005657600080fd5b81516001600160a01b038116811461006d57600080fd5b9392505050565b60805160601c61043961009e6000396000818160550152818160a2015261017101526104396000f3fe608060405234801561001057600080fd5b50600436106100365760003560e01c80639fc314c81461003b578063dbec15bb14610050575b600080fd5b61004e610049366004610363565b6100a0565b005b6100777f000000000000000000000000000000000000000000000000000000000000000081565b60405173ffffffffffffffffffffffffffffffffffffffff909116815260200160405180910390f35b7f000000000000000000000000000000000000000000000000000000000000000073ffffffffffffffffffffffffffffffffffffffff16331461016a576040517f08c379a000000000000000000000000000000000000000000000000000000000815260206004820152602260248201527f53796d623a2063616c6c6572206973206e6f7420746865206d657461726f757460448201527f657200000000000000000000000000000000000000000000000000000000000060648201526084015b60405180910390fd5b61019683837f00000000000000000000000000000000000000000000000000000000000000008461019b565b505050565b6040805173ffffffffffffffffffffffffffffffffffffffff85811660248301528481166044830152606480830185905283518084039091018152608490920183526020820180517bffffffffffffffffffffffffffffffffffffffffffffffffffffffff167f23b872dd00000000000000000000000000000000000000000000000000000000179052915160009283929088169161023a91906103c8565b6000604051808303816000865af19150503d8060008114610277576040519150601f19603f3d011682016040523d82523d6000602084013e61027c565b606091505b50915091508180156102a65750805115806102a65750808060200190518101906102a6919061039f565b610332576040517f08c379a000000000000000000000000000000000000000000000000000000000815260206004820152603160248201527f5472616e7366657248656c7065723a3a7472616e7366657246726f6d3a20747260448201527f616e7366657246726f6d206661696c65640000000000000000000000000000006064820152608401610161565b505050505050565b803573ffffffffffffffffffffffffffffffffffffffff8116811461035e57600080fd5b919050565b60008060006060848603121561037857600080fd5b6103818461033a565b925061038f6020850161033a565b9150604084013590509250925092565b6000602082840312156103b157600080fd5b815180151581146103c157600080fd5b9392505050565b6000825160005b818110156103e957602081860181015185830152016103cf565b818111156103f8576000828501525b50919091019291505056fea26469706673582212202568575dd38d51c811ca9abb487d12cf7f92601b834f2b8dba043bc452c3f35164736f6c63430008070033",
    "linkReferences": {},
    "deployedLinkReferences": {}
}