{
    "_format": "hh-sol-artifact-1",
    "contractName": "OctopoolOracle",
    "sourceName": "contracts/OctopoolOracle.sol",
    "abi": [
        {
            "anonymous": false,
            "inputs": [
                {
                    "indexed": false,
                    "internalType": "uint8",
                    "name": "version",
                    "type": "uint8"
                }
            ],
            "name": "Initialized",
            "type": "event"
        },
        {
            "anonymous": false,
            "inputs": [
                {
                    "indexed": true,
                    "internalType": "address",
                    "name": "previousOwner",
                    "type": "address"
                },
                {
                    "indexed": true,
                    "internalType": "address",
                    "name": "newOwner",
                    "type": "address"
                }
            ],
            "name": "OwnershipTransferred",
            "type": "event"
        },
        {
            "anonymous": false,
            "inputs": [
                {
                    "indexed": false,
                    "internalType": "address",
                    "name": "account",
                    "type": "address"
                }
            ],
            "name": "Paused",
            "type": "event"
        },
        {
            "anonymous": false,
            "inputs": [
                {
                    "indexed": false,
                    "internalType": "address",
                    "name": "account",
                    "type": "address"
                }
            ],
            "name": "Unpaused",
            "type": "event"
        },
        {
            "inputs": [],
            "name": "a",
            "outputs": [
                {
                    "internalType": "uint256",
                    "name": "",
                    "type": "uint256"
                }
            ],
            "stateMutability": "view",
            "type": "function"
        },
        {
            "inputs": [],
            "name": "devaddr",
            "outputs": [
                {
                    "internalType": "address",
                    "name": "",
                    "type": "address"
                }
            ],
            "stateMutability": "view",
            "type": "function"
        },
        {
            "inputs": [
                {
                    "internalType": "address",
                    "name": "_pool",
                    "type": "address"
                }
            ],
            "name": "initialize",
            "outputs": [],
            "stateMutability": "nonpayable",
            "type": "function"
        },
        {
            "inputs": [],
            "name": "lastIndex",
            "outputs": [
                {
                    "internalType": "uint256",
                    "name": "",
                    "type": "uint256"
                }
            ],
            "stateMutability": "view",
            "type": "function"
        },
        {
            "inputs": [],
            "name": "lpDividendRatio",
            "outputs": [
                {
                    "internalType": "uint256",
                    "name": "",
                    "type": "uint256"
                }
            ],
            "stateMutability": "view",
            "type": "function"
        },
        {
            "inputs": [],
            "name": "lpFee",
            "outputs": [
                {
                    "internalType": "uint256",
                    "name": "",
                    "type": "uint256"
                }
            ],
            "stateMutability": "view",
            "type": "function"
        },
        {
            "inputs": [],
            "name": "owner",
            "outputs": [
                {
                    "internalType": "address",
                    "name": "",
                    "type": "address"
                }
            ],
            "stateMutability": "view",
            "type": "function"
        },
        {
            "inputs": [],
            "name": "pause",
            "outputs": [],
            "stateMutability": "nonpayable",
            "type": "function"
        },
        {
            "inputs": [],
            "name": "paused",
            "outputs": [
                {
                    "internalType": "bool",
                    "name": "",
                    "type": "bool"
                }
            ],
            "stateMutability": "view",
            "type": "function"
        },
        {
            "inputs": [],
            "name": "pool",
            "outputs": [
                {
                    "internalType": "address",
                    "name": "",
                    "type": "address"
                }
            ],
            "stateMutability": "view",
            "type": "function"
        },
        {
            "inputs": [],
            "name": "poolDev",
            "outputs": [
                {
                    "internalType": "address",
                    "name": "",
                    "type": "address"
                }
            ],
            "stateMutability": "view",
            "type": "function"
        },
        {
            "inputs": [
                {
                    "internalType": "uint256",
                    "name": "_id",
                    "type": "uint256"
                },
                {
                    "internalType": "uint256",
                    "name": "_amount",
                    "type": "uint256"
                }
            ],
            "name": "quoteDeposit",
            "outputs": [
                {
                    "internalType": "uint256",
                    "name": "lpTokenToMint",
                    "type": "uint256"
                },
                {
                    "internalType": "uint256",
                    "name": "liabilityToMint",
                    "type": "uint256"
                },
                {
                    "internalType": "uint256",
                    "name": "reward",
                    "type": "uint256"
                }
            ],
            "stateMutability": "view",
            "type": "function"
        },
        {
            "inputs": [
                {
                    "internalType": "uint256",
                    "name": "_fromAsset",
                    "type": "uint256"
                },
                {
                    "internalType": "uint256",
                    "name": "_toAsset",
                    "type": "uint256"
                },
                {
                    "internalType": "int256",
                    "name": "_fromAmount",
                    "type": "int256"
                }
            ],
            "name": "quoteFrom",
            "outputs": [
                {
                    "internalType": "uint256",
                    "name": "actualToAmount",
                    "type": "uint256"
                },
                {
                    "internalType": "uint256",
                    "name": "lpFeeAmount",
                    "type": "uint256"
                }
            ],
            "stateMutability": "view",
            "type": "function"
        },
        {
            "inputs": [
                {
                    "internalType": "uint256",
                    "name": "_id",
                    "type": "uint256"
                },
                {
                    "internalType": "uint256",
                    "name": "_liquidity",
                    "type": "uint256"
                }
            ],
            "name": "quoteWithdraw",
            "outputs": [
                {
                    "internalType": "uint256",
                    "name": "amount",
                    "type": "uint256"
                },
                {
                    "internalType": "uint256",
                    "name": "liabilityToBurn",
                    "type": "uint256"
                },
                {
                    "internalType": "uint256",
                    "name": "fee",
                    "type": "uint256"
                }
            ],
            "stateMutability": "view",
            "type": "function"
        },
        {
            "inputs": [],
            "name": "renounceOwnership",
            "outputs": [],
            "stateMutability": "nonpayable",
            "type": "function"
        },
        {
            "inputs": [
                {
                    "internalType": "address",
                    "name": "newOwner",
                    "type": "address"
                }
            ],
            "name": "transferOwnership",
            "outputs": [],
            "stateMutability": "nonpayable",
            "type": "function"
        },
        {
            "inputs": [],
            "name": "unpause",
            "outputs": [],
            "stateMutability": "nonpayable",
            "type": "function"
        }
    ],
    "bytecode": "0x608060405234801561001057600080fd5b50611e4a806100206000396000f3fe608060405234801561001057600080fd5b506004361061011b5760003560e01c80638456cb59116100b2578063c4d66de811610081578063e8fa77a011610066578063e8fa77a01461023b578063f2fde38b1461024e578063f3f6f0d71461026157600080fd5b8063c4d66de814610215578063d49e77cd1461022857600080fd5b80638456cb59146101cc5780638da5cb5b146101d45780639c6f81cb146101e5578063a3602bee146101ed57600080fd5b80635c975abb116100ee5780635c975abb1461019e578063704ce43e146101b4578063715018a6146101bc578063815bfd29146101c457600080fd5b80630dbe671f146101205780630f4d3eaf1461013b57806316f0115b146101695780633f4ba83a14610194575b600080fd5b610128610269565b6040519081526020015b60405180910390f35b61014e610149366004611b88565b610304565b60408051938452602084019290925290820152606001610132565b60975461017c906001600160a01b031681565b6040516001600160a01b039091168152602001610132565b61019c6106fd565b005b60655460ff166040519015158152602001610132565b610128610761565b61019c6107bf565b6101286107d1565b61019c61082f565b6033546001600160a01b031661017c565b61017c610891565b6102006101fb366004611baa565b610927565b60408051928352602083019190915201610132565b61019c610223366004611a8a565b610e82565b60985461017c906001600160a01b031681565b61014e610249366004611b88565b610fec565b61019c61025c366004611a8a565b61144f565b6101286114df565b609754604080517f0dbe671f00000000000000000000000000000000000000000000000000000000815290516000926001600160a01b031691630dbe671f916004808301926020929190829003018186803b1580156102c757600080fd5b505afa1580156102db573d6000803e3d6000fd5b505050506040513d601f19601f820116820180604052508101906102ff9190611b6f565b905090565b609754604051634f75b51160e11b815260048101849052600091829182916001600160a01b031690639eeb6a229060240160e06040518083038186803b15801561034d57600080fd5b505afa158015610361573d6000803e3d6000fd5b505050506040513d601f19601f820116820180604052508101906103859190611acb565b60600151609754604051634f75b51160e11b81526004810188905286916001600160a01b031690639eeb6a229060240160e06040518083038186803b1580156103cd57600080fd5b505afa1580156103e1573d6000803e3d6000fd5b505050506040513d601f19601f820116820180604052508101906104059190611acb565b602001516104139190611d28565b61041d9190611c74565b9150816104715760405162461bcd60e51b815260206004820152600e60248201527f5a65726f206c697175696469747900000000000000000000000000000000000060448201526064015b60405180910390fd5b600061047c83611db6565b609754604051634f75b51160e11b8152600481018990529192506000916001600160a01b0390911690639eeb6a229060240160e06040518083038186803b1580156104c657600080fd5b505afa1580156104da573d6000803e3d6000fd5b505050506040513d601f19601f820116820180604052508101906104fe9190611acb565b51609754604051634f75b51160e11b8152600481018a90529192506000916001600160a01b0390911690639eeb6a229060240160e06040518083038186803b15801561054957600080fd5b505afa15801561055d573d6000803e3d6000fd5b505050506040513d601f19601f820116820180604052508101906105819190611acb565b6020015190506000609760009054906101000a90046001600160a01b03166001600160a01b0316630dbe671f6040518163ffffffff1660e01b815260040160206040518083038186803b1580156105d757600080fd5b505afa1580156105eb573d6000803e3d6000fd5b505050506040513d601f19601f8201168201806040525081019061060f9190611b6f565b9050600061061d8584611bd6565b9050600061062b858561153d565b9050600061064d61063c858461153d565b6106469084611d47565b869061157a565b90506000600261066f61066887670de0b6b3a7640000611d47565b8a9061157a565b6106799084611bd6565b6106839190611c46565b905060006106b98261069f6106988880611c88565b899061157a565b6106a98580611c88565b6106b39190611bd6565b9061159a565b6106c39083611bd6565b90506106cf8189611d47565b9b508b8b106106e9576106e28c8c611d9f565b99506106ed565b8a9b505b5050505050505050509250925092565b6098546001600160a01b031633146107575760405162461bcd60e51b815260206004820152600960248201527f466f7262696464656e00000000000000000000000000000000000000000000006044820152606401610468565b61075f61165e565b565b609754604080517f704ce43e00000000000000000000000000000000000000000000000000000000815290516000926001600160a01b03169163704ce43e916004808301926020929190829003018186803b1580156102c757600080fd5b6107c76116b0565b61075f600061170a565b609754604080517f815bfd2900000000000000000000000000000000000000000000000000000000815290516000926001600160a01b03169163815bfd29916004808301926020929190829003018186803b1580156102c757600080fd5b6098546001600160a01b031633146108895760405162461bcd60e51b815260206004820152600960248201527f466f7262696464656e00000000000000000000000000000000000000000000006044820152606401610468565b61075f611774565b609754604080517f91cca3db00000000000000000000000000000000000000000000000000000000815290516000926001600160a01b0316916391cca3db916004808301926020929190829003018186803b1580156108ef57600080fd5b505afa158015610903573d6000803e3d6000fd5b505050506040513d601f19601f820116820180604052508101906102ff9190611aae565b609754604051634f75b51160e11b8152600481018490526000918291829182918291829182916001600160a01b031690639eeb6a229060240160e06040518083038186803b15801561097857600080fd5b505afa15801561098c573d6000803e3d6000fd5b505050506040513d601f19601f820116820180604052508101906109b09190611acb565b51609754604080517f0dbe671f000000000000000000000000000000000000000000000000000000008152905192935083926000926001600160a01b031691630dbe671f916004808301926020929190829003018186803b158015610a1457600080fd5b505afa158015610a28573d6000803e3d6000fd5b505050506040513d601f19601f82011682018060405250810190610a4c9190611b6f565b609754604051634f75b51160e11b8152600481018f90529192506000916001600160a01b0390911690639eeb6a229060240160e06040518083038186803b158015610a9657600080fd5b505afa158015610aaa573d6000803e3d6000fd5b505050506040513d601f19601f82011682018060405250810190610ace9190611acb565b6000015190508096506000609760009054906101000a90046001600160a01b03166001600160a01b0316639eeb6a228f6040518263ffffffff1660e01b8152600401610b1c91815260200190565b60e06040518083038186803b158015610b3457600080fd5b505afa158015610b48573d6000803e3d6000fd5b505050506040513d601f19601f82011682018060405250810190610b6c9190611acb565b6020015190506000609760009054906101000a90046001600160a01b03166001600160a01b0316639eeb6a228f6040518263ffffffff1660e01b8152600401610bb791815260200190565b60e06040518083038186803b158015610bcf57600080fd5b505afa158015610be3573d6000803e3d6000fd5b505050506040513d601f19601f82011682018060405250810190610c079190611acb565b6020015191975090955050508315801590610c2157508415155b610c6d5760405162461bcd60e51b815260206004820152600d60248201527f496e76616c69642076616c7565000000000000000000000000000000000000006044820152606401610468565b6000610cad83610c7d8780611c88565b610c879190611c46565b88610c928980611c88565b610c9c9190611c46565b610ca69190611bd6565b839061157a565b610cb78489611bd6565b610cc19190611d47565b90506000610cd987610cd38e8b611bd6565b9061153d565b90506000610ce7838861153d565b87610cf2868561153d565b610cfc9085611d47565b610d06908b611c88565b610d109190611c46565b610d1a9190611d47565b90506000610d2882866117b1565b9050600086610d378a8461157a565b610d419190611d47565b90506000811215610d5c57610d5581611db6565b9b50610d60565b809b505b8b881015610db05760405162461bcd60e51b815260206004820152600f60248201527f4e6f7420656e6f756768206361736800000000000000000000000000000000006044820152606401610468565b609754604080517f704ce43e0000000000000000000000000000000000000000000000000000000081529051610e4e926001600160a01b03169163704ce43e916004808301926020929190829003018186803b158015610e0f57600080fd5b505afa158015610e23573d6000803e3d6000fd5b505050506040513d601f19601f82011682018060405250810190610e479190611b6f565b8d906117ec565b9c5060008f1315610e6a57610e638d8d611d9f565b9d50610e6e565b8b9d505b505050505050505050505050935093915050565b600054610100900460ff1615808015610ea25750600054600160ff909116105b80610ebc5750303b158015610ebc575060005460ff166001145b610f2e5760405162461bcd60e51b815260206004820152602e60248201527f496e697469616c697a61626c653a20636f6e747261637420697320616c72656160448201527f647920696e697469616c697a65640000000000000000000000000000000000006064820152608401610468565b6000805460ff191660011790558015610f51576000805461ff0019166101001790555b610f59611820565b610f616118a5565b609780546001600160a01b0384167fffffffffffffffffffffffff00000000000000000000000000000000000000009182161790915560988054909116331790558015610fe8576000805461ff0019169055604051600181527f7f26b83ff96e1f2b6a682f133852f6798a09c465da95921460cefb38474024989060200160405180910390a15b5050565b609754604051634f75b51160e11b81526004810184905260009182918291859183916001600160a01b031690639eeb6a229060240160e06040518083038186803b15801561103957600080fd5b505afa15801561104d573d6000803e3d6000fd5b505050506040513d601f19601f820116820180604052508101906110719190611acb565b51609754604051634f75b51160e11b8152600481018a90529192506000916001600160a01b0390911690639eeb6a229060240160e06040518083038186803b1580156110bc57600080fd5b505afa1580156110d0573d6000803e3d6000fd5b505050506040513d601f19601f820116820180604052508101906110f49190611acb565b6020015190506000609760009054906101000a90046001600160a01b03166001600160a01b0316630dbe671f6040518163ffffffff1660e01b815260040160206040518083038186803b15801561114a57600080fd5b505afa15801561115e573d6000803e3d6000fd5b505050506040513d601f19601f820116820180604052508101906111829190611b6f565b90508161119157879550611301565b600061119d8585611bd6565b12156111eb5760405162461bcd60e51b815260206004820152600d60248201527f496e76616c69642076616c7565000000000000000000000000000000000000006044820152606401610468565b60006111f7848461153d565b905060006112058587611bd6565b90506000611213848661157a565b61121e906002611c88565b61123a61123386670de0b6b3a7640000611d47565b849061157a565b6112449190611bd6565b9050600061125c86611256878261157a565b9061157a565b611266848061157a565b611288866112748a8a611c88565b61127e9190611c46565b610646908b611d47565b6112929190611d47565b61129c9190611bd6565b90506000816112ac876004611c88565b6112b69190611c88565b6112c08480611c88565b6112ca9190611d47565b905060026112ef876112dc848761159a565b6112e587611db6565b610cd39190611bd6565b6112f99190611c46565b9a5050505050505b878610611319576113128887611d9f565b945061131d565b8795505b609754604051634f75b51160e11b8152600481018b90526000916001600160a01b031690639eeb6a229060240160e06040518083038186803b15801561136257600080fd5b505afa158015611376573d6000803e3d6000fd5b505050506040513d601f19601f8201168201806040525081019061139a9190611acb565b602001519050801561143f57609754604051634f75b51160e11b8152600481018c905282916001600160a01b031690639eeb6a229060240160e06040518083038186803b1580156113ea57600080fd5b505afa1580156113fe573d6000803e3d6000fd5b505050506040513d601f19601f820116820180604052508101906114229190611acb565b606001516114309089611d28565b61143a9190611c74565b611441565b865b975050505050509250925092565b6114576116b0565b6001600160a01b0381166114d35760405162461bcd60e51b815260206004820152602660248201527f4f776e61626c653a206e6577206f776e657220697320746865207a65726f206160448201527f64647265737300000000000000000000000000000000000000000000000000006064820152608401610468565b6114dc8161170a565b50565b609754604080517ff3f6f0d700000000000000000000000000000000000000000000000000000000815290516000926001600160a01b03169163f3f6f0d7916004808301926020929190829003018186803b1580156102c757600080fd5b60008161154b600282611c46565b61155d670de0b6b3a764000086611c88565b6115679190611bd6565b6115719190611c46565b90505b92915050565b6000670de0b6b3a7640000611590600282611c46565b61155d8486611c88565b6000600383131561164f576000821380156115b55750828213155b156115c15750806115f1565b6000821280156115d95750826115d683611db6565b13155b156115ee576115e782611db6565b90506115f1565b50815b60006002826116008187611c46565b61160a9190611bd6565b6116149190611c46565b90505b8181146116495790508060028161162e8187611c46565b6116389190611bd6565b6116429190611c46565b9050611617565b50611574565b82156115745750600192915050565b61166661192e565b6065805460ff191690557f5db9ee0a495bf2e6ff9c91a7834c1ba4fdd244a5e8aa4e537bd38aeae4b073aa335b6040516001600160a01b03909116815260200160405180910390a1565b6033546001600160a01b0316331461075f5760405162461bcd60e51b815260206004820181905260248201527f4f776e61626c653a2063616c6c6572206973206e6f7420746865206f776e65726044820152606401610468565b603380546001600160a01b038381167fffffffffffffffffffffffff0000000000000000000000000000000000000000831681179093556040519116919082907f8be0079c531659141344cd1fd0a4f28419497f9722a3daafe3b4186f6b6457e090600090a35050565b61177c611980565b6065805460ff191660011790557f62e78cea01bee320cd4e420270b5ea74000d11b0c9f74754ebdbfc544b05a2586116933390565b60006002836117e281670de0b6b3a76400006117ce876004611c88565b6117d89190611c88565b6106a98880611c88565b6115679190611d47565b6000670de0b6b3a7640000611802600282611c74565b61180c8486611d28565b6118169190611c2e565b6115719190611c74565b600054610100900460ff1661189d5760405162461bcd60e51b815260206004820152602b60248201527f496e697469616c697a61626c653a20636f6e7472616374206973206e6f74206960448201527f6e697469616c697a696e670000000000000000000000000000000000000000006064820152608401610468565b61075f6119d3565b600054610100900460ff166119225760405162461bcd60e51b815260206004820152602b60248201527f496e697469616c697a61626c653a20636f6e7472616374206973206e6f74206960448201527f6e697469616c697a696e670000000000000000000000000000000000000000006064820152608401610468565b6065805460ff19169055565b60655460ff1661075f5760405162461bcd60e51b815260206004820152601460248201527f5061757361626c653a206e6f74207061757365640000000000000000000000006044820152606401610468565b60655460ff161561075f5760405162461bcd60e51b815260206004820152601060248201527f5061757361626c653a20706175736564000000000000000000000000000000006044820152606401610468565b600054610100900460ff16611a505760405162461bcd60e51b815260206004820152602b60248201527f496e697469616c697a61626c653a20636f6e7472616374206973206e6f74206960448201527f6e697469616c697a696e670000000000000000000000000000000000000000006064820152608401610468565b61075f3361170a565b8051611a6481611dff565b919050565b80518015158114611a6457600080fd5b805160ff81168114611a6457600080fd5b600060208284031215611a9c57600080fd5b8135611aa781611dff565b9392505050565b600060208284031215611ac057600080fd5b8151611aa781611dff565b600060e08284031215611add57600080fd5b60405160e0810181811067ffffffffffffffff82111715611b0e57634e487b7160e01b600052604160045260246000fd5b806040525082518152602083015160208201526040830151604082015260608301516060820152611b4160808401611a79565b6080820152611b5260a08401611a59565b60a0820152611b6360c08401611a69565b60c08201529392505050565b600060208284031215611b8157600080fd5b5051919050565b60008060408385031215611b9b57600080fd5b50508035926020909101359150565b600080600060608486031215611bbf57600080fd5b505081359360208301359350604090920135919050565b6000808212827f7fffffffffffffffffffffffffffffffffffffffffffffffffffffffffffffff03841381151615611c1057611c10611dd3565b82600160ff1b038412811615611c2857611c28611dd3565b50500190565b60008219821115611c4157611c41611dd3565b500190565b600082611c5557611c55611de9565b6000198314600160ff1b83141615611c6f57611c6f611dd3565b500590565b600082611c8357611c83611de9565b500490565b60007f7fffffffffffffffffffffffffffffffffffffffffffffffffffffffffffffff600084136000841385830485118282161615611cc957611cc9611dd3565b600160ff1b6000871286820588128184161615611ce857611ce8611dd3565b60008712925087820587128484161615611d0457611d04611dd3565b87850587128184161615611d1a57611d1a611dd3565b505050929093029392505050565b6000816000190483118215151615611d4257611d42611dd3565b500290565b600080831283600160ff1b01831281151615611d6557611d65611dd3565b837f7fffffffffffffffffffffffffffffffffffffffffffffffffffffffffffffff018313811615611d9957611d99611dd3565b50500390565b600082821015611db157611db1611dd3565b500390565b6000600160ff1b821415611dcc57611dcc611dd3565b5060000390565b634e487b7160e01b600052601160045260246000fd5b634e487b7160e01b600052601260045260246000fd5b6001600160a01b03811681146114dc57600080fdfea264697066735822122018741359b8862ae6fddb98cb998fea505be769f191a8cee9d46d67d33b42d5f564736f6c63430008050033",
    "linkReferences": {},
    "deployedLinkReferences": {}
}