{
    "_format": "hh-sol-artifact-1",
    "contractName": "Pool",
    "sourceName": "contracts/pool/Pool.sol",
    "abi": [
        {
            "anonymous": false,
            "inputs": [
                {
                    "indexed": true,
                    "internalType": "address",
                    "name": "account",
                    "type": "address"
                },
                {
                    "indexed": true,
                    "internalType": "address",
                    "name": "operator",
                    "type": "address"
                },
                {
                    "indexed": false,
                    "internalType": "bool",
                    "name": "approved",
                    "type": "bool"
                }
            ],
            "name": "ApprovalForAll",
            "type": "event"
        },
        {
            "anonymous": false,
            "inputs": [
                {
                    "indexed": true,
                    "internalType": "address",
                    "name": "token",
                    "type": "address"
                }
            ],
            "name": "AssetAdded",
            "type": "event"
        },
        {
            "anonymous": false,
            "inputs": [
                {
                    "indexed": true,
                    "internalType": "address",
                    "name": "token",
                    "type": "address"
                },
                {
                    "indexed": true,
                    "internalType": "bool",
                    "name": "status",
                    "type": "bool"
                }
            ],
            "name": "AssetStatusChanged",
            "type": "event"
        },
        {
            "anonymous": false,
            "inputs": [
                {
                    "indexed": true,
                    "internalType": "address",
                    "name": "sender",
                    "type": "address"
                },
                {
                    "indexed": true,
                    "internalType": "address",
                    "name": "token",
                    "type": "address"
                },
                {
                    "indexed": false,
                    "internalType": "uint256",
                    "name": "amount",
                    "type": "uint256"
                },
                {
                    "indexed": false,
                    "internalType": "uint256",
                    "name": "liquidity",
                    "type": "uint256"
                },
                {
                    "indexed": true,
                    "internalType": "address",
                    "name": "to",
                    "type": "address"
                }
            ],
            "name": "Deposit",
            "type": "event"
        },
        {
            "anonymous": false,
            "inputs": [
                {
                    "indexed": true,
                    "internalType": "address",
                    "name": "token",
                    "type": "address"
                },
                {
                    "indexed": false,
                    "internalType": "uint256",
                    "name": "amount",
                    "type": "uint256"
                }
            ],
            "name": "FillPool",
            "type": "event"
        },
        {
            "anonymous": false,
            "inputs": [
                {
                    "indexed": false,
                    "internalType": "uint8",
                    "name": "version",
                    "type": "uint8"
                }
            ],
            "name": "Initialized",
            "type": "event"
        },
        {
            "anonymous": false,
            "inputs": [
                {
                    "indexed": false,
                    "internalType": "uint256",
                    "name": "value",
                    "type": "uint256"
                }
            ],
            "name": "NewA",
            "type": "event"
        },
        {
            "anonymous": false,
            "inputs": [
                {
                    "indexed": false,
                    "internalType": "uint256",
                    "name": "lpDividendRatio",
                    "type": "uint256"
                }
            ],
            "name": "NewFee",
            "type": "event"
        },
        {
            "anonymous": false,
            "inputs": [
                {
                    "indexed": true,
                    "internalType": "address",
                    "name": "addr",
                    "type": "address"
                }
            ],
            "name": "NewFeeTo",
            "type": "event"
        },
        {
            "anonymous": false,
            "inputs": [
                {
                    "indexed": false,
                    "internalType": "uint256",
                    "name": "value",
                    "type": "uint256"
                }
            ],
            "name": "NewLPFee",
            "type": "event"
        },
        {
            "anonymous": false,
            "inputs": [
                {
                    "indexed": true,
                    "internalType": "address",
                    "name": "token",
                    "type": "address"
                },
                {
                    "indexed": true,
                    "internalType": "uint256",
                    "name": "newMaxSupply",
                    "type": "uint256"
                }
            ],
            "name": "NewMaxSupply",
            "type": "event"
        },
        {
            "anonymous": false,
            "inputs": [
                {
                    "indexed": false,
                    "internalType": "uint256",
                    "name": "value",
                    "type": "uint256"
                }
            ],
            "name": "NewMintFeeThreshold",
            "type": "event"
        },
        {
            "anonymous": false,
            "inputs": [
                {
                    "indexed": true,
                    "internalType": "address",
                    "name": "newVeSIS",
                    "type": "address"
                }
            ],
            "name": "NewVeSIS",
            "type": "event"
        },
        {
            "anonymous": false,
            "inputs": [
                {
                    "indexed": true,
                    "internalType": "address",
                    "name": "previousOwner",
                    "type": "address"
                },
                {
                    "indexed": true,
                    "internalType": "address",
                    "name": "newOwner",
                    "type": "address"
                }
            ],
            "name": "OwnershipTransferred",
            "type": "event"
        },
        {
            "anonymous": false,
            "inputs": [
                {
                    "indexed": false,
                    "internalType": "address",
                    "name": "account",
                    "type": "address"
                }
            ],
            "name": "Paused",
            "type": "event"
        },
        {
            "anonymous": false,
            "inputs": [
                {
                    "indexed": true,
                    "internalType": "address",
                    "name": "sender",
                    "type": "address"
                },
                {
                    "indexed": false,
                    "internalType": "address",
                    "name": "fromToken",
                    "type": "address"
                },
                {
                    "indexed": false,
                    "internalType": "address",
                    "name": "toToken",
                    "type": "address"
                },
                {
                    "indexed": false,
                    "internalType": "uint256",
                    "name": "fromAmount",
                    "type": "uint256"
                },
                {
                    "indexed": false,
                    "internalType": "uint256",
                    "name": "toAmount",
                    "type": "uint256"
                },
                {
                    "indexed": true,
                    "internalType": "address",
                    "name": "to",
                    "type": "address"
                }
            ],
            "name": "Swap",
            "type": "event"
        },
        {
            "anonymous": false,
            "inputs": [
                {
                    "indexed": true,
                    "internalType": "address",
                    "name": "operator",
                    "type": "address"
                },
                {
                    "indexed": true,
                    "internalType": "address",
                    "name": "from",
                    "type": "address"
                },
                {
                    "indexed": true,
                    "internalType": "address",
                    "name": "to",
                    "type": "address"
                },
                {
                    "indexed": false,
                    "internalType": "uint256[]",
                    "name": "ids",
                    "type": "uint256[]"
                },
                {
                    "indexed": false,
                    "internalType": "uint256[]",
                    "name": "values",
                    "type": "uint256[]"
                }
            ],
            "name": "TransferBatch",
            "type": "event"
        },
        {
            "anonymous": false,
            "inputs": [
                {
                    "indexed": true,
                    "internalType": "address",
                    "name": "operator",
                    "type": "address"
                },
                {
                    "indexed": true,
                    "internalType": "address",
                    "name": "from",
                    "type": "address"
                },
                {
                    "indexed": true,
                    "internalType": "address",
                    "name": "to",
                    "type": "address"
                },
                {
                    "indexed": false,
                    "internalType": "uint256",
                    "name": "id",
                    "type": "uint256"
                },
                {
                    "indexed": false,
                    "internalType": "uint256",
                    "name": "value",
                    "type": "uint256"
                }
            ],
            "name": "TransferSingle",
            "type": "event"
        },
        {
            "anonymous": false,
            "inputs": [
                {
                    "indexed": false,
                    "internalType": "string",
                    "name": "value",
                    "type": "string"
                },
                {
                    "indexed": true,
                    "internalType": "uint256",
                    "name": "id",
                    "type": "uint256"
                }
            ],
            "name": "URI",
            "type": "event"
        },
        {
            "anonymous": false,
            "inputs": [
                {
                    "indexed": false,
                    "internalType": "address",
                    "name": "account",
                    "type": "address"
                }
            ],
            "name": "Unpaused",
            "type": "event"
        },
        {
            "anonymous": false,
            "inputs": [
                {
                    "indexed": true,
                    "internalType": "address",
                    "name": "sender",
                    "type": "address"
                },
                {
                    "indexed": true,
                    "internalType": "address",
                    "name": "token",
                    "type": "address"
                },
                {
                    "indexed": false,
                    "internalType": "uint256",
                    "name": "amount",
                    "type": "uint256"
                },
                {
                    "indexed": false,
                    "internalType": "uint256",
                    "name": "liquidity",
                    "type": "uint256"
                },
                {
                    "indexed": true,
                    "internalType": "address",
                    "name": "to",
                    "type": "address"
                }
            ],
            "name": "Withdraw",
            "type": "event"
        },
        {
            "inputs": [],
            "name": "a",
            "outputs": [
                {
                    "internalType": "uint256",
                    "name": "",
                    "type": "uint256"
                }
            ],
            "stateMutability": "view",
            "type": "function"
        },
        {
            "inputs": [
                {
                    "internalType": "address",
                    "name": "_token",
                    "type": "address"
                },
                {
                    "internalType": "uint256",
                    "name": "_maxSupply",
                    "type": "uint256"
                },
                {
                    "internalType": "uint8",
                    "name": "_decimals",
                    "type": "uint8"
                }
            ],
            "name": "addAssetOcto",
            "outputs": [],
            "stateMutability": "nonpayable",
            "type": "function"
        },
        {
            "inputs": [
                {
                    "internalType": "address",
                    "name": "",
                    "type": "address"
                }
            ],
            "name": "assetToIndex",
            "outputs": [
                {
                    "internalType": "uint256",
                    "name": "",
                    "type": "uint256"
                }
            ],
            "stateMutability": "view",
            "type": "function"
        },
        {
            "inputs": [
                {
                    "internalType": "address",
                    "name": "account",
                    "type": "address"
                },
                {
                    "internalType": "uint256",
                    "name": "id",
                    "type": "uint256"
                }
            ],
            "name": "balanceOf",
            "outputs": [
                {
                    "internalType": "uint256",
                    "name": "",
                    "type": "uint256"
                }
            ],
            "stateMutability": "view",
            "type": "function"
        },
        {
            "inputs": [
                {
                    "internalType": "address[]",
                    "name": "accounts",
                    "type": "address[]"
                },
                {
                    "internalType": "uint256[]",
                    "name": "ids",
                    "type": "uint256[]"
                }
            ],
            "name": "balanceOfBatch",
            "outputs": [
                {
                    "internalType": "uint256[]",
                    "name": "",
                    "type": "uint256[]"
                }
            ],
            "stateMutability": "view",
            "type": "function"
        },
        {
            "inputs": [
                {
                    "internalType": "uint256",
                    "name": "_tokenID",
                    "type": "uint256"
                },
                {
                    "internalType": "uint256",
                    "name": "_newMaxSupply",
                    "type": "uint256"
                }
            ],
            "name": "changeMaxSupply",
            "outputs": [],
            "stateMutability": "nonpayable",
            "type": "function"
        },
        {
            "inputs": [
                {
                    "internalType": "uint256",
                    "name": "_id",
                    "type": "uint256"
                },
                {
                    "internalType": "uint256",
                    "name": "_amount",
                    "type": "uint256"
                },
                {
                    "internalType": "uint256",
                    "name": "_minimumLiquidity",
                    "type": "uint256"
                },
                {
                    "internalType": "address",
                    "name": "_to",
                    "type": "address"
                },
                {
                    "internalType": "uint256",
                    "name": "_deadline",
                    "type": "uint256"
                }
            ],
            "name": "deposit",
            "outputs": [
                {
                    "internalType": "uint256",
                    "name": "liquidity",
                    "type": "uint256"
                },
                {
                    "internalType": "uint256",
                    "name": "fee",
                    "type": "uint256"
                }
            ],
            "stateMutability": "nonpayable",
            "type": "function"
        },
        {
            "inputs": [],
            "name": "devaddr",
            "outputs": [
                {
                    "internalType": "address",
                    "name": "",
                    "type": "address"
                }
            ],
            "stateMutability": "view",
            "type": "function"
        },
        {
            "inputs": [],
            "name": "feeTo",
            "outputs": [
                {
                    "internalType": "address",
                    "name": "",
                    "type": "address"
                }
            ],
            "stateMutability": "view",
            "type": "function"
        },
        {
            "inputs": [],
            "name": "globalEquilCovRatio",
            "outputs": [
                {
                    "internalType": "uint256",
                    "name": "equilCovRatio",
                    "type": "uint256"
                },
                {
                    "internalType": "uint256",
                    "name": "invariant",
                    "type": "uint256"
                }
            ],
            "stateMutability": "view",
            "type": "function"
        },
        {
            "inputs": [
                {
                    "internalType": "uint256",
                    "name": "",
                    "type": "uint256"
                }
            ],
            "name": "indexToAsset",
            "outputs": [
                {
                    "internalType": "uint256",
                    "name": "cash",
                    "type": "uint256"
                },
                {
                    "internalType": "uint256",
                    "name": "liability",
                    "type": "uint256"
                },
                {
                    "internalType": "uint256",
                    "name": "maxSupply",
                    "type": "uint256"
                },
                {
                    "internalType": "uint256",
                    "name": "totalSupply",
                    "type": "uint256"
                },
                {
                    "internalType": "uint8",
                    "name": "decimals",
                    "type": "uint8"
                },
                {
                    "internalType": "address",
                    "name": "token",
                    "type": "address"
                },
                {
                    "internalType": "bool",
                    "name": "active",
                    "type": "bool"
                }
            ],
            "stateMutability": "view",
            "type": "function"
        },
        {
            "inputs": [
                {
                    "internalType": "uint256",
                    "name": "_a",
                    "type": "uint256"
                },
                {
                    "internalType": "uint256",
                    "name": "_lpFee",
                    "type": "uint256"
                }
            ],
            "name": "initialize",
            "outputs": [],
            "stateMutability": "nonpayable",
            "type": "function"
        },
        {
            "inputs": [
                {
                    "internalType": "address",
                    "name": "account",
                    "type": "address"
                },
                {
                    "internalType": "address",
                    "name": "operator",
                    "type": "address"
                }
            ],
            "name": "isApprovedForAll",
            "outputs": [
                {
                    "internalType": "bool",
                    "name": "",
                    "type": "bool"
                }
            ],
            "stateMutability": "view",
            "type": "function"
        },
        {
            "inputs": [],
            "name": "lastIndex",
            "outputs": [
                {
                    "internalType": "uint256",
                    "name": "",
                    "type": "uint256"
                }
            ],
            "stateMutability": "view",
            "type": "function"
        },
        {
            "inputs": [],
            "name": "lpDividendRatio",
            "outputs": [
                {
                    "internalType": "uint256",
                    "name": "",
                    "type": "uint256"
                }
            ],
            "stateMutability": "view",
            "type": "function"
        },
        {
            "inputs": [],
            "name": "lpFee",
            "outputs": [
                {
                    "internalType": "uint256",
                    "name": "",
                    "type": "uint256"
                }
            ],
            "stateMutability": "view",
            "type": "function"
        },
        {
            "inputs": [
                {
                    "internalType": "uint256",
                    "name": "_id",
                    "type": "uint256"
                }
            ],
            "name": "mintFee",
            "outputs": [],
            "stateMutability": "nonpayable",
            "type": "function"
        },
        {
            "inputs": [],
            "name": "mintFeeThreshold",
            "outputs": [
                {
                    "internalType": "uint256",
                    "name": "",
                    "type": "uint256"
                }
            ],
            "stateMutability": "view",
            "type": "function"
        },
        {
            "inputs": [],
            "name": "owner",
            "outputs": [
                {
                    "internalType": "address",
                    "name": "",
                    "type": "address"
                }
            ],
            "stateMutability": "view",
            "type": "function"
        },
        {
            "inputs": [],
            "name": "pause",
            "outputs": [],
            "stateMutability": "nonpayable",
            "type": "function"
        },
        {
            "inputs": [],
            "name": "paused",
            "outputs": [
                {
                    "internalType": "bool",
                    "name": "",
                    "type": "bool"
                }
            ],
            "stateMutability": "view",
            "type": "function"
        },
        {
            "inputs": [],
            "name": "renounceOwnership",
            "outputs": [],
            "stateMutability": "nonpayable",
            "type": "function"
        },
        {
            "inputs": [
                {
                    "internalType": "address",
                    "name": "from",
                    "type": "address"
                },
                {
                    "internalType": "address",
                    "name": "to",
                    "type": "address"
                },
                {
                    "internalType": "uint256[]",
                    "name": "ids",
                    "type": "uint256[]"
                },
                {
                    "internalType": "uint256[]",
                    "name": "amounts",
                    "type": "uint256[]"
                },
                {
                    "internalType": "bytes",
                    "name": "data",
                    "type": "bytes"
                }
            ],
            "name": "safeBatchTransferFrom",
            "outputs": [],
            "stateMutability": "nonpayable",
            "type": "function"
        },
        {
            "inputs": [
                {
                    "internalType": "address",
                    "name": "from",
                    "type": "address"
                },
                {
                    "internalType": "address",
                    "name": "to",
                    "type": "address"
                },
                {
                    "internalType": "uint256",
                    "name": "id",
                    "type": "uint256"
                },
                {
                    "internalType": "uint256",
                    "name": "amount",
                    "type": "uint256"
                },
                {
                    "internalType": "bytes",
                    "name": "data",
                    "type": "bytes"
                }
            ],
            "name": "safeTransferFrom",
            "outputs": [],
            "stateMutability": "nonpayable",
            "type": "function"
        },
        {
            "inputs": [
                {
                    "internalType": "uint256",
                    "name": "_newA",
                    "type": "uint256"
                }
            ],
            "name": "setA",
            "outputs": [],
            "stateMutability": "nonpayable",
            "type": "function"
        },
        {
            "inputs": [
                {
                    "internalType": "address",
                    "name": "operator",
                    "type": "address"
                },
                {
                    "internalType": "bool",
                    "name": "approved",
                    "type": "bool"
                }
            ],
            "name": "setApprovalForAll",
            "outputs": [],
            "stateMutability": "nonpayable",
            "type": "function"
        },
        {
            "inputs": [
                {
                    "internalType": "uint256",
                    "name": "_id",
                    "type": "uint256"
                },
                {
                    "internalType": "bool",
                    "name": "_active",
                    "type": "bool"
                }
            ],
            "name": "setAssetStatus",
            "outputs": [],
            "stateMutability": "nonpayable",
            "type": "function"
        },
        {
            "inputs": [
                {
                    "internalType": "uint256",
                    "name": "_newLpDividendRatio",
                    "type": "uint256"
                }
            ],
            "name": "setFeeRatio",
            "outputs": [],
            "stateMutability": "nonpayable",
            "type": "function"
        },
        {
            "inputs": [
                {
                    "internalType": "address",
                    "name": "_newFeeTo",
                    "type": "address"
                }
            ],
            "name": "setFeeTo",
            "outputs": [],
            "stateMutability": "nonpayable",
            "type": "function"
        },
        {
            "inputs": [
                {
                    "internalType": "uint256",
                    "name": "_newLpFee",
                    "type": "uint256"
                }
            ],
            "name": "setLPFee",
            "outputs": [],
            "stateMutability": "nonpayable",
            "type": "function"
        },
        {
            "inputs": [
                {
                    "internalType": "uint256",
                    "name": "_newMintFeeThreshold",
                    "type": "uint256"
                }
            ],
            "name": "setMintFeeThreshold",
            "outputs": [],
            "stateMutability": "nonpayable",
            "type": "function"
        },
        {
            "inputs": [
                {
                    "internalType": "address",
                    "name": "_newVeSIS",
                    "type": "address"
                }
            ],
            "name": "setVeSISAddress",
            "outputs": [],
            "stateMutability": "nonpayable",
            "type": "function"
        },
        {
            "inputs": [
                {
                    "internalType": "uint256",
                    "name": "_id",
                    "type": "uint256"
                },
                {
                    "internalType": "uint256",
                    "name": "_amount",
                    "type": "uint256"
                }
            ],
            "name": "spreadAccumulatedError",
            "outputs": [],
            "stateMutability": "nonpayable",
            "type": "function"
        },
        {
            "inputs": [
                {
                    "internalType": "bytes4",
                    "name": "interfaceId",
                    "type": "bytes4"
                }
            ],
            "name": "supportsInterface",
            "outputs": [
                {
                    "internalType": "bool",
                    "name": "",
                    "type": "bool"
                }
            ],
            "stateMutability": "view",
            "type": "function"
        },
        {
            "inputs": [
                {
                    "internalType": "uint256",
                    "name": "_fromID",
                    "type": "uint256"
                },
                {
                    "internalType": "uint256",
                    "name": "_toID",
                    "type": "uint256"
                },
                {
                    "internalType": "uint256",
                    "name": "_fromAmount",
                    "type": "uint256"
                },
                {
                    "internalType": "uint256",
                    "name": "_minToAmount",
                    "type": "uint256"
                },
                {
                    "internalType": "address",
                    "name": "_to",
                    "type": "address"
                },
                {
                    "internalType": "uint256",
                    "name": "_deadline",
                    "type": "uint256"
                }
            ],
            "name": "swap",
            "outputs": [
                {
                    "internalType": "uint256",
                    "name": "actualToAmount",
                    "type": "uint256"
                },
                {
                    "internalType": "uint256",
                    "name": "lpFeeAmount",
                    "type": "uint256"
                }
            ],
            "stateMutability": "nonpayable",
            "type": "function"
        },
        {
            "inputs": [
                {
                    "internalType": "address",
                    "name": "newOwner",
                    "type": "address"
                }
            ],
            "name": "transferOwnership",
            "outputs": [],
            "stateMutability": "nonpayable",
            "type": "function"
        },
        {
            "inputs": [],
            "name": "unpause",
            "outputs": [],
            "stateMutability": "nonpayable",
            "type": "function"
        },
        {
            "inputs": [
                {
                    "internalType": "uint256",
                    "name": "",
                    "type": "uint256"
                }
            ],
            "name": "uri",
            "outputs": [
                {
                    "internalType": "string",
                    "name": "",
                    "type": "string"
                }
            ],
            "stateMutability": "view",
            "type": "function"
        },
        {
            "inputs": [],
            "name": "veSIS",
            "outputs": [
                {
                    "internalType": "address",
                    "name": "",
                    "type": "address"
                }
            ],
            "stateMutability": "view",
            "type": "function"
        },
        {
            "inputs": [
                {
                    "internalType": "uint256",
                    "name": "_id",
                    "type": "uint256"
                },
                {
                    "internalType": "uint256",
                    "name": "_liquidity",
                    "type": "uint256"
                },
                {
                    "internalType": "uint256",
                    "name": "_minAmount",
                    "type": "uint256"
                },
                {
                    "internalType": "address",
                    "name": "_to",
                    "type": "address"
                },
                {
                    "internalType": "uint256",
                    "name": "_deadline",
                    "type": "uint256"
                }
            ],
            "name": "withdraw",
            "outputs": [
                {
                    "internalType": "uint256",
                    "name": "amount",
                    "type": "uint256"
                },
                {
                    "internalType": "uint256",
                    "name": "fee",
                    "type": "uint256"
                }
            ],
            "stateMutability": "nonpayable",
            "type": "function"
        }
    ],
    "bytecode": "0x608060405234801561001057600080fd5b50614695806100206000396000f3fe608060405234801561001057600080fd5b50600436106102475760003560e01c80638456cb591161013b578063d043c565116100b8578063f242432a1161007c578063f242432a146105b9578063f2fde38b146105cc578063f3f6f0d7146105df578063f46901ed146105e8578063f6f70eaf146105fb57600080fd5b8063d043c56514610530578063d49e77cd14610543578063e4a3011614610557578063e985e9c51461056a578063ee919d50146105a657600080fd5b80638f6bdeaa116100ff5780638f6bdeaa146104455780639eeb6a2214610458578063a22cb465146104f6578063ce016ea114610509578063cfc399ea1461051c57600080fd5b80638456cb59146103fe5780638a2dfe09146104065780638a35ace31461040e5780638c9a4bb8146104215780638da5cb5b1461043457600080fd5b80633f4ba83a116101c95780635cfe092e1161018d5780635cfe092e146103c65780635f4b9bde146103d0578063704ce43e146103e3578063715018a6146103ec578063815bfd29146103f457600080fd5b80633f4ba83a146103585780634422a8dd146103605780634e1273f41461038857806353cb6a5e146103a85780635c975abb146103bb57600080fd5b806319f4ff2f1161021057806319f4ff2f146102ea57806324e75ca0146102ff578063265e7bde146103125780632eb2c2d61461032557806339e599451461033857600080fd5b8062fdd58e1461024c578063017e7e581461027257806301ffc9a71461029e5780630dbe671f146102c15780630e89341c146102ca575b600080fd5b61025f61025a366004613b2a565b61060e565b6040519081526020015b60405180910390f35b61010354610286906001600160a01b031681565b6040516001600160a01b039091168152602001610269565b6102b16102ac366004613c88565b6106a9565b6040519015158152602001610269565b61025f60fe5481565b6102dd6102d8366004613cc2565b6106f9565b6040516102699190613f26565b6102fd6102f8366004613cc2565b61078d565b005b6102fd61030d366004613cf4565b610802565b6102fd610320366004613d19565b61089c565b6102fd6103333660046139e4565b6109e6565b61025f610346366004613996565b60fc6020526000908152604090205481565b6102fd610a32565b61037361036e366004613d3b565b610a44565b60408051928352602083019190915201610269565b61039b610396366004613b9a565b610c5b565b6040516102699190613eee565b6102fd6103b6366004613cc2565b610d85565b60655460ff166102b1565b61025f6101015481565b6103736103de366004613d3b565b610dea565b61025f60ff5481565b6102fd611102565b61025f6101005481565b6102fd611114565b610373611124565b6102fd61041c366004613cc2565b611168565b6102fd61042f366004613d19565b611174565b6033546001600160a01b0316610286565b610373610453366004613d82565b611352565b6104b3610466366004613cc2565b60fb60205260009081526040902080546001820154600283015460038401546004909401549293919290919060ff808216916001600160a01b0361010082041691600160a81b9091041687565b60408051978852602088019690965294860193909352606085019190915260ff1660808401526001600160a01b031660a0830152151560c082015260e001610269565b6102fd610504366004613af3565b611693565b6102fd610517366004613b54565b61169e565b61010454610286906001600160a01b031681565b6102fd61053e366004613cc2565b61187d565b61010254610286906001600160a01b031681565b6102fd610565366004613d19565b6118bb565b6102b16105783660046139b1565b6001600160a01b03918216600090815260ca6020908152604080832093909416825291909152205460ff1690565b6102fd6105b4366004613cc2565b611a71565b6102fd6105c7366004613a8e565b611ad6565b6102fd6105da366004613996565b611b1b565b61025f60fd5481565b6102fd6105f6366004613996565b611b91565b6102fd610609366004613996565b611c0c565b60006001600160a01b03831661067e5760405162461bcd60e51b815260206004820152602a60248201527f455243313135353a2061646472657373207a65726f206973206e6f742061207660448201526930b634b21037bbb732b960b11b60648201526084015b60405180910390fd5b50600081815260c9602090815260408083206001600160a01b03861684529091529020545b92915050565b60006001600160e01b03198216636cdb3d1360e11b14806106da57506001600160e01b031982166303a24d0760e21b145b806106a357506301ffc9a760e01b6001600160e01b03198316146106a3565b606060cb805461070890614476565b80601f016020809104026020016040519081016040528092919081815260200182805461073490614476565b80156107815780601f1061075657610100808354040283529160200191610781565b820191906000526020600020905b81548152906001019060200180831161076457829003601f168201915b50505050509050919050565b610795611c87565b670de0b6b3a76400008111156107bd5760405162461bcd60e51b8152600401610675906140bc565b6107c5611ce1565b6101008190556040518181527f63fe946ed58429ac3c5e64d4356ff92c26d7fa1e73586515df8ba9f059ab54a5906020015b60405180910390a150565b61080a611c87565b600082815260fb602052604090206004015460ff600160a81b9091041615158115151461089857600082815260fb6020526040808220600401805460ff60a81b1916600160a81b8515159081029190911791829055915191926101009091046001600160a01b0316917f409295ac74e8693e50d9c1104ed31735b01ce0bbb0772e2fc4392180993c8a949190a35b5050565b6108a4611c87565b600082815260fb60205260408120600401546108c490839060ff16611d09565b90506108d6816001600160ff1b031190565b6109225760405162461bcd60e51b815260206004820152601760248201527f4e6577206d617820737570706c7920746f6f20686967680000000000000000006044820152606401610675565b600083815260fb60205260409020548110156109905760405162461bcd60e51b815260206004820152602760248201527f43757272656e742062616c616e6365206578636565647320676976656e206d6160448201526678537570706c7960c81b6064820152608401610675565b600083815260fb60205260408082206002810184905560040154905183926101009092046001600160a01b0316917fc5d8aa673058ca711657496eae7c88ab5e64efd2f3391dcb3ed365b93ecb184f91a3505050565b6001600160a01b038516331480610a025750610a028533610578565b610a1e5760405162461bcd60e51b815260040161067590613f70565b610a2b8585858585611d71565b5050505050565b610a3a611c87565b610a42611f51565b565b600080610a4f611fa3565b82428111610a6f5760405162461bcd60e51b8152600401610675906140e3565b846001600160a01b038116610a965760405162461bcd60e51b815260040161067590614007565b600089815260fb60205260409020610aaf338b8b611fe9565b610ab88a61216d565b6000610ac48b8b61229e565b6004850154929850965091508690610ae0908b9060ff16611d09565b10610afd5760405162461bcd60e51b815260040161067590614158565b85826000016000828254610b119190614410565b9250508190555080826001016000828254610b2c9190614410565b9250508190555089826003016000828254610b479190614410565b909155505060018201541580610b7e5750610b6b6064670de0b6b3a764000061422b565b60018301548354610b7b91612454565b10155b610bb65760405162461bcd60e51b81526020600482015260096024820152682337b93134b23232b760b91b6044820152606401610675565b6004820154610be9908990610bcf90899060ff1661248f565b600485015461010090046001600160a01b031691906124bf565b5060048101546001600160a01b038089169161010081049091169082907ffb80d861da582b723be2d19507ce3e03851820c464abea89156ec77e089b1ad990610c36908a9060ff1661248f565b60408051918252602082018f9052015b60405180910390a45050509550959350505050565b60608151835114610cc05760405162461bcd60e51b815260206004820152602960248201527f455243313135353a206163636f756e747320616e6420696473206c656e677468604482015268040dad2e6dac2e8c6d60bb1b6064820152608401610675565b6000835167ffffffffffffffff811115610cdc57610cdc614558565b604051908082528060200260200182016040528015610d05578160200160208202803683370190505b50905060005b8451811015610d7d57610d50858281518110610d2957610d29614542565b6020026020010151858381518110610d4357610d43614542565b602002602001015161060e565b828281518110610d6257610d62614542565b6020908102919091010152610d76816144de565b9050610d0b565b509392505050565b610d8d611c87565b670de0b6b3a7640000811115610db55760405162461bcd60e51b8152600401610675906140bc565b60ff8190556040518181527f0df0ce83543295289f05f3782542da3058e533082716a3b74f8913499444f3c5906020016107f7565b600080610df5611fa3565b82428111610e155760405162461bcd60e51b8152600401610675906140e3565b846001600160a01b038116610e3c5760405162461bcd60e51b815260040161067590614007565b600089815260fb6020526040902060040154600160a81b900460ff16610e745760405162461bcd60e51b815260040161067590613f39565b600089815260fb602052604090206002810154600490910154610e9b908a9060ff16611d09565b60008b815260fb6020526040902054610eb491906141e5565b1115610f025760405162461bcd60e51b815260206004820152601e60248201527f466f7262696464656e3a206d617820737570706c7920657863656564656400006044820152606401610675565b610f0b8961216d565b600089815260fb6020526040812060040154610f36908b90610f31908c9060ff16611d09565b612522565b9196509094509050848810610f5d5760405162461bcd60e51b815260040161067590614158565b60008a815260fb6020526040902060010154610f8a90610f7e9083906141e5565b6001600160ff1b031190565b610fcb5760405162461bcd60e51b8152602060048201526012602482015271098d2c2c4d2d8d2e8f240e8dede40d0d2ced60731b6044820152606401610675565b60008a815260fb6020526040902060040154610feb908a9060ff16611d09565b60008b815260fb6020526040812080549091906110099084906141e5565b909155505060008a815260fb60205260408120600101805483929061102f9084906141e5565b909155505060008a815260fb6020526040812060030180548792906110559084906141e5565b92505081905550611077878b876040518060200160405280600081525061273d565b60008a815260fb60205260409020600401546110a39061010090046001600160a01b031633308c61284a565b60008a815260fb60209081526040918290206004015482518c81529182018890526001600160a01b038a811693610100909204169133917ff5dd9317b9e63ac316ce44acc85f670b54b339cfa3e9076e1dd55065b922314b9101610c46565b61110a611c87565b610a426000612888565b61111c611c87565b610a426128da565b600080600080611132612917565b8092508193505050600061115161114c848460fe546129d0565b6129fb565b90508061115d846129fb565b945094505050509091565b6111718161216d565b50565b61117c611c87565b6000828152610105602090815260408083205460fb909252808320805460049182015492516370a0823160e01b815230928101929092529161122b9160ff82169161010090046001600160a01b0316906370a082319060240160206040518083038186803b1580156111ed57600080fd5b505afa158015611201573d6000803e3d6000fd5b505050506040513d601f19601f820116820180604052508101906112259190613cdb565b90611d09565b6112359190614410565b61123f9190614410565b9050808211156112615760405162461bcd60e51b8152600401610675906140bc565b600083815260fb60205260408120805484929061127f9084906141e5565b9091555050600083815260fb60205260409020546001600160ff1b03116112f75760405162461bcd60e51b815260206004820152602660248201527f496d706f737369626c6520746f2073707265616420616363756d756c617465646044820152651032b93937b960d11b6064820152608401610675565b600083815260fb60209081526040918290206004015491518481526101009092046001600160a01b0316917f4941e18a2bcbb0f9fa0081238f26793a8ad8c202b913ae8bf5f7e523f68ff137910160405180910390a2505050565b60008061135d611fa3565b8242811161137d5760405162461bcd60e51b8152600401610675906140e3565b846001600160a01b0381166113a45760405162461bcd60e51b815260040161067590614007565b60008a815260fb6020526040902060040154600160a81b900460ff166113dc5760405162461bcd60e51b815260040161067590613f39565b600089815260fb6020526040902060040154600160a81b900460ff166114145760405162461bcd60e51b815260040161067590613f39565b600089815260fb60205260408082206004908101548d84529190922090910154610100918290046001600160a01b03908116929091041614156114885760405162461bcd60e51b815260206004820152600c60248201526b53616d65206164647265737360a01b6044820152606401610675565b60008a815260fb6020526040902060028101546004909101546114af908a9060ff16611d09565b60008c815260fb60205260409020546114c891906141e5565b11156115165760405162461bcd60e51b815260206004820152601e60248201527f466f7262696464656e3a206d617820737570706c7920657863656564656400006044820152606401610675565b60008a815260fb6020526040902060040154611563908b908b9061153e908c9060ff16611d09565b60008d815260fb602052604090206004015461155e908c9060ff16611d09565b612a4a565b60008b815260fb6020526040902060040154919550935061158890859060ff1661248f565b60008a815260fb60205260409020600401549094506115ab90849060ff1661248f565b60008b815260fb60205260409020600401549093506115da9061010090046001600160a01b031633308b61284a565b600089815260fb60205260409020600401546116059061010090046001600160a01b031687866124bf565b60008a815260fb602090815260408083206004908101548d855293829020015481516001600160a01b0361010095869004811682529490910484169281019290925281018a9052606081018690529087169033907f54787c404bb33c88e86f4baf88183a3b0141d0a848e6a9f7a13b66ae3a9b73d19060800160405180910390a35050965096945050505050565b610898338383612bd6565b6116a6611c87565b826001600160a01b0381166116cd5760405162461bcd60e51b815260040161067590614007565b6001600160a01b03808516600081815260fc6020908152604080832054835260fb9091529020600401546101009004909116141561174d5760405162461bcd60e51b815260206004820152601c60248201527f41737365742068617320616c7265616479206265656e206164646564000000006044820152606401610675565b6040805160e0810182526000808252602082015290810161176e8585611d09565b81526000602080830182905260ff8087166040808601919091526001600160a01b03808b166060808801919091526001608097880181905260fd8054885260fb87528488208a518155968a0151918701919091559288015160028601558701516003850155948601516004909301805460a088015160c0909801511515600160a81b0260ff60a81b1998909716610100026001600160a81b031990911694909316939093179190911794909416929092179091558154919061182f836144de565b909155506001600160a01b038516600081815260fc602052604080822093909355915190917f0e3c58ebfb2e7465fbb1c32e6b4f40c3c4f5ca77e8218a386aff8617831260d791a250505050565b611885611c87565b6101018190556040518181527f71592c407ca0abb34bb7ada163a2a8b25a2e58342a3c0926df1b9ce73cb214a5906020016107f7565b600054610100900460ff16158080156118db5750600054600160ff909116105b806118f55750303b1580156118f5575060005460ff166001145b6119585760405162461bcd60e51b815260206004820152602e60248201527f496e697469616c697a61626c653a20636f6e747261637420697320616c72656160448201526d191e481a5b9a5d1a585b1a5e995960921b6064820152608401610675565b6000805460ff19166001179055801561197b576000805461ff0019166101001790555b611983612cb7565b61198b612ce6565b6119ac60405180606001604052806027815260200161463960279139612d19565b670de0b6b3a76400008311156119d45760405162461bcd60e51b8152600401610675906140bc565b670de0b6b3a76400008211156119fc5760405162461bcd60e51b8152600401610675906140bc565b60fe83905560ff829055670de0b6b3a76400006101005561010480546001600160a01b031916331790558015611a6c576000805461ff0019169055604051600181527f7f26b83ff96e1f2b6a682f133852f6798a09c465da95921460cefb38474024989060200160405180910390a15b505050565b611a79611c87565b670de0b6b3a7640000811115611aa15760405162461bcd60e51b8152600401610675906140bc565b60fe8190556040518181527f3f4ccc115548cf9126e487dcdf7c805dbb3578de78180051ace88afa59675e9c906020016107f7565b6001600160a01b038516331480611af25750611af28533610578565b611b0e5760405162461bcd60e51b815260040161067590613f70565b610a2b8585858585612d49565b611b23611c87565b6001600160a01b038116611b885760405162461bcd60e51b815260206004820152602660248201527f4f776e61626c653a206e6577206f776e657220697320746865207a65726f206160448201526564647265737360d01b6064820152608401610675565b61117181612888565b611b99611c87565b806001600160a01b038116611bc05760405162461bcd60e51b815260040161067590614007565b61010380546001600160a01b0319166001600160a01b0384169081179091556040517fd7ecd1f497e38c39a3455e0704e1bddc382baa8059756b571ff24b92cab7ff5490600090a25050565b611c14611c87565b806001600160a01b038116611c3b5760405162461bcd60e51b815260040161067590614007565b61010480546001600160a01b0319166001600160a01b0384169081179091556040517f698bdbadb3d770955212e2624318544242e40229072137a1dd6ac7edc93d847890600090a25050565b6033546001600160a01b03163314610a425760405162461bcd60e51b815260206004820181905260248201527f4f776e61626c653a2063616c6c6572206973206e6f7420746865206f776e65726044820152606401610675565b60005b60fd5481101561117157611cf78161216d565b80611d01816144de565b915050611ce4565b600060128260ff161015611d3e57611d22826012614427565b611d2d90600a614282565b611d3790846143b2565b90506106a3565b60128260ff161115611d6a57611d55601283614427565b611d6090600a614282565b611d37908461422b565b5090919050565b8151835114611dd35760405162461bcd60e51b815260206004820152602860248201527f455243313135353a2069647320616e6420616d6f756e7473206c656e677468206044820152670dad2e6dac2e8c6d60c31b6064820152608401610675565b6001600160a01b038416611df95760405162461bcd60e51b81526004016106759061402d565b3360005b8451811015611ee3576000858281518110611e1a57611e1a614542565b602002602001015190506000858381518110611e3857611e38614542565b602090810291909101810151600084815260c9835260408082206001600160a01b038e168352909352919091205490915081811015611e895760405162461bcd60e51b815260040161067590614072565b600083815260c9602090815260408083206001600160a01b038e8116855292528083208585039055908b16825281208054849290611ec89084906141e5565b9250508190555050505080611edc906144de565b9050611dfd565b50846001600160a01b0316866001600160a01b0316826001600160a01b03167f4a39dc06d4c0dbc64b70af90fd698a233a518aa5d07e595d983b8c0526c8f7fb8787604051611f33929190613f01565b60405180910390a4611f49818787878787612e77565b505050505050565b611f59612fe2565b6065805460ff191690557f5db9ee0a495bf2e6ff9c91a7834c1ba4fdd244a5e8aa4e537bd38aeae4b073aa335b6040516001600160a01b03909116815260200160405180910390a1565b60655460ff1615610a425760405162461bcd60e51b815260206004820152601060248201526f14185d5cd8589b194e881c185d5cd95960821b6044820152606401610675565b6001600160a01b03831661204b5760405162461bcd60e51b815260206004820152602360248201527f455243313135353a206275726e2066726f6d20746865207a65726f206164647260448201526265737360e81b6064820152608401610675565b3360006120578461302b565b905060006120648461302b565b604080516020808201835260009182905288825260c981528282206001600160a01b038b16835290522054909150848110156120ee5760405162461bcd60e51b8152602060048201526024808201527f455243313135353a206275726e20616d6f756e7420657863656564732062616c604482015263616e636560e01b6064820152608401610675565b600086815260c9602090815260408083206001600160a01b038b81168086529184528285208a8703905582518b81529384018a90529092908816917fc3d58168c5ae7397731d063d5bbf3d657854427343f4c083240f7aacaa2d0f62910160405180910390a46040805160208101909152600090525b50505050505050565b6000818152610105602052604090205480158061218c57506101015481105b15612195575050565b60006121b861010054670de0b6b3a76400006121b19190614410565b8390613076565b905080156122195761010454600084815260fb6020526040902060040154612219916001600160a01b0316906121f290849060ff1661248f565b600086815260fb602052604090206004015461010090046001600160a01b031691906124bf565b60006122258284614410565b905080156122895760006122398583612522565b50600087815260fb6020526040812060010180549294508493509161225f9084906141e5565b9091555050600085815260fb6020526040812080548492906122829084906141e5565b9091555050505b50505060009081526101056020526040812055565b600082815260fb602052604081206003810154600190910154829182916122c69086906143b2565b6122d0919061422b565b9150816123105760405162461bcd60e51b815260206004820152600e60248201526d5a65726f206c697175696469747960901b6044820152606401610675565b600061231b83613096565b612324906144f9565b600087815260fb60205260408120549192509061234090613096565b600088815260fb60205260408120600101549192509061235f90613096565b60fe54909150600061237185846141a4565b9050600061237f8585613100565b905060006123a16123908584613100565b61239a90846143d1565b8690613134565b9050600060026123c36123bc87670de0b6b3a76400006143d1565b8a90613134565b6123cd90846141a4565b6123d791906141fd565b9050600061240d826123f36123ec888061432d565b8990613134565b6123fd858061432d565b61240791906141a4565b90613154565b61241790836141a4565b905061242661114c828a6143d1565b9b508b8b10612440576124398c8c614410565b9950612444565b8a9b505b5050505050505050509250925092565b60008161246260028261422b565b612474670de0b6b3a7640000866143b2565b61247e91906141e5565b612488919061422b565b9392505050565b600060128260ff1610156124a857611d55826012614427565b60128260ff161115611d6a57611d22601283614427565b6040516001600160a01b038316602482015260448101829052611a6c90849063a9059cbb60e01b906064015b60408051601f198184030181529190526020810180516001600160e01b03166001600160e01b031990931692909217909152613218565b60008060008061253185613096565b600087815260fb60205260408120549192509061254d90613096565b600088815260fb60205260408120600101549192509061256c90613096565b60fe546000955090915081612583578795506126cc565b600061258f85856141a4565b12156125ad5760405162461bcd60e51b8152600401610675906140bc565b60006125b98484613100565b905060006125c785876141a4565b905060006125d58486613134565b6125e090600261432d565b6125fc6125f586670de0b6b3a76400006143d1565b8490613134565b61260691906141a4565b9050600061261e866126188782613134565b90613134565b6126288480613134565b61264a866126368a8a61432d565b61264091906141fd565b61239a908b6143d1565b61265491906143d1565b61265e91906141a4565b905060008161266e87600461432d565b612678919061432d565b612682848061432d565b61268c91906143d1565b90506126c460026126ba886126a18588613154565b6126aa886144f9565b6126b491906141a4565b90613100565b61114c91906141fd565b9a5050505050505b8786106126e4576126dd8887614410565b94506126e8565b8795505b600089815260fb6020526040902060010154801561272d5760008a815260fb6020526040902060030154819061271e90896143b2565b612728919061422b565b61272f565b865b975050505050509250925092565b6001600160a01b03841661279d5760405162461bcd60e51b815260206004820152602160248201527f455243313135353a206d696e7420746f20746865207a65726f206164647265736044820152607360f81b6064820152608401610675565b3360006127a98561302b565b905060006127b68561302b565b9050600086815260c9602090815260408083206001600160a01b038b168452909152812080548792906127ea9084906141e5565b909155505060408051878152602081018790526001600160a01b03808a1692600092918716917fc3d58168c5ae7397731d063d5bbf3d657854427343f4c083240f7aacaa2d0f62910160405180910390a4612164836000898989896132ea565b6040516001600160a01b03808516602483015283166044820152606481018290526128829085906323b872dd60e01b906084016124eb565b50505050565b603380546001600160a01b038381166001600160a01b0319831681179093556040519116919082907f8be0079c531659141344cd1fd0a4f28419497f9722a3daafe3b4186f6b6457e090600090a35050565b6128e2611fa3565b6065805460ff191660011790557f62e78cea01bee320cd4e420270b5ea74000d11b0c9f74754ebdbfc544b05a258611f863390565b60fe546000908190815b60fd548110156129ca57600081815260fb602052604081205461294390613096565b600083815260fb60205260408120600101549192509061296290613096565b9050806129705750506129b8565b600061297c8383613100565b905061298882876141a4565b95506129a86129978683613100565b6129a190836143d1565b8390613134565b6129b290886141a4565b96505050505b806129c2816144de565b915050612921565b50509091565b6000806129dd8585613100565b6129e6906144f9565b90506129f281846133b4565b95945050505050565b600080821215612a465760405162461bcd60e51b815260206004820152601660248201527576616c7565206d75737420626520706f73697469766560501b6044820152606401610675565b5090565b600084815260fb60205260408120548190612a6990610f7e90866141e5565b612ab55760405162461bcd60e51b815260206004820152601760248201527f496e697469616c20616d6f756e7420746f6f20686967680000000000000000006044820152606401610675565b612ac88686612ac387613096565b6133ef565b9092509050818310612aec5760405162461bcd60e51b815260040161067590614158565b6000858152610105602052604081208054839290612b0b9084906141e5565b9091555050600086815260fb602052604081208054869290612b2e9084906141e5565b90915550612b3e905081836141e5565b600086815260fb602052604081208054909190612b5c908490614410565b90915550612b7590506064670de0b6b3a764000061422b565b600086815260fb6020526040902060018101549054612b9391612454565b1015612bcd5760405162461bcd60e51b81526020600482015260096024820152682337b93134b23232b760b91b6044820152606401610675565b94509492505050565b816001600160a01b0316836001600160a01b03161415612c4a5760405162461bcd60e51b815260206004820152602960248201527f455243313135353a2073657474696e6720617070726f76616c20737461747573604482015268103337b91039b2b63360b91b6064820152608401610675565b6001600160a01b03838116600081815260ca6020908152604080832094871680845294825291829020805460ff191686151590811790915591519182527f17307eab39ab6107e8899845ad3d59bd9653f200f220920489ca2b5937696c31910160405180910390a3505050565b600054610100900460ff16612cde5760405162461bcd60e51b81526004016106759061410d565b610a4261360b565b600054610100900460ff16612d0d5760405162461bcd60e51b81526004016106759061410d565b6065805460ff19169055565b600054610100900460ff16612d405760405162461bcd60e51b81526004016106759061410d565b6111718161363b565b6001600160a01b038416612d6f5760405162461bcd60e51b81526004016106759061402d565b336000612d7b8561302b565b90506000612d888561302b565b9050600086815260c9602090815260408083206001600160a01b038c16845290915290205485811015612dcd5760405162461bcd60e51b815260040161067590614072565b600087815260c9602090815260408083206001600160a01b038d8116855292528083208985039055908a16825281208054889290612e0c9084906141e5565b909155505060408051888152602081018890526001600160a01b03808b16928c821692918816917fc3d58168c5ae7397731d063d5bbf3d657854427343f4c083240f7aacaa2d0f62910160405180910390a4612e6c848a8a8a8a8a6132ea565b505050505050505050565b6001600160a01b0384163b15611f495760405163bc197c8160e01b81526001600160a01b0385169063bc197c8190612ebb9089908990889088908890600401613e56565b602060405180830381600087803b158015612ed557600080fd5b505af1925050508015612f05575060408051601f3d908101601f19168201909252612f0291810190613ca5565b60015b612fb257612f1161456e565b806308c379a01415612f4b5750612f2661458a565b80612f315750612f4d565b8060405162461bcd60e51b81526004016106759190613f26565b505b60405162461bcd60e51b815260206004820152603460248201527f455243313135353a207472616e7366657220746f206e6f6e20455243313135356044820152732932b1b2b4bb32b91034b6b83632b6b2b73a32b960611b6064820152608401610675565b6001600160e01b0319811663bc197c8160e01b146121645760405162461bcd60e51b815260040161067590613fbf565b60655460ff16610a425760405162461bcd60e51b815260206004820152601460248201527314185d5cd8589b194e881b9bdd081c185d5cd95960621b6044820152606401610675565b6040805160018082528183019092526060916000919060208083019080368337019050509050828160008151811061306557613065614542565b602090810291909101015292915050565b6000670de0b6b3a764000061308c60028261422b565b61247484866143b2565b60006001600160ff1b03821115612a465760405162461bcd60e51b815260206004820152602860248201527f53616665436173743a2076616c756520646f65736e27742066697420696e2061604482015267371034b73a191a9b60c11b6064820152608401610675565b60008161310e6002826141fd565b613120670de0b6b3a76400008661432d565b61312a91906141a4565b61248891906141fd565b6000670de0b6b3a764000061314a6002826141fd565b613120848661432d565b600060038313156132095760008213801561316f5750828213155b1561317b5750806131ab565b600082128015613193575082613190836144f9565b13155b156131a8576131a1826144f9565b90506131ab565b50815b60006002826131ba81876141fd565b6131c491906141a4565b6131ce91906141fd565b90505b818114613203579050806002816131e881876141fd565b6131f291906141a4565b6131fc91906141fd565b90506131d1565b506106a3565b82156106a35750600192915050565b600061326d826040518060400160405280602081526020017f5361666545524332303a206c6f772d6c6576656c2063616c6c206661696c6564815250856001600160a01b031661366b9092919063ffffffff16565b805190915015611a6c578080602001905181019061328b9190613c6b565b611a6c5760405162461bcd60e51b815260206004820152602a60248201527f5361666545524332303a204552433230206f7065726174696f6e20646964206e6044820152691bdd081cdd58d8d9595960b21b6064820152608401610675565b6001600160a01b0384163b15611f495760405163f23a6e6160e01b81526001600160a01b0385169063f23a6e619061332e9089908990889088908890600401613eb4565b602060405180830381600087803b15801561334857600080fd5b505af1925050508015613378575060408051601f3d908101601f1916820190925261337591810190613ca5565b60015b61338457612f1161456e565b6001600160e01b0319811663f23a6e6160e01b146121645760405162461bcd60e51b815260040161067590613fbf565b60006002836133e581670de0b6b3a76400006133d187600461432d565b6133db919061432d565b6123fd888061432d565b61312a91906143d1565b600082815260fb6020526040812054819081908161340c82613096565b600089815260fb60205260408120549192509061342890613096565b60008a815260fb60205260408120600101549192509061344790613096565b60008a815260fb60205260408120600101549192509061346690613096565b60fe54909150811580159061347a57508215155b6134965760405162461bcd60e51b8152600401610675906140bc565b60006134cf866134a6858061432d565b6134b091906141fd565b866134bb878061432d565b6134c591906141fd565b6129a191906141a4565b6134d987876141a4565b6134e391906143d1565b905060006134f5856126b48e896141a4565b905060006135038386613100565b8561350e8685613100565b61351890856143d1565b613522908961432d565b61352c91906141fd565b61353691906143d1565b9050600061354482866133b4565b90506000896135538884613134565b61355d91906143d1565b9050600081121561357b5761357461114c826144f9565b9b50613587565b613584816129fb565b9b505b8b8b10156135c95760405162461bcd60e51b815260206004820152600f60248201526e09cdee840cadcdeeaced040c6c2e6d608b1b6044820152606401610675565b60ff546135d7908d90613076565b9c5060008f13156135f3576135ec8d8d614410565b9d506135f7565b8b9d505b505050505050505050505050935093915050565b600054610100900460ff166136325760405162461bcd60e51b81526004016106759061410d565b610a4233612888565b600054610100900460ff166136625760405162461bcd60e51b81526004016106759061410d565b61117181613682565b606061367a8484600085613695565b949350505050565b80516108989060cb9060208401906137ff565b6060824710156136f65760405162461bcd60e51b815260206004820152602660248201527f416464726573733a20696e73756666696369656e742062616c616e636520666f6044820152651c8818d85b1b60d21b6064820152608401610675565b6001600160a01b0385163b61374d5760405162461bcd60e51b815260206004820152601d60248201527f416464726573733a2063616c6c20746f206e6f6e2d636f6e74726163740000006044820152606401610675565b600080866001600160a01b031685876040516137699190613e3a565b60006040518083038185875af1925050503d80600081146137a6576040519150601f19603f3d011682016040523d82523d6000602084013e6137ab565b606091505b50915091506137bb8282866137c6565b979650505050505050565b606083156137d5575081612488565b8251156137e55782518084602001fd5b8160405162461bcd60e51b81526004016106759190613f26565b82805461380b90614476565b90600052602060002090601f01602090048101928261382d5760008555613873565b82601f1061384657805160ff1916838001178555613873565b82800160010185558215613873579182015b82811115613873578251825591602001919060010190613858565b50612a469291505b80821115612a46576000815560010161387b565b80356001600160a01b03811681146138a657600080fd5b919050565b600082601f8301126138bc57600080fd5b813560206138c982614180565b6040516138d682826144b1565b8381528281019150858301600585901b870184018810156138f657600080fd5b60005b85811015613915578135845292840192908401906001016138f9565b5090979650505050505050565b600082601f83011261393357600080fd5b813567ffffffffffffffff81111561394d5761394d614558565b604051613964601f8301601f1916602001826144b1565b81815284602083860101111561397957600080fd5b816020850160208301376000918101602001919091529392505050565b6000602082840312156139a857600080fd5b6124888261388f565b600080604083850312156139c457600080fd5b6139cd8361388f565b91506139db6020840161388f565b90509250929050565b600080600080600060a086880312156139fc57600080fd5b613a058661388f565b9450613a136020870161388f565b9350604086013567ffffffffffffffff80821115613a3057600080fd5b613a3c89838a016138ab565b94506060880135915080821115613a5257600080fd5b613a5e89838a016138ab565b93506080880135915080821115613a7457600080fd5b50613a8188828901613922565b9150509295509295909350565b600080600080600060a08688031215613aa657600080fd5b613aaf8661388f565b9450613abd6020870161388f565b93506040860135925060608601359150608086013567ffffffffffffffff811115613ae757600080fd5b613a8188828901613922565b60008060408385031215613b0657600080fd5b613b0f8361388f565b91506020830135613b1f81614614565b809150509250929050565b60008060408385031215613b3d57600080fd5b613b468361388f565b946020939093013593505050565b600080600060608486031215613b6957600080fd5b613b728461388f565b925060208401359150604084013560ff81168114613b8f57600080fd5b809150509250925092565b60008060408385031215613bad57600080fd5b823567ffffffffffffffff80821115613bc557600080fd5b818501915085601f830112613bd957600080fd5b81356020613be682614180565b604051613bf382826144b1565b8381528281019150858301600585901b870184018b1015613c1357600080fd5b600096505b84871015613c3d57613c298161388f565b835260019690960195918301918301613c18565b5096505086013592505080821115613c5457600080fd5b50613c61858286016138ab565b9150509250929050565b600060208284031215613c7d57600080fd5b815161248881614614565b600060208284031215613c9a57600080fd5b813561248881614622565b600060208284031215613cb757600080fd5b815161248881614622565b600060208284031215613cd457600080fd5b5035919050565b600060208284031215613ced57600080fd5b5051919050565b60008060408385031215613d0757600080fd5b823591506020830135613b1f81614614565b60008060408385031215613d2c57600080fd5b50508035926020909101359150565b600080600080600060a08688031215613d5357600080fd5b853594506020860135935060408601359250613d716060870161388f565b949793965091946080013592915050565b60008060008060008060c08789031215613d9b57600080fd5b86359550602087013594506040870135935060608701359250613dc06080880161388f565b915060a087013590509295509295509295565b600081518084526020808501945080840160005b83811015613e0357815187529582019590820190600101613de7565b509495945050505050565b60008151808452613e2681602086016020860161444a565b601f01601f19169290920160200192915050565b60008251613e4c81846020870161444a565b9190910192915050565b6001600160a01b0386811682528516602082015260a060408201819052600090613e8290830186613dd3565b8281036060840152613e948186613dd3565b90508281036080840152613ea88185613e0e565b98975050505050505050565b6001600160a01b03868116825285166020820152604081018490526060810183905260a0608082018190526000906137bb90830184613e0e565b6020815260006124886020830184613dd3565b604081526000613f146040830185613dd3565b82810360208401526129f28185613dd3565b6020815260006124886020830184613e0e565b6020808252601e908201527f417373657420776173206465616374697661746564206279206f776e65720000604082015260600190565b6020808252602f908201527f455243313135353a2063616c6c6572206973206e6f7420746f6b656e206f776e60408201526e195c881b9bdc88185c1c1c9bdd9959608a1b606082015260800190565b60208082526028908201527f455243313135353a204552433131353552656365697665722072656a656374656040820152676420746f6b656e7360c01b606082015260800190565b6020808252600c908201526b5a65726f206164647265737360a01b604082015260600190565b60208082526025908201527f455243313135353a207472616e7366657220746f20746865207a65726f206164604082015264647265737360d81b606082015260800190565b6020808252602a908201527f455243313135353a20696e73756666696369656e742062616c616e636520666f60408201526939103a3930b739b332b960b11b606082015260800190565b6020808252600d908201526c496e76616c69642076616c756560981b604082015260600190565b60208082526010908201526f111958591b1a5b99481b9bdd081b595d60821b604082015260600190565b6020808252602b908201527f496e697469616c697a61626c653a20636f6e7472616374206973206e6f74206960408201526a6e697469616c697a696e6760a81b606082015260800190565b6020808252600e908201526d416d6f756e7420746f6f206c6f7760901b604082015260600190565b600067ffffffffffffffff82111561419a5761419a614558565b5060051b60200190565b600080821280156001600160ff1b03849003851316156141c6576141c6614516565b600160ff1b83900384128116156141df576141df614516565b50500190565b600082198211156141f8576141f8614516565b500190565b60008261420c5761420c61452c565b600160ff1b82146000198414161561422657614226614516565b500590565b60008261423a5761423a61452c565b500490565b600181815b8085111561427a57816000190482111561426057614260614516565b8085161561426d57918102915b93841c9390800290614244565b509250929050565b600061248860ff84168360008261429b575060016106a3565b816142a8575060006106a3565b81600181146142be57600281146142c8576142e4565b60019150506106a3565b60ff8411156142d9576142d9614516565b50506001821b6106a3565b5060208310610133831016604e8410600b8410161715614307575081810a6106a3565b614311838361423f565b806000190482111561432557614325614516565b029392505050565b60006001600160ff1b038184138284138082168684048611161561435357614353614516565b600160ff1b600087128281168783058912161561437257614372614516565b6000871292508782058712848416161561438e5761438e614516565b878505871281841616156143a4576143a4614516565b505050929093029392505050565b60008160001904831182151516156143cc576143cc614516565b500290565b60008083128015600160ff1b8501841216156143ef576143ef614516565b6001600160ff1b038401831381161561440a5761440a614516565b50500390565b60008282101561442257614422614516565b500390565b600060ff821660ff84168082101561444157614441614516565b90039392505050565b60005b8381101561446557818101518382015260200161444d565b838111156128825750506000910152565b600181811c9082168061448a57607f821691505b602082108114156144ab57634e487b7160e01b600052602260045260246000fd5b50919050565b601f8201601f1916810167ffffffffffffffff811182821017156144d7576144d7614558565b6040525050565b60006000198214156144f2576144f2614516565b5060010190565b6000600160ff1b82141561450f5761450f614516565b5060000390565b634e487b7160e01b600052601160045260246000fd5b634e487b7160e01b600052601260045260246000fd5b634e487b7160e01b600052603260045260246000fd5b634e487b7160e01b600052604160045260246000fd5b600060033d11156145875760046000803e5060005160e01c5b90565b600060443d10156145985790565b6040516003193d81016004833e81513d67ffffffffffffffff81602484011181841117156145c857505050505090565b82850191508151818111156145e05750505050505090565b843d87010160208285010111156145fa5750505050505090565b614609602082860101876144b1565b509095945050505050565b801515811461117157600080fd5b6001600160e01b03198116811461117157600080fdfe68747470733a2f2f6f63746f6e6674732e73796d62696f7369732e66696e616e63652f7b69647da264697066735822122024564eb74644f14216c8d97a92ce81d620b3e57c547e0af319e32b20a8c7c9fd64736f6c63430008050033",
    "linkReferences": {},
    "deployedLinkReferences": {}
}