{
    "_format": "hh-sol-artifact-1",
    "contractName": "Pool",
    "sourceName": "contracts/pool/Pool.sol",
    "abi": [
        {
            "anonymous": false,
            "inputs": [
                {
                    "indexed": true,
                    "internalType": "address",
                    "name": "account",
                    "type": "address"
                },
                {
                    "indexed": true,
                    "internalType": "address",
                    "name": "operator",
                    "type": "address"
                },
                {
                    "indexed": false,
                    "internalType": "bool",
                    "name": "approved",
                    "type": "bool"
                }
            ],
            "name": "ApprovalForAll",
            "type": "event"
        },
        {
            "anonymous": false,
            "inputs": [
                {
                    "indexed": true,
                    "internalType": "address",
                    "name": "token",
                    "type": "address"
                },
                {
                    "indexed": true,
                    "internalType": "address",
                    "name": "asset",
                    "type": "address"
                }
            ],
            "name": "AssetAdded",
            "type": "event"
        },
        {
            "anonymous": false,
            "inputs": [
                {
                    "indexed": true,
                    "internalType": "address",
                    "name": "token",
                    "type": "address"
                },
                {
                    "indexed": true,
                    "internalType": "address",
                    "name": "asset",
                    "type": "address"
                }
            ],
            "name": "AssetRemoved",
            "type": "event"
        },
        {
            "anonymous": false,
            "inputs": [
                {
                    "indexed": false,
                    "internalType": "address",
                    "name": "sender",
                    "type": "address"
                },
                {
                    "indexed": true,
                    "internalType": "address",
                    "name": "token",
                    "type": "address"
                },
                {
                    "indexed": false,
                    "internalType": "uint256",
                    "name": "amount",
                    "type": "uint256"
                },
                {
                    "indexed": false,
                    "internalType": "uint256",
                    "name": "liquidity",
                    "type": "uint256"
                },
                {
                    "indexed": true,
                    "internalType": "address",
                    "name": "to",
                    "type": "address"
                }
            ],
            "name": "Deposit",
            "type": "event"
        },
        {
            "anonymous": false,
            "inputs": [
                {
                    "indexed": false,
                    "internalType": "address",
                    "name": "token",
                    "type": "address"
                },
                {
                    "indexed": false,
                    "internalType": "uint256",
                    "name": "amount",
                    "type": "uint256"
                }
            ],
            "name": "FillPool",
            "type": "event"
        },
        {
            "anonymous": false,
            "inputs": [
                {
                    "indexed": false,
                    "internalType": "uint8",
                    "name": "version",
                    "type": "uint8"
                }
            ],
            "name": "Initialized",
            "type": "event"
        },
        {
            "anonymous": false,
            "inputs": [
                {
                    "indexed": false,
                    "internalType": "uint256",
                    "name": "value",
                    "type": "uint256"
                }
            ],
            "name": "NewA",
            "type": "event"
        },
        {
            "anonymous": false,
            "inputs": [
                {
                    "indexed": false,
                    "internalType": "address",
                    "name": "addr",
                    "type": "address"
                }
            ],
            "name": "NewDev",
            "type": "event"
        },
        {
            "anonymous": false,
            "inputs": [
                {
                    "indexed": false,
                    "internalType": "uint256",
                    "name": "lpDividendRatio",
                    "type": "uint256"
                }
            ],
            "name": "NewFee",
            "type": "event"
        },
        {
            "anonymous": false,
            "inputs": [
                {
                    "indexed": false,
                    "internalType": "address",
                    "name": "addr",
                    "type": "address"
                }
            ],
            "name": "NewFeeTo",
            "type": "event"
        },
        {
            "anonymous": false,
            "inputs": [
                {
                    "indexed": false,
                    "internalType": "uint256",
                    "name": "value",
                    "type": "uint256"
                }
            ],
            "name": "NewLPFee",
            "type": "event"
        },
        {
            "anonymous": false,
            "inputs": [
                {
                    "indexed": false,
                    "internalType": "uint256",
                    "name": "value",
                    "type": "uint256"
                }
            ],
            "name": "NewMintFeeThreshold",
            "type": "event"
        },
        {
            "anonymous": false,
            "inputs": [
                {
                    "indexed": true,
                    "internalType": "address",
                    "name": "previousOwner",
                    "type": "address"
                },
                {
                    "indexed": true,
                    "internalType": "address",
                    "name": "newOwner",
                    "type": "address"
                }
            ],
            "name": "OwnershipTransferred",
            "type": "event"
        },
        {
            "anonymous": false,
            "inputs": [
                {
                    "indexed": false,
                    "internalType": "address",
                    "name": "account",
                    "type": "address"
                }
            ],
            "name": "Paused",
            "type": "event"
        },
        {
            "anonymous": false,
            "inputs": [
                {
                    "indexed": true,
                    "internalType": "address",
                    "name": "sender",
                    "type": "address"
                },
                {
                    "indexed": false,
                    "internalType": "address",
                    "name": "fromToken",
                    "type": "address"
                },
                {
                    "indexed": false,
                    "internalType": "address",
                    "name": "toToken",
                    "type": "address"
                },
                {
                    "indexed": false,
                    "internalType": "uint256",
                    "name": "fromAmount",
                    "type": "uint256"
                },
                {
                    "indexed": false,
                    "internalType": "uint256",
                    "name": "toAmount",
                    "type": "uint256"
                },
                {
                    "indexed": true,
                    "internalType": "address",
                    "name": "to",
                    "type": "address"
                }
            ],
            "name": "Swap",
            "type": "event"
        },
        {
            "anonymous": false,
            "inputs": [
                {
                    "indexed": true,
                    "internalType": "address",
                    "name": "operator",
                    "type": "address"
                },
                {
                    "indexed": true,
                    "internalType": "address",
                    "name": "from",
                    "type": "address"
                },
                {
                    "indexed": true,
                    "internalType": "address",
                    "name": "to",
                    "type": "address"
                },
                {
                    "indexed": false,
                    "internalType": "uint256[]",
                    "name": "ids",
                    "type": "uint256[]"
                },
                {
                    "indexed": false,
                    "internalType": "uint256[]",
                    "name": "values",
                    "type": "uint256[]"
                }
            ],
            "name": "TransferBatch",
            "type": "event"
        },
        {
            "anonymous": false,
            "inputs": [
                {
                    "indexed": true,
                    "internalType": "address",
                    "name": "operator",
                    "type": "address"
                },
                {
                    "indexed": true,
                    "internalType": "address",
                    "name": "from",
                    "type": "address"
                },
                {
                    "indexed": true,
                    "internalType": "address",
                    "name": "to",
                    "type": "address"
                },
                {
                    "indexed": false,
                    "internalType": "uint256",
                    "name": "id",
                    "type": "uint256"
                },
                {
                    "indexed": false,
                    "internalType": "uint256",
                    "name": "value",
                    "type": "uint256"
                }
            ],
            "name": "TransferSingle",
            "type": "event"
        },
        {
            "anonymous": false,
            "inputs": [
                {
                    "indexed": false,
                    "internalType": "address",
                    "name": "token",
                    "type": "address"
                },
                {
                    "indexed": false,
                    "internalType": "uint256",
                    "name": "amount",
                    "type": "uint256"
                },
                {
                    "indexed": false,
                    "internalType": "address",
                    "name": "to",
                    "type": "address"
                }
            ],
            "name": "TransferTipBucket",
            "type": "event"
        },
        {
            "anonymous": false,
            "inputs": [
                {
                    "indexed": false,
                    "internalType": "string",
                    "name": "value",
                    "type": "string"
                },
                {
                    "indexed": true,
                    "internalType": "uint256",
                    "name": "id",
                    "type": "uint256"
                }
            ],
            "name": "URI",
            "type": "event"
        },
        {
            "anonymous": false,
            "inputs": [
                {
                    "indexed": false,
                    "internalType": "address",
                    "name": "account",
                    "type": "address"
                }
            ],
            "name": "Unpaused",
            "type": "event"
        },
        {
            "anonymous": false,
            "inputs": [
                {
                    "indexed": true,
                    "internalType": "address",
                    "name": "sender",
                    "type": "address"
                },
                {
                    "indexed": false,
                    "internalType": "address",
                    "name": "token",
                    "type": "address"
                },
                {
                    "indexed": false,
                    "internalType": "uint256",
                    "name": "amount",
                    "type": "uint256"
                },
                {
                    "indexed": false,
                    "internalType": "uint256",
                    "name": "liquidity",
                    "type": "uint256"
                },
                {
                    "indexed": true,
                    "internalType": "address",
                    "name": "to",
                    "type": "address"
                }
            ],
            "name": "Withdraw",
            "type": "event"
        },
        {
            "inputs": [],
            "name": "a",
            "outputs": [
                {
                    "internalType": "uint256",
                    "name": "",
                    "type": "uint256"
                }
            ],
            "stateMutability": "view",
            "type": "function"
        },
        {
            "inputs": [
                {
                    "internalType": "address",
                    "name": "_token",
                    "type": "address"
                },
                {
                    "internalType": "uint256",
                    "name": "_maxSupply",
                    "type": "uint256"
                },
                {
                    "internalType": "uint8",
                    "name": "_decimals",
                    "type": "uint8"
                }
            ],
            "name": "addAssetOcto",
            "outputs": [],
            "stateMutability": "nonpayable",
            "type": "function"
        },
        {
            "inputs": [
                {
                    "internalType": "address",
                    "name": "",
                    "type": "address"
                }
            ],
            "name": "assetToIndex",
            "outputs": [
                {
                    "internalType": "uint256",
                    "name": "",
                    "type": "uint256"
                }
            ],
            "stateMutability": "view",
            "type": "function"
        },
        {
            "inputs": [
                {
                    "internalType": "address",
                    "name": "account",
                    "type": "address"
                },
                {
                    "internalType": "uint256",
                    "name": "id",
                    "type": "uint256"
                }
            ],
            "name": "balanceOf",
            "outputs": [
                {
                    "internalType": "uint256",
                    "name": "",
                    "type": "uint256"
                }
            ],
            "stateMutability": "view",
            "type": "function"
        },
        {
            "inputs": [
                {
                    "internalType": "address[]",
                    "name": "accounts",
                    "type": "address[]"
                },
                {
                    "internalType": "uint256[]",
                    "name": "ids",
                    "type": "uint256[]"
                }
            ],
            "name": "balanceOfBatch",
            "outputs": [
                {
                    "internalType": "uint256[]",
                    "name": "",
                    "type": "uint256[]"
                }
            ],
            "stateMutability": "view",
            "type": "function"
        },
        {
            "inputs": [
                {
                    "internalType": "uint256",
                    "name": "_tokenID",
                    "type": "uint256"
                },
                {
                    "internalType": "uint256",
                    "name": "_newMaxSupply",
                    "type": "uint256"
                }
            ],
            "name": "changeMaxSupply",
            "outputs": [],
            "stateMutability": "nonpayable",
            "type": "function"
        },
        {
            "inputs": [
                {
                    "internalType": "uint256",
                    "name": "_id",
                    "type": "uint256"
                },
                {
                    "internalType": "uint256",
                    "name": "_amount",
                    "type": "uint256"
                },
                {
                    "internalType": "uint256",
                    "name": "_minimumLiquidity",
                    "type": "uint256"
                },
                {
                    "internalType": "address",
                    "name": "_to",
                    "type": "address"
                },
                {
                    "internalType": "uint256",
                    "name": "_deadline",
                    "type": "uint256"
                }
            ],
            "name": "deposit",
            "outputs": [
                {
                    "internalType": "uint256",
                    "name": "liquidity",
                    "type": "uint256"
                },
                {
                    "internalType": "uint256",
                    "name": "fee",
                    "type": "uint256"
                }
            ],
            "stateMutability": "nonpayable",
            "type": "function"
        },
        {
            "inputs": [],
            "name": "devaddr",
            "outputs": [
                {
                    "internalType": "address",
                    "name": "",
                    "type": "address"
                }
            ],
            "stateMutability": "view",
            "type": "function"
        },
        {
            "inputs": [],
            "name": "feeTo",
            "outputs": [
                {
                    "internalType": "address",
                    "name": "",
                    "type": "address"
                }
            ],
            "stateMutability": "view",
            "type": "function"
        },
        {
            "inputs": [],
            "name": "globalEquilCovRatio",
            "outputs": [
                {
                    "internalType": "uint256",
                    "name": "equilCovRatio",
                    "type": "uint256"
                },
                {
                    "internalType": "uint256",
                    "name": "invariant",
                    "type": "uint256"
                }
            ],
            "stateMutability": "view",
            "type": "function"
        },
        {
            "inputs": [
                {
                    "internalType": "uint256",
                    "name": "",
                    "type": "uint256"
                }
            ],
            "name": "indexToAsset",
            "outputs": [
                {
                    "internalType": "uint256",
                    "name": "cash",
                    "type": "uint256"
                },
                {
                    "internalType": "uint256",
                    "name": "liability",
                    "type": "uint256"
                },
                {
                    "internalType": "uint256",
                    "name": "maxSupply",
                    "type": "uint256"
                },
                {
                    "internalType": "uint256",
                    "name": "totalSupply",
                    "type": "uint256"
                },
                {
                    "internalType": "uint8",
                    "name": "decimals",
                    "type": "uint8"
                },
                {
                    "internalType": "address",
                    "name": "token",
                    "type": "address"
                },
                {
                    "internalType": "bool",
                    "name": "active",
                    "type": "bool"
                }
            ],
            "stateMutability": "view",
            "type": "function"
        },
        {
            "inputs": [
                {
                    "internalType": "uint256",
                    "name": "_a",
                    "type": "uint256"
                },
                {
                    "internalType": "uint256",
                    "name": "_lpFee",
                    "type": "uint256"
                }
            ],
            "name": "initialize",
            "outputs": [],
            "stateMutability": "nonpayable",
            "type": "function"
        },
        {
            "inputs": [
                {
                    "internalType": "address",
                    "name": "account",
                    "type": "address"
                },
                {
                    "internalType": "address",
                    "name": "operator",
                    "type": "address"
                }
            ],
            "name": "isApprovedForAll",
            "outputs": [
                {
                    "internalType": "bool",
                    "name": "",
                    "type": "bool"
                }
            ],
            "stateMutability": "view",
            "type": "function"
        },
        {
            "inputs": [],
            "name": "lastIndex",
            "outputs": [
                {
                    "internalType": "uint256",
                    "name": "",
                    "type": "uint256"
                }
            ],
            "stateMutability": "view",
            "type": "function"
        },
        {
            "inputs": [],
            "name": "lpDividendRatio",
            "outputs": [
                {
                    "internalType": "uint256",
                    "name": "",
                    "type": "uint256"
                }
            ],
            "stateMutability": "view",
            "type": "function"
        },
        {
            "inputs": [],
            "name": "lpFee",
            "outputs": [
                {
                    "internalType": "uint256",
                    "name": "",
                    "type": "uint256"
                }
            ],
            "stateMutability": "view",
            "type": "function"
        },
        {
            "inputs": [
                {
                    "internalType": "uint256",
                    "name": "_id",
                    "type": "uint256"
                }
            ],
            "name": "mintFee",
            "outputs": [],
            "stateMutability": "nonpayable",
            "type": "function"
        },
        {
            "inputs": [],
            "name": "mintFeeThreshold",
            "outputs": [
                {
                    "internalType": "uint256",
                    "name": "",
                    "type": "uint256"
                }
            ],
            "stateMutability": "view",
            "type": "function"
        },
        {
            "inputs": [],
            "name": "owner",
            "outputs": [
                {
                    "internalType": "address",
                    "name": "",
                    "type": "address"
                }
            ],
            "stateMutability": "view",
            "type": "function"
        },
        {
            "inputs": [],
            "name": "pause",
            "outputs": [],
            "stateMutability": "nonpayable",
            "type": "function"
        },
        {
            "inputs": [],
            "name": "paused",
            "outputs": [
                {
                    "internalType": "bool",
                    "name": "",
                    "type": "bool"
                }
            ],
            "stateMutability": "view",
            "type": "function"
        },
        {
            "inputs": [
                {
                    "internalType": "uint256",
                    "name": "_index",
                    "type": "uint256"
                }
            ],
            "name": "removeAsset",
            "outputs": [],
            "stateMutability": "nonpayable",
            "type": "function"
        },
        {
            "inputs": [],
            "name": "renounceOwnership",
            "outputs": [],
            "stateMutability": "nonpayable",
            "type": "function"
        },
        {
            "inputs": [
                {
                    "internalType": "address",
                    "name": "from",
                    "type": "address"
                },
                {
                    "internalType": "address",
                    "name": "to",
                    "type": "address"
                },
                {
                    "internalType": "uint256[]",
                    "name": "ids",
                    "type": "uint256[]"
                },
                {
                    "internalType": "uint256[]",
                    "name": "amounts",
                    "type": "uint256[]"
                },
                {
                    "internalType": "bytes",
                    "name": "data",
                    "type": "bytes"
                }
            ],
            "name": "safeBatchTransferFrom",
            "outputs": [],
            "stateMutability": "nonpayable",
            "type": "function"
        },
        {
            "inputs": [
                {
                    "internalType": "address",
                    "name": "from",
                    "type": "address"
                },
                {
                    "internalType": "address",
                    "name": "to",
                    "type": "address"
                },
                {
                    "internalType": "uint256",
                    "name": "id",
                    "type": "uint256"
                },
                {
                    "internalType": "uint256",
                    "name": "amount",
                    "type": "uint256"
                },
                {
                    "internalType": "bytes",
                    "name": "data",
                    "type": "bytes"
                }
            ],
            "name": "safeTransferFrom",
            "outputs": [],
            "stateMutability": "nonpayable",
            "type": "function"
        },
        {
            "inputs": [
                {
                    "internalType": "uint256",
                    "name": "_newA",
                    "type": "uint256"
                }
            ],
            "name": "setA",
            "outputs": [],
            "stateMutability": "nonpayable",
            "type": "function"
        },
        {
            "inputs": [
                {
                    "internalType": "address",
                    "name": "operator",
                    "type": "address"
                },
                {
                    "internalType": "bool",
                    "name": "approved",
                    "type": "bool"
                }
            ],
            "name": "setApprovalForAll",
            "outputs": [],
            "stateMutability": "nonpayable",
            "type": "function"
        },
        {
            "inputs": [
                {
                    "internalType": "address",
                    "name": "_newDev",
                    "type": "address"
                }
            ],
            "name": "setDev",
            "outputs": [],
            "stateMutability": "nonpayable",
            "type": "function"
        },
        {
            "inputs": [
                {
                    "internalType": "uint256",
                    "name": "_newLpDividendRatio",
                    "type": "uint256"
                }
            ],
            "name": "setFeeRatio",
            "outputs": [],
            "stateMutability": "nonpayable",
            "type": "function"
        },
        {
            "inputs": [
                {
                    "internalType": "address",
                    "name": "_newFeeTo",
                    "type": "address"
                }
            ],
            "name": "setFeeTo",
            "outputs": [],
            "stateMutability": "nonpayable",
            "type": "function"
        },
        {
            "inputs": [
                {
                    "internalType": "uint256",
                    "name": "_newLpFee",
                    "type": "uint256"
                }
            ],
            "name": "setLPFee",
            "outputs": [],
            "stateMutability": "nonpayable",
            "type": "function"
        },
        {
            "inputs": [
                {
                    "internalType": "uint256",
                    "name": "_newMintFeeThreshold",
                    "type": "uint256"
                }
            ],
            "name": "setMintFeeThreshold",
            "outputs": [],
            "stateMutability": "nonpayable",
            "type": "function"
        },
        {
            "inputs": [
                {
                    "internalType": "uint256",
                    "name": "_id",
                    "type": "uint256"
                },
                {
                    "internalType": "uint256",
                    "name": "_amount",
                    "type": "uint256"
                }
            ],
            "name": "spreadAccumulatedError",
            "outputs": [],
            "stateMutability": "nonpayable",
            "type": "function"
        },
        {
            "inputs": [
                {
                    "internalType": "bytes4",
                    "name": "interfaceId",
                    "type": "bytes4"
                }
            ],
            "name": "supportsInterface",
            "outputs": [
                {
                    "internalType": "bool",
                    "name": "",
                    "type": "bool"
                }
            ],
            "stateMutability": "view",
            "type": "function"
        },
        {
            "inputs": [
                {
                    "internalType": "uint256",
                    "name": "_fromID",
                    "type": "uint256"
                },
                {
                    "internalType": "uint256",
                    "name": "_toID",
                    "type": "uint256"
                },
                {
                    "internalType": "uint256",
                    "name": "_fromAmount",
                    "type": "uint256"
                },
                {
                    "internalType": "uint256",
                    "name": "_minToAmount",
                    "type": "uint256"
                },
                {
                    "internalType": "address",
                    "name": "_to",
                    "type": "address"
                },
                {
                    "internalType": "uint256",
                    "name": "_deadline",
                    "type": "uint256"
                }
            ],
            "name": "swap",
            "outputs": [
                {
                    "internalType": "uint256",
                    "name": "actualToAmount",
                    "type": "uint256"
                },
                {
                    "internalType": "uint256",
                    "name": "lpFeeAmount",
                    "type": "uint256"
                }
            ],
            "stateMutability": "nonpayable",
            "type": "function"
        },
        {
            "inputs": [
                {
                    "internalType": "address",
                    "name": "newOwner",
                    "type": "address"
                }
            ],
            "name": "transferOwnership",
            "outputs": [],
            "stateMutability": "nonpayable",
            "type": "function"
        },
        {
            "inputs": [],
            "name": "unpause",
            "outputs": [],
            "stateMutability": "nonpayable",
            "type": "function"
        },
        {
            "inputs": [
                {
                    "internalType": "uint256",
                    "name": "",
                    "type": "uint256"
                }
            ],
            "name": "uri",
            "outputs": [
                {
                    "internalType": "string",
                    "name": "",
                    "type": "string"
                }
            ],
            "stateMutability": "view",
            "type": "function"
        },
        {
            "inputs": [
                {
                    "internalType": "uint256",
                    "name": "_id",
                    "type": "uint256"
                },
                {
                    "internalType": "uint256",
                    "name": "_liquidity",
                    "type": "uint256"
                },
                {
                    "internalType": "uint256",
                    "name": "_minAmount",
                    "type": "uint256"
                },
                {
                    "internalType": "address",
                    "name": "_to",
                    "type": "address"
                },
                {
                    "internalType": "uint256",
                    "name": "_deadline",
                    "type": "uint256"
                }
            ],
            "name": "withdraw",
            "outputs": [
                {
                    "internalType": "uint256",
                    "name": "amount",
                    "type": "uint256"
                },
                {
                    "internalType": "uint256",
                    "name": "fee",
                    "type": "uint256"
                }
            ],
            "stateMutability": "nonpayable",
            "type": "function"
        }
    ],
    "bytecode": "0x608060405234801561001057600080fd5b50614873806100206000396000f3fe608060405234801561001057600080fd5b50600436106102ac5760003560e01c80638456cb591161017b578063d477f05f116100d8578063f14f58f11161008c578063f2fde38b11610071578063f2fde38b14610642578063f3f6f0d714610655578063f46901ed1461065e57600080fd5b8063f14f58f11461061c578063f242432a1461062f57600080fd5b8063e4a30116116100bd578063e4a30116146105ba578063e985e9c5146105cd578063ee919d501461060957600080fd5b8063d477f05f14610593578063d49e77cd146105a657600080fd5b80638f6bdeaa1161012f578063a22cb46511610114578063a22cb4651461055a578063ce016ea11461056d578063d043c5651461058057600080fd5b80638f6bdeaa146104975780639eeb6a22146104aa57600080fd5b80638a35ace3116101605780638a35ace3146104605780638c9a4bb8146104735780638da5cb5b1461048657600080fd5b80638456cb59146104505780638a2dfe091461045857600080fd5b80633f4ba83a116102295780635cfe092e116101dd578063704ce43e116101c2578063704ce43e14610435578063715018a61461043e578063815bfd291461044657600080fd5b80635cfe092e146104185780635f4b9bde1461042257600080fd5b80634e1273f41161020e5780634e1273f4146103da57806353cb6a5e146103fa5780635c975abb1461040d57600080fd5b80633f4ba83a146103aa5780634422a8dd146103b257600080fd5b80630e89341c11610280578063265e7bde11610265578063265e7bde146103645780632eb2c2d61461037757806339e599451461038a57600080fd5b80630e89341c1461032f57806319f4ff2f1461034f57600080fd5b8062fdd58e146102b1578063017e7e58146102d757806301ffc9a7146103035780630dbe671f14610326575b600080fd5b6102c46102bf366004613f34565b610671565b6040519081526020015b60405180910390f35b610103546102eb906001600160a01b031681565b6040516001600160a01b0390911681526020016102ce565b610316610311366004614092565b61071f565b60405190151581526020016102ce565b6102c460fe5481565b61034261033d3660046140cc565b6107ba565b6040516102ce9190614309565b61036261035d3660046140cc565b61084e565b005b6103626103723660046140fe565b6108e3565b610362610385366004613dee565b610900565b6102c4610398366004613da0565b60fc6020526000908152604090205481565b6103626109a2565b6103c56103c0366004614120565b6109f3565b604080519283526020830191909152016102ce565b6103ed6103e8366004613fa4565b610cd6565b6040516102ce91906142d1565b6103626104083660046140cc565b610e14565b60655460ff16610316565b6102c46101015481565b6103c5610430366004614120565b610e99565b6102c460ff5481565b6103626111ab565b6102c46101005481565b6103626111bd565b6103c561120c565b61036261046e3660046140cc565b61123c565b6103626104813660046140fe565b611248565b6033546001600160a01b03166102eb565b6103c56104a5366004614167565b611430565b6105176104b83660046140cc565b60fb60205260009081526040902080546001820154600283015460038401546004909401549293919290919060ff808216916001600160a01b036101008204169175010000000000000000000000000000000000000000009091041687565b60408051978852602088019690965294860193909352606085019190915260ff1660808401526001600160a01b031660a0830152151560c082015260e0016102ce565b610362610568366004613efd565b611720565b61036261057b366004613f5e565b61172f565b61036261058e3660046140cc565b611868565b6103626105a1366004613da0565b6118a6565b610102546102eb906001600160a01b031681565b6103626105c83660046140fe565b611958565b6103166105db366004613dbb565b6001600160a01b03918216600090815260ca6020908152604080832093909416825291909152205460ff1690565b6103626106173660046140cc565b611af3565b61036261062a3660046140cc565b611b7a565b61036261063d366004613e98565b611bbb565b610362610650366004613da0565b611c56565b6102c460fd5481565b61036261066c366004613da0565b611ce3565b60006001600160a01b0383166106f45760405162461bcd60e51b815260206004820152602a60248201527f455243313135353a2061646472657373207a65726f206973206e6f742061207660448201527f616c6964206f776e65720000000000000000000000000000000000000000000060648201526084015b60405180910390fd5b50600081815260c9602090815260408083206001600160a01b03861684529091529020545b92915050565b60006001600160e01b031982167fd9b67a2600000000000000000000000000000000000000000000000000000000148061078257506001600160e01b031982167f0e89341c00000000000000000000000000000000000000000000000000000000145b8061071957507f01ffc9a7000000000000000000000000000000000000000000000000000000006001600160e01b0319831614610719565b606060cb80546107c99061465d565b80601f01602080910402602001604051908101604052809291908181526020018280546107f59061465d565b80156108425780601f1061081757610100808354040283529160200191610842565b820191906000526020600020905b81548152906001019060200180831161082557829003601f168201915b50505050509050919050565b610856611d8d565b670de0b6b3a764000081111561089e5760405162461bcd60e51b815260206004820152600d60248201526c496e76616c69642076616c756560981b60448201526064016106eb565b6108a6611de7565b6101008190556040518181527f63fe946ed58429ac3c5e64d4356ff92c26d7fa1e73586515df8ba9f059ab54a5906020015b60405180910390a150565b6108eb611d8d565b600091825260fb602052604090912060020155565b6001600160a01b03851633148061091c575061091c85336105db565b61098e5760405162461bcd60e51b815260206004820152602f60248201527f455243313135353a2063616c6c6572206973206e6f7420746f6b656e206f776e60448201527f6572206e6f7220617070726f766564000000000000000000000000000000000060648201526084016106eb565b61099b8585858585611e0f565b5050505050565b610102546001600160a01b031633146109e95760405162461bcd60e51b81526020600482015260096024820152682337b93134b23232b760b91b60448201526064016106eb565b6109f16120b0565b565b6000806109fe612102565b82428111610a4e5760405162461bcd60e51b815260206004820152601060248201527f446561646c696e65206e6f74206d65740000000000000000000000000000000060448201526064016106eb565b846001600160a01b038116610a945760405162461bcd60e51b815260206004820152600c60248201526b5a65726f206164647265737360a01b60448201526064016106eb565b87610ae15760405162461bcd60e51b815260206004820152600e60248201527f5a65726f206c697175696469747900000000000000000000000000000000000060448201526064016106eb565b600089815260fb60205260409020610afa338b8b612155565b610b038a61230c565b600481015460009060ff16610b188c8c6123de565b919850909650915086610b2b8b83612574565b10610b785760405162461bcd60e51b815260206004820152600e60248201527f416d6f756e7420746f6f206c6f7700000000000000000000000000000000000060448201526064016106eb565b86836000016000828254610b8c91906145f7565b9250508190555081836001016000828254610ba791906145f7565b925050819055508a836003016000828254610bc291906145f7565b909155505060018301541580610bf95750610be66064670de0b6b3a76400006143de565b60018401548454610bf6916125dc565b10155b610c315760405162461bcd60e51b81526020600482015260096024820152682337b93134b23232b760b91b60448201526064016106eb565b610c5933610c3f8984612617565b600486015461010090046001600160a01b03169190612647565b60048301546001600160a01b03808b169133917ffb80d861da582b723be2d19507ce3e03851820c464abea89156ec77e089b1ad991610100900416610c9e8b86612617565b604080516001600160a01b039093168352602083019190915281018f905260600160405180910390a350505050509550959350505050565b60608151835114610d4f5760405162461bcd60e51b815260206004820152602960248201527f455243313135353a206163636f756e747320616e6420696473206c656e67746860448201527f206d69736d61746368000000000000000000000000000000000000000000000060648201526084016106eb565b6000835167ffffffffffffffff811115610d6b57610d6b61473f565b604051908082528060200260200182016040528015610d94578160200160208202803683370190505b50905060005b8451811015610e0c57610ddf858281518110610db857610db8614729565b6020026020010151858381518110610dd257610dd2614729565b6020026020010151610671565b828281518110610df157610df1614729565b6020908102919091010152610e05816146c5565b9050610d9a565b509392505050565b610e1c611d8d565b670de0b6b3a7640000811115610e645760405162461bcd60e51b815260206004820152600d60248201526c496e76616c69642076616c756560981b60448201526064016106eb565b60ff8190556040518181527f0df0ce83543295289f05f3782542da3058e533082716a3b74f8913499444f3c5906020016108d8565b600080610ea4612102565b82428111610ef45760405162461bcd60e51b815260206004820152601060248201527f446561646c696e65206e6f74206d65740000000000000000000000000000000060448201526064016106eb565b846001600160a01b038116610f3a5760405162461bcd60e51b815260206004820152600c60248201526b5a65726f206164647265737360a01b60448201526064016106eb565b87610f875760405162461bcd60e51b815260206004820152600b60248201527f5a65726f20616d6f756e7400000000000000000000000000000000000000000060448201526064016106eb565b600089815260fb6020526040902060040154610fb39061010090046001600160a01b031633308b6126d8565b610fbc8961230c565b600089815260fb6020526040812060040154610fe7908b90610fe2908c9060ff16612574565b61272f565b91965090945090508461103c5760405162461bcd60e51b815260206004820152600e60248201527f5a65726f206c697175696469747900000000000000000000000000000000000060448201526064016106eb565b84881061108b5760405162461bcd60e51b815260206004820152600e60248201527f416d6f756e7420746f6f206c6f7700000000000000000000000000000000000060448201526064016106eb565b60008a815260fb60205260409020600401546110ab908a9060ff16612574565b60008b815260fb6020526040812080549091906110c9908490614398565b909155505060008a815260fb6020526040812060010180548392906110ef908490614398565b909155505060008a815260fb602052604081206003018054879290611115908490614398565b92505081905550611137878b8760405180602001604052806000815250612932565b60008a815260fb60209081526040918290206004015482513381529182018c90529181018790526001600160a01b0389811692610100900416907ff5dd9317b9e63ac316ce44acc85f670b54b339cfa3e9076e1dd55065b922314b9060600160405180910390a35050509550959350505050565b6111b3611d8d565b6109f16000612a5b565b610102546001600160a01b031633146112045760405162461bcd60e51b81526020600482015260096024820152682337b93134b23232b760b91b60448201526064016106eb565b6109f1612aba565b60008060008061121a612af7565b80925081935050506000611231838360fe54612b8d565b959294509192505050565b6112458161230c565b50565b610102546001600160a01b0316331461128f5760405162461bcd60e51b81526020600482015260096024820152682337b93134b23232b760b91b60448201526064016106eb565b6000828152610104602090815260408083205460fb909252808320805460049182015492517f70a082310000000000000000000000000000000000000000000000000000000081523092810192909252916113579160ff82169161010090046001600160a01b0316906370a082319060240160206040518083038186803b15801561131957600080fd5b505afa15801561132d573d6000803e3d6000fd5b505050506040513d601f19601f8201168201806040525081019061135191906140e5565b90612574565b61136191906145f7565b61136b91906145f7565b9050808211156113ad5760405162461bcd60e51b815260206004820152600d60248201526c496e76616c69642076616c756560981b60448201526064016106eb565b600083815260fb6020526040812080548492906113cb908490614398565b9091555050600083815260fb60209081526040918290206004015482516101009091046001600160a01b031681529081018490527f4941e18a2bcbb0f9fa0081238f26793a8ad8c202b913ae8bf5f7e523f68ff13791015b60405180910390a1505050565b60008061143b612102565b8242811161148b5760405162461bcd60e51b815260206004820152601060248201527f446561646c696e65206e6f74206d65740000000000000000000000000000000060448201526064016106eb565b846001600160a01b0381166114d15760405162461bcd60e51b815260206004820152600c60248201526b5a65726f206164647265737360a01b60448201526064016106eb565b600089815260fb60205260408082206004908101548d84529190922090910154610100918290046001600160a01b03908116929091041614156115565760405162461bcd60e51b815260206004820152600c60248201527f53616d652061646472657373000000000000000000000000000000000000000060448201526064016106eb565b876115a35760405162461bcd60e51b815260206004820152600b60248201527f5a65726f20616d6f756e7400000000000000000000000000000000000000000060448201526064016106eb565b60008a815260fb60205260409020600401546115f0908b908b906115cb908c9060ff16612574565b60008d815260fb60205260409020600401546115eb908c9060ff16612574565b612bb8565b60008b815260fb6020526040902060040154919550935061161590859060ff16612617565b60008a815260fb602052604090206004015490945061163890849060ff16612617565b60008b815260fb60205260409020600401549093506116679061010090046001600160a01b031633308b6126d8565b600089815260fb60205260409020600401546116929061010090046001600160a01b03168786612647565b60008a815260fb602090815260408083206004908101548d855293829020015481516001600160a01b0361010095869004811682529490910484169281019290925281018a9052606081018690529087169033907f54787c404bb33c88e86f4baf88183a3b0141d0a848e6a9f7a13b66ae3a9b73d19060800160405180910390a35050965096945050505050565b61172b338383612d04565b5050565b611737611d8d565b6040805160e081018252600080825260208083018281528385018781526060850184815260ff808916608088019081526001600160a01b03808d1660a08a01908152600160c08b0181815260fd80548c5260fb909a529b8a209a518b559651968a019690965593516002890155915160038801559051600490960180549351975115157501000000000000000000000000000000000000000000027fffffffffffffffffffff00ffffffffffffffffffffffffffffffffffffffffff98909316610100027fffffffffffffffffffffff000000000000000000000000000000000000000000909416969091169590951791909117949094169390931790915581549190611843836146c5565b909155506001600160a01b03909316600090815260fc60205260409020929092555050565b611870611d8d565b6101018190556040518181527f71592c407ca0abb34bb7ada163a2a8b25a2e58342a3c0926df1b9ce73cb214a5906020016108d8565b6118ae611d8d565b806001600160a01b0381166118f45760405162461bcd60e51b815260206004820152600c60248201526b5a65726f206164647265737360a01b60448201526064016106eb565b610102805473ffffffffffffffffffffffffffffffffffffffff19166001600160a01b0384169081179091556040519081527fc221fc4c7e5fe6682d7dbb36b97edf0a75127b7ef5c0ffafcbb981689a7bf78b906020015b60405180910390a15050565b600054610100900460ff16158080156119785750600054600160ff909116105b806119925750303b158015611992575060005460ff166001145b611a045760405162461bcd60e51b815260206004820152602e60248201527f496e697469616c697a61626c653a20636f6e747261637420697320616c72656160448201527f647920696e697469616c697a656400000000000000000000000000000000000060648201526084016106eb565b6000805460ff191660011790558015611a27576000805461ff0019166101001790555b611a2f612df9565b611a37612e6c565b611a756040518060400160405280601b81526020017f68747470733a2f2f7369736170692e66696e616e63652f7b69647d0000000000815250612ee3565b60fe83905560ff829055670de0b6b3a764000061010055610102805473ffffffffffffffffffffffffffffffffffffffff1916331790558015611aee576000805461ff0019169055604051600181527f7f26b83ff96e1f2b6a682f133852f6798a09c465da95921460cefb384740249890602001611423565b505050565b611afb611d8d565b670de0b6b3a764000060fe541115611b455760405162461bcd60e51b815260206004820152600d60248201526c496e76616c69642076616c756560981b60448201526064016106eb565b60fe8190556040518181527f3f4ccc115548cf9126e487dcdf7c805dbb3578de78180051ace88afa59675e9c906020016108d8565b611b82611d8d565b600090815260fb6020526040902060040180547fffffffffffffffffffff00ffffffffffffffffffffffffffffffffffffffffff169055565b6001600160a01b038516331480611bd75750611bd785336105db565b611c495760405162461bcd60e51b815260206004820152602f60248201527f455243313135353a2063616c6c6572206973206e6f7420746f6b656e206f776e60448201527f6572206e6f7220617070726f766564000000000000000000000000000000000060648201526084016106eb565b61099b8585858585612f57565b611c5e611d8d565b6001600160a01b038116611cda5760405162461bcd60e51b815260206004820152602660248201527f4f776e61626c653a206e6577206f776e657220697320746865207a65726f206160448201527f646472657373000000000000000000000000000000000000000000000000000060648201526084016106eb565b61124581612a5b565b611ceb611d8d565b806001600160a01b038116611d315760405162461bcd60e51b815260206004820152600c60248201526b5a65726f206164647265737360a01b60448201526064016106eb565b610103805473ffffffffffffffffffffffffffffffffffffffff19166001600160a01b0384169081179091556040519081527fd7ecd1f497e38c39a3455e0704e1bddc382baa8059756b571ff24b92cab7ff549060200161194c565b6033546001600160a01b031633146109f15760405162461bcd60e51b815260206004820181905260248201527f4f776e61626c653a2063616c6c6572206973206e6f7420746865206f776e657260448201526064016106eb565b60005b60fd5481101561124557611dfd8161230c565b80611e07816146c5565b915050611dea565b8151835114611e865760405162461bcd60e51b815260206004820152602860248201527f455243313135353a2069647320616e6420616d6f756e7473206c656e6774682060448201527f6d69736d6174636800000000000000000000000000000000000000000000000060648201526084016106eb565b6001600160a01b038416611f025760405162461bcd60e51b815260206004820152602560248201527f455243313135353a207472616e7366657220746f20746865207a65726f20616460448201527f647265737300000000000000000000000000000000000000000000000000000060648201526084016106eb565b3360005b8451811015612042576000858281518110611f2357611f23614729565b602002602001015190506000858381518110611f4157611f41614729565b602090810291909101810151600084815260c9835260408082206001600160a01b038e168352909352919091205490915081811015611fe85760405162461bcd60e51b815260206004820152602a60248201527f455243313135353a20696e73756666696369656e742062616c616e636520666f60448201527f72207472616e736665720000000000000000000000000000000000000000000060648201526084016106eb565b600083815260c9602090815260408083206001600160a01b038e8116855292528083208585039055908b16825281208054849290612027908490614398565b925050819055505050508061203b906146c5565b9050611f06565b50846001600160a01b0316866001600160a01b0316826001600160a01b03167f4a39dc06d4c0dbc64b70af90fd698a233a518aa5d07e595d983b8c0526c8f7fb87876040516120929291906142e4565b60405180910390a46120a8818787878787613131565b505050505050565b6120b861332d565b6065805460ff191690557f5db9ee0a495bf2e6ff9c91a7834c1ba4fdd244a5e8aa4e537bd38aeae4b073aa335b6040516001600160a01b03909116815260200160405180910390a1565b60655460ff16156109f15760405162461bcd60e51b815260206004820152601060248201527f5061757361626c653a207061757365640000000000000000000000000000000060448201526064016106eb565b6001600160a01b0383166121d15760405162461bcd60e51b815260206004820152602360248201527f455243313135353a206275726e2066726f6d20746865207a65726f206164647260448201527f657373000000000000000000000000000000000000000000000000000000000060648201526084016106eb565b3360006121dd8461337f565b905060006121ea8461337f565b604080516020808201835260009182905288825260c981528282206001600160a01b038b168352905220549091508481101561228d5760405162461bcd60e51b8152602060048201526024808201527f455243313135353a206275726e20616d6f756e7420657863656564732062616c60448201527f616e63650000000000000000000000000000000000000000000000000000000060648201526084016106eb565b600086815260c9602090815260408083206001600160a01b038b81168086529184528285208a8703905582518b81529384018a90529092908816917fc3d58168c5ae7397731d063d5bbf3d657854427343f4c083240f7aacaa2d0f62910160405180910390a46040805160208101909152600090525b50505050505050565b6000818152610104602052604090205480158061232b57506101015481105b15612334575050565b600061235761010054670de0b6b3a764000061235091906145f7565b83906133ca565b9050600061236582846145f7565b905080156123c9576000612379858361272f565b50600087815260fb6020526040812060010180549294508493509161239f908490614398565b9091555050600085815260fb6020526040812080548492906123c2908490614398565b9091555050505b50505060009081526101046020526040812055565b600082815260fb60205260408120600381015460019091015482918291612406908690614580565b61241091906143de565b91508161245f5760405162461bcd60e51b815260206004820152600e60248201527f5a65726f206c697175696469747900000000000000000000000000000000000060448201526064016106eb565b600061246a836146e0565b600087815260fb60205260408120805460019091015460fe54939450909290916124948584614340565b905060006124a285856133ea565b905060006124c46124b385846133ea565b6124bd908461459f565b869061341e565b9050600060026124e66124df87670de0b6b3a764000061459f565b8a9061341e565b6124f09084614340565b6124fa91906143b0565b905060006125308261251661250f88806144e0565b899061341e565b61252085806144e0565b61252a9190614340565b9061343e565b61253a9083614340565b9050612546818961459f565b9b508b8b10612560576125598c8c6145f7565b9950612564565b8a9b505b5050505050505050509250925092565b600060128260ff1610156125a95761258d82601261460e565b61259890600a614435565b6125a29084614580565b9050610719565b60128260ff1611156125d5576125c060128361460e565b6125cb90600a614435565b6125a290846143de565b5090919050565b6000816125ea6002826143de565b6125fc670de0b6b3a764000086614580565b6126069190614398565b61261091906143de565b9392505050565b600060128260ff161015612630576125c082601261460e565b60128260ff1611156125d55761258d60128361460e565b6040516001600160a01b038316602482015260448101829052611aee9084907fa9059cbb00000000000000000000000000000000000000000000000000000000906064015b60408051601f198184030181529190526020810180517bffffffffffffffffffffffffffffffffffffffffffffffffffffffff166001600160e01b031990931692909217909152613502565b6040516001600160a01b03808516602483015283166044820152606481018290526127299085907f23b872dd000000000000000000000000000000000000000000000000000000009060840161268c565b50505050565b600082815260fb60205260408120805460019091015460fe548392839286928161275b578795506128c1565b60006127678585614340565b12156127a55760405162461bcd60e51b815260206004820152600d60248201526c496e76616c69642076616c756560981b60448201526064016106eb565b60006127b184846133ea565b905060006127bf8587614340565b905060006127cd848661341e565b6127d89060026144e0565b6127f46127ed86670de0b6b3a764000061459f565b849061341e565b6127fe9190614340565b9050600061281686612810878261341e565b9061341e565b612820848061341e565b6128428661282e8a8a6144e0565b61283891906143b0565b6124bd908b61459f565b61284c919061459f565b6128569190614340565b90506000816128668760046144e0565b61287091906144e0565b61287a84806144e0565b612884919061459f565b905060026128af87612896848761343e565b61289f876146e0565b6128a99190614340565b906133ea565b6128b991906143b0565b9a5050505050505b8786106128d9576128d288876145f7565b94506128dd565b8795505b600089815260fb602052604090206001015480156129225760008a815260fb602052604090206003015481906129139089614580565b61291d91906143de565b612924565b865b975050505050509250925092565b6001600160a01b0384166129ae5760405162461bcd60e51b815260206004820152602160248201527f455243313135353a206d696e7420746f20746865207a65726f2061646472657360448201527f730000000000000000000000000000000000000000000000000000000000000060648201526084016106eb565b3360006129ba8561337f565b905060006129c78561337f565b9050600086815260c9602090815260408083206001600160a01b038b168452909152812080548792906129fb908490614398565b909155505060408051878152602081018790526001600160a01b03808a1692600092918716917fc3d58168c5ae7397731d063d5bbf3d657854427343f4c083240f7aacaa2d0f62910160405180910390a4612303836000898989896135e7565b603380546001600160a01b0383811673ffffffffffffffffffffffffffffffffffffffff19831681179093556040519116919082907f8be0079c531659141344cd1fd0a4f28419497f9722a3daafe3b4186f6b6457e090600090a35050565b612ac2612102565b6065805460ff191660011790557f62e78cea01bee320cd4e420270b5ea74000d11b0c9f74754ebdbfc544b05a2586120e53390565b60fe546000908190815b60fd54811015612b8757600081815260fb60205260409020805460019091015480612b2d575050612b75565b6000612b3983836133ea565b9050612b458287614340565b9550612b65612b5486836133ea565b612b5e908361459f565b839061341e565b612b6f9088614340565b96505050505b80612b7f816146c5565b915050612b01565b50509091565b600080612b9a85856133ea565b612ba3906146e0565b9050612baf8184613739565b95945050505050565b600080612bc6868686613774565b9092509050818310612c1a5760405162461bcd60e51b815260206004820152600e60248201527f416d6f756e7420746f6f206c6f7700000000000000000000000000000000000060448201526064016106eb565b6000858152610104602052604081208054839290612c39908490614398565b9091555050600086815260fb602052604081208054869290612c5c908490614398565b90915550612c6c90508183614398565b600086815260fb602052604081208054909190612c8a9084906145f7565b90915550612ca390506064670de0b6b3a76400006143de565b600086815260fb6020526040902060018101549054612cc1916125dc565b1015612cfb5760405162461bcd60e51b81526020600482015260096024820152682337b93134b23232b760b91b60448201526064016106eb565b94509492505050565b816001600160a01b0316836001600160a01b03161415612d8c5760405162461bcd60e51b815260206004820152602960248201527f455243313135353a2073657474696e6720617070726f76616c2073746174757360448201527f20666f722073656c66000000000000000000000000000000000000000000000060648201526084016106eb565b6001600160a01b03838116600081815260ca6020908152604080832094871680845294825291829020805460ff191686151590811790915591519182527f17307eab39ab6107e8899845ad3d59bd9653f200f220920489ca2b5937696c31910160405180910390a3505050565b600054610100900460ff16612e645760405162461bcd60e51b815260206004820152602b60248201527f496e697469616c697a61626c653a20636f6e7472616374206973206e6f74206960448201526a6e697469616c697a696e6760a81b60648201526084016106eb565b6109f161396d565b600054610100900460ff16612ed75760405162461bcd60e51b815260206004820152602b60248201527f496e697469616c697a61626c653a20636f6e7472616374206973206e6f74206960448201526a6e697469616c697a696e6760a81b60648201526084016106eb565b6065805460ff19169055565b600054610100900460ff16612f4e5760405162461bcd60e51b815260206004820152602b60248201527f496e697469616c697a61626c653a20636f6e7472616374206973206e6f74206960448201526a6e697469616c697a696e6760a81b60648201526084016106eb565b611245816139e1565b6001600160a01b038416612fd35760405162461bcd60e51b815260206004820152602560248201527f455243313135353a207472616e7366657220746f20746865207a65726f20616460448201527f647265737300000000000000000000000000000000000000000000000000000060648201526084016106eb565b336000612fdf8561337f565b90506000612fec8561337f565b9050600086815260c9602090815260408083206001600160a01b038c168452909152902054858110156130875760405162461bcd60e51b815260206004820152602a60248201527f455243313135353a20696e73756666696369656e742062616c616e636520666f60448201527f72207472616e736665720000000000000000000000000000000000000000000060648201526084016106eb565b600087815260c9602090815260408083206001600160a01b038d8116855292528083208985039055908a168252812080548892906130c6908490614398565b909155505060408051888152602081018890526001600160a01b03808b16928c821692918816917fc3d58168c5ae7397731d063d5bbf3d657854427343f4c083240f7aacaa2d0f62910160405180910390a4613126848a8a8a8a8a6135e7565b505050505050505050565b6001600160a01b0384163b156120a8576040517fbc197c810000000000000000000000000000000000000000000000000000000081526001600160a01b0385169063bc197c819061318e908990899088908890889060040161423b565b602060405180830381600087803b1580156131a857600080fd5b505af19250505080156131d8575060408051601f3d908101601f191682019092526131d5918101906140af565b60015b61328e576131e4614755565b806308c379a0141561321e57506131f9614771565b806132045750613220565b8060405162461bcd60e51b81526004016106eb9190614309565b505b60405162461bcd60e51b815260206004820152603460248201527f455243313135353a207472616e7366657220746f206e6f6e204552433131353560448201527f526563656976657220696d706c656d656e74657200000000000000000000000060648201526084016106eb565b6001600160e01b031981167fbc197c8100000000000000000000000000000000000000000000000000000000146123035760405162461bcd60e51b815260206004820152602860248201527f455243313135353a204552433131353552656365697665722072656a6563746560448201527f6420746f6b656e7300000000000000000000000000000000000000000000000060648201526084016106eb565b60655460ff166109f15760405162461bcd60e51b815260206004820152601460248201527f5061757361626c653a206e6f742070617573656400000000000000000000000060448201526064016106eb565b604080516001808252818301909252606091600091906020808301908036833701905050905082816000815181106133b9576133b9614729565b602090810291909101015292915050565b6000670de0b6b3a76400006133e06002826143de565b6125fc8486614580565b6000816133f86002826143b0565b61340a670de0b6b3a7640000866144e0565b6134149190614340565b61261091906143b0565b6000670de0b6b3a76400006134346002826143b0565b61340a84866144e0565b600060038313156134f3576000821380156134595750828213155b15613465575080613495565b60008212801561347d57508261347a836146e0565b13155b156134925761348b826146e0565b9050613495565b50815b60006002826134a481876143b0565b6134ae9190614340565b6134b891906143b0565b90505b8181146134ed579050806002816134d281876143b0565b6134dc9190614340565b6134e691906143b0565b90506134bb565b50610719565b82156107195750600192915050565b6000613557826040518060400160405280602081526020017f5361666545524332303a206c6f772d6c6576656c2063616c6c206661696c6564815250856001600160a01b0316613a559092919063ffffffff16565b805190915015611aee57808060200190518101906135759190614075565b611aee5760405162461bcd60e51b815260206004820152602a60248201527f5361666545524332303a204552433230206f7065726174696f6e20646964206e60448201527f6f7420737563636565640000000000000000000000000000000000000000000060648201526084016106eb565b6001600160a01b0384163b156120a8576040517ff23a6e610000000000000000000000000000000000000000000000000000000081526001600160a01b0385169063f23a6e61906136449089908990889088908890600401614299565b602060405180830381600087803b15801561365e57600080fd5b505af192505050801561368e575060408051601f3d908101601f1916820190925261368b918101906140af565b60015b61369a576131e4614755565b6001600160e01b031981167ff23a6e6100000000000000000000000000000000000000000000000000000000146123035760405162461bcd60e51b815260206004820152602860248201527f455243313135353a204552433131353552656365697665722072656a6563746560448201527f6420746f6b656e7300000000000000000000000000000000000000000000000060648201526084016106eb565b600060028361376a81670de0b6b3a76400006137568760046144e0565b61376091906144e0565b61252088806144e0565b613414919061459f565b600082815260fb602052604080822080548684529183208054600191820154878652919092015460fe548594859490938493919290919081158015906137b957508215155b6137f55760405162461bcd60e51b815260206004820152600d60248201526c496e76616c69642076616c756560981b60448201526064016106eb565b600061382e8661380585806144e0565b61380f91906143b0565b8661381a87806144e0565b61382491906143b0565b612b5e9190614340565b6138388787614340565b613842919061459f565b90506000613854856128a98e89614340565b9050600061386283866133ea565b8561386d86856133ea565b613877908561459f565b61388190896144e0565b61388b91906143b0565b613895919061459f565b905060006138a38286613739565b90506000896138b2888461341e565b6138bc919061459f565b905060008112156138d7576138d0816146e0565b9b506138db565b809b505b8b8b101561392b5760405162461bcd60e51b815260206004820152600f60248201527f4e6f7420656e6f7567682063617368000000000000000000000000000000000060448201526064016106eb565b60ff54613939908d906133ca565b9c5060008f13156139555761394e8d8d6145f7565b9d50613959565b8b9d505b505050505050505050505050935093915050565b600054610100900460ff166139d85760405162461bcd60e51b815260206004820152602b60248201527f496e697469616c697a61626c653a20636f6e7472616374206973206e6f74206960448201526a6e697469616c697a696e6760a81b60648201526084016106eb565b6109f133612a5b565b600054610100900460ff16613a4c5760405162461bcd60e51b815260206004820152602b60248201527f496e697469616c697a61626c653a20636f6e7472616374206973206e6f74206960448201526a6e697469616c697a696e6760a81b60648201526084016106eb565b61124581613a6c565b6060613a648484600085613a7f565b949350505050565b805161172b9060cb906020840190613c00565b606082471015613af75760405162461bcd60e51b815260206004820152602660248201527f416464726573733a20696e73756666696369656e742062616c616e636520666f60448201527f722063616c6c000000000000000000000000000000000000000000000000000060648201526084016106eb565b6001600160a01b0385163b613b4e5760405162461bcd60e51b815260206004820152601d60248201527f416464726573733a2063616c6c20746f206e6f6e2d636f6e747261637400000060448201526064016106eb565b600080866001600160a01b03168587604051613b6a919061421f565b60006040518083038185875af1925050503d8060008114613ba7576040519150601f19603f3d011682016040523d82523d6000602084013e613bac565b606091505b5091509150613bbc828286613bc7565b979650505050505050565b60608315613bd6575081612610565b825115613be65782518084602001fd5b8160405162461bcd60e51b81526004016106eb9190614309565b828054613c0c9061465d565b90600052602060002090601f016020900481019282613c2e5760008555613c74565b82601f10613c4757805160ff1916838001178555613c74565b82800160010185558215613c74579182015b82811115613c74578251825591602001919060010190613c59565b50613c80929150613c84565b5090565b5b80821115613c805760008155600101613c85565b80356001600160a01b0381168114613cb057600080fd5b919050565b600082601f830112613cc657600080fd5b81356020613cd38261431c565b604051613ce08282614698565b8381528281019150858301600585901b87018401881015613d0057600080fd5b60005b85811015613d1f57813584529284019290840190600101613d03565b5090979650505050505050565b600082601f830112613d3d57600080fd5b813567ffffffffffffffff811115613d5757613d5761473f565b604051613d6e6020601f19601f8501160182614698565b818152846020838601011115613d8357600080fd5b816020850160208301376000918101602001919091529392505050565b600060208284031215613db257600080fd5b61261082613c99565b60008060408385031215613dce57600080fd5b613dd783613c99565b9150613de560208401613c99565b90509250929050565b600080600080600060a08688031215613e0657600080fd5b613e0f86613c99565b9450613e1d60208701613c99565b9350604086013567ffffffffffffffff80821115613e3a57600080fd5b613e4689838a01613cb5565b94506060880135915080821115613e5c57600080fd5b613e6889838a01613cb5565b93506080880135915080821115613e7e57600080fd5b50613e8b88828901613d2c565b9150509295509295909350565b600080600080600060a08688031215613eb057600080fd5b613eb986613c99565b9450613ec760208701613c99565b93506040860135925060608601359150608086013567ffffffffffffffff811115613ef157600080fd5b613e8b88828901613d2c565b60008060408385031215613f1057600080fd5b613f1983613c99565b91506020830135613f2981614819565b809150509250929050565b60008060408385031215613f4757600080fd5b613f5083613c99565b946020939093013593505050565b600080600060608486031215613f7357600080fd5b613f7c84613c99565b925060208401359150604084013560ff81168114613f9957600080fd5b809150509250925092565b60008060408385031215613fb757600080fd5b823567ffffffffffffffff80821115613fcf57600080fd5b818501915085601f830112613fe357600080fd5b81356020613ff08261431c565b604051613ffd8282614698565b8381528281019150858301600585901b870184018b101561401d57600080fd5b600096505b848710156140475761403381613c99565b835260019690960195918301918301614022565b509650508601359250508082111561405e57600080fd5b5061406b85828601613cb5565b9150509250929050565b60006020828403121561408757600080fd5b815161261081614819565b6000602082840312156140a457600080fd5b813561261081614827565b6000602082840312156140c157600080fd5b815161261081614827565b6000602082840312156140de57600080fd5b5035919050565b6000602082840312156140f757600080fd5b5051919050565b6000806040838503121561411157600080fd5b50508035926020909101359150565b600080600080600060a0868803121561413857600080fd5b85359450602086013593506040860135925061415660608701613c99565b949793965091946080013592915050565b60008060008060008060c0878903121561418057600080fd5b863595506020870135945060408701359350606087013592506141a560808801613c99565b915060a087013590509295509295509295565b600081518084526020808501945080840160005b838110156141e8578151875295820195908201906001016141cc565b509495945050505050565b6000815180845261420b816020860160208601614631565b601f01601f19169290920160200192915050565b60008251614231818460208701614631565b9190910192915050565b60006001600160a01b03808816835280871660208401525060a0604083015261426760a08301866141b8565b828103606084015261427981866141b8565b9050828103608084015261428d81856141f3565b98975050505050505050565b60006001600160a01b03808816835280871660208401525084604083015283606083015260a06080830152613bbc60a08301846141f3565b60208152600061261060208301846141b8565b6040815260006142f760408301856141b8565b8281036020840152612baf81856141b8565b60208152600061261060208301846141f3565b600067ffffffffffffffff8211156143365761433661473f565b5060051b60200190565b6000808212827f7fffffffffffffffffffffffffffffffffffffffffffffffffffffffffffffff0384138115161561437a5761437a6146fd565b82600160ff1b038412811615614392576143926146fd565b50500190565b600082198211156143ab576143ab6146fd565b500190565b6000826143bf576143bf614713565b6000198314600160ff1b831416156143d9576143d96146fd565b500590565b6000826143ed576143ed614713565b500490565b600181815b8085111561442d578160001904821115614413576144136146fd565b8085161561442057918102915b93841c93908002906143f7565b509250929050565b600061261060ff84168360008261444e57506001610719565b8161445b57506000610719565b8160018114614471576002811461447b57614497565b6001915050610719565b60ff84111561448c5761448c6146fd565b50506001821b610719565b5060208310610133831016604e8410600b84101617156144ba575081810a610719565b6144c483836143f2565b80600019048211156144d8576144d86146fd565b029392505050565b60007f7fffffffffffffffffffffffffffffffffffffffffffffffffffffffffffffff600084136000841385830485118282161615614521576145216146fd565b600160ff1b6000871286820588128184161615614540576145406146fd565b6000871292508782058712848416161561455c5761455c6146fd565b87850587128184161615614572576145726146fd565b505050929093029392505050565b600081600019048311821515161561459a5761459a6146fd565b500290565b600080831283600160ff1b018312811516156145bd576145bd6146fd565b837f7fffffffffffffffffffffffffffffffffffffffffffffffffffffffffffffff0183138116156145f1576145f16146fd565b50500390565b600082821015614609576146096146fd565b500390565b600060ff821660ff841680821015614628576146286146fd565b90039392505050565b60005b8381101561464c578181015183820152602001614634565b838111156127295750506000910152565b600181811c9082168061467157607f821691505b6020821081141561469257634e487b7160e01b600052602260045260246000fd5b50919050565b601f19601f830116810181811067ffffffffffffffff821117156146be576146be61473f565b6040525050565b60006000198214156146d9576146d96146fd565b5060010190565b6000600160ff1b8214156146f6576146f66146fd565b5060000390565b634e487b7160e01b600052601160045260246000fd5b634e487b7160e01b600052601260045260246000fd5b634e487b7160e01b600052603260045260246000fd5b634e487b7160e01b600052604160045260246000fd5b600060033d111561476e5760046000803e5060005160e01c5b90565b600060443d101561477f5790565b6040517ffffffffffffffffffffffffffffffffffffffffffffffffffffffffffffffffc803d016004833e81513d67ffffffffffffffff81602484011181841117156147cd57505050505090565b82850191508151818111156147e55750505050505090565b843d87010160208285010111156147ff5750505050505090565b61480e60208286010187614698565b509095945050505050565b801515811461124557600080fd5b6001600160e01b03198116811461124557600080fdfea26469706673582212203591b7d07b1f7b43d3cc18de6696d78992e1041a2bf694905cdef7953083916864736f6c63430008050033",
    "linkReferences": {},
    "deployedLinkReferences": {}
}