{
    "_format": "hh-sol-artifact-1",
    "contractName": "Pool",
    "sourceName": "contracts/pool/Pool.sol",
    "abi": [
        {
            "anonymous": false,
            "inputs": [
                {
                    "indexed": true,
                    "internalType": "address",
                    "name": "account",
                    "type": "address"
                },
                {
                    "indexed": true,
                    "internalType": "address",
                    "name": "operator",
                    "type": "address"
                },
                {
                    "indexed": false,
                    "internalType": "bool",
                    "name": "approved",
                    "type": "bool"
                }
            ],
            "name": "ApprovalForAll",
            "type": "event"
        },
        {
            "anonymous": false,
            "inputs": [
                {
                    "indexed": true,
                    "internalType": "address",
                    "name": "token",
                    "type": "address"
                },
                {
                    "indexed": true,
                    "internalType": "address",
                    "name": "asset",
                    "type": "address"
                }
            ],
            "name": "AssetAdded",
            "type": "event"
        },
        {
            "anonymous": false,
            "inputs": [
                {
                    "indexed": true,
                    "internalType": "address",
                    "name": "token",
                    "type": "address"
                },
                {
                    "indexed": true,
                    "internalType": "address",
                    "name": "asset",
                    "type": "address"
                }
            ],
            "name": "AssetRemoved",
            "type": "event"
        },
        {
            "anonymous": false,
            "inputs": [
                {
                    "indexed": false,
                    "internalType": "address",
                    "name": "sender",
                    "type": "address"
                },
                {
                    "indexed": true,
                    "internalType": "address",
                    "name": "token",
                    "type": "address"
                },
                {
                    "indexed": false,
                    "internalType": "uint256",
                    "name": "amount",
                    "type": "uint256"
                },
                {
                    "indexed": false,
                    "internalType": "uint256",
                    "name": "liquidity",
                    "type": "uint256"
                },
                {
                    "indexed": true,
                    "internalType": "address",
                    "name": "to",
                    "type": "address"
                }
            ],
            "name": "Deposit",
            "type": "event"
        },
        {
            "anonymous": false,
            "inputs": [
                {
                    "indexed": false,
                    "internalType": "address",
                    "name": "token",
                    "type": "address"
                },
                {
                    "indexed": false,
                    "internalType": "uint256",
                    "name": "amount",
                    "type": "uint256"
                }
            ],
            "name": "FillPool",
            "type": "event"
        },
        {
            "anonymous": false,
            "inputs": [
                {
                    "indexed": false,
                    "internalType": "uint8",
                    "name": "version",
                    "type": "uint8"
                }
            ],
            "name": "Initialized",
            "type": "event"
        },
        {
            "anonymous": false,
            "inputs": [
                {
                    "indexed": false,
                    "internalType": "uint256",
                    "name": "value",
                    "type": "uint256"
                }
            ],
            "name": "NewA",
            "type": "event"
        },
        {
            "anonymous": false,
            "inputs": [
                {
                    "indexed": false,
                    "internalType": "address",
                    "name": "addr",
                    "type": "address"
                }
            ],
            "name": "NewDev",
            "type": "event"
        },
        {
            "anonymous": false,
            "inputs": [
                {
                    "indexed": false,
                    "internalType": "uint256",
                    "name": "lpDividendRatio",
                    "type": "uint256"
                }
            ],
            "name": "NewFee",
            "type": "event"
        },
        {
            "anonymous": false,
            "inputs": [
                {
                    "indexed": false,
                    "internalType": "address",
                    "name": "addr",
                    "type": "address"
                }
            ],
            "name": "NewFeeTo",
            "type": "event"
        },
        {
            "anonymous": false,
            "inputs": [
                {
                    "indexed": false,
                    "internalType": "uint256",
                    "name": "value",
                    "type": "uint256"
                }
            ],
            "name": "NewLPFee",
            "type": "event"
        },
        {
            "anonymous": false,
            "inputs": [
                {
                    "indexed": false,
                    "internalType": "uint256",
                    "name": "value",
                    "type": "uint256"
                }
            ],
            "name": "NewMintFeeThreshold",
            "type": "event"
        },
        {
            "anonymous": false,
            "inputs": [
                {
                    "indexed": true,
                    "internalType": "address",
                    "name": "previousOwner",
                    "type": "address"
                },
                {
                    "indexed": true,
                    "internalType": "address",
                    "name": "newOwner",
                    "type": "address"
                }
            ],
            "name": "OwnershipTransferred",
            "type": "event"
        },
        {
            "anonymous": false,
            "inputs": [
                {
                    "indexed": false,
                    "internalType": "address",
                    "name": "account",
                    "type": "address"
                }
            ],
            "name": "Paused",
            "type": "event"
        },
        {
            "anonymous": false,
            "inputs": [
                {
                    "indexed": true,
                    "internalType": "address",
                    "name": "sender",
                    "type": "address"
                },
                {
                    "indexed": false,
                    "internalType": "address",
                    "name": "fromToken",
                    "type": "address"
                },
                {
                    "indexed": false,
                    "internalType": "address",
                    "name": "toToken",
                    "type": "address"
                },
                {
                    "indexed": false,
                    "internalType": "uint256",
                    "name": "fromAmount",
                    "type": "uint256"
                },
                {
                    "indexed": false,
                    "internalType": "uint256",
                    "name": "toAmount",
                    "type": "uint256"
                },
                {
                    "indexed": true,
                    "internalType": "address",
                    "name": "to",
                    "type": "address"
                }
            ],
            "name": "Swap",
            "type": "event"
        },
        {
            "anonymous": false,
            "inputs": [
                {
                    "indexed": true,
                    "internalType": "address",
                    "name": "operator",
                    "type": "address"
                },
                {
                    "indexed": true,
                    "internalType": "address",
                    "name": "from",
                    "type": "address"
                },
                {
                    "indexed": true,
                    "internalType": "address",
                    "name": "to",
                    "type": "address"
                },
                {
                    "indexed": false,
                    "internalType": "uint256[]",
                    "name": "ids",
                    "type": "uint256[]"
                },
                {
                    "indexed": false,
                    "internalType": "uint256[]",
                    "name": "values",
                    "type": "uint256[]"
                }
            ],
            "name": "TransferBatch",
            "type": "event"
        },
        {
            "anonymous": false,
            "inputs": [
                {
                    "indexed": true,
                    "internalType": "address",
                    "name": "operator",
                    "type": "address"
                },
                {
                    "indexed": true,
                    "internalType": "address",
                    "name": "from",
                    "type": "address"
                },
                {
                    "indexed": true,
                    "internalType": "address",
                    "name": "to",
                    "type": "address"
                },
                {
                    "indexed": false,
                    "internalType": "uint256",
                    "name": "id",
                    "type": "uint256"
                },
                {
                    "indexed": false,
                    "internalType": "uint256",
                    "name": "value",
                    "type": "uint256"
                }
            ],
            "name": "TransferSingle",
            "type": "event"
        },
        {
            "anonymous": false,
            "inputs": [
                {
                    "indexed": false,
                    "internalType": "address",
                    "name": "token",
                    "type": "address"
                },
                {
                    "indexed": false,
                    "internalType": "uint256",
                    "name": "amount",
                    "type": "uint256"
                },
                {
                    "indexed": false,
                    "internalType": "address",
                    "name": "to",
                    "type": "address"
                }
            ],
            "name": "TransferTipBucket",
            "type": "event"
        },
        {
            "anonymous": false,
            "inputs": [
                {
                    "indexed": false,
                    "internalType": "string",
                    "name": "value",
                    "type": "string"
                },
                {
                    "indexed": true,
                    "internalType": "uint256",
                    "name": "id",
                    "type": "uint256"
                }
            ],
            "name": "URI",
            "type": "event"
        },
        {
            "anonymous": false,
            "inputs": [
                {
                    "indexed": false,
                    "internalType": "address",
                    "name": "account",
                    "type": "address"
                }
            ],
            "name": "Unpaused",
            "type": "event"
        },
        {
            "anonymous": false,
            "inputs": [
                {
                    "indexed": true,
                    "internalType": "address",
                    "name": "sender",
                    "type": "address"
                },
                {
                    "indexed": false,
                    "internalType": "address",
                    "name": "token",
                    "type": "address"
                },
                {
                    "indexed": false,
                    "internalType": "uint256",
                    "name": "amount",
                    "type": "uint256"
                },
                {
                    "indexed": false,
                    "internalType": "uint256",
                    "name": "liquidity",
                    "type": "uint256"
                },
                {
                    "indexed": true,
                    "internalType": "address",
                    "name": "to",
                    "type": "address"
                }
            ],
            "name": "Withdraw",
            "type": "event"
        },
        {
            "inputs": [],
            "name": "a",
            "outputs": [
                {
                    "internalType": "uint256",
                    "name": "",
                    "type": "uint256"
                }
            ],
            "stateMutability": "view",
            "type": "function"
        },
        {
            "inputs": [
                {
                    "internalType": "address",
                    "name": "_token",
                    "type": "address"
                },
                {
                    "internalType": "uint256",
                    "name": "_maxSupply",
                    "type": "uint256"
                },
                {
                    "internalType": "uint8",
                    "name": "_decimals",
                    "type": "uint8"
                }
            ],
            "name": "addAssetOcto",
            "outputs": [],
            "stateMutability": "nonpayable",
            "type": "function"
        },
        {
            "inputs": [
                {
                    "internalType": "address",
                    "name": "",
                    "type": "address"
                }
            ],
            "name": "assetToIndex",
            "outputs": [
                {
                    "internalType": "uint256",
                    "name": "",
                    "type": "uint256"
                }
            ],
            "stateMutability": "view",
            "type": "function"
        },
        {
            "inputs": [
                {
                    "internalType": "address",
                    "name": "account",
                    "type": "address"
                },
                {
                    "internalType": "uint256",
                    "name": "id",
                    "type": "uint256"
                }
            ],
            "name": "balanceOf",
            "outputs": [
                {
                    "internalType": "uint256",
                    "name": "",
                    "type": "uint256"
                }
            ],
            "stateMutability": "view",
            "type": "function"
        },
        {
            "inputs": [
                {
                    "internalType": "address[]",
                    "name": "accounts",
                    "type": "address[]"
                },
                {
                    "internalType": "uint256[]",
                    "name": "ids",
                    "type": "uint256[]"
                }
            ],
            "name": "balanceOfBatch",
            "outputs": [
                {
                    "internalType": "uint256[]",
                    "name": "",
                    "type": "uint256[]"
                }
            ],
            "stateMutability": "view",
            "type": "function"
        },
        {
            "inputs": [
                {
                    "internalType": "uint256",
                    "name": "_tokenID",
                    "type": "uint256"
                },
                {
                    "internalType": "uint256",
                    "name": "_newMaxSupply",
                    "type": "uint256"
                }
            ],
            "name": "changeMaxSupply",
            "outputs": [],
            "stateMutability": "nonpayable",
            "type": "function"
        },
        {
            "inputs": [
                {
                    "internalType": "uint256",
                    "name": "_id",
                    "type": "uint256"
                },
                {
                    "internalType": "uint256",
                    "name": "_amount",
                    "type": "uint256"
                },
                {
                    "internalType": "uint256",
                    "name": "_minimumLiquidity",
                    "type": "uint256"
                },
                {
                    "internalType": "address",
                    "name": "_to",
                    "type": "address"
                },
                {
                    "internalType": "uint256",
                    "name": "_deadline",
                    "type": "uint256"
                }
            ],
            "name": "deposit",
            "outputs": [
                {
                    "internalType": "uint256",
                    "name": "liquidity",
                    "type": "uint256"
                },
                {
                    "internalType": "uint256",
                    "name": "fee",
                    "type": "uint256"
                }
            ],
            "stateMutability": "nonpayable",
            "type": "function"
        },
        {
            "inputs": [],
            "name": "devaddr",
            "outputs": [
                {
                    "internalType": "address",
                    "name": "",
                    "type": "address"
                }
            ],
            "stateMutability": "view",
            "type": "function"
        },
        {
            "inputs": [],
            "name": "feeTo",
            "outputs": [
                {
                    "internalType": "address",
                    "name": "",
                    "type": "address"
                }
            ],
            "stateMutability": "view",
            "type": "function"
        },
        {
            "inputs": [],
            "name": "globalEquilCovRatio",
            "outputs": [
                {
                    "internalType": "uint256",
                    "name": "equilCovRatio",
                    "type": "uint256"
                },
                {
                    "internalType": "uint256",
                    "name": "invariant",
                    "type": "uint256"
                }
            ],
            "stateMutability": "view",
            "type": "function"
        },
        {
            "inputs": [
                {
                    "internalType": "uint256",
                    "name": "",
                    "type": "uint256"
                }
            ],
            "name": "indexToAsset",
            "outputs": [
                {
                    "internalType": "uint256",
                    "name": "cash",
                    "type": "uint256"
                },
                {
                    "internalType": "uint256",
                    "name": "liability",
                    "type": "uint256"
                },
                {
                    "internalType": "uint256",
                    "name": "maxSupply",
                    "type": "uint256"
                },
                {
                    "internalType": "uint256",
                    "name": "totalSupply",
                    "type": "uint256"
                },
                {
                    "internalType": "uint8",
                    "name": "decimals",
                    "type": "uint8"
                },
                {
                    "internalType": "address",
                    "name": "token",
                    "type": "address"
                },
                {
                    "internalType": "bool",
                    "name": "active",
                    "type": "bool"
                }
            ],
            "stateMutability": "view",
            "type": "function"
        },
        {
            "inputs": [
                {
                    "internalType": "uint256",
                    "name": "_a",
                    "type": "uint256"
                },
                {
                    "internalType": "uint256",
                    "name": "_lpFee",
                    "type": "uint256"
                }
            ],
            "name": "initialize",
            "outputs": [],
            "stateMutability": "nonpayable",
            "type": "function"
        },
        {
            "inputs": [
                {
                    "internalType": "address",
                    "name": "account",
                    "type": "address"
                },
                {
                    "internalType": "address",
                    "name": "operator",
                    "type": "address"
                }
            ],
            "name": "isApprovedForAll",
            "outputs": [
                {
                    "internalType": "bool",
                    "name": "",
                    "type": "bool"
                }
            ],
            "stateMutability": "view",
            "type": "function"
        },
        {
            "inputs": [],
            "name": "lastIndex",
            "outputs": [
                {
                    "internalType": "uint256",
                    "name": "",
                    "type": "uint256"
                }
            ],
            "stateMutability": "view",
            "type": "function"
        },
        {
            "inputs": [],
            "name": "lpDividendRatio",
            "outputs": [
                {
                    "internalType": "uint256",
                    "name": "",
                    "type": "uint256"
                }
            ],
            "stateMutability": "view",
            "type": "function"
        },
        {
            "inputs": [],
            "name": "lpFee",
            "outputs": [
                {
                    "internalType": "uint256",
                    "name": "",
                    "type": "uint256"
                }
            ],
            "stateMutability": "view",
            "type": "function"
        },
        {
            "inputs": [
                {
                    "internalType": "uint256",
                    "name": "_id",
                    "type": "uint256"
                }
            ],
            "name": "mintFee",
            "outputs": [],
            "stateMutability": "nonpayable",
            "type": "function"
        },
        {
            "inputs": [],
            "name": "mintFeeThreshold",
            "outputs": [
                {
                    "internalType": "uint256",
                    "name": "",
                    "type": "uint256"
                }
            ],
            "stateMutability": "view",
            "type": "function"
        },
        {
            "inputs": [],
            "name": "owner",
            "outputs": [
                {
                    "internalType": "address",
                    "name": "",
                    "type": "address"
                }
            ],
            "stateMutability": "view",
            "type": "function"
        },
        {
            "inputs": [],
            "name": "pause",
            "outputs": [],
            "stateMutability": "nonpayable",
            "type": "function"
        },
        {
            "inputs": [],
            "name": "paused",
            "outputs": [
                {
                    "internalType": "bool",
                    "name": "",
                    "type": "bool"
                }
            ],
            "stateMutability": "view",
            "type": "function"
        },
        {
            "inputs": [
                {
                    "internalType": "uint256",
                    "name": "_index",
                    "type": "uint256"
                }
            ],
            "name": "removeAsset",
            "outputs": [],
            "stateMutability": "nonpayable",
            "type": "function"
        },
        {
            "inputs": [],
            "name": "renounceOwnership",
            "outputs": [],
            "stateMutability": "nonpayable",
            "type": "function"
        },
        {
            "inputs": [
                {
                    "internalType": "address",
                    "name": "from",
                    "type": "address"
                },
                {
                    "internalType": "address",
                    "name": "to",
                    "type": "address"
                },
                {
                    "internalType": "uint256[]",
                    "name": "ids",
                    "type": "uint256[]"
                },
                {
                    "internalType": "uint256[]",
                    "name": "amounts",
                    "type": "uint256[]"
                },
                {
                    "internalType": "bytes",
                    "name": "data",
                    "type": "bytes"
                }
            ],
            "name": "safeBatchTransferFrom",
            "outputs": [],
            "stateMutability": "nonpayable",
            "type": "function"
        },
        {
            "inputs": [
                {
                    "internalType": "address",
                    "name": "from",
                    "type": "address"
                },
                {
                    "internalType": "address",
                    "name": "to",
                    "type": "address"
                },
                {
                    "internalType": "uint256",
                    "name": "id",
                    "type": "uint256"
                },
                {
                    "internalType": "uint256",
                    "name": "amount",
                    "type": "uint256"
                },
                {
                    "internalType": "bytes",
                    "name": "data",
                    "type": "bytes"
                }
            ],
            "name": "safeTransferFrom",
            "outputs": [],
            "stateMutability": "nonpayable",
            "type": "function"
        },
        {
            "inputs": [
                {
                    "internalType": "uint256",
                    "name": "_newA",
                    "type": "uint256"
                }
            ],
            "name": "setA",
            "outputs": [],
            "stateMutability": "nonpayable",
            "type": "function"
        },
        {
            "inputs": [
                {
                    "internalType": "address",
                    "name": "operator",
                    "type": "address"
                },
                {
                    "internalType": "bool",
                    "name": "approved",
                    "type": "bool"
                }
            ],
            "name": "setApprovalForAll",
            "outputs": [],
            "stateMutability": "nonpayable",
            "type": "function"
        },
        {
            "inputs": [
                {
                    "internalType": "address",
                    "name": "_newDev",
                    "type": "address"
                }
            ],
            "name": "setDev",
            "outputs": [],
            "stateMutability": "nonpayable",
            "type": "function"
        },
        {
            "inputs": [
                {
                    "internalType": "uint256",
                    "name": "_newLpDividendRatio",
                    "type": "uint256"
                }
            ],
            "name": "setFeeRatio",
            "outputs": [],
            "stateMutability": "nonpayable",
            "type": "function"
        },
        {
            "inputs": [
                {
                    "internalType": "address",
                    "name": "_newFeeTo",
                    "type": "address"
                }
            ],
            "name": "setFeeTo",
            "outputs": [],
            "stateMutability": "nonpayable",
            "type": "function"
        },
        {
            "inputs": [
                {
                    "internalType": "uint256",
                    "name": "_newLpFee",
                    "type": "uint256"
                }
            ],
            "name": "setLPFee",
            "outputs": [],
            "stateMutability": "nonpayable",
            "type": "function"
        },
        {
            "inputs": [
                {
                    "internalType": "uint256",
                    "name": "_newMintFeeThreshold",
                    "type": "uint256"
                }
            ],
            "name": "setMintFeeThreshold",
            "outputs": [],
            "stateMutability": "nonpayable",
            "type": "function"
        },
        {
            "inputs": [
                {
                    "internalType": "address",
                    "name": "_newVeSIS",
                    "type": "address"
                }
            ],
            "name": "setVeSISAddress",
            "outputs": [],
            "stateMutability": "nonpayable",
            "type": "function"
        },
        {
            "inputs": [
                {
                    "internalType": "uint256",
                    "name": "_id",
                    "type": "uint256"
                },
                {
                    "internalType": "uint256",
                    "name": "_amount",
                    "type": "uint256"
                }
            ],
            "name": "spreadAccumulatedError",
            "outputs": [],
            "stateMutability": "nonpayable",
            "type": "function"
        },
        {
            "inputs": [
                {
                    "internalType": "bytes4",
                    "name": "interfaceId",
                    "type": "bytes4"
                }
            ],
            "name": "supportsInterface",
            "outputs": [
                {
                    "internalType": "bool",
                    "name": "",
                    "type": "bool"
                }
            ],
            "stateMutability": "view",
            "type": "function"
        },
        {
            "inputs": [
                {
                    "internalType": "uint256",
                    "name": "_fromID",
                    "type": "uint256"
                },
                {
                    "internalType": "uint256",
                    "name": "_toID",
                    "type": "uint256"
                },
                {
                    "internalType": "uint256",
                    "name": "_fromAmount",
                    "type": "uint256"
                },
                {
                    "internalType": "uint256",
                    "name": "_minToAmount",
                    "type": "uint256"
                },
                {
                    "internalType": "address",
                    "name": "_to",
                    "type": "address"
                },
                {
                    "internalType": "uint256",
                    "name": "_deadline",
                    "type": "uint256"
                }
            ],
            "name": "swap",
            "outputs": [
                {
                    "internalType": "uint256",
                    "name": "actualToAmount",
                    "type": "uint256"
                },
                {
                    "internalType": "uint256",
                    "name": "lpFeeAmount",
                    "type": "uint256"
                }
            ],
            "stateMutability": "nonpayable",
            "type": "function"
        },
        {
            "inputs": [
                {
                    "internalType": "address",
                    "name": "newOwner",
                    "type": "address"
                }
            ],
            "name": "transferOwnership",
            "outputs": [],
            "stateMutability": "nonpayable",
            "type": "function"
        },
        {
            "inputs": [],
            "name": "unpause",
            "outputs": [],
            "stateMutability": "nonpayable",
            "type": "function"
        },
        {
            "inputs": [
                {
                    "internalType": "uint256",
                    "name": "",
                    "type": "uint256"
                }
            ],
            "name": "uri",
            "outputs": [
                {
                    "internalType": "string",
                    "name": "",
                    "type": "string"
                }
            ],
            "stateMutability": "view",
            "type": "function"
        },
        {
            "inputs": [],
            "name": "veSIS",
            "outputs": [
                {
                    "internalType": "address",
                    "name": "",
                    "type": "address"
                }
            ],
            "stateMutability": "view",
            "type": "function"
        },
        {
            "inputs": [
                {
                    "internalType": "uint256",
                    "name": "_id",
                    "type": "uint256"
                },
                {
                    "internalType": "uint256",
                    "name": "_liquidity",
                    "type": "uint256"
                },
                {
                    "internalType": "uint256",
                    "name": "_minAmount",
                    "type": "uint256"
                },
                {
                    "internalType": "address",
                    "name": "_to",
                    "type": "address"
                },
                {
                    "internalType": "uint256",
                    "name": "_deadline",
                    "type": "uint256"
                }
            ],
            "name": "withdraw",
            "outputs": [
                {
                    "internalType": "uint256",
                    "name": "amount",
                    "type": "uint256"
                },
                {
                    "internalType": "uint256",
                    "name": "fee",
                    "type": "uint256"
                }
            ],
            "stateMutability": "nonpayable",
            "type": "function"
        }
    ],
    "bytecode": "0x608060405234801561001057600080fd5b50614038806100206000396000f3fe608060405234801561001057600080fd5b50600436106102525760003560e01c80638a2dfe0911610146578063d477f05f116100c3578063f14f58f111610087578063f14f58f1146105c4578063f242432a146105d7578063f2fde38b146105ea578063f3f6f0d7146105fd578063f46901ed14610606578063f6f70eaf1461061957600080fd5b8063d477f05f1461053b578063d49e77cd1461054e578063e4a3011614610562578063e985e9c514610575578063ee919d50146105b157600080fd5b80639eeb6a221161010a5780639eeb6a2214610450578063a22cb465146104ee578063ce016ea114610501578063cfc399ea14610514578063d043c5651461052857600080fd5b80638a2dfe09146103fe5780638a35ace3146104065780638c9a4bb8146104195780638da5cb5b1461042c5780638f6bdeaa1461043d57600080fd5b80634422a8dd116101d45780635f4b9bde116101985780635f4b9bde146103c8578063704ce43e146103db578063715018a6146103e4578063815bfd29146103ec5780638456cb59146103f657600080fd5b80634422a8dd146103585780634e1273f41461038057806353cb6a5e146103a05780635c975abb146103b35780635cfe092e146103be57600080fd5b806319f4ff2f1161021b57806319f4ff2f146102f5578063265e7bde1461030a5780632eb2c2d61461031d57806339e59945146103305780633f4ba83a1461035057600080fd5b8062fdd58e14610257578063017e7e581461027d57806301ffc9a7146102a95780630dbe671f146102cc5780630e89341c146102d5575b600080fd5b61026a6102653660046134de565b61062c565b6040519081526020015b60405180910390f35b61010354610291906001600160a01b031681565b6040516001600160a01b039091168152602001610274565b6102bc6102b736600461363c565b6106c7565b6040519015158152602001610274565b61026a60fe5481565b6102e86102e3366004613676565b610717565b60405161027491906138b5565b610308610303366004613676565b6107ab565b005b6103086103183660046136a8565b610820565b61030861032b366004613398565b61083d565b61026a61033e36600461334a565b60fc6020526000908152604090205481565b610308610889565b61036b6103663660046136ca565b6108be565b60408051928352602083019190915201610274565b61039361038e36600461354e565b610ad6565b604051610274919061387d565b6103086103ae366004613676565b610c00565b60655460ff166102bc565b61026a6101015481565b61036b6103d63660046136ca565b610c65565b61026a60ff5481565b610308610eb6565b61026a6101005481565b610308610ec8565b61036b610efb565b610308610414366004613676565b610f2b565b6103086104273660046136a8565b610f37565b6033546001600160a01b0316610291565b61036b61044b366004613711565b6110ca565b6104ab61045e366004613676565b60fb60205260009081526040902080546001820154600283015460038401546004909401549293919290919060ff808216916001600160a01b0361010082041691600160a81b9091041687565b60408051978852602088019690965294860193909352606085019190915260ff1660808401526001600160a01b031660a0830152151560c082015260e001610274565b6103086104fc3660046134a7565b611348565b61030861050f366004613508565b611357565b61010454610291906001600160a01b031681565b610308610536366004613676565b61144b565b61030861054936600461334a565b611489565b61010254610291906001600160a01b031681565b6103086105703660046136a8565b61150f565b6102bc610583366004613365565b6001600160a01b03918216600090815260ca6020908152604080832093909416825291909152205460ff1690565b6103086105bf366004613676565b611682565b6103086105d2366004613676565b6116e9565b6103086105e5366004613442565b61170f565b6103086105f836600461334a565b611754565b61026a60fd5481565b61030861061436600461334a565b6117ca565b61030861062736600461334a565b611848565b60006001600160a01b03831661069c5760405162461bcd60e51b815260206004820152602a60248201527f455243313135353a2061646472657373207a65726f206973206e6f742061207660448201526930b634b21037bbb732b960b11b60648201526084015b60405180910390fd5b50600081815260c9602090815260408083206001600160a01b03861684529091529020545b92915050565b60006001600160e01b03198216636cdb3d1360e11b14806106f857506001600160e01b031982166303a24d0760e21b145b806106c157506301ffc9a760e01b6001600160e01b03198316146106c1565b606060cb805461072690613e19565b80601f016020809104026020016040519081016040528092919081815260200182805461075290613e19565b801561079f5780601f106107745761010080835404028352916020019161079f565b820191906000526020600020905b81548152906001019060200180831161078257829003601f168201915b50505050509050919050565b6107b3611873565b670de0b6b3a76400008111156107db5760405162461bcd60e51b815260040161069390613a37565b6107e36118cd565b6101008190556040518181527f63fe946ed58429ac3c5e64d4356ff92c26d7fa1e73586515df8ba9f059ab54a5906020015b60405180910390a150565b610828611873565b600091825260fb602052604090912060020155565b6001600160a01b03851633148061085957506108598533610583565b6108755760405162461bcd60e51b8152600401610693906138c8565b61088285858585856118f5565b5050505050565b610102546001600160a01b031633146108b45760405162461bcd60e51b81526004016106939061395f565b6108bc611ad5565b565b6000806108c9611b27565b824281116108e95760405162461bcd60e51b815260040161069390613a5e565b846001600160a01b0381166109105760405162461bcd60e51b815260040161069390613982565b8761092d5760405162461bcd60e51b815260040161069390613a88565b600089815260fb60205260409020610946338b8b611b6d565b61094f8a611cf1565b600481015460009060ff166109648c8c611e22565b9198509096509150866109778b83611f88565b106109945760405162461bcd60e51b815260040161069390613afb565b868360000160008282546109a89190613db3565b92505081905550818360010160008282546109c39190613db3565b925050819055508a8360030160008282546109de9190613db3565b909155505060018301541580610a155750610a026064670de0b6b3a7640000613bce565b60018401548454610a1291611ff0565b10155b610a315760405162461bcd60e51b81526004016106939061395f565b610a5933610a3f898461202b565b600486015461010090046001600160a01b0316919061205b565b60048301546001600160a01b03808b169133917ffb80d861da582b723be2d19507ce3e03851820c464abea89156ec77e089b1ad991610100900416610a9e8b8661202b565b604080516001600160a01b039093168352602083019190915281018f905260600160405180910390a350505050509550959350505050565b60608151835114610b3b5760405162461bcd60e51b815260206004820152602960248201527f455243313135353a206163636f756e747320616e6420696473206c656e677468604482015268040dad2e6dac2e8c6d60bb1b6064820152608401610693565b6000835167ffffffffffffffff811115610b5757610b57613efb565b604051908082528060200260200182016040528015610b80578160200160208202803683370190505b50905060005b8451811015610bf857610bcb858281518110610ba457610ba4613ee5565b6020026020010151858381518110610bbe57610bbe613ee5565b602002602001015161062c565b828281518110610bdd57610bdd613ee5565b6020908102919091010152610bf181613e81565b9050610b86565b509392505050565b610c08611873565b670de0b6b3a7640000811115610c305760405162461bcd60e51b815260040161069390613a37565b60ff8190556040518181527f0df0ce83543295289f05f3782542da3058e533082716a3b74f8913499444f3c590602001610815565b600080610c70611b27565b82428111610c905760405162461bcd60e51b815260040161069390613a5e565b846001600160a01b038116610cb75760405162461bcd60e51b815260040161069390613982565b87610cf25760405162461bcd60e51b815260206004820152600b60248201526a16995c9bc8185b5bdd5b9d60aa1b6044820152606401610693565b600089815260fb6020526040902060040154610d1e9061010090046001600160a01b031633308b6120be565b610d2789611cf1565b600089815260fb6020526040812060040154610d52908b90610d4d908c9060ff16611f88565b6120fc565b919650909450905084610d775760405162461bcd60e51b815260040161069390613a88565b848810610d965760405162461bcd60e51b815260040161069390613afb565b60008a815260fb6020526040902060040154610db6908a9060ff16611f88565b60008b815260fb602052604081208054909190610dd4908490613b88565b909155505060008a815260fb602052604081206001018054839290610dfa908490613b88565b909155505060008a815260fb602052604081206003018054879290610e20908490613b88565b92505081905550610e42878b87604051806020016040528060008152506122df565b60008a815260fb60209081526040918290206004015482513381529182018c90529181018790526001600160a01b0389811692610100900416907ff5dd9317b9e63ac316ce44acc85f670b54b339cfa3e9076e1dd55065b922314b9060600160405180910390a35050509550959350505050565b610ebe611873565b6108bc60006123ec565b610102546001600160a01b03163314610ef35760405162461bcd60e51b81526004016106939061395f565b6108bc61243e565b600080600080610f0961247b565b80925081935050506000610f20838360fe54612511565b959294509192505050565b610f3481611cf1565b50565b610102546001600160a01b03163314610f625760405162461bcd60e51b81526004016106939061395f565b6000828152610105602090815260408083205460fb909252808320805460049182015492516370a0823160e01b81523092810192909252916110119160ff82169161010090046001600160a01b0316906370a082319060240160206040518083038186803b158015610fd357600080fd5b505afa158015610fe7573d6000803e3d6000fd5b505050506040513d601f19601f8201168201806040525081019061100b919061368f565b90611f88565b61101b9190613db3565b6110259190613db3565b9050808211156110475760405162461bcd60e51b815260040161069390613a37565b600083815260fb602052604081208054849290611065908490613b88565b9091555050600083815260fb60209081526040918290206004015482516101009091046001600160a01b031681529081018490527f4941e18a2bcbb0f9fa0081238f26793a8ad8c202b913ae8bf5f7e523f68ff13791015b60405180910390a1505050565b6000806110d5611b27565b824281116110f55760405162461bcd60e51b815260040161069390613a5e565b846001600160a01b03811661111c5760405162461bcd60e51b815260040161069390613982565b600089815260fb60205260408082206004908101548d84529190922090910154610100918290046001600160a01b03908116929091041614156111905760405162461bcd60e51b815260206004820152600c60248201526b53616d65206164647265737360a01b6044820152606401610693565b876111cb5760405162461bcd60e51b815260206004820152600b60248201526a16995c9bc8185b5bdd5b9d60aa1b6044820152606401610693565b60008a815260fb6020526040902060040154611218908b908b906111f3908c9060ff16611f88565b60008d815260fb6020526040902060040154611213908c9060ff16611f88565b61253c565b60008b815260fb6020526040902060040154919550935061123d90859060ff1661202b565b60008a815260fb602052604090206004015490945061126090849060ff1661202b565b60008b815260fb602052604090206004015490935061128f9061010090046001600160a01b031633308b6120be565b600089815260fb60205260409020600401546112ba9061010090046001600160a01b0316878661205b565b60008a815260fb602090815260408083206004908101548d855293829020015481516001600160a01b0361010095869004811682529490910484169281019290925281018a9052606081018690529087169033907f54787c404bb33c88e86f4baf88183a3b0141d0a848e6a9f7a13b66ae3a9b73d19060800160405180910390a35050965096945050505050565b61135333838361263c565b5050565b61135f611873565b6040805160e081018252600080825260208083018281528385018781526060850184815260ff808916608088019081526001600160a01b03808d1660a08a01908152600160c08b0181815260fd80548c5260fb909a529b8a209a518b559651968a01969096559351600289015591516003880155905160049096018054935197511515600160a81b0260ff60a81b1998909316610100026001600160a81b031990941696909116959095179190911794909416939093179091558154919061142683613e81565b909155506001600160a01b03909316600090815260fc60205260409020929092555050565b611453611873565b6101018190556040518181527f71592c407ca0abb34bb7ada163a2a8b25a2e58342a3c0926df1b9ce73cb214a590602001610815565b611491611873565b806001600160a01b0381166114b85760405162461bcd60e51b815260040161069390613982565b61010280546001600160a01b0319166001600160a01b0384169081179091556040519081527fc221fc4c7e5fe6682d7dbb36b97edf0a75127b7ef5c0ffafcbb981689a7bf78b906020015b60405180910390a15050565b600054610100900460ff161580801561152f5750600054600160ff909116105b806115495750303b158015611549575060005460ff166001145b6115ac5760405162461bcd60e51b815260206004820152602e60248201527f496e697469616c697a61626c653a20636f6e747261637420697320616c72656160448201526d191e481a5b9a5d1a585b1a5e995960921b6064820152608401610693565b6000805460ff1916600117905580156115cf576000805461ff0019166101001790555b6115d761271d565b6115df61274c565b611600604051806060016040528060278152602001613fdc6027913961277f565b60fe83905560ff829055670de0b6b3a7640000610100556101048054336001600160a01b0319918216811790925561010280549091169091179055801561167d576000805461ff0019169055604051600181527f7f26b83ff96e1f2b6a682f133852f6798a09c465da95921460cefb3847402498906020016110bd565b505050565b61168a611873565b670de0b6b3a764000060fe5411156116b45760405162461bcd60e51b815260040161069390613a37565b60fe8190556040518181527f3f4ccc115548cf9126e487dcdf7c805dbb3578de78180051ace88afa59675e9c90602001610815565b6116f1611873565b600090815260fb60205260409020600401805460ff60a81b19169055565b6001600160a01b03851633148061172b575061172b8533610583565b6117475760405162461bcd60e51b8152600401610693906138c8565b61088285858585856127af565b61175c611873565b6001600160a01b0381166117c15760405162461bcd60e51b815260206004820152602660248201527f4f776e61626c653a206e6577206f776e657220697320746865207a65726f206160448201526564647265737360d01b6064820152608401610693565b610f34816123ec565b6117d2611873565b806001600160a01b0381166117f95760405162461bcd60e51b815260040161069390613982565b61010380546001600160a01b0319166001600160a01b0384169081179091556040519081527fd7ecd1f497e38c39a3455e0704e1bddc382baa8059756b571ff24b92cab7ff5490602001611503565b611850611873565b61010480546001600160a01b0319166001600160a01b0392909216919091179055565b6033546001600160a01b031633146108bc5760405162461bcd60e51b815260206004820181905260248201527f4f776e61626c653a2063616c6c6572206973206e6f7420746865206f776e65726044820152606401610693565b60005b60fd54811015610f34576118e381611cf1565b806118ed81613e81565b9150506118d0565b81518351146119575760405162461bcd60e51b815260206004820152602860248201527f455243313135353a2069647320616e6420616d6f756e7473206c656e677468206044820152670dad2e6dac2e8c6d60c31b6064820152608401610693565b6001600160a01b03841661197d5760405162461bcd60e51b8152600401610693906139a8565b3360005b8451811015611a6757600085828151811061199e5761199e613ee5565b6020026020010151905060008583815181106119bc576119bc613ee5565b602090810291909101810151600084815260c9835260408082206001600160a01b038e168352909352919091205490915081811015611a0d5760405162461bcd60e51b8152600401610693906139ed565b600083815260c9602090815260408083206001600160a01b038e8116855292528083208585039055908b16825281208054849290611a4c908490613b88565b9250508190555050505080611a6090613e81565b9050611981565b50846001600160a01b0316866001600160a01b0316826001600160a01b03167f4a39dc06d4c0dbc64b70af90fd698a233a518aa5d07e595d983b8c0526c8f7fb8787604051611ab7929190613890565b60405180910390a4611acd8187878787876128dd565b505050505050565b611add612a48565b6065805460ff191690557f5db9ee0a495bf2e6ff9c91a7834c1ba4fdd244a5e8aa4e537bd38aeae4b073aa335b6040516001600160a01b03909116815260200160405180910390a1565b60655460ff16156108bc5760405162461bcd60e51b815260206004820152601060248201526f14185d5cd8589b194e881c185d5cd95960821b6044820152606401610693565b6001600160a01b038316611bcf5760405162461bcd60e51b815260206004820152602360248201527f455243313135353a206275726e2066726f6d20746865207a65726f206164647260448201526265737360e81b6064820152608401610693565b336000611bdb84612a91565b90506000611be884612a91565b604080516020808201835260009182905288825260c981528282206001600160a01b038b1683529052205490915084811015611c725760405162461bcd60e51b8152602060048201526024808201527f455243313135353a206275726e20616d6f756e7420657863656564732062616c604482015263616e636560e01b6064820152608401610693565b600086815260c9602090815260408083206001600160a01b038b81168086529184528285208a8703905582518b81529384018a90529092908816917fc3d58168c5ae7397731d063d5bbf3d657854427343f4c083240f7aacaa2d0f62910160405180910390a46040805160208101909152600090525b50505050505050565b60008181526101056020526040902054801580611d1057506101015481105b15611d19575050565b6000611d3c61010054670de0b6b3a7640000611d359190613db3565b8390612adc565b90508015611d9d5761010454600084815260fb6020526040902060040154611d9d916001600160a01b031690611d7690849060ff1661202b565b600086815260fb602052604090206004015461010090046001600160a01b0316919061205b565b6000611da98284613db3565b90508015611e0d576000611dbd85836120fc565b50600087815260fb60205260408120600101805492945084935091611de3908490613b88565b9091555050600085815260fb602052604081208054849290611e06908490613b88565b9091555050505b50505060009081526101056020526040812055565b600082815260fb60205260408120600381015460019091015482918291611e4a908690613d55565b611e549190613bce565b915081611e735760405162461bcd60e51b815260040161069390613a88565b6000611e7e83613e9c565b600087815260fb60205260408120805460019091015460fe5493945090929091611ea88584613b47565b90506000611eb68585612afc565b90506000611ed8611ec78584612afc565b611ed19084613d74565b8690612b30565b905060006002611efa611ef387670de0b6b3a7640000613d74565b8a90612b30565b611f049084613b47565b611f0e9190613ba0565b90506000611f4482611f2a611f238880613cd0565b8990612b30565b611f348580613cd0565b611f3e9190613b47565b90612b50565b611f4e9083613b47565b9050611f5a8189613d74565b9b508b8b10611f7457611f6d8c8c613db3565b9950611f78565b8a9b505b5050505050505050509250925092565b600060128260ff161015611fbd57611fa1826012613dca565b611fac90600a613c25565b611fb69084613d55565b90506106c1565b60128260ff161115611fe957611fd4601283613dca565b611fdf90600a613c25565b611fb69084613bce565b5090919050565b600081611ffe600282613bce565b612010670de0b6b3a764000086613d55565b61201a9190613b88565b6120249190613bce565b9392505050565b600060128260ff16101561204457611fd4826012613dca565b60128260ff161115611fe957611fa1601283613dca565b6040516001600160a01b03831660248201526044810182905261167d90849063a9059cbb60e01b906064015b60408051601f198184030181529190526020810180516001600160e01b03166001600160e01b031990931692909217909152612c14565b6040516001600160a01b03808516602483015283166044820152606481018290526120f69085906323b872dd60e01b90608401612087565b50505050565b600082815260fb60205260408120805460019091015460fe54839283928692816121285787955061226e565b60006121348585613b47565b12156121525760405162461bcd60e51b815260040161069390613a37565b600061215e8484612afc565b9050600061216c8587613b47565b9050600061217a8486612b30565b612185906002613cd0565b6121a161219a86670de0b6b3a7640000613d74565b8490612b30565b6121ab9190613b47565b905060006121c3866121bd8782612b30565b90612b30565b6121cd8480612b30565b6121ef866121db8a8a613cd0565b6121e59190613ba0565b611ed1908b613d74565b6121f99190613d74565b6122039190613b47565b9050600081612213876004613cd0565b61221d9190613cd0565b6122278480613cd0565b6122319190613d74565b9050600261225c876122438487612b50565b61224c87613e9c565b6122569190613b47565b90612afc565b6122669190613ba0565b9a5050505050505b8786106122865761227f8887613db3565b945061228a565b8795505b600089815260fb602052604090206001015480156122cf5760008a815260fb602052604090206003015481906122c09089613d55565b6122ca9190613bce565b6122d1565b865b975050505050509250925092565b6001600160a01b03841661233f5760405162461bcd60e51b815260206004820152602160248201527f455243313135353a206d696e7420746f20746865207a65726f206164647265736044820152607360f81b6064820152608401610693565b33600061234b85612a91565b9050600061235885612a91565b9050600086815260c9602090815260408083206001600160a01b038b1684529091528120805487929061238c908490613b88565b909155505060408051878152602081018790526001600160a01b03808a1692600092918716917fc3d58168c5ae7397731d063d5bbf3d657854427343f4c083240f7aacaa2d0f62910160405180910390a4611ce883600089898989612ce6565b603380546001600160a01b038381166001600160a01b0319831681179093556040519116919082907f8be0079c531659141344cd1fd0a4f28419497f9722a3daafe3b4186f6b6457e090600090a35050565b612446611b27565b6065805460ff191660011790557f62e78cea01bee320cd4e420270b5ea74000d11b0c9f74754ebdbfc544b05a258611b0a3390565b60fe546000908190815b60fd5481101561250b57600081815260fb602052604090208054600190910154806124b15750506124f9565b60006124bd8383612afc565b90506124c98287613b47565b95506124e96124d88683612afc565b6124e29083613d74565b8390612b30565b6124f39088613b47565b96505050505b8061250381613e81565b915050612485565b50509091565b60008061251e8585612afc565b61252790613e9c565b90506125338184612db0565b95945050505050565b60008061254a868686612deb565b909250905081831061256e5760405162461bcd60e51b815260040161069390613afb565b600085815261010560205260408120805483929061258d908490613b88565b9091555050600086815260fb6020526040812080548692906125b0908490613b88565b909155506125c090508183613b88565b600086815260fb6020526040812080549091906125de908490613db3565b909155506125f790506064670de0b6b3a7640000613bce565b600086815260fb602052604090206001810154905461261591611ff0565b10156126335760405162461bcd60e51b81526004016106939061395f565b94509492505050565b816001600160a01b0316836001600160a01b031614156126b05760405162461bcd60e51b815260206004820152602960248201527f455243313135353a2073657474696e6720617070726f76616c20737461747573604482015268103337b91039b2b63360b91b6064820152608401610693565b6001600160a01b03838116600081815260ca6020908152604080832094871680845294825291829020805460ff191686151590811790915591519182527f17307eab39ab6107e8899845ad3d59bd9653f200f220920489ca2b5937696c31910160405180910390a3505050565b600054610100900460ff166127445760405162461bcd60e51b815260040161069390613ab0565b6108bc612fb6565b600054610100900460ff166127735760405162461bcd60e51b815260040161069390613ab0565b6065805460ff19169055565b600054610100900460ff166127a65760405162461bcd60e51b815260040161069390613ab0565b610f3481612fe6565b6001600160a01b0384166127d55760405162461bcd60e51b8152600401610693906139a8565b3360006127e185612a91565b905060006127ee85612a91565b9050600086815260c9602090815260408083206001600160a01b038c168452909152902054858110156128335760405162461bcd60e51b8152600401610693906139ed565b600087815260c9602090815260408083206001600160a01b038d8116855292528083208985039055908a16825281208054889290612872908490613b88565b909155505060408051888152602081018890526001600160a01b03808b16928c821692918816917fc3d58168c5ae7397731d063d5bbf3d657854427343f4c083240f7aacaa2d0f62910160405180910390a46128d2848a8a8a8a8a612ce6565b505050505050505050565b6001600160a01b0384163b15611acd5760405163bc197c8160e01b81526001600160a01b0385169063bc197c819061292190899089908890889088906004016137e5565b602060405180830381600087803b15801561293b57600080fd5b505af192505050801561296b575060408051601f3d908101601f1916820190925261296891810190613659565b60015b612a1857612977613f11565b806308c379a014156129b1575061298c613f2d565b8061299757506129b3565b8060405162461bcd60e51b815260040161069391906138b5565b505b60405162461bcd60e51b815260206004820152603460248201527f455243313135353a207472616e7366657220746f206e6f6e20455243313135356044820152732932b1b2b4bb32b91034b6b83632b6b2b73a32b960611b6064820152608401610693565b6001600160e01b0319811663bc197c8160e01b14611ce85760405162461bcd60e51b815260040161069390613917565b60655460ff166108bc5760405162461bcd60e51b815260206004820152601460248201527314185d5cd8589b194e881b9bdd081c185d5cd95960621b6044820152606401610693565b60408051600180825281830190925260609160009190602080830190803683370190505090508281600081518110612acb57612acb613ee5565b602090810291909101015292915050565b6000670de0b6b3a7640000612af2600282613bce565b6120108486613d55565b600081612b0a600282613ba0565b612b1c670de0b6b3a764000086613cd0565b612b269190613b47565b6120249190613ba0565b6000670de0b6b3a7640000612b46600282613ba0565b612b1c8486613cd0565b60006003831315612c0557600082138015612b6b5750828213155b15612b77575080612ba7565b600082128015612b8f575082612b8c83613e9c565b13155b15612ba457612b9d82613e9c565b9050612ba7565b50815b6000600282612bb68187613ba0565b612bc09190613b47565b612bca9190613ba0565b90505b818114612bff57905080600281612be48187613ba0565b612bee9190613b47565b612bf89190613ba0565b9050612bcd565b506106c1565b82156106c15750600192915050565b6000612c69826040518060400160405280602081526020017f5361666545524332303a206c6f772d6c6576656c2063616c6c206661696c6564815250856001600160a01b03166130169092919063ffffffff16565b80519091501561167d5780806020019051810190612c87919061361f565b61167d5760405162461bcd60e51b815260206004820152602a60248201527f5361666545524332303a204552433230206f7065726174696f6e20646964206e6044820152691bdd081cdd58d8d9595960b21b6064820152608401610693565b6001600160a01b0384163b15611acd5760405163f23a6e6160e01b81526001600160a01b0385169063f23a6e6190612d2a9089908990889088908890600401613843565b602060405180830381600087803b158015612d4457600080fd5b505af1925050508015612d74575060408051601f3d908101601f19168201909252612d7191810190613659565b60015b612d8057612977613f11565b6001600160e01b0319811663f23a6e6160e01b14611ce85760405162461bcd60e51b815260040161069390613917565b6000600283612de181670de0b6b3a7640000612dcd876004613cd0565b612dd79190613cd0565b611f348880613cd0565b612b269190613d74565b600082815260fb602052604080822080548684529183208054600191820154878652919092015460fe54859485949093849391929091908115801590612e3057508215155b612e4c5760405162461bcd60e51b815260040161069390613a37565b6000612e8586612e5c8580613cd0565b612e669190613ba0565b86612e718780613cd0565b612e7b9190613ba0565b6124e29190613b47565b612e8f8787613b47565b612e999190613d74565b90506000612eab856122568e89613b47565b90506000612eb98386612afc565b85612ec48685612afc565b612ece9085613d74565b612ed89089613cd0565b612ee29190613ba0565b612eec9190613d74565b90506000612efa8286612db0565b9050600089612f098884612b30565b612f139190613d74565b90506000811215612f2e57612f2781613e9c565b9b50612f32565b809b505b8b8b1015612f745760405162461bcd60e51b815260206004820152600f60248201526e09cdee840cadcdeeaced040c6c2e6d608b1b6044820152606401610693565b60ff54612f82908d90612adc565b9c5060008f1315612f9e57612f978d8d613db3565b9d50612fa2565b8b9d505b505050505050505050505050935093915050565b600054610100900460ff16612fdd5760405162461bcd60e51b815260040161069390613ab0565b6108bc336123ec565b600054610100900460ff1661300d5760405162461bcd60e51b815260040161069390613ab0565b610f348161302d565b60606130258484600085613040565b949350505050565b80516113539060cb9060208401906131aa565b6060824710156130a15760405162461bcd60e51b815260206004820152602660248201527f416464726573733a20696e73756666696369656e742062616c616e636520666f6044820152651c8818d85b1b60d21b6064820152608401610693565b6001600160a01b0385163b6130f85760405162461bcd60e51b815260206004820152601d60248201527f416464726573733a2063616c6c20746f206e6f6e2d636f6e74726163740000006044820152606401610693565b600080866001600160a01b0316858760405161311491906137c9565b60006040518083038185875af1925050503d8060008114613151576040519150601f19603f3d011682016040523d82523d6000602084013e613156565b606091505b5091509150613166828286613171565b979650505050505050565b60608315613180575081612024565b8251156131905782518084602001fd5b8160405162461bcd60e51b815260040161069391906138b5565b8280546131b690613e19565b90600052602060002090601f0160209004810192826131d8576000855561321e565b82601f106131f157805160ff191683800117855561321e565b8280016001018555821561321e579182015b8281111561321e578251825591602001919060010190613203565b5061322a92915061322e565b5090565b5b8082111561322a576000815560010161322f565b80356001600160a01b038116811461325a57600080fd5b919050565b600082601f83011261327057600080fd5b8135602061327d82613b23565b60405161328a8282613e54565b8381528281019150858301600585901b870184018810156132aa57600080fd5b60005b858110156132c9578135845292840192908401906001016132ad565b5090979650505050505050565b600082601f8301126132e757600080fd5b813567ffffffffffffffff81111561330157613301613efb565b604051613318601f8301601f191660200182613e54565b81815284602083860101111561332d57600080fd5b816020850160208301376000918101602001919091529392505050565b60006020828403121561335c57600080fd5b61202482613243565b6000806040838503121561337857600080fd5b61338183613243565b915061338f60208401613243565b90509250929050565b600080600080600060a086880312156133b057600080fd5b6133b986613243565b94506133c760208701613243565b9350604086013567ffffffffffffffff808211156133e457600080fd5b6133f089838a0161325f565b9450606088013591508082111561340657600080fd5b61341289838a0161325f565b9350608088013591508082111561342857600080fd5b50613435888289016132d6565b9150509295509295909350565b600080600080600060a0868803121561345a57600080fd5b61346386613243565b945061347160208701613243565b93506040860135925060608601359150608086013567ffffffffffffffff81111561349b57600080fd5b613435888289016132d6565b600080604083850312156134ba57600080fd5b6134c383613243565b915060208301356134d381613fb7565b809150509250929050565b600080604083850312156134f157600080fd5b6134fa83613243565b946020939093013593505050565b60008060006060848603121561351d57600080fd5b61352684613243565b925060208401359150604084013560ff8116811461354357600080fd5b809150509250925092565b6000806040838503121561356157600080fd5b823567ffffffffffffffff8082111561357957600080fd5b818501915085601f83011261358d57600080fd5b8135602061359a82613b23565b6040516135a78282613e54565b8381528281019150858301600585901b870184018b10156135c757600080fd5b600096505b848710156135f1576135dd81613243565b8352600196909601959183019183016135cc565b509650508601359250508082111561360857600080fd5b506136158582860161325f565b9150509250929050565b60006020828403121561363157600080fd5b815161202481613fb7565b60006020828403121561364e57600080fd5b813561202481613fc5565b60006020828403121561366b57600080fd5b815161202481613fc5565b60006020828403121561368857600080fd5b5035919050565b6000602082840312156136a157600080fd5b5051919050565b600080604083850312156136bb57600080fd5b50508035926020909101359150565b600080600080600060a086880312156136e257600080fd5b85359450602086013593506040860135925061370060608701613243565b949793965091946080013592915050565b60008060008060008060c0878903121561372a57600080fd5b8635955060208701359450604087013593506060870135925061374f60808801613243565b915060a087013590509295509295509295565b600081518084526020808501945080840160005b8381101561379257815187529582019590820190600101613776565b509495945050505050565b600081518084526137b5816020860160208601613ded565b601f01601f19169290920160200192915050565b600082516137db818460208701613ded565b9190910192915050565b6001600160a01b0386811682528516602082015260a06040820181905260009061381190830186613762565b82810360608401526138238186613762565b90508281036080840152613837818561379d565b98975050505050505050565b6001600160a01b03868116825285166020820152604081018490526060810183905260a0608082018190526000906131669083018461379d565b6020815260006120246020830184613762565b6040815260006138a36040830185613762565b82810360208401526125338185613762565b602081526000612024602083018461379d565b6020808252602f908201527f455243313135353a2063616c6c6572206973206e6f7420746f6b656e206f776e60408201526e195c881b9bdc88185c1c1c9bdd9959608a1b606082015260800190565b60208082526028908201527f455243313135353a204552433131353552656365697665722072656a656374656040820152676420746f6b656e7360c01b606082015260800190565b6020808252600990820152682337b93134b23232b760b91b604082015260600190565b6020808252600c908201526b5a65726f206164647265737360a01b604082015260600190565b60208082526025908201527f455243313135353a207472616e7366657220746f20746865207a65726f206164604082015264647265737360d81b606082015260800190565b6020808252602a908201527f455243313135353a20696e73756666696369656e742062616c616e636520666f60408201526939103a3930b739b332b960b11b606082015260800190565b6020808252600d908201526c496e76616c69642076616c756560981b604082015260600190565b60208082526010908201526f111958591b1a5b99481b9bdd081b595d60821b604082015260600190565b6020808252600e908201526d5a65726f206c697175696469747960901b604082015260600190565b6020808252602b908201527f496e697469616c697a61626c653a20636f6e7472616374206973206e6f74206960408201526a6e697469616c697a696e6760a81b606082015260800190565b6020808252600e908201526d416d6f756e7420746f6f206c6f7760901b604082015260600190565b600067ffffffffffffffff821115613b3d57613b3d613efb565b5060051b60200190565b600080821280156001600160ff1b0384900385131615613b6957613b69613eb9565b600160ff1b8390038412811615613b8257613b82613eb9565b50500190565b60008219821115613b9b57613b9b613eb9565b500190565b600082613baf57613baf613ecf565b600160ff1b821460001984141615613bc957613bc9613eb9565b500590565b600082613bdd57613bdd613ecf565b500490565b600181815b80851115613c1d578160001904821115613c0357613c03613eb9565b80851615613c1057918102915b93841c9390800290613be7565b509250929050565b600061202460ff841683600082613c3e575060016106c1565b81613c4b575060006106c1565b8160018114613c615760028114613c6b57613c87565b60019150506106c1565b60ff841115613c7c57613c7c613eb9565b50506001821b6106c1565b5060208310610133831016604e8410600b8410161715613caa575081810a6106c1565b613cb48383613be2565b8060001904821115613cc857613cc8613eb9565b029392505050565b60006001600160ff1b0381841382841380821686840486111615613cf657613cf6613eb9565b600160ff1b6000871282811687830589121615613d1557613d15613eb9565b60008712925087820587128484161615613d3157613d31613eb9565b87850587128184161615613d4757613d47613eb9565b505050929093029392505050565b6000816000190483118215151615613d6f57613d6f613eb9565b500290565b60008083128015600160ff1b850184121615613d9257613d92613eb9565b6001600160ff1b0384018313811615613dad57613dad613eb9565b50500390565b600082821015613dc557613dc5613eb9565b500390565b600060ff821660ff841680821015613de457613de4613eb9565b90039392505050565b60005b83811015613e08578181015183820152602001613df0565b838111156120f65750506000910152565b600181811c90821680613e2d57607f821691505b60208210811415613e4e57634e487b7160e01b600052602260045260246000fd5b50919050565b601f8201601f1916810167ffffffffffffffff81118282101715613e7a57613e7a613efb565b6040525050565b6000600019821415613e9557613e95613eb9565b5060010190565b6000600160ff1b821415613eb257613eb2613eb9565b5060000390565b634e487b7160e01b600052601160045260246000fd5b634e487b7160e01b600052601260045260246000fd5b634e487b7160e01b600052603260045260246000fd5b634e487b7160e01b600052604160045260246000fd5b600060033d1115613f2a5760046000803e5060005160e01c5b90565b600060443d1015613f3b5790565b6040516003193d81016004833e81513d67ffffffffffffffff8160248401118184111715613f6b57505050505090565b8285019150815181811115613f835750505050505090565b843d8701016020828501011115613f9d5750505050505090565b613fac60208286010187613e54565b509095945050505050565b8015158114610f3457600080fd5b6001600160e01b031981168114610f3457600080fdfe68747470733a2f2f6f63746f6e6674732e73796d62696f7369732e66696e616e63652f7b69647da26469706673582212209b97db15aa26bb9adf86f50dcbf3578f9e6736b208756e5385101ee5fd93934f64736f6c63430008050033",
    "linkReferences": {},
    "deployedLinkReferences": {}
}