{
    "_format": "hh-sol-artifact-1",
    "contractName": "Pool",
    "sourceName": "contracts/pool/Pool.sol",
    "abi": [
        {
            "anonymous": false,
            "inputs": [
                {
                    "indexed": true,
                    "internalType": "address",
                    "name": "account",
                    "type": "address"
                },
                {
                    "indexed": true,
                    "internalType": "address",
                    "name": "operator",
                    "type": "address"
                },
                {
                    "indexed": false,
                    "internalType": "bool",
                    "name": "approved",
                    "type": "bool"
                }
            ],
            "name": "ApprovalForAll",
            "type": "event"
        },
        {
            "anonymous": false,
            "inputs": [
                {
                    "indexed": true,
                    "internalType": "address",
                    "name": "token",
                    "type": "address"
                }
            ],
            "name": "AssetAdded",
            "type": "event"
        },
        {
            "anonymous": false,
            "inputs": [
                {
                    "indexed": true,
                    "internalType": "address",
                    "name": "token",
                    "type": "address"
                },
                {
                    "indexed": true,
                    "internalType": "bool",
                    "name": "status",
                    "type": "bool"
                }
            ],
            "name": "AssetStatusChanged",
            "type": "event"
        },
        {
            "anonymous": false,
            "inputs": [
                {
                    "indexed": true,
                    "internalType": "address",
                    "name": "sender",
                    "type": "address"
                },
                {
                    "indexed": true,
                    "internalType": "address",
                    "name": "token",
                    "type": "address"
                },
                {
                    "indexed": false,
                    "internalType": "uint256",
                    "name": "amount",
                    "type": "uint256"
                },
                {
                    "indexed": false,
                    "internalType": "uint256",
                    "name": "liquidity",
                    "type": "uint256"
                },
                {
                    "indexed": true,
                    "internalType": "address",
                    "name": "to",
                    "type": "address"
                }
            ],
            "name": "Deposit",
            "type": "event"
        },
        {
            "anonymous": false,
            "inputs": [
                {
                    "indexed": false,
                    "internalType": "address",
                    "name": "token",
                    "type": "address"
                },
                {
                    "indexed": false,
                    "internalType": "uint256",
                    "name": "amount",
                    "type": "uint256"
                },
                {
                    "indexed": false,
                    "internalType": "uint256",
                    "name": "fee",
                    "type": "uint256"
                }
            ],
            "name": "FeeCollected",
            "type": "event"
        },
        {
            "anonymous": false,
            "inputs": [
                {
                    "indexed": true,
                    "internalType": "address",
                    "name": "token",
                    "type": "address"
                },
                {
                    "indexed": false,
                    "internalType": "uint256",
                    "name": "amount",
                    "type": "uint256"
                }
            ],
            "name": "FillPool",
            "type": "event"
        },
        {
            "anonymous": false,
            "inputs": [
                {
                    "indexed": false,
                    "internalType": "uint8",
                    "name": "version",
                    "type": "uint8"
                }
            ],
            "name": "Initialized",
            "type": "event"
        },
        {
            "anonymous": false,
            "inputs": [
                {
                    "indexed": false,
                    "internalType": "uint256",
                    "name": "value",
                    "type": "uint256"
                }
            ],
            "name": "NewA",
            "type": "event"
        },
        {
            "anonymous": false,
            "inputs": [
                {
                    "indexed": false,
                    "internalType": "uint256",
                    "name": "threshold",
                    "type": "uint256"
                },
                {
                    "indexed": false,
                    "internalType": "uint256",
                    "name": "multiplier",
                    "type": "uint256"
                },
                {
                    "indexed": false,
                    "internalType": "uint256",
                    "name": "pow",
                    "type": "uint256"
                }
            ],
            "name": "NewDynamicFeeParameters",
            "type": "event"
        },
        {
            "anonymous": false,
            "inputs": [
                {
                    "indexed": false,
                    "internalType": "uint256",
                    "name": "lpDividendRatio",
                    "type": "uint256"
                }
            ],
            "name": "NewFee",
            "type": "event"
        },
        {
            "anonymous": false,
            "inputs": [
                {
                    "indexed": false,
                    "internalType": "address",
                    "name": "newFeeCounter",
                    "type": "address"
                }
            ],
            "name": "NewFeeCounter",
            "type": "event"
        },
        {
            "anonymous": false,
            "inputs": [
                {
                    "indexed": false,
                    "internalType": "address",
                    "name": "_newFeeReceiver",
                    "type": "address"
                }
            ],
            "name": "NewFeeReceiver",
            "type": "event"
        },
        {
            "anonymous": false,
            "inputs": [
                {
                    "indexed": true,
                    "internalType": "address",
                    "name": "addr",
                    "type": "address"
                }
            ],
            "name": "NewFeeTo",
            "type": "event"
        },
        {
            "anonymous": false,
            "inputs": [
                {
                    "indexed": false,
                    "internalType": "uint256",
                    "name": "value",
                    "type": "uint256"
                }
            ],
            "name": "NewLPFee",
            "type": "event"
        },
        {
            "anonymous": false,
            "inputs": [
                {
                    "indexed": true,
                    "internalType": "address",
                    "name": "token",
                    "type": "address"
                },
                {
                    "indexed": true,
                    "internalType": "uint256",
                    "name": "newMaxSupply",
                    "type": "uint256"
                }
            ],
            "name": "NewMaxSupply",
            "type": "event"
        },
        {
            "anonymous": false,
            "inputs": [
                {
                    "indexed": false,
                    "internalType": "uint256",
                    "name": "value",
                    "type": "uint256"
                }
            ],
            "name": "NewMintFeeThreshold",
            "type": "event"
        },
        {
            "anonymous": false,
            "inputs": [
                {
                    "indexed": true,
                    "internalType": "address",
                    "name": "newVeSIS",
                    "type": "address"
                }
            ],
            "name": "NewVeSIS",
            "type": "event"
        },
        {
            "anonymous": false,
            "inputs": [
                {
                    "indexed": true,
                    "internalType": "address",
                    "name": "previousOwner",
                    "type": "address"
                },
                {
                    "indexed": true,
                    "internalType": "address",
                    "name": "newOwner",
                    "type": "address"
                }
            ],
            "name": "OwnershipTransferred",
            "type": "event"
        },
        {
            "anonymous": false,
            "inputs": [
                {
                    "indexed": false,
                    "internalType": "address",
                    "name": "account",
                    "type": "address"
                }
            ],
            "name": "Paused",
            "type": "event"
        },
        {
            "anonymous": false,
            "inputs": [
                {
                    "indexed": true,
                    "internalType": "address",
                    "name": "sender",
                    "type": "address"
                },
                {
                    "indexed": false,
                    "internalType": "address",
                    "name": "fromToken",
                    "type": "address"
                },
                {
                    "indexed": false,
                    "internalType": "address",
                    "name": "toToken",
                    "type": "address"
                },
                {
                    "indexed": false,
                    "internalType": "uint256",
                    "name": "fromAmount",
                    "type": "uint256"
                },
                {
                    "indexed": false,
                    "internalType": "uint256",
                    "name": "toAmount",
                    "type": "uint256"
                },
                {
                    "indexed": true,
                    "internalType": "address",
                    "name": "to",
                    "type": "address"
                }
            ],
            "name": "Swap",
            "type": "event"
        },
        {
            "anonymous": false,
            "inputs": [
                {
                    "indexed": true,
                    "internalType": "address",
                    "name": "operator",
                    "type": "address"
                },
                {
                    "indexed": true,
                    "internalType": "address",
                    "name": "from",
                    "type": "address"
                },
                {
                    "indexed": true,
                    "internalType": "address",
                    "name": "to",
                    "type": "address"
                },
                {
                    "indexed": false,
                    "internalType": "uint256[]",
                    "name": "ids",
                    "type": "uint256[]"
                },
                {
                    "indexed": false,
                    "internalType": "uint256[]",
                    "name": "values",
                    "type": "uint256[]"
                }
            ],
            "name": "TransferBatch",
            "type": "event"
        },
        {
            "anonymous": false,
            "inputs": [
                {
                    "indexed": true,
                    "internalType": "address",
                    "name": "operator",
                    "type": "address"
                },
                {
                    "indexed": true,
                    "internalType": "address",
                    "name": "from",
                    "type": "address"
                },
                {
                    "indexed": true,
                    "internalType": "address",
                    "name": "to",
                    "type": "address"
                },
                {
                    "indexed": false,
                    "internalType": "uint256",
                    "name": "id",
                    "type": "uint256"
                },
                {
                    "indexed": false,
                    "internalType": "uint256",
                    "name": "value",
                    "type": "uint256"
                }
            ],
            "name": "TransferSingle",
            "type": "event"
        },
        {
            "anonymous": false,
            "inputs": [
                {
                    "indexed": false,
                    "internalType": "string",
                    "name": "value",
                    "type": "string"
                },
                {
                    "indexed": true,
                    "internalType": "uint256",
                    "name": "id",
                    "type": "uint256"
                }
            ],
            "name": "URI",
            "type": "event"
        },
        {
            "anonymous": false,
            "inputs": [
                {
                    "indexed": false,
                    "internalType": "address",
                    "name": "account",
                    "type": "address"
                }
            ],
            "name": "Unpaused",
            "type": "event"
        },
        {
            "anonymous": false,
            "inputs": [
                {
                    "indexed": true,
                    "internalType": "address",
                    "name": "sender",
                    "type": "address"
                },
                {
                    "indexed": true,
                    "internalType": "address",
                    "name": "token",
                    "type": "address"
                },
                {
                    "indexed": false,
                    "internalType": "uint256",
                    "name": "amount",
                    "type": "uint256"
                },
                {
                    "indexed": false,
                    "internalType": "uint256",
                    "name": "liquidity",
                    "type": "uint256"
                },
                {
                    "indexed": true,
                    "internalType": "address",
                    "name": "to",
                    "type": "address"
                }
            ],
            "name": "Withdraw",
            "type": "event"
        },
        {
            "inputs": [],
            "name": "a",
            "outputs": [
                {
                    "internalType": "uint256",
                    "name": "",
                    "type": "uint256"
                }
            ],
            "stateMutability": "view",
            "type": "function"
        },
        {
            "inputs": [
                {
                    "internalType": "address",
                    "name": "_token",
                    "type": "address"
                },
                {
                    "internalType": "uint256",
                    "name": "_maxSupply",
                    "type": "uint256"
                },
                {
                    "internalType": "uint8",
                    "name": "_decimals",
                    "type": "uint8"
                }
            ],
            "name": "addAssetOcto",
            "outputs": [],
            "stateMutability": "nonpayable",
            "type": "function"
        },
        {
            "inputs": [
                {
                    "internalType": "address",
                    "name": "",
                    "type": "address"
                }
            ],
            "name": "assetToIndex",
            "outputs": [
                {
                    "internalType": "uint256",
                    "name": "",
                    "type": "uint256"
                }
            ],
            "stateMutability": "view",
            "type": "function"
        },
        {
            "inputs": [
                {
                    "internalType": "address",
                    "name": "account",
                    "type": "address"
                },
                {
                    "internalType": "uint256",
                    "name": "id",
                    "type": "uint256"
                }
            ],
            "name": "balanceOf",
            "outputs": [
                {
                    "internalType": "uint256",
                    "name": "",
                    "type": "uint256"
                }
            ],
            "stateMutability": "view",
            "type": "function"
        },
        {
            "inputs": [
                {
                    "internalType": "address[]",
                    "name": "accounts",
                    "type": "address[]"
                },
                {
                    "internalType": "uint256[]",
                    "name": "ids",
                    "type": "uint256[]"
                }
            ],
            "name": "balanceOfBatch",
            "outputs": [
                {
                    "internalType": "uint256[]",
                    "name": "",
                    "type": "uint256[]"
                }
            ],
            "stateMutability": "view",
            "type": "function"
        },
        {
            "inputs": [
                {
                    "internalType": "uint256",
                    "name": "_tokenID",
                    "type": "uint256"
                },
                {
                    "internalType": "uint256",
                    "name": "_newMaxSupply",
                    "type": "uint256"
                }
            ],
            "name": "changeMaxSupply",
            "outputs": [],
            "stateMutability": "nonpayable",
            "type": "function"
        },
        {
            "inputs": [
                {
                    "internalType": "uint256",
                    "name": "_id",
                    "type": "uint256"
                },
                {
                    "internalType": "uint256",
                    "name": "_amount",
                    "type": "uint256"
                },
                {
                    "internalType": "uint256",
                    "name": "_minimumLiquidity",
                    "type": "uint256"
                },
                {
                    "internalType": "address",
                    "name": "_to",
                    "type": "address"
                },
                {
                    "internalType": "uint256",
                    "name": "_deadline",
                    "type": "uint256"
                }
            ],
            "name": "deposit",
            "outputs": [
                {
                    "internalType": "uint256",
                    "name": "liquidity",
                    "type": "uint256"
                },
                {
                    "internalType": "uint256",
                    "name": "fee",
                    "type": "uint256"
                }
            ],
            "stateMutability": "nonpayable",
            "type": "function"
        },
        {
            "inputs": [],
            "name": "devaddr",
            "outputs": [
                {
                    "internalType": "address",
                    "name": "",
                    "type": "address"
                }
            ],
            "stateMutability": "view",
            "type": "function"
        },
        {
            "inputs": [],
            "name": "dynamicFeeMaximum",
            "outputs": [
                {
                    "internalType": "uint256",
                    "name": "",
                    "type": "uint256"
                }
            ],
            "stateMutability": "view",
            "type": "function"
        },
        {
            "inputs": [],
            "name": "dynamicFeePow",
            "outputs": [
                {
                    "internalType": "uint256",
                    "name": "",
                    "type": "uint256"
                }
            ],
            "stateMutability": "view",
            "type": "function"
        },
        {
            "inputs": [],
            "name": "dynamicFeeThreshold",
            "outputs": [
                {
                    "internalType": "uint256",
                    "name": "",
                    "type": "uint256"
                }
            ],
            "stateMutability": "view",
            "type": "function"
        },
        {
            "inputs": [],
            "name": "feeCounter",
            "outputs": [
                {
                    "internalType": "address",
                    "name": "",
                    "type": "address"
                }
            ],
            "stateMutability": "view",
            "type": "function"
        },
        {
            "inputs": [],
            "name": "feeReceiver",
            "outputs": [
                {
                    "internalType": "address",
                    "name": "",
                    "type": "address"
                }
            ],
            "stateMutability": "view",
            "type": "function"
        },
        {
            "inputs": [],
            "name": "feeTo",
            "outputs": [
                {
                    "internalType": "address",
                    "name": "",
                    "type": "address"
                }
            ],
            "stateMutability": "view",
            "type": "function"
        },
        {
            "inputs": [
                {
                    "internalType": "uint256",
                    "name": "_asset",
                    "type": "uint256"
                }
            ],
            "name": "getFeeCollected",
            "outputs": [
                {
                    "internalType": "uint256",
                    "name": "",
                    "type": "uint256"
                }
            ],
            "stateMutability": "view",
            "type": "function"
        },
        {
            "inputs": [],
            "name": "globalEquilCovRatio",
            "outputs": [
                {
                    "internalType": "uint256",
                    "name": "equilCovRatio",
                    "type": "uint256"
                },
                {
                    "internalType": "uint256",
                    "name": "invariant",
                    "type": "uint256"
                }
            ],
            "stateMutability": "view",
            "type": "function"
        },
        {
            "inputs": [
                {
                    "internalType": "uint256",
                    "name": "",
                    "type": "uint256"
                }
            ],
            "name": "indexToAsset",
            "outputs": [
                {
                    "internalType": "uint256",
                    "name": "cash",
                    "type": "uint256"
                },
                {
                    "internalType": "uint256",
                    "name": "liability",
                    "type": "uint256"
                },
                {
                    "internalType": "uint256",
                    "name": "maxSupply",
                    "type": "uint256"
                },
                {
                    "internalType": "uint256",
                    "name": "totalSupply",
                    "type": "uint256"
                },
                {
                    "internalType": "uint8",
                    "name": "decimals",
                    "type": "uint8"
                },
                {
                    "internalType": "address",
                    "name": "token",
                    "type": "address"
                },
                {
                    "internalType": "bool",
                    "name": "active",
                    "type": "bool"
                }
            ],
            "stateMutability": "view",
            "type": "function"
        },
        {
            "inputs": [
                {
                    "internalType": "uint256",
                    "name": "_a",
                    "type": "uint256"
                },
                {
                    "internalType": "uint256",
                    "name": "_lpFee",
                    "type": "uint256"
                }
            ],
            "name": "initialize",
            "outputs": [],
            "stateMutability": "nonpayable",
            "type": "function"
        },
        {
            "inputs": [
                {
                    "internalType": "address",
                    "name": "account",
                    "type": "address"
                },
                {
                    "internalType": "address",
                    "name": "operator",
                    "type": "address"
                }
            ],
            "name": "isApprovedForAll",
            "outputs": [
                {
                    "internalType": "bool",
                    "name": "",
                    "type": "bool"
                }
            ],
            "stateMutability": "view",
            "type": "function"
        },
        {
            "inputs": [],
            "name": "lastIndex",
            "outputs": [
                {
                    "internalType": "uint256",
                    "name": "",
                    "type": "uint256"
                }
            ],
            "stateMutability": "view",
            "type": "function"
        },
        {
            "inputs": [],
            "name": "lpDividendRatio",
            "outputs": [
                {
                    "internalType": "uint256",
                    "name": "",
                    "type": "uint256"
                }
            ],
            "stateMutability": "view",
            "type": "function"
        },
        {
            "inputs": [],
            "name": "lpFee",
            "outputs": [
                {
                    "internalType": "uint256",
                    "name": "",
                    "type": "uint256"
                }
            ],
            "stateMutability": "view",
            "type": "function"
        },
        {
            "inputs": [
                {
                    "internalType": "uint256",
                    "name": "_id",
                    "type": "uint256"
                }
            ],
            "name": "mintFee",
            "outputs": [],
            "stateMutability": "nonpayable",
            "type": "function"
        },
        {
            "inputs": [],
            "name": "mintFeeThreshold",
            "outputs": [
                {
                    "internalType": "uint256",
                    "name": "",
                    "type": "uint256"
                }
            ],
            "stateMutability": "view",
            "type": "function"
        },
        {
            "inputs": [],
            "name": "owner",
            "outputs": [
                {
                    "internalType": "address",
                    "name": "",
                    "type": "address"
                }
            ],
            "stateMutability": "view",
            "type": "function"
        },
        {
            "inputs": [],
            "name": "pause",
            "outputs": [],
            "stateMutability": "nonpayable",
            "type": "function"
        },
        {
            "inputs": [],
            "name": "paused",
            "outputs": [
                {
                    "internalType": "bool",
                    "name": "",
                    "type": "bool"
                }
            ],
            "stateMutability": "view",
            "type": "function"
        },
        {
            "inputs": [],
            "name": "renounceOwnership",
            "outputs": [],
            "stateMutability": "nonpayable",
            "type": "function"
        },
        {
            "inputs": [
                {
                    "internalType": "address",
                    "name": "from",
                    "type": "address"
                },
                {
                    "internalType": "address",
                    "name": "to",
                    "type": "address"
                },
                {
                    "internalType": "uint256[]",
                    "name": "ids",
                    "type": "uint256[]"
                },
                {
                    "internalType": "uint256[]",
                    "name": "amounts",
                    "type": "uint256[]"
                },
                {
                    "internalType": "bytes",
                    "name": "data",
                    "type": "bytes"
                }
            ],
            "name": "safeBatchTransferFrom",
            "outputs": [],
            "stateMutability": "nonpayable",
            "type": "function"
        },
        {
            "inputs": [
                {
                    "internalType": "address",
                    "name": "from",
                    "type": "address"
                },
                {
                    "internalType": "address",
                    "name": "to",
                    "type": "address"
                },
                {
                    "internalType": "uint256",
                    "name": "id",
                    "type": "uint256"
                },
                {
                    "internalType": "uint256",
                    "name": "amount",
                    "type": "uint256"
                },
                {
                    "internalType": "bytes",
                    "name": "data",
                    "type": "bytes"
                }
            ],
            "name": "safeTransferFrom",
            "outputs": [],
            "stateMutability": "nonpayable",
            "type": "function"
        },
        {
            "inputs": [
                {
                    "internalType": "uint256",
                    "name": "_newA",
                    "type": "uint256"
                }
            ],
            "name": "setA",
            "outputs": [],
            "stateMutability": "nonpayable",
            "type": "function"
        },
        {
            "inputs": [
                {
                    "internalType": "address",
                    "name": "operator",
                    "type": "address"
                },
                {
                    "internalType": "bool",
                    "name": "approved",
                    "type": "bool"
                }
            ],
            "name": "setApprovalForAll",
            "outputs": [],
            "stateMutability": "nonpayable",
            "type": "function"
        },
        {
            "inputs": [
                {
                    "internalType": "uint256",
                    "name": "_id",
                    "type": "uint256"
                },
                {
                    "internalType": "bool",
                    "name": "_active",
                    "type": "bool"
                }
            ],
            "name": "setAssetStatus",
            "outputs": [],
            "stateMutability": "nonpayable",
            "type": "function"
        },
        {
            "inputs": [
                {
                    "internalType": "uint256",
                    "name": "_newDynamicFeeThreshold",
                    "type": "uint256"
                },
                {
                    "internalType": "uint256",
                    "name": "_newDynamicFeeMaximum",
                    "type": "uint256"
                },
                {
                    "internalType": "uint256",
                    "name": "_newDynamicFeePow",
                    "type": "uint256"
                }
            ],
            "name": "setDynamicFeeParameters",
            "outputs": [],
            "stateMutability": "nonpayable",
            "type": "function"
        },
        {
            "inputs": [
                {
                    "internalType": "address",
                    "name": "_newFeeCounter",
                    "type": "address"
                }
            ],
            "name": "setFeeCounter",
            "outputs": [],
            "stateMutability": "nonpayable",
            "type": "function"
        },
        {
            "inputs": [
                {
                    "internalType": "uint256",
                    "name": "_newLpDividendRatio",
                    "type": "uint256"
                }
            ],
            "name": "setFeeRatio",
            "outputs": [],
            "stateMutability": "nonpayable",
            "type": "function"
        },
        {
            "inputs": [
                {
                    "internalType": "address",
                    "name": "_newFeeReceiver",
                    "type": "address"
                }
            ],
            "name": "setFeeReceiver",
            "outputs": [],
            "stateMutability": "nonpayable",
            "type": "function"
        },
        {
            "inputs": [
                {
                    "internalType": "address",
                    "name": "_newFeeTo",
                    "type": "address"
                }
            ],
            "name": "setFeeTo",
            "outputs": [],
            "stateMutability": "nonpayable",
            "type": "function"
        },
        {
            "inputs": [
                {
                    "internalType": "uint256",
                    "name": "_newLpFee",
                    "type": "uint256"
                }
            ],
            "name": "setLPFee",
            "outputs": [],
            "stateMutability": "nonpayable",
            "type": "function"
        },
        {
            "inputs": [
                {
                    "internalType": "uint256",
                    "name": "_newMintFeeThreshold",
                    "type": "uint256"
                }
            ],
            "name": "setMintFeeThreshold",
            "outputs": [],
            "stateMutability": "nonpayable",
            "type": "function"
        },
        {
            "inputs": [
                {
                    "internalType": "address",
                    "name": "_newVeSIS",
                    "type": "address"
                }
            ],
            "name": "setVeSISAddress",
            "outputs": [],
            "stateMutability": "nonpayable",
            "type": "function"
        },
        {
            "inputs": [
                {
                    "internalType": "uint256",
                    "name": "_id",
                    "type": "uint256"
                },
                {
                    "internalType": "uint256",
                    "name": "_amount",
                    "type": "uint256"
                }
            ],
            "name": "spreadAccumulatedError",
            "outputs": [],
            "stateMutability": "nonpayable",
            "type": "function"
        },
        {
            "inputs": [
                {
                    "internalType": "bytes4",
                    "name": "interfaceId",
                    "type": "bytes4"
                }
            ],
            "name": "supportsInterface",
            "outputs": [
                {
                    "internalType": "bool",
                    "name": "",
                    "type": "bool"
                }
            ],
            "stateMutability": "view",
            "type": "function"
        },
        {
            "inputs": [
                {
                    "internalType": "uint256",
                    "name": "_fromID",
                    "type": "uint256"
                },
                {
                    "internalType": "uint256",
                    "name": "_toID",
                    "type": "uint256"
                },
                {
                    "internalType": "uint256",
                    "name": "_fromAmount",
                    "type": "uint256"
                },
                {
                    "internalType": "uint256",
                    "name": "_minToAmount",
                    "type": "uint256"
                },
                {
                    "internalType": "address",
                    "name": "_to",
                    "type": "address"
                },
                {
                    "internalType": "uint256",
                    "name": "_deadline",
                    "type": "uint256"
                }
            ],
            "name": "swap",
            "outputs": [
                {
                    "internalType": "uint256",
                    "name": "actualToAmount",
                    "type": "uint256"
                },
                {
                    "internalType": "uint256",
                    "name": "lpFeeAmount",
                    "type": "uint256"
                }
            ],
            "stateMutability": "nonpayable",
            "type": "function"
        },
        {
            "inputs": [
                {
                    "internalType": "address",
                    "name": "newOwner",
                    "type": "address"
                }
            ],
            "name": "transferOwnership",
            "outputs": [],
            "stateMutability": "nonpayable",
            "type": "function"
        },
        {
            "inputs": [],
            "name": "unpause",
            "outputs": [],
            "stateMutability": "nonpayable",
            "type": "function"
        },
        {
            "inputs": [
                {
                    "internalType": "uint256",
                    "name": "",
                    "type": "uint256"
                }
            ],
            "name": "uri",
            "outputs": [
                {
                    "internalType": "string",
                    "name": "",
                    "type": "string"
                }
            ],
            "stateMutability": "view",
            "type": "function"
        },
        {
            "inputs": [],
            "name": "veSIS",
            "outputs": [
                {
                    "internalType": "address",
                    "name": "",
                    "type": "address"
                }
            ],
            "stateMutability": "view",
            "type": "function"
        },
        {
            "inputs": [
                {
                    "internalType": "uint256",
                    "name": "_id",
                    "type": "uint256"
                },
                {
                    "internalType": "uint256",
                    "name": "_liquidity",
                    "type": "uint256"
                },
                {
                    "internalType": "uint256",
                    "name": "_minAmount",
                    "type": "uint256"
                },
                {
                    "internalType": "address",
                    "name": "_to",
                    "type": "address"
                },
                {
                    "internalType": "uint256",
                    "name": "_deadline",
                    "type": "uint256"
                }
            ],
            "name": "withdraw",
            "outputs": [
                {
                    "internalType": "uint256",
                    "name": "amount",
                    "type": "uint256"
                },
                {
                    "internalType": "uint256",
                    "name": "fee",
                    "type": "uint256"
                }
            ],
            "stateMutability": "nonpayable",
            "type": "function"
        }
    ],
    "bytecode": "0x608060405234801561001057600080fd5b50614e8b806100206000396000f3fe608060405234801561001057600080fd5b50600436106102ba5760003560e01c80638a2dfe0911610182578063d3cd06ed116100e9578063ee919d50116100a2578063f2fde38b1161007c578063f2fde38b146106df578063f3f6f0d7146106f2578063f46901ed146106fb578063f6f70eaf1461070e57600080fd5b8063ee919d50146106a6578063efdcd974146106b9578063f242432a146106cc57600080fd5b8063d3cd06ed1461061c578063d49e77cd14610626578063dbd530561461063a578063e4a301161461064d578063e95908b514610660578063e985e9c51461066a57600080fd5b8063a22cb4651161013b578063a22cb465146105b1578063b3f00674146105c4578063bebcddc2146105d8578063ce016ea1146105e2578063cfc399ea146105f5578063d043c5651461060957600080fd5b80638a2dfe09146104c15780638a35ace3146104c95780638c9a4bb8146104dc5780638da5cb5b146104ef5780638f6bdeaa146105005780639eeb6a221461051357600080fd5b80634422a8dd116102265780635f4b9bde116101df5780635f4b9bde14610478578063704ce43e1461048b578063715018a61461049457806371bd52961461049c578063815bfd29146104af5780638456cb59146104b957600080fd5b80634422a8dd146103f45780634e1273f41461041c57806353cb6a5e1461043c578063579498151461044f5780635c975abb146104635780635cfe092e1461046e57600080fd5b80631fb6e7ba116102785780631fb6e7ba1461037257806324e75ca014610393578063265e7bde146103a65780632eb2c2d6146103b957806339e59945146103cc5780633f4ba83a146103ec57600080fd5b8062fdd58e146102bf578063017e7e58146102e557806301ffc9a7146103115780630dbe671f146103345780630e89341c1461033d57806319f4ff2f1461035d575b600080fd5b6102d26102cd366004614298565b610721565b6040519081526020015b60405180910390f35b610103546102f9906001600160a01b031681565b6040516001600160a01b0390911681526020016102dc565b61032461031f3660046143f6565b6107bc565b60405190151581526020016102dc565b6102d260fe5481565b61035061034b36600461448c565b61080c565b6040516102dc919061471c565b61037061036b36600461448c565b6108a0565b005b6102d261038036600461448c565b6000908152610105602052604090205490565b6103706103a13660046144be565b610915565b6103706103b43660046144e3565b6109af565b6103706103c7366004614152565b610af9565b6102d26103da366004614104565b60fc6020526000908152604090205481565b610370610b45565b610407610402366004614531565b610b57565b604080519283526020830191909152016102dc565b61042f61042a366004614308565b610d66565b6040516102dc91906146e4565b61037061044a36600461448c565b610e90565b610109546102f9906001600160a01b031681565b60655460ff16610324565b6102d26101015481565b610407610486366004614531565b610ef5565b6102d260ff5481565b61037061120d565b6103706104aa366004614104565b61121f565b6102d26101005481565b610370611276565b610407611286565b6103706104d736600461448c565b6112ca565b6103706104ea3660046144e3565b6112d6565b6033546001600160a01b03166102f9565b61040761050e366004614578565b6114b4565b61056e61052136600461448c565b60fb60205260009081526040902080546001820154600283015460038401546004909401549293919290919060ff808216916001600160a01b0361010082041691600160a81b9091041687565b60408051978852602088019690965294860193909352606085019190915260ff1660808401526001600160a01b031660a0830152151560c082015260e0016102dc565b6103706105bf366004614261565b6119d0565b61010a546102f9906001600160a01b031681565b6102d26101065481565b6103706105f03660046142c2565b6119db565b610104546102f9906001600160a01b031681565b61037061061736600461448c565b611bba565b6102d26101075481565b610102546102f9906001600160a01b031681565b610370610648366004614505565b611bf8565b61037061065b3660046144e3565b611c59565b6102d26101085481565b61032461067836600461411f565b6001600160a01b03918216600090815260ca6020908152604080832093909416825291909152205460ff1690565b6103706106b436600461448c565b611e0b565b6103706106c7366004614104565b611e70565b6103706106da3660046141fc565b611ec7565b6103706106ed366004614104565b611f0c565b6102d260fd5481565b610370610709366004614104565b611f82565b61037061071c366004614104565b611ffd565b60006001600160a01b0383166107915760405162461bcd60e51b815260206004820152602a60248201527f455243313135353a2061646472657373207a65726f206973206e6f742061207660448201526930b634b21037bbb732b960b11b60648201526084015b60405180910390fd5b50600081815260c9602090815260408083206001600160a01b03861684529091529020545b92915050565b60006001600160e01b03198216636cdb3d1360e11b14806107ed57506001600160e01b031982166303a24d0760e21b145b806107b657506301ffc9a760e01b6001600160e01b03198316146107b6565b606060cb805461081b90614c6c565b80601f016020809104026020016040519081016040528092919081815260200182805461084790614c6c565b80156108945780601f1061086957610100808354040283529160200191610894565b820191906000526020600020905b81548152906001019060200180831161087757829003601f168201915b50505050509050919050565b6108a8612078565b670de0b6b3a76400008111156108d05760405162461bcd60e51b8152600401610788906148b2565b6108d86120d2565b6101008190556040518181527f63fe946ed58429ac3c5e64d4356ff92c26d7fa1e73586515df8ba9f059ab54a5906020015b60405180910390a150565b61091d612078565b600082815260fb602052604090206004015460ff600160a81b909104161515811515146109ab57600082815260fb6020526040808220600401805460ff60a81b1916600160a81b8515159081029190911791829055915191926101009091046001600160a01b0316917f409295ac74e8693e50d9c1104ed31735b01ce0bbb0772e2fc4392180993c8a949190a35b5050565b6109b7612078565b600082815260fb60205260408120600401546109d790839060ff166120fa565b90506109e9816001600160ff1b031190565b610a355760405162461bcd60e51b815260206004820152601760248201527f4e6577206d617820737570706c7920746f6f20686967680000000000000000006044820152606401610788565b600083815260fb6020526040902054811015610aa35760405162461bcd60e51b815260206004820152602760248201527f43757272656e742062616c616e6365206578636565647320676976656e206d6160448201526678537570706c7960c81b6064820152608401610788565b600083815260fb60205260408082206002810184905560040154905183926101009092046001600160a01b0316917fc5d8aa673058ca711657496eae7c88ab5e64efd2f3391dcb3ed365b93ecb184f91a3505050565b6001600160a01b038516331480610b155750610b158533610678565b610b315760405162461bcd60e51b815260040161078890614766565b610b3e8585858585612162565b5050505050565b610b4d612078565b610b55612342565b565b60008082428111610b7a5760405162461bcd60e51b8152600401610788906148d9565b846001600160a01b038116610ba15760405162461bcd60e51b8152600401610788906147fd565b600089815260fb60205260409020610bba338b8b612394565b610bc38a612518565b6000610bcf8b8b612649565b6004850154929850965091508690610beb908b9060ff166120fa565b10610c085760405162461bcd60e51b81526004016107889061494e565b85826000016000828254610c1c9190614c06565b9250508190555080826001016000828254610c379190614c06565b9250508190555089826003016000828254610c529190614c06565b909155505060018201541580610c895750610c766064670de0b6b3a7640000614a21565b60018301548354610c86916127ff565b10155b610cc15760405162461bcd60e51b81526020600482015260096024820152682337b93134b23232b760b91b6044820152606401610788565b6004820154610cf4908990610cda90899060ff1661283a565b600485015461010090046001600160a01b0316919061286a565b5060048101546001600160a01b038089169161010081049091169082907ffb80d861da582b723be2d19507ce3e03851820c464abea89156ec77e089b1ad990610d41908a9060ff1661283a565b60408051918252602082018f9052015b60405180910390a45050509550959350505050565b60608151835114610dcb5760405162461bcd60e51b815260206004820152602960248201527f455243313135353a206163636f756e747320616e6420696473206c656e677468604482015268040dad2e6dac2e8c6d60bb1b6064820152608401610788565b6000835167ffffffffffffffff811115610de757610de7614d4e565b604051908082528060200260200182016040528015610e10578160200160208202803683370190505b50905060005b8451811015610e8857610e5b858281518110610e3457610e34614d38565b6020026020010151858381518110610e4e57610e4e614d38565b6020026020010151610721565b828281518110610e6d57610e6d614d38565b6020908102919091010152610e8181614cd4565b9050610e16565b509392505050565b610e98612078565b670de0b6b3a7640000811115610ec05760405162461bcd60e51b8152600401610788906148b2565b60ff8190556040518181527f0df0ce83543295289f05f3782542da3058e533082716a3b74f8913499444f3c59060200161090a565b600080610f006128cd565b82428111610f205760405162461bcd60e51b8152600401610788906148d9565b846001600160a01b038116610f475760405162461bcd60e51b8152600401610788906147fd565b600089815260fb6020526040902060040154600160a81b900460ff16610f7f5760405162461bcd60e51b81526004016107889061472f565b600089815260fb602052604090206002810154600490910154610fa6908a9060ff166120fa565b60008b815260fb6020526040902054610fbf91906149db565b111561100d5760405162461bcd60e51b815260206004820152601e60248201527f466f7262696464656e3a206d617820737570706c7920657863656564656400006044820152606401610788565b61101689612518565b600089815260fb6020526040812060040154611041908b9061103c908c9060ff166120fa565b612913565b91965090945090508488106110685760405162461bcd60e51b81526004016107889061494e565b60008a815260fb6020526040902060010154611095906110899083906149db565b6001600160ff1b031190565b6110d65760405162461bcd60e51b8152602060048201526012602482015271098d2c2c4d2d8d2e8f240e8dede40d0d2ced60731b6044820152606401610788565b60008a815260fb60205260409020600401546110f6908a9060ff166120fa565b60008b815260fb6020526040812080549091906111149084906149db565b909155505060008a815260fb60205260408120600101805483929061113a9084906149db565b909155505060008a815260fb6020526040812060030180548792906111609084906149db565b92505081905550611182878b8760405180602001604052806000815250612b2e565b60008a815260fb60205260409020600401546111ae9061010090046001600160a01b031633308c612c3b565b60008a815260fb60209081526040918290206004015482518c81529182018890526001600160a01b038a811693610100909204169133917ff5dd9317b9e63ac316ce44acc85f670b54b339cfa3e9076e1dd55065b922314b9101610d51565b611215612078565b610b556000612c79565b611227612078565b61010980546001600160a01b0319166001600160a01b0383169081179091556040519081527f38196834fd1c391691c66b4e830e09972057a3c9ed06757b58402cf7ec4d63d09060200161090a565b61127e612078565b610b55612ccb565b600080600080611294612d08565b809250819350505060006112b36112ae848460fe54612dc1565b612dec565b9050806112bf84612dec565b945094505050509091565b6112d381612518565b50565b6112de612078565b6000828152610105602090815260408083205460fb909252808320805460049182015492516370a0823160e01b815230928101929092529161138d9160ff82169161010090046001600160a01b0316906370a082319060240160206040518083038186803b15801561134f57600080fd5b505afa158015611363573d6000803e3d6000fd5b505050506040513d601f19601f8201168201806040525081019061138791906144a5565b906120fa565b6113979190614c06565b6113a19190614c06565b9050808211156113c35760405162461bcd60e51b8152600401610788906148b2565b600083815260fb6020526040812080548492906113e19084906149db565b9091555050600083815260fb60205260409020546001600160ff1b03116114595760405162461bcd60e51b815260206004820152602660248201527f496d706f737369626c6520746f2073707265616420616363756d756c617465646044820152651032b93937b960d11b6064820152608401610788565b600083815260fb60209081526040918290206004015491518481526101009092046001600160a01b0316917f4941e18a2bcbb0f9fa0081238f26793a8ad8c202b913ae8bf5f7e523f68ff137910160405180910390a2505050565b6000806114bf6128cd565b824281116114df5760405162461bcd60e51b8152600401610788906148d9565b846001600160a01b0381166115065760405162461bcd60e51b8152600401610788906147fd565b600060fb60008c81526020019081526020016000206040518060e0016040529081600082015481526020016001820154815260200160028201548152602001600382015481526020016004820160009054906101000a900460ff1660ff1660ff1681526020016004820160019054906101000a90046001600160a01b03166001600160a01b03166001600160a01b031681526020016004820160159054906101000a900460ff1615151515815250509050600060fb60008c81526020019081526020016000206040518060e0016040529081600082015481526020016001820154815260200160028201548152602001600382015481526020016004820160009054906101000a900460ff1660ff1660ff1681526020016004820160019054906101000a90046001600160a01b03166001600160a01b03166001600160a01b031681526020016004820160159054906101000a900460ff16151515158152505090508160c001516116895760405162461bcd60e51b81526004016107889061472f565b8060c001516116aa5760405162461bcd60e51b81526004016107889061472f565b8060a001516001600160a01b03168260a001516001600160a01b031614156117035760405162461bcd60e51b815260206004820152600c60248201526b53616d65206164647265737360a01b6044820152606401610788565b60408201516080830151611718908c906120fa565b835161172491906149db565b11156117725760405162461bcd60e51b815260206004820152601e60248201527f466f7262696464656e3a206d617820737570706c7920657863656564656400006044820152606401610788565b60006117a58d8d61179086608001518f6120fa90919063ffffffff16565b60808601516117a0908f906120fa565b612e3b565b90506117c28260800151826020015161283a90919063ffffffff16565b60a08401519097506117df906001600160a01b031633308e612c3b565b60a08201516117f8906001600160a01b03168a8961286a565b61010a546001600160a01b0316156118805761010a5460808085015190830151611845926001600160a01b031691611830919061283a565b60a08601516001600160a01b0316919061286a565b61010a54608083015160a0830151611880926001600160a01b03169161186b919061283a565b60a08501516001600160a01b0316919061286a565b60a08084015190830151604080516001600160a01b039384168152918316602083015281018d905260608101899052908a169033907f54787c404bb33c88e86f4baf88183a3b0141d0a848e6a9f7a13b66ae3a9b73d19060800160405180910390a37f108516ddcf5ba43cea6bb2cd5ff6d59ac196c1c86ccb9178332b9dd72d1ca5618360a001518c6119248660800151856080015161283a90919063ffffffff16565b604080516001600160a01b03909416845260208401929092529082015260600160405180910390a160a0820151608083015182517f108516ddcf5ba43cea6bb2cd5ff6d59ac196c1c86ccb9178332b9dd72d1ca5619291611985919061283a565b608085015160a08501516119989161283a565b604080516001600160a01b03909416845260208401929092529082015260600160405180910390a15050505050965096945050505050565b6109ab33838361307e565b6119e3612078565b826001600160a01b038116611a0a5760405162461bcd60e51b8152600401610788906147fd565b6001600160a01b03808516600081815260fc6020908152604080832054835260fb90915290206004015461010090049091161415611a8a5760405162461bcd60e51b815260206004820152601c60248201527f41737365742068617320616c7265616479206265656e206164646564000000006044820152606401610788565b6040805160e08101825260008082526020820152908101611aab85856120fa565b81526000602080830182905260ff8087166040808601919091526001600160a01b03808b166060808801919091526001608097880181905260fd8054885260fb87528488208a518155968a0151918701919091559288015160028601558701516003850155948601516004909301805460a088015160c0909801511515600160a81b0260ff60a81b1998909716610100026001600160a81b0319909116949093169390931791909117949094169290921790915581549190611b6c83614cd4565b909155506001600160a01b038516600081815260fc602052604080822093909355915190917f0e3c58ebfb2e7465fbb1c32e6b4f40c3c4f5ca77e8218a386aff8617831260d791a250505050565b611bc2612078565b6101018190556040518181527f71592c407ca0abb34bb7ada163a2a8b25a2e58342a3c0926df1b9ce73cb214a59060200161090a565b611c00612078565b61010683905561010782905561010881905560408051848152602081018490529081018290527fc9dee17ffb01c89a5505df6bbe82542a12890163a06cd1a7343e46b3f0a3f53c906060015b60405180910390a1505050565b600054610100900460ff1615808015611c795750600054600160ff909116105b80611c935750303b158015611c93575060005460ff166001145b611cf65760405162461bcd60e51b815260206004820152602e60248201527f496e697469616c697a61626c653a20636f6e747261637420697320616c72656160448201526d191e481a5b9a5d1a585b1a5e995960921b6064820152608401610788565b6000805460ff191660011790558015611d19576000805461ff0019166101001790555b611d2161315f565b611d2961318e565b611d4a604051806060016040528060278152602001614e2f602791396131c1565b670de0b6b3a7640000821115611d725760405162461bcd60e51b8152600401610788906148b2565b670de0b6b3a7640000831115611d9a5760405162461bcd60e51b8152600401610788906148b2565b60fe839055670de0b6b3a76400006101005560ff82905561010480546001600160a01b031916331790558015611e06576000805461ff0019169055604051600181527f7f26b83ff96e1f2b6a682f133852f6798a09c465da95921460cefb384740249890602001611c4c565b505050565b611e13612078565b670de0b6b3a7640000811115611e3b5760405162461bcd60e51b8152600401610788906148b2565b60fe8190556040518181527f3f4ccc115548cf9126e487dcdf7c805dbb3578de78180051ace88afa59675e9c9060200161090a565b611e78612078565b61010a80546001600160a01b0319166001600160a01b0383169081179091556040519081527f010444796a5a2a97780dbda60b888795c594cc841f49c2513bb0f66258c578929060200161090a565b6001600160a01b038516331480611ee35750611ee38533610678565b611eff5760405162461bcd60e51b815260040161078890614766565b610b3e85858585856131f1565b611f14612078565b6001600160a01b038116611f795760405162461bcd60e51b815260206004820152602660248201527f4f776e61626c653a206e6577206f776e657220697320746865207a65726f206160448201526564647265737360d01b6064820152608401610788565b6112d381612c79565b611f8a612078565b806001600160a01b038116611fb15760405162461bcd60e51b8152600401610788906147fd565b61010380546001600160a01b0319166001600160a01b0384169081179091556040517fd7ecd1f497e38c39a3455e0704e1bddc382baa8059756b571ff24b92cab7ff5490600090a25050565b612005612078565b806001600160a01b03811661202c5760405162461bcd60e51b8152600401610788906147fd565b61010480546001600160a01b0319166001600160a01b0384169081179091556040517f698bdbadb3d770955212e2624318544242e40229072137a1dd6ac7edc93d847890600090a25050565b6033546001600160a01b03163314610b555760405162461bcd60e51b815260206004820181905260248201527f4f776e61626c653a2063616c6c6572206973206e6f7420746865206f776e65726044820152606401610788565b60005b60fd548110156112d3576120e881612518565b806120f281614cd4565b9150506120d5565b600060128260ff16101561212f57612113826012614c1d565b61211e90600a614a78565b6121289084614ba8565b90506107b6565b60128260ff16111561215b57612146601283614c1d565b61215190600a614a78565b6121289084614a21565b5090919050565b81518351146121c45760405162461bcd60e51b815260206004820152602860248201527f455243313135353a2069647320616e6420616d6f756e7473206c656e677468206044820152670dad2e6dac2e8c6d60c31b6064820152608401610788565b6001600160a01b0384166121ea5760405162461bcd60e51b815260040161078890614823565b3360005b84518110156122d457600085828151811061220b5761220b614d38565b60200260200101519050600085838151811061222957612229614d38565b602090810291909101810151600084815260c9835260408082206001600160a01b038e16835290935291909120549091508181101561227a5760405162461bcd60e51b815260040161078890614868565b600083815260c9602090815260408083206001600160a01b038e8116855292528083208585039055908b168252812080548492906122b99084906149db565b92505081905550505050806122cd90614cd4565b90506121ee565b50846001600160a01b0316866001600160a01b0316826001600160a01b03167f4a39dc06d4c0dbc64b70af90fd698a233a518aa5d07e595d983b8c0526c8f7fb87876040516123249291906146f7565b60405180910390a461233a81878787878761331f565b505050505050565b61234a61348a565b6065805460ff191690557f5db9ee0a495bf2e6ff9c91a7834c1ba4fdd244a5e8aa4e537bd38aeae4b073aa335b6040516001600160a01b03909116815260200160405180910390a1565b6001600160a01b0383166123f65760405162461bcd60e51b815260206004820152602360248201527f455243313135353a206275726e2066726f6d20746865207a65726f206164647260448201526265737360e81b6064820152608401610788565b336000612402846134d3565b9050600061240f846134d3565b604080516020808201835260009182905288825260c981528282206001600160a01b038b16835290522054909150848110156124995760405162461bcd60e51b8152602060048201526024808201527f455243313135353a206275726e20616d6f756e7420657863656564732062616c604482015263616e636560e01b6064820152608401610788565b600086815260c9602090815260408083206001600160a01b038b81168086529184528285208a8703905582518b81529384018a90529092908816917fc3d58168c5ae7397731d063d5bbf3d657854427343f4c083240f7aacaa2d0f62910160405180910390a46040805160208101909152600090525b50505050505050565b6000818152610105602052604090205480158061253757506101015481105b15612540575050565b600061256361010054670de0b6b3a764000061255c9190614c06565b839061351e565b905080156125c45761010454600084815260fb60205260409020600401546125c4916001600160a01b03169061259d90849060ff1661283a565b600086815260fb602052604090206004015461010090046001600160a01b0316919061286a565b60006125d08284614c06565b905080156126345760006125e48583612913565b50600087815260fb6020526040812060010180549294508493509161260a9084906149db565b9091555050600085815260fb60205260408120805484929061262d9084906149db565b9091555050505b50505060009081526101056020526040812055565b600082815260fb60205260408120600381015460019091015482918291612671908690614ba8565b61267b9190614a21565b9150816126bb5760405162461bcd60e51b815260206004820152600e60248201526d5a65726f206c697175696469747960901b6044820152606401610788565b60006126c68361353e565b6126cf90614cef565b600087815260fb6020526040812054919250906126eb9061353e565b600088815260fb60205260408120600101549192509061270a9061353e565b60fe54909150600061271c858461499a565b9050600061272a85856135a8565b9050600061274c61273b85846135a8565b6127459084614bc7565b86906135dc565b90506000600261276e61276787670de0b6b3a7640000614bc7565b8a906135dc565b612778908461499a565b61278291906149f3565b905060006127b88261279e6127978880614b23565b89906135dc565b6127a88580614b23565b6127b2919061499a565b906135fc565b6127c2908361499a565b90506127d16112ae828a614bc7565b9b508b8b106127eb576127e48c8c614c06565b99506127ef565b8a9b505b5050505050505050509250925092565b60008161280d600282614a21565b61281f670de0b6b3a764000086614ba8565b61282991906149db565b6128339190614a21565b9392505050565b600060128260ff16101561285357612146826012614c1d565b60128260ff16111561215b57612113601283614c1d565b6040516001600160a01b038316602482015260448101829052611e0690849063a9059cbb60e01b906064015b60408051601f198184030181529190526020810180516001600160e01b03166001600160e01b0319909316929092179091526136c0565b60655460ff1615610b555760405162461bcd60e51b815260206004820152601060248201526f14185d5cd8589b194e881c185d5cd95960821b6044820152606401610788565b6000806000806129228561353e565b600087815260fb60205260408120549192509061293e9061353e565b600088815260fb60205260408120600101549192509061295d9061353e565b60fe54600095509091508161297457879550612abd565b6000612980858561499a565b121561299e5760405162461bcd60e51b8152600401610788906148b2565b60006129aa84846135a8565b905060006129b8858761499a565b905060006129c684866135dc565b6129d1906002614b23565b6129ed6129e686670de0b6b3a7640000614bc7565b84906135dc565b6129f7919061499a565b90506000612a0f86612a0987826135dc565b906135dc565b612a1984806135dc565b612a3b86612a278a8a614b23565b612a3191906149f3565b612745908b614bc7565b612a459190614bc7565b612a4f919061499a565b9050600081612a5f876004614b23565b612a699190614b23565b612a738480614b23565b612a7d9190614bc7565b9050612ab56002612aab88612a9285886135fc565b612a9b88614cef565b612aa5919061499a565b906135a8565b6112ae91906149f3565b9a5050505050505b878610612ad557612ace8887614c06565b9450612ad9565b8795505b600089815260fb60205260409020600101548015612b1e5760008a815260fb60205260409020600301548190612b0f9089614ba8565b612b199190614a21565b612b20565b865b975050505050509250925092565b6001600160a01b038416612b8e5760405162461bcd60e51b815260206004820152602160248201527f455243313135353a206d696e7420746f20746865207a65726f206164647265736044820152607360f81b6064820152608401610788565b336000612b9a856134d3565b90506000612ba7856134d3565b9050600086815260c9602090815260408083206001600160a01b038b16845290915281208054879290612bdb9084906149db565b909155505060408051878152602081018790526001600160a01b03808a1692600092918716917fc3d58168c5ae7397731d063d5bbf3d657854427343f4c083240f7aacaa2d0f62910160405180910390a461250f83600089898989613792565b6040516001600160a01b0380851660248301528316604482015260648101829052612c739085906323b872dd60e01b90608401612896565b50505050565b603380546001600160a01b038381166001600160a01b0319831681179093556040519116919082907f8be0079c531659141344cd1fd0a4f28419497f9722a3daafe3b4186f6b6457e090600090a35050565b612cd36128cd565b6065805460ff191660011790557f62e78cea01bee320cd4e420270b5ea74000d11b0c9f74754ebdbfc544b05a2586123773390565b60fe546000908190815b60fd54811015612dbb57600081815260fb6020526040812054612d349061353e565b600083815260fb602052604081206001015491925090612d539061353e565b905080612d61575050612da9565b6000612d6d83836135a8565b9050612d79828761499a565b9550612d99612d8886836135a8565b612d929083614bc7565b83906135dc565b612da3908861499a565b96505050505b80612db381614cd4565b915050612d12565b50509091565b600080612dce85856135a8565b612dd790614cef565b9050612de3818461385c565b95945050505050565b600080821215612e375760405162461bcd60e51b815260206004820152601660248201527576616c7565206d75737420626520706f73697469766560501b6044820152606401610788565b5090565b612e746040518060c001604052806000815260200160008152602001600081526020016000815260200160008152602001600081525090565b600085815260fb6020526040902054612e919061108990856149db565b612edd5760405162461bcd60e51b815260206004820152601760248201527f496e697469616c20616d6f756e7420746f6f20686967680000000000000000006044820152606401610788565b600080600080600080612ef98b8b612ef48c61353e565b613897565b955095509550955095509550848810612f245760405162461bcd60e51b81526004016107889061494e565b60008b8152610105602052604081208054869290612f439084906149db565b909155505060008a8152610105602052604081208054859290612f679084906149db565b90915550829050612f78858b614c06565b612f829190614c06565b60008c815260fb602052604081208054909190612fa09084906149db565b90915550819050612fb184876149db565b612fbb91906149db565b60008b815260fb602052604081208054909190612fd9908490614c06565b90915550612ff290506064670de0b6b3a7640000614a21565b60008b815260fb6020526040902060018101549054613010916127ff565b101561304a5760405162461bcd60e51b81526020600482015260096024820152682337b93134b23232b760b91b6044820152606401610788565b6040805160c0810182529687526020870195909552938501929092526060840152608083015260a082015295945050505050565b816001600160a01b0316836001600160a01b031614156130f25760405162461bcd60e51b815260206004820152602960248201527f455243313135353a2073657474696e6720617070726f76616c20737461747573604482015268103337b91039b2b63360b91b6064820152608401610788565b6001600160a01b03838116600081815260ca6020908152604080832094871680845294825291829020805460ff191686151590811790915591519182527f17307eab39ab6107e8899845ad3d59bd9653f200f220920489ca2b5937696c31910160405180910390a3505050565b600054610100900460ff166131865760405162461bcd60e51b815260040161078890614903565b610b5561392d565b600054610100900460ff166131b55760405162461bcd60e51b815260040161078890614903565b6065805460ff19169055565b600054610100900460ff166131e85760405162461bcd60e51b815260040161078890614903565b6112d38161395d565b6001600160a01b0384166132175760405162461bcd60e51b815260040161078890614823565b336000613223856134d3565b90506000613230856134d3565b9050600086815260c9602090815260408083206001600160a01b038c168452909152902054858110156132755760405162461bcd60e51b815260040161078890614868565b600087815260c9602090815260408083206001600160a01b038d8116855292528083208985039055908a168252812080548892906132b49084906149db565b909155505060408051888152602081018890526001600160a01b03808b16928c821692918816917fc3d58168c5ae7397731d063d5bbf3d657854427343f4c083240f7aacaa2d0f62910160405180910390a4613314848a8a8a8a8a613792565b505050505050505050565b6001600160a01b0384163b1561233a5760405163bc197c8160e01b81526001600160a01b0385169063bc197c8190613363908990899088908890889060040161464c565b602060405180830381600087803b15801561337d57600080fd5b505af19250505080156133ad575060408051601f3d908101601f191682019092526133aa91810190614413565b60015b61345a576133b9614d64565b806308c379a014156133f357506133ce614d80565b806133d957506133f5565b8060405162461bcd60e51b8152600401610788919061471c565b505b60405162461bcd60e51b815260206004820152603460248201527f455243313135353a207472616e7366657220746f206e6f6e20455243313135356044820152732932b1b2b4bb32b91034b6b83632b6b2b73a32b960611b6064820152608401610788565b6001600160e01b0319811663bc197c8160e01b1461250f5760405162461bcd60e51b8152600401610788906147b5565b60655460ff16610b555760405162461bcd60e51b815260206004820152601460248201527314185d5cd8589b194e881b9bdd081c185d5cd95960621b6044820152606401610788565b6040805160018082528183019092526060916000919060208083019080368337019050509050828160008151811061350d5761350d614d38565b602090810291909101015292915050565b6000670de0b6b3a7640000613534600282614a21565b61281f8486614ba8565b60006001600160ff1b03821115612e375760405162461bcd60e51b815260206004820152602860248201527f53616665436173743a2076616c756520646f65736e27742066697420696e2061604482015267371034b73a191a9b60c11b6064820152608401610788565b6000816135b66002826149f3565b6135c8670de0b6b3a764000086614b23565b6135d2919061499a565b61283391906149f3565b6000670de0b6b3a76400006135f26002826149f3565b6135c88486614b23565b600060038313156136b1576000821380156136175750828213155b15613623575080613653565b60008212801561363b57508261363883614cef565b13155b156136505761364982614cef565b9050613653565b50815b600060028261366281876149f3565b61366c919061499a565b61367691906149f3565b90505b8181146136ab5790508060028161369081876149f3565b61369a919061499a565b6136a491906149f3565b9050613679565b506107b6565b82156107b65750600192915050565b6000613715826040518060400160405280602081526020017f5361666545524332303a206c6f772d6c6576656c2063616c6c206661696c6564815250856001600160a01b031661398d9092919063ffffffff16565b805190915015611e06578080602001905181019061373391906143d9565b611e065760405162461bcd60e51b815260206004820152602a60248201527f5361666545524332303a204552433230206f7065726174696f6e20646964206e6044820152691bdd081cdd58d8d9595960b21b6064820152608401610788565b6001600160a01b0384163b1561233a5760405163f23a6e6160e01b81526001600160a01b0385169063f23a6e61906137d690899089908890889088906004016146aa565b602060405180830381600087803b1580156137f057600080fd5b505af1925050508015613820575060408051601f3d908101601f1916820190925261381d91810190614413565b60015b61382c576133b9614d64565b6001600160e01b0319811663f23a6e6160e01b1461250f5760405162461bcd60e51b8152600401610788906147b5565b600060028361388d81670de0b6b3a7640000613879876004614b23565b6138839190614b23565b6127a88880614b23565b6135d29190614bc7565b6000806000806000806138aa89886139a4565b919850945091506138bc898989613afb565b600089815260fb602052604090205490965086111561390f5760405162461bcd60e51b815260206004820152600f60248201526e09cdee840cadcdeeaced040c6c2e6d608b1b6044820152606401610788565b61391a888789613c91565b979b979a50949850965090949293505050565b600054610100900460ff166139545760405162461bcd60e51b815260040161078890614903565b610b5533612c79565b600054610100900460ff166139845760405162461bcd60e51b815260040161078890614903565b6112d381613df0565b606061399c8484600085613e03565b949350505050565b60008060006139cd60405180606001604052806000815260200160008152602001600081525090565b610109546001600160a01b03166139ed5760008082526020820152613aa8565b61010954600087815260fb60205260409020600181015490546001600160a01b0390921691639116b2dc918991613a248a826149db565b6040516001600160e01b031960e087901b168152600481019490945260248401929092526044830152606482015260840160606040518083038186803b158015613a6d57600080fd5b505afa158015613a81573d6000803e3d6000fd5b505050506040513d601f19601f82011682018060405250810190613aa59190614430565b90505b8051613ab59086906135dc565b9150613ace8160200151866135dc90919063ffffffff16565b9250613ae78160200151826000015161274591906149db565b613af19086614bc7565b9350509250925092565b600082815260fb602052604081205481613b148261353e565b600087815260fb602052604081205491925090613b309061353e565b600088815260fb602052604081206001015491925090613b4f9061353e565b600088815260fb602052604081206001015491925090613b6e9061353e565b60fe549091508115801590613b8257508215155b613b9e5760405162461bcd60e51b8152600401610788906148b2565b6000613bd786613bae8580614b23565b613bb891906149f3565b86613bc38780614b23565b613bcd91906149f3565b612d92919061499a565b613be1878761499a565b613beb9190614bc7565b90506000613bfd85612aa58c8961499a565b90506000613c0b83866135a8565b85613c1686856135a8565b613c209085614bc7565b613c2a9089614b23565b613c3491906149f3565b613c3e9190614bc7565b90506000613c4c828661385c565b9050600089613c5b88846135dc565b613c659190614bc7565b905060008112613c755780613c7e565b613c7e81614cef565b9f9e505050505050505050505050505050565b6000806000613cba60405180606001604052806000815260200160008152602001600081525090565b610109546001600160a01b0316613cdc576000815260ff546020820152613d9a565b600087815260fb6020526040902080546101095460019092015490916001600160a01b03169063e3163590908a9084613d158c82614c06565b6040516001600160e01b031960e087901b168152600481019490945260248401929092526044830152606482015260840160606040518083038186803b158015613d5e57600080fd5b505afa158015613d72573d6000803e3d6000fd5b505050506040513d601f19601f82011682018060405250810190613d969190614430565b9150505b6020810151613daa90879061351e565b8151909450613dba90879061351e565b9250613dda81602001518260000151613dd391906149db565b879061351e565b613de49087614c06565b91505093509350939050565b80516109ab9060cb906020840190613f6d565b606082471015613e645760405162461bcd60e51b815260206004820152602660248201527f416464726573733a20696e73756666696369656e742062616c616e636520666f6044820152651c8818d85b1b60d21b6064820152608401610788565b6001600160a01b0385163b613ebb5760405162461bcd60e51b815260206004820152601d60248201527f416464726573733a2063616c6c20746f206e6f6e2d636f6e74726163740000006044820152606401610788565b600080866001600160a01b03168587604051613ed79190614630565b60006040518083038185875af1925050503d8060008114613f14576040519150601f19603f3d011682016040523d82523d6000602084013e613f19565b606091505b5091509150613f29828286613f34565b979650505050505050565b60608315613f43575081612833565b825115613f535782518084602001fd5b8160405162461bcd60e51b8152600401610788919061471c565b828054613f7990614c6c565b90600052602060002090601f016020900481019282613f9b5760008555613fe1565b82601f10613fb457805160ff1916838001178555613fe1565b82800160010185558215613fe1579182015b82811115613fe1578251825591602001919060010190613fc6565b50612e379291505b80821115612e375760008155600101613fe9565b80356001600160a01b038116811461401457600080fd5b919050565b600082601f83011261402a57600080fd5b8135602061403782614976565b6040516140448282614ca7565b8381528281019150858301600585901b8701840188101561406457600080fd5b60005b8581101561408357813584529284019290840190600101614067565b5090979650505050505050565b600082601f8301126140a157600080fd5b813567ffffffffffffffff8111156140bb576140bb614d4e565b6040516140d2601f8301601f191660200182614ca7565b8181528460208386010111156140e757600080fd5b816020850160208301376000918101602001919091529392505050565b60006020828403121561411657600080fd5b61283382613ffd565b6000806040838503121561413257600080fd5b61413b83613ffd565b915061414960208401613ffd565b90509250929050565b600080600080600060a0868803121561416a57600080fd5b61417386613ffd565b945061418160208701613ffd565b9350604086013567ffffffffffffffff8082111561419e57600080fd5b6141aa89838a01614019565b945060608801359150808211156141c057600080fd5b6141cc89838a01614019565b935060808801359150808211156141e257600080fd5b506141ef88828901614090565b9150509295509295909350565b600080600080600060a0868803121561421457600080fd5b61421d86613ffd565b945061422b60208701613ffd565b93506040860135925060608601359150608086013567ffffffffffffffff81111561425557600080fd5b6141ef88828901614090565b6000806040838503121561427457600080fd5b61427d83613ffd565b9150602083013561428d81614e0a565b809150509250929050565b600080604083850312156142ab57600080fd5b6142b483613ffd565b946020939093013593505050565b6000806000606084860312156142d757600080fd5b6142e084613ffd565b925060208401359150604084013560ff811681146142fd57600080fd5b809150509250925092565b6000806040838503121561431b57600080fd5b823567ffffffffffffffff8082111561433357600080fd5b818501915085601f83011261434757600080fd5b8135602061435482614976565b6040516143618282614ca7565b8381528281019150858301600585901b870184018b101561438157600080fd5b600096505b848710156143ab5761439781613ffd565b835260019690960195918301918301614386565b50965050860135925050808211156143c257600080fd5b506143cf85828601614019565b9150509250929050565b6000602082840312156143eb57600080fd5b815161283381614e0a565b60006020828403121561440857600080fd5b813561283381614e18565b60006020828403121561442557600080fd5b815161283381614e18565b60006060828403121561444257600080fd5b6040516060810181811067ffffffffffffffff8211171561446557614465614d4e565b80604052508251815260208301516020820152604083015160408201528091505092915050565b60006020828403121561449e57600080fd5b5035919050565b6000602082840312156144b757600080fd5b5051919050565b600080604083850312156144d157600080fd5b82359150602083013561428d81614e0a565b600080604083850312156144f657600080fd5b50508035926020909101359150565b60008060006060848603121561451a57600080fd5b505081359360208301359350604090920135919050565b600080600080600060a0868803121561454957600080fd5b85359450602086013593506040860135925061456760608701613ffd565b949793965091946080013592915050565b60008060008060008060c0878903121561459157600080fd5b863595506020870135945060408701359350606087013592506145b660808801613ffd565b915060a087013590509295509295509295565b600081518084526020808501945080840160005b838110156145f9578151875295820195908201906001016145dd565b509495945050505050565b6000815180845261461c816020860160208601614c40565b601f01601f19169290920160200192915050565b60008251614642818460208701614c40565b9190910192915050565b6001600160a01b0386811682528516602082015260a060408201819052600090614678908301866145c9565b828103606084015261468a81866145c9565b9050828103608084015261469e8185614604565b98975050505050505050565b6001600160a01b03868116825285166020820152604081018490526060810183905260a060808201819052600090613f2990830184614604565b60208152600061283360208301846145c9565b60408152600061470a60408301856145c9565b8281036020840152612de381856145c9565b6020815260006128336020830184614604565b6020808252601e908201527f417373657420776173206465616374697661746564206279206f776e65720000604082015260600190565b6020808252602f908201527f455243313135353a2063616c6c6572206973206e6f7420746f6b656e206f776e60408201526e195c881b9bdc88185c1c1c9bdd9959608a1b606082015260800190565b60208082526028908201527f455243313135353a204552433131353552656365697665722072656a656374656040820152676420746f6b656e7360c01b606082015260800190565b6020808252600c908201526b5a65726f206164647265737360a01b604082015260600190565b60208082526025908201527f455243313135353a207472616e7366657220746f20746865207a65726f206164604082015264647265737360d81b606082015260800190565b6020808252602a908201527f455243313135353a20696e73756666696369656e742062616c616e636520666f60408201526939103a3930b739b332b960b11b606082015260800190565b6020808252600d908201526c496e76616c69642076616c756560981b604082015260600190565b60208082526010908201526f111958591b1a5b99481b9bdd081b595d60821b604082015260600190565b6020808252602b908201527f496e697469616c697a61626c653a20636f6e7472616374206973206e6f74206960408201526a6e697469616c697a696e6760a81b606082015260800190565b6020808252600e908201526d416d6f756e7420746f6f206c6f7760901b604082015260600190565b600067ffffffffffffffff82111561499057614990614d4e565b5060051b60200190565b600080821280156001600160ff1b03849003851316156149bc576149bc614d0c565b600160ff1b83900384128116156149d5576149d5614d0c565b50500190565b600082198211156149ee576149ee614d0c565b500190565b600082614a0257614a02614d22565b600160ff1b821460001984141615614a1c57614a1c614d0c565b500590565b600082614a3057614a30614d22565b500490565b600181815b80851115614a70578160001904821115614a5657614a56614d0c565b80851615614a6357918102915b93841c9390800290614a3a565b509250929050565b600061283360ff841683600082614a91575060016107b6565b81614a9e575060006107b6565b8160018114614ab45760028114614abe57614ada565b60019150506107b6565b60ff841115614acf57614acf614d0c565b50506001821b6107b6565b5060208310610133831016604e8410600b8410161715614afd575081810a6107b6565b614b078383614a35565b8060001904821115614b1b57614b1b614d0c565b029392505050565b60006001600160ff1b0381841382841380821686840486111615614b4957614b49614d0c565b600160ff1b6000871282811687830589121615614b6857614b68614d0c565b60008712925087820587128484161615614b8457614b84614d0c565b87850587128184161615614b9a57614b9a614d0c565b505050929093029392505050565b6000816000190483118215151615614bc257614bc2614d0c565b500290565b60008083128015600160ff1b850184121615614be557614be5614d0c565b6001600160ff1b0384018313811615614c0057614c00614d0c565b50500390565b600082821015614c1857614c18614d0c565b500390565b600060ff821660ff841680821015614c3757614c37614d0c565b90039392505050565b60005b83811015614c5b578181015183820152602001614c43565b83811115612c735750506000910152565b600181811c90821680614c8057607f821691505b60208210811415614ca157634e487b7160e01b600052602260045260246000fd5b50919050565b601f8201601f1916810167ffffffffffffffff81118282101715614ccd57614ccd614d4e565b6040525050565b6000600019821415614ce857614ce8614d0c565b5060010190565b6000600160ff1b821415614d0557614d05614d0c565b5060000390565b634e487b7160e01b600052601160045260246000fd5b634e487b7160e01b600052601260045260246000fd5b634e487b7160e01b600052603260045260246000fd5b634e487b7160e01b600052604160045260246000fd5b600060033d1115614d7d5760046000803e5060005160e01c5b90565b600060443d1015614d8e5790565b6040516003193d81016004833e81513d67ffffffffffffffff8160248401118184111715614dbe57505050505090565b8285019150815181811115614dd65750505050505090565b843d8701016020828501011115614df05750505050505090565b614dff60208286010187614ca7565b509095945050505050565b80151581146112d357600080fd5b6001600160e01b0319811681146112d357600080fdfe68747470733a2f2f6f63746f6e6674732e73796d62696f7369732e66696e616e63652f7b69647da26469706673582212209476adf966af455f6093f58db0163dada2ffbaf95a633d6509dec5f52ac8241464736f6c63430008050033",
    "linkReferences": {},
    "deployedLinkReferences": {}
}