{
    "_format": "hh-sol-artifact-1",
    "contractName": "Pool",
    "sourceName": "contracts/pool/Pool.sol",
    "abi": [
        {
            "anonymous": false,
            "inputs": [
                {
                    "indexed": true,
                    "internalType": "address",
                    "name": "account",
                    "type": "address"
                },
                {
                    "indexed": true,
                    "internalType": "address",
                    "name": "operator",
                    "type": "address"
                },
                {
                    "indexed": false,
                    "internalType": "bool",
                    "name": "approved",
                    "type": "bool"
                }
            ],
            "name": "ApprovalForAll",
            "type": "event"
        },
        {
            "anonymous": false,
            "inputs": [
                {
                    "indexed": true,
                    "internalType": "address",
                    "name": "token",
                    "type": "address"
                }
            ],
            "name": "AssetAdded",
            "type": "event"
        },
        {
            "anonymous": false,
            "inputs": [
                {
                    "indexed": true,
                    "internalType": "address",
                    "name": "token",
                    "type": "address"
                },
                {
                    "indexed": true,
                    "internalType": "bool",
                    "name": "status",
                    "type": "bool"
                }
            ],
            "name": "AssetStatusChanged",
            "type": "event"
        },
        {
            "anonymous": false,
            "inputs": [
                {
                    "indexed": false,
                    "internalType": "address",
                    "name": "sender",
                    "type": "address"
                },
                {
                    "indexed": true,
                    "internalType": "address",
                    "name": "token",
                    "type": "address"
                },
                {
                    "indexed": false,
                    "internalType": "uint256",
                    "name": "amount",
                    "type": "uint256"
                },
                {
                    "indexed": false,
                    "internalType": "uint256",
                    "name": "liquidity",
                    "type": "uint256"
                },
                {
                    "indexed": true,
                    "internalType": "address",
                    "name": "to",
                    "type": "address"
                }
            ],
            "name": "Deposit",
            "type": "event"
        },
        {
            "anonymous": false,
            "inputs": [
                {
                    "indexed": false,
                    "internalType": "address",
                    "name": "token",
                    "type": "address"
                },
                {
                    "indexed": false,
                    "internalType": "uint256",
                    "name": "amount",
                    "type": "uint256"
                }
            ],
            "name": "FillPool",
            "type": "event"
        },
        {
            "anonymous": false,
            "inputs": [
                {
                    "indexed": false,
                    "internalType": "uint8",
                    "name": "version",
                    "type": "uint8"
                }
            ],
            "name": "Initialized",
            "type": "event"
        },
        {
            "anonymous": false,
            "inputs": [
                {
                    "indexed": false,
                    "internalType": "uint256",
                    "name": "value",
                    "type": "uint256"
                }
            ],
            "name": "NewA",
            "type": "event"
        },
        {
            "anonymous": false,
            "inputs": [
                {
                    "indexed": false,
                    "internalType": "uint256",
                    "name": "lpDividendRatio",
                    "type": "uint256"
                }
            ],
            "name": "NewFee",
            "type": "event"
        },
        {
            "anonymous": false,
            "inputs": [
                {
                    "indexed": false,
                    "internalType": "address",
                    "name": "addr",
                    "type": "address"
                }
            ],
            "name": "NewFeeTo",
            "type": "event"
        },
        {
            "anonymous": false,
            "inputs": [
                {
                    "indexed": false,
                    "internalType": "uint256",
                    "name": "value",
                    "type": "uint256"
                }
            ],
            "name": "NewLPFee",
            "type": "event"
        },
        {
            "anonymous": false,
            "inputs": [
                {
                    "indexed": true,
                    "internalType": "address",
                    "name": "token",
                    "type": "address"
                },
                {
                    "indexed": true,
                    "internalType": "uint256",
                    "name": "newMaxSupply",
                    "type": "uint256"
                }
            ],
            "name": "NewMaxSupply",
            "type": "event"
        },
        {
            "anonymous": false,
            "inputs": [
                {
                    "indexed": false,
                    "internalType": "uint256",
                    "name": "value",
                    "type": "uint256"
                }
            ],
            "name": "NewMintFeeThreshold",
            "type": "event"
        },
        {
            "anonymous": false,
            "inputs": [
                {
                    "indexed": false,
                    "internalType": "address",
                    "name": "newVeSIS",
                    "type": "address"
                }
            ],
            "name": "NewVeSIS",
            "type": "event"
        },
        {
            "anonymous": false,
            "inputs": [
                {
                    "indexed": true,
                    "internalType": "address",
                    "name": "previousOwner",
                    "type": "address"
                },
                {
                    "indexed": true,
                    "internalType": "address",
                    "name": "newOwner",
                    "type": "address"
                }
            ],
            "name": "OwnershipTransferred",
            "type": "event"
        },
        {
            "anonymous": false,
            "inputs": [
                {
                    "indexed": false,
                    "internalType": "address",
                    "name": "account",
                    "type": "address"
                }
            ],
            "name": "Paused",
            "type": "event"
        },
        {
            "anonymous": false,
            "inputs": [
                {
                    "indexed": true,
                    "internalType": "address",
                    "name": "sender",
                    "type": "address"
                },
                {
                    "indexed": false,
                    "internalType": "address",
                    "name": "fromToken",
                    "type": "address"
                },
                {
                    "indexed": false,
                    "internalType": "address",
                    "name": "toToken",
                    "type": "address"
                },
                {
                    "indexed": false,
                    "internalType": "uint256",
                    "name": "fromAmount",
                    "type": "uint256"
                },
                {
                    "indexed": false,
                    "internalType": "uint256",
                    "name": "toAmount",
                    "type": "uint256"
                },
                {
                    "indexed": true,
                    "internalType": "address",
                    "name": "to",
                    "type": "address"
                }
            ],
            "name": "Swap",
            "type": "event"
        },
        {
            "anonymous": false,
            "inputs": [
                {
                    "indexed": true,
                    "internalType": "address",
                    "name": "operator",
                    "type": "address"
                },
                {
                    "indexed": true,
                    "internalType": "address",
                    "name": "from",
                    "type": "address"
                },
                {
                    "indexed": true,
                    "internalType": "address",
                    "name": "to",
                    "type": "address"
                },
                {
                    "indexed": false,
                    "internalType": "uint256[]",
                    "name": "ids",
                    "type": "uint256[]"
                },
                {
                    "indexed": false,
                    "internalType": "uint256[]",
                    "name": "values",
                    "type": "uint256[]"
                }
            ],
            "name": "TransferBatch",
            "type": "event"
        },
        {
            "anonymous": false,
            "inputs": [
                {
                    "indexed": true,
                    "internalType": "address",
                    "name": "operator",
                    "type": "address"
                },
                {
                    "indexed": true,
                    "internalType": "address",
                    "name": "from",
                    "type": "address"
                },
                {
                    "indexed": true,
                    "internalType": "address",
                    "name": "to",
                    "type": "address"
                },
                {
                    "indexed": false,
                    "internalType": "uint256",
                    "name": "id",
                    "type": "uint256"
                },
                {
                    "indexed": false,
                    "internalType": "uint256",
                    "name": "value",
                    "type": "uint256"
                }
            ],
            "name": "TransferSingle",
            "type": "event"
        },
        {
            "anonymous": false,
            "inputs": [
                {
                    "indexed": false,
                    "internalType": "string",
                    "name": "value",
                    "type": "string"
                },
                {
                    "indexed": true,
                    "internalType": "uint256",
                    "name": "id",
                    "type": "uint256"
                }
            ],
            "name": "URI",
            "type": "event"
        },
        {
            "anonymous": false,
            "inputs": [
                {
                    "indexed": false,
                    "internalType": "address",
                    "name": "account",
                    "type": "address"
                }
            ],
            "name": "Unpaused",
            "type": "event"
        },
        {
            "anonymous": false,
            "inputs": [
                {
                    "indexed": true,
                    "internalType": "address",
                    "name": "sender",
                    "type": "address"
                },
                {
                    "indexed": false,
                    "internalType": "address",
                    "name": "token",
                    "type": "address"
                },
                {
                    "indexed": false,
                    "internalType": "uint256",
                    "name": "amount",
                    "type": "uint256"
                },
                {
                    "indexed": false,
                    "internalType": "uint256",
                    "name": "liquidity",
                    "type": "uint256"
                },
                {
                    "indexed": true,
                    "internalType": "address",
                    "name": "to",
                    "type": "address"
                }
            ],
            "name": "Withdraw",
            "type": "event"
        },
        {
            "inputs": [],
            "name": "a",
            "outputs": [
                {
                    "internalType": "uint256",
                    "name": "",
                    "type": "uint256"
                }
            ],
            "stateMutability": "view",
            "type": "function"
        },
        {
            "inputs": [
                {
                    "internalType": "address",
                    "name": "_token",
                    "type": "address"
                },
                {
                    "internalType": "uint256",
                    "name": "_maxSupply",
                    "type": "uint256"
                },
                {
                    "internalType": "uint8",
                    "name": "_decimals",
                    "type": "uint8"
                }
            ],
            "name": "addAssetOcto",
            "outputs": [],
            "stateMutability": "nonpayable",
            "type": "function"
        },
        {
            "inputs": [
                {
                    "internalType": "address",
                    "name": "",
                    "type": "address"
                }
            ],
            "name": "assetToIndex",
            "outputs": [
                {
                    "internalType": "uint256",
                    "name": "",
                    "type": "uint256"
                }
            ],
            "stateMutability": "view",
            "type": "function"
        },
        {
            "inputs": [
                {
                    "internalType": "address",
                    "name": "account",
                    "type": "address"
                },
                {
                    "internalType": "uint256",
                    "name": "id",
                    "type": "uint256"
                }
            ],
            "name": "balanceOf",
            "outputs": [
                {
                    "internalType": "uint256",
                    "name": "",
                    "type": "uint256"
                }
            ],
            "stateMutability": "view",
            "type": "function"
        },
        {
            "inputs": [
                {
                    "internalType": "address[]",
                    "name": "accounts",
                    "type": "address[]"
                },
                {
                    "internalType": "uint256[]",
                    "name": "ids",
                    "type": "uint256[]"
                }
            ],
            "name": "balanceOfBatch",
            "outputs": [
                {
                    "internalType": "uint256[]",
                    "name": "",
                    "type": "uint256[]"
                }
            ],
            "stateMutability": "view",
            "type": "function"
        },
        {
            "inputs": [
                {
                    "internalType": "uint256",
                    "name": "_tokenID",
                    "type": "uint256"
                },
                {
                    "internalType": "uint256",
                    "name": "_newMaxSupply",
                    "type": "uint256"
                }
            ],
            "name": "changeMaxSupply",
            "outputs": [],
            "stateMutability": "nonpayable",
            "type": "function"
        },
        {
            "inputs": [
                {
                    "internalType": "uint256",
                    "name": "_id",
                    "type": "uint256"
                },
                {
                    "internalType": "uint256",
                    "name": "_amount",
                    "type": "uint256"
                },
                {
                    "internalType": "uint256",
                    "name": "_minimumLiquidity",
                    "type": "uint256"
                },
                {
                    "internalType": "address",
                    "name": "_to",
                    "type": "address"
                },
                {
                    "internalType": "uint256",
                    "name": "_deadline",
                    "type": "uint256"
                }
            ],
            "name": "deposit",
            "outputs": [
                {
                    "internalType": "uint256",
                    "name": "liquidity",
                    "type": "uint256"
                },
                {
                    "internalType": "uint256",
                    "name": "fee",
                    "type": "uint256"
                }
            ],
            "stateMutability": "nonpayable",
            "type": "function"
        },
        {
            "inputs": [],
            "name": "devaddr",
            "outputs": [
                {
                    "internalType": "address",
                    "name": "",
                    "type": "address"
                }
            ],
            "stateMutability": "view",
            "type": "function"
        },
        {
            "inputs": [],
            "name": "feeTo",
            "outputs": [
                {
                    "internalType": "address",
                    "name": "",
                    "type": "address"
                }
            ],
            "stateMutability": "view",
            "type": "function"
        },
        {
            "inputs": [],
            "name": "globalEquilCovRatio",
            "outputs": [
                {
                    "internalType": "uint256",
                    "name": "equilCovRatio",
                    "type": "uint256"
                },
                {
                    "internalType": "uint256",
                    "name": "invariant",
                    "type": "uint256"
                }
            ],
            "stateMutability": "view",
            "type": "function"
        },
        {
            "inputs": [
                {
                    "internalType": "uint256",
                    "name": "",
                    "type": "uint256"
                }
            ],
            "name": "indexToAsset",
            "outputs": [
                {
                    "internalType": "uint256",
                    "name": "cash",
                    "type": "uint256"
                },
                {
                    "internalType": "uint256",
                    "name": "liability",
                    "type": "uint256"
                },
                {
                    "internalType": "uint256",
                    "name": "maxSupply",
                    "type": "uint256"
                },
                {
                    "internalType": "uint256",
                    "name": "totalSupply",
                    "type": "uint256"
                },
                {
                    "internalType": "uint8",
                    "name": "decimals",
                    "type": "uint8"
                },
                {
                    "internalType": "address",
                    "name": "token",
                    "type": "address"
                },
                {
                    "internalType": "bool",
                    "name": "active",
                    "type": "bool"
                }
            ],
            "stateMutability": "view",
            "type": "function"
        },
        {
            "inputs": [
                {
                    "internalType": "uint256",
                    "name": "_a",
                    "type": "uint256"
                },
                {
                    "internalType": "uint256",
                    "name": "_lpFee",
                    "type": "uint256"
                }
            ],
            "name": "initialize",
            "outputs": [],
            "stateMutability": "nonpayable",
            "type": "function"
        },
        {
            "inputs": [
                {
                    "internalType": "address",
                    "name": "account",
                    "type": "address"
                },
                {
                    "internalType": "address",
                    "name": "operator",
                    "type": "address"
                }
            ],
            "name": "isApprovedForAll",
            "outputs": [
                {
                    "internalType": "bool",
                    "name": "",
                    "type": "bool"
                }
            ],
            "stateMutability": "view",
            "type": "function"
        },
        {
            "inputs": [],
            "name": "lastIndex",
            "outputs": [
                {
                    "internalType": "uint256",
                    "name": "",
                    "type": "uint256"
                }
            ],
            "stateMutability": "view",
            "type": "function"
        },
        {
            "inputs": [],
            "name": "lpDividendRatio",
            "outputs": [
                {
                    "internalType": "uint256",
                    "name": "",
                    "type": "uint256"
                }
            ],
            "stateMutability": "view",
            "type": "function"
        },
        {
            "inputs": [],
            "name": "lpFee",
            "outputs": [
                {
                    "internalType": "uint256",
                    "name": "",
                    "type": "uint256"
                }
            ],
            "stateMutability": "view",
            "type": "function"
        },
        {
            "inputs": [
                {
                    "internalType": "uint256",
                    "name": "_id",
                    "type": "uint256"
                }
            ],
            "name": "mintFee",
            "outputs": [],
            "stateMutability": "nonpayable",
            "type": "function"
        },
        {
            "inputs": [],
            "name": "mintFeeThreshold",
            "outputs": [
                {
                    "internalType": "uint256",
                    "name": "",
                    "type": "uint256"
                }
            ],
            "stateMutability": "view",
            "type": "function"
        },
        {
            "inputs": [],
            "name": "owner",
            "outputs": [
                {
                    "internalType": "address",
                    "name": "",
                    "type": "address"
                }
            ],
            "stateMutability": "view",
            "type": "function"
        },
        {
            "inputs": [],
            "name": "pause",
            "outputs": [],
            "stateMutability": "nonpayable",
            "type": "function"
        },
        {
            "inputs": [],
            "name": "paused",
            "outputs": [
                {
                    "internalType": "bool",
                    "name": "",
                    "type": "bool"
                }
            ],
            "stateMutability": "view",
            "type": "function"
        },
        {
            "inputs": [],
            "name": "renounceOwnership",
            "outputs": [],
            "stateMutability": "nonpayable",
            "type": "function"
        },
        {
            "inputs": [
                {
                    "internalType": "address",
                    "name": "from",
                    "type": "address"
                },
                {
                    "internalType": "address",
                    "name": "to",
                    "type": "address"
                },
                {
                    "internalType": "uint256[]",
                    "name": "ids",
                    "type": "uint256[]"
                },
                {
                    "internalType": "uint256[]",
                    "name": "amounts",
                    "type": "uint256[]"
                },
                {
                    "internalType": "bytes",
                    "name": "data",
                    "type": "bytes"
                }
            ],
            "name": "safeBatchTransferFrom",
            "outputs": [],
            "stateMutability": "nonpayable",
            "type": "function"
        },
        {
            "inputs": [
                {
                    "internalType": "address",
                    "name": "from",
                    "type": "address"
                },
                {
                    "internalType": "address",
                    "name": "to",
                    "type": "address"
                },
                {
                    "internalType": "uint256",
                    "name": "id",
                    "type": "uint256"
                },
                {
                    "internalType": "uint256",
                    "name": "amount",
                    "type": "uint256"
                },
                {
                    "internalType": "bytes",
                    "name": "data",
                    "type": "bytes"
                }
            ],
            "name": "safeTransferFrom",
            "outputs": [],
            "stateMutability": "nonpayable",
            "type": "function"
        },
        {
            "inputs": [
                {
                    "internalType": "uint256",
                    "name": "_newA",
                    "type": "uint256"
                }
            ],
            "name": "setA",
            "outputs": [],
            "stateMutability": "nonpayable",
            "type": "function"
        },
        {
            "inputs": [
                {
                    "internalType": "address",
                    "name": "operator",
                    "type": "address"
                },
                {
                    "internalType": "bool",
                    "name": "approved",
                    "type": "bool"
                }
            ],
            "name": "setApprovalForAll",
            "outputs": [],
            "stateMutability": "nonpayable",
            "type": "function"
        },
        {
            "inputs": [
                {
                    "internalType": "uint256",
                    "name": "_id",
                    "type": "uint256"
                },
                {
                    "internalType": "bool",
                    "name": "_active",
                    "type": "bool"
                }
            ],
            "name": "setAssetStatus",
            "outputs": [],
            "stateMutability": "nonpayable",
            "type": "function"
        },
        {
            "inputs": [
                {
                    "internalType": "uint256",
                    "name": "_newLpDividendRatio",
                    "type": "uint256"
                }
            ],
            "name": "setFeeRatio",
            "outputs": [],
            "stateMutability": "nonpayable",
            "type": "function"
        },
        {
            "inputs": [
                {
                    "internalType": "address",
                    "name": "_newFeeTo",
                    "type": "address"
                }
            ],
            "name": "setFeeTo",
            "outputs": [],
            "stateMutability": "nonpayable",
            "type": "function"
        },
        {
            "inputs": [
                {
                    "internalType": "uint256",
                    "name": "_newLpFee",
                    "type": "uint256"
                }
            ],
            "name": "setLPFee",
            "outputs": [],
            "stateMutability": "nonpayable",
            "type": "function"
        },
        {
            "inputs": [
                {
                    "internalType": "uint256",
                    "name": "_newMintFeeThreshold",
                    "type": "uint256"
                }
            ],
            "name": "setMintFeeThreshold",
            "outputs": [],
            "stateMutability": "nonpayable",
            "type": "function"
        },
        {
            "inputs": [
                {
                    "internalType": "address",
                    "name": "_newVeSIS",
                    "type": "address"
                }
            ],
            "name": "setVeSISAddress",
            "outputs": [],
            "stateMutability": "nonpayable",
            "type": "function"
        },
        {
            "inputs": [
                {
                    "internalType": "uint256",
                    "name": "_id",
                    "type": "uint256"
                },
                {
                    "internalType": "uint256",
                    "name": "_amount",
                    "type": "uint256"
                }
            ],
            "name": "spreadAccumulatedError",
            "outputs": [],
            "stateMutability": "nonpayable",
            "type": "function"
        },
        {
            "inputs": [
                {
                    "internalType": "bytes4",
                    "name": "interfaceId",
                    "type": "bytes4"
                }
            ],
            "name": "supportsInterface",
            "outputs": [
                {
                    "internalType": "bool",
                    "name": "",
                    "type": "bool"
                }
            ],
            "stateMutability": "view",
            "type": "function"
        },
        {
            "inputs": [
                {
                    "internalType": "uint256",
                    "name": "_fromID",
                    "type": "uint256"
                },
                {
                    "internalType": "uint256",
                    "name": "_toID",
                    "type": "uint256"
                },
                {
                    "internalType": "uint256",
                    "name": "_fromAmount",
                    "type": "uint256"
                },
                {
                    "internalType": "uint256",
                    "name": "_minToAmount",
                    "type": "uint256"
                },
                {
                    "internalType": "address",
                    "name": "_to",
                    "type": "address"
                },
                {
                    "internalType": "uint256",
                    "name": "_deadline",
                    "type": "uint256"
                }
            ],
            "name": "swap",
            "outputs": [
                {
                    "internalType": "uint256",
                    "name": "actualToAmount",
                    "type": "uint256"
                },
                {
                    "internalType": "uint256",
                    "name": "lpFeeAmount",
                    "type": "uint256"
                }
            ],
            "stateMutability": "nonpayable",
            "type": "function"
        },
        {
            "inputs": [
                {
                    "internalType": "address",
                    "name": "newOwner",
                    "type": "address"
                }
            ],
            "name": "transferOwnership",
            "outputs": [],
            "stateMutability": "nonpayable",
            "type": "function"
        },
        {
            "inputs": [],
            "name": "unpause",
            "outputs": [],
            "stateMutability": "nonpayable",
            "type": "function"
        },
        {
            "inputs": [
                {
                    "internalType": "uint256",
                    "name": "",
                    "type": "uint256"
                }
            ],
            "name": "uri",
            "outputs": [
                {
                    "internalType": "string",
                    "name": "",
                    "type": "string"
                }
            ],
            "stateMutability": "view",
            "type": "function"
        },
        {
            "inputs": [],
            "name": "veSIS",
            "outputs": [
                {
                    "internalType": "address",
                    "name": "",
                    "type": "address"
                }
            ],
            "stateMutability": "view",
            "type": "function"
        },
        {
            "inputs": [
                {
                    "internalType": "uint256",
                    "name": "_id",
                    "type": "uint256"
                },
                {
                    "internalType": "uint256",
                    "name": "_liquidity",
                    "type": "uint256"
                },
                {
                    "internalType": "uint256",
                    "name": "_minAmount",
                    "type": "uint256"
                },
                {
                    "internalType": "address",
                    "name": "_to",
                    "type": "address"
                },
                {
                    "internalType": "uint256",
                    "name": "_deadline",
                    "type": "uint256"
                }
            ],
            "name": "withdraw",
            "outputs": [
                {
                    "internalType": "uint256",
                    "name": "amount",
                    "type": "uint256"
                },
                {
                    "internalType": "uint256",
                    "name": "fee",
                    "type": "uint256"
                }
            ],
            "stateMutability": "nonpayable",
            "type": "function"
        }
    ],
    "bytecode": "0x608060405234801561001057600080fd5b5061438e806100206000396000f3fe608060405234801561001057600080fd5b50600436106102475760003560e01c80638456cb591161013b578063d043c565116100b8578063f242432a1161007c578063f242432a146105b9578063f2fde38b146105cc578063f3f6f0d7146105df578063f46901ed146105e8578063f6f70eaf146105fb57600080fd5b8063d043c56514610530578063d49e77cd14610543578063e4a3011614610557578063e985e9c51461056a578063ee919d50146105a657600080fd5b80638f6bdeaa116100ff5780638f6bdeaa146104455780639eeb6a2214610458578063a22cb465146104f6578063ce016ea114610509578063cfc399ea1461051c57600080fd5b80638456cb59146103fe5780638a2dfe09146104065780638a35ace31461040e5780638c9a4bb8146104215780638da5cb5b1461043457600080fd5b80633f4ba83a116101c95780635cfe092e1161018d5780635cfe092e146103c65780635f4b9bde146103d0578063704ce43e146103e3578063715018a6146103ec578063815bfd29146103f457600080fd5b80633f4ba83a146103585780634422a8dd146103605780634e1273f41461038857806353cb6a5e146103a85780635c975abb146103bb57600080fd5b806319f4ff2f1161021057806319f4ff2f146102ea57806324e75ca0146102ff578063265e7bde146103125780632eb2c2d61461032557806339e599451461033857600080fd5b8062fdd58e1461024c578063017e7e581461027257806301ffc9a71461029e5780630dbe671f146102c15780630e89341c146102ca575b600080fd5b61025f61025a366004613823565b61060e565b6040519081526020015b60405180910390f35b61010354610286906001600160a01b031681565b6040516001600160a01b039091168152602001610269565b6102b16102ac366004613981565b6106a9565b6040519015158152602001610269565b61025f60fe5481565b6102dd6102d83660046139bb565b6106f9565b6040516102699190613c1f565b6102fd6102f83660046139bb565b61078d565b005b6102fd61030d3660046139ed565b610802565b6102fd610320366004613a12565b61089c565b6102fd6103333660046136dd565b610986565b61025f61034636600461368f565b60fc6020526000908152604090205481565b6102fd6109d2565b61037361036e366004613a34565b6109e4565b60408051928352602083019190915201610269565b61039b610396366004613893565b610c0d565b6040516102699190613be7565b6102fd6103b63660046139bb565b610d37565b60655460ff166102b1565b61025f6101015481565b6103736103de366004613a34565b610d9c565b61025f60ff5481565b6102fd611089565b61025f6101005481565b6102fd61109b565b6103736110ab565b6102fd61041c3660046139bb565b6110db565b6102fd61042f366004613a12565b6110e7565b6033546001600160a01b0316610286565b610373610453366004613a7b565b611257565b6104b36104663660046139bb565b60fb60205260009081526040902080546001820154600283015460038401546004909401549293919290919060ff808216916001600160a01b0361010082041691600160a81b9091041687565b60408051978852602088019690965294860193909352606085019190915260ff1660808401526001600160a01b031660a0830152151560c082015260e001610269565b6102fd6105043660046137ec565b611598565b6102fd61051736600461384d565b6115a3565b61010454610286906001600160a01b031681565b6102fd61053e3660046139bb565b611767565b61010254610286906001600160a01b031681565b6102fd610565366004613a12565b6117a5565b6102b16105783660046136aa565b6001600160a01b03918216600090815260ca6020908152604080832093909416825291909152205460ff1690565b6102fd6105b43660046139bb565b611957565b6102fd6105c7366004613787565b6119bc565b6102fd6105da36600461368f565b611a01565b61025f60fd5481565b6102fd6105f636600461368f565b611a77565b6102fd61060936600461368f565b611afd565b60006001600160a01b03831661067e5760405162461bcd60e51b815260206004820152602a60248201527f455243313135353a2061646472657373207a65726f206973206e6f742061207660448201526930b634b21037bbb732b960b11b60648201526084015b60405180910390fd5b50600081815260c9602090815260408083206001600160a01b03861684529091529020545b92915050565b60006001600160e01b03198216636cdb3d1360e11b14806106da57506001600160e01b031982166303a24d0760e21b145b806106a357506301ffc9a760e01b6001600160e01b03198316146106a3565b606060cb80546107089061416f565b80601f01602080910402602001604051908101604052809291908181526020018280546107349061416f565b80156107815780601f1061075657610100808354040283529160200191610781565b820191906000526020600020905b81548152906001019060200180831161076457829003601f168201915b50505050509050919050565b610795611b7b565b670de0b6b3a76400008111156107bd5760405162461bcd60e51b815260040161067590613db5565b6107c5611bd5565b6101008190556040518181527f63fe946ed58429ac3c5e64d4356ff92c26d7fa1e73586515df8ba9f059ab54a5906020015b60405180910390a150565b61080a611b7b565b600082815260fb602052604090206004015460ff600160a81b9091041615158115151461089857600082815260fb6020526040808220600401805460ff60a81b1916600160a81b8515159081029190911791829055915191926101009091046001600160a01b0316917f409295ac74e8693e50d9c1104ed31735b01ce0bbb0772e2fc4392180993c8a949190a35b5050565b6108a4611b7b565b600082815260fb60205260409020600401546108c490829060ff16611bfd565b600083815260fb602052604090205411156109315760405162461bcd60e51b815260206004820152602760248201527f43757272656e742062616c616e6365206578636565647320676976656e206d6160448201526678537570706c7960c81b6064820152608401610675565b600082815260fb60205260408082206002810184905560040154905183926101009092046001600160a01b0316917fc5d8aa673058ca711657496eae7c88ab5e64efd2f3391dcb3ed365b93ecb184f91a35050565b6001600160a01b0385163314806109a257506109a28533610578565b6109be5760405162461bcd60e51b815260040161067590613c69565b6109cb8585858585611c65565b5050505050565b6109da611b7b565b6109e2611e45565b565b6000806109ef611e97565b82428111610a0f5760405162461bcd60e51b815260040161067590613ddc565b846001600160a01b038116610a365760405162461bcd60e51b815260040161067590613d00565b600089815260fb60205260409020610a4f338b8b611edd565b610a588a612061565b6000610a648b8b612192565b6004850154929850965091508690610a80908b9060ff16611bfd565b10610a9d5760405162461bcd60e51b815260040161067590613e51565b85826000016000828254610ab19190614109565b9250508190555080826001016000828254610acc9190614109565b9250508190555089826003016000828254610ae79190614109565b909155505060018201541580610b1e5750610b0b6064670de0b6b3a7640000613f24565b60018301548354610b1b91612319565b10155b610b565760405162461bcd60e51b81526020600482015260096024820152682337b93134b23232b760b91b6044820152606401610675565b6004820154610b89903390610b6f90899060ff16612354565b600485015461010090046001600160a01b03169190612384565b5060048101546001600160a01b038089169133917ffb80d861da582b723be2d19507ce3e03851820c464abea89156ec77e089b1ad991610100810490911690610bd6908a9060ff16612354565b604080516001600160a01b039093168352602083019190915281018d90526060015b60405180910390a35050509550959350505050565b60608151835114610c725760405162461bcd60e51b815260206004820152602960248201527f455243313135353a206163636f756e747320616e6420696473206c656e677468604482015268040dad2e6dac2e8c6d60bb1b6064820152608401610675565b6000835167ffffffffffffffff811115610c8e57610c8e614251565b604051908082528060200260200182016040528015610cb7578160200160208202803683370190505b50905060005b8451811015610d2f57610d02858281518110610cdb57610cdb61423b565b6020026020010151858381518110610cf557610cf561423b565b602002602001015161060e565b828281518110610d1457610d1461423b565b6020908102919091010152610d28816141d7565b9050610cbd565b509392505050565b610d3f611b7b565b670de0b6b3a7640000811115610d675760405162461bcd60e51b815260040161067590613db5565b60ff8190556040518181527f0df0ce83543295289f05f3782542da3058e533082716a3b74f8913499444f3c5906020016107f7565b600080610da7611e97565b82428111610dc75760405162461bcd60e51b815260040161067590613ddc565b846001600160a01b038116610dee5760405162461bcd60e51b815260040161067590613d00565b600089815260fb6020526040902060040154600160a81b900460ff16610e265760405162461bcd60e51b815260040161067590613c32565b600089815260fb602052604090206002810154600490910154610e4d908a9060ff16611bfd565b60008b815260fb6020526040902054610e669190613ede565b1115610eb45760405162461bcd60e51b815260206004820152601e60248201527f466f7262696464656e3a206d617820737570706c7920657863656564656400006044820152606401610675565b600089815260fb6020526040902060040154610ee09061010090046001600160a01b031633308b6123e7565b610ee989612061565b600089815260fb6020526040812060040154610f14908b90610f0f908c9060ff16611bfd565b612425565b919650909450905084610f5a5760405162461bcd60e51b815260206004820152600e60248201526d5a65726f206c697175696469747960901b6044820152606401610675565b848810610f795760405162461bcd60e51b815260040161067590613e51565b60008a815260fb6020526040902060040154610f99908a9060ff16611bfd565b60008b815260fb602052604081208054909190610fb7908490613ede565b909155505060008a815260fb602052604081206001018054839290610fdd908490613ede565b909155505060008a815260fb602052604081206003018054879290611003908490613ede565b92505081905550611025878b8760405180602001604052806000815250612608565b60008a815260fb60209081526040918290206004015482513381529182018c90529181018790526001600160a01b0389811692610100900416907ff5dd9317b9e63ac316ce44acc85f670b54b339cfa3e9076e1dd55065b922314b90606001610bf8565b611091611b7b565b6109e26000612715565b6110a3611b7b565b6109e2612767565b6000806000806110b96127a4565b809250819350505060006110d0838360fe5461283a565b959294509192505050565b6110e481612061565b50565b6110ef611b7b565b6000828152610105602090815260408083205460fb909252808320805460049182015492516370a0823160e01b815230928101929092529161119e9160ff82169161010090046001600160a01b0316906370a082319060240160206040518083038186803b15801561116057600080fd5b505afa158015611174573d6000803e3d6000fd5b505050506040513d601f19601f8201168201806040525081019061119891906139d4565b90611bfd565b6111a89190614109565b6111b29190614109565b9050808211156111d45760405162461bcd60e51b815260040161067590613db5565b600083815260fb6020526040812080548492906111f2908490613ede565b9091555050600083815260fb60209081526040918290206004015482516101009091046001600160a01b031681529081018490527f4941e18a2bcbb0f9fa0081238f26793a8ad8c202b913ae8bf5f7e523f68ff13791015b60405180910390a1505050565b600080611262611e97565b824281116112825760405162461bcd60e51b815260040161067590613ddc565b846001600160a01b0381166112a95760405162461bcd60e51b815260040161067590613d00565b60008a815260fb6020526040902060040154600160a81b900460ff166112e15760405162461bcd60e51b815260040161067590613c32565b600089815260fb6020526040902060040154600160a81b900460ff166113195760405162461bcd60e51b815260040161067590613c32565b600089815260fb60205260408082206004908101548d84529190922090910154610100918290046001600160a01b039081169290910416141561138d5760405162461bcd60e51b815260206004820152600c60248201526b53616d65206164647265737360a01b6044820152606401610675565b60008a815260fb6020526040902060028101546004909101546113b4908a9060ff16611bfd565b60008c815260fb60205260409020546113cd9190613ede565b111561141b5760405162461bcd60e51b815260206004820152601e60248201527f466f7262696464656e3a206d617820737570706c7920657863656564656400006044820152606401610675565b60008a815260fb6020526040902060040154611468908b908b90611443908c9060ff16611bfd565b60008d815260fb6020526040902060040154611463908c9060ff16611bfd565b612865565b60008b815260fb6020526040902060040154919550935061148d90859060ff16612354565b60008a815260fb60205260409020600401549094506114b090849060ff16612354565b60008b815260fb60205260409020600401549093506114df9061010090046001600160a01b031633308b6123e7565b600089815260fb602052604090206004015461150a9061010090046001600160a01b03168786612384565b60008a815260fb602090815260408083206004908101548d855293829020015481516001600160a01b0361010095869004811682529490910484169281019290925281018a9052606081018690529087169033907f54787c404bb33c88e86f4baf88183a3b0141d0a848e6a9f7a13b66ae3a9b73d19060800160405180910390a35050965096945050505050565b610898338383612981565b6115ab611b7b565b826001600160a01b0381166115d25760405162461bcd60e51b815260040161067590613d00565b6001600160a01b03808516600081815260fc6020908152604080832054835260fb909152902060040154610100900490911614156116525760405162461bcd60e51b815260206004820152601c60248201527f41737365742068617320616c7265616479206265656e206164646564000000006044820152606401610675565b6040805160e081018252600080825260208083018281528385018881526060850184815260ff808a16608088019081526001600160a01b03808e1660a08a01908152600160c08b0181815260fd80548c5260fb909a529b8a209a518b559651968a01969096559351600289015591516003880155905160049096018054935197511515600160a81b0260ff60a81b1998909316610100026001600160a81b0319909416969091169590951791909117949094169390931790915581549190611719836141d7565b909155506001600160a01b038516600081815260fc602052604080822093909355915190917f0e3c58ebfb2e7465fbb1c32e6b4f40c3c4f5ca77e8218a386aff8617831260d791a250505050565b61176f611b7b565b6101018190556040518181527f71592c407ca0abb34bb7ada163a2a8b25a2e58342a3c0926df1b9ce73cb214a5906020016107f7565b600054610100900460ff16158080156117c55750600054600160ff909116105b806117df5750303b1580156117df575060005460ff166001145b6118425760405162461bcd60e51b815260206004820152602e60248201527f496e697469616c697a61626c653a20636f6e747261637420697320616c72656160448201526d191e481a5b9a5d1a585b1a5e995960921b6064820152608401610675565b6000805460ff191660011790558015611865576000805461ff0019166101001790555b61186d612a62565b611875612a91565b61189660405180606001604052806027815260200161433260279139612ac4565b670de0b6b3a76400008311156118be5760405162461bcd60e51b815260040161067590613db5565b670de0b6b3a76400008211156118e65760405162461bcd60e51b815260040161067590613db5565b60fe83905560ff829055670de0b6b3a76400006101005561010480546001600160a01b031916331790558015611952576000805461ff0019169055604051600181527f7f26b83ff96e1f2b6a682f133852f6798a09c465da95921460cefb38474024989060200161124a565b505050565b61195f611b7b565b670de0b6b3a76400008111156119875760405162461bcd60e51b815260040161067590613db5565b60fe8190556040518181527f3f4ccc115548cf9126e487dcdf7c805dbb3578de78180051ace88afa59675e9c906020016107f7565b6001600160a01b0385163314806119d857506119d88533610578565b6119f45760405162461bcd60e51b815260040161067590613c69565b6109cb8585858585612af4565b611a09611b7b565b6001600160a01b038116611a6e5760405162461bcd60e51b815260206004820152602660248201527f4f776e61626c653a206e6577206f776e657220697320746865207a65726f206160448201526564647265737360d01b6064820152608401610675565b6110e481612715565b611a7f611b7b565b806001600160a01b038116611aa65760405162461bcd60e51b815260040161067590613d00565b61010380546001600160a01b0319166001600160a01b0384169081179091556040519081527fd7ecd1f497e38c39a3455e0704e1bddc382baa8059756b571ff24b92cab7ff54906020015b60405180910390a15050565b611b05611b7b565b806001600160a01b038116611b2c5760405162461bcd60e51b815260040161067590613d00565b61010480546001600160a01b0319166001600160a01b0384169081179091556040519081527f698bdbadb3d770955212e2624318544242e40229072137a1dd6ac7edc93d847890602001611af1565b6033546001600160a01b031633146109e25760405162461bcd60e51b815260206004820181905260248201527f4f776e61626c653a2063616c6c6572206973206e6f7420746865206f776e65726044820152606401610675565b60005b60fd548110156110e457611beb81612061565b80611bf5816141d7565b915050611bd8565b600060128260ff161015611c3257611c16826012614120565b611c2190600a613f7b565b611c2b90846140ab565b90506106a3565b60128260ff161115611c5e57611c49601283614120565b611c5490600a613f7b565b611c2b9084613f24565b5090919050565b8151835114611cc75760405162461bcd60e51b815260206004820152602860248201527f455243313135353a2069647320616e6420616d6f756e7473206c656e677468206044820152670dad2e6dac2e8c6d60c31b6064820152608401610675565b6001600160a01b038416611ced5760405162461bcd60e51b815260040161067590613d26565b3360005b8451811015611dd7576000858281518110611d0e57611d0e61423b565b602002602001015190506000858381518110611d2c57611d2c61423b565b602090810291909101810151600084815260c9835260408082206001600160a01b038e168352909352919091205490915081811015611d7d5760405162461bcd60e51b815260040161067590613d6b565b600083815260c9602090815260408083206001600160a01b038e8116855292528083208585039055908b16825281208054849290611dbc908490613ede565b9250508190555050505080611dd0906141d7565b9050611cf1565b50846001600160a01b0316866001600160a01b0316826001600160a01b03167f4a39dc06d4c0dbc64b70af90fd698a233a518aa5d07e595d983b8c0526c8f7fb8787604051611e27929190613bfa565b60405180910390a4611e3d818787878787612c22565b505050505050565b611e4d612d8d565b6065805460ff191690557f5db9ee0a495bf2e6ff9c91a7834c1ba4fdd244a5e8aa4e537bd38aeae4b073aa335b6040516001600160a01b03909116815260200160405180910390a1565b60655460ff16156109e25760405162461bcd60e51b815260206004820152601060248201526f14185d5cd8589b194e881c185d5cd95960821b6044820152606401610675565b6001600160a01b038316611f3f5760405162461bcd60e51b815260206004820152602360248201527f455243313135353a206275726e2066726f6d20746865207a65726f206164647260448201526265737360e81b6064820152608401610675565b336000611f4b84612dd6565b90506000611f5884612dd6565b604080516020808201835260009182905288825260c981528282206001600160a01b038b1683529052205490915084811015611fe25760405162461bcd60e51b8152602060048201526024808201527f455243313135353a206275726e20616d6f756e7420657863656564732062616c604482015263616e636560e01b6064820152608401610675565b600086815260c9602090815260408083206001600160a01b038b81168086529184528285208a8703905582518b81529384018a90529092908816917fc3d58168c5ae7397731d063d5bbf3d657854427343f4c083240f7aacaa2d0f62910160405180910390a46040805160208101909152600090525b50505050505050565b6000818152610105602052604090205480158061208057506101015481105b15612089575050565b60006120ac61010054670de0b6b3a76400006120a59190614109565b8390612e21565b9050801561210d5761010454600084815260fb602052604090206004015461210d916001600160a01b0316906120e690849060ff16612354565b600086815260fb602052604090206004015461010090046001600160a01b03169190612384565b60006121198284614109565b9050801561217d57600061212d8583612425565b50600087815260fb60205260408120600101805492945084935091612153908490613ede565b9091555050600085815260fb602052604081208054849290612176908490613ede565b9091555050505b50505060009081526101056020526040812055565b600082815260fb602052604081206003810154600190910154829182916121ba9086906140ab565b6121c49190613f24565b9150816122045760405162461bcd60e51b815260206004820152600e60248201526d5a65726f206c697175696469747960901b6044820152606401610675565b600061220f836141f2565b600087815260fb60205260408120805460019091015460fe54939450909290916122398584613e9d565b905060006122478585612e41565b905060006122696122588584612e41565b61226290846140ca565b8690612e75565b90506000600261228b61228487670de0b6b3a76400006140ca565b8a90612e75565b6122959084613e9d565b61229f9190613ef6565b905060006122d5826122bb6122b48880614026565b8990612e75565b6122c58580614026565b6122cf9190613e9d565b90612e95565b6122df9083613e9d565b90506122eb81896140ca565b9b508b8b10612305576122fe8c8c614109565b9950612309565b8a9b505b5050505050505050509250925092565b600081612327600282613f24565b612339670de0b6b3a7640000866140ab565b6123439190613ede565b61234d9190613f24565b9392505050565b600060128260ff16101561236d57611c49826012614120565b60128260ff161115611c5e57611c16601283614120565b6040516001600160a01b03831660248201526044810182905261195290849063a9059cbb60e01b906064015b60408051601f198184030181529190526020810180516001600160e01b03166001600160e01b031990931692909217909152612f59565b6040516001600160a01b038085166024830152831660448201526064810182905261241f9085906323b872dd60e01b906084016123b0565b50505050565b600082815260fb60205260408120805460019091015460fe548392839286928161245157879550612597565b600061245d8585613e9d565b121561247b5760405162461bcd60e51b815260040161067590613db5565b60006124878484612e41565b905060006124958587613e9d565b905060006124a38486612e75565b6124ae906002614026565b6124ca6124c386670de0b6b3a76400006140ca565b8490612e75565b6124d49190613e9d565b905060006124ec866124e68782612e75565b90612e75565b6124f68480612e75565b612518866125048a8a614026565b61250e9190613ef6565b612262908b6140ca565b61252291906140ca565b61252c9190613e9d565b905060008161253c876004614026565b6125469190614026565b6125508480614026565b61255a91906140ca565b905060026125858761256c8487612e95565b612575876141f2565b61257f9190613e9d565b90612e41565b61258f9190613ef6565b9a5050505050505b8786106125af576125a88887614109565b94506125b3565b8795505b600089815260fb602052604090206001015480156125f85760008a815260fb602052604090206003015481906125e990896140ab565b6125f39190613f24565b6125fa565b865b975050505050509250925092565b6001600160a01b0384166126685760405162461bcd60e51b815260206004820152602160248201527f455243313135353a206d696e7420746f20746865207a65726f206164647265736044820152607360f81b6064820152608401610675565b33600061267485612dd6565b9050600061268185612dd6565b9050600086815260c9602090815260408083206001600160a01b038b168452909152812080548792906126b5908490613ede565b909155505060408051878152602081018790526001600160a01b03808a1692600092918716917fc3d58168c5ae7397731d063d5bbf3d657854427343f4c083240f7aacaa2d0f62910160405180910390a46120588360008989898961302b565b603380546001600160a01b038381166001600160a01b0319831681179093556040519116919082907f8be0079c531659141344cd1fd0a4f28419497f9722a3daafe3b4186f6b6457e090600090a35050565b61276f611e97565b6065805460ff191660011790557f62e78cea01bee320cd4e420270b5ea74000d11b0c9f74754ebdbfc544b05a258611e7a3390565b60fe546000908190815b60fd5481101561283457600081815260fb602052604090208054600190910154806127da575050612822565b60006127e68383612e41565b90506127f28287613e9d565b95506128126128018683612e41565b61280b90836140ca565b8390612e75565b61281c9088613e9d565b96505050505b8061282c816141d7565b9150506127ae565b50509091565b6000806128478585612e41565b612850906141f2565b905061285c81846130f5565b95945050505050565b600080612873868686613130565b90925090508183106128975760405162461bcd60e51b815260040161067590613e51565b60008581526101056020526040812080548392906128b6908490613ede565b9091555050600086815260fb6020526040812080548692906128d9908490613ede565b909155506128e990508183613ede565b600086815260fb602052604081208054909190612907908490614109565b9091555061292090506064670de0b6b3a7640000613f24565b600086815260fb602052604090206001810154905461293e91612319565b10156129785760405162461bcd60e51b81526020600482015260096024820152682337b93134b23232b760b91b6044820152606401610675565b94509492505050565b816001600160a01b0316836001600160a01b031614156129f55760405162461bcd60e51b815260206004820152602960248201527f455243313135353a2073657474696e6720617070726f76616c20737461747573604482015268103337b91039b2b63360b91b6064820152608401610675565b6001600160a01b03838116600081815260ca6020908152604080832094871680845294825291829020805460ff191686151590811790915591519182527f17307eab39ab6107e8899845ad3d59bd9653f200f220920489ca2b5937696c31910160405180910390a3505050565b600054610100900460ff16612a895760405162461bcd60e51b815260040161067590613e06565b6109e26132fb565b600054610100900460ff16612ab85760405162461bcd60e51b815260040161067590613e06565b6065805460ff19169055565b600054610100900460ff16612aeb5760405162461bcd60e51b815260040161067590613e06565b6110e48161332b565b6001600160a01b038416612b1a5760405162461bcd60e51b815260040161067590613d26565b336000612b2685612dd6565b90506000612b3385612dd6565b9050600086815260c9602090815260408083206001600160a01b038c16845290915290205485811015612b785760405162461bcd60e51b815260040161067590613d6b565b600087815260c9602090815260408083206001600160a01b038d8116855292528083208985039055908a16825281208054889290612bb7908490613ede565b909155505060408051888152602081018890526001600160a01b03808b16928c821692918816917fc3d58168c5ae7397731d063d5bbf3d657854427343f4c083240f7aacaa2d0f62910160405180910390a4612c17848a8a8a8a8a61302b565b505050505050505050565b6001600160a01b0384163b15611e3d5760405163bc197c8160e01b81526001600160a01b0385169063bc197c8190612c669089908990889088908890600401613b4f565b602060405180830381600087803b158015612c8057600080fd5b505af1925050508015612cb0575060408051601f3d908101601f19168201909252612cad9181019061399e565b60015b612d5d57612cbc614267565b806308c379a01415612cf65750612cd1614283565b80612cdc5750612cf8565b8060405162461bcd60e51b81526004016106759190613c1f565b505b60405162461bcd60e51b815260206004820152603460248201527f455243313135353a207472616e7366657220746f206e6f6e20455243313135356044820152732932b1b2b4bb32b91034b6b83632b6b2b73a32b960611b6064820152608401610675565b6001600160e01b0319811663bc197c8160e01b146120585760405162461bcd60e51b815260040161067590613cb8565b60655460ff166109e25760405162461bcd60e51b815260206004820152601460248201527314185d5cd8589b194e881b9bdd081c185d5cd95960621b6044820152606401610675565b60408051600180825281830190925260609160009190602080830190803683370190505090508281600081518110612e1057612e1061423b565b602090810291909101015292915050565b6000670de0b6b3a7640000612e37600282613f24565b61233984866140ab565b600081612e4f600282613ef6565b612e61670de0b6b3a764000086614026565b612e6b9190613e9d565b61234d9190613ef6565b6000670de0b6b3a7640000612e8b600282613ef6565b612e618486614026565b60006003831315612f4a57600082138015612eb05750828213155b15612ebc575080612eec565b600082128015612ed4575082612ed1836141f2565b13155b15612ee957612ee2826141f2565b9050612eec565b50815b6000600282612efb8187613ef6565b612f059190613e9d565b612f0f9190613ef6565b90505b818114612f4457905080600281612f298187613ef6565b612f339190613e9d565b612f3d9190613ef6565b9050612f12565b506106a3565b82156106a35750600192915050565b6000612fae826040518060400160405280602081526020017f5361666545524332303a206c6f772d6c6576656c2063616c6c206661696c6564815250856001600160a01b031661335b9092919063ffffffff16565b8051909150156119525780806020019051810190612fcc9190613964565b6119525760405162461bcd60e51b815260206004820152602a60248201527f5361666545524332303a204552433230206f7065726174696f6e20646964206e6044820152691bdd081cdd58d8d9595960b21b6064820152608401610675565b6001600160a01b0384163b15611e3d5760405163f23a6e6160e01b81526001600160a01b0385169063f23a6e619061306f9089908990889088908890600401613bad565b602060405180830381600087803b15801561308957600080fd5b505af19250505080156130b9575060408051601f3d908101601f191682019092526130b69181019061399e565b60015b6130c557612cbc614267565b6001600160e01b0319811663f23a6e6160e01b146120585760405162461bcd60e51b815260040161067590613cb8565b600060028361312681670de0b6b3a7640000613112876004614026565b61311c9190614026565b6122c58880614026565b612e6b91906140ca565b600082815260fb602052604080822080548684529183208054600191820154878652919092015460fe5485948594909384939192909190811580159061317557508215155b6131915760405162461bcd60e51b815260040161067590613db5565b60006131ca866131a18580614026565b6131ab9190613ef6565b866131b68780614026565b6131c09190613ef6565b61280b9190613e9d565b6131d48787613e9d565b6131de91906140ca565b905060006131f08561257f8e89613e9d565b905060006131fe8386612e41565b856132098685612e41565b61321390856140ca565b61321d9089614026565b6132279190613ef6565b61323191906140ca565b9050600061323f82866130f5565b905060008961324e8884612e75565b61325891906140ca565b905060008112156132735761326c816141f2565b9b50613277565b809b505b8b8b10156132b95760405162461bcd60e51b815260206004820152600f60248201526e09cdee840cadcdeeaced040c6c2e6d608b1b6044820152606401610675565b60ff546132c7908d90612e21565b9c5060008f13156132e3576132dc8d8d614109565b9d506132e7565b8b9d505b505050505050505050505050935093915050565b600054610100900460ff166133225760405162461bcd60e51b815260040161067590613e06565b6109e233612715565b600054610100900460ff166133525760405162461bcd60e51b815260040161067590613e06565b6110e481613372565b606061336a8484600085613385565b949350505050565b80516108989060cb9060208401906134ef565b6060824710156133e65760405162461bcd60e51b815260206004820152602660248201527f416464726573733a20696e73756666696369656e742062616c616e636520666f6044820152651c8818d85b1b60d21b6064820152608401610675565b6001600160a01b0385163b61343d5760405162461bcd60e51b815260206004820152601d60248201527f416464726573733a2063616c6c20746f206e6f6e2d636f6e74726163740000006044820152606401610675565b600080866001600160a01b031685876040516134599190613b33565b60006040518083038185875af1925050503d8060008114613496576040519150601f19603f3d011682016040523d82523d6000602084013e61349b565b606091505b50915091506134ab8282866134b6565b979650505050505050565b606083156134c557508161234d565b8251156134d55782518084602001fd5b8160405162461bcd60e51b81526004016106759190613c1f565b8280546134fb9061416f565b90600052602060002090601f01602090048101928261351d5760008555613563565b82601f1061353657805160ff1916838001178555613563565b82800160010185558215613563579182015b82811115613563578251825591602001919060010190613548565b5061356f929150613573565b5090565b5b8082111561356f5760008155600101613574565b80356001600160a01b038116811461359f57600080fd5b919050565b600082601f8301126135b557600080fd5b813560206135c282613e79565b6040516135cf82826141aa565b8381528281019150858301600585901b870184018810156135ef57600080fd5b60005b8581101561360e578135845292840192908401906001016135f2565b5090979650505050505050565b600082601f83011261362c57600080fd5b813567ffffffffffffffff81111561364657613646614251565b60405161365d601f8301601f1916602001826141aa565b81815284602083860101111561367257600080fd5b816020850160208301376000918101602001919091529392505050565b6000602082840312156136a157600080fd5b61234d82613588565b600080604083850312156136bd57600080fd5b6136c683613588565b91506136d460208401613588565b90509250929050565b600080600080600060a086880312156136f557600080fd5b6136fe86613588565b945061370c60208701613588565b9350604086013567ffffffffffffffff8082111561372957600080fd5b61373589838a016135a4565b9450606088013591508082111561374b57600080fd5b61375789838a016135a4565b9350608088013591508082111561376d57600080fd5b5061377a8882890161361b565b9150509295509295909350565b600080600080600060a0868803121561379f57600080fd5b6137a886613588565b94506137b660208701613588565b93506040860135925060608601359150608086013567ffffffffffffffff8111156137e057600080fd5b61377a8882890161361b565b600080604083850312156137ff57600080fd5b61380883613588565b915060208301356138188161430d565b809150509250929050565b6000806040838503121561383657600080fd5b61383f83613588565b946020939093013593505050565b60008060006060848603121561386257600080fd5b61386b84613588565b925060208401359150604084013560ff8116811461388857600080fd5b809150509250925092565b600080604083850312156138a657600080fd5b823567ffffffffffffffff808211156138be57600080fd5b818501915085601f8301126138d257600080fd5b813560206138df82613e79565b6040516138ec82826141aa565b8381528281019150858301600585901b870184018b101561390c57600080fd5b600096505b848710156139365761392281613588565b835260019690960195918301918301613911565b509650508601359250508082111561394d57600080fd5b5061395a858286016135a4565b9150509250929050565b60006020828403121561397657600080fd5b815161234d8161430d565b60006020828403121561399357600080fd5b813561234d8161431b565b6000602082840312156139b057600080fd5b815161234d8161431b565b6000602082840312156139cd57600080fd5b5035919050565b6000602082840312156139e657600080fd5b5051919050565b60008060408385031215613a0057600080fd5b8235915060208301356138188161430d565b60008060408385031215613a2557600080fd5b50508035926020909101359150565b600080600080600060a08688031215613a4c57600080fd5b853594506020860135935060408601359250613a6a60608701613588565b949793965091946080013592915050565b60008060008060008060c08789031215613a9457600080fd5b86359550602087013594506040870135935060608701359250613ab960808801613588565b915060a087013590509295509295509295565b600081518084526020808501945080840160005b83811015613afc57815187529582019590820190600101613ae0565b509495945050505050565b60008151808452613b1f816020860160208601614143565b601f01601f19169290920160200192915050565b60008251613b45818460208701614143565b9190910192915050565b6001600160a01b0386811682528516602082015260a060408201819052600090613b7b90830186613acc565b8281036060840152613b8d8186613acc565b90508281036080840152613ba18185613b07565b98975050505050505050565b6001600160a01b03868116825285166020820152604081018490526060810183905260a0608082018190526000906134ab90830184613b07565b60208152600061234d6020830184613acc565b604081526000613c0d6040830185613acc565b828103602084015261285c8185613acc565b60208152600061234d6020830184613b07565b6020808252601e908201527f417373657420776173206465616374697661746564206279206f776e65720000604082015260600190565b6020808252602f908201527f455243313135353a2063616c6c6572206973206e6f7420746f6b656e206f776e60408201526e195c881b9bdc88185c1c1c9bdd9959608a1b606082015260800190565b60208082526028908201527f455243313135353a204552433131353552656365697665722072656a656374656040820152676420746f6b656e7360c01b606082015260800190565b6020808252600c908201526b5a65726f206164647265737360a01b604082015260600190565b60208082526025908201527f455243313135353a207472616e7366657220746f20746865207a65726f206164604082015264647265737360d81b606082015260800190565b6020808252602a908201527f455243313135353a20696e73756666696369656e742062616c616e636520666f60408201526939103a3930b739b332b960b11b606082015260800190565b6020808252600d908201526c496e76616c69642076616c756560981b604082015260600190565b60208082526010908201526f111958591b1a5b99481b9bdd081b595d60821b604082015260600190565b6020808252602b908201527f496e697469616c697a61626c653a20636f6e7472616374206973206e6f74206960408201526a6e697469616c697a696e6760a81b606082015260800190565b6020808252600e908201526d416d6f756e7420746f6f206c6f7760901b604082015260600190565b600067ffffffffffffffff821115613e9357613e93614251565b5060051b60200190565b600080821280156001600160ff1b0384900385131615613ebf57613ebf61420f565b600160ff1b8390038412811615613ed857613ed861420f565b50500190565b60008219821115613ef157613ef161420f565b500190565b600082613f0557613f05614225565b600160ff1b821460001984141615613f1f57613f1f61420f565b500590565b600082613f3357613f33614225565b500490565b600181815b80851115613f73578160001904821115613f5957613f5961420f565b80851615613f6657918102915b93841c9390800290613f3d565b509250929050565b600061234d60ff841683600082613f94575060016106a3565b81613fa1575060006106a3565b8160018114613fb75760028114613fc157613fdd565b60019150506106a3565b60ff841115613fd257613fd261420f565b50506001821b6106a3565b5060208310610133831016604e8410600b8410161715614000575081810a6106a3565b61400a8383613f38565b806000190482111561401e5761401e61420f565b029392505050565b60006001600160ff1b038184138284138082168684048611161561404c5761404c61420f565b600160ff1b600087128281168783058912161561406b5761406b61420f565b600087129250878205871284841616156140875761408761420f565b8785058712818416161561409d5761409d61420f565b505050929093029392505050565b60008160001904831182151516156140c5576140c561420f565b500290565b60008083128015600160ff1b8501841216156140e8576140e861420f565b6001600160ff1b03840183138116156141035761410361420f565b50500390565b60008282101561411b5761411b61420f565b500390565b600060ff821660ff84168082101561413a5761413a61420f565b90039392505050565b60005b8381101561415e578181015183820152602001614146565b8381111561241f5750506000910152565b600181811c9082168061418357607f821691505b602082108114156141a457634e487b7160e01b600052602260045260246000fd5b50919050565b601f8201601f1916810167ffffffffffffffff811182821017156141d0576141d0614251565b6040525050565b60006000198214156141eb576141eb61420f565b5060010190565b6000600160ff1b8214156142085761420861420f565b5060000390565b634e487b7160e01b600052601160045260246000fd5b634e487b7160e01b600052601260045260246000fd5b634e487b7160e01b600052603260045260246000fd5b634e487b7160e01b600052604160045260246000fd5b600060033d11156142805760046000803e5060005160e01c5b90565b600060443d10156142915790565b6040516003193d81016004833e81513d67ffffffffffffffff81602484011181841117156142c157505050505090565b82850191508151818111156142d95750505050505090565b843d87010160208285010111156142f35750505050505090565b614302602082860101876141aa565b509095945050505050565b80151581146110e457600080fd5b6001600160e01b0319811681146110e457600080fdfe68747470733a2f2f6f63746f6e6674732e73796d62696f7369732e66696e616e63652f7b69647da2646970667358221220f3ae30871f8c7e56fe664e69050bb26d938a881e0a982dbdc0ac62ddba7f4b6764736f6c63430008050033",
    "linkReferences": {},
    "deployedLinkReferences": {}
}