{
    "_format": "hh-sol-artifact-1",
    "contractName": "Pool",
    "sourceName": "contracts/pool/Pool.sol",
    "abi": [
        {
            "anonymous": false,
            "inputs": [
                {
                    "indexed": true,
                    "internalType": "address",
                    "name": "account",
                    "type": "address"
                },
                {
                    "indexed": true,
                    "internalType": "address",
                    "name": "operator",
                    "type": "address"
                },
                {
                    "indexed": false,
                    "internalType": "bool",
                    "name": "approved",
                    "type": "bool"
                }
            ],
            "name": "ApprovalForAll",
            "type": "event"
        },
        {
            "anonymous": false,
            "inputs": [
                {
                    "indexed": true,
                    "internalType": "address",
                    "name": "token",
                    "type": "address"
                },
                {
                    "indexed": true,
                    "internalType": "address",
                    "name": "asset",
                    "type": "address"
                }
            ],
            "name": "AssetAdded",
            "type": "event"
        },
        {
            "anonymous": false,
            "inputs": [
                {
                    "indexed": true,
                    "internalType": "address",
                    "name": "token",
                    "type": "address"
                },
                {
                    "indexed": true,
                    "internalType": "address",
                    "name": "asset",
                    "type": "address"
                }
            ],
            "name": "AssetRemoved",
            "type": "event"
        },
        {
            "anonymous": false,
            "inputs": [
                {
                    "indexed": true,
                    "internalType": "address",
                    "name": "sender",
                    "type": "address"
                },
                {
                    "indexed": false,
                    "internalType": "address",
                    "name": "token",
                    "type": "address"
                },
                {
                    "indexed": false,
                    "internalType": "uint256",
                    "name": "amount",
                    "type": "uint256"
                },
                {
                    "indexed": false,
                    "internalType": "uint256",
                    "name": "liquidity",
                    "type": "uint256"
                },
                {
                    "indexed": true,
                    "internalType": "address",
                    "name": "to",
                    "type": "address"
                }
            ],
            "name": "Deposit",
            "type": "event"
        },
        {
            "anonymous": false,
            "inputs": [
                {
                    "indexed": false,
                    "internalType": "address",
                    "name": "token",
                    "type": "address"
                },
                {
                    "indexed": false,
                    "internalType": "uint256",
                    "name": "amount",
                    "type": "uint256"
                }
            ],
            "name": "FillPool",
            "type": "event"
        },
        {
            "anonymous": false,
            "inputs": [
                {
                    "indexed": false,
                    "internalType": "uint8",
                    "name": "version",
                    "type": "uint8"
                }
            ],
            "name": "Initialized",
            "type": "event"
        },
        {
            "anonymous": false,
            "inputs": [
                {
                    "indexed": false,
                    "internalType": "uint256",
                    "name": "value",
                    "type": "uint256"
                }
            ],
            "name": "NewA",
            "type": "event"
        },
        {
            "anonymous": false,
            "inputs": [
                {
                    "indexed": false,
                    "internalType": "address",
                    "name": "addr",
                    "type": "address"
                }
            ],
            "name": "NewDev",
            "type": "event"
        },
        {
            "anonymous": false,
            "inputs": [
                {
                    "indexed": false,
                    "internalType": "uint256",
                    "name": "lpDividendRatio",
                    "type": "uint256"
                }
            ],
            "name": "NewFee",
            "type": "event"
        },
        {
            "anonymous": false,
            "inputs": [
                {
                    "indexed": false,
                    "internalType": "address",
                    "name": "addr",
                    "type": "address"
                }
            ],
            "name": "NewFeeTo",
            "type": "event"
        },
        {
            "anonymous": false,
            "inputs": [
                {
                    "indexed": false,
                    "internalType": "uint256",
                    "name": "value",
                    "type": "uint256"
                }
            ],
            "name": "NewLPFee",
            "type": "event"
        },
        {
            "anonymous": false,
            "inputs": [
                {
                    "indexed": false,
                    "internalType": "uint256",
                    "name": "value",
                    "type": "uint256"
                }
            ],
            "name": "NewMintFeeThreshold",
            "type": "event"
        },
        {
            "anonymous": false,
            "inputs": [
                {
                    "indexed": true,
                    "internalType": "address",
                    "name": "previousOwner",
                    "type": "address"
                },
                {
                    "indexed": true,
                    "internalType": "address",
                    "name": "newOwner",
                    "type": "address"
                }
            ],
            "name": "OwnershipTransferred",
            "type": "event"
        },
        {
            "anonymous": false,
            "inputs": [
                {
                    "indexed": false,
                    "internalType": "address",
                    "name": "account",
                    "type": "address"
                }
            ],
            "name": "Paused",
            "type": "event"
        },
        {
            "anonymous": false,
            "inputs": [
                {
                    "indexed": true,
                    "internalType": "address",
                    "name": "sender",
                    "type": "address"
                },
                {
                    "indexed": false,
                    "internalType": "address",
                    "name": "fromToken",
                    "type": "address"
                },
                {
                    "indexed": false,
                    "internalType": "address",
                    "name": "toToken",
                    "type": "address"
                },
                {
                    "indexed": false,
                    "internalType": "uint256",
                    "name": "fromAmount",
                    "type": "uint256"
                },
                {
                    "indexed": false,
                    "internalType": "uint256",
                    "name": "toAmount",
                    "type": "uint256"
                },
                {
                    "indexed": true,
                    "internalType": "address",
                    "name": "to",
                    "type": "address"
                }
            ],
            "name": "Swap",
            "type": "event"
        },
        {
            "anonymous": false,
            "inputs": [
                {
                    "indexed": true,
                    "internalType": "address",
                    "name": "operator",
                    "type": "address"
                },
                {
                    "indexed": true,
                    "internalType": "address",
                    "name": "from",
                    "type": "address"
                },
                {
                    "indexed": true,
                    "internalType": "address",
                    "name": "to",
                    "type": "address"
                },
                {
                    "indexed": false,
                    "internalType": "uint256[]",
                    "name": "ids",
                    "type": "uint256[]"
                },
                {
                    "indexed": false,
                    "internalType": "uint256[]",
                    "name": "values",
                    "type": "uint256[]"
                }
            ],
            "name": "TransferBatch",
            "type": "event"
        },
        {
            "anonymous": false,
            "inputs": [
                {
                    "indexed": true,
                    "internalType": "address",
                    "name": "operator",
                    "type": "address"
                },
                {
                    "indexed": true,
                    "internalType": "address",
                    "name": "from",
                    "type": "address"
                },
                {
                    "indexed": true,
                    "internalType": "address",
                    "name": "to",
                    "type": "address"
                },
                {
                    "indexed": false,
                    "internalType": "uint256",
                    "name": "id",
                    "type": "uint256"
                },
                {
                    "indexed": false,
                    "internalType": "uint256",
                    "name": "value",
                    "type": "uint256"
                }
            ],
            "name": "TransferSingle",
            "type": "event"
        },
        {
            "anonymous": false,
            "inputs": [
                {
                    "indexed": false,
                    "internalType": "address",
                    "name": "token",
                    "type": "address"
                },
                {
                    "indexed": false,
                    "internalType": "uint256",
                    "name": "amount",
                    "type": "uint256"
                },
                {
                    "indexed": false,
                    "internalType": "address",
                    "name": "to",
                    "type": "address"
                }
            ],
            "name": "TransferTipBucket",
            "type": "event"
        },
        {
            "anonymous": false,
            "inputs": [
                {
                    "indexed": false,
                    "internalType": "string",
                    "name": "value",
                    "type": "string"
                },
                {
                    "indexed": true,
                    "internalType": "uint256",
                    "name": "id",
                    "type": "uint256"
                }
            ],
            "name": "URI",
            "type": "event"
        },
        {
            "anonymous": false,
            "inputs": [
                {
                    "indexed": false,
                    "internalType": "address",
                    "name": "account",
                    "type": "address"
                }
            ],
            "name": "Unpaused",
            "type": "event"
        },
        {
            "anonymous": false,
            "inputs": [
                {
                    "indexed": true,
                    "internalType": "address",
                    "name": "sender",
                    "type": "address"
                },
                {
                    "indexed": false,
                    "internalType": "address",
                    "name": "token",
                    "type": "address"
                },
                {
                    "indexed": false,
                    "internalType": "uint256",
                    "name": "amount",
                    "type": "uint256"
                },
                {
                    "indexed": false,
                    "internalType": "uint256",
                    "name": "liquidity",
                    "type": "uint256"
                },
                {
                    "indexed": true,
                    "internalType": "address",
                    "name": "to",
                    "type": "address"
                }
            ],
            "name": "Withdraw",
            "type": "event"
        },
        {
            "inputs": [],
            "name": "a",
            "outputs": [
                {
                    "internalType": "uint256",
                    "name": "",
                    "type": "uint256"
                }
            ],
            "stateMutability": "view",
            "type": "function"
        },
        {
            "inputs": [
                {
                    "internalType": "address",
                    "name": "_token",
                    "type": "address"
                },
                {
                    "internalType": "uint256",
                    "name": "_maxSupply",
                    "type": "uint256"
                },
                {
                    "internalType": "uint8",
                    "name": "_decimals",
                    "type": "uint8"
                }
            ],
            "name": "addAssetOcto",
            "outputs": [],
            "stateMutability": "nonpayable",
            "type": "function"
        },
        {
            "inputs": [
                {
                    "internalType": "address",
                    "name": "",
                    "type": "address"
                }
            ],
            "name": "assetToIndex",
            "outputs": [
                {
                    "internalType": "uint256",
                    "name": "",
                    "type": "uint256"
                }
            ],
            "stateMutability": "view",
            "type": "function"
        },
        {
            "inputs": [
                {
                    "internalType": "address",
                    "name": "account",
                    "type": "address"
                },
                {
                    "internalType": "uint256",
                    "name": "id",
                    "type": "uint256"
                }
            ],
            "name": "balanceOf",
            "outputs": [
                {
                    "internalType": "uint256",
                    "name": "",
                    "type": "uint256"
                }
            ],
            "stateMutability": "view",
            "type": "function"
        },
        {
            "inputs": [
                {
                    "internalType": "address[]",
                    "name": "accounts",
                    "type": "address[]"
                },
                {
                    "internalType": "uint256[]",
                    "name": "ids",
                    "type": "uint256[]"
                }
            ],
            "name": "balanceOfBatch",
            "outputs": [
                {
                    "internalType": "uint256[]",
                    "name": "",
                    "type": "uint256[]"
                }
            ],
            "stateMutability": "view",
            "type": "function"
        },
        {
            "inputs": [
                {
                    "internalType": "uint256",
                    "name": "_tokenID",
                    "type": "uint256"
                },
                {
                    "internalType": "uint256",
                    "name": "_newMaxSupply",
                    "type": "uint256"
                }
            ],
            "name": "changeMaxSupply",
            "outputs": [],
            "stateMutability": "nonpayable",
            "type": "function"
        },
        {
            "inputs": [
                {
                    "internalType": "uint256",
                    "name": "_id",
                    "type": "uint256"
                },
                {
                    "internalType": "uint256",
                    "name": "_amount",
                    "type": "uint256"
                },
                {
                    "internalType": "uint256",
                    "name": "_minimumLiquidity",
                    "type": "uint256"
                },
                {
                    "internalType": "address",
                    "name": "_to",
                    "type": "address"
                },
                {
                    "internalType": "uint256",
                    "name": "_deadline",
                    "type": "uint256"
                }
            ],
            "name": "deposit",
            "outputs": [
                {
                    "internalType": "uint256",
                    "name": "liquidity",
                    "type": "uint256"
                },
                {
                    "internalType": "uint256",
                    "name": "fee",
                    "type": "uint256"
                }
            ],
            "stateMutability": "nonpayable",
            "type": "function"
        },
        {
            "inputs": [],
            "name": "devaddr",
            "outputs": [
                {
                    "internalType": "address",
                    "name": "",
                    "type": "address"
                }
            ],
            "stateMutability": "view",
            "type": "function"
        },
        {
            "inputs": [],
            "name": "feeTo",
            "outputs": [
                {
                    "internalType": "address",
                    "name": "",
                    "type": "address"
                }
            ],
            "stateMutability": "view",
            "type": "function"
        },
        {
            "inputs": [],
            "name": "globalEquilCovRatio",
            "outputs": [
                {
                    "internalType": "uint256",
                    "name": "equilCovRatio",
                    "type": "uint256"
                },
                {
                    "internalType": "uint256",
                    "name": "invariant",
                    "type": "uint256"
                }
            ],
            "stateMutability": "view",
            "type": "function"
        },
        {
            "inputs": [
                {
                    "internalType": "uint256",
                    "name": "",
                    "type": "uint256"
                }
            ],
            "name": "indexToAsset",
            "outputs": [
                {
                    "internalType": "uint256",
                    "name": "cash",
                    "type": "uint256"
                },
                {
                    "internalType": "uint256",
                    "name": "liability",
                    "type": "uint256"
                },
                {
                    "internalType": "uint256",
                    "name": "maxSupply",
                    "type": "uint256"
                },
                {
                    "internalType": "uint256",
                    "name": "totalSupply",
                    "type": "uint256"
                },
                {
                    "internalType": "uint8",
                    "name": "decimals",
                    "type": "uint8"
                },
                {
                    "internalType": "address",
                    "name": "token",
                    "type": "address"
                },
                {
                    "internalType": "bool",
                    "name": "active",
                    "type": "bool"
                }
            ],
            "stateMutability": "view",
            "type": "function"
        },
        {
            "inputs": [
                {
                    "internalType": "uint256",
                    "name": "_a",
                    "type": "uint256"
                },
                {
                    "internalType": "uint256",
                    "name": "_lpFee",
                    "type": "uint256"
                }
            ],
            "name": "initialize",
            "outputs": [],
            "stateMutability": "nonpayable",
            "type": "function"
        },
        {
            "inputs": [
                {
                    "internalType": "address",
                    "name": "account",
                    "type": "address"
                },
                {
                    "internalType": "address",
                    "name": "operator",
                    "type": "address"
                }
            ],
            "name": "isApprovedForAll",
            "outputs": [
                {
                    "internalType": "bool",
                    "name": "",
                    "type": "bool"
                }
            ],
            "stateMutability": "view",
            "type": "function"
        },
        {
            "inputs": [],
            "name": "lastIndex",
            "outputs": [
                {
                    "internalType": "uint256",
                    "name": "",
                    "type": "uint256"
                }
            ],
            "stateMutability": "view",
            "type": "function"
        },
        {
            "inputs": [],
            "name": "lpDividendRatio",
            "outputs": [
                {
                    "internalType": "uint256",
                    "name": "",
                    "type": "uint256"
                }
            ],
            "stateMutability": "view",
            "type": "function"
        },
        {
            "inputs": [],
            "name": "lpFee",
            "outputs": [
                {
                    "internalType": "uint256",
                    "name": "",
                    "type": "uint256"
                }
            ],
            "stateMutability": "view",
            "type": "function"
        },
        {
            "inputs": [
                {
                    "internalType": "uint256",
                    "name": "_id",
                    "type": "uint256"
                }
            ],
            "name": "mintFee",
            "outputs": [],
            "stateMutability": "nonpayable",
            "type": "function"
        },
        {
            "inputs": [],
            "name": "mintFeeThreshold",
            "outputs": [
                {
                    "internalType": "uint256",
                    "name": "",
                    "type": "uint256"
                }
            ],
            "stateMutability": "view",
            "type": "function"
        },
        {
            "inputs": [],
            "name": "owner",
            "outputs": [
                {
                    "internalType": "address",
                    "name": "",
                    "type": "address"
                }
            ],
            "stateMutability": "view",
            "type": "function"
        },
        {
            "inputs": [],
            "name": "pause",
            "outputs": [],
            "stateMutability": "nonpayable",
            "type": "function"
        },
        {
            "inputs": [],
            "name": "paused",
            "outputs": [
                {
                    "internalType": "bool",
                    "name": "",
                    "type": "bool"
                }
            ],
            "stateMutability": "view",
            "type": "function"
        },
        {
            "inputs": [
                {
                    "internalType": "uint256",
                    "name": "_index",
                    "type": "uint256"
                }
            ],
            "name": "removeAsset",
            "outputs": [],
            "stateMutability": "nonpayable",
            "type": "function"
        },
        {
            "inputs": [],
            "name": "renounceOwnership",
            "outputs": [],
            "stateMutability": "nonpayable",
            "type": "function"
        },
        {
            "inputs": [
                {
                    "internalType": "address",
                    "name": "from",
                    "type": "address"
                },
                {
                    "internalType": "address",
                    "name": "to",
                    "type": "address"
                },
                {
                    "internalType": "uint256[]",
                    "name": "ids",
                    "type": "uint256[]"
                },
                {
                    "internalType": "uint256[]",
                    "name": "amounts",
                    "type": "uint256[]"
                },
                {
                    "internalType": "bytes",
                    "name": "data",
                    "type": "bytes"
                }
            ],
            "name": "safeBatchTransferFrom",
            "outputs": [],
            "stateMutability": "nonpayable",
            "type": "function"
        },
        {
            "inputs": [
                {
                    "internalType": "address",
                    "name": "from",
                    "type": "address"
                },
                {
                    "internalType": "address",
                    "name": "to",
                    "type": "address"
                },
                {
                    "internalType": "uint256",
                    "name": "id",
                    "type": "uint256"
                },
                {
                    "internalType": "uint256",
                    "name": "amount",
                    "type": "uint256"
                },
                {
                    "internalType": "bytes",
                    "name": "data",
                    "type": "bytes"
                }
            ],
            "name": "safeTransferFrom",
            "outputs": [],
            "stateMutability": "nonpayable",
            "type": "function"
        },
        {
            "inputs": [
                {
                    "internalType": "uint256",
                    "name": "_newA",
                    "type": "uint256"
                }
            ],
            "name": "setA",
            "outputs": [],
            "stateMutability": "nonpayable",
            "type": "function"
        },
        {
            "inputs": [
                {
                    "internalType": "address",
                    "name": "operator",
                    "type": "address"
                },
                {
                    "internalType": "bool",
                    "name": "approved",
                    "type": "bool"
                }
            ],
            "name": "setApprovalForAll",
            "outputs": [],
            "stateMutability": "nonpayable",
            "type": "function"
        },
        {
            "inputs": [
                {
                    "internalType": "address",
                    "name": "_newDev",
                    "type": "address"
                }
            ],
            "name": "setDev",
            "outputs": [],
            "stateMutability": "nonpayable",
            "type": "function"
        },
        {
            "inputs": [
                {
                    "internalType": "uint256",
                    "name": "_newLpDividendRatio",
                    "type": "uint256"
                }
            ],
            "name": "setFeeRatio",
            "outputs": [],
            "stateMutability": "nonpayable",
            "type": "function"
        },
        {
            "inputs": [
                {
                    "internalType": "address",
                    "name": "_newFeeTo",
                    "type": "address"
                }
            ],
            "name": "setFeeTo",
            "outputs": [],
            "stateMutability": "nonpayable",
            "type": "function"
        },
        {
            "inputs": [
                {
                    "internalType": "uint256",
                    "name": "_newLpFee",
                    "type": "uint256"
                }
            ],
            "name": "setLPFee",
            "outputs": [],
            "stateMutability": "nonpayable",
            "type": "function"
        },
        {
            "inputs": [
                {
                    "internalType": "uint256",
                    "name": "_newMintFeeThreshold",
                    "type": "uint256"
                }
            ],
            "name": "setMintFeeThreshold",
            "outputs": [],
            "stateMutability": "nonpayable",
            "type": "function"
        },
        {
            "inputs": [
                {
                    "internalType": "uint256",
                    "name": "_id",
                    "type": "uint256"
                },
                {
                    "internalType": "uint256",
                    "name": "_amount",
                    "type": "uint256"
                }
            ],
            "name": "spreadAccumulatedError",
            "outputs": [],
            "stateMutability": "nonpayable",
            "type": "function"
        },
        {
            "inputs": [
                {
                    "internalType": "bytes4",
                    "name": "interfaceId",
                    "type": "bytes4"
                }
            ],
            "name": "supportsInterface",
            "outputs": [
                {
                    "internalType": "bool",
                    "name": "",
                    "type": "bool"
                }
            ],
            "stateMutability": "view",
            "type": "function"
        },
        {
            "inputs": [
                {
                    "internalType": "uint256",
                    "name": "_fromID",
                    "type": "uint256"
                },
                {
                    "internalType": "uint256",
                    "name": "_toID",
                    "type": "uint256"
                },
                {
                    "internalType": "uint256",
                    "name": "_fromAmount",
                    "type": "uint256"
                },
                {
                    "internalType": "uint256",
                    "name": "_minToAmount",
                    "type": "uint256"
                },
                {
                    "internalType": "address",
                    "name": "_to",
                    "type": "address"
                },
                {
                    "internalType": "uint256",
                    "name": "_deadline",
                    "type": "uint256"
                }
            ],
            "name": "swap",
            "outputs": [
                {
                    "internalType": "uint256",
                    "name": "actualToAmount",
                    "type": "uint256"
                },
                {
                    "internalType": "uint256",
                    "name": "lpFeeAmount",
                    "type": "uint256"
                }
            ],
            "stateMutability": "nonpayable",
            "type": "function"
        },
        {
            "inputs": [
                {
                    "internalType": "address",
                    "name": "newOwner",
                    "type": "address"
                }
            ],
            "name": "transferOwnership",
            "outputs": [],
            "stateMutability": "nonpayable",
            "type": "function"
        },
        {
            "inputs": [],
            "name": "unpause",
            "outputs": [],
            "stateMutability": "nonpayable",
            "type": "function"
        },
        {
            "inputs": [
                {
                    "internalType": "uint256",
                    "name": "",
                    "type": "uint256"
                }
            ],
            "name": "uri",
            "outputs": [
                {
                    "internalType": "string",
                    "name": "",
                    "type": "string"
                }
            ],
            "stateMutability": "view",
            "type": "function"
        },
        {
            "inputs": [
                {
                    "internalType": "uint256",
                    "name": "_id",
                    "type": "uint256"
                },
                {
                    "internalType": "uint256",
                    "name": "_amountToWithdraw",
                    "type": "uint256"
                },
                {
                    "internalType": "uint256",
                    "name": "_minAmount",
                    "type": "uint256"
                },
                {
                    "internalType": "address",
                    "name": "_to",
                    "type": "address"
                },
                {
                    "internalType": "uint256",
                    "name": "_deadline",
                    "type": "uint256"
                }
            ],
            "name": "withdraw",
            "outputs": [
                {
                    "internalType": "uint256",
                    "name": "amount",
                    "type": "uint256"
                },
                {
                    "internalType": "uint256",
                    "name": "fee",
                    "type": "uint256"
                }
            ],
            "stateMutability": "nonpayable",
            "type": "function"
        }
    ],
    "bytecode": "0x608060405234801561001057600080fd5b5061485d806100206000396000f3fe608060405234801561001057600080fd5b50600436106102ac5760003560e01c80638456cb591161017b578063d477f05f116100d8578063f14f58f11161008c578063f2fde38b11610071578063f2fde38b14610642578063f3f6f0d714610655578063f46901ed1461065e57600080fd5b8063f14f58f11461061c578063f242432a1461062f57600080fd5b8063e4a30116116100bd578063e4a30116146105ba578063e985e9c5146105cd578063ee919d501461060957600080fd5b8063d477f05f14610593578063d49e77cd146105a657600080fd5b80638f6bdeaa1161012f578063a22cb46511610114578063a22cb4651461055a578063ce016ea11461056d578063d043c5651461058057600080fd5b80638f6bdeaa146104975780639eeb6a22146104aa57600080fd5b80638a35ace3116101605780638a35ace3146104605780638c9a4bb8146104735780638da5cb5b1461048657600080fd5b80638456cb59146104505780638a2dfe091461045857600080fd5b80633f4ba83a116102295780635cfe092e116101dd578063704ce43e116101c2578063704ce43e14610435578063715018a61461043e578063815bfd291461044657600080fd5b80635cfe092e146104185780635f4b9bde1461042257600080fd5b80634e1273f41161020e5780634e1273f4146103da57806353cb6a5e146103fa5780635c975abb1461040d57600080fd5b80633f4ba83a146103aa5780634422a8dd146103b257600080fd5b80630e89341c11610280578063265e7bde11610265578063265e7bde146103645780632eb2c2d61461037757806339e599451461038a57600080fd5b80630e89341c1461032f57806319f4ff2f1461034f57600080fd5b8062fdd58e146102b1578063017e7e58146102d757806301ffc9a7146103035780630dbe671f14610326575b600080fd5b6102c46102bf366004613f1e565b610671565b6040519081526020015b60405180910390f35b610103546102eb906001600160a01b031681565b6040516001600160a01b0390911681526020016102ce565b61031661031136600461407c565b61071f565b60405190151581526020016102ce565b6102c460fe5481565b61034261033d3660046140b6565b6107ba565b6040516102ce91906142f3565b61036261035d3660046140b6565b61084e565b005b6103626103723660046140e8565b6108e3565b610362610385366004613dd8565b610900565b6102c4610398366004613d8a565b60fc6020526000908152604090205481565b6103626109a2565b6103c56103c036600461410a565b6109f3565b604080519283526020830191909152016102ce565b6103ed6103e8366004613f8e565b610ce1565b6040516102ce91906142bb565b6103626104083660046140b6565b610e1f565b60655460ff16610316565b6102c46101015481565b6103c561043036600461410a565b610ea4565b6102c460ff5481565b6103626111b8565b6102c46101005481565b6103626111ca565b6103c5611219565b61036261046e3660046140b6565b611249565b6103626104813660046140e8565b611255565b6033546001600160a01b03166102eb565b6103c56104a5366004614151565b61143d565b6105176104b83660046140b6565b60fb60205260009081526040902080546001820154600283015460038401546004909401549293919290919060ff808216916001600160a01b036101008204169175010000000000000000000000000000000000000000009091041687565b60408051978852602088019690965294860193909352606085019190915260ff1660808401526001600160a01b031660a0830152151560c082015260e0016102ce565b610362610568366004613ee7565b61170a565b61036261057b366004613f48565b611719565b61036261058e3660046140b6565b611852565b6103626105a1366004613d8a565b611890565b610102546102eb906001600160a01b031681565b6103626105c83660046140e8565b611942565b6103166105db366004613da5565b6001600160a01b03918216600090815260ca6020908152604080832093909416825291909152205460ff1690565b6103626106173660046140b6565b611add565b61036261062a3660046140b6565b611b64565b61036261063d366004613e82565b611ba5565b610362610650366004613d8a565b611c40565b6102c460fd5481565b61036261066c366004613d8a565b611ccd565b60006001600160a01b0383166106f45760405162461bcd60e51b815260206004820152602a60248201527f455243313135353a2061646472657373207a65726f206973206e6f742061207660448201527f616c6964206f776e65720000000000000000000000000000000000000000000060648201526084015b60405180910390fd5b50600081815260c9602090815260408083206001600160a01b03861684529091529020545b92915050565b60006001600160e01b031982167fd9b67a2600000000000000000000000000000000000000000000000000000000148061078257506001600160e01b031982167f0e89341c00000000000000000000000000000000000000000000000000000000145b8061071957507f01ffc9a7000000000000000000000000000000000000000000000000000000006001600160e01b0319831614610719565b606060cb80546107c990614647565b80601f01602080910402602001604051908101604052809291908181526020018280546107f590614647565b80156108425780601f1061081757610100808354040283529160200191610842565b820191906000526020600020905b81548152906001019060200180831161082557829003601f168201915b50505050509050919050565b610856611d77565b670de0b6b3a764000081111561089e5760405162461bcd60e51b815260206004820152600d60248201526c496e76616c69642076616c756560981b60448201526064016106eb565b6108a6611dd1565b6101008190556040518181527f63fe946ed58429ac3c5e64d4356ff92c26d7fa1e73586515df8ba9f059ab54a5906020015b60405180910390a150565b6108eb611d77565b600091825260fb602052604090912060020155565b6001600160a01b03851633148061091c575061091c85336105db565b61098e5760405162461bcd60e51b815260206004820152602f60248201527f455243313135353a2063616c6c6572206973206e6f7420746f6b656e206f776e60448201527f6572206e6f7220617070726f766564000000000000000000000000000000000060648201526084016106eb565b61099b8585858585611df9565b5050505050565b610102546001600160a01b031633146109e95760405162461bcd60e51b81526020600482015260096024820152682337b93134b23232b760b91b60448201526064016106eb565b6109f161209a565b565b6000806109fe6120ec565b82428111610a4e5760405162461bcd60e51b815260206004820152601060248201527f446561646c696e65206e6f74206d65740000000000000000000000000000000060448201526064016106eb565b846001600160a01b038116610a945760405162461bcd60e51b815260206004820152600c60248201526b5a65726f206164647265737360a01b60448201526064016106eb565b87610ae15760405162461bcd60e51b815260206004820152600e60248201527f5a65726f206c697175696469747900000000000000000000000000000000000060448201526064016106eb565b600089815260fb60205260409020610afa338b8b61213f565b610b038a6122f6565b600481015460009060ff16610b218c610b1c8d846123c8565b612430565b9198509096509150868a10610b785760405162461bcd60e51b815260206004820152600e60248201527f416d6f756e7420746f6f206c6f7700000000000000000000000000000000000060448201526064016106eb565b610b8287826125c6565b836000016000828254610b9591906145e1565b9250508190555081836001016000828254610bb091906145e1565b925050819055508a836003016000828254610bcb91906145e1565b909155505060018301541580610c025750610bef6064670de0b6b3a76400006143c8565b60018401548454610bff916125f6565b10155b610c3a5760405162461bcd60e51b81526020600482015260096024820152682337b93134b23232b760b91b60448201526064016106eb565b610c643033610c498a856125c6565b600487015461010090046001600160a01b0316929190612631565b60048301546001600160a01b03808b169133917ffb80d861da582b723be2d19507ce3e03851820c464abea89156ec77e089b1ad991610100900416610ca98b866125c6565b604080516001600160a01b039093168352602083019190915281018f905260600160405180910390a350505050509550959350505050565b60608151835114610d5a5760405162461bcd60e51b815260206004820152602960248201527f455243313135353a206163636f756e747320616e6420696473206c656e67746860448201527f206d69736d61746368000000000000000000000000000000000000000000000060648201526084016106eb565b6000835167ffffffffffffffff811115610d7657610d76614729565b604051908082528060200260200182016040528015610d9f578160200160208202803683370190505b50905060005b8451811015610e1757610dea858281518110610dc357610dc3614713565b6020026020010151858381518110610ddd57610ddd614713565b6020026020010151610671565b828281518110610dfc57610dfc614713565b6020908102919091010152610e10816146af565b9050610da5565b509392505050565b610e27611d77565b670de0b6b3a7640000811115610e6f5760405162461bcd60e51b815260206004820152600d60248201526c496e76616c69642076616c756560981b60448201526064016106eb565b60ff8190556040518181527f0df0ce83543295289f05f3782542da3058e533082716a3b74f8913499444f3c5906020016108d8565b600080610eaf6120ec565b82428111610eff5760405162461bcd60e51b815260206004820152601060248201527f446561646c696e65206e6f74206d65740000000000000000000000000000000060448201526064016106eb565b846001600160a01b038116610f455760405162461bcd60e51b815260206004820152600c60248201526b5a65726f206164647265737360a01b60448201526064016106eb565b87610f925760405162461bcd60e51b815260206004820152600b60248201527f5a65726f20616d6f756e7400000000000000000000000000000000000000000060448201526064016106eb565b600089815260fb6020526040902060040154610fbe9061010090046001600160a01b031633308b612631565b610fc7896122f6565b600089815260fb6020526040812060040154610ff2908b90610fed908c9060ff166123c8565b6126d0565b9196509094509050846110475760405162461bcd60e51b815260206004820152600e60248201527f5a65726f206c697175696469747900000000000000000000000000000000000060448201526064016106eb565b8488106110965760405162461bcd60e51b815260206004820152600e60248201527f416d6f756e7420746f6f206c6f7700000000000000000000000000000000000060448201526064016106eb565b60008a815260fb60205260409020600401546110b6908a9060ff166123c8565b60008b815260fb6020526040812080549091906110d4908490614382565b909155505060008a815260fb6020526040812060010180548392906110fa908490614382565b909155505060008a815260fb602052604081206003018054879290611120908490614382565b92505081905550611142338b87604051806020016040528060008152506128d3565b60008a815260fb60209081526040918290206004015482516101009091046001600160a01b0390811682529181018c905291820187905288169033907ff5dd9317b9e63ac316ce44acc85f670b54b339cfa3e9076e1dd55065b922314b9060600160405180910390a35050509550959350505050565b6111c0611d77565b6109f160006129fc565b610102546001600160a01b031633146112115760405162461bcd60e51b81526020600482015260096024820152682337b93134b23232b760b91b60448201526064016106eb565b6109f1612a5b565b600080600080611227612a98565b8092508193505050600061123e838360fe54612b2e565b959294509192505050565b611252816122f6565b50565b610102546001600160a01b0316331461129c5760405162461bcd60e51b81526020600482015260096024820152682337b93134b23232b760b91b60448201526064016106eb565b6000828152610104602090815260408083205460fb909252808320805460049182015492517f70a082310000000000000000000000000000000000000000000000000000000081523092810192909252916113649160ff82169161010090046001600160a01b0316906370a082319060240160206040518083038186803b15801561132657600080fd5b505afa15801561133a573d6000803e3d6000fd5b505050506040513d601f19601f8201168201806040525081019061135e91906140cf565b906123c8565b61136e91906145e1565b61137891906145e1565b9050808211156113ba5760405162461bcd60e51b815260206004820152600d60248201526c496e76616c69642076616c756560981b60448201526064016106eb565b600083815260fb6020526040812080548492906113d8908490614382565b9091555050600083815260fb60209081526040918290206004015482516101009091046001600160a01b031681529081018490527f4941e18a2bcbb0f9fa0081238f26793a8ad8c202b913ae8bf5f7e523f68ff13791015b60405180910390a1505050565b6000806114486120ec565b824281116114985760405162461bcd60e51b815260206004820152601060248201527f446561646c696e65206e6f74206d65740000000000000000000000000000000060448201526064016106eb565b846001600160a01b0381166114de5760405162461bcd60e51b815260206004820152600c60248201526b5a65726f206164647265737360a01b60448201526064016106eb565b600089815260fb60205260408082206004908101548d84529190922090910154610100918290046001600160a01b03908116929091041614156115635760405162461bcd60e51b815260206004820152600c60248201527f53616d652061646472657373000000000000000000000000000000000000000060448201526064016106eb565b876115b05760405162461bcd60e51b815260206004820152600b60248201527f5a65726f20616d6f756e7400000000000000000000000000000000000000000060448201526064016106eb565b60008a815260fb60205260409020600401546115fd908b908b906115d8908c9060ff166123c8565b60008d815260fb60205260409020600401546115f8908c9060ff166123c8565b612b59565b60008b815260fb6020526040902060040154919550935061162290859060ff166125c6565b60008b815260fb60205260409020600401549094506116519061010090046001600160a01b031633308b612631565b600089815260fb602052604090206004015461167c9061010090046001600160a01b03168786612ca5565b60008a815260fb602090815260408083206004908101548d855293829020015481516001600160a01b0361010095869004811682529490910484169281019290925281018a9052606081018690529087169033907f54787c404bb33c88e86f4baf88183a3b0141d0a848e6a9f7a13b66ae3a9b73d19060800160405180910390a35050965096945050505050565b611715338383612cee565b5050565b611721611d77565b6040805160e081018252600080825260208083018281528385018781526060850184815260ff808916608088019081526001600160a01b03808d1660a08a01908152600160c08b0181815260fd80548c5260fb909a529b8a209a518b559651968a019690965593516002890155915160038801559051600490960180549351975115157501000000000000000000000000000000000000000000027fffffffffffffffffffff00ffffffffffffffffffffffffffffffffffffffffff98909316610100027fffffffffffffffffffffff00000000000000000000000000000000000000000090941696909116959095179190911794909416939093179091558154919061182d836146af565b909155506001600160a01b03909316600090815260fc60205260409020929092555050565b61185a611d77565b6101018190556040518181527f71592c407ca0abb34bb7ada163a2a8b25a2e58342a3c0926df1b9ce73cb214a5906020016108d8565b611898611d77565b806001600160a01b0381166118de5760405162461bcd60e51b815260206004820152600c60248201526b5a65726f206164647265737360a01b60448201526064016106eb565b610102805473ffffffffffffffffffffffffffffffffffffffff19166001600160a01b0384169081179091556040519081527fc221fc4c7e5fe6682d7dbb36b97edf0a75127b7ef5c0ffafcbb981689a7bf78b906020015b60405180910390a15050565b600054610100900460ff16158080156119625750600054600160ff909116105b8061197c5750303b15801561197c575060005460ff166001145b6119ee5760405162461bcd60e51b815260206004820152602e60248201527f496e697469616c697a61626c653a20636f6e747261637420697320616c72656160448201527f647920696e697469616c697a656400000000000000000000000000000000000060648201526084016106eb565b6000805460ff191660011790558015611a11576000805461ff0019166101001790555b611a19612de3565b611a21612e56565b611a5f6040518060400160405280601b81526020017f68747470733a2f2f7369736170692e66696e616e63652f7b69647d0000000000815250612ecd565b60fe83905560ff829055670de0b6b3a764000061010055610102805473ffffffffffffffffffffffffffffffffffffffff1916331790558015611ad8576000805461ff0019169055604051600181527f7f26b83ff96e1f2b6a682f133852f6798a09c465da95921460cefb384740249890602001611430565b505050565b611ae5611d77565b670de0b6b3a764000060fe541115611b2f5760405162461bcd60e51b815260206004820152600d60248201526c496e76616c69642076616c756560981b60448201526064016106eb565b60fe8190556040518181527f3f4ccc115548cf9126e487dcdf7c805dbb3578de78180051ace88afa59675e9c906020016108d8565b611b6c611d77565b600090815260fb6020526040902060040180547fffffffffffffffffffff00ffffffffffffffffffffffffffffffffffffffffff169055565b6001600160a01b038516331480611bc15750611bc185336105db565b611c335760405162461bcd60e51b815260206004820152602f60248201527f455243313135353a2063616c6c6572206973206e6f7420746f6b656e206f776e60448201527f6572206e6f7220617070726f766564000000000000000000000000000000000060648201526084016106eb565b61099b8585858585612f41565b611c48611d77565b6001600160a01b038116611cc45760405162461bcd60e51b815260206004820152602660248201527f4f776e61626c653a206e6577206f776e657220697320746865207a65726f206160448201527f646472657373000000000000000000000000000000000000000000000000000060648201526084016106eb565b611252816129fc565b611cd5611d77565b806001600160a01b038116611d1b5760405162461bcd60e51b815260206004820152600c60248201526b5a65726f206164647265737360a01b60448201526064016106eb565b610103805473ffffffffffffffffffffffffffffffffffffffff19166001600160a01b0384169081179091556040519081527fd7ecd1f497e38c39a3455e0704e1bddc382baa8059756b571ff24b92cab7ff5490602001611936565b6033546001600160a01b031633146109f15760405162461bcd60e51b815260206004820181905260248201527f4f776e61626c653a2063616c6c6572206973206e6f7420746865206f776e657260448201526064016106eb565b60005b60fd5481101561125257611de7816122f6565b80611df1816146af565b915050611dd4565b8151835114611e705760405162461bcd60e51b815260206004820152602860248201527f455243313135353a2069647320616e6420616d6f756e7473206c656e6774682060448201527f6d69736d6174636800000000000000000000000000000000000000000000000060648201526084016106eb565b6001600160a01b038416611eec5760405162461bcd60e51b815260206004820152602560248201527f455243313135353a207472616e7366657220746f20746865207a65726f20616460448201527f647265737300000000000000000000000000000000000000000000000000000060648201526084016106eb565b3360005b845181101561202c576000858281518110611f0d57611f0d614713565b602002602001015190506000858381518110611f2b57611f2b614713565b602090810291909101810151600084815260c9835260408082206001600160a01b038e168352909352919091205490915081811015611fd25760405162461bcd60e51b815260206004820152602a60248201527f455243313135353a20696e73756666696369656e742062616c616e636520666f60448201527f72207472616e736665720000000000000000000000000000000000000000000060648201526084016106eb565b600083815260c9602090815260408083206001600160a01b038e8116855292528083208585039055908b16825281208054849290612011908490614382565b9250508190555050505080612025906146af565b9050611ef0565b50846001600160a01b0316866001600160a01b0316826001600160a01b03167f4a39dc06d4c0dbc64b70af90fd698a233a518aa5d07e595d983b8c0526c8f7fb878760405161207c9291906142ce565b60405180910390a461209281878787878761311b565b505050505050565b6120a2613317565b6065805460ff191690557f5db9ee0a495bf2e6ff9c91a7834c1ba4fdd244a5e8aa4e537bd38aeae4b073aa335b6040516001600160a01b03909116815260200160405180910390a1565b60655460ff16156109f15760405162461bcd60e51b815260206004820152601060248201527f5061757361626c653a207061757365640000000000000000000000000000000060448201526064016106eb565b6001600160a01b0383166121bb5760405162461bcd60e51b815260206004820152602360248201527f455243313135353a206275726e2066726f6d20746865207a65726f206164647260448201527f657373000000000000000000000000000000000000000000000000000000000060648201526084016106eb565b3360006121c784613369565b905060006121d484613369565b604080516020808201835260009182905288825260c981528282206001600160a01b038b16835290522054909150848110156122775760405162461bcd60e51b8152602060048201526024808201527f455243313135353a206275726e20616d6f756e7420657863656564732062616c60448201527f616e63650000000000000000000000000000000000000000000000000000000060648201526084016106eb565b600086815260c9602090815260408083206001600160a01b038b81168086529184528285208a8703905582518b81529384018a90529092908816917fc3d58168c5ae7397731d063d5bbf3d657854427343f4c083240f7aacaa2d0f62910160405180910390a46040805160208101909152600090525b50505050505050565b6000818152610104602052604090205480158061231557506101015481105b1561231e575050565b600061234161010054670de0b6b3a764000061233a91906145e1565b83906133b4565b9050600061234f82846145e1565b905080156123b357600061236385836126d0565b50600087815260fb60205260408120600101805492945084935091612389908490614382565b9091555050600085815260fb6020526040812080548492906123ac908490614382565b9091555050505b50505060009081526101046020526040812055565b600060128260ff1610156123fd576123e18260126145f8565b6123ec90600a61441f565b6123f6908461456a565b9050610719565b60128260ff161115612429576124146012836145f8565b61241f90600a61441f565b6123f690846143c8565b5090919050565b600082815260fb6020526040812060038101546001909101548291829161245890869061456a565b61246291906143c8565b9150816124b15760405162461bcd60e51b815260206004820152600e60248201527f5a65726f206c697175696469747900000000000000000000000000000000000060448201526064016106eb565b60006124bc836146ca565b600087815260fb60205260408120805460019091015460fe54939450909290916124e6858461432a565b905060006124f485856133d4565b9050600061251661250585846133d4565b61250f9084614589565b8690613408565b90506000600261253861253187670de0b6b3a7640000614589565b8a90613408565b612542908461432a565b61254c919061439a565b905060006125828261256861256188806144ca565b8990613408565b61257285806144ca565b61257c919061432a565b90613428565b61258c908361432a565b90506125988189614589565b9b508b8b106125b2576125ab8c8c6145e1565b99506125b6565b8a9b505b5050505050505050509250925092565b600060128260ff1610156125df576124148260126145f8565b60128260ff161115612429576123e16012836145f8565b6000816126046002826143c8565b612616670de0b6b3a76400008661456a565b6126209190614382565b61262a91906143c8565b9392505050565b6040516001600160a01b03808516602483015283166044820152606481018290526126ca9085907f23b872dd00000000000000000000000000000000000000000000000000000000906084015b60408051601f198184030181529190526020810180517bffffffffffffffffffffffffffffffffffffffffffffffffffffffff166001600160e01b0319909316929092179091526134ec565b50505050565b600082815260fb60205260408120805460019091015460fe54839283928692816126fc57879550612862565b6000612708858561432a565b12156127465760405162461bcd60e51b815260206004820152600d60248201526c496e76616c69642076616c756560981b60448201526064016106eb565b600061275284846133d4565b90506000612760858761432a565b9050600061276e8486613408565b6127799060026144ca565b61279561278e86670de0b6b3a7640000614589565b8490613408565b61279f919061432a565b905060006127b7866127b18782613408565b90613408565b6127c18480613408565b6127e3866127cf8a8a6144ca565b6127d9919061439a565b61250f908b614589565b6127ed9190614589565b6127f7919061432a565b90506000816128078760046144ca565b61281191906144ca565b61281b84806144ca565b6128259190614589565b90506002612850876128378487613428565b612840876146ca565b61284a919061432a565b906133d4565b61285a919061439a565b9a5050505050505b87861061287a5761287388876145e1565b945061287e565b8795505b600089815260fb602052604090206001015480156128c35760008a815260fb602052604090206003015481906128b4908961456a565b6128be91906143c8565b6128c5565b865b975050505050509250925092565b6001600160a01b03841661294f5760405162461bcd60e51b815260206004820152602160248201527f455243313135353a206d696e7420746f20746865207a65726f2061646472657360448201527f730000000000000000000000000000000000000000000000000000000000000060648201526084016106eb565b33600061295b85613369565b9050600061296885613369565b9050600086815260c9602090815260408083206001600160a01b038b1684529091528120805487929061299c908490614382565b909155505060408051878152602081018790526001600160a01b03808a1692600092918716917fc3d58168c5ae7397731d063d5bbf3d657854427343f4c083240f7aacaa2d0f62910160405180910390a46122ed836000898989896135d1565b603380546001600160a01b0383811673ffffffffffffffffffffffffffffffffffffffff19831681179093556040519116919082907f8be0079c531659141344cd1fd0a4f28419497f9722a3daafe3b4186f6b6457e090600090a35050565b612a636120ec565b6065805460ff191660011790557f62e78cea01bee320cd4e420270b5ea74000d11b0c9f74754ebdbfc544b05a2586120cf3390565b60fe546000908190815b60fd54811015612b2857600081815260fb60205260409020805460019091015480612ace575050612b16565b6000612ada83836133d4565b9050612ae6828761432a565b9550612b06612af586836133d4565b612aff9083614589565b8390613408565b612b10908861432a565b96505050505b80612b20816146af565b915050612aa2565b50509091565b600080612b3b85856133d4565b612b44906146ca565b9050612b508184613723565b95945050505050565b600080612b6786868661375e565b9092509050818310612bbb5760405162461bcd60e51b815260206004820152600e60248201527f416d6f756e7420746f6f206c6f7700000000000000000000000000000000000060448201526064016106eb565b6000858152610104602052604081208054839290612bda908490614382565b9091555050600086815260fb602052604081208054869290612bfd908490614382565b90915550612c0d90508183614382565b600086815260fb602052604081208054909190612c2b9084906145e1565b90915550612c4490506064670de0b6b3a76400006143c8565b600086815260fb6020526040902060018101549054612c62916125f6565b1015612c9c5760405162461bcd60e51b81526020600482015260096024820152682337b93134b23232b760b91b60448201526064016106eb565b94509492505050565b6040516001600160a01b038316602482015260448101829052611ad89084907fa9059cbb000000000000000000000000000000000000000000000000000000009060640161267e565b816001600160a01b0316836001600160a01b03161415612d765760405162461bcd60e51b815260206004820152602960248201527f455243313135353a2073657474696e6720617070726f76616c2073746174757360448201527f20666f722073656c66000000000000000000000000000000000000000000000060648201526084016106eb565b6001600160a01b03838116600081815260ca6020908152604080832094871680845294825291829020805460ff191686151590811790915591519182527f17307eab39ab6107e8899845ad3d59bd9653f200f220920489ca2b5937696c31910160405180910390a3505050565b600054610100900460ff16612e4e5760405162461bcd60e51b815260206004820152602b60248201527f496e697469616c697a61626c653a20636f6e7472616374206973206e6f74206960448201526a6e697469616c697a696e6760a81b60648201526084016106eb565b6109f1613957565b600054610100900460ff16612ec15760405162461bcd60e51b815260206004820152602b60248201527f496e697469616c697a61626c653a20636f6e7472616374206973206e6f74206960448201526a6e697469616c697a696e6760a81b60648201526084016106eb565b6065805460ff19169055565b600054610100900460ff16612f385760405162461bcd60e51b815260206004820152602b60248201527f496e697469616c697a61626c653a20636f6e7472616374206973206e6f74206960448201526a6e697469616c697a696e6760a81b60648201526084016106eb565b611252816139cb565b6001600160a01b038416612fbd5760405162461bcd60e51b815260206004820152602560248201527f455243313135353a207472616e7366657220746f20746865207a65726f20616460448201527f647265737300000000000000000000000000000000000000000000000000000060648201526084016106eb565b336000612fc985613369565b90506000612fd685613369565b9050600086815260c9602090815260408083206001600160a01b038c168452909152902054858110156130715760405162461bcd60e51b815260206004820152602a60248201527f455243313135353a20696e73756666696369656e742062616c616e636520666f60448201527f72207472616e736665720000000000000000000000000000000000000000000060648201526084016106eb565b600087815260c9602090815260408083206001600160a01b038d8116855292528083208985039055908a168252812080548892906130b0908490614382565b909155505060408051888152602081018890526001600160a01b03808b16928c821692918816917fc3d58168c5ae7397731d063d5bbf3d657854427343f4c083240f7aacaa2d0f62910160405180910390a4613110848a8a8a8a8a6135d1565b505050505050505050565b6001600160a01b0384163b15612092576040517fbc197c810000000000000000000000000000000000000000000000000000000081526001600160a01b0385169063bc197c81906131789089908990889088908890600401614225565b602060405180830381600087803b15801561319257600080fd5b505af19250505080156131c2575060408051601f3d908101601f191682019092526131bf91810190614099565b60015b613278576131ce61473f565b806308c379a0141561320857506131e361475b565b806131ee575061320a565b8060405162461bcd60e51b81526004016106eb91906142f3565b505b60405162461bcd60e51b815260206004820152603460248201527f455243313135353a207472616e7366657220746f206e6f6e204552433131353560448201527f526563656976657220696d706c656d656e74657200000000000000000000000060648201526084016106eb565b6001600160e01b031981167fbc197c8100000000000000000000000000000000000000000000000000000000146122ed5760405162461bcd60e51b815260206004820152602860248201527f455243313135353a204552433131353552656365697665722072656a6563746560448201527f6420746f6b656e7300000000000000000000000000000000000000000000000060648201526084016106eb565b60655460ff166109f15760405162461bcd60e51b815260206004820152601460248201527f5061757361626c653a206e6f742070617573656400000000000000000000000060448201526064016106eb565b604080516001808252818301909252606091600091906020808301908036833701905050905082816000815181106133a3576133a3614713565b602090810291909101015292915050565b6000670de0b6b3a76400006133ca6002826143c8565b612616848661456a565b6000816133e260028261439a565b6133f4670de0b6b3a7640000866144ca565b6133fe919061432a565b61262a919061439a565b6000670de0b6b3a764000061341e60028261439a565b6133f484866144ca565b600060038313156134dd576000821380156134435750828213155b1561344f57508061347f565b600082128015613467575082613464836146ca565b13155b1561347c57613475826146ca565b905061347f565b50815b600060028261348e818761439a565b613498919061432a565b6134a2919061439a565b90505b8181146134d7579050806002816134bc818761439a565b6134c6919061432a565b6134d0919061439a565b90506134a5565b50610719565b82156107195750600192915050565b6000613541826040518060400160405280602081526020017f5361666545524332303a206c6f772d6c6576656c2063616c6c206661696c6564815250856001600160a01b0316613a3f9092919063ffffffff16565b805190915015611ad8578080602001905181019061355f919061405f565b611ad85760405162461bcd60e51b815260206004820152602a60248201527f5361666545524332303a204552433230206f7065726174696f6e20646964206e60448201527f6f7420737563636565640000000000000000000000000000000000000000000060648201526084016106eb565b6001600160a01b0384163b15612092576040517ff23a6e610000000000000000000000000000000000000000000000000000000081526001600160a01b0385169063f23a6e619061362e9089908990889088908890600401614283565b602060405180830381600087803b15801561364857600080fd5b505af1925050508015613678575060408051601f3d908101601f1916820190925261367591810190614099565b60015b613684576131ce61473f565b6001600160e01b031981167ff23a6e6100000000000000000000000000000000000000000000000000000000146122ed5760405162461bcd60e51b815260206004820152602860248201527f455243313135353a204552433131353552656365697665722072656a6563746560448201527f6420746f6b656e7300000000000000000000000000000000000000000000000060648201526084016106eb565b600060028361375481670de0b6b3a76400006137408760046144ca565b61374a91906144ca565b61257288806144ca565b6133fe9190614589565b600082815260fb602052604080822080548684529183208054600191820154878652919092015460fe548594859490938493919290919081158015906137a357508215155b6137df5760405162461bcd60e51b815260206004820152600d60248201526c496e76616c69642076616c756560981b60448201526064016106eb565b6000613818866137ef85806144ca565b6137f9919061439a565b8661380487806144ca565b61380e919061439a565b612aff919061432a565b613822878761432a565b61382c9190614589565b9050600061383e8561284a8e8961432a565b9050600061384c83866133d4565b8561385786856133d4565b6138619085614589565b61386b90896144ca565b613875919061439a565b61387f9190614589565b9050600061388d8286613723565b905060008961389c8884613408565b6138a69190614589565b905060008112156138c1576138ba816146ca565b9b506138c5565b809b505b8b8b10156139155760405162461bcd60e51b815260206004820152600f60248201527f4e6f7420656e6f7567682063617368000000000000000000000000000000000060448201526064016106eb565b60ff54613923908d906133b4565b9c5060008f131561393f576139388d8d6145e1565b9d50613943565b8b9d505b505050505050505050505050935093915050565b600054610100900460ff166139c25760405162461bcd60e51b815260206004820152602b60248201527f496e697469616c697a61626c653a20636f6e7472616374206973206e6f74206960448201526a6e697469616c697a696e6760a81b60648201526084016106eb565b6109f1336129fc565b600054610100900460ff16613a365760405162461bcd60e51b815260206004820152602b60248201527f496e697469616c697a61626c653a20636f6e7472616374206973206e6f74206960448201526a6e697469616c697a696e6760a81b60648201526084016106eb565b61125281613a56565b6060613a4e8484600085613a69565b949350505050565b80516117159060cb906020840190613bea565b606082471015613ae15760405162461bcd60e51b815260206004820152602660248201527f416464726573733a20696e73756666696369656e742062616c616e636520666f60448201527f722063616c6c000000000000000000000000000000000000000000000000000060648201526084016106eb565b6001600160a01b0385163b613b385760405162461bcd60e51b815260206004820152601d60248201527f416464726573733a2063616c6c20746f206e6f6e2d636f6e747261637400000060448201526064016106eb565b600080866001600160a01b03168587604051613b549190614209565b60006040518083038185875af1925050503d8060008114613b91576040519150601f19603f3d011682016040523d82523d6000602084013e613b96565b606091505b5091509150613ba6828286613bb1565b979650505050505050565b60608315613bc057508161262a565b825115613bd05782518084602001fd5b8160405162461bcd60e51b81526004016106eb91906142f3565b828054613bf690614647565b90600052602060002090601f016020900481019282613c185760008555613c5e565b82601f10613c3157805160ff1916838001178555613c5e565b82800160010185558215613c5e579182015b82811115613c5e578251825591602001919060010190613c43565b50613c6a929150613c6e565b5090565b5b80821115613c6a5760008155600101613c6f565b80356001600160a01b0381168114613c9a57600080fd5b919050565b600082601f830112613cb057600080fd5b81356020613cbd82614306565b604051613cca8282614682565b8381528281019150858301600585901b87018401881015613cea57600080fd5b60005b85811015613d0957813584529284019290840190600101613ced565b5090979650505050505050565b600082601f830112613d2757600080fd5b813567ffffffffffffffff811115613d4157613d41614729565b604051613d586020601f19601f8501160182614682565b818152846020838601011115613d6d57600080fd5b816020850160208301376000918101602001919091529392505050565b600060208284031215613d9c57600080fd5b61262a82613c83565b60008060408385031215613db857600080fd5b613dc183613c83565b9150613dcf60208401613c83565b90509250929050565b600080600080600060a08688031215613df057600080fd5b613df986613c83565b9450613e0760208701613c83565b9350604086013567ffffffffffffffff80821115613e2457600080fd5b613e3089838a01613c9f565b94506060880135915080821115613e4657600080fd5b613e5289838a01613c9f565b93506080880135915080821115613e6857600080fd5b50613e7588828901613d16565b9150509295509295909350565b600080600080600060a08688031215613e9a57600080fd5b613ea386613c83565b9450613eb160208701613c83565b93506040860135925060608601359150608086013567ffffffffffffffff811115613edb57600080fd5b613e7588828901613d16565b60008060408385031215613efa57600080fd5b613f0383613c83565b91506020830135613f1381614803565b809150509250929050565b60008060408385031215613f3157600080fd5b613f3a83613c83565b946020939093013593505050565b600080600060608486031215613f5d57600080fd5b613f6684613c83565b925060208401359150604084013560ff81168114613f8357600080fd5b809150509250925092565b60008060408385031215613fa157600080fd5b823567ffffffffffffffff80821115613fb957600080fd5b818501915085601f830112613fcd57600080fd5b81356020613fda82614306565b604051613fe78282614682565b8381528281019150858301600585901b870184018b101561400757600080fd5b600096505b848710156140315761401d81613c83565b83526001969096019591830191830161400c565b509650508601359250508082111561404857600080fd5b5061405585828601613c9f565b9150509250929050565b60006020828403121561407157600080fd5b815161262a81614803565b60006020828403121561408e57600080fd5b813561262a81614811565b6000602082840312156140ab57600080fd5b815161262a81614811565b6000602082840312156140c857600080fd5b5035919050565b6000602082840312156140e157600080fd5b5051919050565b600080604083850312156140fb57600080fd5b50508035926020909101359150565b600080600080600060a0868803121561412257600080fd5b85359450602086013593506040860135925061414060608701613c83565b949793965091946080013592915050565b60008060008060008060c0878903121561416a57600080fd5b8635955060208701359450604087013593506060870135925061418f60808801613c83565b915060a087013590509295509295509295565b600081518084526020808501945080840160005b838110156141d2578151875295820195908201906001016141b6565b509495945050505050565b600081518084526141f581602086016020860161461b565b601f01601f19169290920160200192915050565b6000825161421b81846020870161461b565b9190910192915050565b60006001600160a01b03808816835280871660208401525060a0604083015261425160a08301866141a2565b828103606084015261426381866141a2565b9050828103608084015261427781856141dd565b98975050505050505050565b60006001600160a01b03808816835280871660208401525084604083015283606083015260a06080830152613ba660a08301846141dd565b60208152600061262a60208301846141a2565b6040815260006142e160408301856141a2565b8281036020840152612b5081856141a2565b60208152600061262a60208301846141dd565b600067ffffffffffffffff82111561432057614320614729565b5060051b60200190565b6000808212827f7fffffffffffffffffffffffffffffffffffffffffffffffffffffffffffffff03841381151615614364576143646146e7565b82600160ff1b03841281161561437c5761437c6146e7565b50500190565b60008219821115614395576143956146e7565b500190565b6000826143a9576143a96146fd565b6000198314600160ff1b831416156143c3576143c36146e7565b500590565b6000826143d7576143d76146fd565b500490565b600181815b808511156144175781600019048211156143fd576143fd6146e7565b8085161561440a57918102915b93841c93908002906143e1565b509250929050565b600061262a60ff84168360008261443857506001610719565b8161444557506000610719565b816001811461445b576002811461446557614481565b6001915050610719565b60ff841115614476576144766146e7565b50506001821b610719565b5060208310610133831016604e8410600b84101617156144a4575081810a610719565b6144ae83836143dc565b80600019048211156144c2576144c26146e7565b029392505050565b60007f7fffffffffffffffffffffffffffffffffffffffffffffffffffffffffffffff60008413600084138583048511828216161561450b5761450b6146e7565b600160ff1b600087128682058812818416161561452a5761452a6146e7565b60008712925087820587128484161615614546576145466146e7565b8785058712818416161561455c5761455c6146e7565b505050929093029392505050565b6000816000190483118215151615614584576145846146e7565b500290565b600080831283600160ff1b018312811516156145a7576145a76146e7565b837f7fffffffffffffffffffffffffffffffffffffffffffffffffffffffffffffff0183138116156145db576145db6146e7565b50500390565b6000828210156145f3576145f36146e7565b500390565b600060ff821660ff841680821015614612576146126146e7565b90039392505050565b60005b8381101561463657818101518382015260200161461e565b838111156126ca5750506000910152565b600181811c9082168061465b57607f821691505b6020821081141561467c57634e487b7160e01b600052602260045260246000fd5b50919050565b601f19601f830116810181811067ffffffffffffffff821117156146a8576146a8614729565b6040525050565b60006000198214156146c3576146c36146e7565b5060010190565b6000600160ff1b8214156146e0576146e06146e7565b5060000390565b634e487b7160e01b600052601160045260246000fd5b634e487b7160e01b600052601260045260246000fd5b634e487b7160e01b600052603260045260246000fd5b634e487b7160e01b600052604160045260246000fd5b600060033d11156147585760046000803e5060005160e01c5b90565b600060443d10156147695790565b6040517ffffffffffffffffffffffffffffffffffffffffffffffffffffffffffffffffc803d016004833e81513d67ffffffffffffffff81602484011181841117156147b757505050505090565b82850191508151818111156147cf5750505050505090565b843d87010160208285010111156147e95750505050505090565b6147f860208286010187614682565b509095945050505050565b801515811461125257600080fd5b6001600160e01b03198116811461125257600080fdfea26469706673582212205a242823b4be3b4e34d8fd0239ec81e3fa3d1b397d4c02b1efb53c34cdb8f8db64736f6c63430008050033",
    "linkReferences": {},
    "deployedLinkReferences": {}
}