{
    "_format": "hh-sol-artifact-1",
    "contractName": "Portal",
    "sourceName": "contracts/synth-core/Portal.sol",
    "abi": [
        {
            "anonymous": false,
            "inputs": [
                {
                    "indexed": true,
                    "internalType": "bytes32",
                    "name": "id",
                    "type": "bytes32"
                },
                {
                    "indexed": true,
                    "internalType": "bytes32",
                    "name": "crossChainID",
                    "type": "bytes32"
                },
                {
                    "indexed": true,
                    "internalType": "address",
                    "name": "to",
                    "type": "address"
                },
                {
                    "indexed": false,
                    "internalType": "uint256",
                    "name": "amount",
                    "type": "uint256"
                },
                {
                    "indexed": false,
                    "internalType": "uint256",
                    "name": "bridgingFee",
                    "type": "uint256"
                },
                {
                    "indexed": false,
                    "internalType": "address",
                    "name": "token",
                    "type": "address"
                }
            ],
            "name": "BurnCompleted",
            "type": "event"
        },
        {
            "anonymous": false,
            "inputs": [
                {
                    "indexed": false,
                    "internalType": "bytes32",
                    "name": "requestId",
                    "type": "bytes32"
                },
                {
                    "indexed": true,
                    "internalType": "bytes32",
                    "name": "clientId",
                    "type": "bytes32"
                }
            ],
            "name": "ClientIdLog",
            "type": "event"
        },
        {
            "anonymous": false,
            "inputs": [
                {
                    "indexed": true,
                    "internalType": "bytes32",
                    "name": "id",
                    "type": "bytes32"
                },
                {
                    "indexed": true,
                    "internalType": "address",
                    "name": "to",
                    "type": "address"
                }
            ],
            "name": "MetaRevertRequest",
            "type": "event"
        },
        {
            "anonymous": false,
            "inputs": [
                {
                    "indexed": true,
                    "internalType": "address",
                    "name": "previousOwner",
                    "type": "address"
                },
                {
                    "indexed": true,
                    "internalType": "address",
                    "name": "newOwner",
                    "type": "address"
                }
            ],
            "name": "OwnershipTransferred",
            "type": "event"
        },
        {
            "anonymous": false,
            "inputs": [
                {
                    "indexed": false,
                    "internalType": "address",
                    "name": "account",
                    "type": "address"
                }
            ],
            "name": "Paused",
            "type": "event"
        },
        {
            "anonymous": false,
            "inputs": [
                {
                    "indexed": true,
                    "internalType": "bytes32",
                    "name": "id",
                    "type": "bytes32"
                },
                {
                    "indexed": true,
                    "internalType": "address",
                    "name": "to",
                    "type": "address"
                }
            ],
            "name": "RevertBurnRequest",
            "type": "event"
        },
        {
            "anonymous": false,
            "inputs": [
                {
                    "indexed": true,
                    "internalType": "bytes32",
                    "name": "id",
                    "type": "bytes32"
                },
                {
                    "indexed": true,
                    "internalType": "address",
                    "name": "to",
                    "type": "address"
                },
                {
                    "indexed": false,
                    "internalType": "uint256",
                    "name": "amount",
                    "type": "uint256"
                },
                {
                    "indexed": false,
                    "internalType": "uint256",
                    "name": "bridgingFee",
                    "type": "uint256"
                },
                {
                    "indexed": false,
                    "internalType": "address",
                    "name": "token",
                    "type": "address"
                }
            ],
            "name": "RevertSynthesizeCompleted",
            "type": "event"
        },
        {
            "anonymous": false,
            "inputs": [
                {
                    "indexed": false,
                    "internalType": "address",
                    "name": "metaRouter",
                    "type": "address"
                }
            ],
            "name": "SetMetaRouter",
            "type": "event"
        },
        {
            "anonymous": false,
            "inputs": [
                {
                    "indexed": false,
                    "internalType": "address",
                    "name": "token",
                    "type": "address"
                },
                {
                    "indexed": false,
                    "internalType": "uint256",
                    "name": "threshold",
                    "type": "uint256"
                }
            ],
            "name": "SetTokenThreshold",
            "type": "event"
        },
        {
            "anonymous": false,
            "inputs": [
                {
                    "indexed": false,
                    "internalType": "address",
                    "name": "token",
                    "type": "address"
                },
                {
                    "indexed": false,
                    "internalType": "bool",
                    "name": "activate",
                    "type": "bool"
                }
            ],
            "name": "SetWhitelistToken",
            "type": "event"
        },
        {
            "anonymous": false,
            "inputs": [
                {
                    "indexed": false,
                    "internalType": "bytes32",
                    "name": "id",
                    "type": "bytes32"
                },
                {
                    "indexed": true,
                    "internalType": "address",
                    "name": "from",
                    "type": "address"
                },
                {
                    "indexed": true,
                    "internalType": "uint256",
                    "name": "chainID",
                    "type": "uint256"
                },
                {
                    "indexed": true,
                    "internalType": "address",
                    "name": "revertableAddress",
                    "type": "address"
                },
                {
                    "indexed": false,
                    "internalType": "address",
                    "name": "to",
                    "type": "address"
                },
                {
                    "indexed": false,
                    "internalType": "uint256",
                    "name": "amount",
                    "type": "uint256"
                },
                {
                    "indexed": false,
                    "internalType": "address",
                    "name": "token",
                    "type": "address"
                }
            ],
            "name": "SynthesizeRequest",
            "type": "event"
        },
        {
            "anonymous": false,
            "inputs": [
                {
                    "indexed": false,
                    "internalType": "address",
                    "name": "account",
                    "type": "address"
                }
            ],
            "name": "Unpaused",
            "type": "event"
        },
        {
            "inputs": [
                {
                    "internalType": "address",
                    "name": "",
                    "type": "address"
                }
            ],
            "name": "balanceOf",
            "outputs": [
                {
                    "internalType": "uint256",
                    "name": "",
                    "type": "uint256"
                }
            ],
            "stateMutability": "view",
            "type": "function"
        },
        {
            "inputs": [],
            "name": "bridge",
            "outputs": [
                {
                    "internalType": "address",
                    "name": "",
                    "type": "address"
                }
            ],
            "stateMutability": "view",
            "type": "function"
        },
        {
            "inputs": [
                {
                    "internalType": "address",
                    "name": "_bridge",
                    "type": "address"
                },
                {
                    "internalType": "address",
                    "name": "_trustedForwarder",
                    "type": "address"
                },
                {
                    "internalType": "address",
                    "name": "_wrapper",
                    "type": "address"
                },
                {
                    "internalType": "address",
                    "name": "_whitelistedToken",
                    "type": "address"
                },
                {
                    "internalType": "contract IMetaRouter",
                    "name": "_metaRouter",
                    "type": "address"
                }
            ],
            "name": "initialize",
            "outputs": [],
            "stateMutability": "nonpayable",
            "type": "function"
        },
        {
            "inputs": [
                {
                    "internalType": "address",
                    "name": "forwarder",
                    "type": "address"
                }
            ],
            "name": "isTrustedForwarder",
            "outputs": [
                {
                    "internalType": "bool",
                    "name": "",
                    "type": "bool"
                }
            ],
            "stateMutability": "view",
            "type": "function"
        },
        {
            "inputs": [
                {
                    "components": [
                        {
                            "internalType": "uint256",
                            "name": "stableBridgingFee",
                            "type": "uint256"
                        },
                        {
                            "internalType": "bytes32",
                            "name": "internalID",
                            "type": "bytes32"
                        },
                        {
                            "internalType": "address",
                            "name": "receiveSide",
                            "type": "address"
                        },
                        {
                            "internalType": "address",
                            "name": "managerChainBridge",
                            "type": "address"
                        },
                        {
                            "internalType": "address",
                            "name": "sourceChainBridge",
                            "type": "address"
                        },
                        {
                            "internalType": "uint256",
                            "name": "managerChainId",
                            "type": "uint256"
                        },
                        {
                            "internalType": "uint256",
                            "name": "sourceChainId",
                            "type": "uint256"
                        },
                        {
                            "internalType": "address",
                            "name": "router",
                            "type": "address"
                        },
                        {
                            "internalType": "bytes",
                            "name": "swapCalldata",
                            "type": "bytes"
                        },
                        {
                            "internalType": "address",
                            "name": "sourceChainSynthesis",
                            "type": "address"
                        },
                        {
                            "internalType": "address",
                            "name": "burnToken",
                            "type": "address"
                        },
                        {
                            "internalType": "bytes",
                            "name": "burnCalldata",
                            "type": "bytes"
                        },
                        {
                            "internalType": "bytes32",
                            "name": "clientID",
                            "type": "bytes32"
                        }
                    ],
                    "internalType": "struct MetaRouteStructs.MetaRevertTransaction",
                    "name": "_metaRevertTransaction",
                    "type": "tuple"
                }
            ],
            "name": "metaRevertRequest",
            "outputs": [],
            "stateMutability": "nonpayable",
            "type": "function"
        },
        {
            "inputs": [],
            "name": "metaRouter",
            "outputs": [
                {
                    "internalType": "contract IMetaRouter",
                    "name": "",
                    "type": "address"
                }
            ],
            "stateMutability": "view",
            "type": "function"
        },
        {
            "inputs": [
                {
                    "components": [
                        {
                            "internalType": "uint256",
                            "name": "stableBridgingFee",
                            "type": "uint256"
                        },
                        {
                            "internalType": "uint256",
                            "name": "amount",
                            "type": "uint256"
                        },
                        {
                            "internalType": "address",
                            "name": "rtoken",
                            "type": "address"
                        },
                        {
                            "internalType": "address",
                            "name": "chain2address",
                            "type": "address"
                        },
                        {
                            "internalType": "address",
                            "name": "receiveSide",
                            "type": "address"
                        },
                        {
                            "internalType": "address",
                            "name": "oppositeBridge",
                            "type": "address"
                        },
                        {
                            "internalType": "address",
                            "name": "syntCaller",
                            "type": "address"
                        },
                        {
                            "internalType": "uint256",
                            "name": "chainID",
                            "type": "uint256"
                        },
                        {
                            "internalType": "address[]",
                            "name": "swapTokens",
                            "type": "address[]"
                        },
                        {
                            "internalType": "address",
                            "name": "secondDexRouter",
                            "type": "address"
                        },
                        {
                            "internalType": "bytes",
                            "name": "secondSwapCalldata",
                            "type": "bytes"
                        },
                        {
                            "internalType": "address",
                            "name": "finalReceiveSide",
                            "type": "address"
                        },
                        {
                            "internalType": "bytes",
                            "name": "finalCalldata",
                            "type": "bytes"
                        },
                        {
                            "internalType": "uint256",
                            "name": "finalOffset",
                            "type": "uint256"
                        },
                        {
                            "internalType": "address",
                            "name": "revertableAddress",
                            "type": "address"
                        },
                        {
                            "internalType": "bytes32",
                            "name": "clientID",
                            "type": "bytes32"
                        }
                    ],
                    "internalType": "struct MetaRouteStructs.MetaSynthesizeTransaction",
                    "name": "_metaSynthesizeTransaction",
                    "type": "tuple"
                }
            ],
            "name": "metaSynthesize",
            "outputs": [
                {
                    "internalType": "bytes32",
                    "name": "",
                    "type": "bytes32"
                }
            ],
            "stateMutability": "nonpayable",
            "type": "function"
        },
        {
            "inputs": [
                {
                    "internalType": "uint256",
                    "name": "_stableBridgingFee",
                    "type": "uint256"
                },
                {
                    "internalType": "bytes32",
                    "name": "_crossChainID",
                    "type": "bytes32"
                },
                {
                    "internalType": "bytes32",
                    "name": "_externalID",
                    "type": "bytes32"
                },
                {
                    "internalType": "address",
                    "name": "_to",
                    "type": "address"
                },
                {
                    "internalType": "uint256",
                    "name": "_amount",
                    "type": "uint256"
                },
                {
                    "internalType": "address",
                    "name": "_rToken",
                    "type": "address"
                },
                {
                    "internalType": "address",
                    "name": "_finalReceiveSide",
                    "type": "address"
                },
                {
                    "internalType": "bytes",
                    "name": "_finalCalldata",
                    "type": "bytes"
                },
                {
                    "internalType": "uint256",
                    "name": "_finalOffset",
                    "type": "uint256"
                }
            ],
            "name": "metaUnsynthesize",
            "outputs": [],
            "stateMutability": "nonpayable",
            "type": "function"
        },
        {
            "inputs": [],
            "name": "owner",
            "outputs": [
                {
                    "internalType": "address",
                    "name": "",
                    "type": "address"
                }
            ],
            "stateMutability": "view",
            "type": "function"
        },
        {
            "inputs": [],
            "name": "pause",
            "outputs": [],
            "stateMutability": "nonpayable",
            "type": "function"
        },
        {
            "inputs": [],
            "name": "paused",
            "outputs": [
                {
                    "internalType": "bool",
                    "name": "",
                    "type": "bool"
                }
            ],
            "stateMutability": "view",
            "type": "function"
        },
        {
            "inputs": [],
            "name": "renounceOwnership",
            "outputs": [],
            "stateMutability": "nonpayable",
            "type": "function"
        },
        {
            "inputs": [],
            "name": "requestCount",
            "outputs": [
                {
                    "internalType": "uint256",
                    "name": "",
                    "type": "uint256"
                }
            ],
            "stateMutability": "view",
            "type": "function"
        },
        {
            "inputs": [
                {
                    "internalType": "bytes32",
                    "name": "",
                    "type": "bytes32"
                }
            ],
            "name": "requests",
            "outputs": [
                {
                    "internalType": "address",
                    "name": "recipient",
                    "type": "address"
                },
                {
                    "internalType": "address",
                    "name": "chain2address",
                    "type": "address"
                },
                {
                    "internalType": "uint256",
                    "name": "amount",
                    "type": "uint256"
                },
                {
                    "internalType": "address",
                    "name": "rtoken",
                    "type": "address"
                },
                {
                    "internalType": "enum Portal.RequestState",
                    "name": "state",
                    "type": "uint8"
                }
            ],
            "stateMutability": "view",
            "type": "function"
        },
        {
            "inputs": [
                {
                    "internalType": "uint256",
                    "name": "_stableBridgingFee",
                    "type": "uint256"
                },
                {
                    "internalType": "bytes32",
                    "name": "_internalID",
                    "type": "bytes32"
                },
                {
                    "internalType": "address",
                    "name": "_receiveSide",
                    "type": "address"
                },
                {
                    "internalType": "address",
                    "name": "_oppositeBridge",
                    "type": "address"
                },
                {
                    "internalType": "uint256",
                    "name": "_chainId",
                    "type": "uint256"
                },
                {
                    "internalType": "bytes32",
                    "name": "_clientID",
                    "type": "bytes32"
                }
            ],
            "name": "revertBurnRequest",
            "outputs": [],
            "stateMutability": "nonpayable",
            "type": "function"
        },
        {
            "inputs": [
                {
                    "internalType": "uint256",
                    "name": "_stableBridgingFee",
                    "type": "uint256"
                },
                {
                    "internalType": "bytes32",
                    "name": "_externalID",
                    "type": "bytes32"
                }
            ],
            "name": "revertSynthesize",
            "outputs": [],
            "stateMutability": "nonpayable",
            "type": "function"
        },
        {
            "inputs": [
                {
                    "internalType": "contract IMetaRouter",
                    "name": "_metaRouter",
                    "type": "address"
                }
            ],
            "name": "setMetaRouter",
            "outputs": [],
            "stateMutability": "nonpayable",
            "type": "function"
        },
        {
            "inputs": [
                {
                    "internalType": "address",
                    "name": "_token",
                    "type": "address"
                },
                {
                    "internalType": "uint256",
                    "name": "_threshold",
                    "type": "uint256"
                }
            ],
            "name": "setTokenThreshold",
            "outputs": [],
            "stateMutability": "nonpayable",
            "type": "function"
        },
        {
            "inputs": [
                {
                    "internalType": "address",
                    "name": "_token",
                    "type": "address"
                },
                {
                    "internalType": "bool",
                    "name": "_activate",
                    "type": "bool"
                }
            ],
            "name": "setWhitelistToken",
            "outputs": [],
            "stateMutability": "nonpayable",
            "type": "function"
        },
        {
            "inputs": [
                {
                    "internalType": "uint256",
                    "name": "_stableBridgingFee",
                    "type": "uint256"
                },
                {
                    "internalType": "address",
                    "name": "_token",
                    "type": "address"
                },
                {
                    "internalType": "uint256",
                    "name": "_amount",
                    "type": "uint256"
                },
                {
                    "internalType": "address",
                    "name": "_chain2address",
                    "type": "address"
                },
                {
                    "internalType": "address",
                    "name": "_receiveSide",
                    "type": "address"
                },
                {
                    "internalType": "address",
                    "name": "_oppositeBridge",
                    "type": "address"
                },
                {
                    "internalType": "address",
                    "name": "_revertableAddress",
                    "type": "address"
                },
                {
                    "internalType": "uint256",
                    "name": "_chainID",
                    "type": "uint256"
                },
                {
                    "internalType": "bytes32",
                    "name": "_clientID",
                    "type": "bytes32"
                }
            ],
            "name": "synthesize",
            "outputs": [
                {
                    "internalType": "bytes32",
                    "name": "",
                    "type": "bytes32"
                }
            ],
            "stateMutability": "nonpayable",
            "type": "function"
        },
        {
            "inputs": [
                {
                    "internalType": "uint256",
                    "name": "_stableBridgingFee",
                    "type": "uint256"
                },
                {
                    "internalType": "address",
                    "name": "_chain2address",
                    "type": "address"
                },
                {
                    "internalType": "address",
                    "name": "_receiveSide",
                    "type": "address"
                },
                {
                    "internalType": "address",
                    "name": "_oppositeBridge",
                    "type": "address"
                },
                {
                    "internalType": "address",
                    "name": "_revertableAddress",
                    "type": "address"
                },
                {
                    "internalType": "uint256",
                    "name": "_chainID",
                    "type": "uint256"
                },
                {
                    "internalType": "bytes32",
                    "name": "_clientID",
                    "type": "bytes32"
                }
            ],
            "name": "synthesizeNative",
            "outputs": [
                {
                    "internalType": "bytes32",
                    "name": "",
                    "type": "bytes32"
                }
            ],
            "stateMutability": "payable",
            "type": "function"
        },
        {
            "inputs": [
                {
                    "components": [
                        {
                            "internalType": "uint256",
                            "name": "stableBridgingFee",
                            "type": "uint256"
                        },
                        {
                            "internalType": "bytes",
                            "name": "approvalData",
                            "type": "bytes"
                        },
                        {
                            "internalType": "address",
                            "name": "token",
                            "type": "address"
                        },
                        {
                            "internalType": "uint256",
                            "name": "amount",
                            "type": "uint256"
                        },
                        {
                            "internalType": "address",
                            "name": "chain2address",
                            "type": "address"
                        },
                        {
                            "internalType": "address",
                            "name": "receiveSide",
                            "type": "address"
                        },
                        {
                            "internalType": "address",
                            "name": "oppositeBridge",
                            "type": "address"
                        },
                        {
                            "internalType": "address",
                            "name": "revertableAddress",
                            "type": "address"
                        },
                        {
                            "internalType": "uint256",
                            "name": "chainID",
                            "type": "uint256"
                        },
                        {
                            "internalType": "bytes32",
                            "name": "clientID",
                            "type": "bytes32"
                        }
                    ],
                    "internalType": "struct Portal.SynthesizeWithPermitTransaction",
                    "name": "_syntWithPermitTx",
                    "type": "tuple"
                }
            ],
            "name": "synthesizeWithPermit",
            "outputs": [
                {
                    "internalType": "bytes32",
                    "name": "",
                    "type": "bytes32"
                }
            ],
            "stateMutability": "nonpayable",
            "type": "function"
        },
        {
            "inputs": [
                {
                    "internalType": "address",
                    "name": "",
                    "type": "address"
                }
            ],
            "name": "tokenThreshold",
            "outputs": [
                {
                    "internalType": "uint256",
                    "name": "",
                    "type": "uint256"
                }
            ],
            "stateMutability": "view",
            "type": "function"
        },
        {
            "inputs": [
                {
                    "internalType": "address",
                    "name": "",
                    "type": "address"
                }
            ],
            "name": "tokenWhitelist",
            "outputs": [
                {
                    "internalType": "bool",
                    "name": "",
                    "type": "bool"
                }
            ],
            "stateMutability": "view",
            "type": "function"
        },
        {
            "inputs": [
                {
                    "internalType": "address",
                    "name": "newOwner",
                    "type": "address"
                }
            ],
            "name": "transferOwnership",
            "outputs": [],
            "stateMutability": "nonpayable",
            "type": "function"
        },
        {
            "inputs": [],
            "name": "unpause",
            "outputs": [],
            "stateMutability": "nonpayable",
            "type": "function"
        },
        {
            "inputs": [
                {
                    "internalType": "uint256",
                    "name": "_stableBridgingFee",
                    "type": "uint256"
                },
                {
                    "internalType": "bytes32",
                    "name": "_externalID",
                    "type": "bytes32"
                },
                {
                    "internalType": "bytes32",
                    "name": "_crossChainID",
                    "type": "bytes32"
                },
                {
                    "internalType": "address",
                    "name": "_token",
                    "type": "address"
                },
                {
                    "internalType": "uint256",
                    "name": "_amount",
                    "type": "uint256"
                },
                {
                    "internalType": "address",
                    "name": "_to",
                    "type": "address"
                }
            ],
            "name": "unsynthesize",
            "outputs": [],
            "stateMutability": "nonpayable",
            "type": "function"
        },
        {
            "inputs": [
                {
                    "internalType": "bytes32",
                    "name": "",
                    "type": "bytes32"
                }
            ],
            "name": "unsynthesizeStates",
            "outputs": [
                {
                    "internalType": "enum Portal.UnsynthesizeState",
                    "name": "",
                    "type": "uint8"
                }
            ],
            "stateMutability": "view",
            "type": "function"
        },
        {
            "inputs": [],
            "name": "versionRecipient",
            "outputs": [
                {
                    "internalType": "string",
                    "name": "",
                    "type": "string"
                }
            ],
            "stateMutability": "pure",
            "type": "function"
        },
        {
            "inputs": [],
            "name": "wrapper",
            "outputs": [
                {
                    "internalType": "address",
                    "name": "",
                    "type": "address"
                }
            ],
            "stateMutability": "view",
            "type": "function"
        }
    ],
    "bytecode": "0x608060405234801561001057600080fd5b506141b0806100206000396000f3fe6080604052600436106101cd5760003560e01c80638bb39802116100f7578063ce654c1711610095578063f2fde38b11610064578063f2fde38b146105bc578063fab92894146105dc578063fb7c7c2a14610619578063fce633c21461063957600080fd5b8063ce654c171461053c578063dbec15bb1461055c578063e78cea921461057c578063eadd5c341461059c57600080fd5b8063ac210cc7116100d1578063ac210cc7146104bc578063b1659a3c146104dc578063c23a4c88146104fc578063c42a28941461051c57600080fd5b80638bb39802146103fe5780638da5cb5b1461041e5780639d8669851461045057600080fd5b80635badbe4c1161016f578063715018a61161013e578063715018a614610384578063753d7563146103995780637c374f99146103c95780638456cb59146103e957600080fd5b80635badbe4c146102fa5780635c975abb14610310578063687752781461032a57806370a082311461035757600080fd5b80632816f4db116101ab5780632816f4db146102345780633f4ba83a1461025a578063486ff0cd1461026f578063572b6c05146102bb57600080fd5b806308759e9b146101d25780631459457a146101f45780631ebe53ef14610214575b600080fd5b3480156101de57600080fd5b506101f26101ed366004613a48565b610659565b005b34801561020057600080fd5b506101f261020f366004613461565b610908565b34801561022057600080fd5b506101f261022f366004613aa4565b610a8b565b610247610242366004613914565b610ca5565b6040519081526020015b60405180910390f35b34801561026657600080fd5b506101f2610e52565b34801561027b57600080fd5b50604080518082018252600581527f322e302e31000000000000000000000000000000000000000000000000000000602082015290516102519190613d09565b3480156102c757600080fd5b506102ea6102d63660046133d7565b6065546001600160a01b0391821691161490565b6040519015158152602001610251565b34801561030657600080fd5b5061024760685481565b34801561031c57600080fd5b506069546102ea9060ff1681565b34801561033657600080fd5b506102476103453660046133d7565b606d6020526000908152604090205481565b34801561036357600080fd5b506102476103723660046133d7565b606c6020526000908152604090205481565b34801561039057600080fd5b506101f2610f1b565b3480156103a557600080fd5b506102ea6103b43660046133d7565b606e6020526000908152604090205460ff1681565b3480156103d557600080fd5b506101f26103e43660046134d2565b610fa0565b3480156103f557600080fd5b506101f261107d565b34801561040a57600080fd5b506101f261041936600461350b565b61112c565b34801561042a57600080fd5b506033546001600160a01b03165b6040516001600160a01b039091168152602001610251565b34801561045c57600080fd5b506104ab61046b366004613554565b606a6020526000908152604090208054600182015460028301546003909301546001600160a01b039283169391831692811690600160a01b900460ff1685565b604051610251959493929190613c34565b3480156104c857600080fd5b50606654610438906001600160a01b031681565b3480156104e857600080fd5b506102476104f736600461398e565b6111f6565b34801561050857600080fd5b506101f2610517366004613b02565b61133d565b34801561052857600080fd5b506101f2610537366004613a26565b611646565b34801561054857600080fd5b506102476105573660046136a2565b6118c7565b34801561056857600080fd5b50606f54610438906001600160a01b031681565b34801561058857600080fd5b50606754610438906001600160a01b031681565b3480156105a857600080fd5b506101f26105b73660046133d7565b611a13565b3480156105c857600080fd5b506101f26105d73660046133d7565b611b69565b3480156105e857600080fd5b5061060c6105f7366004613554565b606b6020526000908152604090205460ff1681565b6040516102519190613cf6565b34801561062557600080fd5b50610247610634366004613825565b611c6a565b34801561064557600080fd5b506101f261065436600461356d565b611eb6565b60695460ff16156106a05760405162461bcd60e51b815260206004820152600c60248201526b14de5b588e881c185d5cd95960a21b60448201526064015b60405180910390fd5b600085306106ac612535565b6040805160208101949094526bffffffffffffffffffffffff19606093841b811691850191909152911b16605482015246606882015260880160408051601f198184030181529190528051602090910120905060016000828152606b602052604090205460ff16600281111561072457610724613fe5565b141561077e5760405162461bcd60e51b8152602060048201526024808201527f53796d623a205265616c20746f6b656e7320616c7265616479207472616e7366604482015263195c995960e21b6064820152608401610697565b6000818152606b6020908152604091829020805460ff1916600217905581518083018352601b81527f7265766572744275726e2875696e743235362c62797465733332290000000000908201528151602481018a90526044808201859052835180830390910181526064909101835290810180516001600160e01b03167ff70519ae000000000000000000000000000000000000000000000000000000001790526067549151633675e4e160e11b815290916001600160a01b031690636cebc9c2906108549084908a908a908a90600401613cc0565b600060405180830381600087803b15801561086e57600080fd5b505af1158015610882573d6000803e3d6000fd5b505050505061088f612535565b6001600160a01b0316867f40590cc12db0488520ce425059f83f8caed91bdf98de5ff829dc57c63843161b60405160405180910390a3817f5a297b2c9a9f94a0f4e5a796c74ad38e219d1185fccf5f79c18726a830c2b6f5876040516108f791815260200190565b60405180910390a250505050505050565b600054610100900460ff166109235760005460ff1615610927565b303b155b6109995760405162461bcd60e51b815260206004820152602e60248201527f496e697469616c697a61626c653a20636f6e747261637420697320616c72656160448201527f647920696e697469616c697a65640000000000000000000000000000000000006064820152608401610697565b600054610100900460ff161580156109d857600080547fffffffffffffffffffffffffffffffffffffffffffffffffffffffffffff0000166101011790555b6109e18561257b565b606780546001600160a01b0380891673ffffffffffffffffffffffffffffffffffffffff199283161790925560668054878416908316179055606f80548584169216919091179055831615610a54576001600160a01b0383166000908152606e60205260409020805460ff191660011790555b8015610a8357600080547fffffffffffffffffffffffffffffffffffffffffffffffffffffffffffff00ff1690555b505050505050565b6067546001600160a01b03163314610ae55760405162461bcd60e51b815260206004820152601e60248201527f53796d623a2063616c6c6572206973206e6f74207468652062726964676500006044820152606401610697565b60695460ff1615610b275760405162461bcd60e51b815260206004820152600c60248201526b14de5b588e881c185d5cd95960a21b6044820152606401610697565b6000858152606b602052604081205460ff166002811115610b4a57610b4a613fe5565b14610bbd5760405162461bcd60e51b815260206004820152602660248201527f53796d623a2073796e74686574696320746f6b656e7320656d657267656e637960448201527f556e6275726e00000000000000000000000000000000000000000000000000006064820152608401610697565b6001600160a01b0383166000908152606c6020526040902054610be1908390613f4f565b6001600160a01b0384166000908152606c6020908152604080832093909355878252606b905220805460ff19166001179055610c278382610c228986613f4f565b61261d565b606754610c3f9084906001600160a01b03168861261d565b6001600160a01b03811684867faeef64b7687b985665b6620c7fa271b6f051a3fbe2bfc366fb9c964602eb6d26610c768a87613f4f565b60408051918252602082018c90526001600160a01b0389169082015260600160405180910390a4505050505050565b60695460009060ff1615610cea5760405162461bcd60e51b815260206004820152600c60248201526b14de5b588e881c185d5cd95960a21b6044820152606401610697565b6066546001600160a01b03166000908152606e602052604090205460ff16610d545760405162461bcd60e51b815260206004820152601860248201527f53796d623a20756e617574686f72697a656420746f6b656e00000000000000006044820152606401610697565b6066546001600160a01b03166000908152606d6020526040902054341015610dbe5760405162461bcd60e51b815260206004820152601c60248201527f53796d623a20616d6f756e7420756e646572207468726573686f6c64000000006044820152606401610697565b606660009054906101000a90046001600160a01b03166001600160a01b031663d0e30db0346040518263ffffffff1660e01b81526004016000604051808303818588803b158015610e0e57600080fd5b505af1158015610e22573d6000803e3d6000fd5b5050606654610e4693508b92506001600160a01b03169050348a8a8a8a8a8a612777565b98975050505050505050565b610e5a612535565b6001600160a01b0316610e756033546001600160a01b031690565b6001600160a01b031614610ecb5760405162461bcd60e51b815260206004820181905260248201527f4f776e61626c653a2063616c6c6572206973206e6f7420746865206f776e65726044820152606401610697565b6069805460ff191690557f5db9ee0a495bf2e6ff9c91a7834c1ba4fdd244a5e8aa4e537bd38aeae4b073aa610efe612535565b6040516001600160a01b03909116815260200160405180910390a1565b610f23612535565b6001600160a01b0316610f3e6033546001600160a01b031690565b6001600160a01b031614610f945760405162461bcd60e51b815260206004820181905260248201527f4f776e61626c653a2063616c6c6572206973206e6f7420746865206f776e65726044820152606401610697565b610f9e6000612b38565b565b610fa8612535565b6001600160a01b0316610fc36033546001600160a01b031690565b6001600160a01b0316146110195760405162461bcd60e51b815260206004820181905260248201527f4f776e61626c653a2063616c6c6572206973206e6f7420746865206f776e65726044820152606401610697565b6001600160a01b0382166000818152606e6020908152604091829020805460ff19168515159081179091558251938452908301527f0a4552f1105808db6a44587c9ef0a7c4064bf620b9d843b514ad7365bd52239a91015b60405180910390a15050565b611085612535565b6001600160a01b03166110a06033546001600160a01b031690565b6001600160a01b0316146110f65760405162461bcd60e51b815260206004820181905260248201527f4f776e61626c653a2063616c6c6572206973206e6f7420746865206f776e65726044820152606401610697565b6069805460ff191660011790557f62e78cea01bee320cd4e420270b5ea74000d11b0c9f74754ebdbfc544b05a258610efe612535565b611134612535565b6001600160a01b031661114f6033546001600160a01b031690565b6001600160a01b0316146111a55760405162461bcd60e51b815260206004820181905260248201527f4f776e61626c653a2063616c6c6572206973206e6f7420746865206f776e65726044820152606401610697565b6001600160a01b0382166000818152606d6020908152604091829020849055815192835282018390527fa6742efd4f410d6fd9688a6cf6a15b6d51121097a263056a3576baaacdc4a9ae9101611071565b60695460009060ff161561123b5760405162461bcd60e51b815260206004820152600c60248201526b14de5b588e881c185d5cd95960a21b6044820152606401610697565b6001600160a01b0389166000908152606e602052604090205460ff166112a35760405162461bcd60e51b815260206004820152601860248201527f53796d623a20756e617574686f72697a656420746f6b656e00000000000000006044820152606401610697565b6001600160a01b0389166000908152606d602052604090205488101561130b5760405162461bcd60e51b815260206004820152601c60248201527f53796d623a20616d6f756e7420756e646572207468726573686f6c64000000006044820152606401610697565b61131e89611317612535565b308b612b97565b61132f8a8a8a8a8a8a8a8a8a612777565b9a9950505050505050505050565b6067546001600160a01b031633146113975760405162461bcd60e51b815260206004820152601e60248201527f53796d623a2063616c6c6572206973206e6f74207468652062726964676500006044820152606401610697565b60695460ff16156113d95760405162461bcd60e51b815260206004820152600c60248201526b14de5b588e881c185d5cd95960a21b6044820152606401610697565b6000878152606b602052604081205460ff1660028111156113fc576113fc613fe5565b1461146f5760405162461bcd60e51b815260206004820152602660248201527f53796d623a2073796e74686574696320746f6b656e7320656d657267656e637960448201527f556e6275726e00000000000000000000000000000000000000000000000000006064820152608401610697565b6001600160a01b0384166000908152606c6020526040902054611493908690613f4f565b6001600160a01b038581166000908152606c60209081526040808320949094558a8252606b905291909120805460ff191660011790556067546114d9918691168b61261d565b6114e38986613f4f565b945081516000141561154e576114fa84878761261d565b60408051868152602081018b90526001600160a01b03861681830152905130918a918a917faeef64b7687b985665b6620c7fa271b6f051a3fbe2bfc366fb9c964602eb6d26919081900360600190a461163b565b606f546115669085906001600160a01b03168761261d565b606f546040517ff5b697a50000000000000000000000000000000000000000000000000000000081526001600160a01b039091169063f5b697a5906115b990879089908890889088908e90600401613c74565b600060405180830381600087803b1580156115d357600080fd5b505af11580156115e7573d6000803e3d6000fd5b505060408051888152602081018d90526001600160a01b0388168183015290513093508b92508a917faeef64b7687b985665b6620c7fa271b6f051a3fbe2bfc366fb9c964602eb6d26919081900360600190a45b505050505050505050565b6067546001600160a01b031633146116a05760405162461bcd60e51b815260206004820152601e60248201527f53796d623a2063616c6c6572206973206e6f74207468652062726964676500006044820152606401610697565b60695460ff16156116e25760405162461bcd60e51b815260206004820152600c60248201526b14de5b588e881c185d5cd95960a21b6044820152606401610697565b6000818152606a6020526040902060016003820154600160a01b900460ff16600281111561171257611712613fe5565b146117855760405162461bcd60e51b815260206004820152602960248201527f53796d623a207374617465206e6f74206f70656e206f7220747820646f65732060448201527f6e6f7420657869737400000000000000000000000000000000000000000000006064820152608401610697565b600381018054740200000000000000000000000000000000000000007fffffffffffffffffffffff00ffffffffffffffffffffffffffffffffffffffff82161790915560028201546001600160a01b039091166000908152606c60205260409020546117f19190613f4f565b6003820180546001600160a01b039081166000908152606c6020526040902092909255548254600284015461183493928316929190911690610c22908790613f4f565b6003810154606754611853916001600160a01b0390811691168561261d565b805460028201546001600160a01b039091169083907fefcdf9ea4e65571d2ce9c030c46954e950662df8a7d8bd039fc4417e37b2f88c90611895908790613f4f565b600385015460408051928352602083018990526001600160a01b039091169082015260600160405180910390a3505050565b60695460009060ff161561190c5760405162461bcd60e51b815260206004820152600c60248201526b14de5b588e881c185d5cd95960a21b6044820152606401610697565b6040808301516001600160a01b03166000908152606e602052205460ff166119765760405162461bcd60e51b815260206004820152601860248201527f53796d623a20756e617574686f72697a656420746f6b656e00000000000000006044820152606401610697565b6040808301516001600160a01b03166000908152606d6020908152919020549083015110156119e75760405162461bcd60e51b815260206004820152601c60248201527f53796d623a20616d6f756e7420756e646572207468726573686f6c64000000006044820152606401610697565b611a0282604001516119f7612535565b308560200151612b97565b611a0b82612cf2565b90505b919050565b611a1b612535565b6001600160a01b0316611a366033546001600160a01b031690565b6001600160a01b031614611a8c5760405162461bcd60e51b815260206004820181905260248201527f4f776e61626c653a2063616c6c6572206973206e6f7420746865206f776e65726044820152606401610697565b6001600160a01b038116611b085760405162461bcd60e51b815260206004820152602760248201527f53796d623a206d657461526f757465722063616e6e6f74206265207a65726f2060448201527f61646472657373000000000000000000000000000000000000000000000000006064820152608401610697565b606f805473ffffffffffffffffffffffffffffffffffffffff19166001600160a01b0383169081179091556040519081527fd5c54ab1d37bfef4dd2253d9d73c292e46f5bd8a67ca5920aab4c2e1993178e79060200160405180910390a150565b611b71612535565b6001600160a01b0316611b8c6033546001600160a01b031690565b6001600160a01b031614611be25760405162461bcd60e51b815260206004820181905260248201527f4f776e61626c653a2063616c6c6572206973206e6f7420746865206f776e65726044820152606401610697565b6001600160a01b038116611c5e5760405162461bcd60e51b815260206004820152602660248201527f4f776e61626c653a206e6577206f776e657220697320746865207a65726f206160448201527f64647265737300000000000000000000000000000000000000000000000000006064820152608401610697565b611c6781612b38565b50565b60695460009060ff1615611caf5760405162461bcd60e51b815260206004820152600c60248201526b14de5b588e881c185d5cd95960a21b6044820152606401610697565b6040808301516001600160a01b03166000908152606e602052205460ff16611d195760405162461bcd60e51b815260206004820152601860248201527f53796d623a20756e617574686f72697a656420746f6b656e00000000000000006044820152606401610697565b6040808301516001600160a01b03166000908152606d602052205460608301511015611d875760405162461bcd60e51b815260206004820152601c60248201527f53796d623a20616d6f756e7420756e646572207468726573686f6c64000000006044820152606401610697565b6000806000806000808760200151806020019051810190611da891906133fb565b6040808f015190517fd505accf0000000000000000000000000000000000000000000000000000000081526001600160a01b038089166004830152306024830152604482018890526064820187905260ff8616608483015260a4820185905260c48201849052979d50959b5093995091975095509350919091169063d505accf9060e401600060405180830381600087803b158015611e4657600080fd5b505af1158015611e5a573d6000803e3d6000fd5b50505050505050505050611e7f8260400151611e74612535565b308560600151612b97565b611a0b82600001518360400151846060015185608001518660a001518760c001518860e001518961010001518a6101200151612777565b60695460ff1615611ef85760405162461bcd60e51b815260206004820152600c60248201526b14de5b588e881c185d5cd95960a21b6044820152606401610697565b61010081015151156121a4576000816020015130611f14612535565b6040805160208101949094526bffffffffffffffffffffffff19606093841b811691850191909152911b16605482015246606882015260880160408051601f198184030181529190528051602090910120905060016000828152606b602052604090205460ff166002811115611f8c57611f8c613fe5565b1415611fe65760405162461bcd60e51b8152602060048201526024808201527f53796d623a205265616c20746f6b656e7320616c7265616479207472616e7366604482015263195c995960e21b6064820152608401610697565b6000818152606b60209081526040808320805460ff19166002179055805160808101909152604380825290916140ed90830139805190602001208360000151838560e001518661010001518761012001518861014001518961016001516040516024016120599796959493929190613e34565b60408051601f198184030181529181526020820180516001600160e01b03167fffffffff000000000000000000000000000000000000000000000000000000009094169390931790925260675485830151606087015160a08801519451633675e4e160e11b81529395506001600160a01b0390921693636cebc9c2936120e6938793929091600401613cc0565b600060405180830381600087803b15801561210057600080fd5b505af1158015612114573d6000803e3d6000fd5b50505050612120612535565b6001600160a01b031683602001517f40590cc12db0488520ce425059f83f8caed91bdf98de5ff829dc57c63843161b60405160405180910390a38261018001517f5a297b2c9a9f94a0f4e5a796c74ad38e219d1185fccf5f79c18726a830c2b6f5846020015160405161219591815260200190565b60405180910390a250506124f0565b61016081015151156123a95760008160200151306121c0612535565b6040805160208101949094526bffffffffffffffffffffffff19606093841b811691850191909152911b16605482015246606882015260880160408051601f198184030181529190528051602090910120905060016000828152606b602052604090205460ff16600281111561223857612238613fe5565b14156122925760405162461bcd60e51b8152602060048201526024808201527f53796d623a205265616c20746f6b656e7320616c7265616479207472616e7366604482015263195c995960e21b6064820152608401610697565b6000818152606b60209081526040808320805460ff19166002179055805160808101909152604280825290916140ab9083013980519060200120836000015183308660800151466122e1612535565b604051602481019690965260448601949094526001600160a01b039283166064860152908216608485015260a48401521660c482015260e40160408051601f198184030181529181526020820180516001600160e01b03167fffffffff0000000000000000000000000000000000000000000000000000000090941693909317909252606754610120860151606087015160a08801519451633675e4e160e11b81529395506001600160a01b0390921693636cebc9c2936120e6938793929091600401613cc0565b600060405180608001604052806058815260200161405360589139805190602001208260000151836020015184604001518560800151466123e8612535565b610180890151604051602481019790975260448701959095526001600160a01b039384166064870152918316608486015260a48501521660c483015260e48201526101040160408051601f198184030181529181526020820180516001600160e01b03167fffffffff0000000000000000000000000000000000000000000000000000000090941693909317909252606754610120850151606086015160a08701519451633675e4e160e11b81529395506001600160a01b0390921693636cebc9c2936124bc938793929091600401613cc0565b600060405180830381600087803b1580156124d657600080fd5b505af11580156124ea573d6000803e3d6000fd5b50505050505b6124f8612535565b6001600160a01b031681602001517fbd03c66ec5bd3d01fbf22bc794f68ac88b693023b438724019205a4b42aefb2060405160405180910390a350565b6065546000906001600160a01b031633141561257657507fffffffffffffffffffffffffffffffffffffffffffffffffffffffffffffffec36013560601c90565b503390565b600054610100900460ff166125e65760405162461bcd60e51b815260206004820152602b60248201527f496e697469616c697a61626c653a20636f6e7472616374206973206e6f74206960448201526a6e697469616c697a696e6760a81b6064820152608401610697565b6125ee61316c565b6065805473ffffffffffffffffffffffffffffffffffffffff19166001600160a01b0392909216919091179055565b604080516001600160a01b038481166024830152604480830185905283518084039091018152606490920183526020820180516001600160e01b03167fa9059cbb0000000000000000000000000000000000000000000000000000000017905291516000928392908716916126929190613c18565b6000604051808303816000865af19150503d80600081146126cf576040519150601f19603f3d011682016040523d82523d6000602084013e6126d4565b606091505b50915091508180156126fe5750805115806126fe5750808060200190518101906126fe9190613537565b6127705760405162461bcd60e51b815260206004820152602d60248201527f5472616e7366657248656c7065723a3a736166655472616e736665723a20747260448201527f616e73666572206661696c6564000000000000000000000000000000000000006064820152608401610697565b5050505050565b6001600160a01b0388166000908152606c602052604081205461279b908990613f37565b6001600160a01b03808b166000908152606c602052604090209190915584166127c2578693505b6068546040516bffffffffffffffffffffffff193060601b166020820152603481019190915246605482015260740160408051601f1981840301815282825280516020918201209083018190526bffffffffffffffffffffffff1960608a811b8216938501939093529187901b909116605483015260688201859052915060009060880160405160208183030381529060405280519060200120905060006040518060800160405280604b8152602001614130604b91398051602090910120604051602481018e905260448101849052606481018590526001600160a01b03808e1660848301524660a483015260c482018d90528b1660e48201526101040160408051601f198184030181529181526020820180516001600160e01b03167fffffffff0000000000000000000000000000000000000000000000000000000090941693909317909252815160a0810190925291508061291f612535565b6001600160a01b0390811682528b81166020830152604082018d90528d166060820152608001600190526000838152606a60209081526040918290208351815473ffffffffffffffffffffffffffffffffffffffff199081166001600160a01b039283161783559285015160018301805485169183169190911790559284015160028083019190915560608501516003830180549485169190951690811785556080860151929492937fffffffffffffffffffffff000000000000000000000000000000000000000000161790600160a01b908490811115612a0357612a03613fe5565b0217905550506068805491506000612a1a83613f96565b9091555050606754604051633675e4e160e11b81526001600160a01b0390911690636cebc9c290612a559084908c908c908b90600401613cc0565b600060405180830381600087803b158015612a6f57600080fd5b505af1158015612a83573d6000803e3d6000fd5b505050505050836001600160a01b031683612a9c612535565b604080518581526001600160a01b038c811660208301529181018d90528d821660608201529116907f31325fe0a1a2e6a5b1e41572156ba5b4e94f0fae7e7f63ec21e9b5ce1e4b3eab9060800160405180910390a4817f5a297b2c9a9f94a0f4e5a796c74ad38e219d1185fccf5f79c18726a830c2b6f582604051612b2391815260200190565b60405180910390a29998505050505050505050565b603380546001600160a01b0383811673ffffffffffffffffffffffffffffffffffffffff19831681179093556040519116919082907f8be0079c531659141344cd1fd0a4f28419497f9722a3daafe3b4186f6b6457e090600090a35050565b604080516001600160a01b0385811660248301528481166044830152606480830185905283518084039091018152608490920183526020820180516001600160e01b03167f23b872dd000000000000000000000000000000000000000000000000000000001790529151600092839290881691612c149190613c18565b6000604051808303816000865af19150503d8060008114612c51576040519150601f19603f3d011682016040523d82523d6000602084013e612c56565b606091505b5091509150818015612c80575080511580612c80575080806020019051810190612c809190613537565b610a835760405162461bcd60e51b815260206004820152603160248201527f5472616e7366657248656c7065723a3a7472616e7366657246726f6d3a20747260448201527f616e7366657246726f6d206661696c65640000000000000000000000000000006064820152608401610697565b6020808201516040808401516001600160a01b03166000908152606c909352822054612d1e9190613f37565b6040808401516001600160a01b039081166000908152606c60205291909120919091556101c083015116612d615760608201516001600160a01b03166101c08301525b6068546040516bffffffffffffffffffffffff193060601b166020820152603481019190915246605482015260740160408051601f19818403018152828252805160209182012060808601516101c087015160e08801519386018390526bffffffffffffffffffffffff19606092831b811695870195909552901b9092166054840152606883015291506000906088016040516020818303038152906040528051906020012090506000604051806101a00160405280856000015181526020018560200151815260200184815260200183815260200185604001516001600160a01b0316815260200146815260200185606001516001600160a01b0316815260200185610100015181526020018561012001516001600160a01b0316815260200185610140015181526020018561016001516001600160a01b031681526020018561018001518152602001856101a001518152509050600081604051602401612eca9190613d1c565b60408051601f19818403018152918152602080830180516001600160e01b03167fc29a91bc00000000000000000000000000000000000000000000000000000000179052815160a08101835260c08901516001600160a01b0390811682526060808b0151821683850152928a015182850152928901519092169082015290915060808101600190526000848152606a60209081526040918290208351815473ffffffffffffffffffffffffffffffffffffffff199081166001600160a01b039283161783559285015160018301805485169183169190911790559284015160028083019190915560608501516003830180549485169190951690811785556080860151929492937fffffffffffffffffffffff000000000000000000000000000000000000000000161790600160a01b90849081111561300c5761300c613fe5565b021790555050606880549150600061302383613f96565b9091555050606754608086015160a087015160e0880151604051633675e4e160e11b81526001600160a01b0390941693636cebc9c29361306c9387939192909190600401613cc0565b600060405180830381600087803b15801561308657600080fd5b505af115801561309a573d6000803e3d6000fd5b5050505050836101c001516001600160a01b03168460e001518560c001516001600160a01b03167f31325fe0a1a2e6a5b1e41572156ba5b4e94f0fae7e7f63ec21e9b5ce1e4b3eab86886060015189602001518a6040015160405161312494939291909384526001600160a01b039283166020850152604084019190915216606082015260800190565b60405180910390a46101e08401516040518481527f5a297b2c9a9f94a0f4e5a796c74ad38e219d1185fccf5f79c18726a830c2b6f59060200160405180910390a25050919050565b600054610100900460ff166131d75760405162461bcd60e51b815260206004820152602b60248201527f496e697469616c697a61626c653a20636f6e7472616374206973206e6f74206960448201526a6e697469616c697a696e6760a81b6064820152608401610697565b6131df6131e7565b610f9e613252565b600054610100900460ff16610f9e5760405162461bcd60e51b815260206004820152602b60248201527f496e697469616c697a61626c653a20636f6e7472616374206973206e6f74206960448201526a6e697469616c697a696e6760a81b6064820152608401610697565b600054610100900460ff166132bd5760405162461bcd60e51b815260206004820152602b60248201527f496e697469616c697a61626c653a20636f6e7472616374206973206e6f74206960448201526a6e697469616c697a696e6760a81b6064820152608401610697565b610f9e6132c8612535565b612b38565b8035611a0e8161402f565b600082601f8301126132e957600080fd5b8135602067ffffffffffffffff82111561330557613305613ffb565b8160051b613314828201613f06565b83815282810190868401838801850189101561332f57600080fd5b600093505b8584101561335b5780356133478161402f565b835260019390930192918401918401613334565b50979650505050505050565b600082601f83011261337857600080fd5b813567ffffffffffffffff81111561339257613392613ffb565b6133a56020601f19601f84011601613f06565b8181528460208386010111156133ba57600080fd5b816020850160208301376000918101602001919091529392505050565b6000602082840312156133e957600080fd5b81356133f48161402f565b9392505050565b60008060008060008060c0878903121561341457600080fd5b865161341f8161402f565b809650506020870151945060408701519350606087015160ff8116811461344557600080fd5b809350506080870151915060a087015190509295509295509295565b600080600080600060a0868803121561347957600080fd5b85356134848161402f565b945060208601356134948161402f565b935060408601356134a48161402f565b925060608601356134b48161402f565b915060808601356134c48161402f565b809150509295509295909350565b600080604083850312156134e557600080fd5b82356134f08161402f565b9150602083013561350081614044565b809150509250929050565b6000806040838503121561351e57600080fd5b82356135298161402f565b946020939093013593505050565b60006020828403121561354957600080fd5b81516133f481614044565b60006020828403121561356657600080fd5b5035919050565b60006020828403121561357f57600080fd5b813567ffffffffffffffff8082111561359757600080fd5b908301906101a082860312156135ac57600080fd5b6135b4613e94565b82358152602083013560208201526135ce604084016132cd565b60408201526135df606084016132cd565b60608201526135f0608084016132cd565b608082015260a083013560a082015260c083013560c082015261361560e084016132cd565b60e0820152610100808401358381111561362e57600080fd5b61363a88828701613367565b82840152505061012061364e8185016132cd565b908201526101406136608482016132cd565b90820152610160838101358381111561367857600080fd5b61368488828701613367565b91830191909152506101809283013592810192909252509392505050565b6000602082840312156136b457600080fd5b813567ffffffffffffffff808211156136cc57600080fd5b9083019061020082860312156136e157600080fd5b6136e9613ebe565b8235815260208301356020820152613703604084016132cd565b6040820152613714606084016132cd565b6060820152613725608084016132cd565b608082015261373660a084016132cd565b60a082015261374760c084016132cd565b60c082015260e083013560e0820152610100808401358381111561376a57600080fd5b613776888287016132d8565b82840152505061012061378a8185016132cd565b9082015261014083810135838111156137a257600080fd5b6137ae88828701613367565b8284015250506101606137c28185016132cd565b9082015261018083810135838111156137da57600080fd5b6137e688828701613367565b8284015250506101a0915081830135828201526101c091506138098284016132cd565b918101919091526101e091820135918101919091529392505050565b60006020828403121561383757600080fd5b813567ffffffffffffffff8082111561384f57600080fd5b90830190610140828603121561386457600080fd5b61386c613ee2565b8235815260208301358281111561388257600080fd5b61388e87828601613367565b6020830152506138a0604084016132cd565b6040820152606083013560608201526138bb608084016132cd565b60808201526138cc60a084016132cd565b60a08201526138dd60c084016132cd565b60c08201526138ee60e084016132cd565b60e082015261010083810135908201526101209283013592810192909252509392505050565b600080600080600080600060e0888a03121561392f57600080fd5b8735965060208801356139418161402f565b955060408801356139518161402f565b945060608801356139618161402f565b935060808801356139718161402f565b9699959850939692959460a0840135945060c09093013592915050565b60008060008060008060008060006101208a8c0312156139ad57600080fd5b8935985060208a01356139bf8161402f565b975060408a0135965060608a01356139d68161402f565b955060808a01356139e68161402f565b945060a08a01356139f68161402f565b935060c08a0135613a068161402f565b8093505060e08a013591506101008a013590509295985092959850929598565b60008060408385031215613a3957600080fd5b50508035926020909101359150565b60008060008060008060c08789031215613a6157600080fd5b86359550602087013594506040870135613a7a8161402f565b93506060870135613a8a8161402f565b9598949750929560808101359460a0909101359350915050565b60008060008060008060c08789031215613abd57600080fd5b8635955060208701359450604087013593506060870135613add8161402f565b92506080870135915060a0870135613af48161402f565b809150509295509295509295565b60008060008060008060008060006101208a8c031215613b2157600080fd5b8935985060208a0135975060408a0135965060608a0135613b418161402f565b955060808a0135945060a08a0135613b588161402f565b935060c08a0135613b688161402f565b925060e08a013567ffffffffffffffff811115613b8457600080fd5b613b908c828d01613367565b9250506101008a013590509295985092959850929598565b600081518084526020808501945080840160005b83811015613be15781516001600160a01b031687529582019590820190600101613bbc565b509495945050505050565b60008151808452613c04816020860160208601613f66565b601f01601f19169290920160200192915050565b60008251613c2a818460208701613f66565b9190910192915050565b6001600160a01b0386811682528581166020830152604082018590528316606082015260a08101613c6483614011565b8260808301529695505050505050565b60006001600160a01b038089168352876020840152808716604084015260c06060840152613ca560c0840187613bec565b60808401959095529290921660a09091015250949350505050565b608081526000613cd36080830187613bec565b6001600160a01b0395861660208401529390941660408201526060015292915050565b60208101613d0383614011565b91905290565b6020815260006133f46020830184613bec565b602081528151602082015260208201516040820152604082015160608201526060820151608082015260006080830151613d6160a08401826001600160a01b03169052565b5060a083015160c083015260c0830151613d8660e08401826001600160a01b03169052565b5060e08301516101a06101008181860152613da56101c0860184613ba8565b90860151909250610120613dc3868201836001600160a01b03169052565b80870151915050601f19610140818786030181880152613de38584613bec565b945080880151925050610160613e03818801846001600160a01b03169052565b80880151925050610180818786030181880152613e208584613bec565b970151959092019490945250929392505050565b87815286602082015260006001600160a01b03808816604084015260e06060840152613e6360e0840188613bec565b818716608085015281861660a085015283810360c0850152613e858186613bec565b9b9a5050505050505050505050565b6040516101a0810167ffffffffffffffff81118282101715613eb857613eb8613ffb565b60405290565b604051610200810167ffffffffffffffff81118282101715613eb857613eb8613ffb565b604051610140810167ffffffffffffffff81118282101715613eb857613eb8613ffb565b604051601f8201601f1916810167ffffffffffffffff81118282101715613f2f57613f2f613ffb565b604052919050565b60008219821115613f4a57613f4a613fcf565b500190565b600082821015613f6157613f61613fcf565b500390565b60005b83811015613f81578181015183820152602001613f69565b83811115613f90576000848401525b50505050565b60007fffffffffffffffffffffffffffffffffffffffffffffffffffffffffffffffff821415613fc857613fc8613fcf565b5060010190565b634e487b7160e01b600052601160045260246000fd5b634e487b7160e01b600052602160045260246000fd5b634e487b7160e01b600052604160045260246000fd5b60038110611c6757634e487b7160e01b600052602160045260246000fd5b6001600160a01b0381168114611c6757600080fd5b8015158114611c6757600080fdfe72657665727453796e74686573697a655265717565737442794272696467652875696e743235362c627974657333322c616464726573732c616464726573732c75696e743235362c616464726573732c62797465733332297265766572744275726e416e644275726e2875696e743235362c627974657333322c616464726573732c616464726573732c75696e743235362c61646472657373297265766572744d6574614275726e2875696e743235362c627974657333322c616464726573732c62797465732c616464726573732c616464726573732c6279746573296d696e7453796e746865746963546f6b656e2875696e743235362c627974657333322c627974657333322c616464726573732c75696e743235362c75696e743235362c6164647265737329a26469706673582212205f794dfc3d082a9fe4634663bdb02d42fadbdfffeee26c417985792d30280c2e64736f6c63430008070033",
    "linkReferences": {},
    "deployedLinkReferences": {}
}