{
    "_format": "hh-sol-artifact-1",
    "contractName": "Portal",
    "sourceName": "contracts/synth-core/Portal.sol",
    "abi": [
        {
            "anonymous": false,
            "inputs": [
                {
                    "indexed": true,
                    "internalType": "bytes32",
                    "name": "id",
                    "type": "bytes32"
                },
                {
                    "indexed": true,
                    "internalType": "address",
                    "name": "to",
                    "type": "address"
                },
                {
                    "indexed": false,
                    "internalType": "uint256",
                    "name": "amount",
                    "type": "uint256"
                },
                {
                    "indexed": false,
                    "internalType": "uint256",
                    "name": "bridgingFee",
                    "type": "uint256"
                },
                {
                    "indexed": false,
                    "internalType": "address",
                    "name": "token",
                    "type": "address"
                }
            ],
            "name": "BurnCompleted",
            "type": "event"
        },
        {
            "anonymous": false,
            "inputs": [
                {
                    "indexed": true,
                    "internalType": "address",
                    "name": "previousOwner",
                    "type": "address"
                },
                {
                    "indexed": true,
                    "internalType": "address",
                    "name": "newOwner",
                    "type": "address"
                }
            ],
            "name": "OwnershipTransferred",
            "type": "event"
        },
        {
            "anonymous": false,
            "inputs": [
                {
                    "indexed": true,
                    "internalType": "bytes32",
                    "name": "id",
                    "type": "bytes32"
                },
                {
                    "indexed": true,
                    "internalType": "address",
                    "name": "to",
                    "type": "address"
                }
            ],
            "name": "RevertBurnRequest",
            "type": "event"
        },
        {
            "anonymous": false,
            "inputs": [
                {
                    "indexed": true,
                    "internalType": "bytes32",
                    "name": "id",
                    "type": "bytes32"
                },
                {
                    "indexed": true,
                    "internalType": "address",
                    "name": "to",
                    "type": "address"
                },
                {
                    "indexed": false,
                    "internalType": "uint256",
                    "name": "amount",
                    "type": "uint256"
                },
                {
                    "indexed": false,
                    "internalType": "uint256",
                    "name": "bridgingFee",
                    "type": "uint256"
                },
                {
                    "indexed": false,
                    "internalType": "address",
                    "name": "token",
                    "type": "address"
                }
            ],
            "name": "RevertSynthesizeCompleted",
            "type": "event"
        },
        {
            "anonymous": false,
            "inputs": [
                {
                    "indexed": false,
                    "internalType": "bytes32",
                    "name": "id",
                    "type": "bytes32"
                },
                {
                    "indexed": true,
                    "internalType": "address",
                    "name": "from",
                    "type": "address"
                },
                {
                    "indexed": true,
                    "internalType": "uint256",
                    "name": "chainID",
                    "type": "uint256"
                },
                {
                    "indexed": true,
                    "internalType": "address",
                    "name": "revertableAddress",
                    "type": "address"
                },
                {
                    "indexed": false,
                    "internalType": "address",
                    "name": "to",
                    "type": "address"
                },
                {
                    "indexed": false,
                    "internalType": "uint256",
                    "name": "amount",
                    "type": "uint256"
                },
                {
                    "indexed": false,
                    "internalType": "address",
                    "name": "token",
                    "type": "address"
                }
            ],
            "name": "SynthesizeRequest",
            "type": "event"
        },
        {
            "inputs": [
                {
                    "internalType": "address",
                    "name": "",
                    "type": "address"
                }
            ],
            "name": "balanceOf",
            "outputs": [
                {
                    "internalType": "uint256",
                    "name": "",
                    "type": "uint256"
                }
            ],
            "stateMutability": "view",
            "type": "function"
        },
        {
            "inputs": [],
            "name": "bridge",
            "outputs": [
                {
                    "internalType": "address",
                    "name": "",
                    "type": "address"
                }
            ],
            "stateMutability": "view",
            "type": "function"
        },
        {
            "inputs": [
                {
                    "internalType": "address",
                    "name": "_bridge",
                    "type": "address"
                },
                {
                    "internalType": "address",
                    "name": "_trustedForwarder",
                    "type": "address"
                },
                {
                    "internalType": "address",
                    "name": "_wrapper",
                    "type": "address"
                },
                {
                    "internalType": "address",
                    "name": "_whitelistedToken",
                    "type": "address"
                },
                {
                    "internalType": "contract IMetaRouter",
                    "name": "_metaRouter",
                    "type": "address"
                }
            ],
            "name": "initialize",
            "outputs": [],
            "stateMutability": "nonpayable",
            "type": "function"
        },
        {
            "inputs": [
                {
                    "internalType": "address",
                    "name": "forwarder",
                    "type": "address"
                }
            ],
            "name": "isTrustedForwarder",
            "outputs": [
                {
                    "internalType": "bool",
                    "name": "",
                    "type": "bool"
                }
            ],
            "stateMutability": "view",
            "type": "function"
        },
        {
            "inputs": [],
            "name": "metaRouter",
            "outputs": [
                {
                    "internalType": "contract IMetaRouter",
                    "name": "",
                    "type": "address"
                }
            ],
            "stateMutability": "view",
            "type": "function"
        },
        {
            "inputs": [
                {
                    "components": [
                        {
                            "internalType": "uint256",
                            "name": "stableBridgingFee",
                            "type": "uint256"
                        },
                        {
                            "internalType": "uint256",
                            "name": "amount",
                            "type": "uint256"
                        },
                        {
                            "internalType": "address",
                            "name": "rtoken",
                            "type": "address"
                        },
                        {
                            "internalType": "address",
                            "name": "chain2address",
                            "type": "address"
                        },
                        {
                            "internalType": "address",
                            "name": "receiveSide",
                            "type": "address"
                        },
                        {
                            "internalType": "address",
                            "name": "oppositeBridge",
                            "type": "address"
                        },
                        {
                            "internalType": "address",
                            "name": "syntCaller",
                            "type": "address"
                        },
                        {
                            "internalType": "uint256",
                            "name": "chainID",
                            "type": "uint256"
                        },
                        {
                            "internalType": "address[]",
                            "name": "swapTokens",
                            "type": "address[]"
                        },
                        {
                            "internalType": "address",
                            "name": "secondDexRouter",
                            "type": "address"
                        },
                        {
                            "internalType": "bytes",
                            "name": "secondSwapCalldata",
                            "type": "bytes"
                        },
                        {
                            "internalType": "address",
                            "name": "finalReceiveSide",
                            "type": "address"
                        },
                        {
                            "internalType": "bytes",
                            "name": "finalCalldata",
                            "type": "bytes"
                        },
                        {
                            "internalType": "uint256",
                            "name": "finalOffset",
                            "type": "uint256"
                        },
                        {
                            "internalType": "address",
                            "name": "revertableAddress",
                            "type": "address"
                        }
                    ],
                    "internalType": "struct MetaRouteStructs.MetaSynthesizeTransaction",
                    "name": "_metaSynthesizeTransaction",
                    "type": "tuple"
                }
            ],
            "name": "metaSynthesize",
            "outputs": [
                {
                    "internalType": "bytes32",
                    "name": "",
                    "type": "bytes32"
                }
            ],
            "stateMutability": "nonpayable",
            "type": "function"
        },
        {
            "inputs": [
                {
                    "internalType": "uint256",
                    "name": "_stableBridgingFee",
                    "type": "uint256"
                },
                {
                    "internalType": "bytes32",
                    "name": "_externalID",
                    "type": "bytes32"
                },
                {
                    "internalType": "address",
                    "name": "_to",
                    "type": "address"
                },
                {
                    "internalType": "uint256",
                    "name": "_amount",
                    "type": "uint256"
                },
                {
                    "internalType": "address",
                    "name": "_rToken",
                    "type": "address"
                },
                {
                    "internalType": "address",
                    "name": "_finalReceiveSide",
                    "type": "address"
                },
                {
                    "internalType": "bytes",
                    "name": "_finalCalldata",
                    "type": "bytes"
                },
                {
                    "internalType": "uint256",
                    "name": "_finalOffset",
                    "type": "uint256"
                }
            ],
            "name": "metaUnsynthesize",
            "outputs": [],
            "stateMutability": "nonpayable",
            "type": "function"
        },
        {
            "inputs": [],
            "name": "owner",
            "outputs": [
                {
                    "internalType": "address",
                    "name": "",
                    "type": "address"
                }
            ],
            "stateMutability": "view",
            "type": "function"
        },
        {
            "inputs": [],
            "name": "pause",
            "outputs": [],
            "stateMutability": "nonpayable",
            "type": "function"
        },
        {
            "inputs": [],
            "name": "paused",
            "outputs": [
                {
                    "internalType": "bool",
                    "name": "",
                    "type": "bool"
                }
            ],
            "stateMutability": "view",
            "type": "function"
        },
        {
            "inputs": [],
            "name": "renounceOwnership",
            "outputs": [],
            "stateMutability": "nonpayable",
            "type": "function"
        },
        {
            "inputs": [],
            "name": "requestCount",
            "outputs": [
                {
                    "internalType": "uint256",
                    "name": "",
                    "type": "uint256"
                }
            ],
            "stateMutability": "view",
            "type": "function"
        },
        {
            "inputs": [
                {
                    "internalType": "bytes32",
                    "name": "",
                    "type": "bytes32"
                }
            ],
            "name": "requests",
            "outputs": [
                {
                    "internalType": "address",
                    "name": "recipient",
                    "type": "address"
                },
                {
                    "internalType": "address",
                    "name": "chain2address",
                    "type": "address"
                },
                {
                    "internalType": "uint256",
                    "name": "amount",
                    "type": "uint256"
                },
                {
                    "internalType": "address",
                    "name": "rtoken",
                    "type": "address"
                },
                {
                    "internalType": "enum Portal.RequestState",
                    "name": "state",
                    "type": "uint8"
                }
            ],
            "stateMutability": "view",
            "type": "function"
        },
        {
            "inputs": [
                {
                    "internalType": "uint256",
                    "name": "_stableBridgingFee",
                    "type": "uint256"
                },
                {
                    "internalType": "bytes32",
                    "name": "_internalID",
                    "type": "bytes32"
                },
                {
                    "internalType": "address",
                    "name": "_receiveSide",
                    "type": "address"
                },
                {
                    "internalType": "address",
                    "name": "_oppositeBridge",
                    "type": "address"
                },
                {
                    "internalType": "uint256",
                    "name": "_chainId",
                    "type": "uint256"
                }
            ],
            "name": "revertBurnRequest",
            "outputs": [],
            "stateMutability": "nonpayable",
            "type": "function"
        },
        {
            "inputs": [
                {
                    "internalType": "uint256",
                    "name": "_stableBridgingFee",
                    "type": "uint256"
                },
                {
                    "internalType": "bytes32",
                    "name": "_externalID",
                    "type": "bytes32"
                }
            ],
            "name": "revertSynthesize",
            "outputs": [],
            "stateMutability": "nonpayable",
            "type": "function"
        },
        {
            "inputs": [
                {
                    "internalType": "contract IMetaRouter",
                    "name": "_metaRouter",
                    "type": "address"
                }
            ],
            "name": "setMetaRouter",
            "outputs": [],
            "stateMutability": "nonpayable",
            "type": "function"
        },
        {
            "inputs": [
                {
                    "internalType": "address",
                    "name": "_token",
                    "type": "address"
                },
                {
                    "internalType": "uint256",
                    "name": "_threshold",
                    "type": "uint256"
                }
            ],
            "name": "setTokenThreshold",
            "outputs": [],
            "stateMutability": "nonpayable",
            "type": "function"
        },
        {
            "inputs": [
                {
                    "internalType": "address",
                    "name": "_token",
                    "type": "address"
                },
                {
                    "internalType": "bool",
                    "name": "_activate",
                    "type": "bool"
                }
            ],
            "name": "setWhitelistToken",
            "outputs": [],
            "stateMutability": "nonpayable",
            "type": "function"
        },
        {
            "inputs": [
                {
                    "internalType": "uint256",
                    "name": "_stableBridgingFee",
                    "type": "uint256"
                },
                {
                    "internalType": "address",
                    "name": "_token",
                    "type": "address"
                },
                {
                    "internalType": "uint256",
                    "name": "_amount",
                    "type": "uint256"
                },
                {
                    "internalType": "address",
                    "name": "_chain2address",
                    "type": "address"
                },
                {
                    "internalType": "address",
                    "name": "_receiveSide",
                    "type": "address"
                },
                {
                    "internalType": "address",
                    "name": "_oppositeBridge",
                    "type": "address"
                },
                {
                    "internalType": "address",
                    "name": "_revertableAddress",
                    "type": "address"
                },
                {
                    "internalType": "uint256",
                    "name": "_chainID",
                    "type": "uint256"
                }
            ],
            "name": "synthesize",
            "outputs": [
                {
                    "internalType": "bytes32",
                    "name": "",
                    "type": "bytes32"
                }
            ],
            "stateMutability": "nonpayable",
            "type": "function"
        },
        {
            "inputs": [
                {
                    "internalType": "uint256",
                    "name": "_stableBridgingFee",
                    "type": "uint256"
                },
                {
                    "internalType": "address",
                    "name": "_chain2address",
                    "type": "address"
                },
                {
                    "internalType": "address",
                    "name": "_receiveSide",
                    "type": "address"
                },
                {
                    "internalType": "address",
                    "name": "_oppositeBridge",
                    "type": "address"
                },
                {
                    "internalType": "address",
                    "name": "_revertableAddress",
                    "type": "address"
                },
                {
                    "internalType": "uint256",
                    "name": "_chainID",
                    "type": "uint256"
                }
            ],
            "name": "synthesizeNative",
            "outputs": [
                {
                    "internalType": "bytes32",
                    "name": "",
                    "type": "bytes32"
                }
            ],
            "stateMutability": "payable",
            "type": "function"
        },
        {
            "inputs": [
                {
                    "internalType": "uint256",
                    "name": "_stableBridgingFee",
                    "type": "uint256"
                },
                {
                    "internalType": "bytes",
                    "name": "_approvalData",
                    "type": "bytes"
                },
                {
                    "internalType": "address",
                    "name": "_token",
                    "type": "address"
                },
                {
                    "internalType": "uint256",
                    "name": "_amount",
                    "type": "uint256"
                },
                {
                    "internalType": "address",
                    "name": "_chain2address",
                    "type": "address"
                },
                {
                    "internalType": "address",
                    "name": "_receiveSide",
                    "type": "address"
                },
                {
                    "internalType": "address",
                    "name": "_oppositeBridge",
                    "type": "address"
                },
                {
                    "internalType": "address",
                    "name": "_revertableAddress",
                    "type": "address"
                },
                {
                    "internalType": "uint256",
                    "name": "_chainID",
                    "type": "uint256"
                }
            ],
            "name": "synthesizeWithPermit",
            "outputs": [
                {
                    "internalType": "bytes32",
                    "name": "",
                    "type": "bytes32"
                }
            ],
            "stateMutability": "nonpayable",
            "type": "function"
        },
        {
            "inputs": [
                {
                    "internalType": "address",
                    "name": "",
                    "type": "address"
                }
            ],
            "name": "tokenThreshold",
            "outputs": [
                {
                    "internalType": "uint256",
                    "name": "",
                    "type": "uint256"
                }
            ],
            "stateMutability": "view",
            "type": "function"
        },
        {
            "inputs": [
                {
                    "internalType": "address",
                    "name": "",
                    "type": "address"
                }
            ],
            "name": "tokenWhitelist",
            "outputs": [
                {
                    "internalType": "bool",
                    "name": "",
                    "type": "bool"
                }
            ],
            "stateMutability": "view",
            "type": "function"
        },
        {
            "inputs": [
                {
                    "internalType": "address",
                    "name": "newOwner",
                    "type": "address"
                }
            ],
            "name": "transferOwnership",
            "outputs": [],
            "stateMutability": "nonpayable",
            "type": "function"
        },
        {
            "inputs": [],
            "name": "unpause",
            "outputs": [],
            "stateMutability": "nonpayable",
            "type": "function"
        },
        {
            "inputs": [
                {
                    "internalType": "uint256",
                    "name": "_stableBridgingFee",
                    "type": "uint256"
                },
                {
                    "internalType": "bytes32",
                    "name": "_externalID",
                    "type": "bytes32"
                },
                {
                    "internalType": "address",
                    "name": "_token",
                    "type": "address"
                },
                {
                    "internalType": "uint256",
                    "name": "_amount",
                    "type": "uint256"
                },
                {
                    "internalType": "address",
                    "name": "_to",
                    "type": "address"
                }
            ],
            "name": "unsynthesize",
            "outputs": [],
            "stateMutability": "nonpayable",
            "type": "function"
        },
        {
            "inputs": [
                {
                    "internalType": "bytes32",
                    "name": "",
                    "type": "bytes32"
                }
            ],
            "name": "unsynthesizeStates",
            "outputs": [
                {
                    "internalType": "enum Portal.UnsynthesizeState",
                    "name": "",
                    "type": "uint8"
                }
            ],
            "stateMutability": "view",
            "type": "function"
        },
        {
            "inputs": [],
            "name": "versionRecipient",
            "outputs": [
                {
                    "internalType": "string",
                    "name": "",
                    "type": "string"
                }
            ],
            "stateMutability": "pure",
            "type": "function"
        },
        {
            "inputs": [],
            "name": "wrapper",
            "outputs": [
                {
                    "internalType": "address",
                    "name": "",
                    "type": "address"
                }
            ],
            "stateMutability": "view",
            "type": "function"
        }
    ],
    "bytecode": "0x608060405234801561001057600080fd5b50613696806100206000396000f3fe6080604052600436106101c25760003560e01c8063715018a6116100f7578063ac210cc711610095578063e975e4c211610064578063e975e4c214610591578063eadd5c34146105b1578063f2fde38b146105d1578063fab92894146105f157600080fd5b8063ac210cc714610511578063c42a289414610531578063dbec15bb14610551578063e78cea921461057157600080fd5b80638456cb59116100d15780638456cb591461043e5780638bb39802146104535780638da5cb5b146104735780639d866985146104a557600080fd5b8063715018a6146103d9578063753d7563146103ee5780637c374f991461041e57600080fd5b8063572b6c05116101645780635c975abb1161013e5780635c975abb14610345578063687752781461035f5780636adf81c11461038c57806370a08231146103ac57600080fd5b8063572b6c05146102dd5780635badbe4c1461031c5780635c875d661461033257600080fd5b80633f4ba83a116101a05780633f4ba83a1461023c578063456a9b2c14610251578063486ff0cd146102715780634afbb9f1146102bd57600080fd5b80631459457a146101c7578063316784f5146101e957806331c5a59214610209575b600080fd5b3480156101d357600080fd5b506101e76101e2366004612c73565b61062e565b005b3480156101f557600080fd5b506101e76102043660046130af565b61077c565b34801561021557600080fd5b50610229610224366004612d7f565b610a7c565b6040519081526020015b60405180910390f35b34801561024857600080fd5b506101e7610bc8565b34801561025d57600080fd5b506101e761026c366004613015565b610c4d565b34801561027d57600080fd5b50604080518082018252600581527f322e302e31000000000000000000000000000000000000000000000000000000602082015290516102339190613388565b3480156102c957600080fd5b506101e76102d8366004613067565b610eea565b3480156102e957600080fd5b5061030c6102f8366004612bed565b6065546001600160a01b0391821691161490565b6040519015158152602001610233565b34801561032857600080fd5b5061022960685481565b610229610340366004612ef5565b611102565b34801561035157600080fd5b5060695461030c9060ff1681565b34801561036b57600080fd5b5061022961037a366004612bed565b606d6020526000908152604090205481565b34801561039857600080fd5b506102296103a7366004612f65565b6112ad565b3480156103b857600080fd5b506102296103c7366004612bed565b606c6020526000908152604090205481565b3480156103e557600080fd5b506101e76113f2565b3480156103fa57600080fd5b5061030c610409366004612bed565b606e6020526000908152604090205460ff1681565b34801561042a57600080fd5b506101e7610439366004612ce4565b611477565b34801561044a57600080fd5b506101e761151b565b34801561045f57600080fd5b506101e761046e366004612d1d565b6115a3565b34801561047f57600080fd5b506033546001600160a01b03165b6040516001600160a01b039091168152602001610233565b3480156104b157600080fd5b506105006104c0366004612d66565b606a6020526000908152604090208054600182015460028301546003909301546001600160a01b039283169391831692811690600160a01b900460ff1685565b6040516102339594939291906132bb565b34801561051d57600080fd5b5060665461048d906001600160a01b031681565b34801561053d57600080fd5b506101e761054c366004612ff3565b611638565b34801561055d57600080fd5b50606f5461048d906001600160a01b031681565b34801561057d57600080fd5b5060675461048d906001600160a01b031681565b34801561059d57600080fd5b506102296105ac36600461314b565b6118b9565b3480156105bd57600080fd5b506101e76105cc366004612bed565b611ac7565b3480156105dd57600080fd5b506101e76105ec366004612bed565b611beb565b3480156105fd57600080fd5b5061062161060c366004612d66565b606b6020526000908152604090205460ff1681565b6040516102339190613375565b600054610100900460ff166106495760005460ff161561064d565b303b155b6106c45760405162461bcd60e51b815260206004820152602e60248201527f496e697469616c697a61626c653a20636f6e747261637420697320616c72656160448201527f647920696e697469616c697a656400000000000000000000000000000000000060648201526084015b60405180910390fd5b600054610100900460ff161580156106e6576000805461ffff19166101011790555b6106ef85611cec565b606780546001600160a01b0380891673ffffffffffffffffffffffffffffffffffffffff199283161790925560668054878416908316179055606f80548584169216919091179055831615610762576001600160a01b0383166000908152606e60205260409020805460ff191660011790555b8015610774576000805461ff00191690555b505050505050565b6067546001600160a01b031633146107d65760405162461bcd60e51b815260206004820152601e60248201527f53796d623a2063616c6c6572206973206e6f742074686520627269646765000060448201526064016106bb565b60695460ff16156108185760405162461bcd60e51b815260206004820152600c60248201526b14de5b588e881c185d5cd95960a21b60448201526064016106bb565b6000878152606b602052604081205460ff16600281111561083b5761083b6135b0565b146108ae5760405162461bcd60e51b815260206004820152602660248201527f53796d623a2073796e74686574696320746f6b656e7320656d657267656e637960448201527f556e6275726e000000000000000000000000000000000000000000000000000060648201526084016106bb565b6001600160a01b0384166000908152606c60205260409020546108d290869061351a565b6001600160a01b038581166000908152606c60209081526040808320949094558a8252606b905291909120805460ff19166001179055606754610918918691168a611de5565b610922888661351a565b945081516000141561098a57610939848787611de5565b60408051868152602081018a90526001600160a01b038616818301529051309189917fd31ae0a5fc46ab05b27d837efddb13837db6eb85442f9b1d3f609bf1552f3f4f9181900360600190a3610a72565b606f546109a29085906001600160a01b031687611de5565b606f546040517fe1ee0f790000000000000000000000000000000000000000000000000000000081526001600160a01b039091169063e1ee0f79906109f390879089908890889088906004016132fb565b600060405180830381600087803b158015610a0d57600080fd5b505af1158015610a21573d6000803e3d6000fd5b505060408051888152602081018c90526001600160a01b0388168183015290513093508a92507fd31ae0a5fc46ab05b27d837efddb13837db6eb85442f9b1d3f609bf1552f3f4f9181900360600190a35b5050505050505050565b60695460009060ff1615610ac15760405162461bcd60e51b815260206004820152600c60248201526b14de5b588e881c185d5cd95960a21b60448201526064016106bb565b6040808301516001600160a01b03166000908152606e602052205460ff16610b2b5760405162461bcd60e51b815260206004820152601860248201527f53796d623a20756e617574686f72697a656420746f6b656e000000000000000060448201526064016106bb565b6040808301516001600160a01b03166000908152606d602090815291902054908301511015610b9c5760405162461bcd60e51b815260206004820152601c60248201527f53796d623a20616d6f756e7420756e646572207468726573686f6c640000000060448201526064016106bb565b610bb78260400151610bac611f54565b308560200151611f9a565b610bc08261210a565b90505b919050565b610bd0611f54565b6001600160a01b0316610beb6033546001600160a01b031690565b6001600160a01b031614610c415760405162461bcd60e51b815260206004820181905260248201527f4f776e61626c653a2063616c6c6572206973206e6f7420746865206f776e657260448201526064016106bb565b6069805460ff19169055565b60695460ff1615610c8f5760405162461bcd60e51b815260206004820152600c60248201526b14de5b588e881c185d5cd95960a21b60448201526064016106bb565b60008430610c9b611f54565b6040805160208101949094526bffffffffffffffffffffffff19606093841b811691850191909152911b16605482015246606882015260880160408051601f198184030181529190528051602090910120905060016000828152606b602052604090205460ff166002811115610d1357610d136135b0565b1415610d865760405162461bcd60e51b8152602060048201526024808201527f53796d623a205265616c20746f6b656e7320616c7265616479207472616e736660448201527f657265640000000000000000000000000000000000000000000000000000000060648201526084016106bb565b6000818152606b6020908152604091829020805460ff1916600217905581518083018352601b81527f7265766572744275726e2875696e743235362c62797465733332290000000000908201528151602481018990526044808201859052835180830390910181526064909101835290810180517bffffffffffffffffffffffffffffffffffffffffffffffffffffffff167ff70519ae000000000000000000000000000000000000000000000000000000001790526067549151633675e4e160e11b815290916001600160a01b031690636cebc9c290610e7190849089908990899060040161333f565b600060405180830381600087803b158015610e8b57600080fd5b505af1158015610e9f573d6000803e3d6000fd5b5050505050610eac611f54565b6001600160a01b0316857f40590cc12db0488520ce425059f83f8caed91bdf98de5ff829dc57c63843161b60405160405180910390a3505050505050565b6067546001600160a01b03163314610f445760405162461bcd60e51b815260206004820152601e60248201527f53796d623a2063616c6c6572206973206e6f742074686520627269646765000060448201526064016106bb565b60695460ff1615610f865760405162461bcd60e51b815260206004820152600c60248201526b14de5b588e881c185d5cd95960a21b60448201526064016106bb565b6000848152606b602052604081205460ff166002811115610fa957610fa96135b0565b1461101c5760405162461bcd60e51b815260206004820152602660248201527f53796d623a2073796e74686574696320746f6b656e7320656d657267656e637960448201527f556e6275726e000000000000000000000000000000000000000000000000000060648201526084016106bb565b6001600160a01b0383166000908152606c602052604090205461104090839061351a565b6001600160a01b0384166000908152606c6020908152604080832093909355868252606b905220805460ff191660011790556110868382611081888661351a565b611de5565b60675461109e9084906001600160a01b031687611de5565b6001600160a01b038116847fd31ae0a5fc46ab05b27d837efddb13837db6eb85442f9b1d3f609bf1552f3f4f6110d4888661351a565b60408051918252602082018a90526001600160a01b0388169082015260600160405180910390a35050505050565b60695460009060ff16156111475760405162461bcd60e51b815260206004820152600c60248201526b14de5b588e881c185d5cd95960a21b60448201526064016106bb565b6066546001600160a01b03166000908152606e602052604090205460ff166111b15760405162461bcd60e51b815260206004820152601860248201527f53796d623a20756e617574686f72697a656420746f6b656e000000000000000060448201526064016106bb565b6066546001600160a01b03166000908152606d602052604090205434101561121b5760405162461bcd60e51b815260206004820152601c60248201527f53796d623a20616d6f756e7420756e646572207468726573686f6c640000000060448201526064016106bb565b606660009054906101000a90046001600160a01b03166001600160a01b031663d0e30db0346040518263ffffffff1660e01b81526004016000604051808303818588803b15801561126b57600080fd5b505af115801561127f573d6000803e3d6000fd5b50506066546112a293508a92506001600160a01b0316905034898989898961255a565b979650505050505050565b60695460009060ff16156112f25760405162461bcd60e51b815260206004820152600c60248201526b14de5b588e881c185d5cd95960a21b60448201526064016106bb565b6001600160a01b0388166000908152606e602052604090205460ff1661135a5760405162461bcd60e51b815260206004820152601860248201527f53796d623a20756e617574686f72697a656420746f6b656e000000000000000060448201526064016106bb565b6001600160a01b0388166000908152606d60205260409020548710156113c25760405162461bcd60e51b815260206004820152601c60248201527f53796d623a20616d6f756e7420756e646572207468726573686f6c640000000060448201526064016106bb565b6113d5886113ce611f54565b308a611f9a565b6113e5898989898989898961255a565b9998505050505050505050565b6113fa611f54565b6001600160a01b03166114156033546001600160a01b031690565b6001600160a01b03161461146b5760405162461bcd60e51b815260206004820181905260248201527f4f776e61626c653a2063616c6c6572206973206e6f7420746865206f776e657260448201526064016106bb565b61147560006128ed565b565b61147f611f54565b6001600160a01b031661149a6033546001600160a01b031690565b6001600160a01b0316146114f05760405162461bcd60e51b815260206004820181905260248201527f4f776e61626c653a2063616c6c6572206973206e6f7420746865206f776e657260448201526064016106bb565b6001600160a01b03919091166000908152606e60205260409020805460ff1916911515919091179055565b611523611f54565b6001600160a01b031661153e6033546001600160a01b031690565b6001600160a01b0316146115945760405162461bcd60e51b815260206004820181905260248201527f4f776e61626c653a2063616c6c6572206973206e6f7420746865206f776e657260448201526064016106bb565b6069805460ff19166001179055565b6115ab611f54565b6001600160a01b03166115c66033546001600160a01b031690565b6001600160a01b03161461161c5760405162461bcd60e51b815260206004820181905260248201527f4f776e61626c653a2063616c6c6572206973206e6f7420746865206f776e657260448201526064016106bb565b6001600160a01b039091166000908152606d6020526040902055565b6067546001600160a01b031633146116925760405162461bcd60e51b815260206004820152601e60248201527f53796d623a2063616c6c6572206973206e6f742074686520627269646765000060448201526064016106bb565b60695460ff16156116d45760405162461bcd60e51b815260206004820152600c60248201526b14de5b588e881c185d5cd95960a21b60448201526064016106bb565b6000818152606a6020526040902060016003820154600160a01b900460ff166002811115611704576117046135b0565b146117775760405162461bcd60e51b815260206004820152602960248201527f53796d623a207374617465206e6f74206f70656e206f7220747820646f65732060448201527f6e6f74206578697374000000000000000000000000000000000000000000000060648201526084016106bb565b600381018054740200000000000000000000000000000000000000007fffffffffffffffffffffff00ffffffffffffffffffffffffffffffffffffffff82161790915560028201546001600160a01b039091166000908152606c60205260409020546117e3919061351a565b6003820180546001600160a01b039081166000908152606c602052604090209290925554825460028401546118269392831692919091169061108190879061351a565b6003810154606754611845916001600160a01b03908116911685611de5565b805460028201546001600160a01b039091169083907fefcdf9ea4e65571d2ce9c030c46954e950662df8a7d8bd039fc4417e37b2f88c9061188790879061351a565b600385015460408051928352602083018990526001600160a01b039091169082015260600160405180910390a3505050565b60695460009060ff16156118fe5760405162461bcd60e51b815260206004820152600c60248201526b14de5b588e881c185d5cd95960a21b60448201526064016106bb565b6001600160a01b0388166000908152606e602052604090205460ff166119665760405162461bcd60e51b815260206004820152601860248201527f53796d623a20756e617574686f72697a656420746f6b656e000000000000000060448201526064016106bb565b6001600160a01b0388166000908152606d60205260409020548710156119ce5760405162461bcd60e51b815260206004820152601c60248201527f53796d623a20616d6f756e7420756e646572207468726573686f6c640000000060448201526064016106bb565b6000806000806000808f8f8101906119e69190612c11565b6040517fd505accf0000000000000000000000000000000000000000000000000000000081526001600160a01b038088166004830152306024830152604482018790526064820186905260ff8516608483015260a4820184905260c48201839052969c50949a5092985090965094509250908f169063d505accf9060e401600060405180830381600087803b158015611a7e57600080fd5b505af1158015611a92573d6000803e3d6000fd5b50505050505050505050611aa8886113ce611f54565b611ab88b8989898989898961255a565b9b9a5050505050505050505050565b611acf611f54565b6001600160a01b0316611aea6033546001600160a01b031690565b6001600160a01b031614611b405760405162461bcd60e51b815260206004820181905260248201527f4f776e61626c653a2063616c6c6572206973206e6f7420746865206f776e657260448201526064016106bb565b6001600160a01b038116611bbc5760405162461bcd60e51b815260206004820152602760248201527f53796d623a206d657461526f757465722063616e6e6f74206265207a65726f2060448201527f616464726573730000000000000000000000000000000000000000000000000060648201526084016106bb565b606f805473ffffffffffffffffffffffffffffffffffffffff19166001600160a01b0392909216919091179055565b611bf3611f54565b6001600160a01b0316611c0e6033546001600160a01b031690565b6001600160a01b031614611c645760405162461bcd60e51b815260206004820181905260248201527f4f776e61626c653a2063616c6c6572206973206e6f7420746865206f776e657260448201526064016106bb565b6001600160a01b038116611ce05760405162461bcd60e51b815260206004820152602660248201527f4f776e61626c653a206e6577206f776e657220697320746865207a65726f206160448201527f646472657373000000000000000000000000000000000000000000000000000060648201526084016106bb565b611ce9816128ed565b50565b600054610100900460ff16611d075760005460ff1615611d0b565b303b155b611d7d5760405162461bcd60e51b815260206004820152602e60248201527f496e697469616c697a61626c653a20636f6e747261637420697320616c72656160448201527f647920696e697469616c697a656400000000000000000000000000000000000060648201526084016106bb565b600054610100900460ff16158015611d9f576000805461ffff19166101011790555b611da761294c565b6065805473ffffffffffffffffffffffffffffffffffffffff19166001600160a01b0384161790558015611de1576000805461ff00191690555b5050565b604080516001600160a01b038481166024830152604480830185905283518084039091018152606490920183526020820180517bffffffffffffffffffffffffffffffffffffffffffffffffffffffff167fa9059cbb000000000000000000000000000000000000000000000000000000001790529151600092839290871691611e6f919061329f565b6000604051808303816000865af19150503d8060008114611eac576040519150601f19603f3d011682016040523d82523d6000602084013e611eb1565b606091505b5091509150818015611edb575080511580611edb575080806020019051810190611edb9190612d49565b611f4d5760405162461bcd60e51b815260206004820152602d60248201527f5472616e7366657248656c7065723a3a736166655472616e736665723a20747260448201527f616e73666572206661696c65640000000000000000000000000000000000000060648201526084016106bb565b5050505050565b6065546000906001600160a01b0316331415611f9557507fffffffffffffffffffffffffffffffffffffffffffffffffffffffffffffffec36013560601c90565b503390565b604080516001600160a01b0385811660248301528481166044830152606480830185905283518084039091018152608490920183526020820180517bffffffffffffffffffffffffffffffffffffffffffffffffffffffff167f23b872dd00000000000000000000000000000000000000000000000000000000179052915160009283929088169161202c919061329f565b6000604051808303816000865af19150503d8060008114612069576040519150601f19603f3d011682016040523d82523d6000602084013e61206e565b606091505b50915091508180156120985750805115806120985750808060200190518101906120989190612d49565b6107745760405162461bcd60e51b815260206004820152603160248201527f5472616e7366657248656c7065723a3a7472616e7366657246726f6d3a20747260448201527f616e7366657246726f6d206661696c656400000000000000000000000000000060648201526084016106bb565b6020808201516040808401516001600160a01b03166000908152606c9093528220546121369190613502565b6040808401516001600160a01b039081166000908152606c60205291909120919091556101c0830151166121795760608201516001600160a01b03166101c08301525b6068546040516bffffffffffffffffffffffff193060601b166020820152603481019190915246605482015260740160408051601f19818403018152828252805160209182012060808601516101c087015160e08801519386018390526bffffffffffffffffffffffff19606092831b811695870195909552901b9092166054840152606883015291506000906088016040516020818303038152906040528051906020012090506000604051806101800160405280856000015181526020018560200151815260200183815260200185604001516001600160a01b0316815260200146815260200185606001516001600160a01b0316815260200185610100015181526020018561012001516001600160a01b0316815260200185610140015181526020018561016001516001600160a01b031681526020018561018001518152602001856101a0015181525090506000816040516024016122dc919061339b565b60408051601f19818403018152918152602080830180517bffffffffffffffffffffffffffffffffffffffffffffffffffffffff167fd5f8fbcb00000000000000000000000000000000000000000000000000000000179052815160a08101835260c08901516001600160a01b0390811682526060808b0151821683850152928a015182850152928901519092169082015290915060808101600190526000848152606a60209081526040918290208351815473ffffffffffffffffffffffffffffffffffffffff199081166001600160a01b039283161783559285015160018301805485169183169190911790559284015160028083019190915560608501516003830180549485169190951690811785556080860151929492937fffffffffffffffffffffff000000000000000000000000000000000000000000161790600160a01b908490811115612433576124336135b0565b021790555050606880549150600061244a83613561565b9091555050606754608086015160a087015160e0880151604051633675e4e160e11b81526001600160a01b0390941693636cebc9c293612493938793919290919060040161333f565b600060405180830381600087803b1580156124ad57600080fd5b505af11580156124c1573d6000803e3d6000fd5b5050505050836101c001516001600160a01b03168460e001518560c001516001600160a01b03167f31325fe0a1a2e6a5b1e41572156ba5b4e94f0fae7e7f63ec21e9b5ce1e4b3eab86886060015189602001518a6040015160405161254b94939291909384526001600160a01b039283166020850152604084019190915216606082015260800190565b60405180910390a45050919050565b6001600160a01b0387166000908152606c602052604081205461257e908890613502565b6001600160a01b03808a166000908152606c602052604090209190915583166125a5578592505b6068546040516bffffffffffffffffffffffff193060601b166020820152603481019190915246605482015260740160408051601f1981840301815282825280516020918201209083018190526bffffffffffffffffffffffff19606089811b8216938501939093529186901b9091166054830152606882018490529150600090608801604051602081830303815290604052805190602001209050600060405180608001604052806043815260200161361e604391398051602090910120604051602481018d9052604481018490526001600160a01b03808d16606483015246608483015260a482018c90528a1660c482015260e40160408051601f198184030181529181526020820180517bffffffffffffffffffffffffffffffffffffffffffffffffffffffff167fffffffff0000000000000000000000000000000000000000000000000000000090941693909317909252815160a0810190925291508061270f611f54565b6001600160a01b0390811682528a81166020830152604082018c90528c166060820152608001600190526000838152606a60209081526040918290208351815473ffffffffffffffffffffffffffffffffffffffff199081166001600160a01b039283161783559285015160018301805485169183169190911790559284015160028083019190915560608501516003830180549485169190951690811785556080860151929492937fffffffffffffffffffffff000000000000000000000000000000000000000000161790600160a01b9084908111156127f3576127f36135b0565b021790555050606880549150600061280a83613561565b9091555050606754604051633675e4e160e11b81526001600160a01b0390911690636cebc9c2906128459084908b908b908a9060040161333f565b600060405180830381600087803b15801561285f57600080fd5b505af1158015612873573d6000803e3d6000fd5b5050505050836001600160a01b03168361288b611f54565b604080518681526001600160a01b038c811660208301529181018d90528d821660608201529116907f31325fe0a1a2e6a5b1e41572156ba5b4e94f0fae7e7f63ec21e9b5ce1e4b3eab9060800160405180910390a45098975050505050505050565b603380546001600160a01b0383811673ffffffffffffffffffffffffffffffffffffffff19831681179093556040519116919082907f8be0079c531659141344cd1fd0a4f28419497f9722a3daafe3b4186f6b6457e090600090a35050565b600054610100900460ff166129c95760405162461bcd60e51b815260206004820152602b60248201527f496e697469616c697a61626c653a20636f6e7472616374206973206e6f74206960448201527f6e697469616c697a696e6700000000000000000000000000000000000000000060648201526084016106bb565b6129d16129d9565b611475612a56565b600054610100900460ff166114755760405162461bcd60e51b815260206004820152602b60248201527f496e697469616c697a61626c653a20636f6e7472616374206973206e6f74206960448201527f6e697469616c697a696e6700000000000000000000000000000000000000000060648201526084016106bb565b600054610100900460ff16612ad35760405162461bcd60e51b815260206004820152602b60248201527f496e697469616c697a61626c653a20636f6e7472616374206973206e6f74206960448201527f6e697469616c697a696e6700000000000000000000000000000000000000000060648201526084016106bb565b611475612ade611f54565b6128ed565b8035610bc3816135fa565b600082601f830112612aff57600080fd5b8135602067ffffffffffffffff821115612b1b57612b1b6135c6565b8160051b612b2a8282016134d1565b838152828101908684018388018501891015612b4557600080fd5b600093505b85841015612b71578035612b5d816135fa565b835260019390930192918401918401612b4a565b50979650505050505050565b600082601f830112612b8e57600080fd5b813567ffffffffffffffff811115612ba857612ba86135c6565b612bbb6020601f19601f840116016134d1565b818152846020838601011115612bd057600080fd5b816020850160208301376000918101602001919091529392505050565b600060208284031215612bff57600080fd5b8135612c0a816135fa565b9392505050565b60008060008060008060c08789031215612c2a57600080fd5b8635612c35816135fa565b95506020870135945060408701359350606087013560ff81168114612c5957600080fd5b9598949750929560808101359460a0909101359350915050565b600080600080600060a08688031215612c8b57600080fd5b8535612c96816135fa565b94506020860135612ca6816135fa565b93506040860135612cb6816135fa565b92506060860135612cc6816135fa565b91506080860135612cd6816135fa565b809150509295509295909350565b60008060408385031215612cf757600080fd5b8235612d02816135fa565b91506020830135612d128161360f565b809150509250929050565b60008060408385031215612d3057600080fd5b8235612d3b816135fa565b946020939093013593505050565b600060208284031215612d5b57600080fd5b8151612c0a8161360f565b600060208284031215612d7857600080fd5b5035919050565b600060208284031215612d9157600080fd5b813567ffffffffffffffff80821115612da957600080fd5b908301906101e08286031215612dbe57600080fd5b612dc66134a7565b8235815260208301356020820152612de060408401612ae3565b6040820152612df160608401612ae3565b6060820152612e0260808401612ae3565b6080820152612e1360a08401612ae3565b60a0820152612e2460c08401612ae3565b60c082015260e083013560e08201526101008084013583811115612e4757600080fd5b612e5388828701612aee565b828401525050610120612e67818501612ae3565b908201526101408381013583811115612e7f57600080fd5b612e8b88828701612b7d565b828401525050610160612e9f818501612ae3565b908201526101808381013583811115612eb757600080fd5b612ec388828701612b7d565b8284015250506101a0915081830135828201526101c09150612ee6828401612ae3565b91810191909152949350505050565b60008060008060008060c08789031215612f0e57600080fd5b863595506020870135612f20816135fa565b94506040870135612f30816135fa565b93506060870135612f40816135fa565b92506080870135612f50816135fa565b8092505060a087013590509295509295509295565b600080600080600080600080610100898b031215612f8257600080fd5b883597506020890135612f94816135fa565b9650604089013595506060890135612fab816135fa565b94506080890135612fbb816135fa565b935060a0890135612fcb816135fa565b925060c0890135612fdb816135fa565b8092505060e089013590509295985092959890939650565b6000806040838503121561300657600080fd5b50508035926020909101359150565b600080600080600060a0868803121561302d57600080fd5b85359450602086013593506040860135613046816135fa565b92506060860135613056816135fa565b949793965091946080013592915050565b600080600080600060a0868803121561307f57600080fd5b85359450602086013593506040860135613098816135fa565b9250606086013591506080860135612cd6816135fa565b600080600080600080600080610100898b0312156130cc57600080fd5b883597506020890135965060408901356130e5816135fa565b95506060890135945060808901356130fc816135fa565b935060a089013561310c816135fa565b925060c089013567ffffffffffffffff81111561312857600080fd5b6131348b828c01612b7d565b92505060e089013590509295985092959890939650565b6000806000806000806000806000806101208b8d03121561316b57600080fd5b8a35995060208b013567ffffffffffffffff8082111561318a57600080fd5b818d0191508d601f83011261319e57600080fd5b8135818111156131ad57600080fd5b8e60208285010111156131bf57600080fd5b602083019b50809a505050506131d760408c01612ae3565b965060608b013595506131ec60808c01612ae3565b94506131fa60a08c01612ae3565b935061320860c08c01612ae3565b925061321660e08c01612ae3565b91506101008b013590509295989b9194979a5092959850565b600081518084526020808501945080840160005b838110156132685781516001600160a01b031687529582019590820190600101613243565b509495945050505050565b6000815180845261328b816020860160208601613531565b601f01601f19169290920160200192915050565b600082516132b1818460208701613531565b9190910192915050565b6001600160a01b0386811682528581166020830152604082018590528316606082015260a081016132eb836135dc565b8260808301529695505050505050565b60006001600160a01b03808816835286602084015280861660408401525060a0606083015261332d60a0830185613273565b90508260808301529695505050505050565b6080815260006133526080830187613273565b6001600160a01b0395861660208401529390941660408201526060015292915050565b60208101613382836135dc565b91905290565b602081526000612c0a6020830184613273565b60208152815160208201526020820151604082015260408201516060820152600060608301516133d660808401826001600160a01b03169052565b50608083015160a083015260a08301516133fb60c08401826001600160a01b03169052565b5060c08301516101808060e08501526134186101a085018361322f565b915060e0850151610100613436818701836001600160a01b03169052565b80870151915050601f196101208187860301818801526134568584613273565b945080880151925050610140613476818801846001600160a01b03169052565b808801519250506101608187860301818801526134938584613273565b970151959092019490945250929392505050565b6040516101e0810167ffffffffffffffff811182821017156134cb576134cb6135c6565b60405290565b604051601f8201601f1916810167ffffffffffffffff811182821017156134fa576134fa6135c6565b604052919050565b600082198211156135155761351561359a565b500190565b60008282101561352c5761352c61359a565b500390565b60005b8381101561354c578181015183820152602001613534565b8381111561355b576000848401525b50505050565b60007fffffffffffffffffffffffffffffffffffffffffffffffffffffffffffffffff8214156135935761359361359a565b5060010190565b634e487b7160e01b600052601160045260246000fd5b634e487b7160e01b600052602160045260246000fd5b634e487b7160e01b600052604160045260246000fd5b60038110611ce957634e487b7160e01b600052602160045260246000fd5b6001600160a01b0381168114611ce957600080fd5b8015158114611ce957600080fdfe6d696e7453796e746865746963546f6b656e2875696e743235362c627974657333322c616464726573732c75696e743235362c75696e743235362c6164647265737329a2646970667358221220f48a21489930acce0a53b914e3638e6f9d032b6218012b302a3246ab7fbf3dae64736f6c63430008070033",
    "linkReferences": {},
    "deployedLinkReferences": {}
}