{
    "_format": "hh-sol-artifact-1",
    "contractName": "Portal",
    "sourceName": "contracts/synth-core/Portal.sol",
    "abi": [
        {
            "anonymous": false,
            "inputs": [
                {
                    "indexed": true,
                    "internalType": "bytes32",
                    "name": "id",
                    "type": "bytes32"
                },
                {
                    "indexed": true,
                    "internalType": "address",
                    "name": "to",
                    "type": "address"
                },
                {
                    "indexed": false,
                    "internalType": "uint256",
                    "name": "amount",
                    "type": "uint256"
                },
                {
                    "indexed": false,
                    "internalType": "uint256",
                    "name": "bridgingFee",
                    "type": "uint256"
                },
                {
                    "indexed": false,
                    "internalType": "address",
                    "name": "token",
                    "type": "address"
                }
            ],
            "name": "BurnCompleted",
            "type": "event"
        },
        {
            "anonymous": false,
            "inputs": [
                {
                    "indexed": false,
                    "internalType": "bytes32",
                    "name": "requestId",
                    "type": "bytes32"
                },
                {
                    "indexed": true,
                    "internalType": "bytes32",
                    "name": "clientId",
                    "type": "bytes32"
                }
            ],
            "name": "ClientIdLog",
            "type": "event"
        },
        {
            "anonymous": false,
            "inputs": [
                {
                    "indexed": true,
                    "internalType": "bytes32",
                    "name": "id",
                    "type": "bytes32"
                },
                {
                    "indexed": true,
                    "internalType": "address",
                    "name": "to",
                    "type": "address"
                }
            ],
            "name": "MetaRevertRequest",
            "type": "event"
        },
        {
            "anonymous": false,
            "inputs": [
                {
                    "indexed": true,
                    "internalType": "address",
                    "name": "previousOwner",
                    "type": "address"
                },
                {
                    "indexed": true,
                    "internalType": "address",
                    "name": "newOwner",
                    "type": "address"
                }
            ],
            "name": "OwnershipTransferred",
            "type": "event"
        },
        {
            "anonymous": false,
            "inputs": [
                {
                    "indexed": false,
                    "internalType": "address",
                    "name": "account",
                    "type": "address"
                }
            ],
            "name": "Paused",
            "type": "event"
        },
        {
            "anonymous": false,
            "inputs": [
                {
                    "indexed": true,
                    "internalType": "bytes32",
                    "name": "id",
                    "type": "bytes32"
                },
                {
                    "indexed": true,
                    "internalType": "address",
                    "name": "to",
                    "type": "address"
                }
            ],
            "name": "RevertBurnRequest",
            "type": "event"
        },
        {
            "anonymous": false,
            "inputs": [
                {
                    "indexed": true,
                    "internalType": "bytes32",
                    "name": "id",
                    "type": "bytes32"
                },
                {
                    "indexed": true,
                    "internalType": "address",
                    "name": "to",
                    "type": "address"
                },
                {
                    "indexed": false,
                    "internalType": "uint256",
                    "name": "amount",
                    "type": "uint256"
                },
                {
                    "indexed": false,
                    "internalType": "uint256",
                    "name": "bridgingFee",
                    "type": "uint256"
                },
                {
                    "indexed": false,
                    "internalType": "address",
                    "name": "token",
                    "type": "address"
                }
            ],
            "name": "RevertSynthesizeCompleted",
            "type": "event"
        },
        {
            "anonymous": false,
            "inputs": [
                {
                    "indexed": false,
                    "internalType": "address",
                    "name": "metaRouter",
                    "type": "address"
                }
            ],
            "name": "SetMetaRouter",
            "type": "event"
        },
        {
            "anonymous": false,
            "inputs": [
                {
                    "indexed": false,
                    "internalType": "address",
                    "name": "token",
                    "type": "address"
                },
                {
                    "indexed": false,
                    "internalType": "uint256",
                    "name": "threshold",
                    "type": "uint256"
                }
            ],
            "name": "SetTokenThreshold",
            "type": "event"
        },
        {
            "anonymous": false,
            "inputs": [
                {
                    "indexed": false,
                    "internalType": "address",
                    "name": "token",
                    "type": "address"
                },
                {
                    "indexed": false,
                    "internalType": "bool",
                    "name": "activate",
                    "type": "bool"
                }
            ],
            "name": "SetWhitelistToken",
            "type": "event"
        },
        {
            "anonymous": false,
            "inputs": [
                {
                    "indexed": false,
                    "internalType": "bytes32",
                    "name": "id",
                    "type": "bytes32"
                },
                {
                    "indexed": true,
                    "internalType": "address",
                    "name": "from",
                    "type": "address"
                },
                {
                    "indexed": true,
                    "internalType": "uint256",
                    "name": "chainID",
                    "type": "uint256"
                },
                {
                    "indexed": true,
                    "internalType": "address",
                    "name": "revertableAddress",
                    "type": "address"
                },
                {
                    "indexed": false,
                    "internalType": "address",
                    "name": "to",
                    "type": "address"
                },
                {
                    "indexed": false,
                    "internalType": "uint256",
                    "name": "amount",
                    "type": "uint256"
                },
                {
                    "indexed": false,
                    "internalType": "address",
                    "name": "token",
                    "type": "address"
                }
            ],
            "name": "SynthesizeRequest",
            "type": "event"
        },
        {
            "anonymous": false,
            "inputs": [
                {
                    "indexed": false,
                    "internalType": "address",
                    "name": "account",
                    "type": "address"
                }
            ],
            "name": "Unpaused",
            "type": "event"
        },
        {
            "inputs": [
                {
                    "internalType": "address",
                    "name": "",
                    "type": "address"
                }
            ],
            "name": "balanceOf",
            "outputs": [
                {
                    "internalType": "uint256",
                    "name": "",
                    "type": "uint256"
                }
            ],
            "stateMutability": "view",
            "type": "function"
        },
        {
            "inputs": [],
            "name": "bridge",
            "outputs": [
                {
                    "internalType": "address",
                    "name": "",
                    "type": "address"
                }
            ],
            "stateMutability": "view",
            "type": "function"
        },
        {
            "inputs": [
                {
                    "internalType": "address",
                    "name": "_bridge",
                    "type": "address"
                },
                {
                    "internalType": "address",
                    "name": "_trustedForwarder",
                    "type": "address"
                },
                {
                    "internalType": "address",
                    "name": "_wrapper",
                    "type": "address"
                },
                {
                    "internalType": "address",
                    "name": "_whitelistedToken",
                    "type": "address"
                },
                {
                    "internalType": "contract IMetaRouter",
                    "name": "_metaRouter",
                    "type": "address"
                }
            ],
            "name": "initialize",
            "outputs": [],
            "stateMutability": "nonpayable",
            "type": "function"
        },
        {
            "inputs": [
                {
                    "internalType": "address",
                    "name": "forwarder",
                    "type": "address"
                }
            ],
            "name": "isTrustedForwarder",
            "outputs": [
                {
                    "internalType": "bool",
                    "name": "",
                    "type": "bool"
                }
            ],
            "stateMutability": "view",
            "type": "function"
        },
        {
            "inputs": [
                {
                    "components": [
                        {
                            "internalType": "uint256",
                            "name": "stableBridgingFee",
                            "type": "uint256"
                        },
                        {
                            "internalType": "bytes32",
                            "name": "internalID",
                            "type": "bytes32"
                        },
                        {
                            "internalType": "address",
                            "name": "receiveSide",
                            "type": "address"
                        },
                        {
                            "internalType": "address",
                            "name": "managerChainBridge",
                            "type": "address"
                        },
                        {
                            "internalType": "address",
                            "name": "sourceChainBridge",
                            "type": "address"
                        },
                        {
                            "internalType": "uint256",
                            "name": "managerChainId",
                            "type": "uint256"
                        },
                        {
                            "internalType": "uint256",
                            "name": "sourceChainId",
                            "type": "uint256"
                        },
                        {
                            "internalType": "address",
                            "name": "router",
                            "type": "address"
                        },
                        {
                            "internalType": "bytes",
                            "name": "swapCalldata",
                            "type": "bytes"
                        },
                        {
                            "internalType": "address",
                            "name": "sourceChainSynthesis",
                            "type": "address"
                        },
                        {
                            "internalType": "address",
                            "name": "burnToken",
                            "type": "address"
                        },
                        {
                            "internalType": "bytes",
                            "name": "burnCalldata",
                            "type": "bytes"
                        },
                        {
                            "internalType": "bytes32",
                            "name": "clientID",
                            "type": "bytes32"
                        }
                    ],
                    "internalType": "struct MetaRouteStructs.MetaRevertTransaction",
                    "name": "_metaRevertTransaction",
                    "type": "tuple"
                }
            ],
            "name": "metaRevertRequest",
            "outputs": [],
            "stateMutability": "nonpayable",
            "type": "function"
        },
        {
            "inputs": [],
            "name": "metaRouter",
            "outputs": [
                {
                    "internalType": "contract IMetaRouter",
                    "name": "",
                    "type": "address"
                }
            ],
            "stateMutability": "view",
            "type": "function"
        },
        {
            "inputs": [
                {
                    "components": [
                        {
                            "internalType": "uint256",
                            "name": "stableBridgingFee",
                            "type": "uint256"
                        },
                        {
                            "internalType": "uint256",
                            "name": "amount",
                            "type": "uint256"
                        },
                        {
                            "internalType": "address",
                            "name": "rtoken",
                            "type": "address"
                        },
                        {
                            "internalType": "address",
                            "name": "chain2address",
                            "type": "address"
                        },
                        {
                            "internalType": "address",
                            "name": "receiveSide",
                            "type": "address"
                        },
                        {
                            "internalType": "address",
                            "name": "oppositeBridge",
                            "type": "address"
                        },
                        {
                            "internalType": "address",
                            "name": "syntCaller",
                            "type": "address"
                        },
                        {
                            "internalType": "uint256",
                            "name": "chainID",
                            "type": "uint256"
                        },
                        {
                            "internalType": "address[]",
                            "name": "swapTokens",
                            "type": "address[]"
                        },
                        {
                            "internalType": "address",
                            "name": "secondDexRouter",
                            "type": "address"
                        },
                        {
                            "internalType": "bytes",
                            "name": "secondSwapCalldata",
                            "type": "bytes"
                        },
                        {
                            "internalType": "address",
                            "name": "finalReceiveSide",
                            "type": "address"
                        },
                        {
                            "internalType": "bytes",
                            "name": "finalCalldata",
                            "type": "bytes"
                        },
                        {
                            "internalType": "uint256",
                            "name": "finalOffset",
                            "type": "uint256"
                        },
                        {
                            "internalType": "address",
                            "name": "revertableAddress",
                            "type": "address"
                        },
                        {
                            "internalType": "bytes32",
                            "name": "clientID",
                            "type": "bytes32"
                        }
                    ],
                    "internalType": "struct MetaRouteStructs.MetaSynthesizeTransaction",
                    "name": "_metaSynthesizeTransaction",
                    "type": "tuple"
                }
            ],
            "name": "metaSynthesize",
            "outputs": [
                {
                    "internalType": "bytes32",
                    "name": "",
                    "type": "bytes32"
                }
            ],
            "stateMutability": "nonpayable",
            "type": "function"
        },
        {
            "inputs": [
                {
                    "internalType": "uint256",
                    "name": "_stableBridgingFee",
                    "type": "uint256"
                },
                {
                    "internalType": "bytes32",
                    "name": "_externalID",
                    "type": "bytes32"
                },
                {
                    "internalType": "address",
                    "name": "_to",
                    "type": "address"
                },
                {
                    "internalType": "uint256",
                    "name": "_amount",
                    "type": "uint256"
                },
                {
                    "internalType": "address",
                    "name": "_rToken",
                    "type": "address"
                },
                {
                    "internalType": "address",
                    "name": "_finalReceiveSide",
                    "type": "address"
                },
                {
                    "internalType": "bytes",
                    "name": "_finalCalldata",
                    "type": "bytes"
                },
                {
                    "internalType": "uint256",
                    "name": "_finalOffset",
                    "type": "uint256"
                }
            ],
            "name": "metaUnsynthesize",
            "outputs": [],
            "stateMutability": "nonpayable",
            "type": "function"
        },
        {
            "inputs": [],
            "name": "owner",
            "outputs": [
                {
                    "internalType": "address",
                    "name": "",
                    "type": "address"
                }
            ],
            "stateMutability": "view",
            "type": "function"
        },
        {
            "inputs": [],
            "name": "pause",
            "outputs": [],
            "stateMutability": "nonpayable",
            "type": "function"
        },
        {
            "inputs": [],
            "name": "paused",
            "outputs": [
                {
                    "internalType": "bool",
                    "name": "",
                    "type": "bool"
                }
            ],
            "stateMutability": "view",
            "type": "function"
        },
        {
            "inputs": [],
            "name": "renounceOwnership",
            "outputs": [],
            "stateMutability": "nonpayable",
            "type": "function"
        },
        {
            "inputs": [],
            "name": "requestCount",
            "outputs": [
                {
                    "internalType": "uint256",
                    "name": "",
                    "type": "uint256"
                }
            ],
            "stateMutability": "view",
            "type": "function"
        },
        {
            "inputs": [
                {
                    "internalType": "bytes32",
                    "name": "",
                    "type": "bytes32"
                }
            ],
            "name": "requests",
            "outputs": [
                {
                    "internalType": "address",
                    "name": "recipient",
                    "type": "address"
                },
                {
                    "internalType": "address",
                    "name": "chain2address",
                    "type": "address"
                },
                {
                    "internalType": "uint256",
                    "name": "amount",
                    "type": "uint256"
                },
                {
                    "internalType": "address",
                    "name": "rtoken",
                    "type": "address"
                },
                {
                    "internalType": "enum Portal.RequestState",
                    "name": "state",
                    "type": "uint8"
                }
            ],
            "stateMutability": "view",
            "type": "function"
        },
        {
            "inputs": [
                {
                    "internalType": "uint256",
                    "name": "_stableBridgingFee",
                    "type": "uint256"
                },
                {
                    "internalType": "bytes32",
                    "name": "_internalID",
                    "type": "bytes32"
                },
                {
                    "internalType": "address",
                    "name": "_receiveSide",
                    "type": "address"
                },
                {
                    "internalType": "address",
                    "name": "_oppositeBridge",
                    "type": "address"
                },
                {
                    "internalType": "uint256",
                    "name": "_chainId",
                    "type": "uint256"
                },
                {
                    "internalType": "bytes32",
                    "name": "_clientID",
                    "type": "bytes32"
                }
            ],
            "name": "revertBurnRequest",
            "outputs": [],
            "stateMutability": "nonpayable",
            "type": "function"
        },
        {
            "inputs": [
                {
                    "internalType": "uint256",
                    "name": "_stableBridgingFee",
                    "type": "uint256"
                },
                {
                    "internalType": "bytes32",
                    "name": "_externalID",
                    "type": "bytes32"
                }
            ],
            "name": "revertSynthesize",
            "outputs": [],
            "stateMutability": "nonpayable",
            "type": "function"
        },
        {
            "inputs": [
                {
                    "internalType": "contract IMetaRouter",
                    "name": "_metaRouter",
                    "type": "address"
                }
            ],
            "name": "setMetaRouter",
            "outputs": [],
            "stateMutability": "nonpayable",
            "type": "function"
        },
        {
            "inputs": [
                {
                    "internalType": "address",
                    "name": "_token",
                    "type": "address"
                },
                {
                    "internalType": "uint256",
                    "name": "_threshold",
                    "type": "uint256"
                }
            ],
            "name": "setTokenThreshold",
            "outputs": [],
            "stateMutability": "nonpayable",
            "type": "function"
        },
        {
            "inputs": [
                {
                    "internalType": "address",
                    "name": "_token",
                    "type": "address"
                },
                {
                    "internalType": "bool",
                    "name": "_activate",
                    "type": "bool"
                }
            ],
            "name": "setWhitelistToken",
            "outputs": [],
            "stateMutability": "nonpayable",
            "type": "function"
        },
        {
            "inputs": [
                {
                    "internalType": "uint256",
                    "name": "_stableBridgingFee",
                    "type": "uint256"
                },
                {
                    "internalType": "address",
                    "name": "_token",
                    "type": "address"
                },
                {
                    "internalType": "uint256",
                    "name": "_amount",
                    "type": "uint256"
                },
                {
                    "internalType": "address",
                    "name": "_chain2address",
                    "type": "address"
                },
                {
                    "internalType": "address",
                    "name": "_receiveSide",
                    "type": "address"
                },
                {
                    "internalType": "address",
                    "name": "_oppositeBridge",
                    "type": "address"
                },
                {
                    "internalType": "address",
                    "name": "_revertableAddress",
                    "type": "address"
                },
                {
                    "internalType": "uint256",
                    "name": "_chainID",
                    "type": "uint256"
                },
                {
                    "internalType": "bytes32",
                    "name": "_clientID",
                    "type": "bytes32"
                }
            ],
            "name": "synthesize",
            "outputs": [
                {
                    "internalType": "bytes32",
                    "name": "",
                    "type": "bytes32"
                }
            ],
            "stateMutability": "nonpayable",
            "type": "function"
        },
        {
            "inputs": [
                {
                    "internalType": "uint256",
                    "name": "_stableBridgingFee",
                    "type": "uint256"
                },
                {
                    "internalType": "address",
                    "name": "_chain2address",
                    "type": "address"
                },
                {
                    "internalType": "address",
                    "name": "_receiveSide",
                    "type": "address"
                },
                {
                    "internalType": "address",
                    "name": "_oppositeBridge",
                    "type": "address"
                },
                {
                    "internalType": "address",
                    "name": "_revertableAddress",
                    "type": "address"
                },
                {
                    "internalType": "uint256",
                    "name": "_chainID",
                    "type": "uint256"
                },
                {
                    "internalType": "bytes32",
                    "name": "_clientID",
                    "type": "bytes32"
                }
            ],
            "name": "synthesizeNative",
            "outputs": [
                {
                    "internalType": "bytes32",
                    "name": "",
                    "type": "bytes32"
                }
            ],
            "stateMutability": "payable",
            "type": "function"
        },
        {
            "inputs": [
                {
                    "components": [
                        {
                            "internalType": "uint256",
                            "name": "stableBridgingFee",
                            "type": "uint256"
                        },
                        {
                            "internalType": "bytes",
                            "name": "approvalData",
                            "type": "bytes"
                        },
                        {
                            "internalType": "address",
                            "name": "token",
                            "type": "address"
                        },
                        {
                            "internalType": "uint256",
                            "name": "amount",
                            "type": "uint256"
                        },
                        {
                            "internalType": "address",
                            "name": "chain2address",
                            "type": "address"
                        },
                        {
                            "internalType": "address",
                            "name": "receiveSide",
                            "type": "address"
                        },
                        {
                            "internalType": "address",
                            "name": "oppositeBridge",
                            "type": "address"
                        },
                        {
                            "internalType": "address",
                            "name": "revertableAddress",
                            "type": "address"
                        },
                        {
                            "internalType": "uint256",
                            "name": "chainID",
                            "type": "uint256"
                        },
                        {
                            "internalType": "bytes32",
                            "name": "clientID",
                            "type": "bytes32"
                        }
                    ],
                    "internalType": "struct Portal.SynthesizeWithPermitTransaction",
                    "name": "_syntWithPermitTx",
                    "type": "tuple"
                }
            ],
            "name": "synthesizeWithPermit",
            "outputs": [
                {
                    "internalType": "bytes32",
                    "name": "",
                    "type": "bytes32"
                }
            ],
            "stateMutability": "nonpayable",
            "type": "function"
        },
        {
            "inputs": [
                {
                    "internalType": "address",
                    "name": "",
                    "type": "address"
                }
            ],
            "name": "tokenThreshold",
            "outputs": [
                {
                    "internalType": "uint256",
                    "name": "",
                    "type": "uint256"
                }
            ],
            "stateMutability": "view",
            "type": "function"
        },
        {
            "inputs": [
                {
                    "internalType": "address",
                    "name": "",
                    "type": "address"
                }
            ],
            "name": "tokenWhitelist",
            "outputs": [
                {
                    "internalType": "bool",
                    "name": "",
                    "type": "bool"
                }
            ],
            "stateMutability": "view",
            "type": "function"
        },
        {
            "inputs": [
                {
                    "internalType": "address",
                    "name": "newOwner",
                    "type": "address"
                }
            ],
            "name": "transferOwnership",
            "outputs": [],
            "stateMutability": "nonpayable",
            "type": "function"
        },
        {
            "inputs": [],
            "name": "unpause",
            "outputs": [],
            "stateMutability": "nonpayable",
            "type": "function"
        },
        {
            "inputs": [
                {
                    "internalType": "uint256",
                    "name": "_stableBridgingFee",
                    "type": "uint256"
                },
                {
                    "internalType": "bytes32",
                    "name": "_externalID",
                    "type": "bytes32"
                },
                {
                    "internalType": "address",
                    "name": "_token",
                    "type": "address"
                },
                {
                    "internalType": "uint256",
                    "name": "_amount",
                    "type": "uint256"
                },
                {
                    "internalType": "address",
                    "name": "_to",
                    "type": "address"
                }
            ],
            "name": "unsynthesize",
            "outputs": [],
            "stateMutability": "nonpayable",
            "type": "function"
        },
        {
            "inputs": [
                {
                    "internalType": "bytes32",
                    "name": "",
                    "type": "bytes32"
                }
            ],
            "name": "unsynthesizeStates",
            "outputs": [
                {
                    "internalType": "enum Portal.UnsynthesizeState",
                    "name": "",
                    "type": "uint8"
                }
            ],
            "stateMutability": "view",
            "type": "function"
        },
        {
            "inputs": [],
            "name": "versionRecipient",
            "outputs": [
                {
                    "internalType": "string",
                    "name": "",
                    "type": "string"
                }
            ],
            "stateMutability": "pure",
            "type": "function"
        },
        {
            "inputs": [],
            "name": "wrapper",
            "outputs": [
                {
                    "internalType": "address",
                    "name": "",
                    "type": "address"
                }
            ],
            "stateMutability": "view",
            "type": "function"
        }
    ],
    "bytecode": "0x608060405234801561001057600080fd5b50614165806100206000396000f3fe6080604052600436106101cd5760003560e01c80638456cb59116100f7578063ce654c1711610095578063f2fde38b11610064578063f2fde38b146105bc578063fab92894146105dc578063fb7c7c2a14610619578063fce633c21461063957600080fd5b8063ce654c171461053c578063dbec15bb1461055c578063e78cea921461057c578063eadd5c341461059c57600080fd5b80639d866985116100d15780639d86698514610470578063ac210cc7146104dc578063b1659a3c146104fc578063c42a28941461051c57600080fd5b80638456cb59146104095780638bb398021461041e5780638da5cb5b1461043e57600080fd5b8063572b6c051161016f57806370a082311161013e57806370a0823114610377578063715018a6146103a4578063753d7563146103b95780637c374f99146103e957600080fd5b8063572b6c05146102db5780635badbe4c1461031a5780635c975abb14610330578063687752781461034a57600080fd5b8063316784f5116101ab578063316784f51461023a5780633f4ba83a1461025a578063486ff0cd1461026f5780634afbb9f1146102bb57600080fd5b806308759e9b146101d25780631459457a146101f45780632816f4db14610214575b600080fd5b3480156101de57600080fd5b506101f26101ed366004613a31565b610659565b005b34801561020057600080fd5b506101f261020f36600461344a565b610908565b6102276102223660046138fd565b610a8b565b6040519081526020015b60405180910390f35b34801561024657600080fd5b506101f2610255366004613ad5565b610c38565b34801561026657600080fd5b506101f2610f3a565b34801561027b57600080fd5b50604080518082018252600581527f322e302e31000000000000000000000000000000000000000000000000000000602082015290516102319190613cd2565b3480156102c757600080fd5b506101f26102d6366004613a8d565b611003565b3480156102e757600080fd5b5061030a6102f63660046133c0565b6065546001600160a01b0391821691161490565b6040519015158152602001610231565b34801561032657600080fd5b5061022760685481565b34801561033c57600080fd5b5060695461030a9060ff1681565b34801561035657600080fd5b506102276103653660046133c0565b606d6020526000908152604090205481565b34801561038357600080fd5b506102276103923660046133c0565b606c6020526000908152604090205481565b3480156103b057600080fd5b506101f261121b565b3480156103c557600080fd5b5061030a6103d43660046133c0565b606e6020526000908152604090205460ff1681565b3480156103f557600080fd5b506101f26104043660046134bb565b6112a0565b34801561041557600080fd5b506101f261137d565b34801561042a57600080fd5b506101f26104393660046134f4565b61142c565b34801561044a57600080fd5b506033546001600160a01b03165b6040516001600160a01b039091168152602001610231565b34801561047c57600080fd5b506104cb61048b36600461353d565b606a6020526000908152604090208054600182015460028301546003909301546001600160a01b039283169391831692811690600160a01b900460ff1685565b604051610231959493929190613bfd565b3480156104e857600080fd5b50606654610458906001600160a01b031681565b34801561050857600080fd5b50610227610517366004613977565b6114f6565b34801561052857600080fd5b506101f2610537366004613a0f565b61163d565b34801561054857600080fd5b5061022761055736600461368b565b6118be565b34801561056857600080fd5b50606f54610458906001600160a01b031681565b34801561058857600080fd5b50606754610458906001600160a01b031681565b3480156105a857600080fd5b506101f26105b73660046133c0565b611a0a565b3480156105c857600080fd5b506101f26105d73660046133c0565b611b60565b3480156105e857600080fd5b5061060c6105f736600461353d565b606b6020526000908152604090205460ff1681565b6040516102319190613cbf565b34801561062557600080fd5b5061022761063436600461380e565b611c61565b34801561064557600080fd5b506101f2610654366004613556565b611ead565b60695460ff16156106a05760405162461bcd60e51b815260206004820152600c60248201526b14de5b588e881c185d5cd95960a21b60448201526064015b60405180910390fd5b600085306106ac61252c565b6040805160208101949094526bffffffffffffffffffffffff19606093841b811691850191909152911b16605482015246606882015260880160408051601f198184030181529190528051602090910120905060016000828152606b602052604090205460ff16600281111561072457610724613fa2565b141561077e5760405162461bcd60e51b8152602060048201526024808201527f53796d623a205265616c20746f6b656e7320616c7265616479207472616e7366604482015263195c995960e21b6064820152608401610697565b6000818152606b6020908152604091829020805460ff1916600217905581518083018352601b81527f7265766572744275726e2875696e743235362c62797465733332290000000000908201528151602481018a90526044808201859052835180830390910181526064909101835290810180516001600160e01b03167ff70519ae000000000000000000000000000000000000000000000000000000001790526067549151633675e4e160e11b815290916001600160a01b031690636cebc9c2906108549084908a908a908a90600401613c89565b600060405180830381600087803b15801561086e57600080fd5b505af1158015610882573d6000803e3d6000fd5b505050505061088f61252c565b6001600160a01b0316867f40590cc12db0488520ce425059f83f8caed91bdf98de5ff829dc57c63843161b60405160405180910390a3817f5a297b2c9a9f94a0f4e5a796c74ad38e219d1185fccf5f79c18726a830c2b6f5876040516108f791815260200190565b60405180910390a250505050505050565b600054610100900460ff166109235760005460ff1615610927565b303b155b6109995760405162461bcd60e51b815260206004820152602e60248201527f496e697469616c697a61626c653a20636f6e747261637420697320616c72656160448201527f647920696e697469616c697a65640000000000000000000000000000000000006064820152608401610697565b600054610100900460ff161580156109d857600080547fffffffffffffffffffffffffffffffffffffffffffffffffffffffffffff0000166101011790555b6109e185612572565b606780546001600160a01b0380891673ffffffffffffffffffffffffffffffffffffffff199283161790925560668054878416908316179055606f80548584169216919091179055831615610a54576001600160a01b0383166000908152606e60205260409020805460ff191660011790555b8015610a8357600080547fffffffffffffffffffffffffffffffffffffffffffffffffffffffffffff00ff1690555b505050505050565b60695460009060ff1615610ad05760405162461bcd60e51b815260206004820152600c60248201526b14de5b588e881c185d5cd95960a21b6044820152606401610697565b6066546001600160a01b03166000908152606e602052604090205460ff16610b3a5760405162461bcd60e51b815260206004820152601860248201527f53796d623a20756e617574686f72697a656420746f6b656e00000000000000006044820152606401610697565b6066546001600160a01b03166000908152606d6020526040902054341015610ba45760405162461bcd60e51b815260206004820152601c60248201527f53796d623a20616d6f756e7420756e646572207468726573686f6c64000000006044820152606401610697565b606660009054906101000a90046001600160a01b03166001600160a01b031663d0e30db0346040518263ffffffff1660e01b81526004016000604051808303818588803b158015610bf457600080fd5b505af1158015610c08573d6000803e3d6000fd5b5050606654610c2c93508b92506001600160a01b03169050348a8a8a8a8a8a612614565b98975050505050505050565b6067546001600160a01b03163314610c925760405162461bcd60e51b815260206004820152601e60248201527f53796d623a2063616c6c6572206973206e6f74207468652062726964676500006044820152606401610697565b60695460ff1615610cd45760405162461bcd60e51b815260206004820152600c60248201526b14de5b588e881c185d5cd95960a21b6044820152606401610697565b6000878152606b602052604081205460ff166002811115610cf757610cf7613fa2565b14610d6a5760405162461bcd60e51b815260206004820152602660248201527f53796d623a2073796e74686574696320746f6b656e7320656d657267656e637960448201527f556e6275726e00000000000000000000000000000000000000000000000000006064820152608401610697565b6001600160a01b0384166000908152606c6020526040902054610d8e908690613f0c565b6001600160a01b038581166000908152606c60209081526040808320949094558a8252606b905291909120805460ff19166001179055606754610dd4918691168a6129cd565b610dde8886613f0c565b9450815160001415610e4657610df58487876129cd565b60408051868152602081018a90526001600160a01b038616818301529051309189917fd31ae0a5fc46ab05b27d837efddb13837db6eb85442f9b1d3f609bf1552f3f4f9181900360600190a3610f30565b606f54610e5e9085906001600160a01b0316876129cd565b606f546040517ff5b697a50000000000000000000000000000000000000000000000000000000081526001600160a01b039091169063f5b697a590610eb190879089908890889088908e90600401613c3d565b600060405180830381600087803b158015610ecb57600080fd5b505af1158015610edf573d6000803e3d6000fd5b505060408051888152602081018c90526001600160a01b0388168183015290513093508a92507fd31ae0a5fc46ab05b27d837efddb13837db6eb85442f9b1d3f609bf1552f3f4f9181900360600190a35b5050505050505050565b610f4261252c565b6001600160a01b0316610f5d6033546001600160a01b031690565b6001600160a01b031614610fb35760405162461bcd60e51b815260206004820181905260248201527f4f776e61626c653a2063616c6c6572206973206e6f7420746865206f776e65726044820152606401610697565b6069805460ff191690557f5db9ee0a495bf2e6ff9c91a7834c1ba4fdd244a5e8aa4e537bd38aeae4b073aa610fe661252c565b6040516001600160a01b03909116815260200160405180910390a1565b6067546001600160a01b0316331461105d5760405162461bcd60e51b815260206004820152601e60248201527f53796d623a2063616c6c6572206973206e6f74207468652062726964676500006044820152606401610697565b60695460ff161561109f5760405162461bcd60e51b815260206004820152600c60248201526b14de5b588e881c185d5cd95960a21b6044820152606401610697565b6000848152606b602052604081205460ff1660028111156110c2576110c2613fa2565b146111355760405162461bcd60e51b815260206004820152602660248201527f53796d623a2073796e74686574696320746f6b656e7320656d657267656e637960448201527f556e6275726e00000000000000000000000000000000000000000000000000006064820152608401610697565b6001600160a01b0383166000908152606c6020526040902054611159908390613f0c565b6001600160a01b0384166000908152606c6020908152604080832093909355868252606b905220805460ff1916600117905561119f838261119a8886613f0c565b6129cd565b6067546111b79084906001600160a01b0316876129cd565b6001600160a01b038116847fd31ae0a5fc46ab05b27d837efddb13837db6eb85442f9b1d3f609bf1552f3f4f6111ed8886613f0c565b60408051918252602082018a90526001600160a01b0388169082015260600160405180910390a35050505050565b61122361252c565b6001600160a01b031661123e6033546001600160a01b031690565b6001600160a01b0316146112945760405162461bcd60e51b815260206004820181905260248201527f4f776e61626c653a2063616c6c6572206973206e6f7420746865206f776e65726044820152606401610697565b61129e6000612b27565b565b6112a861252c565b6001600160a01b03166112c36033546001600160a01b031690565b6001600160a01b0316146113195760405162461bcd60e51b815260206004820181905260248201527f4f776e61626c653a2063616c6c6572206973206e6f7420746865206f776e65726044820152606401610697565b6001600160a01b0382166000818152606e6020908152604091829020805460ff19168515159081179091558251938452908301527f0a4552f1105808db6a44587c9ef0a7c4064bf620b9d843b514ad7365bd52239a91015b60405180910390a15050565b61138561252c565b6001600160a01b03166113a06033546001600160a01b031690565b6001600160a01b0316146113f65760405162461bcd60e51b815260206004820181905260248201527f4f776e61626c653a2063616c6c6572206973206e6f7420746865206f776e65726044820152606401610697565b6069805460ff191660011790557f62e78cea01bee320cd4e420270b5ea74000d11b0c9f74754ebdbfc544b05a258610fe661252c565b61143461252c565b6001600160a01b031661144f6033546001600160a01b031690565b6001600160a01b0316146114a55760405162461bcd60e51b815260206004820181905260248201527f4f776e61626c653a2063616c6c6572206973206e6f7420746865206f776e65726044820152606401610697565b6001600160a01b0382166000818152606d6020908152604091829020849055815192835282018390527fa6742efd4f410d6fd9688a6cf6a15b6d51121097a263056a3576baaacdc4a9ae9101611371565b60695460009060ff161561153b5760405162461bcd60e51b815260206004820152600c60248201526b14de5b588e881c185d5cd95960a21b6044820152606401610697565b6001600160a01b0389166000908152606e602052604090205460ff166115a35760405162461bcd60e51b815260206004820152601860248201527f53796d623a20756e617574686f72697a656420746f6b656e00000000000000006044820152606401610697565b6001600160a01b0389166000908152606d602052604090205488101561160b5760405162461bcd60e51b815260206004820152601c60248201527f53796d623a20616d6f756e7420756e646572207468726573686f6c64000000006044820152606401610697565b61161e8961161761252c565b308b612b86565b61162f8a8a8a8a8a8a8a8a8a612614565b9a9950505050505050505050565b6067546001600160a01b031633146116975760405162461bcd60e51b815260206004820152601e60248201527f53796d623a2063616c6c6572206973206e6f74207468652062726964676500006044820152606401610697565b60695460ff16156116d95760405162461bcd60e51b815260206004820152600c60248201526b14de5b588e881c185d5cd95960a21b6044820152606401610697565b6000818152606a6020526040902060016003820154600160a01b900460ff16600281111561170957611709613fa2565b1461177c5760405162461bcd60e51b815260206004820152602960248201527f53796d623a207374617465206e6f74206f70656e206f7220747820646f65732060448201527f6e6f7420657869737400000000000000000000000000000000000000000000006064820152608401610697565b600381018054740200000000000000000000000000000000000000007fffffffffffffffffffffff00ffffffffffffffffffffffffffffffffffffffff82161790915560028201546001600160a01b039091166000908152606c60205260409020546117e89190613f0c565b6003820180546001600160a01b039081166000908152606c6020526040902092909255548254600284015461182b9392831692919091169061119a908790613f0c565b600381015460675461184a916001600160a01b039081169116856129cd565b805460028201546001600160a01b039091169083907fefcdf9ea4e65571d2ce9c030c46954e950662df8a7d8bd039fc4417e37b2f88c9061188c908790613f0c565b600385015460408051928352602083018990526001600160a01b039091169082015260600160405180910390a3505050565b60695460009060ff16156119035760405162461bcd60e51b815260206004820152600c60248201526b14de5b588e881c185d5cd95960a21b6044820152606401610697565b6040808301516001600160a01b03166000908152606e602052205460ff1661196d5760405162461bcd60e51b815260206004820152601860248201527f53796d623a20756e617574686f72697a656420746f6b656e00000000000000006044820152606401610697565b6040808301516001600160a01b03166000908152606d6020908152919020549083015110156119de5760405162461bcd60e51b815260206004820152601c60248201527f53796d623a20616d6f756e7420756e646572207468726573686f6c64000000006044820152606401610697565b6119f982604001516119ee61252c565b308560200151612b86565b611a0282612ce1565b90505b919050565b611a1261252c565b6001600160a01b0316611a2d6033546001600160a01b031690565b6001600160a01b031614611a835760405162461bcd60e51b815260206004820181905260248201527f4f776e61626c653a2063616c6c6572206973206e6f7420746865206f776e65726044820152606401610697565b6001600160a01b038116611aff5760405162461bcd60e51b815260206004820152602760248201527f53796d623a206d657461526f757465722063616e6e6f74206265207a65726f2060448201527f61646472657373000000000000000000000000000000000000000000000000006064820152608401610697565b606f805473ffffffffffffffffffffffffffffffffffffffff19166001600160a01b0383169081179091556040519081527fd5c54ab1d37bfef4dd2253d9d73c292e46f5bd8a67ca5920aab4c2e1993178e79060200160405180910390a150565b611b6861252c565b6001600160a01b0316611b836033546001600160a01b031690565b6001600160a01b031614611bd95760405162461bcd60e51b815260206004820181905260248201527f4f776e61626c653a2063616c6c6572206973206e6f7420746865206f776e65726044820152606401610697565b6001600160a01b038116611c555760405162461bcd60e51b815260206004820152602660248201527f4f776e61626c653a206e6577206f776e657220697320746865207a65726f206160448201527f64647265737300000000000000000000000000000000000000000000000000006064820152608401610697565b611c5e81612b27565b50565b60695460009060ff1615611ca65760405162461bcd60e51b815260206004820152600c60248201526b14de5b588e881c185d5cd95960a21b6044820152606401610697565b6040808301516001600160a01b03166000908152606e602052205460ff16611d105760405162461bcd60e51b815260206004820152601860248201527f53796d623a20756e617574686f72697a656420746f6b656e00000000000000006044820152606401610697565b6040808301516001600160a01b03166000908152606d602052205460608301511015611d7e5760405162461bcd60e51b815260206004820152601c60248201527f53796d623a20616d6f756e7420756e646572207468726573686f6c64000000006044820152606401610697565b6000806000806000808760200151806020019051810190611d9f91906133e4565b6040808f015190517fd505accf0000000000000000000000000000000000000000000000000000000081526001600160a01b038089166004830152306024830152604482018890526064820187905260ff8616608483015260a4820185905260c48201849052979d50959b5093995091975095509350919091169063d505accf9060e401600060405180830381600087803b158015611e3d57600080fd5b505af1158015611e51573d6000803e3d6000fd5b50505050505050505050611e768260400151611e6b61252c565b308560600151612b86565b611a0282600001518360400151846060015185608001518660a001518760c001518860e001518961010001518a6101200151612614565b60695460ff1615611eef5760405162461bcd60e51b815260206004820152600c60248201526b14de5b588e881c185d5cd95960a21b6044820152606401610697565b610100810151511561219b576000816020015130611f0b61252c565b6040805160208101949094526bffffffffffffffffffffffff19606093841b811691850191909152911b16605482015246606882015260880160408051601f198184030181529190528051602090910120905060016000828152606b602052604090205460ff166002811115611f8357611f83613fa2565b1415611fdd5760405162461bcd60e51b8152602060048201526024808201527f53796d623a205265616c20746f6b656e7320616c7265616479207472616e7366604482015263195c995960e21b6064820152608401610697565b6000818152606b60209081526040808320805460ff19166002179055805160808101909152604380825290916140aa90830139805190602001208360000151838560e001518661010001518761012001518861014001518961016001516040516024016120509796959493929190613df1565b60408051601f198184030181529181526020820180516001600160e01b03167fffffffff000000000000000000000000000000000000000000000000000000009094169390931790925260675485830151606087015160a08801519451633675e4e160e11b81529395506001600160a01b0390921693636cebc9c2936120dd938793929091600401613c89565b600060405180830381600087803b1580156120f757600080fd5b505af115801561210b573d6000803e3d6000fd5b5050505061211761252c565b6001600160a01b031683602001517f40590cc12db0488520ce425059f83f8caed91bdf98de5ff829dc57c63843161b60405160405180910390a38261018001517f5a297b2c9a9f94a0f4e5a796c74ad38e219d1185fccf5f79c18726a830c2b6f5846020015160405161218c91815260200190565b60405180910390a250506124e7565b61016081015151156123a05760008160200151306121b761252c565b6040805160208101949094526bffffffffffffffffffffffff19606093841b811691850191909152911b16605482015246606882015260880160408051601f198184030181529190528051602090910120905060016000828152606b602052604090205460ff16600281111561222f5761222f613fa2565b14156122895760405162461bcd60e51b8152602060048201526024808201527f53796d623a205265616c20746f6b656e7320616c7265616479207472616e7366604482015263195c995960e21b6064820152608401610697565b6000818152606b60209081526040808320805460ff19166002179055805160808101909152604280825290916140689083013980519060200120836000015183308660800151466122d861252c565b604051602481019690965260448601949094526001600160a01b039283166064860152908216608485015260a48401521660c482015260e40160408051601f198184030181529181526020820180516001600160e01b03167fffffffff0000000000000000000000000000000000000000000000000000000090941693909317909252606754610120860151606087015160a08801519451633675e4e160e11b81529395506001600160a01b0390921693636cebc9c2936120dd938793929091600401613c89565b600060405180608001604052806058815260200161401060589139805190602001208260000151836020015184604001518560800151466123df61252c565b610180890151604051602481019790975260448701959095526001600160a01b039384166064870152918316608486015260a48501521660c483015260e48201526101040160408051601f198184030181529181526020820180516001600160e01b03167fffffffff0000000000000000000000000000000000000000000000000000000090941693909317909252606754610120850151606086015160a08701519451633675e4e160e11b81529395506001600160a01b0390921693636cebc9c2936124b3938793929091600401613c89565b600060405180830381600087803b1580156124cd57600080fd5b505af11580156124e1573d6000803e3d6000fd5b50505050505b6124ef61252c565b6001600160a01b031681602001517fbd03c66ec5bd3d01fbf22bc794f68ac88b693023b438724019205a4b42aefb2060405160405180910390a350565b6065546000906001600160a01b031633141561256d57507fffffffffffffffffffffffffffffffffffffffffffffffffffffffffffffffec36013560601c90565b503390565b600054610100900460ff166125dd5760405162461bcd60e51b815260206004820152602b60248201527f496e697469616c697a61626c653a20636f6e7472616374206973206e6f74206960448201526a6e697469616c697a696e6760a81b6064820152608401610697565b6125e5613155565b6065805473ffffffffffffffffffffffffffffffffffffffff19166001600160a01b0392909216919091179055565b6001600160a01b0388166000908152606c6020526040812054612638908990613ef4565b6001600160a01b03808b166000908152606c6020526040902091909155841661265f578693505b6068546040516bffffffffffffffffffffffff193060601b166020820152603481019190915246605482015260740160408051601f1981840301815282825280516020918201209083018190526bffffffffffffffffffffffff1960608a811b8216938501939093529187901b909116605483015260688201859052915060009060880160405160208183030381529060405280519060200120905060006040518060800160405280604381526020016140ed604391398051602090910120604051602481018e9052604481018490526001600160a01b03808e16606483015246608483015260a482018d90528b1660c482015260e40160408051601f198184030181529181526020820180516001600160e01b03167fffffffff0000000000000000000000000000000000000000000000000000000090941693909317909252815160a081019092529150806127b461252c565b6001600160a01b0390811682528b81166020830152604082018d90528d166060820152608001600190526000838152606a60209081526040918290208351815473ffffffffffffffffffffffffffffffffffffffff199081166001600160a01b039283161783559285015160018301805485169183169190911790559284015160028083019190915560608501516003830180549485169190951690811785556080860151929492937fffffffffffffffffffffff000000000000000000000000000000000000000000161790600160a01b90849081111561289857612898613fa2565b02179055505060688054915060006128af83613f53565b9091555050606754604051633675e4e160e11b81526001600160a01b0390911690636cebc9c2906128ea9084908c908c908b90600401613c89565b600060405180830381600087803b15801561290457600080fd5b505af1158015612918573d6000803e3d6000fd5b505050505050836001600160a01b03168361293161252c565b604080518581526001600160a01b038c811660208301529181018d90528d821660608201529116907f31325fe0a1a2e6a5b1e41572156ba5b4e94f0fae7e7f63ec21e9b5ce1e4b3eab9060800160405180910390a4817f5a297b2c9a9f94a0f4e5a796c74ad38e219d1185fccf5f79c18726a830c2b6f5826040516129b891815260200190565b60405180910390a29998505050505050505050565b604080516001600160a01b038481166024830152604480830185905283518084039091018152606490920183526020820180516001600160e01b03167fa9059cbb000000000000000000000000000000000000000000000000000000001790529151600092839290871691612a429190613be1565b6000604051808303816000865af19150503d8060008114612a7f576040519150601f19603f3d011682016040523d82523d6000602084013e612a84565b606091505b5091509150818015612aae575080511580612aae575080806020019051810190612aae9190613520565b612b205760405162461bcd60e51b815260206004820152602d60248201527f5472616e7366657248656c7065723a3a736166655472616e736665723a20747260448201527f616e73666572206661696c6564000000000000000000000000000000000000006064820152608401610697565b5050505050565b603380546001600160a01b0383811673ffffffffffffffffffffffffffffffffffffffff19831681179093556040519116919082907f8be0079c531659141344cd1fd0a4f28419497f9722a3daafe3b4186f6b6457e090600090a35050565b604080516001600160a01b0385811660248301528481166044830152606480830185905283518084039091018152608490920183526020820180516001600160e01b03167f23b872dd000000000000000000000000000000000000000000000000000000001790529151600092839290881691612c039190613be1565b6000604051808303816000865af19150503d8060008114612c40576040519150601f19603f3d011682016040523d82523d6000602084013e612c45565b606091505b5091509150818015612c6f575080511580612c6f575080806020019051810190612c6f9190613520565b610a835760405162461bcd60e51b815260206004820152603160248201527f5472616e7366657248656c7065723a3a7472616e7366657246726f6d3a20747260448201527f616e7366657246726f6d206661696c65640000000000000000000000000000006064820152608401610697565b6020808201516040808401516001600160a01b03166000908152606c909352822054612d0d9190613ef4565b6040808401516001600160a01b039081166000908152606c60205291909120919091556101c083015116612d505760608201516001600160a01b03166101c08301525b6068546040516bffffffffffffffffffffffff193060601b166020820152603481019190915246605482015260740160408051601f19818403018152828252805160209182012060808601516101c087015160e08801519386018390526bffffffffffffffffffffffff19606092831b811695870195909552901b9092166054840152606883015291506000906088016040516020818303038152906040528051906020012090506000604051806101800160405280856000015181526020018560200151815260200183815260200185604001516001600160a01b0316815260200146815260200185606001516001600160a01b0316815260200185610100015181526020018561012001516001600160a01b0316815260200185610140015181526020018561016001516001600160a01b031681526020018561018001518152602001856101a001518152509050600081604051602401612eb39190613ce5565b60408051601f19818403018152918152602080830180516001600160e01b03167fd5f8fbcb00000000000000000000000000000000000000000000000000000000179052815160a08101835260c08901516001600160a01b0390811682526060808b0151821683850152928a015182850152928901519092169082015290915060808101600190526000848152606a60209081526040918290208351815473ffffffffffffffffffffffffffffffffffffffff199081166001600160a01b039283161783559285015160018301805485169183169190911790559284015160028083019190915560608501516003830180549485169190951690811785556080860151929492937fffffffffffffffffffffff000000000000000000000000000000000000000000161790600160a01b908490811115612ff557612ff5613fa2565b021790555050606880549150600061300c83613f53565b9091555050606754608086015160a087015160e0880151604051633675e4e160e11b81526001600160a01b0390941693636cebc9c2936130559387939192909190600401613c89565b600060405180830381600087803b15801561306f57600080fd5b505af1158015613083573d6000803e3d6000fd5b5050505050836101c001516001600160a01b03168460e001518560c001516001600160a01b03167f31325fe0a1a2e6a5b1e41572156ba5b4e94f0fae7e7f63ec21e9b5ce1e4b3eab86886060015189602001518a6040015160405161310d94939291909384526001600160a01b039283166020850152604084019190915216606082015260800190565b60405180910390a46101e08401516040518481527f5a297b2c9a9f94a0f4e5a796c74ad38e219d1185fccf5f79c18726a830c2b6f59060200160405180910390a25050919050565b600054610100900460ff166131c05760405162461bcd60e51b815260206004820152602b60248201527f496e697469616c697a61626c653a20636f6e7472616374206973206e6f74206960448201526a6e697469616c697a696e6760a81b6064820152608401610697565b6131c86131d0565b61129e61323b565b600054610100900460ff1661129e5760405162461bcd60e51b815260206004820152602b60248201527f496e697469616c697a61626c653a20636f6e7472616374206973206e6f74206960448201526a6e697469616c697a696e6760a81b6064820152608401610697565b600054610100900460ff166132a65760405162461bcd60e51b815260206004820152602b60248201527f496e697469616c697a61626c653a20636f6e7472616374206973206e6f74206960448201526a6e697469616c697a696e6760a81b6064820152608401610697565b61129e6132b161252c565b612b27565b8035611a0581613fec565b600082601f8301126132d257600080fd5b8135602067ffffffffffffffff8211156132ee576132ee613fb8565b8160051b6132fd828201613ec3565b83815282810190868401838801850189101561331857600080fd5b600093505b8584101561334457803561333081613fec565b83526001939093019291840191840161331d565b50979650505050505050565b600082601f83011261336157600080fd5b813567ffffffffffffffff81111561337b5761337b613fb8565b61338e6020601f19601f84011601613ec3565b8181528460208386010111156133a357600080fd5b816020850160208301376000918101602001919091529392505050565b6000602082840312156133d257600080fd5b81356133dd81613fec565b9392505050565b60008060008060008060c087890312156133fd57600080fd5b865161340881613fec565b809650506020870151945060408701519350606087015160ff8116811461342e57600080fd5b809350506080870151915060a087015190509295509295509295565b600080600080600060a0868803121561346257600080fd5b853561346d81613fec565b9450602086013561347d81613fec565b9350604086013561348d81613fec565b9250606086013561349d81613fec565b915060808601356134ad81613fec565b809150509295509295909350565b600080604083850312156134ce57600080fd5b82356134d981613fec565b915060208301356134e981614001565b809150509250929050565b6000806040838503121561350757600080fd5b823561351281613fec565b946020939093013593505050565b60006020828403121561353257600080fd5b81516133dd81614001565b60006020828403121561354f57600080fd5b5035919050565b60006020828403121561356857600080fd5b813567ffffffffffffffff8082111561358057600080fd5b908301906101a0828603121561359557600080fd5b61359d613e51565b82358152602083013560208201526135b7604084016132b6565b60408201526135c8606084016132b6565b60608201526135d9608084016132b6565b608082015260a083013560a082015260c083013560c08201526135fe60e084016132b6565b60e0820152610100808401358381111561361757600080fd5b61362388828701613350565b8284015250506101206136378185016132b6565b908201526101406136498482016132b6565b90820152610160838101358381111561366157600080fd5b61366d88828701613350565b91830191909152506101809283013592810192909252509392505050565b60006020828403121561369d57600080fd5b813567ffffffffffffffff808211156136b557600080fd5b9083019061020082860312156136ca57600080fd5b6136d2613e7b565b82358152602083013560208201526136ec604084016132b6565b60408201526136fd606084016132b6565b606082015261370e608084016132b6565b608082015261371f60a084016132b6565b60a082015261373060c084016132b6565b60c082015260e083013560e0820152610100808401358381111561375357600080fd5b61375f888287016132c1565b8284015250506101206137738185016132b6565b90820152610140838101358381111561378b57600080fd5b61379788828701613350565b8284015250506101606137ab8185016132b6565b9082015261018083810135838111156137c357600080fd5b6137cf88828701613350565b8284015250506101a0915081830135828201526101c091506137f28284016132b6565b918101919091526101e091820135918101919091529392505050565b60006020828403121561382057600080fd5b813567ffffffffffffffff8082111561383857600080fd5b90830190610140828603121561384d57600080fd5b613855613e9f565b8235815260208301358281111561386b57600080fd5b61387787828601613350565b602083015250613889604084016132b6565b6040820152606083013560608201526138a4608084016132b6565b60808201526138b560a084016132b6565b60a08201526138c660c084016132b6565b60c08201526138d760e084016132b6565b60e082015261010083810135908201526101209283013592810192909252509392505050565b600080600080600080600060e0888a03121561391857600080fd5b87359650602088013561392a81613fec565b9550604088013561393a81613fec565b9450606088013561394a81613fec565b9350608088013561395a81613fec565b9699959850939692959460a0840135945060c09093013592915050565b60008060008060008060008060006101208a8c03121561399657600080fd5b8935985060208a01356139a881613fec565b975060408a0135965060608a01356139bf81613fec565b955060808a01356139cf81613fec565b945060a08a01356139df81613fec565b935060c08a01356139ef81613fec565b8093505060e08a013591506101008a013590509295985092959850929598565b60008060408385031215613a2257600080fd5b50508035926020909101359150565b60008060008060008060c08789031215613a4a57600080fd5b86359550602087013594506040870135613a6381613fec565b93506060870135613a7381613fec565b9598949750929560808101359460a0909101359350915050565b600080600080600060a08688031215613aa557600080fd5b85359450602086013593506040860135613abe81613fec565b92506060860135915060808601356134ad81613fec565b600080600080600080600080610100898b031215613af257600080fd5b88359750602089013596506040890135613b0b81613fec565b9550606089013594506080890135613b2281613fec565b935060a0890135613b3281613fec565b925060c089013567ffffffffffffffff811115613b4e57600080fd5b613b5a8b828c01613350565b92505060e089013590509295985092959890939650565b600081518084526020808501945080840160005b83811015613baa5781516001600160a01b031687529582019590820190600101613b85565b509495945050505050565b60008151808452613bcd816020860160208601613f23565b601f01601f19169290920160200192915050565b60008251613bf3818460208701613f23565b9190910192915050565b6001600160a01b0386811682528581166020830152604082018590528316606082015260a08101613c2d83613fce565b8260808301529695505050505050565b60006001600160a01b038089168352876020840152808716604084015260c06060840152613c6e60c0840187613bb5565b60808401959095529290921660a09091015250949350505050565b608081526000613c9c6080830187613bb5565b6001600160a01b0395861660208401529390941660408201526060015292915050565b60208101613ccc83613fce565b91905290565b6020815260006133dd6020830184613bb5565b6020815281516020820152602082015160408201526040820151606082015260006060830151613d2060808401826001600160a01b03169052565b50608083015160a083015260a0830151613d4560c08401826001600160a01b03169052565b5060c08301516101808060e0850152613d626101a0850183613b71565b915060e0850151610100613d80818701836001600160a01b03169052565b80870151915050601f19610120818786030181880152613da08584613bb5565b945080880151925050610140613dc0818801846001600160a01b03169052565b80880151925050610160818786030181880152613ddd8584613bb5565b970151959092019490945250929392505050565b87815286602082015260006001600160a01b03808816604084015260e06060840152613e2060e0840188613bb5565b818716608085015281861660a085015283810360c0850152613e428186613bb5565b9b9a5050505050505050505050565b6040516101a0810167ffffffffffffffff81118282101715613e7557613e75613fb8565b60405290565b604051610200810167ffffffffffffffff81118282101715613e7557613e75613fb8565b604051610140810167ffffffffffffffff81118282101715613e7557613e75613fb8565b604051601f8201601f1916810167ffffffffffffffff81118282101715613eec57613eec613fb8565b604052919050565b60008219821115613f0757613f07613f8c565b500190565b600082821015613f1e57613f1e613f8c565b500390565b60005b83811015613f3e578181015183820152602001613f26565b83811115613f4d576000848401525b50505050565b60007fffffffffffffffffffffffffffffffffffffffffffffffffffffffffffffffff821415613f8557613f85613f8c565b5060010190565b634e487b7160e01b600052601160045260246000fd5b634e487b7160e01b600052602160045260246000fd5b634e487b7160e01b600052604160045260246000fd5b60038110611c5e57634e487b7160e01b600052602160045260246000fd5b6001600160a01b0381168114611c5e57600080fd5b8015158114611c5e57600080fdfe72657665727453796e74686573697a655265717565737442794272696467652875696e743235362c627974657333322c616464726573732c616464726573732c75696e743235362c616464726573732c62797465733332297265766572744275726e416e644275726e2875696e743235362c627974657333322c616464726573732c616464726573732c75696e743235362c61646472657373297265766572744d6574614275726e2875696e743235362c627974657333322c616464726573732c62797465732c616464726573732c616464726573732c6279746573296d696e7453796e746865746963546f6b656e2875696e743235362c627974657333322c616464726573732c75696e743235362c75696e743235362c6164647265737329a26469706673582212203344cdedbe98812a73c327da8d477a31b772a8130f1dfb966e3f0f70c40693dc64736f6c63430008070033",
    "linkReferences": {},
    "deployedLinkReferences": {}
}