{
    "_format": "hh-sol-artifact-1",
    "contractName": "Portal",
    "sourceName": "contracts/synth-core/Portal.sol",
    "abi": [
        {
            "anonymous": false,
            "inputs": [
                {
                    "indexed": true,
                    "internalType": "bytes32",
                    "name": "id",
                    "type": "bytes32"
                },
                {
                    "indexed": true,
                    "internalType": "address",
                    "name": "to",
                    "type": "address"
                },
                {
                    "indexed": false,
                    "internalType": "uint256",
                    "name": "amount",
                    "type": "uint256"
                },
                {
                    "indexed": false,
                    "internalType": "uint256",
                    "name": "bridgingFee",
                    "type": "uint256"
                },
                {
                    "indexed": false,
                    "internalType": "address",
                    "name": "token",
                    "type": "address"
                }
            ],
            "name": "BurnCompleted",
            "type": "event"
        },
        {
            "anonymous": false,
            "inputs": [
                {
                    "indexed": false,
                    "internalType": "bytes32",
                    "name": "requestId",
                    "type": "bytes32"
                },
                {
                    "indexed": true,
                    "internalType": "bytes32",
                    "name": "clientId",
                    "type": "bytes32"
                }
            ],
            "name": "ClientIdLog",
            "type": "event"
        },
        {
            "anonymous": false,
            "inputs": [
                {
                    "indexed": true,
                    "internalType": "address",
                    "name": "previousOwner",
                    "type": "address"
                },
                {
                    "indexed": true,
                    "internalType": "address",
                    "name": "newOwner",
                    "type": "address"
                }
            ],
            "name": "OwnershipTransferred",
            "type": "event"
        },
        {
            "anonymous": false,
            "inputs": [
                {
                    "indexed": false,
                    "internalType": "address",
                    "name": "account",
                    "type": "address"
                }
            ],
            "name": "Paused",
            "type": "event"
        },
        {
            "anonymous": false,
            "inputs": [
                {
                    "indexed": true,
                    "internalType": "bytes32",
                    "name": "id",
                    "type": "bytes32"
                },
                {
                    "indexed": true,
                    "internalType": "address",
                    "name": "to",
                    "type": "address"
                }
            ],
            "name": "RevertBurnRequest",
            "type": "event"
        },
        {
            "anonymous": false,
            "inputs": [
                {
                    "indexed": true,
                    "internalType": "bytes32",
                    "name": "id",
                    "type": "bytes32"
                },
                {
                    "indexed": true,
                    "internalType": "address",
                    "name": "to",
                    "type": "address"
                },
                {
                    "indexed": false,
                    "internalType": "uint256",
                    "name": "amount",
                    "type": "uint256"
                },
                {
                    "indexed": false,
                    "internalType": "uint256",
                    "name": "bridgingFee",
                    "type": "uint256"
                },
                {
                    "indexed": false,
                    "internalType": "address",
                    "name": "token",
                    "type": "address"
                }
            ],
            "name": "RevertSynthesizeCompleted",
            "type": "event"
        },
        {
            "anonymous": false,
            "inputs": [
                {
                    "indexed": false,
                    "internalType": "address",
                    "name": "metaRouter",
                    "type": "address"
                }
            ],
            "name": "SetMetaRouter",
            "type": "event"
        },
        {
            "anonymous": false,
            "inputs": [
                {
                    "indexed": false,
                    "internalType": "address",
                    "name": "token",
                    "type": "address"
                },
                {
                    "indexed": false,
                    "internalType": "uint256",
                    "name": "threshold",
                    "type": "uint256"
                }
            ],
            "name": "SetTokenThreshold",
            "type": "event"
        },
        {
            "anonymous": false,
            "inputs": [
                {
                    "indexed": false,
                    "internalType": "address",
                    "name": "token",
                    "type": "address"
                },
                {
                    "indexed": false,
                    "internalType": "bool",
                    "name": "activate",
                    "type": "bool"
                }
            ],
            "name": "SetWhitelistToken",
            "type": "event"
        },
        {
            "anonymous": false,
            "inputs": [
                {
                    "indexed": false,
                    "internalType": "bytes32",
                    "name": "id",
                    "type": "bytes32"
                },
                {
                    "indexed": true,
                    "internalType": "address",
                    "name": "from",
                    "type": "address"
                },
                {
                    "indexed": true,
                    "internalType": "uint256",
                    "name": "chainID",
                    "type": "uint256"
                },
                {
                    "indexed": true,
                    "internalType": "address",
                    "name": "revertableAddress",
                    "type": "address"
                },
                {
                    "indexed": false,
                    "internalType": "address",
                    "name": "to",
                    "type": "address"
                },
                {
                    "indexed": false,
                    "internalType": "uint256",
                    "name": "amount",
                    "type": "uint256"
                },
                {
                    "indexed": false,
                    "internalType": "address",
                    "name": "token",
                    "type": "address"
                }
            ],
            "name": "SynthesizeRequest",
            "type": "event"
        },
        {
            "anonymous": false,
            "inputs": [
                {
                    "indexed": false,
                    "internalType": "address",
                    "name": "account",
                    "type": "address"
                }
            ],
            "name": "Unpaused",
            "type": "event"
        },
        {
            "inputs": [
                {
                    "internalType": "address",
                    "name": "",
                    "type": "address"
                }
            ],
            "name": "balanceOf",
            "outputs": [
                {
                    "internalType": "uint256",
                    "name": "",
                    "type": "uint256"
                }
            ],
            "stateMutability": "view",
            "type": "function"
        },
        {
            "inputs": [],
            "name": "bridge",
            "outputs": [
                {
                    "internalType": "address",
                    "name": "",
                    "type": "address"
                }
            ],
            "stateMutability": "view",
            "type": "function"
        },
        {
            "inputs": [
                {
                    "internalType": "address",
                    "name": "_bridge",
                    "type": "address"
                },
                {
                    "internalType": "address",
                    "name": "_trustedForwarder",
                    "type": "address"
                },
                {
                    "internalType": "address",
                    "name": "_wrapper",
                    "type": "address"
                },
                {
                    "internalType": "address",
                    "name": "_whitelistedToken",
                    "type": "address"
                },
                {
                    "internalType": "contract IMetaRouter",
                    "name": "_metaRouter",
                    "type": "address"
                }
            ],
            "name": "initialize",
            "outputs": [],
            "stateMutability": "nonpayable",
            "type": "function"
        },
        {
            "inputs": [
                {
                    "internalType": "address",
                    "name": "forwarder",
                    "type": "address"
                }
            ],
            "name": "isTrustedForwarder",
            "outputs": [
                {
                    "internalType": "bool",
                    "name": "",
                    "type": "bool"
                }
            ],
            "stateMutability": "view",
            "type": "function"
        },
        {
            "inputs": [],
            "name": "metaRouter",
            "outputs": [
                {
                    "internalType": "contract IMetaRouter",
                    "name": "",
                    "type": "address"
                }
            ],
            "stateMutability": "view",
            "type": "function"
        },
        {
            "inputs": [
                {
                    "components": [
                        {
                            "internalType": "uint256",
                            "name": "stableBridgingFee",
                            "type": "uint256"
                        },
                        {
                            "internalType": "uint256",
                            "name": "amount",
                            "type": "uint256"
                        },
                        {
                            "internalType": "address",
                            "name": "rtoken",
                            "type": "address"
                        },
                        {
                            "internalType": "address",
                            "name": "chain2address",
                            "type": "address"
                        },
                        {
                            "internalType": "address",
                            "name": "receiveSide",
                            "type": "address"
                        },
                        {
                            "internalType": "address",
                            "name": "oppositeBridge",
                            "type": "address"
                        },
                        {
                            "internalType": "address",
                            "name": "syntCaller",
                            "type": "address"
                        },
                        {
                            "internalType": "uint256",
                            "name": "chainID",
                            "type": "uint256"
                        },
                        {
                            "internalType": "address[]",
                            "name": "swapTokens",
                            "type": "address[]"
                        },
                        {
                            "internalType": "address",
                            "name": "secondDexRouter",
                            "type": "address"
                        },
                        {
                            "internalType": "bytes",
                            "name": "secondSwapCalldata",
                            "type": "bytes"
                        },
                        {
                            "internalType": "address",
                            "name": "finalReceiveSide",
                            "type": "address"
                        },
                        {
                            "internalType": "bytes",
                            "name": "finalCalldata",
                            "type": "bytes"
                        },
                        {
                            "internalType": "uint256",
                            "name": "finalOffset",
                            "type": "uint256"
                        },
                        {
                            "internalType": "address",
                            "name": "revertableAddress",
                            "type": "address"
                        },
                        {
                            "internalType": "bytes32",
                            "name": "clientID",
                            "type": "bytes32"
                        }
                    ],
                    "internalType": "struct MetaRouteStructs.MetaSynthesizeTransaction",
                    "name": "_metaSynthesizeTransaction",
                    "type": "tuple"
                }
            ],
            "name": "metaSynthesize",
            "outputs": [
                {
                    "internalType": "bytes32",
                    "name": "",
                    "type": "bytes32"
                }
            ],
            "stateMutability": "nonpayable",
            "type": "function"
        },
        {
            "inputs": [
                {
                    "internalType": "uint256",
                    "name": "_stableBridgingFee",
                    "type": "uint256"
                },
                {
                    "internalType": "bytes32",
                    "name": "_externalID",
                    "type": "bytes32"
                },
                {
                    "internalType": "address",
                    "name": "_to",
                    "type": "address"
                },
                {
                    "internalType": "uint256",
                    "name": "_amount",
                    "type": "uint256"
                },
                {
                    "internalType": "address",
                    "name": "_rToken",
                    "type": "address"
                },
                {
                    "internalType": "address",
                    "name": "_finalReceiveSide",
                    "type": "address"
                },
                {
                    "internalType": "bytes",
                    "name": "_finalCalldata",
                    "type": "bytes"
                },
                {
                    "internalType": "uint256",
                    "name": "_finalOffset",
                    "type": "uint256"
                }
            ],
            "name": "metaUnsynthesize",
            "outputs": [],
            "stateMutability": "nonpayable",
            "type": "function"
        },
        {
            "inputs": [],
            "name": "owner",
            "outputs": [
                {
                    "internalType": "address",
                    "name": "",
                    "type": "address"
                }
            ],
            "stateMutability": "view",
            "type": "function"
        },
        {
            "inputs": [],
            "name": "pause",
            "outputs": [],
            "stateMutability": "nonpayable",
            "type": "function"
        },
        {
            "inputs": [],
            "name": "paused",
            "outputs": [
                {
                    "internalType": "bool",
                    "name": "",
                    "type": "bool"
                }
            ],
            "stateMutability": "view",
            "type": "function"
        },
        {
            "inputs": [],
            "name": "renounceOwnership",
            "outputs": [],
            "stateMutability": "nonpayable",
            "type": "function"
        },
        {
            "inputs": [],
            "name": "requestCount",
            "outputs": [
                {
                    "internalType": "uint256",
                    "name": "",
                    "type": "uint256"
                }
            ],
            "stateMutability": "view",
            "type": "function"
        },
        {
            "inputs": [
                {
                    "internalType": "bytes32",
                    "name": "",
                    "type": "bytes32"
                }
            ],
            "name": "requests",
            "outputs": [
                {
                    "internalType": "address",
                    "name": "recipient",
                    "type": "address"
                },
                {
                    "internalType": "address",
                    "name": "chain2address",
                    "type": "address"
                },
                {
                    "internalType": "uint256",
                    "name": "amount",
                    "type": "uint256"
                },
                {
                    "internalType": "address",
                    "name": "rtoken",
                    "type": "address"
                },
                {
                    "internalType": "enum Portal.RequestState",
                    "name": "state",
                    "type": "uint8"
                }
            ],
            "stateMutability": "view",
            "type": "function"
        },
        {
            "inputs": [
                {
                    "internalType": "uint256",
                    "name": "_stableBridgingFee",
                    "type": "uint256"
                },
                {
                    "internalType": "bytes32",
                    "name": "_internalID",
                    "type": "bytes32"
                },
                {
                    "internalType": "address",
                    "name": "_receiveSide",
                    "type": "address"
                },
                {
                    "internalType": "address",
                    "name": "_oppositeBridge",
                    "type": "address"
                },
                {
                    "internalType": "uint256",
                    "name": "_chainId",
                    "type": "uint256"
                },
                {
                    "internalType": "bytes32",
                    "name": "_clientID",
                    "type": "bytes32"
                }
            ],
            "name": "revertBurnRequest",
            "outputs": [],
            "stateMutability": "nonpayable",
            "type": "function"
        },
        {
            "inputs": [
                {
                    "internalType": "uint256",
                    "name": "_stableBridgingFee",
                    "type": "uint256"
                },
                {
                    "internalType": "bytes32",
                    "name": "_externalID",
                    "type": "bytes32"
                }
            ],
            "name": "revertSynthesize",
            "outputs": [],
            "stateMutability": "nonpayable",
            "type": "function"
        },
        {
            "inputs": [
                {
                    "internalType": "contract IMetaRouter",
                    "name": "_metaRouter",
                    "type": "address"
                }
            ],
            "name": "setMetaRouter",
            "outputs": [],
            "stateMutability": "nonpayable",
            "type": "function"
        },
        {
            "inputs": [
                {
                    "internalType": "address",
                    "name": "_token",
                    "type": "address"
                },
                {
                    "internalType": "uint256",
                    "name": "_threshold",
                    "type": "uint256"
                }
            ],
            "name": "setTokenThreshold",
            "outputs": [],
            "stateMutability": "nonpayable",
            "type": "function"
        },
        {
            "inputs": [
                {
                    "internalType": "address",
                    "name": "_token",
                    "type": "address"
                },
                {
                    "internalType": "bool",
                    "name": "_activate",
                    "type": "bool"
                }
            ],
            "name": "setWhitelistToken",
            "outputs": [],
            "stateMutability": "nonpayable",
            "type": "function"
        },
        {
            "inputs": [
                {
                    "internalType": "uint256",
                    "name": "_stableBridgingFee",
                    "type": "uint256"
                },
                {
                    "internalType": "address",
                    "name": "_token",
                    "type": "address"
                },
                {
                    "internalType": "uint256",
                    "name": "_amount",
                    "type": "uint256"
                },
                {
                    "internalType": "address",
                    "name": "_chain2address",
                    "type": "address"
                },
                {
                    "internalType": "address",
                    "name": "_receiveSide",
                    "type": "address"
                },
                {
                    "internalType": "address",
                    "name": "_oppositeBridge",
                    "type": "address"
                },
                {
                    "internalType": "address",
                    "name": "_revertableAddress",
                    "type": "address"
                },
                {
                    "internalType": "uint256",
                    "name": "_chainID",
                    "type": "uint256"
                },
                {
                    "internalType": "bytes32",
                    "name": "_clientID",
                    "type": "bytes32"
                }
            ],
            "name": "synthesize",
            "outputs": [
                {
                    "internalType": "bytes32",
                    "name": "",
                    "type": "bytes32"
                }
            ],
            "stateMutability": "nonpayable",
            "type": "function"
        },
        {
            "inputs": [
                {
                    "internalType": "uint256",
                    "name": "_stableBridgingFee",
                    "type": "uint256"
                },
                {
                    "internalType": "address",
                    "name": "_chain2address",
                    "type": "address"
                },
                {
                    "internalType": "address",
                    "name": "_receiveSide",
                    "type": "address"
                },
                {
                    "internalType": "address",
                    "name": "_oppositeBridge",
                    "type": "address"
                },
                {
                    "internalType": "address",
                    "name": "_revertableAddress",
                    "type": "address"
                },
                {
                    "internalType": "uint256",
                    "name": "_chainID",
                    "type": "uint256"
                },
                {
                    "internalType": "bytes32",
                    "name": "_clientID",
                    "type": "bytes32"
                }
            ],
            "name": "synthesizeNative",
            "outputs": [
                {
                    "internalType": "bytes32",
                    "name": "",
                    "type": "bytes32"
                }
            ],
            "stateMutability": "payable",
            "type": "function"
        },
        {
            "inputs": [
                {
                    "components": [
                        {
                            "internalType": "uint256",
                            "name": "stableBridgingFee",
                            "type": "uint256"
                        },
                        {
                            "internalType": "bytes",
                            "name": "approvalData",
                            "type": "bytes"
                        },
                        {
                            "internalType": "address",
                            "name": "token",
                            "type": "address"
                        },
                        {
                            "internalType": "uint256",
                            "name": "amount",
                            "type": "uint256"
                        },
                        {
                            "internalType": "address",
                            "name": "chain2address",
                            "type": "address"
                        },
                        {
                            "internalType": "address",
                            "name": "receiveSide",
                            "type": "address"
                        },
                        {
                            "internalType": "address",
                            "name": "oppositeBridge",
                            "type": "address"
                        },
                        {
                            "internalType": "address",
                            "name": "revertableAddress",
                            "type": "address"
                        },
                        {
                            "internalType": "uint256",
                            "name": "chainID",
                            "type": "uint256"
                        },
                        {
                            "internalType": "bytes32",
                            "name": "clientID",
                            "type": "bytes32"
                        }
                    ],
                    "internalType": "struct Portal.SynthesizeWithPermitTransaction",
                    "name": "_syntWithPermitTx",
                    "type": "tuple"
                }
            ],
            "name": "synthesizeWithPermit",
            "outputs": [
                {
                    "internalType": "bytes32",
                    "name": "",
                    "type": "bytes32"
                }
            ],
            "stateMutability": "nonpayable",
            "type": "function"
        },
        {
            "inputs": [
                {
                    "internalType": "address",
                    "name": "",
                    "type": "address"
                }
            ],
            "name": "tokenThreshold",
            "outputs": [
                {
                    "internalType": "uint256",
                    "name": "",
                    "type": "uint256"
                }
            ],
            "stateMutability": "view",
            "type": "function"
        },
        {
            "inputs": [
                {
                    "internalType": "address",
                    "name": "",
                    "type": "address"
                }
            ],
            "name": "tokenWhitelist",
            "outputs": [
                {
                    "internalType": "bool",
                    "name": "",
                    "type": "bool"
                }
            ],
            "stateMutability": "view",
            "type": "function"
        },
        {
            "inputs": [
                {
                    "internalType": "address",
                    "name": "newOwner",
                    "type": "address"
                }
            ],
            "name": "transferOwnership",
            "outputs": [],
            "stateMutability": "nonpayable",
            "type": "function"
        },
        {
            "inputs": [],
            "name": "unpause",
            "outputs": [],
            "stateMutability": "nonpayable",
            "type": "function"
        },
        {
            "inputs": [
                {
                    "internalType": "uint256",
                    "name": "_stableBridgingFee",
                    "type": "uint256"
                },
                {
                    "internalType": "bytes32",
                    "name": "_externalID",
                    "type": "bytes32"
                },
                {
                    "internalType": "address",
                    "name": "_token",
                    "type": "address"
                },
                {
                    "internalType": "uint256",
                    "name": "_amount",
                    "type": "uint256"
                },
                {
                    "internalType": "address",
                    "name": "_to",
                    "type": "address"
                }
            ],
            "name": "unsynthesize",
            "outputs": [],
            "stateMutability": "nonpayable",
            "type": "function"
        },
        {
            "inputs": [
                {
                    "internalType": "bytes32",
                    "name": "",
                    "type": "bytes32"
                }
            ],
            "name": "unsynthesizeStates",
            "outputs": [
                {
                    "internalType": "enum Portal.UnsynthesizeState",
                    "name": "",
                    "type": "uint8"
                }
            ],
            "stateMutability": "view",
            "type": "function"
        },
        {
            "inputs": [],
            "name": "versionRecipient",
            "outputs": [
                {
                    "internalType": "string",
                    "name": "",
                    "type": "string"
                }
            ],
            "stateMutability": "pure",
            "type": "function"
        },
        {
            "inputs": [],
            "name": "wrapper",
            "outputs": [
                {
                    "internalType": "address",
                    "name": "",
                    "type": "address"
                }
            ],
            "stateMutability": "view",
            "type": "function"
        }
    ],
    "bytecode": "0x608060405234801561001057600080fd5b5061389d806100206000396000f3fe6080604052600436106101c25760003560e01c80637c374f99116100f7578063c42a289411610095578063eadd5c3411610064578063eadd5c3414610591578063f2fde38b146105b1578063fab92894146105d1578063fb7c7c2a1461060e57600080fd5b8063c42a289414610511578063ce654c1714610531578063dbec15bb14610551578063e78cea921461057157600080fd5b80638da5cb5b116100d15780638da5cb5b146104335780639d86698514610465578063ac210cc7146104d1578063b1659a3c146104f157600080fd5b80637c374f99146103de5780638456cb59146103fe5780638bb398021461041357600080fd5b8063572b6c0511610164578063687752781161013e578063687752781461033f57806370a082311461036c578063715018a614610399578063753d7563146103ae57600080fd5b8063572b6c05146102d05780635badbe4c1461030f5780635c975abb1461032557600080fd5b8063316784f5116101a0578063316784f51461022f5780633f4ba83a1461024f578063486ff0cd146102645780634afbb9f1146102b057600080fd5b806308759e9b146101c75780631459457a146101e95780632816f4db14610209575b600080fd5b3480156101d357600080fd5b506101e76101e23660046132d2565b61062e565b005b3480156101f557600080fd5b506101e7610204366004612e20565b61090b565b61021c61021736600461319e565b610a8e565b6040519081526020015b60405180910390f35b34801561023b57600080fd5b506101e761024a366004613376565b610c3b565b34801561025b57600080fd5b506101e7610f3b565b34801561027057600080fd5b50604080518082018252600581527f322e302e3100000000000000000000000000000000000000000000000000000060208201529051610226919061356b565b3480156102bc57600080fd5b506101e76102cb36600461332e565b611004565b3480156102dc57600080fd5b506102ff6102eb366004612d96565b6065546001600160a01b0391821691161490565b6040519015158152602001610226565b34801561031b57600080fd5b5061021c60685481565b34801561033157600080fd5b506069546102ff9060ff1681565b34801561034b57600080fd5b5061021c61035a366004612d96565b606d6020526000908152604090205481565b34801561037857600080fd5b5061021c610387366004612d96565b606c6020526000908152604090205481565b3480156103a557600080fd5b506101e761121c565b3480156103ba57600080fd5b506102ff6103c9366004612d96565b606e6020526000908152604090205460ff1681565b3480156103ea57600080fd5b506101e76103f9366004612e91565b6112a1565b34801561040a57600080fd5b506101e761137e565b34801561041f57600080fd5b506101e761042e366004612eca565b61142d565b34801561043f57600080fd5b506033546001600160a01b03165b6040516001600160a01b039091168152602001610226565b34801561047157600080fd5b506104c0610480366004612f13565b606a6020526000908152604090208054600182015460028301546003909301546001600160a01b039283169391831692811690600160a01b900460ff1685565b60405161022695949392919061349e565b3480156104dd57600080fd5b5060665461044d906001600160a01b031681565b3480156104fd57600080fd5b5061021c61050c366004613218565b6114f7565b34801561051d57600080fd5b506101e761052c3660046132b0565b61163e565b34801561053d57600080fd5b5061021c61054c366004612f2c565b6118bf565b34801561055d57600080fd5b50606f5461044d906001600160a01b031681565b34801561057d57600080fd5b5060675461044d906001600160a01b031681565b34801561059d57600080fd5b506101e76105ac366004612d96565b611a0b565b3480156105bd57600080fd5b506101e76105cc366004612d96565b611b61565b3480156105dd57600080fd5b506106016105ec366004612f13565b606b6020526000908152604090205460ff1681565b6040516102269190613558565b34801561061a57600080fd5b5061021c6106293660046130af565b611c62565b60695460ff16156106755760405162461bcd60e51b815260206004820152600c60248201526b14de5b588e881c185d5cd95960a21b60448201526064015b60405180910390fd5b60008530610681611eae565b6040805160208101949094526bffffffffffffffffffffffff19606093841b811691850191909152911b16605482015246606882015260880160408051601f198184030181529190528051602090910120905060016000828152606b602052604090205460ff1660028111156106f9576106f96137b7565b141561076c5760405162461bcd60e51b8152602060048201526024808201527f53796d623a205265616c20746f6b656e7320616c7265616479207472616e736660448201527f6572656400000000000000000000000000000000000000000000000000000000606482015260840161066c565b6000818152606b6020908152604091829020805460ff1916600217905581518083018352601b81527f7265766572744275726e2875696e743235362c62797465733332290000000000908201528151602481018a90526044808201859052835180830390910181526064909101835290810180517bffffffffffffffffffffffffffffffffffffffffffffffffffffffff167ff70519ae000000000000000000000000000000000000000000000000000000001790526067549151633675e4e160e11b815290916001600160a01b031690636cebc9c2906108579084908a908a908a90600401613522565b600060405180830381600087803b15801561087157600080fd5b505af1158015610885573d6000803e3d6000fd5b5050505050610892611eae565b6001600160a01b0316867f40590cc12db0488520ce425059f83f8caed91bdf98de5ff829dc57c63843161b60405160405180910390a3817f5a297b2c9a9f94a0f4e5a796c74ad38e219d1185fccf5f79c18726a830c2b6f5876040516108fa91815260200190565b60405180910390a250505050505050565b600054610100900460ff166109265760005460ff161561092a565b303b155b61099c5760405162461bcd60e51b815260206004820152602e60248201527f496e697469616c697a61626c653a20636f6e747261637420697320616c72656160448201527f647920696e697469616c697a6564000000000000000000000000000000000000606482015260840161066c565b600054610100900460ff161580156109db57600080547fffffffffffffffffffffffffffffffffffffffffffffffffffffffffffff0000166101011790555b6109e485611ef4565b606780546001600160a01b0380891673ffffffffffffffffffffffffffffffffffffffff199283161790925560668054878416908316179055606f80548584169216919091179055831615610a57576001600160a01b0383166000908152606e60205260409020805460ff191660011790555b8015610a8657600080547fffffffffffffffffffffffffffffffffffffffffffffffffffffffffffff00ff1690555b505050505050565b60695460009060ff1615610ad35760405162461bcd60e51b815260206004820152600c60248201526b14de5b588e881c185d5cd95960a21b604482015260640161066c565b6066546001600160a01b03166000908152606e602052604090205460ff16610b3d5760405162461bcd60e51b815260206004820152601860248201527f53796d623a20756e617574686f72697a656420746f6b656e0000000000000000604482015260640161066c565b6066546001600160a01b03166000908152606d6020526040902054341015610ba75760405162461bcd60e51b815260206004820152601c60248201527f53796d623a20616d6f756e7420756e646572207468726573686f6c6400000000604482015260640161066c565b606660009054906101000a90046001600160a01b03166001600160a01b031663d0e30db0346040518263ffffffff1660e01b81526004016000604051808303818588803b158015610bf757600080fd5b505af1158015610c0b573d6000803e3d6000fd5b5050606654610c2f93508b92506001600160a01b03169050348a8a8a8a8a8a611f96565b98975050505050505050565b6067546001600160a01b03163314610c955760405162461bcd60e51b815260206004820152601e60248201527f53796d623a2063616c6c6572206973206e6f7420746865206272696467650000604482015260640161066c565b60695460ff1615610cd75760405162461bcd60e51b815260206004820152600c60248201526b14de5b588e881c185d5cd95960a21b604482015260640161066c565b6000878152606b602052604081205460ff166002811115610cfa57610cfa6137b7565b14610d6d5760405162461bcd60e51b815260206004820152602660248201527f53796d623a2073796e74686574696320746f6b656e7320656d657267656e637960448201527f556e6275726e0000000000000000000000000000000000000000000000000000606482015260840161066c565b6001600160a01b0384166000908152606c6020526040902054610d91908690613721565b6001600160a01b038581166000908152606c60209081526040808320949094558a8252606b905291909120805460ff19166001179055606754610dd7918691168a612364565b610de18886613721565b9450815160001415610e4957610df8848787612364565b60408051868152602081018a90526001600160a01b038616818301529051309189917fd31ae0a5fc46ab05b27d837efddb13837db6eb85442f9b1d3f609bf1552f3f4f9181900360600190a3610f31565b606f54610e619085906001600160a01b031687612364565b606f546040517fe1ee0f790000000000000000000000000000000000000000000000000000000081526001600160a01b039091169063e1ee0f7990610eb290879089908890889088906004016134de565b600060405180830381600087803b158015610ecc57600080fd5b505af1158015610ee0573d6000803e3d6000fd5b505060408051888152602081018c90526001600160a01b0388168183015290513093508a92507fd31ae0a5fc46ab05b27d837efddb13837db6eb85442f9b1d3f609bf1552f3f4f9181900360600190a35b5050505050505050565b610f43611eae565b6001600160a01b0316610f5e6033546001600160a01b031690565b6001600160a01b031614610fb45760405162461bcd60e51b815260206004820181905260248201527f4f776e61626c653a2063616c6c6572206973206e6f7420746865206f776e6572604482015260640161066c565b6069805460ff191690557f5db9ee0a495bf2e6ff9c91a7834c1ba4fdd244a5e8aa4e537bd38aeae4b073aa610fe7611eae565b6040516001600160a01b03909116815260200160405180910390a1565b6067546001600160a01b0316331461105e5760405162461bcd60e51b815260206004820152601e60248201527f53796d623a2063616c6c6572206973206e6f7420746865206272696467650000604482015260640161066c565b60695460ff16156110a05760405162461bcd60e51b815260206004820152600c60248201526b14de5b588e881c185d5cd95960a21b604482015260640161066c565b6000848152606b602052604081205460ff1660028111156110c3576110c36137b7565b146111365760405162461bcd60e51b815260206004820152602660248201527f53796d623a2073796e74686574696320746f6b656e7320656d657267656e637960448201527f556e6275726e0000000000000000000000000000000000000000000000000000606482015260840161066c565b6001600160a01b0383166000908152606c602052604090205461115a908390613721565b6001600160a01b0384166000908152606c6020908152604080832093909355868252606b905220805460ff191660011790556111a0838261119b8886613721565b612364565b6067546111b89084906001600160a01b031687612364565b6001600160a01b038116847fd31ae0a5fc46ab05b27d837efddb13837db6eb85442f9b1d3f609bf1552f3f4f6111ee8886613721565b60408051918252602082018a90526001600160a01b0388169082015260600160405180910390a35050505050565b611224611eae565b6001600160a01b031661123f6033546001600160a01b031690565b6001600160a01b0316146112955760405162461bcd60e51b815260206004820181905260248201527f4f776e61626c653a2063616c6c6572206973206e6f7420746865206f776e6572604482015260640161066c565b61129f60006124d3565b565b6112a9611eae565b6001600160a01b03166112c46033546001600160a01b031690565b6001600160a01b03161461131a5760405162461bcd60e51b815260206004820181905260248201527f4f776e61626c653a2063616c6c6572206973206e6f7420746865206f776e6572604482015260640161066c565b6001600160a01b0382166000818152606e6020908152604091829020805460ff19168515159081179091558251938452908301527f0a4552f1105808db6a44587c9ef0a7c4064bf620b9d843b514ad7365bd52239a91015b60405180910390a15050565b611386611eae565b6001600160a01b03166113a16033546001600160a01b031690565b6001600160a01b0316146113f75760405162461bcd60e51b815260206004820181905260248201527f4f776e61626c653a2063616c6c6572206973206e6f7420746865206f776e6572604482015260640161066c565b6069805460ff191660011790557f62e78cea01bee320cd4e420270b5ea74000d11b0c9f74754ebdbfc544b05a258610fe7611eae565b611435611eae565b6001600160a01b03166114506033546001600160a01b031690565b6001600160a01b0316146114a65760405162461bcd60e51b815260206004820181905260248201527f4f776e61626c653a2063616c6c6572206973206e6f7420746865206f776e6572604482015260640161066c565b6001600160a01b0382166000818152606d6020908152604091829020849055815192835282018390527fa6742efd4f410d6fd9688a6cf6a15b6d51121097a263056a3576baaacdc4a9ae9101611372565b60695460009060ff161561153c5760405162461bcd60e51b815260206004820152600c60248201526b14de5b588e881c185d5cd95960a21b604482015260640161066c565b6001600160a01b0389166000908152606e602052604090205460ff166115a45760405162461bcd60e51b815260206004820152601860248201527f53796d623a20756e617574686f72697a656420746f6b656e0000000000000000604482015260640161066c565b6001600160a01b0389166000908152606d602052604090205488101561160c5760405162461bcd60e51b815260206004820152601c60248201527f53796d623a20616d6f756e7420756e646572207468726573686f6c6400000000604482015260640161066c565b61161f89611618611eae565b308b612532565b6116308a8a8a8a8a8a8a8a8a611f96565b9a9950505050505050505050565b6067546001600160a01b031633146116985760405162461bcd60e51b815260206004820152601e60248201527f53796d623a2063616c6c6572206973206e6f7420746865206272696467650000604482015260640161066c565b60695460ff16156116da5760405162461bcd60e51b815260206004820152600c60248201526b14de5b588e881c185d5cd95960a21b604482015260640161066c565b6000818152606a6020526040902060016003820154600160a01b900460ff16600281111561170a5761170a6137b7565b1461177d5760405162461bcd60e51b815260206004820152602960248201527f53796d623a207374617465206e6f74206f70656e206f7220747820646f65732060448201527f6e6f742065786973740000000000000000000000000000000000000000000000606482015260840161066c565b600381018054740200000000000000000000000000000000000000007fffffffffffffffffffffff00ffffffffffffffffffffffffffffffffffffffff82161790915560028201546001600160a01b039091166000908152606c60205260409020546117e99190613721565b6003820180546001600160a01b039081166000908152606c6020526040902092909255548254600284015461182c9392831692919091169061119b908790613721565b600381015460675461184b916001600160a01b03908116911685612364565b805460028201546001600160a01b039091169083907fefcdf9ea4e65571d2ce9c030c46954e950662df8a7d8bd039fc4417e37b2f88c9061188d908790613721565b600385015460408051928352602083018990526001600160a01b039091169082015260600160405180910390a3505050565b60695460009060ff16156119045760405162461bcd60e51b815260206004820152600c60248201526b14de5b588e881c185d5cd95960a21b604482015260640161066c565b6040808301516001600160a01b03166000908152606e602052205460ff1661196e5760405162461bcd60e51b815260206004820152601860248201527f53796d623a20756e617574686f72697a656420746f6b656e0000000000000000604482015260640161066c565b6040808301516001600160a01b03166000908152606d6020908152919020549083015110156119df5760405162461bcd60e51b815260206004820152601c60248201527f53796d623a20616d6f756e7420756e646572207468726573686f6c6400000000604482015260640161066c565b6119fa82604001516119ef611eae565b308560200151612532565b611a03826126a2565b90505b919050565b611a13611eae565b6001600160a01b0316611a2e6033546001600160a01b031690565b6001600160a01b031614611a845760405162461bcd60e51b815260206004820181905260248201527f4f776e61626c653a2063616c6c6572206973206e6f7420746865206f776e6572604482015260640161066c565b6001600160a01b038116611b005760405162461bcd60e51b815260206004820152602760248201527f53796d623a206d657461526f757465722063616e6e6f74206265207a65726f2060448201527f6164647265737300000000000000000000000000000000000000000000000000606482015260840161066c565b606f805473ffffffffffffffffffffffffffffffffffffffff19166001600160a01b0383169081179091556040519081527fd5c54ab1d37bfef4dd2253d9d73c292e46f5bd8a67ca5920aab4c2e1993178e79060200160405180910390a150565b611b69611eae565b6001600160a01b0316611b846033546001600160a01b031690565b6001600160a01b031614611bda5760405162461bcd60e51b815260206004820181905260248201527f4f776e61626c653a2063616c6c6572206973206e6f7420746865206f776e6572604482015260640161066c565b6001600160a01b038116611c565760405162461bcd60e51b815260206004820152602660248201527f4f776e61626c653a206e6577206f776e657220697320746865207a65726f206160448201527f6464726573730000000000000000000000000000000000000000000000000000606482015260840161066c565b611c5f816124d3565b50565b60695460009060ff1615611ca75760405162461bcd60e51b815260206004820152600c60248201526b14de5b588e881c185d5cd95960a21b604482015260640161066c565b6040808301516001600160a01b03166000908152606e602052205460ff16611d115760405162461bcd60e51b815260206004820152601860248201527f53796d623a20756e617574686f72697a656420746f6b656e0000000000000000604482015260640161066c565b6040808301516001600160a01b03166000908152606d602052205460608301511015611d7f5760405162461bcd60e51b815260206004820152601c60248201527f53796d623a20616d6f756e7420756e646572207468726573686f6c6400000000604482015260640161066c565b6000806000806000808760200151806020019051810190611da09190612dba565b6040808f015190517fd505accf0000000000000000000000000000000000000000000000000000000081526001600160a01b038089166004830152306024830152604482018890526064820187905260ff8616608483015260a4820185905260c48201849052979d50959b5093995091975095509350919091169063d505accf9060e401600060405180830381600087803b158015611e3e57600080fd5b505af1158015611e52573d6000803e3d6000fd5b50505050505050505050611e778260400151611e6c611eae565b308560600151612532565b611a0382600001518360400151846060015185608001518660a001518760c001518860e001518961010001518a6101200151611f96565b6065546000906001600160a01b0316331415611eef57507fffffffffffffffffffffffffffffffffffffffffffffffffffffffffffffffec36013560601c90565b503390565b600054610100900460ff16611f5f5760405162461bcd60e51b815260206004820152602b60248201527f496e697469616c697a61626c653a20636f6e7472616374206973206e6f74206960448201526a6e697469616c697a696e6760a81b606482015260840161066c565b611f67612b2b565b6065805473ffffffffffffffffffffffffffffffffffffffff19166001600160a01b0392909216919091179055565b6001600160a01b0388166000908152606c6020526040812054611fba908990613709565b6001600160a01b03808b166000908152606c60205260409020919091558416611fe1578693505b6068546040516bffffffffffffffffffffffff193060601b166020820152603481019190915246605482015260740160408051601f1981840301815282825280516020918201209083018190526bffffffffffffffffffffffff1960608a811b8216938501939093529187901b90911660548301526068820185905291506000906088016040516020818303038152906040528051906020012090506000604051806080016040528060438152602001613825604391398051602090910120604051602481018e9052604481018490526001600160a01b03808e16606483015246608483015260a482018d90528b1660c482015260e40160408051601f198184030181529181526020820180517bffffffffffffffffffffffffffffffffffffffffffffffffffffffff167fffffffff0000000000000000000000000000000000000000000000000000000090941693909317909252815160a0810190925291508061214b611eae565b6001600160a01b0390811682528b81166020830152604082018d90528d166060820152608001600190526000838152606a60209081526040918290208351815473ffffffffffffffffffffffffffffffffffffffff199081166001600160a01b039283161783559285015160018301805485169183169190911790559284015160028083019190915560608501516003830180549485169190951690811785556080860151929492937fffffffffffffffffffffff000000000000000000000000000000000000000000161790600160a01b90849081111561222f5761222f6137b7565b021790555050606880549150600061224683613768565b9091555050606754604051633675e4e160e11b81526001600160a01b0390911690636cebc9c2906122819084908c908c908b90600401613522565b600060405180830381600087803b15801561229b57600080fd5b505af11580156122af573d6000803e3d6000fd5b505050505050836001600160a01b0316836122c8611eae565b604080518581526001600160a01b038c811660208301529181018d90528d821660608201529116907f31325fe0a1a2e6a5b1e41572156ba5b4e94f0fae7e7f63ec21e9b5ce1e4b3eab9060800160405180910390a4817f5a297b2c9a9f94a0f4e5a796c74ad38e219d1185fccf5f79c18726a830c2b6f58260405161234f91815260200190565b60405180910390a29998505050505050505050565b604080516001600160a01b038481166024830152604480830185905283518084039091018152606490920183526020820180517bffffffffffffffffffffffffffffffffffffffffffffffffffffffff167fa9059cbb0000000000000000000000000000000000000000000000000000000017905291516000928392908716916123ee9190613482565b6000604051808303816000865af19150503d806000811461242b576040519150601f19603f3d011682016040523d82523d6000602084013e612430565b606091505b509150915081801561245a57508051158061245a57508080602001905181019061245a9190612ef6565b6124cc5760405162461bcd60e51b815260206004820152602d60248201527f5472616e7366657248656c7065723a3a736166655472616e736665723a20747260448201527f616e73666572206661696c656400000000000000000000000000000000000000606482015260840161066c565b5050505050565b603380546001600160a01b0383811673ffffffffffffffffffffffffffffffffffffffff19831681179093556040519116919082907f8be0079c531659141344cd1fd0a4f28419497f9722a3daafe3b4186f6b6457e090600090a35050565b604080516001600160a01b0385811660248301528481166044830152606480830185905283518084039091018152608490920183526020820180517bffffffffffffffffffffffffffffffffffffffffffffffffffffffff167f23b872dd0000000000000000000000000000000000000000000000000000000017905291516000928392908816916125c49190613482565b6000604051808303816000865af19150503d8060008114612601576040519150601f19603f3d011682016040523d82523d6000602084013e612606565b606091505b50915091508180156126305750805115806126305750808060200190518101906126309190612ef6565b610a865760405162461bcd60e51b815260206004820152603160248201527f5472616e7366657248656c7065723a3a7472616e7366657246726f6d3a20747260448201527f616e7366657246726f6d206661696c6564000000000000000000000000000000606482015260840161066c565b6020808201516040808401516001600160a01b03166000908152606c9093528220546126ce9190613709565b6040808401516001600160a01b039081166000908152606c60205291909120919091556101c0830151166127115760608201516001600160a01b03166101c08301525b6068546040516bffffffffffffffffffffffff193060601b166020820152603481019190915246605482015260740160408051601f19818403018152828252805160209182012060808601516101c087015160e08801519386018390526bffffffffffffffffffffffff19606092831b811695870195909552901b9092166054840152606883015291506000906088016040516020818303038152906040528051906020012090506000604051806101800160405280856000015181526020018560200151815260200183815260200185604001516001600160a01b0316815260200146815260200185606001516001600160a01b0316815260200185610100015181526020018561012001516001600160a01b0316815260200185610140015181526020018561016001516001600160a01b031681526020018561018001518152602001856101a001518152509050600081604051602401612874919061357e565b60408051601f19818403018152918152602080830180517bffffffffffffffffffffffffffffffffffffffffffffffffffffffff167fd5f8fbcb00000000000000000000000000000000000000000000000000000000179052815160a08101835260c08901516001600160a01b0390811682526060808b0151821683850152928a015182850152928901519092169082015290915060808101600190526000848152606a60209081526040918290208351815473ffffffffffffffffffffffffffffffffffffffff199081166001600160a01b039283161783559285015160018301805485169183169190911790559284015160028083019190915560608501516003830180549485169190951690811785556080860151929492937fffffffffffffffffffffff000000000000000000000000000000000000000000161790600160a01b9084908111156129cb576129cb6137b7565b02179055505060688054915060006129e283613768565b9091555050606754608086015160a087015160e0880151604051633675e4e160e11b81526001600160a01b0390941693636cebc9c293612a2b9387939192909190600401613522565b600060405180830381600087803b158015612a4557600080fd5b505af1158015612a59573d6000803e3d6000fd5b5050505050836101c001516001600160a01b03168460e001518560c001516001600160a01b03167f31325fe0a1a2e6a5b1e41572156ba5b4e94f0fae7e7f63ec21e9b5ce1e4b3eab86886060015189602001518a60400151604051612ae394939291909384526001600160a01b039283166020850152604084019190915216606082015260800190565b60405180910390a46101e08401516040518481527f5a297b2c9a9f94a0f4e5a796c74ad38e219d1185fccf5f79c18726a830c2b6f59060200160405180910390a25050919050565b600054610100900460ff16612b965760405162461bcd60e51b815260206004820152602b60248201527f496e697469616c697a61626c653a20636f6e7472616374206973206e6f74206960448201526a6e697469616c697a696e6760a81b606482015260840161066c565b612b9e612ba6565b61129f612c11565b600054610100900460ff1661129f5760405162461bcd60e51b815260206004820152602b60248201527f496e697469616c697a61626c653a20636f6e7472616374206973206e6f74206960448201526a6e697469616c697a696e6760a81b606482015260840161066c565b600054610100900460ff16612c7c5760405162461bcd60e51b815260206004820152602b60248201527f496e697469616c697a61626c653a20636f6e7472616374206973206e6f74206960448201526a6e697469616c697a696e6760a81b606482015260840161066c565b61129f612c87611eae565b6124d3565b8035611a0681613801565b600082601f830112612ca857600080fd5b8135602067ffffffffffffffff821115612cc457612cc46137cd565b8160051b612cd38282016136d8565b838152828101908684018388018501891015612cee57600080fd5b600093505b85841015612d1a578035612d0681613801565b835260019390930192918401918401612cf3565b50979650505050505050565b600082601f830112612d3757600080fd5b813567ffffffffffffffff811115612d5157612d516137cd565b612d646020601f19601f840116016136d8565b818152846020838601011115612d7957600080fd5b816020850160208301376000918101602001919091529392505050565b600060208284031215612da857600080fd5b8135612db381613801565b9392505050565b60008060008060008060c08789031215612dd357600080fd5b8651612dde81613801565b809650506020870151945060408701519350606087015160ff81168114612e0457600080fd5b809350506080870151915060a087015190509295509295509295565b600080600080600060a08688031215612e3857600080fd5b8535612e4381613801565b94506020860135612e5381613801565b93506040860135612e6381613801565b92506060860135612e7381613801565b91506080860135612e8381613801565b809150509295509295909350565b60008060408385031215612ea457600080fd5b8235612eaf81613801565b91506020830135612ebf81613816565b809150509250929050565b60008060408385031215612edd57600080fd5b8235612ee881613801565b946020939093013593505050565b600060208284031215612f0857600080fd5b8151612db381613816565b600060208284031215612f2557600080fd5b5035919050565b600060208284031215612f3e57600080fd5b813567ffffffffffffffff80821115612f5657600080fd5b908301906102008286031215612f6b57600080fd5b612f7361368a565b8235815260208301356020820152612f8d60408401612c8c565b6040820152612f9e60608401612c8c565b6060820152612faf60808401612c8c565b6080820152612fc060a08401612c8c565b60a0820152612fd160c08401612c8c565b60c082015260e083013560e08201526101008084013583811115612ff457600080fd5b61300088828701612c97565b828401525050610120613014818501612c8c565b90820152610140838101358381111561302c57600080fd5b61303888828701612d26565b82840152505061016061304c818501612c8c565b90820152610180838101358381111561306457600080fd5b61307088828701612d26565b8284015250506101a0915081830135828201526101c09150613093828401612c8c565b918101919091526101e091820135918101919091529392505050565b6000602082840312156130c157600080fd5b813567ffffffffffffffff808211156130d957600080fd5b9083019061014082860312156130ee57600080fd5b6130f66136b4565b8235815260208301358281111561310c57600080fd5b61311887828601612d26565b60208301525061312a60408401612c8c565b60408201526060830135606082015261314560808401612c8c565b608082015261315660a08401612c8c565b60a082015261316760c08401612c8c565b60c082015261317860e08401612c8c565b60e082015261010083810135908201526101209283013592810192909252509392505050565b600080600080600080600060e0888a0312156131b957600080fd5b8735965060208801356131cb81613801565b955060408801356131db81613801565b945060608801356131eb81613801565b935060808801356131fb81613801565b9699959850939692959460a0840135945060c09093013592915050565b60008060008060008060008060006101208a8c03121561323757600080fd5b8935985060208a013561324981613801565b975060408a0135965060608a013561326081613801565b955060808a013561327081613801565b945060a08a013561328081613801565b935060c08a013561329081613801565b8093505060e08a013591506101008a013590509295985092959850929598565b600080604083850312156132c357600080fd5b50508035926020909101359150565b60008060008060008060c087890312156132eb57600080fd5b8635955060208701359450604087013561330481613801565b9350606087013561331481613801565b9598949750929560808101359460a0909101359350915050565b600080600080600060a0868803121561334657600080fd5b8535945060208601359350604086013561335f81613801565b9250606086013591506080860135612e8381613801565b600080600080600080600080610100898b03121561339357600080fd5b883597506020890135965060408901356133ac81613801565b95506060890135945060808901356133c381613801565b935060a08901356133d381613801565b925060c089013567ffffffffffffffff8111156133ef57600080fd5b6133fb8b828c01612d26565b92505060e089013590509295985092959890939650565b600081518084526020808501945080840160005b8381101561344b5781516001600160a01b031687529582019590820190600101613426565b509495945050505050565b6000815180845261346e816020860160208601613738565b601f01601f19169290920160200192915050565b60008251613494818460208701613738565b9190910192915050565b6001600160a01b0386811682528581166020830152604082018590528316606082015260a081016134ce836137e3565b8260808301529695505050505050565b60006001600160a01b03808816835286602084015280861660408401525060a0606083015261351060a0830185613456565b90508260808301529695505050505050565b6080815260006135356080830187613456565b6001600160a01b0395861660208401529390941660408201526060015292915050565b60208101613565836137e3565b91905290565b602081526000612db36020830184613456565b60208152815160208201526020820151604082015260408201516060820152600060608301516135b960808401826001600160a01b03169052565b50608083015160a083015260a08301516135de60c08401826001600160a01b03169052565b5060c08301516101808060e08501526135fb6101a0850183613412565b915060e0850151610100613619818701836001600160a01b03169052565b80870151915050601f196101208187860301818801526136398584613456565b945080880151925050610140613659818801846001600160a01b03169052565b808801519250506101608187860301818801526136768584613456565b970151959092019490945250929392505050565b604051610200810167ffffffffffffffff811182821017156136ae576136ae6137cd565b60405290565b604051610140810167ffffffffffffffff811182821017156136ae576136ae6137cd565b604051601f8201601f1916810167ffffffffffffffff81118282101715613701576137016137cd565b604052919050565b6000821982111561371c5761371c6137a1565b500190565b600082821015613733576137336137a1565b500390565b60005b8381101561375357818101518382015260200161373b565b83811115613762576000848401525b50505050565b60007fffffffffffffffffffffffffffffffffffffffffffffffffffffffffffffffff82141561379a5761379a6137a1565b5060010190565b634e487b7160e01b600052601160045260246000fd5b634e487b7160e01b600052602160045260246000fd5b634e487b7160e01b600052604160045260246000fd5b60038110611c5f57634e487b7160e01b600052602160045260246000fd5b6001600160a01b0381168114611c5f57600080fd5b8015158114611c5f57600080fdfe6d696e7453796e746865746963546f6b656e2875696e743235362c627974657333322c616464726573732c75696e743235362c75696e743235362c6164647265737329a26469706673582212204af63ff5cafa6a6d504148999166950b56bd7bc770f110eafe4527588571ae3764736f6c63430008070033",
    "linkReferences": {},
    "deployedLinkReferences": {}
}