{
    "_format": "hh-sol-artifact-1",
    "contractName": "SwapUnlocker",
    "sourceName": "contracts/DepositUnlockers.sol",
    "abi": [
        {
            "inputs": [
                {
                    "internalType": "bytes",
                    "name": "condition",
                    "type": "bytes"
                }
            ],
            "name": "decodeCondition",
            "outputs": [
                {
                    "components": [
                        {
                            "internalType": "contract IERC20",
                            "name": "outToken",
                            "type": "address"
                        },
                        {
                            "internalType": "uint256",
                            "name": "outMinAmount",
                            "type": "uint256"
                        },
                        {
                            "internalType": "address",
                            "name": "target",
                            "type": "address"
                        },
                        {
                            "internalType": "bytes",
                            "name": "targetCalldata",
                            "type": "bytes"
                        },
                        {
                            "internalType": "uint256",
                            "name": "targetOffset",
                            "type": "uint256"
                        }
                    ],
                    "internalType": "struct SwapUnlocker.Condition",
                    "name": "",
                    "type": "tuple"
                }
            ],
            "stateMutability": "pure",
            "type": "function"
        },
        {
            "inputs": [
                {
                    "components": [
                        {
                            "internalType": "contract IERC20",
                            "name": "outToken",
                            "type": "address"
                        },
                        {
                            "internalType": "uint256",
                            "name": "outMinAmount",
                            "type": "uint256"
                        },
                        {
                            "internalType": "address",
                            "name": "target",
                            "type": "address"
                        },
                        {
                            "internalType": "bytes",
                            "name": "targetCalldata",
                            "type": "bytes"
                        },
                        {
                            "internalType": "uint256",
                            "name": "targetOffset",
                            "type": "uint256"
                        }
                    ],
                    "internalType": "struct SwapUnlocker.Condition",
                    "name": "c",
                    "type": "tuple"
                }
            ],
            "name": "encodeCondition",
            "outputs": [
                {
                    "internalType": "bytes",
                    "name": "",
                    "type": "bytes"
                }
            ],
            "stateMutability": "pure",
            "type": "function"
        },
        {
            "inputs": [
                {
                    "components": [
                        {
                            "internalType": "address",
                            "name": "swapper",
                            "type": "address"
                        },
                        {
                            "internalType": "bytes",
                            "name": "swapCalldata",
                            "type": "bytes"
                        }
                    ],
                    "internalType": "struct SwapUnlocker.Solution",
                    "name": "s",
                    "type": "tuple"
                }
            ],
            "name": "encodeSolution",
            "outputs": [
                {
                    "internalType": "bytes",
                    "name": "",
                    "type": "bytes"
                }
            ],
            "stateMutability": "pure",
            "type": "function"
        },
        {
            "inputs": [
                {
                    "internalType": "contract IMetaRouter",
                    "name": "metarouter",
                    "type": "address"
                },
                {
                    "components": [
                        {
                            "internalType": "contract IERC20",
                            "name": "token",
                            "type": "address"
                        },
                        {
                            "internalType": "uint256",
                            "name": "amount",
                            "type": "uint256"
                        },
                        {
                            "internalType": "uint256",
                            "name": "nonce",
                            "type": "uint256"
                        }
                    ],
                    "internalType": "struct DepositoryTypes.Deposit",
                    "name": "deposit",
                    "type": "tuple"
                },
                {
                    "internalType": "bytes",
                    "name": "condition",
                    "type": "bytes"
                },
                {
                    "internalType": "bytes",
                    "name": "solution",
                    "type": "bytes"
                }
            ],
            "name": "unlock",
            "outputs": [],
            "stateMutability": "nonpayable",
            "type": "function"
        }
    ],
    "bytecode": "0x608060405234601957604051610cdd61001f8239610cdd90f35b600080fdfe6080604052600436101561001257600080fd5b60003560e01c806322c0bff8146100525780635937fd8b1461004d578063760bd1181461004857638d8bf0a20361007857610349565b6102ed565b6101fd565b610134565b6001600160a01b031690565b90565b6001600160a01b0381165b0361007857565b600080fd5b9050359061008a82610066565b565b908160609103126100785790565b909182601f830112156100785781359167ffffffffffffffff831161007857602001926001830284011161007857565b919060c083820312610078576100e0818461007d565b926100ee826020830161008c565b92608082013567ffffffffffffffff8111610078578361010f91840161009a565b92909360a082013567ffffffffffffffff811161007857610130920161009a565b9091565b34610078576101536101473660046100ca565b949390939291926106d5565b60405180805b0390f35b908160a09103126100785790565b9060208282031261007857813567ffffffffffffffff811161007857610063920161015d565b60005b8381106101a45750506000910152565b8181015183820152602001610194565b6101d56101de6020936101e8936101c9815190565b80835293849260200190565b95869101610191565b601f01601f191690565b0190565b6020808252610063929101906101b4565b346100785761015961021861021336600461016b565b610a5d565b604051918291826101ec565b9060208282031261007857813567ffffffffffffffff811161007857610130920161009a565b610057610063610063926001600160a01b031690565b6100639061024a565b61006390610260565b61027b90610269565b9052565b90610063906080806102d460a084016102a060008801516000870190610272565b6102af60208801516020870152565b6040878101516001600160a01b031690860152606087015185820360608701526101b4565b940151910152565b60208082526100639291019061027f565b3461007857610159610309610303366004610224565b90610b66565b604051918291826102dc565b908160409103126100785790565b9060208282031261007857813567ffffffffffffffff8111610078576100639201610315565b346100785761015961021861035f366004610323565b610bcb565b7f4e487b7100000000000000000000000000000000000000000000000000000000600052604160045260246000fd5b90601f01601f1916810190811067ffffffffffffffff8211176103b557604052565b610364565b9061008a6103c760405190565b9283610393565b67ffffffffffffffff81116103b557602090601f01601f19160190565b906103fd6103f8836103ce565b6103ba565b918252565b61040c60136103eb565b7f53776170556e6c6f636b65722e756e6c6f636b00000000000000000000000000602082015290565b610063610402565b6001600160a01b038116610071565b9050359061008a8261043d565b90826000939282370152565b909291926104756103f8826103ce565b93818552818301116100785761008a916020850190610459565b9080601f830112156100785781602061006393359101610465565b919091604081840312610078576104c160406103ba565b926104cc818361044c565b8452602082013567ffffffffffffffff8111610078576104ec920161048f565b6020830152565b9060208282031261007857813567ffffffffffffffff81116100785761006392016104aa565b3561006381610066565b80610071565b3561006381610523565b600091031261007857565b6100636100636100639290565b61027b9061053e565b61008a94610599829897956105896080966105826105a697600060a089019801906001600160a01b03169052565b60208c0152565b6001600160a01b031660408a0152565b87820360608901526101b4565b94019061054b565b6040513d6000823e3d90fd5b9050519061008a82610523565b9060208282031261007857610063916105ba565b156105e257565b6040517f08c379a000000000000000000000000000000000000000000000000000000000815260206004820152601760248201527f6f7574416d6f756e74206973206e6f7420656e6f7567680000000000000000006044820152606490fd5b61064b602b6103eb565b7f696e736964652076616c696461746f722053776170202d206f7574416d6f756e60208201527f742076616c696461746564000000000000000000000000000000000000000000604082015290565b610063610641565b61008a94610599829897956105896080966105826106d097600060a089019801906001600160a01b03169052565b940152565b936106f8610701929694610707946106f36106ee610435565b610be7565b610b66565b938101906104f3565b92610269565b91633add6d5a9061072b602061072461071f88610519565b610269565b9601610529565b602061073e83516001600160a01b031690565b92015190600096863b156100785761077588809461075b60405190565b968795869561076a8b60e01b90565b875260048701610554565b038183885af180156108c257610900575b508382019261079f61071f85516001600160a01b031690565b9360206107ab60405190565b7f70a082310000000000000000000000000000000000000000000000000000000081526001600160a01b038416600482015295869060249082905afa9485156108c2576000956108c7575b5061071f61082f9161081761080f610063602089015190565b8810156105db565b6108226106ee61069a565b516001600160a01b031690565b9161084460408501516001600160a01b031690565b936108556080606083015192015190565b91833b156100785761088a61087f93899793889461087260405190565b9a8b998a98899760e01b90565b8752600487016106a2565b03925af180156108c25761089c575050565b8161008a92903d106108bb575b6108b38183610393565b810190610533565b503d6108a9565b6105ae565b61082f9195506108f161071f9160203d6020116108f9575b6108e98183610393565b8101906105c7565b9591506107f6565b503d6108df565b61091690853d87116108bb576108b38183610393565b38610786565b5061006390602081019061007d565b9050359061008a82610523565b5061006390602081019061092b565b5061006390602081019061044c565b90357fffffffffffffffffffffffffffffffffffffffffffffffffffffffffffffffe1368390030181121561007857016020813591019167ffffffffffffffff82116100785736829003831361007857565b91906101de816109bf816101e89560209181520190565b8095610459565b90610063906080610a47610a3d60a084016109eb6109e4888061091c565b8690610272565b610a026109fb6020890189610938565b6020870152565b610a22610a126040890189610947565b6001600160a01b03166040870152565b610a2f6060880188610956565b9086830360608801526109a8565b9482810190610938565b910152565b6020808252610063929101906109c6565b610063610a6960405190565b8092610a79602083019182610a4c565b90810382520382610393565b61006360a06103ba565b610a97610a85565b60008082526020820181905260408201819052606080830152608082015290565b610063610a8f565b91909160a08184031261007857610ad760a06103ba565b92610ae2818361007d565b8452610af1816020840161092b565b6020850152610b03816040840161044c565b6040850152606082013567ffffffffffffffff81116100785782610b2e83608093610b39960161048f565b60608701520161092b565b6080830152565b9060208282031261007857813567ffffffffffffffff8111610078576100639201610ac0565b61006391610b72610ab8565b50810190610b40565b610063916040810191610bac90610ba2610b958280610947565b6001600160a01b03168452565b6020810190610956565b9160208185039101526109a8565b602080825261006392910190610b7b565b610063610bd760405190565b8092610a79602083019182610bba565b610c2c610c3b61008a92610bfa60405190565b9283916004602084017f41304fac000000000000000000000000000000000000000000000000000000008152016101ec565b60208201810382520382610393565b61008a906001610c97565b60008091610c5c6a636f6e736f6c652e6c6f6790565b602082519201905afa50565b7f4e487b7100000000000000000000000000000000000000000000000000000000600052605160045260246000fd5b600103610c685761008a90610c4656fea2646970667358221220703d176f8e130463a26dc59f39ef81cb409847fb51c7d46559d3596c6124bbb764736f6c634300081c0033",
    "linkReferences": {},
    "deployedLinkReferences": {}
}