{
    "_format": "hh-sol-artifact-1",
    "contractName": "Synthesis",
    "sourceName": "contracts/synth-core/Synthesis.sol",
    "abi": [
        {
            "anonymous": false,
            "inputs": [
                {
                    "indexed": false,
                    "internalType": "bytes32",
                    "name": "id",
                    "type": "bytes32"
                },
                {
                    "indexed": true,
                    "internalType": "address",
                    "name": "from",
                    "type": "address"
                },
                {
                    "indexed": true,
                    "internalType": "uint256",
                    "name": "chainID",
                    "type": "uint256"
                },
                {
                    "indexed": true,
                    "internalType": "address",
                    "name": "revertableAddress",
                    "type": "address"
                },
                {
                    "indexed": false,
                    "internalType": "address",
                    "name": "to",
                    "type": "address"
                },
                {
                    "indexed": false,
                    "internalType": "uint256",
                    "name": "amount",
                    "type": "uint256"
                },
                {
                    "indexed": false,
                    "internalType": "address",
                    "name": "token",
                    "type": "address"
                }
            ],
            "name": "BurnRequest",
            "type": "event"
        },
        {
            "anonymous": false,
            "inputs": [
                {
                    "indexed": false,
                    "internalType": "bytes32",
                    "name": "requestId",
                    "type": "bytes32"
                },
                {
                    "indexed": true,
                    "internalType": "bytes32",
                    "name": "clientId",
                    "type": "bytes32"
                }
            ],
            "name": "ClientIdLog",
            "type": "event"
        },
        {
            "anonymous": false,
            "inputs": [
                {
                    "indexed": true,
                    "internalType": "address",
                    "name": "previousOwner",
                    "type": "address"
                },
                {
                    "indexed": true,
                    "internalType": "address",
                    "name": "newOwner",
                    "type": "address"
                }
            ],
            "name": "OwnershipTransferred",
            "type": "event"
        },
        {
            "anonymous": false,
            "inputs": [
                {
                    "indexed": false,
                    "internalType": "address",
                    "name": "account",
                    "type": "address"
                }
            ],
            "name": "Paused",
            "type": "event"
        },
        {
            "anonymous": false,
            "inputs": [
                {
                    "indexed": false,
                    "internalType": "bytes32",
                    "name": "externalID",
                    "type": "bytes32"
                },
                {
                    "indexed": false,
                    "internalType": "address",
                    "name": "recipient",
                    "type": "address"
                },
                {
                    "indexed": false,
                    "internalType": "bytes32",
                    "name": "internalId",
                    "type": "bytes32"
                },
                {
                    "indexed": true,
                    "internalType": "address",
                    "name": "from",
                    "type": "address"
                },
                {
                    "indexed": true,
                    "internalType": "uint256",
                    "name": "chainID",
                    "type": "uint256"
                },
                {
                    "indexed": true,
                    "internalType": "address",
                    "name": "revertableAddress",
                    "type": "address"
                },
                {
                    "indexed": false,
                    "internalType": "address",
                    "name": "to",
                    "type": "address"
                },
                {
                    "indexed": false,
                    "internalType": "uint256",
                    "name": "amount",
                    "type": "uint256"
                },
                {
                    "indexed": false,
                    "internalType": "address",
                    "name": "token",
                    "type": "address"
                }
            ],
            "name": "RevertBurnAndBurnRequest",
            "type": "event"
        },
        {
            "anonymous": false,
            "inputs": [
                {
                    "indexed": true,
                    "internalType": "bytes32",
                    "name": "id",
                    "type": "bytes32"
                },
                {
                    "indexed": true,
                    "internalType": "address",
                    "name": "to",
                    "type": "address"
                },
                {
                    "indexed": false,
                    "internalType": "uint256",
                    "name": "amount",
                    "type": "uint256"
                },
                {
                    "indexed": false,
                    "internalType": "uint256",
                    "name": "bridgingFee",
                    "type": "uint256"
                },
                {
                    "indexed": false,
                    "internalType": "address",
                    "name": "token",
                    "type": "address"
                }
            ],
            "name": "RevertBurnCompleted",
            "type": "event"
        },
        {
            "anonymous": false,
            "inputs": [
                {
                    "indexed": true,
                    "internalType": "bytes32",
                    "name": "id",
                    "type": "bytes32"
                },
                {
                    "indexed": true,
                    "internalType": "address",
                    "name": "to",
                    "type": "address"
                }
            ],
            "name": "RevertSynthesizeRequest",
            "type": "event"
        },
        {
            "anonymous": false,
            "inputs": [
                {
                    "indexed": false,
                    "internalType": "address",
                    "name": "fabric",
                    "type": "address"
                }
            ],
            "name": "SetFabric",
            "type": "event"
        },
        {
            "anonymous": false,
            "inputs": [
                {
                    "indexed": false,
                    "internalType": "address",
                    "name": "metaRouter",
                    "type": "address"
                }
            ],
            "name": "SetMetaRouter",
            "type": "event"
        },
        {
            "anonymous": false,
            "inputs": [
                {
                    "indexed": false,
                    "internalType": "address",
                    "name": "token",
                    "type": "address"
                },
                {
                    "indexed": false,
                    "internalType": "uint256",
                    "name": "threshold",
                    "type": "uint256"
                }
            ],
            "name": "SetTokenThreshold",
            "type": "event"
        },
        {
            "anonymous": false,
            "inputs": [
                {
                    "indexed": true,
                    "internalType": "bytes32",
                    "name": "id",
                    "type": "bytes32"
                },
                {
                    "indexed": true,
                    "internalType": "address",
                    "name": "to",
                    "type": "address"
                },
                {
                    "indexed": false,
                    "internalType": "uint256",
                    "name": "amount",
                    "type": "uint256"
                },
                {
                    "indexed": false,
                    "internalType": "uint256",
                    "name": "bridgingFee",
                    "type": "uint256"
                },
                {
                    "indexed": false,
                    "internalType": "address",
                    "name": "token",
                    "type": "address"
                }
            ],
            "name": "SynthesizeCompleted",
            "type": "event"
        },
        {
            "anonymous": false,
            "inputs": [
                {
                    "indexed": false,
                    "internalType": "address",
                    "name": "account",
                    "type": "address"
                }
            ],
            "name": "Unpaused",
            "type": "event"
        },
        {
            "inputs": [],
            "name": "bridge",
            "outputs": [
                {
                    "internalType": "address",
                    "name": "",
                    "type": "address"
                }
            ],
            "stateMutability": "view",
            "type": "function"
        },
        {
            "inputs": [
                {
                    "internalType": "uint256",
                    "name": "_stableBridgingFee",
                    "type": "uint256"
                },
                {
                    "internalType": "address",
                    "name": "_stoken",
                    "type": "address"
                },
                {
                    "internalType": "uint256",
                    "name": "_amount",
                    "type": "uint256"
                },
                {
                    "internalType": "address",
                    "name": "_chain2address",
                    "type": "address"
                },
                {
                    "internalType": "address",
                    "name": "_receiveSide",
                    "type": "address"
                },
                {
                    "internalType": "address",
                    "name": "_oppositeBridge",
                    "type": "address"
                },
                {
                    "internalType": "address",
                    "name": "_revertableAddress",
                    "type": "address"
                },
                {
                    "internalType": "uint256",
                    "name": "_chainID",
                    "type": "uint256"
                },
                {
                    "internalType": "bytes32",
                    "name": "_clientID",
                    "type": "bytes32"
                }
            ],
            "name": "burnSyntheticToken",
            "outputs": [
                {
                    "internalType": "bytes32",
                    "name": "internalID",
                    "type": "bytes32"
                }
            ],
            "stateMutability": "nonpayable",
            "type": "function"
        },
        {
            "inputs": [],
            "name": "fabric",
            "outputs": [
                {
                    "internalType": "address",
                    "name": "",
                    "type": "address"
                }
            ],
            "stateMutability": "view",
            "type": "function"
        },
        {
            "inputs": [
                {
                    "internalType": "address",
                    "name": "_bridge",
                    "type": "address"
                },
                {
                    "internalType": "address",
                    "name": "_trustedForwarder",
                    "type": "address"
                },
                {
                    "internalType": "contract IMetaRouter",
                    "name": "_metaRouter",
                    "type": "address"
                }
            ],
            "name": "initialize",
            "outputs": [],
            "stateMutability": "nonpayable",
            "type": "function"
        },
        {
            "inputs": [
                {
                    "internalType": "address",
                    "name": "forwarder",
                    "type": "address"
                }
            ],
            "name": "isTrustedForwarder",
            "outputs": [
                {
                    "internalType": "bool",
                    "name": "",
                    "type": "bool"
                }
            ],
            "stateMutability": "view",
            "type": "function"
        },
        {
            "inputs": [
                {
                    "components": [
                        {
                            "internalType": "uint256",
                            "name": "stableBridgingFee",
                            "type": "uint256"
                        },
                        {
                            "internalType": "uint256",
                            "name": "amount",
                            "type": "uint256"
                        },
                        {
                            "internalType": "address",
                            "name": "syntCaller",
                            "type": "address"
                        },
                        {
                            "internalType": "address",
                            "name": "finalReceiveSide",
                            "type": "address"
                        },
                        {
                            "internalType": "address",
                            "name": "sToken",
                            "type": "address"
                        },
                        {
                            "internalType": "bytes",
                            "name": "finalCallData",
                            "type": "bytes"
                        },
                        {
                            "internalType": "uint256",
                            "name": "finalOffset",
                            "type": "uint256"
                        },
                        {
                            "internalType": "address",
                            "name": "chain2address",
                            "type": "address"
                        },
                        {
                            "internalType": "address",
                            "name": "receiveSide",
                            "type": "address"
                        },
                        {
                            "internalType": "address",
                            "name": "oppositeBridge",
                            "type": "address"
                        },
                        {
                            "internalType": "address",
                            "name": "revertableAddress",
                            "type": "address"
                        },
                        {
                            "internalType": "uint256",
                            "name": "chainID",
                            "type": "uint256"
                        },
                        {
                            "internalType": "bytes32",
                            "name": "clientID",
                            "type": "bytes32"
                        }
                    ],
                    "internalType": "struct MetaRouteStructs.MetaBurnTransaction",
                    "name": "_metaBurnTransaction",
                    "type": "tuple"
                }
            ],
            "name": "metaBurnSyntheticToken",
            "outputs": [
                {
                    "internalType": "bytes32",
                    "name": "internalID",
                    "type": "bytes32"
                }
            ],
            "stateMutability": "nonpayable",
            "type": "function"
        },
        {
            "inputs": [
                {
                    "components": [
                        {
                            "internalType": "uint256",
                            "name": "stableBridgingFee",
                            "type": "uint256"
                        },
                        {
                            "internalType": "uint256",
                            "name": "amount",
                            "type": "uint256"
                        },
                        {
                            "internalType": "bytes32",
                            "name": "externalID",
                            "type": "bytes32"
                        },
                        {
                            "internalType": "address",
                            "name": "tokenReal",
                            "type": "address"
                        },
                        {
                            "internalType": "uint256",
                            "name": "chainID",
                            "type": "uint256"
                        },
                        {
                            "internalType": "address",
                            "name": "to",
                            "type": "address"
                        },
                        {
                            "internalType": "address[]",
                            "name": "swapTokens",
                            "type": "address[]"
                        },
                        {
                            "internalType": "address",
                            "name": "secondDexRouter",
                            "type": "address"
                        },
                        {
                            "internalType": "bytes",
                            "name": "secondSwapCalldata",
                            "type": "bytes"
                        },
                        {
                            "internalType": "address",
                            "name": "finalReceiveSide",
                            "type": "address"
                        },
                        {
                            "internalType": "bytes",
                            "name": "finalCalldata",
                            "type": "bytes"
                        },
                        {
                            "internalType": "uint256",
                            "name": "finalOffset",
                            "type": "uint256"
                        }
                    ],
                    "internalType": "struct MetaRouteStructs.MetaMintTransaction",
                    "name": "_metaMintTransaction",
                    "type": "tuple"
                }
            ],
            "name": "metaMintSyntheticToken",
            "outputs": [],
            "stateMutability": "nonpayable",
            "type": "function"
        },
        {
            "inputs": [],
            "name": "metaRouter",
            "outputs": [
                {
                    "internalType": "contract IMetaRouter",
                    "name": "",
                    "type": "address"
                }
            ],
            "stateMutability": "view",
            "type": "function"
        },
        {
            "inputs": [
                {
                    "internalType": "uint256",
                    "name": "_stableBridgingFee",
                    "type": "uint256"
                },
                {
                    "internalType": "bytes32",
                    "name": "_externalID",
                    "type": "bytes32"
                },
                {
                    "internalType": "address",
                    "name": "_tokenReal",
                    "type": "address"
                },
                {
                    "internalType": "uint256",
                    "name": "_chainID",
                    "type": "uint256"
                },
                {
                    "internalType": "uint256",
                    "name": "_amount",
                    "type": "uint256"
                },
                {
                    "internalType": "address",
                    "name": "_to",
                    "type": "address"
                }
            ],
            "name": "mintSyntheticToken",
            "outputs": [],
            "stateMutability": "nonpayable",
            "type": "function"
        },
        {
            "inputs": [],
            "name": "owner",
            "outputs": [
                {
                    "internalType": "address",
                    "name": "",
                    "type": "address"
                }
            ],
            "stateMutability": "view",
            "type": "function"
        },
        {
            "inputs": [],
            "name": "pause",
            "outputs": [],
            "stateMutability": "nonpayable",
            "type": "function"
        },
        {
            "inputs": [],
            "name": "paused",
            "outputs": [
                {
                    "internalType": "bool",
                    "name": "",
                    "type": "bool"
                }
            ],
            "stateMutability": "view",
            "type": "function"
        },
        {
            "inputs": [],
            "name": "renounceOwnership",
            "outputs": [],
            "stateMutability": "nonpayable",
            "type": "function"
        },
        {
            "inputs": [],
            "name": "requestCount",
            "outputs": [
                {
                    "internalType": "uint256",
                    "name": "",
                    "type": "uint256"
                }
            ],
            "stateMutability": "view",
            "type": "function"
        },
        {
            "inputs": [
                {
                    "internalType": "bytes32",
                    "name": "",
                    "type": "bytes32"
                }
            ],
            "name": "requests",
            "outputs": [
                {
                    "internalType": "address",
                    "name": "recipient",
                    "type": "address"
                },
                {
                    "internalType": "address",
                    "name": "chain2address",
                    "type": "address"
                },
                {
                    "internalType": "uint256",
                    "name": "amount",
                    "type": "uint256"
                },
                {
                    "internalType": "address",
                    "name": "token",
                    "type": "address"
                },
                {
                    "internalType": "address",
                    "name": "stoken",
                    "type": "address"
                },
                {
                    "internalType": "enum Synthesis.RequestState",
                    "name": "state",
                    "type": "uint8"
                }
            ],
            "stateMutability": "view",
            "type": "function"
        },
        {
            "inputs": [
                {
                    "internalType": "uint256",
                    "name": "_stableBridgingFee",
                    "type": "uint256"
                },
                {
                    "internalType": "bytes32",
                    "name": "_externalID",
                    "type": "bytes32"
                }
            ],
            "name": "revertBurn",
            "outputs": [],
            "stateMutability": "nonpayable",
            "type": "function"
        },
        {
            "inputs": [
                {
                    "internalType": "uint256",
                    "name": "_stableBridgingFee",
                    "type": "uint256"
                },
                {
                    "internalType": "bytes32",
                    "name": "_externalID",
                    "type": "bytes32"
                },
                {
                    "internalType": "address",
                    "name": "_receiveSide",
                    "type": "address"
                },
                {
                    "internalType": "address",
                    "name": "_oppositeBridge",
                    "type": "address"
                },
                {
                    "internalType": "uint256",
                    "name": "_chainID",
                    "type": "uint256"
                },
                {
                    "internalType": "address",
                    "name": "_revertableAddress",
                    "type": "address"
                }
            ],
            "name": "revertBurnAndBurn",
            "outputs": [],
            "stateMutability": "nonpayable",
            "type": "function"
        },
        {
            "inputs": [
                {
                    "internalType": "uint256",
                    "name": "_stableBridgingFee",
                    "type": "uint256"
                },
                {
                    "internalType": "bytes32",
                    "name": "_externalID",
                    "type": "bytes32"
                },
                {
                    "internalType": "address",
                    "name": "_router",
                    "type": "address"
                },
                {
                    "internalType": "bytes",
                    "name": "_swapCalldata",
                    "type": "bytes"
                },
                {
                    "internalType": "address",
                    "name": "_synthesis",
                    "type": "address"
                },
                {
                    "internalType": "address",
                    "name": "_burnToken",
                    "type": "address"
                },
                {
                    "internalType": "bytes",
                    "name": "_burnCalldata",
                    "type": "bytes"
                }
            ],
            "name": "revertMetaBurn",
            "outputs": [],
            "stateMutability": "nonpayable",
            "type": "function"
        },
        {
            "inputs": [
                {
                    "internalType": "uint256",
                    "name": "_stableBridgingFee",
                    "type": "uint256"
                },
                {
                    "internalType": "bytes32",
                    "name": "_internalID",
                    "type": "bytes32"
                },
                {
                    "internalType": "address",
                    "name": "_receiveSide",
                    "type": "address"
                },
                {
                    "internalType": "address",
                    "name": "_oppositeBridge",
                    "type": "address"
                },
                {
                    "internalType": "uint256",
                    "name": "_chainID",
                    "type": "uint256"
                },
                {
                    "internalType": "bytes32",
                    "name": "_clientID",
                    "type": "bytes32"
                }
            ],
            "name": "revertSynthesizeRequest",
            "outputs": [],
            "stateMutability": "nonpayable",
            "type": "function"
        },
        {
            "inputs": [
                {
                    "internalType": "uint256",
                    "name": "_stableBridgingFee",
                    "type": "uint256"
                },
                {
                    "internalType": "bytes32",
                    "name": "_internalID",
                    "type": "bytes32"
                },
                {
                    "internalType": "address",
                    "name": "_receiveSide",
                    "type": "address"
                },
                {
                    "internalType": "address",
                    "name": "_oppositeBridge",
                    "type": "address"
                },
                {
                    "internalType": "uint256",
                    "name": "_chainID",
                    "type": "uint256"
                },
                {
                    "internalType": "address",
                    "name": "_sender",
                    "type": "address"
                },
                {
                    "internalType": "bytes32",
                    "name": "_clientID",
                    "type": "bytes32"
                }
            ],
            "name": "revertSynthesizeRequestByBridge",
            "outputs": [],
            "stateMutability": "nonpayable",
            "type": "function"
        },
        {
            "inputs": [
                {
                    "internalType": "address",
                    "name": "_fabric",
                    "type": "address"
                }
            ],
            "name": "setFabric",
            "outputs": [],
            "stateMutability": "nonpayable",
            "type": "function"
        },
        {
            "inputs": [
                {
                    "internalType": "contract IMetaRouter",
                    "name": "_metaRouter",
                    "type": "address"
                }
            ],
            "name": "setMetaRouter",
            "outputs": [],
            "stateMutability": "nonpayable",
            "type": "function"
        },
        {
            "inputs": [
                {
                    "internalType": "address",
                    "name": "_token",
                    "type": "address"
                },
                {
                    "internalType": "uint256",
                    "name": "_threshold",
                    "type": "uint256"
                }
            ],
            "name": "setTokenThreshold",
            "outputs": [],
            "stateMutability": "nonpayable",
            "type": "function"
        },
        {
            "inputs": [
                {
                    "internalType": "bytes32",
                    "name": "",
                    "type": "bytes32"
                }
            ],
            "name": "synthesizeStates",
            "outputs": [
                {
                    "internalType": "enum Synthesis.SynthesizeState",
                    "name": "",
                    "type": "uint8"
                }
            ],
            "stateMutability": "view",
            "type": "function"
        },
        {
            "inputs": [
                {
                    "internalType": "address",
                    "name": "",
                    "type": "address"
                }
            ],
            "name": "tokenThreshold",
            "outputs": [
                {
                    "internalType": "uint256",
                    "name": "",
                    "type": "uint256"
                }
            ],
            "stateMutability": "view",
            "type": "function"
        },
        {
            "inputs": [
                {
                    "internalType": "address",
                    "name": "newOwner",
                    "type": "address"
                }
            ],
            "name": "transferOwnership",
            "outputs": [],
            "stateMutability": "nonpayable",
            "type": "function"
        },
        {
            "inputs": [],
            "name": "unpause",
            "outputs": [],
            "stateMutability": "nonpayable",
            "type": "function"
        },
        {
            "inputs": [],
            "name": "versionRecipient",
            "outputs": [
                {
                    "internalType": "string",
                    "name": "",
                    "type": "string"
                }
            ],
            "stateMutability": "pure",
            "type": "function"
        }
    ],
    "bytecode": "0x608060405234801561001057600080fd5b50614546806100206000396000f3fe608060405234801561001057600080fd5b50600436106101c45760003560e01c8063a216b5a6116100f9578063dbec15bb11610097578063e78cea9211610071578063e78cea921461045b578063eadd5c3414610473578063f2fde38b14610486578063f70519ae1461049957600080fd5b8063dbec15bb14610422578063dd8c903914610435578063e691a2aa1461044857600080fd5b8063c4a588f8116100d3578063c4a588f8146103b9578063cbef5f2c146103cc578063d23fd796146103df578063d5f8fbcb1461040f57600080fd5b8063a216b5a614610380578063b236d3f314610393578063c0c53b8b146103a657600080fd5b806368775278116101665780638456cb59116101405780638456cb59146102ea5780638bb39802146102f25780638da5cb5b146103055780639d8669851461031657600080fd5b806368775278146102af578063715018a6146102cf5780637819d8af146102d757600080fd5b806359514893116101a2578063595148931461024d5780635badbe4c146102605780635c975abb146102775780635d176f2f1461028457600080fd5b80633f4ba83a146101c9578063486ff0cd146101d3578063572b6c051461021b575b600080fd5b6101d16104ac565b005b604080518082018252600581527f322e302e31000000000000000000000000000000000000000000000000000000602082015290516102129190614169565b60405180910390f35b61023d6102293660046139dd565b6065546001600160a01b0391821691161490565b6040519015158152602001610212565b6101d161025b366004613de6565b61057a565b61026960665481565b604051908152602001610212565b60675461023d9060ff1681565b606854610297906001600160a01b031681565b6040516001600160a01b039091168152602001610212565b6102696102bd3660046139dd565b606b6020526000908152604090205481565b6101d1610c3e565b6101d16102e5366004613ea9565b610cc3565b6101d16110c4565b6101d1610300366004613a69565b611173565b6033546001600160a01b0316610297565b61036e610324366004613ab7565b606a60205260009081526040902080546001820154600283015460038401546004909401546001600160a01b0393841694928416939192821691811690600160a01b900460ff1686565b60405161021296959493929190614071565b6101d161038e366004613de6565b611244565b6101d16103a1366004613f6a565b611512565b6101d16103b4366004613a1e565b611905565b6101d16103c7366004613e4d565b611a76565b6102696103da366004613d2c565b611d24565b6104026103ed366004613ab7565b60696020526000908152604090205460ff1681565b6040516102129190614156565b6101d161041d366004613bf6565b6122ad565b606c54610297906001600160a01b031681565b6101d16104433660046139dd565b6127c9565b610269610456366004613ad0565b6128fd565b6067546102979061010090046001600160a01b031681565b6101d16104813660046139dd565b612f27565b6101d16104943660046139dd565b613077565b6101d16104a7366004613dc4565b613175565b6104b4613483565b6001600160a01b03166104cf6033546001600160a01b031690565b6001600160a01b03161461052a5760405162461bcd60e51b815260206004820181905260248201527f4f776e61626c653a2063616c6c6572206973206e6f7420746865206f776e657260448201526064015b60405180910390fd5b6067805460ff191690557f5db9ee0a495bf2e6ff9c91a7834c1ba4fdd244a5e8aa4e537bd38aeae4b073aa61055d613483565b6040516001600160a01b03909116815260200160405180910390a1565b60675461010090046001600160a01b031633146105d95760405162461bcd60e51b815260206004820152601e60248201527f53796d623a2063616c6c6572206973206e6f74207468652062726964676500006044820152606401610521565b60675460ff161561061b5760405162461bcd60e51b815260206004820152600c60248201526b14de5b588e881c185d5cd95960a21b6044820152606401610521565b6000858152606a6020526040902060016004820154600160a01b900460ff16600281111561064b5761064b6143f6565b146106be5760405162461bcd60e51b815260206004820152602960248201527f53796d623a207374617465206e6f74206f70656e206f7220747820646f65732060448201527f6e6f7420657869737400000000000000000000000000000000000000000000006064820152608401610521565b60048181018054740200000000000000000000000000000000000000007fffffffffffffffffffffff00ffffffffffffffffffffffffffffffffffffffff8216179091556068546067546040516339240a7f60e21b81526001600160a01b03610100909204821694810194909452602484018b90529182166044840152169063e49029fc90606401600060405180830381600087803b15801561076057600080fd5b505af1158015610774573d6000803e3d6000fd5b50505050600087826002015461078a9190614364565b8254600484015460408051848152602081018d90526001600160a01b0392831681830152905193945091169189917fb6f5f7b98cc78a8031c967af163a8c197f470a35df1e326a9038859679e6a184919081900360600190a36001600160a01b0383166108025760018201546001600160a01b031692505b60685460048381015460405163161acb4760e01b81526001600160a01b0391821692810192909252600092169063161acb479060240160206040518083038186803b15801561085057600080fd5b505afa158015610864573d6000803e3d6000fd5b505050506040513d601f19601f820116820180604052508101906108889190613a01565b6066546040516bffffffffffffffffffffffff193060601b166020820152603481019190915246605482015290915060009060740160408051601f1981840301815282825280516020918201209083018190526bffffffffffffffffffffffff1960608c811b8216938501939093529188901b909116605483015260688201889052915060009060880160405160208183030381529060405280519060200120905060006040518060600160405280603581526020016144bb6035913980516020909101206001870154604051602481018f9052604481018590526001600160a01b0380881660648301526084820189905290911660a482015260c40160408051601f198184030181529181526020820180516001600160e01b03166001600160e01b031990941693909317909252815160c081019092529150806109cb613483565b6001600160a01b0390811682526001808a01548216602084015260408301899052878216606084015260048a0154909116608083015260a0909101526000838152606a60209081526040918290208351815473ffffffffffffffffffffffffffffffffffffffff199081166001600160a01b039283161783559285015160018301805485169183169190911790559284015160028083019190915560608501516003830180548516918616919091179055608085015160048301805494851691909516908117855560a0860151929492937fffffffffffffffffffffff000000000000000000000000000000000000000000161790600160a01b908490811115610ad757610ad76143f6565b0217905550506066805491506000610aee836143a7565b9091555050606754604051633675e4e160e11b81526101009091046001600160a01b031690636cebc9c290610b2d9084908e908e908e90600401614120565b600060405180830381600087803b158015610b4757600080fd5b505af1158015610b5b573d6000803e3d6000fd5b50505050866001600160a01b031688610b72613483565b6001600160a01b03167fbb489fd7a24b7ce88472f3f93f7ebf9eddf34dedbe74f94943112eefac19d48d8e8a60000160009054906101000a90046001600160a01b0316888c60010160009054906101000a90046001600160a01b03168c8e60040160009054906101000a90046001600160a01b0316604051610c28969594939291909586526001600160a01b0394851660208701526040860193909352908316606085015260808401521660a082015260c00190565b60405180910390a4505050505050505050505050565b610c46613483565b6001600160a01b0316610c616033546001600160a01b031690565b6001600160a01b031614610cb75760405162461bcd60e51b815260206004820181905260248201527f4f776e61626c653a2063616c6c6572206973206e6f7420746865206f776e65726044820152606401610521565b610cc160006134c9565b565b60675461010090046001600160a01b03163314610d225760405162461bcd60e51b815260206004820152601e60248201527f53796d623a2063616c6c6572206973206e6f74207468652062726964676500006044820152606401610521565b60675460ff1615610d645760405162461bcd60e51b815260206004820152600c60248201526b14de5b588e881c185d5cd95960a21b6044820152606401610521565b6000888152606a6020526040902060016004820154600160a01b900460ff166002811115610d9457610d946143f6565b14610e075760405162461bcd60e51b815260206004820152602960248201527f53796d623a207374617465206e6f74206f70656e206f7220747820646f65732060448201527f6e6f7420657869737400000000000000000000000000000000000000000000006064820152608401610521565b6004810180547fffffffffffffffffffffff00ffffffffffffffffffffffffffffffffffffffff1674020000000000000000000000000000000000000000179055606854815460028301546001600160a01b039283169263e49029fc921690610e71908e90614364565b60048581015460405160e086901b6001600160e01b03191681526001600160a01b0394851692810192909252602482019290925291166044820152606401600060405180830381600087803b158015610ec957600080fd5b505af1158015610edd573d6000803e3d6000fd5b50505050606860009054906101000a90046001600160a01b03166001600160a01b031663e49029fc606760019054906101000a90046001600160a01b03168c8460040160009054906101000a90046001600160a01b03166040518463ffffffff1660e01b8152600401610f70939291906001600160a01b0393841681526020810192909252909116604082015260600190565b600060405180830381600087803b158015610f8a57600080fd5b505af1158015610f9e573d6000803e3d6000fd5b5050606c54600484015460028501546001600160a01b03928316945063732cffe99350911690610fcf908e90614364565b8b8b8b8a8c8b8b6040518a63ffffffff1660e01b8152600401610ffa999897969594939291906140ba565b600060405180830381600087803b15801561101457600080fd5b505af1158015611028573d6000803e3d6000fd5b5050825460028401546001600160a01b0390911692508b91507fb6f5f7b98cc78a8031c967af163a8c197f470a35df1e326a9038859679e6a1849061106e908e90614364565b8d8560040160009054906101000a90046001600160a01b03166040516110b09392919092835260208301919091526001600160a01b0316604082015260600190565b60405180910390a350505050505050505050565b6110cc613483565b6001600160a01b03166110e76033546001600160a01b031690565b6001600160a01b03161461113d5760405162461bcd60e51b815260206004820181905260248201527f4f776e61626c653a2063616c6c6572206973206e6f7420746865206f776e65726044820152606401610521565b6067805460ff191660011790557f62e78cea01bee320cd4e420270b5ea74000d11b0c9f74754ebdbfc544b05a25861055d613483565b61117b613483565b6001600160a01b03166111966033546001600160a01b031690565b6001600160a01b0316146111ec5760405162461bcd60e51b815260206004820181905260248201527f4f776e61626c653a2063616c6c6572206973206e6f7420746865206f776e65726044820152606401610521565b6001600160a01b0382166000818152606b6020908152604091829020849055815192835282018390527fa6742efd4f410d6fd9688a6cf6a15b6d51121097a263056a3576baaacdc4a9ae910160405180910390a15050565b60675460ff16156112865760405162461bcd60e51b815260206004820152600c60248201526b14de5b588e881c185d5cd95960a21b6044820152606401610521565b60675461010090046001600160a01b031633146112e55760405162461bcd60e51b815260206004820152601e60248201527f53796d623a2063616c6c6572206973206e6f74207468652062726964676500006044820152606401610521565b60408051602081018790526bffffffffffffffffffffffff1930606090811b8216938301939093529183901b909116605482015246606882015260009060880160408051601f1981840301815291905280516020909101209050600160008281526069602052604090205460ff166002811115611364576113646143f6565b14156113d85760405162461bcd60e51b815260206004820152602560248201527f53796d623a2073796e74686574696320746f6b656e7320616c7265616479206d60448201527f696e7465640000000000000000000000000000000000000000000000000000006064820152608401610521565b6000818152606960209081526040808320805460ff19166002179055805160608101909152602180825290916144f0908301398051602090910120604051602481018a90526044810184905260640160408051601f198184030181529181526020820180516001600160e01b03166001600160e01b0319909416939093179092526067549151633675e4e160e11b81529092506001600160a01b036101009092049190911690636cebc9c2906114989084908a908a908a90600401614120565b600060405180830381600087803b1580156114b257600080fd5b505af11580156114c6573d6000803e3d6000fd5b50505050506114d3613483565b6001600160a01b0316867f9bc8099e19706f253ae634ef1a5fb6ef84b4748c2183472905b9b2511cfa861760405160405180910390a350505050505050565b60675461010090046001600160a01b031633146115715760405162461bcd60e51b815260206004820152601e60248201527f53796d623a2063616c6c6572206973206e6f74207468652062726964676500006044820152606401610521565b60675460ff16156115b35760405162461bcd60e51b815260206004820152600c60248201526b14de5b588e881c185d5cd95960a21b6044820152606401610521565b60008581526069602052604081205460ff1660028111156115d6576115d66143f6565b1461166f5760405162461bcd60e51b815260206004820152604d60248201527f53796d623a2072657665727453796e74686573697a656452657175657374206360448201527f616c6c6564206f7220746f6b656e732068617665206265656e20616c7265616460648201527f792073796e74686573697a656400000000000000000000000000000000000000608482015260a401610521565b600085815260696020526040808220805460ff1916600117905560685490517f506890a00000000000000000000000000000000000000000000000000000000081526001600160a01b038781166004830152602482018790529091169063506890a09060440160206040518083038186803b1580156116ed57600080fd5b505afa158015611701573d6000803e3d6000fd5b505050506040513d601f19601f820116820180604052508101906117259190613a01565b90506001600160a01b0381166117a35760405162461bcd60e51b815260206004820152603460248201527f53796d623a205468657265206973206e6f2073796e7420726570726573656e7460448201527f6174696f6e20666f72207468697320746f6b656e0000000000000000000000006064820152608401610521565b6068546001600160a01b031663e49029fc836117bf8a87614364565b6040516001600160e01b031960e085901b1681526001600160a01b03928316600482015260248101919091529084166044820152606401600060405180830381600087803b15801561181057600080fd5b505af1158015611824573d6000803e3d6000fd5b50506068546067546040516339240a7f60e21b81526001600160a01b0361010090920482166004820152602481018c905285821660448201529116925063e49029fc9150606401600060405180830381600087803b15801561188557600080fd5b505af1158015611899573d6000803e3d6000fd5b50505050816001600160a01b0316867fcf9c9a943779bb691d0ed429f605107973fc5e52f4e10dffc28a1ef2d6784cb489866118d59190614364565b60408051918252602082018c90526001600160a01b038a169082015260600160405180910390a350505050505050565b600054610100900460ff166119205760005460ff1615611924565b303b155b6119965760405162461bcd60e51b815260206004820152602e60248201527f496e697469616c697a61626c653a20636f6e747261637420697320616c72656160448201527f647920696e697469616c697a65640000000000000000000000000000000000006064820152608401610521565b600054610100900460ff161580156119d557600080547fffffffffffffffffffffffffffffffffffffffffffffffffffffffffffff0000166101011790555b6119de83613528565b606780547fffffffffffffffffffffff0000000000000000000000000000000000000000ff166101006001600160a01b038781169190910291909117909155606c805473ffffffffffffffffffffffffffffffffffffffff19169184169190911790558015611a7057600080547fffffffffffffffffffffffffffffffffffffffffffffffffffffffffffff00ff1690555b50505050565b60675460ff1615611ab85760405162461bcd60e51b815260206004820152600c60248201526b14de5b588e881c185d5cd95960a21b6044820152606401610521565b60008530611ac4613483565b6040805160208101949094526bffffffffffffffffffffffff19606093841b811691850191909152911b16605482015246606882015260880160408051601f1981840301815291905280516020909101209050600160008281526069602052604090205460ff166002811115611b3c57611b3c6143f6565b1415611bb05760405162461bcd60e51b815260206004820152602560248201527f53796d623a2073796e74686574696320746f6b656e7320616c7265616479206d60448201527f696e7465640000000000000000000000000000000000000000000000000000006064820152608401610521565b6000818152606960209081526040808320805460ff19166002179055805160608101909152602180825290916144f0908301398051602090910120604051602481018a90526044810184905260640160408051601f198184030181529181526020820180516001600160e01b03166001600160e01b0319909416939093179092526067549151633675e4e160e11b81529092506001600160a01b036101009092049190911690636cebc9c290611c709084908a908a908a90600401614120565b600060405180830381600087803b158015611c8a57600080fd5b505af1158015611c9e573d6000803e3d6000fd5b5050505050611cab613483565b6001600160a01b0316867f9bc8099e19706f253ae634ef1a5fb6ef84b4748c2183472905b9b2511cfa861760405160405180910390a3817f5a297b2c9a9f94a0f4e5a796c74ad38e219d1185fccf5f79c18726a830c2b6f587604051611d1391815260200190565b60405180910390a250505050505050565b60675460009060ff1615611d695760405162461bcd60e51b815260206004820152600c60248201526b14de5b588e881c185d5cd95960a21b6044820152606401610521565b6001600160a01b0389166000908152606b6020526040902054881015611dd15760405162461bcd60e51b815260206004820152601c60248201527f53796d623a20616d6f756e7420756e646572207468726573686f6c64000000006044820152606401610521565b6068546001600160a01b031663a8160b76611dea613483565b6040516001600160e01b031960e084901b1681526001600160a01b039182166004820152602481018c9052908c166044820152606401600060405180830381600087803b158015611e3a57600080fd5b505af1158015611e4e573d6000803e3d6000fd5b505050506001600160a01b038416611e64578693505b60685460405163161acb4760e01b81526001600160a01b038b81166004830152600092169063161acb479060240160206040518083038186803b158015611eaa57600080fd5b505afa158015611ebe573d6000803e3d6000fd5b505050506040513d601f19601f82011682018060405250810190611ee29190613a01565b90506001600160a01b038116611f3a5760405162461bcd60e51b815260206004820152601460248201527f53796d623a20696e636f72726563742073796e740000000000000000000000006044820152606401610521565b6066546040516bffffffffffffffffffffffff193060601b166020820152603481019190915246605482015260740160408051601f1981840301815282825280516020918201209083018190526bffffffffffffffffffffffff1960608b811b8216938501939093529188901b909116605483015260688201869052925060009060880160405160208183030381529060405280519060200120905060006040518060600160405280603581526020016144bb603591398051602090910120604051602481018f9052604481018490526001600160a01b038086166064830152608482018e90528c1660a482015260c40160408051601f198184030181529181526020820180516001600160e01b03166001600160e01b031990941693909317909252815160c08101909252915080612071613483565b6001600160a01b0390811682528c81166020830152604082018e905285811660608301528e16608082015260a001600190526000838152606a60209081526040918290208351815473ffffffffffffffffffffffffffffffffffffffff199081166001600160a01b039283161783559285015160018301805485169183169190911790559284015160028083019190915560608501516003830180548516918616919091179055608085015160048301805494851691909516908117855560a0860151929492937fffffffffffffffffffffff000000000000000000000000000000000000000000161790600160a01b908490811115612173576121736143f6565b021790555050606680549150600061218a836143a7565b9091555050606754604051633675e4e160e11b81526101009091046001600160a01b031690636cebc9c2906121c99084908d908d908c90600401614120565b600060405180830381600087803b1580156121e357600080fd5b505af11580156121f7573d6000803e3d6000fd5b50505050505050836001600160a01b031683612211613483565b604080518581526001600160a01b038c811660208301529181018d90528d821660608201529116907f5f00e8f0d61ff1190912879949026c85a81f3f96038c7f4cd868bdfe882e0eeb9060800160405180910390a4817f5a297b2c9a9f94a0f4e5a796c74ad38e219d1185fccf5f79c18726a830c2b6f58260405161229891815260200190565b60405180910390a29998505050505050505050565b60675461010090046001600160a01b0316331461230c5760405162461bcd60e51b815260206004820152601e60248201527f53796d623a2063616c6c6572206973206e6f74207468652062726964676500006044820152606401610521565b60675460ff161561234e5760405162461bcd60e51b815260206004820152600c60248201526b14de5b588e881c185d5cd95960a21b6044820152606401610521565b600060408083015160009081526069602052205460ff166002811115612376576123766143f6565b1461240f5760405162461bcd60e51b815260206004820152604d60248201527f53796d623a2072657665727453796e74686573697a656452657175657374206360448201527f616c6c6564206f7220746f6b656e732068617665206265656e20616c7265616460648201527f792073796e74686573697a656400000000000000000000000000000000000000608482015260a401610521565b60408181015160009081526069602052818120805460ff191660011790556068546060840151608085015193517f506890a00000000000000000000000000000000000000000000000000000000081526001600160a01b0391821660048201526024810194909452919291169063506890a09060440160206040518083038186803b15801561249d57600080fd5b505afa1580156124b1573d6000803e3d6000fd5b505050506040513d601f19601f820116820180604052508101906124d59190613a01565b90506001600160a01b0381166125535760405162461bcd60e51b815260206004820152603460248201527f53796d623a205468657265206973206e6f2073796e7420726570726573656e7460448201527f6174696f6e20666f72207468697320746f6b656e0000000000000000000000006064820152608401610521565b606854825160208401516001600160a01b039092169163e49029fc91309161257b9190614364565b6040516001600160e01b031960e085901b1681526001600160a01b03928316600482015260248101919091529084166044820152606401600060405180830381600087803b1580156125cc57600080fd5b505af11580156125e0573d6000803e3d6000fd5b505060685460675485516040516339240a7f60e21b81526001600160a01b0361010090930483166004820152602481019190915285821660448201529116925063e49029fc9150606401600060405180830381600087803b15801561264457600080fd5b505af1158015612658573d6000803e3d6000fd5b50508351602085015161266e9350909150614364565b6020830181905260a08301516040808501518551606087015192516001600160a01b039094169491937fcf9c9a943779bb691d0ed429f605107973fc5e52f4e10dffc28a1ef2d6784cb4936126de93929192835260208301919091526001600160a01b0316604082015260600190565b60405180910390a360c08201515161270757612703818360a0015184602001516135ca565b5050565b6127498260c001516000815181106127215761272161440c565b6020026020010151606c60009054906101000a90046001600160a01b031684602001516135ca565b606c546040517fe1edd61c0000000000000000000000000000000000000000000000000000000081526001600160a01b039091169063e1edd61c9061279290859060040161417c565b600060405180830381600087803b1580156127ac57600080fd5b505af11580156127c0573d6000803e3d6000fd5b50505050505b50565b6127d1613483565b6001600160a01b03166127ec6033546001600160a01b031690565b6001600160a01b0316146128425760405162461bcd60e51b815260206004820181905260248201527f4f776e61626c653a2063616c6c6572206973206e6f7420746865206f776e65726044820152606401610521565b6068546001600160a01b03161561289b5760405162461bcd60e51b815260206004820152601860248201527f53796d623a2046616272696320616c72656164792073657400000000000000006044820152606401610521565b6068805473ffffffffffffffffffffffffffffffffffffffff19166001600160a01b0383169081179091556040519081527fe7258eee4870ba270f25f5a42dd11bfe5a77658959c916807b94b8e9063c3cd0906020015b60405180910390a150565b60675460009060ff16156129425760405162461bcd60e51b815260206004820152600c60248201526b14de5b588e881c185d5cd95960a21b6044820152606401610521565b60808201516001600160a01b03166000908152606b60209081526040909120549083015110156129b45760405162461bcd60e51b815260206004820152601c60248201527f53796d623a20616d6f756e7420756e646572207468726573686f6c64000000006044820152606401610521565b6068546001600160a01b031663a8160b766129cd613483565b602085015160808601516040516001600160e01b031960e086901b1681526001600160a01b0393841660048201526024810192909252919091166044820152606401600060405180830381600087803b158015612a2957600080fd5b505af1158015612a3d573d6000803e3d6000fd5b505050506101408201516001600160a01b0316612a695760e08201516001600160a01b03166101408301525b606854608083015160405163161acb4760e01b81526001600160a01b039182166004820152600092919091169063161acb479060240160206040518083038186803b158015612ab757600080fd5b505afa158015612acb573d6000803e3d6000fd5b505050506040513d601f19601f82011682018060405250810190612aef9190613a01565b90506001600160a01b038116612b475760405162461bcd60e51b815260206004820152601460248201527f53796d623a20696e636f72726563742073796e740000000000000000000000006044820152606401610521565b6066546040516bffffffffffffffffffffffff193060601b166020820152603481019190915246605482015260740160408051601f1981840301815282825280516020918201206101008701516101408801516101608901519386018390526bffffffffffffffffffffffff19606092831b811695870195909552901b90921660548401526068830152925060009060880160405160208183030381529060405280519060200120905060006040518060800160405280604f815260200161446c604f9139805190602001208560000151838760e001518860200151878a606001518b60a001518c60c00151604051602401612c4a989796959493929190614288565b604051602081830303815290604052906001600160e01b0319166020820180516001600160e01b03838183161783525050505090506040518060c0016040528086604001516001600160a01b031681526020018660e001516001600160a01b0316815260200186602001518152602001846001600160a01b0316815260200186608001516001600160a01b0316815260200160016002811115612cef57612cef6143f6565b90526000838152606a60209081526040918290208351815473ffffffffffffffffffffffffffffffffffffffff199081166001600160a01b039283161783559285015160018301805485169183169190911790559284015160028083019190915560608501516003830180548516918616919091179055608085015160048301805494851691909516908117855560a0860151929492937fffffffffffffffffffffff000000000000000000000000000000000000000000161790600160a01b908490811115612dc157612dc16143f6565b0217905550506066805491506000612dd8836143a7565b909155505060675461010086810151610120880151610160890151604051633675e4e160e11b8152939094046001600160a01b031693636cebc9c293612e2693879390929091600401614120565b600060405180830381600087803b158015612e4057600080fd5b505af1158015612e54573d6000803e3d6000fd5b505050505050508161014001516001600160a01b031682610160015183604001516001600160a01b03167f5f00e8f0d61ff1190912879949026c85a81f3f96038c7f4cd868bdfe882e0eeb848660e0015187602001518860800151604051612ee194939291909384526001600160a01b039283166020850152604084019190915216606082015260800190565b60405180910390a46101808201516040518281527f5a297b2c9a9f94a0f4e5a796c74ad38e219d1185fccf5f79c18726a830c2b6f59060200160405180910390a2919050565b612f2f613483565b6001600160a01b0316612f4a6033546001600160a01b031690565b6001600160a01b031614612fa05760405162461bcd60e51b815260206004820181905260248201527f4f776e61626c653a2063616c6c6572206973206e6f7420746865206f776e65726044820152606401610521565b6001600160a01b03811661301c5760405162461bcd60e51b815260206004820152602760248201527f53796d623a206d657461526f757465722063616e6e6f74206265207a65726f2060448201527f61646472657373000000000000000000000000000000000000000000000000006064820152608401610521565b606c805473ffffffffffffffffffffffffffffffffffffffff19166001600160a01b0383169081179091556040519081527fd5c54ab1d37bfef4dd2253d9d73c292e46f5bd8a67ca5920aab4c2e1993178e7906020016128f2565b61307f613483565b6001600160a01b031661309a6033546001600160a01b031690565b6001600160a01b0316146130f05760405162461bcd60e51b815260206004820181905260248201527f4f776e61626c653a2063616c6c6572206973206e6f7420746865206f776e65726044820152606401610521565b6001600160a01b03811661316c5760405162461bcd60e51b815260206004820152602660248201527f4f776e61626c653a206e6577206f776e657220697320746865207a65726f206160448201527f64647265737300000000000000000000000000000000000000000000000000006064820152608401610521565b6127c6816134c9565b60675461010090046001600160a01b031633146131d45760405162461bcd60e51b815260206004820152601e60248201527f53796d623a2063616c6c6572206973206e6f74207468652062726964676500006044820152606401610521565b60675460ff16156132165760405162461bcd60e51b815260206004820152600c60248201526b14de5b588e881c185d5cd95960a21b6044820152606401610521565b6000818152606a6020526040902060016004820154600160a01b900460ff166002811115613246576132466143f6565b146132b95760405162461bcd60e51b815260206004820152602960248201527f53796d623a207374617465206e6f74206f70656e206f7220747820646f65732060448201527f6e6f7420657869737400000000000000000000000000000000000000000000006064820152608401610521565b6004810180547fffffffffffffffffffffff00ffffffffffffffffffffffffffffffffffffffff1674020000000000000000000000000000000000000000179055606854815460028301546001600160a01b039283169263e49029fc921690613323908790614364565b60048581015460405160e086901b6001600160e01b03191681526001600160a01b0394851692810192909252602482019290925291166044820152606401600060405180830381600087803b15801561337b57600080fd5b505af115801561338f573d6000803e3d6000fd5b50506068546067546004858101546040516339240a7f60e21b81526001600160a01b0361010090940484169281019290925260248201899052821660448201529116925063e49029fc9150606401600060405180830381600087803b1580156133f757600080fd5b505af115801561340b573d6000803e3d6000fd5b5050825460028401546001600160a01b0390911692508491507fb6f5f7b98cc78a8031c967af163a8c197f470a35df1e326a9038859679e6a18490613451908790614364565b600485015460408051928352602083018990526001600160a01b039091169082015260600160405180910390a3505050565b6065546000906001600160a01b03163314156134c457507fffffffffffffffffffffffffffffffffffffffffffffffffffffffffffffffec36013560601c90565b503390565b603380546001600160a01b0383811673ffffffffffffffffffffffffffffffffffffffff19831681179093556040519116919082907f8be0079c531659141344cd1fd0a4f28419497f9722a3daafe3b4186f6b6457e090600090a35050565b600054610100900460ff166135935760405162461bcd60e51b815260206004820152602b60248201527f496e697469616c697a61626c653a20636f6e7472616374206973206e6f74206960448201526a6e697469616c697a696e6760a81b6064820152608401610521565b61359b613724565b6065805473ffffffffffffffffffffffffffffffffffffffff19166001600160a01b0392909216919091179055565b604080516001600160a01b038481166024830152604480830185905283518084039091018152606490920183526020820180516001600160e01b03167fa9059cbb00000000000000000000000000000000000000000000000000000000179052915160009283929087169161363f9190614055565b6000604051808303816000865af19150503d806000811461367c576040519150601f19603f3d011682016040523d82523d6000602084013e613681565b606091505b50915091508180156136ab5750805115806136ab5750808060200190518101906136ab9190613a95565b61371d5760405162461bcd60e51b815260206004820152602d60248201527f5472616e7366657248656c7065723a3a736166655472616e736665723a20747260448201527f616e73666572206661696c6564000000000000000000000000000000000000006064820152608401610521565b5050505050565b600054610100900460ff1661378f5760405162461bcd60e51b815260206004820152602b60248201527f496e697469616c697a61626c653a20636f6e7472616374206973206e6f74206960448201526a6e697469616c697a696e6760a81b6064820152608401610521565b61379761379f565b610cc161380a565b600054610100900460ff16610cc15760405162461bcd60e51b815260206004820152602b60248201527f496e697469616c697a61626c653a20636f6e7472616374206973206e6f74206960448201526a6e697469616c697a696e6760a81b6064820152608401610521565b600054610100900460ff166138755760405162461bcd60e51b815260206004820152602b60248201527f496e697469616c697a61626c653a20636f6e7472616374206973206e6f74206960448201526a6e697469616c697a696e6760a81b6064820152608401610521565b610cc1613880613483565b6134c9565b803561389081614456565b919050565b600082601f8301126138a657600080fd5b8135602067ffffffffffffffff8211156138c2576138c2614422565b8160051b6138d1828201614333565b8381528281019086840183880185018910156138ec57600080fd5b600093505b8584101561391857803561390481614456565b8352600193909301929184019184016138f1565b50979650505050505050565b60008083601f84011261393657600080fd5b50813567ffffffffffffffff81111561394e57600080fd5b60208301915083602082850101111561396657600080fd5b9250929050565b600082601f83011261397e57600080fd5b813567ffffffffffffffff81111561399857613998614422565b6139ab6020601f19601f84011601614333565b8181528460208386010111156139c057600080fd5b816020850160208301376000918101602001919091529392505050565b6000602082840312156139ef57600080fd5b81356139fa81614456565b9392505050565b600060208284031215613a1357600080fd5b81516139fa81614456565b600080600060608486031215613a3357600080fd5b8335613a3e81614456565b92506020840135613a4e81614456565b91506040840135613a5e81614456565b809150509250925092565b60008060408385031215613a7c57600080fd5b8235613a8781614456565b946020939093013593505050565b600060208284031215613aa757600080fd5b815180151581146139fa57600080fd5b600060208284031215613ac957600080fd5b5035919050565b600060208284031215613ae257600080fd5b813567ffffffffffffffff80821115613afa57600080fd5b908301906101a08286031215613b0f57600080fd5b613b176142e5565b8235815260208301356020820152613b3160408401613885565b6040820152613b4260608401613885565b6060820152613b5360808401613885565b608082015260a083013582811115613b6a57600080fd5b613b768782860161396d565b60a08301525060c083013560c0820152613b9260e08401613885565b60e08201526101009150613ba7828401613885565b828201526101209150613bbb828401613885565b828201526101409150613bcf828401613885565b91810191909152610160828101359082015261018091820135918101919091529392505050565b600060208284031215613c0857600080fd5b813567ffffffffffffffff80821115613c2057600080fd5b908301906101808286031215613c3557600080fd5b613c3d61430f565b823581526020830135602082015260408301356040820152613c6160608401613885565b606082015260808301356080820152613c7c60a08401613885565b60a082015260c083013582811115613c9357600080fd5b613c9f87828601613895565b60c083015250613cb160e08401613885565b60e08201526101008084013583811115613cca57600080fd5b613cd68882870161396d565b828401525050610120613cea818501613885565b908201526101408381013583811115613d0257600080fd5b613d0e8882870161396d565b91830191909152506101609283013592810192909252509392505050565b60008060008060008060008060006101208a8c031215613d4b57600080fd5b8935985060208a0135613d5d81614456565b975060408a0135965060608a0135613d7481614456565b955060808a0135613d8481614456565b945060a08a0135613d9481614456565b935060c08a0135613da481614456565b8093505060e08a013591506101008a013590509295985092959850929598565b60008060408385031215613dd757600080fd5b50508035926020909101359150565b60008060008060008060c08789031215613dff57600080fd5b86359550602087013594506040870135613e1881614456565b93506060870135613e2881614456565b92506080870135915060a0870135613e3f81614456565b809150509295509295509295565b60008060008060008060c08789031215613e6657600080fd5b86359550602087013594506040870135613e7f81614456565b93506060870135613e8f81614456565b9598949750929560808101359460a0909101359350915050565b600080600080600080600080600060e08a8c031215613ec757600080fd5b8935985060208a0135975060408a0135613ee081614456565b965060608a013567ffffffffffffffff80821115613efd57600080fd5b613f098d838e01613924565b909850965060808c01359150613f1e82614456565b90945060a08b013590613f3082614456565b90935060c08b01359080821115613f4657600080fd5b50613f538c828d01613924565b915080935050809150509295985092959850929598565b60008060008060008060c08789031215613f8357600080fd5b86359550602087013594506040870135613f9c81614456565b9350606087013592506080870135915060a0870135613e3f81614456565b600081518084526020808501945080840160005b83811015613ff35781516001600160a01b031687529582019590820190600101613fce565b509495945050505050565b818352818160208501375060006020828401015260006020601f19601f840116840101905092915050565b6000815180845261404181602086016020860161437b565b601f01601f19169290920160200192915050565b6000825161406781846020870161437b565b9190910192915050565b6001600160a01b03878116825286811660208301526040820186905284811660608301528316608082015260c081016140a983614438565b8260a0830152979650505050505050565b60006001600160a01b03808c1683528a6020840152808a16604084015260e060608401526140ec60e08401898b613ffe565b818816608085015281871660a085015283810360c085015261410f818688613ffe565b9d9c50505050505050505050505050565b6080815260006141336080830187614029565b6001600160a01b0395861660208401529390941660408201526060015292915050565b6020810161416383614438565b91905290565b6020815260006139fa6020830184614029565b60208152815160208201526020820151604082015260408201516060820152600060608301516141b760808401826001600160a01b03169052565b50608083015160a083015260a08301516141dc60c08401826001600160a01b03169052565b5060c08301516101808060e08501526141f96101a0850183613fba565b915060e0850151610100614217818701836001600160a01b03169052565b80870151915050601f196101208187860301818801526142378584614029565b945080880151925050610140614257818801846001600160a01b03169052565b808801519250506101608187860301818801526142748584614029565b970151959092019490945250929392505050565b60006101008a83528960208401526001600160a01b03808a166040850152886060850152808816608085015280871660a0850152508060c08401526142cf81840186614029565b9150508260e08301529998505050505050505050565b6040516101a0810167ffffffffffffffff8111828210171561430957614309614422565b60405290565b604051610180810167ffffffffffffffff8111828210171561430957614309614422565b604051601f8201601f1916810167ffffffffffffffff8111828210171561435c5761435c614422565b604052919050565b600082821015614376576143766143e0565b500390565b60005b8381101561439657818101518382015260200161437e565b83811115611a705750506000910152565b60007fffffffffffffffffffffffffffffffffffffffffffffffffffffffffffffffff8214156143d9576143d96143e0565b5060010190565b634e487b7160e01b600052601160045260246000fd5b634e487b7160e01b600052602160045260246000fd5b634e487b7160e01b600052603260045260246000fd5b634e487b7160e01b600052604160045260246000fd5b600381106127c657634e487b7160e01b600052602160045260246000fd5b6001600160a01b03811681146127c657600080fdfe6d657461556e73796e74686573697a652875696e743235362c627974657333322c616464726573732c75696e743235362c616464726573732c616464726573732c62797465732c75696e7432353629756e73796e74686573697a652875696e743235362c627974657333322c616464726573732c75696e743235362c616464726573732972657665727453796e74686573697a652875696e743235362c6279746573333229a264697066735822122093205d1394f5270e48dad0da96e3ca6f14bcdf279071b0425811629f4af28d9a64736f6c63430008070033",
    "linkReferences": {},
    "deployedLinkReferences": {}
}