{
    "_format": "hh-sol-artifact-1",
    "contractName": "Synthesis",
    "sourceName": "contracts/synth-contracts/Synthesis.sol",
    "abi": [
        {
            "anonymous": false,
            "inputs": [
                {
                    "indexed": false,
                    "internalType": "bytes32",
                    "name": "id",
                    "type": "bytes32"
                },
                {
                    "indexed": true,
                    "internalType": "address",
                    "name": "from",
                    "type": "address"
                },
                {
                    "indexed": true,
                    "internalType": "uint256",
                    "name": "chainID",
                    "type": "uint256"
                },
                {
                    "indexed": true,
                    "internalType": "address",
                    "name": "revertableAddress",
                    "type": "address"
                },
                {
                    "indexed": false,
                    "internalType": "address",
                    "name": "to",
                    "type": "address"
                },
                {
                    "indexed": false,
                    "internalType": "uint256",
                    "name": "amount",
                    "type": "uint256"
                },
                {
                    "indexed": false,
                    "internalType": "address",
                    "name": "token",
                    "type": "address"
                }
            ],
            "name": "BurnRequest",
            "type": "event"
        },
        {
            "anonymous": false,
            "inputs": [
                {
                    "indexed": true,
                    "internalType": "address",
                    "name": "previousOwner",
                    "type": "address"
                },
                {
                    "indexed": true,
                    "internalType": "address",
                    "name": "newOwner",
                    "type": "address"
                }
            ],
            "name": "OwnershipTransferred",
            "type": "event"
        },
        {
            "anonymous": false,
            "inputs": [
                {
                    "indexed": true,
                    "internalType": "bytes32",
                    "name": "id",
                    "type": "bytes32"
                },
                {
                    "indexed": true,
                    "internalType": "address",
                    "name": "to",
                    "type": "address"
                },
                {
                    "indexed": false,
                    "internalType": "uint256",
                    "name": "amount",
                    "type": "uint256"
                },
                {
                    "indexed": false,
                    "internalType": "uint256",
                    "name": "bridgingFee",
                    "type": "uint256"
                },
                {
                    "indexed": false,
                    "internalType": "address",
                    "name": "token",
                    "type": "address"
                }
            ],
            "name": "RevertBurnCompleted",
            "type": "event"
        },
        {
            "anonymous": false,
            "inputs": [
                {
                    "indexed": true,
                    "internalType": "bytes32",
                    "name": "id",
                    "type": "bytes32"
                },
                {
                    "indexed": true,
                    "internalType": "address",
                    "name": "to",
                    "type": "address"
                }
            ],
            "name": "RevertSynthesizeRequest",
            "type": "event"
        },
        {
            "anonymous": false,
            "inputs": [
                {
                    "indexed": true,
                    "internalType": "bytes32",
                    "name": "id",
                    "type": "bytes32"
                },
                {
                    "indexed": true,
                    "internalType": "address",
                    "name": "to",
                    "type": "address"
                },
                {
                    "indexed": false,
                    "internalType": "uint256",
                    "name": "amount",
                    "type": "uint256"
                },
                {
                    "indexed": false,
                    "internalType": "uint256",
                    "name": "bridgingFee",
                    "type": "uint256"
                },
                {
                    "indexed": false,
                    "internalType": "address",
                    "name": "token",
                    "type": "address"
                }
            ],
            "name": "SynthesizeCompleted",
            "type": "event"
        },
        {
            "inputs": [],
            "name": "bridge",
            "outputs": [
                {
                    "internalType": "address",
                    "name": "",
                    "type": "address"
                }
            ],
            "stateMutability": "view",
            "type": "function"
        },
        {
            "inputs": [
                {
                    "internalType": "uint256",
                    "name": "_stableBridgingFee",
                    "type": "uint256"
                },
                {
                    "internalType": "address",
                    "name": "_stoken",
                    "type": "address"
                },
                {
                    "internalType": "uint256",
                    "name": "_amount",
                    "type": "uint256"
                },
                {
                    "internalType": "address",
                    "name": "_chain2address",
                    "type": "address"
                },
                {
                    "internalType": "address",
                    "name": "_receiveSide",
                    "type": "address"
                },
                {
                    "internalType": "address",
                    "name": "_oppositeBridge",
                    "type": "address"
                },
                {
                    "internalType": "address",
                    "name": "_revertableAddress",
                    "type": "address"
                },
                {
                    "internalType": "uint256",
                    "name": "_chainID",
                    "type": "uint256"
                }
            ],
            "name": "burnSyntheticToken",
            "outputs": [
                {
                    "internalType": "bytes32",
                    "name": "internalID",
                    "type": "bytes32"
                }
            ],
            "stateMutability": "nonpayable",
            "type": "function"
        },
        {
            "inputs": [],
            "name": "fabric",
            "outputs": [
                {
                    "internalType": "address",
                    "name": "",
                    "type": "address"
                }
            ],
            "stateMutability": "view",
            "type": "function"
        },
        {
            "inputs": [
                {
                    "internalType": "address",
                    "name": "_bridge",
                    "type": "address"
                },
                {
                    "internalType": "address",
                    "name": "_trustedForwarder",
                    "type": "address"
                },
                {
                    "internalType": "contract IMetaRouterV2",
                    "name": "_metaRouter",
                    "type": "address"
                }
            ],
            "name": "initialize",
            "outputs": [],
            "stateMutability": "nonpayable",
            "type": "function"
        },
        {
            "inputs": [
                {
                    "internalType": "address",
                    "name": "forwarder",
                    "type": "address"
                }
            ],
            "name": "isTrustedForwarder",
            "outputs": [
                {
                    "internalType": "bool",
                    "name": "",
                    "type": "bool"
                }
            ],
            "stateMutability": "view",
            "type": "function"
        },
        {
            "inputs": [
                {
                    "components": [
                        {
                            "internalType": "uint256",
                            "name": "stableBridgingFee",
                            "type": "uint256"
                        },
                        {
                            "internalType": "uint256",
                            "name": "amount",
                            "type": "uint256"
                        },
                        {
                            "internalType": "address",
                            "name": "syntCaller",
                            "type": "address"
                        },
                        {
                            "internalType": "address",
                            "name": "finalDexRouter",
                            "type": "address"
                        },
                        {
                            "internalType": "address",
                            "name": "sToken",
                            "type": "address"
                        },
                        {
                            "internalType": "bytes",
                            "name": "swapCallData",
                            "type": "bytes"
                        },
                        {
                            "internalType": "address",
                            "name": "chain2address",
                            "type": "address"
                        },
                        {
                            "internalType": "address",
                            "name": "receiveSide",
                            "type": "address"
                        },
                        {
                            "internalType": "address",
                            "name": "oppositeBridge",
                            "type": "address"
                        },
                        {
                            "internalType": "address",
                            "name": "revertableAddress",
                            "type": "address"
                        },
                        {
                            "internalType": "uint256",
                            "name": "chainID",
                            "type": "uint256"
                        }
                    ],
                    "internalType": "struct MetaRouteStructs.MetaBurnTransaction",
                    "name": "_metaBurnTransaction",
                    "type": "tuple"
                }
            ],
            "name": "metaBurnSyntheticToken",
            "outputs": [
                {
                    "internalType": "bytes32",
                    "name": "internalID",
                    "type": "bytes32"
                }
            ],
            "stateMutability": "nonpayable",
            "type": "function"
        },
        {
            "inputs": [
                {
                    "components": [
                        {
                            "internalType": "uint256",
                            "name": "stableBridgingFee",
                            "type": "uint256"
                        },
                        {
                            "internalType": "uint256",
                            "name": "amount",
                            "type": "uint256"
                        },
                        {
                            "internalType": "bytes32",
                            "name": "externalID",
                            "type": "bytes32"
                        },
                        {
                            "internalType": "address",
                            "name": "tokenReal",
                            "type": "address"
                        },
                        {
                            "internalType": "uint256",
                            "name": "chainID",
                            "type": "uint256"
                        },
                        {
                            "internalType": "address",
                            "name": "to",
                            "type": "address"
                        },
                        {
                            "internalType": "address[]",
                            "name": "swapTokens",
                            "type": "address[]"
                        },
                        {
                            "internalType": "address",
                            "name": "secondDexRouter",
                            "type": "address"
                        },
                        {
                            "internalType": "bytes",
                            "name": "secondSwapCalldata",
                            "type": "bytes"
                        },
                        {
                            "internalType": "address",
                            "name": "finalDexRouter",
                            "type": "address"
                        },
                        {
                            "internalType": "bytes",
                            "name": "finalSwapCalldata",
                            "type": "bytes"
                        }
                    ],
                    "internalType": "struct MetaRouteStructs.MetaMintTransaction",
                    "name": "_metaMintTransaction",
                    "type": "tuple"
                }
            ],
            "name": "metaMintSyntheticToken",
            "outputs": [],
            "stateMutability": "nonpayable",
            "type": "function"
        },
        {
            "inputs": [],
            "name": "metaRouter",
            "outputs": [
                {
                    "internalType": "contract IMetaRouterV2",
                    "name": "",
                    "type": "address"
                }
            ],
            "stateMutability": "view",
            "type": "function"
        },
        {
            "inputs": [
                {
                    "internalType": "uint256",
                    "name": "_stableBridgingFee",
                    "type": "uint256"
                },
                {
                    "internalType": "bytes32",
                    "name": "_externalID",
                    "type": "bytes32"
                },
                {
                    "internalType": "address",
                    "name": "_tokenReal",
                    "type": "address"
                },
                {
                    "internalType": "uint256",
                    "name": "_chainID",
                    "type": "uint256"
                },
                {
                    "internalType": "uint256",
                    "name": "_amount",
                    "type": "uint256"
                },
                {
                    "internalType": "address",
                    "name": "_to",
                    "type": "address"
                }
            ],
            "name": "mintSyntheticToken",
            "outputs": [],
            "stateMutability": "nonpayable",
            "type": "function"
        },
        {
            "inputs": [],
            "name": "owner",
            "outputs": [
                {
                    "internalType": "address",
                    "name": "",
                    "type": "address"
                }
            ],
            "stateMutability": "view",
            "type": "function"
        },
        {
            "inputs": [],
            "name": "pause",
            "outputs": [],
            "stateMutability": "nonpayable",
            "type": "function"
        },
        {
            "inputs": [],
            "name": "paused",
            "outputs": [
                {
                    "internalType": "bool",
                    "name": "",
                    "type": "bool"
                }
            ],
            "stateMutability": "view",
            "type": "function"
        },
        {
            "inputs": [],
            "name": "renounceOwnership",
            "outputs": [],
            "stateMutability": "nonpayable",
            "type": "function"
        },
        {
            "inputs": [],
            "name": "requestCount",
            "outputs": [
                {
                    "internalType": "uint256",
                    "name": "",
                    "type": "uint256"
                }
            ],
            "stateMutability": "view",
            "type": "function"
        },
        {
            "inputs": [
                {
                    "internalType": "bytes32",
                    "name": "",
                    "type": "bytes32"
                }
            ],
            "name": "requests",
            "outputs": [
                {
                    "internalType": "address",
                    "name": "recipient",
                    "type": "address"
                },
                {
                    "internalType": "address",
                    "name": "chain2address",
                    "type": "address"
                },
                {
                    "internalType": "uint256",
                    "name": "amount",
                    "type": "uint256"
                },
                {
                    "internalType": "address",
                    "name": "token",
                    "type": "address"
                },
                {
                    "internalType": "address",
                    "name": "stoken",
                    "type": "address"
                },
                {
                    "internalType": "enum Synthesis.RequestState",
                    "name": "state",
                    "type": "uint8"
                }
            ],
            "stateMutability": "view",
            "type": "function"
        },
        {
            "inputs": [
                {
                    "internalType": "uint256",
                    "name": "_stableBridgingFee",
                    "type": "uint256"
                },
                {
                    "internalType": "bytes32",
                    "name": "_externalID",
                    "type": "bytes32"
                }
            ],
            "name": "revertBurn",
            "outputs": [],
            "stateMutability": "nonpayable",
            "type": "function"
        },
        {
            "inputs": [
                {
                    "internalType": "uint256",
                    "name": "_stableBridgingFee",
                    "type": "uint256"
                },
                {
                    "internalType": "bytes32",
                    "name": "_internalID",
                    "type": "bytes32"
                },
                {
                    "internalType": "address",
                    "name": "_receiveSide",
                    "type": "address"
                },
                {
                    "internalType": "address",
                    "name": "_oppositeBridge",
                    "type": "address"
                },
                {
                    "internalType": "uint256",
                    "name": "_chainID",
                    "type": "uint256"
                }
            ],
            "name": "revertSynthesizeRequest",
            "outputs": [],
            "stateMutability": "nonpayable",
            "type": "function"
        },
        {
            "inputs": [
                {
                    "internalType": "address",
                    "name": "_fabric",
                    "type": "address"
                }
            ],
            "name": "setFabric",
            "outputs": [],
            "stateMutability": "nonpayable",
            "type": "function"
        },
        {
            "inputs": [
                {
                    "internalType": "contract IMetaRouterV2",
                    "name": "_metaRouter",
                    "type": "address"
                }
            ],
            "name": "setMetaRouter",
            "outputs": [],
            "stateMutability": "nonpayable",
            "type": "function"
        },
        {
            "inputs": [
                {
                    "internalType": "address",
                    "name": "_token",
                    "type": "address"
                },
                {
                    "internalType": "uint256",
                    "name": "_threshold",
                    "type": "uint256"
                }
            ],
            "name": "setTokenThreshold",
            "outputs": [],
            "stateMutability": "nonpayable",
            "type": "function"
        },
        {
            "inputs": [
                {
                    "internalType": "bytes32",
                    "name": "",
                    "type": "bytes32"
                }
            ],
            "name": "synthesizeStates",
            "outputs": [
                {
                    "internalType": "enum Synthesis.SynthesizeState",
                    "name": "",
                    "type": "uint8"
                }
            ],
            "stateMutability": "view",
            "type": "function"
        },
        {
            "inputs": [
                {
                    "internalType": "address",
                    "name": "",
                    "type": "address"
                }
            ],
            "name": "tokenThreshold",
            "outputs": [
                {
                    "internalType": "uint256",
                    "name": "",
                    "type": "uint256"
                }
            ],
            "stateMutability": "view",
            "type": "function"
        },
        {
            "inputs": [
                {
                    "internalType": "address",
                    "name": "newOwner",
                    "type": "address"
                }
            ],
            "name": "transferOwnership",
            "outputs": [],
            "stateMutability": "nonpayable",
            "type": "function"
        },
        {
            "inputs": [],
            "name": "unpause",
            "outputs": [],
            "stateMutability": "nonpayable",
            "type": "function"
        },
        {
            "inputs": [],
            "name": "versionRecipient",
            "outputs": [
                {
                    "internalType": "string",
                    "name": "",
                    "type": "string"
                }
            ],
            "stateMutability": "pure",
            "type": "function"
        }
    ],
    "bytecode": "0x608060405234801561001057600080fd5b506133cd806100206000396000f3fe608060405234801561001057600080fd5b50600436106101a35760003560e01c806390a1733e116100ee578063dbec15bb11610097578063eadd5c3411610071578063eadd5c3414610406578063f2fde38b14610419578063f70519ae1461042c578063fb0fcdd41461043f57600080fd5b8063dbec15bb146103c8578063dd8c9039146103db578063e78cea92146103ee57600080fd5b8063b236d3f3116100c8578063b236d3f314610372578063c0c53b8b14610385578063d23fd7961461039857600080fd5b806390a1733e146102e25780639d866985146102f5578063a9ee685f1461035f57600080fd5b80635d176f2f116101505780638456cb591161012a5780638456cb59146102b65780638bb39802146102be5780638da5cb5b146102d157600080fd5b80635d176f2f14610263578063687752781461028e578063715018a6146102ae57600080fd5b806358b6eb421161018157806358b6eb421461022c5780635badbe4c1461023f5780635c975abb1461025657600080fd5b80633f4ba83a146101a8578063486ff0cd146101b2578063572b6c05146101fa575b600080fd5b6101b0610452565b005b604080518082018252600581527f322e302e31000000000000000000000000000000000000000000000000000000602082015290516101f19190613034565b60405180910390f35b61021c610208366004612a8c565b6065546001600160a01b0391821691161490565b60405190151581526020016101f1565b6101b061023a366004612c8d565b6104dc565b61024860665481565b6040519081526020016101f1565b60675461021c9060ff1681565b606854610276906001600160a01b031681565b6040516001600160a01b0390911681526020016101f1565b61024861029c366004612a8c565b606b6020526000908152604090205481565b6101b06109f8565b6101b0610a7d565b6101b06102cc366004612b18565b610b05565b6033546001600160a01b0316610276565b6101b06102f0366004612e66565b610b9a565b61034d610303366004612b66565b606a60205260009081526040902080546001820154600283015460038401546004909401546001600160a01b0393841694928416939192821691811690600160a01b900460ff1686565b6040516101f196959493929190612fa2565b61024861036d366004612b7f565b610e22565b6101b0610380366004612eb8565b6113f8565b6101b0610393366004612acd565b6117eb565b6103bb6103a6366004612b66565b60696020526000908152604090205460ff1681565b6040516101f19190613021565b606c54610276906001600160a01b031681565b6101b06103e9366004612a8c565b61190d565b6067546102769061010090046001600160a01b031681565b6101b0610414366004612a8c565b611a0e565b6101b0610427366004612a8c565b611b32565b6101b061043a366004612e44565b611c30565b61024861044d366004612db6565b611f3e565b61045a612465565b6001600160a01b03166104756033546001600160a01b031690565b6001600160a01b0316146104d05760405162461bcd60e51b815260206004820181905260248201527f4f776e61626c653a2063616c6c6572206973206e6f7420746865206f776e657260448201526064015b60405180910390fd5b6067805460ff19169055565b60675461010090046001600160a01b0316331461053b5760405162461bcd60e51b815260206004820152601e60248201527f53796d623a2063616c6c6572206973206e6f742074686520627269646765000060448201526064016104c7565b60675460ff161561057d5760405162461bcd60e51b815260206004820152600c60248201526b14de5b588e881c185d5cd95960a21b60448201526064016104c7565b600060408083015160009081526069602052205460ff1660028111156105a5576105a5613285565b1461063e5760405162461bcd60e51b815260206004820152604d60248201527f53796d623a2072657665727453796e74686573697a656452657175657374206360448201527f616c6c6564206f7220746f6b656e732068617665206265656e20616c7265616460648201527f792073796e74686573697a656400000000000000000000000000000000000000608482015260a4016104c7565b60408181015160009081526069602052818120805460ff191660011790556068546060840151608085015193517f506890a00000000000000000000000000000000000000000000000000000000081526001600160a01b0391821660048201526024810194909452919291169063506890a09060440160206040518083038186803b1580156106cc57600080fd5b505afa1580156106e0573d6000803e3d6000fd5b505050506040513d601f19601f820116820180604052508101906107049190612ab0565b90506001600160a01b0381166107825760405162461bcd60e51b815260206004820152603460248201527f53796d623a205468657265206973206e6f2073796e7420726570726573656e7460448201527f6174696f6e20666f72207468697320746f6b656e00000000000000000000000060648201526084016104c7565b606854825160208401516001600160a01b039092169163e49029fc9130916107aa91906131f3565b6040516001600160e01b031960e085901b1681526001600160a01b03928316600482015260248101919091529084166044820152606401600060405180830381600087803b1580156107fb57600080fd5b505af115801561080f573d6000803e3d6000fd5b505060685460675485516040516339240a7f60e21b81526001600160a01b0361010090930483166004820152602481019190915285821660448201529116925063e49029fc9150606401600060405180830381600087803b15801561087357600080fd5b505af1158015610887573d6000803e3d6000fd5b50508351602085015161089d93509091506131f3565b6020830181905260a08301516040808501518551606087015192516001600160a01b039094169491937fcf9c9a943779bb691d0ed429f605107973fc5e52f4e10dffc28a1ef2d6784cb49361090d93929192835260208301919091526001600160a01b0316604082015260600190565b60405180910390a360c08201515161093657610932818360a0015184602001516124ab565b5050565b6109788260c001516000815181106109505761095061329b565b6020026020010151606c60009054906101000a90046001600160a01b031684602001516124ab565b606c546040517fd0f874d80000000000000000000000000000000000000000000000000000000081526001600160a01b039091169063d0f874d8906109c1908590600401613047565b600060405180830381600087803b1580156109db57600080fd5b505af11580156109ef573d6000803e3d6000fd5b50505050505b50565b610a00612465565b6001600160a01b0316610a1b6033546001600160a01b031690565b6001600160a01b031614610a715760405162461bcd60e51b815260206004820181905260248201527f4f776e61626c653a2063616c6c6572206973206e6f7420746865206f776e657260448201526064016104c7565b610a7b600061261a565b565b610a85612465565b6001600160a01b0316610aa06033546001600160a01b031690565b6001600160a01b031614610af65760405162461bcd60e51b815260206004820181905260248201527f4f776e61626c653a2063616c6c6572206973206e6f7420746865206f776e657260448201526064016104c7565b6067805460ff19166001179055565b610b0d612465565b6001600160a01b0316610b286033546001600160a01b031690565b6001600160a01b031614610b7e5760405162461bcd60e51b815260206004820181905260248201527f4f776e61626c653a2063616c6c6572206973206e6f7420746865206f776e657260448201526064016104c7565b6001600160a01b039091166000908152606b6020526040902055565b60675460ff1615610bdc5760405162461bcd60e51b815260206004820152600c60248201526b14de5b588e881c185d5cd95960a21b60448201526064016104c7565b60008430610be8612465565b6040805160208101949094526bffffffffffffffffffffffff19606093841b811691850191909152911b16605482015246606882015260880160408051601f1981840301815291905280516020909101209050600160008281526069602052604090205460ff166002811115610c6057610c60613285565b1415610cd45760405162461bcd60e51b815260206004820152602560248201527f53796d623a2073796e74686574696320746f6b656e7320616c7265616479206d60448201527f696e74656400000000000000000000000000000000000000000000000000000060648201526084016104c7565b6000818152606960209081526040808320805460ff1916600217905580516060810190915260218082529091613377908301398051602090910120604051602481018990526044810184905260640160408051601f198184030181529181526020820180517bffffffffffffffffffffffffffffffffffffffffffffffffffffffff166001600160e01b0319909416939093179092526067549151633675e4e160e11b81529092506001600160a01b036101009092049190911690636cebc9c290610da9908490899089908990600401612feb565b600060405180830381600087803b158015610dc357600080fd5b505af1158015610dd7573d6000803e3d6000fd5b5050505050610de4612465565b6001600160a01b0316857f9bc8099e19706f253ae634ef1a5fb6ef84b4748c2183472905b9b2511cfa861760405160405180910390a3505050505050565b60675460009060ff1615610e675760405162461bcd60e51b815260206004820152600c60248201526b14de5b588e881c185d5cd95960a21b60448201526064016104c7565b60808201516001600160a01b03166000908152606b6020908152604090912054908301511015610ed95760405162461bcd60e51b815260206004820152601c60248201527f53796d623a20616d6f756e7420756e646572207468726573686f6c640000000060448201526064016104c7565b6068546001600160a01b031663a8160b76610ef2612465565b602085015160808601516040516001600160e01b031960e086901b1681526001600160a01b0393841660048201526024810192909252919091166044820152606401600060405180830381600087803b158015610f4e57600080fd5b505af1158015610f62573d6000803e3d6000fd5b505050506101208201516001600160a01b0316610f8e5760c08201516001600160a01b03166101208301525b60685460808301516040517f161acb470000000000000000000000000000000000000000000000000000000081526001600160a01b039182166004820152600092919091169063161acb479060240160206040518083038186803b158015610ff557600080fd5b505afa158015611009573d6000803e3d6000fd5b505050506040513d601f19601f8201168201806040525081019061102d9190612ab0565b6066546040516bffffffffffffffffffffffff193060601b166020820152603481019190915246605482015290915060740160408051601f19818403018152828252805160209182012060e08701516101208801516101408901519386018390526bffffffffffffffffffffffff19606092831b811695870195909552901b909216605484015260688301529250600090608801604051602081830303815290604052805190602001209050600060405180608001604052806047815260200161333060479139805190602001208560000151838760c001518860200151878a606001518b60a0015160405160240161112c9796959493929190613145565b604051602081830303815290604052907bffffffffffffffffffffffffffffffffffffffffffffffffffffffff19166020820180517bffffffffffffffffffffffffffffffffffffffffffffffffffffffff838183161783525050505090506040518060c0016040528086604001516001600160a01b031681526020018660c001516001600160a01b0316815260200186602001518152602001846001600160a01b0316815260200186608001516001600160a01b03168152602001600160028111156111fb576111fb613285565b90526000838152606a60209081526040918290208351815473ffffffffffffffffffffffffffffffffffffffff199081166001600160a01b039283161783559285015160018301805485169183169190911790559284015160028083019190915560608501516003830180548516918616919091179055608085015160048301805494851691909516908117855560a0860151929492937fffffffffffffffffffffff000000000000000000000000000000000000000000161790600160a01b9084908111156112cd576112cd613285565b02179055505060668054915060006112e483613236565b909155505060675460e086015161010080880151610140890151604051633675e4e160e11b8152929094046001600160a01b031693636cebc9c293611330938793919290600401612feb565b600060405180830381600087803b15801561134a57600080fd5b505af115801561135e573d6000803e3d6000fd5b505050505050508161012001516001600160a01b031682610140015183604001516001600160a01b03167f5f00e8f0d61ff1190912879949026c85a81f3f96038c7f4cd868bdfe882e0eeb848660c00151876020015188608001516040516113eb94939291909384526001600160a01b039283166020850152604084019190915216606082015260800190565b60405180910390a4919050565b60675461010090046001600160a01b031633146114575760405162461bcd60e51b815260206004820152601e60248201527f53796d623a2063616c6c6572206973206e6f742074686520627269646765000060448201526064016104c7565b60675460ff16156114995760405162461bcd60e51b815260206004820152600c60248201526b14de5b588e881c185d5cd95960a21b60448201526064016104c7565b60008581526069602052604081205460ff1660028111156114bc576114bc613285565b146115555760405162461bcd60e51b815260206004820152604d60248201527f53796d623a2072657665727453796e74686573697a656452657175657374206360448201527f616c6c6564206f7220746f6b656e732068617665206265656e20616c7265616460648201527f792073796e74686573697a656400000000000000000000000000000000000000608482015260a4016104c7565b600085815260696020526040808220805460ff1916600117905560685490517f506890a00000000000000000000000000000000000000000000000000000000081526001600160a01b038781166004830152602482018790529091169063506890a09060440160206040518083038186803b1580156115d357600080fd5b505afa1580156115e7573d6000803e3d6000fd5b505050506040513d601f19601f8201168201806040525081019061160b9190612ab0565b90506001600160a01b0381166116895760405162461bcd60e51b815260206004820152603460248201527f53796d623a205468657265206973206e6f2073796e7420726570726573656e7460448201527f6174696f6e20666f72207468697320746f6b656e00000000000000000000000060648201526084016104c7565b6068546001600160a01b031663e49029fc836116a58a876131f3565b6040516001600160e01b031960e085901b1681526001600160a01b03928316600482015260248101919091529084166044820152606401600060405180830381600087803b1580156116f657600080fd5b505af115801561170a573d6000803e3d6000fd5b50506068546067546040516339240a7f60e21b81526001600160a01b0361010090920482166004820152602481018c905285821660448201529116925063e49029fc9150606401600060405180830381600087803b15801561176b57600080fd5b505af115801561177f573d6000803e3d6000fd5b50505050816001600160a01b0316867fcf9c9a943779bb691d0ed429f605107973fc5e52f4e10dffc28a1ef2d6784cb489866117bb91906131f3565b60408051918252602082018c90526001600160a01b038a169082015260600160405180910390a350505050505050565b600054610100900460ff1680611804575060005460ff16155b6118675760405162461bcd60e51b815260206004820152602e60248201527f496e697469616c697a61626c653a20636f6e747261637420697320616c72656160448201526d191e481a5b9a5d1a585b1a5e995960921b60648201526084016104c7565b600054610100900460ff16158015611889576000805461ffff19166101011790555b61189283612679565b606780547fffffffffffffffffffffff0000000000000000000000000000000000000000ff166101006001600160a01b038781169190910291909117909155606c805473ffffffffffffffffffffffffffffffffffffffff19169184169190911790558015611907576000805461ff00191690555b50505050565b611915612465565b6001600160a01b03166119306033546001600160a01b031690565b6001600160a01b0316146119865760405162461bcd60e51b815260206004820181905260248201527f4f776e61626c653a2063616c6c6572206973206e6f7420746865206f776e657260448201526064016104c7565b6068546001600160a01b0316156119df5760405162461bcd60e51b815260206004820152601860248201527f53796d623a2046616272696320616c726561647920736574000000000000000060448201526064016104c7565b6068805473ffffffffffffffffffffffffffffffffffffffff19166001600160a01b0392909216919091179055565b611a16612465565b6001600160a01b0316611a316033546001600160a01b031690565b6001600160a01b031614611a875760405162461bcd60e51b815260206004820181905260248201527f4f776e61626c653a2063616c6c6572206973206e6f7420746865206f776e657260448201526064016104c7565b6001600160a01b038116611b035760405162461bcd60e51b815260206004820152602760248201527f53796d623a206d657461526f757465722063616e6e6f74206265207a65726f2060448201527f616464726573730000000000000000000000000000000000000000000000000060648201526084016104c7565b606c805473ffffffffffffffffffffffffffffffffffffffff19166001600160a01b0392909216919091179055565b611b3a612465565b6001600160a01b0316611b556033546001600160a01b031690565b6001600160a01b031614611bab5760405162461bcd60e51b815260206004820181905260248201527f4f776e61626c653a2063616c6c6572206973206e6f7420746865206f776e657260448201526064016104c7565b6001600160a01b038116611c275760405162461bcd60e51b815260206004820152602660248201527f4f776e61626c653a206e6577206f776e657220697320746865207a65726f206160448201527f646472657373000000000000000000000000000000000000000000000000000060648201526084016104c7565b6109f58161261a565b60675461010090046001600160a01b03163314611c8f5760405162461bcd60e51b815260206004820152601e60248201527f53796d623a2063616c6c6572206973206e6f742074686520627269646765000060448201526064016104c7565b60675460ff1615611cd15760405162461bcd60e51b815260206004820152600c60248201526b14de5b588e881c185d5cd95960a21b60448201526064016104c7565b6000818152606a6020526040902060016004820154600160a01b900460ff166002811115611d0157611d01613285565b14611d745760405162461bcd60e51b815260206004820152602960248201527f53796d623a207374617465206e6f74206f70656e206f7220747820646f65732060448201527f6e6f74206578697374000000000000000000000000000000000000000000000060648201526084016104c7565b6004810180547fffffffffffffffffffffff00ffffffffffffffffffffffffffffffffffffffff1674020000000000000000000000000000000000000000179055606854815460028301546001600160a01b039283169263e49029fc921690611dde9087906131f3565b60048581015460405160e086901b6001600160e01b03191681526001600160a01b0394851692810192909252602482019290925291166044820152606401600060405180830381600087803b158015611e3657600080fd5b505af1158015611e4a573d6000803e3d6000fd5b50506068546067546004858101546040516339240a7f60e21b81526001600160a01b0361010090940484169281019290925260248201899052821660448201529116925063e49029fc9150606401600060405180830381600087803b158015611eb257600080fd5b505af1158015611ec6573d6000803e3d6000fd5b5050825460028401546001600160a01b0390911692508491507fb6f5f7b98cc78a8031c967af163a8c197f470a35df1e326a9038859679e6a18490611f0c9087906131f3565b600485015460408051928352602083018990526001600160a01b039091169082015260600160405180910390a3505050565b60675460009060ff1615611f835760405162461bcd60e51b815260206004820152600c60248201526b14de5b588e881c185d5cd95960a21b60448201526064016104c7565b6001600160a01b0388166000908152606b6020526040902054871015611feb5760405162461bcd60e51b815260206004820152601c60248201527f53796d623a20616d6f756e7420756e646572207468726573686f6c640000000060448201526064016104c7565b6068546001600160a01b031663a8160b76612004612465565b6040516001600160e01b031960e084901b1681526001600160a01b039182166004820152602481018b9052908b166044820152606401600060405180830381600087803b15801561205457600080fd5b505af1158015612068573d6000803e3d6000fd5b505050506001600160a01b03831661207e578592505b6068546040517f161acb470000000000000000000000000000000000000000000000000000000081526001600160a01b038a81166004830152600092169063161acb479060240160206040518083038186803b1580156120dd57600080fd5b505afa1580156120f1573d6000803e3d6000fd5b505050506040513d601f19601f820116820180604052508101906121159190612ab0565b6066546040516bffffffffffffffffffffffff193060601b166020820152603481019190915246605482015290915060740160408051601f1981840301815282825280516020918201209083018190526bffffffffffffffffffffffff1960608a811b8216938501939093529187901b909116605483015260688201859052925060009060880160405160208183030381529060405280519060200120905060006040518060600160405280603581526020016132fb603591398051602090910120604051602481018e9052604481018490526001600160a01b038086166064830152608482018d90528b1660a482015260c40160408051601f198184030181529181526020820180517bffffffffffffffffffffffffffffffffffffffffffffffffffffffff166001600160e01b031990941693909317909252815160c08101909252915080612264612465565b6001600160a01b0390811682528b81166020830152604082018d905285811660608301528d16608082015260a001600190526000838152606a60209081526040918290208351815473ffffffffffffffffffffffffffffffffffffffff199081166001600160a01b039283161783559285015160018301805485169183169190911790559284015160028083019190915560608501516003830180548516918616919091179055608085015160048301805494851691909516908117855560a0860151929492937fffffffffffffffffffffff000000000000000000000000000000000000000000161790600160a01b90849081111561236657612366613285565b021790555050606680549150600061237d83613236565b9091555050606754604051633675e4e160e11b81526101009091046001600160a01b031690636cebc9c2906123bc9084908c908c908b90600401612feb565b600060405180830381600087803b1580156123d657600080fd5b505af11580156123ea573d6000803e3d6000fd5b50505050505050826001600160a01b031682612404612465565b604080518581526001600160a01b038b811660208301529181018c90528c821660608201529116907f5f00e8f0d61ff1190912879949026c85a81f3f96038c7f4cd868bdfe882e0eeb9060800160405180910390a498975050505050505050565b6065546000906001600160a01b03163314156124a657507fffffffffffffffffffffffffffffffffffffffffffffffffffffffffffffffec36013560601c90565b503390565b604080516001600160a01b038481166024830152604480830185905283518084039091018152606490920183526020820180517bffffffffffffffffffffffffffffffffffffffffffffffffffffffff167fa9059cbb0000000000000000000000000000000000000000000000000000000017905291516000928392908716916125359190612f86565b6000604051808303816000865af19150503d8060008114612572576040519150601f19603f3d011682016040523d82523d6000602084013e612577565b606091505b50915091508180156125a15750805115806125a15750808060200190518101906125a19190612b44565b6126135760405162461bcd60e51b815260206004820152602d60248201527f5472616e7366657248656c7065723a3a736166655472616e736665723a20747260448201527f616e73666572206661696c65640000000000000000000000000000000000000060648201526084016104c7565b5050505050565b603380546001600160a01b0383811673ffffffffffffffffffffffffffffffffffffffff19831681179093556040519116919082907f8be0079c531659141344cd1fd0a4f28419497f9722a3daafe3b4186f6b6457e090600090a35050565b600054610100900460ff1680612692575060005460ff16155b6126f55760405162461bcd60e51b815260206004820152602e60248201527f496e697469616c697a61626c653a20636f6e747261637420697320616c72656160448201526d191e481a5b9a5d1a585b1a5e995960921b60648201526084016104c7565b600054610100900460ff16158015612717576000805461ffff19166101011790555b61271f61275c565b6065805473ffffffffffffffffffffffffffffffffffffffff19166001600160a01b0384161790558015610932576000805461ff00191690555050565b600054610100900460ff1680612775575060005460ff16155b6127d85760405162461bcd60e51b815260206004820152602e60248201527f496e697469616c697a61626c653a20636f6e747261637420697320616c72656160448201526d191e481a5b9a5d1a585b1a5e995960921b60648201526084016104c7565b600054610100900460ff161580156127fa576000805461ffff19166101011790555b61280261281e565b61280a6128cf565b80156109f5576000805461ff001916905550565b600054610100900460ff1680612837575060005460ff16155b61289a5760405162461bcd60e51b815260206004820152602e60248201527f496e697469616c697a61626c653a20636f6e747261637420697320616c72656160448201526d191e481a5b9a5d1a585b1a5e995960921b60648201526084016104c7565b600054610100900460ff1615801561280a576000805461ffff191661010117905580156109f5576000805461ff001916905550565b600054610100900460ff16806128e8575060005460ff16155b61294b5760405162461bcd60e51b815260206004820152602e60248201527f496e697469616c697a61626c653a20636f6e747261637420697320616c72656160448201526d191e481a5b9a5d1a585b1a5e995960921b60648201526084016104c7565b600054610100900460ff1615801561296d576000805461ffff19166101011790555b61280a612978612465565b61261a565b8035612988816132e5565b919050565b600082601f83011261299e57600080fd5b8135602067ffffffffffffffff8211156129ba576129ba6132b1565b8160051b6129c98282016131c2565b8381528281019086840183880185018910156129e457600080fd5b600093505b85841015612a105780356129fc816132e5565b8352600193909301929184019184016129e9565b50979650505050505050565b600082601f830112612a2d57600080fd5b813567ffffffffffffffff811115612a4757612a476132b1565b612a5a6020601f19601f840116016131c2565b818152846020838601011115612a6f57600080fd5b816020850160208301376000918101602001919091529392505050565b600060208284031215612a9e57600080fd5b8135612aa9816132e5565b9392505050565b600060208284031215612ac257600080fd5b8151612aa9816132e5565b600080600060608486031215612ae257600080fd5b8335612aed816132e5565b92506020840135612afd816132e5565b91506040840135612b0d816132e5565b809150509250925092565b60008060408385031215612b2b57600080fd5b8235612b36816132e5565b946020939093013593505050565b600060208284031215612b5657600080fd5b81518015158114612aa957600080fd5b600060208284031215612b7857600080fd5b5035919050565b600060208284031215612b9157600080fd5b813567ffffffffffffffff80821115612ba957600080fd5b908301906101608286031215612bbe57600080fd5b612bc6613198565b8235815260208301356020820152612be06040840161297d565b6040820152612bf16060840161297d565b6060820152612c026080840161297d565b608082015260a083013582811115612c1957600080fd5b612c2587828601612a1c565b60a083015250612c3760c0840161297d565b60c0820152612c4860e0840161297d565b60e08201526101009150612c5d82840161297d565b828201526101209150612c7182840161297d565b9181019190915261014091820135918101919091529392505050565b600060208284031215612c9f57600080fd5b813567ffffffffffffffff80821115612cb757600080fd5b908301906101608286031215612ccc57600080fd5b612cd4613198565b823581526020830135602082015260408301356040820152612cf86060840161297d565b606082015260808301356080820152612d1360a0840161297d565b60a082015260c083013582811115612d2a57600080fd5b612d368782860161298d565b60c083015250612d4860e0840161297d565b60e08201526101008084013583811115612d6157600080fd5b612d6d88828701612a1c565b828401525050610120612d8181850161297d565b908201526101408381013583811115612d9957600080fd5b612da588828701612a1c565b918301919091525095945050505050565b600080600080600080600080610100898b031215612dd357600080fd5b883597506020890135612de5816132e5565b9650604089013595506060890135612dfc816132e5565b94506080890135612e0c816132e5565b935060a0890135612e1c816132e5565b925060c0890135612e2c816132e5565b8092505060e089013590509295985092959890939650565b60008060408385031215612e5757600080fd5b50508035926020909101359150565b600080600080600060a08688031215612e7e57600080fd5b85359450602086013593506040860135612e97816132e5565b92506060860135612ea7816132e5565b949793965091946080013592915050565b60008060008060008060c08789031215612ed157600080fd5b86359550602087013594506040870135612eea816132e5565b9350606087013592506080870135915060a0870135612f08816132e5565b809150509295509295509295565b600081518084526020808501945080840160005b83811015612f4f5781516001600160a01b031687529582019590820190600101612f2a565b509495945050505050565b60008151808452612f7281602086016020860161320a565b601f01601f19169290920160200192915050565b60008251612f9881846020870161320a565b9190910192915050565b6001600160a01b03878116825286811660208301526040820186905284811660608301528316608082015260c08101612fda836132c7565b8260a0830152979650505050505050565b608081526000612ffe6080830187612f5a565b6001600160a01b0395861660208401529390941660408201526060015292915050565b6020810161302e836132c7565b91905290565b602081526000612aa96020830184612f5a565b602081528151602082015260208201516040820152604082015160608201526000606083015161308260808401826001600160a01b03169052565b50608083015160a083015260a08301516130a760c08401826001600160a01b03169052565b5060c08301516101608060e08501526130c4610180850183612f16565b915060e08501516101006130e2818701836001600160a01b03169052565b80870151915050601f196101208187860301818801526131028584612f5a565b945080880151925050610140613122818801846001600160a01b03169052565b87015186850390910183870152905061313b8382612f5a565b9695505050505050565b87815286602082015260006001600160a01b038088166040840152866060840152808616608084015280851660a08401525060e060c083015261318b60e0830184612f5a565b9998505050505050505050565b604051610160810167ffffffffffffffff811182821017156131bc576131bc6132b1565b60405290565b604051601f8201601f1916810167ffffffffffffffff811182821017156131eb576131eb6132b1565b604052919050565b6000828210156132055761320561326f565b500390565b60005b8381101561322557818101518382015260200161320d565b838111156119075750506000910152565b60007fffffffffffffffffffffffffffffffffffffffffffffffffffffffffffffffff8214156132685761326861326f565b5060010190565b634e487b7160e01b600052601160045260246000fd5b634e487b7160e01b600052602160045260246000fd5b634e487b7160e01b600052603260045260246000fd5b634e487b7160e01b600052604160045260246000fd5b600381106109f557634e487b7160e01b600052602160045260246000fd5b6001600160a01b03811681146109f557600080fdfe756e73796e74686573697a652875696e743235362c627974657333322c616464726573732c75696e743235362c61646472657373296d657461556e73796e74686573697a652875696e743235362c627974657333322c616464726573732c75696e743235362c616464726573732c616464726573732c62797465732972657665727453796e74686573697a652875696e743235362c6279746573333229a26469706673582212208c1e14585d024664fb5acb27ef3079e7a908a836bc688820456a8f41655f4f0264736f6c63430008070033",
    "linkReferences": {},
    "deployedLinkReferences": {}
}