{
    "_format": "hh-sol-artifact-1",
    "contractName": "Synthesis",
    "sourceName": "contracts/synth-core/Synthesis.sol",
    "abi": [
        {
            "anonymous": false,
            "inputs": [
                {
                    "indexed": false,
                    "internalType": "bytes32",
                    "name": "id",
                    "type": "bytes32"
                },
                {
                    "indexed": true,
                    "internalType": "address",
                    "name": "from",
                    "type": "address"
                },
                {
                    "indexed": true,
                    "internalType": "uint256",
                    "name": "chainID",
                    "type": "uint256"
                },
                {
                    "indexed": true,
                    "internalType": "address",
                    "name": "revertableAddress",
                    "type": "address"
                },
                {
                    "indexed": false,
                    "internalType": "address",
                    "name": "to",
                    "type": "address"
                },
                {
                    "indexed": false,
                    "internalType": "uint256",
                    "name": "amount",
                    "type": "uint256"
                },
                {
                    "indexed": false,
                    "internalType": "address",
                    "name": "token",
                    "type": "address"
                }
            ],
            "name": "BurnRequest",
            "type": "event"
        },
        {
            "anonymous": false,
            "inputs": [
                {
                    "indexed": true,
                    "internalType": "address",
                    "name": "previousOwner",
                    "type": "address"
                },
                {
                    "indexed": true,
                    "internalType": "address",
                    "name": "newOwner",
                    "type": "address"
                }
            ],
            "name": "OwnershipTransferred",
            "type": "event"
        },
        {
            "anonymous": false,
            "inputs": [
                {
                    "indexed": true,
                    "internalType": "bytes32",
                    "name": "id",
                    "type": "bytes32"
                },
                {
                    "indexed": true,
                    "internalType": "address",
                    "name": "to",
                    "type": "address"
                },
                {
                    "indexed": false,
                    "internalType": "uint256",
                    "name": "amount",
                    "type": "uint256"
                },
                {
                    "indexed": false,
                    "internalType": "uint256",
                    "name": "bridgingFee",
                    "type": "uint256"
                },
                {
                    "indexed": false,
                    "internalType": "address",
                    "name": "token",
                    "type": "address"
                }
            ],
            "name": "RevertBurnCompleted",
            "type": "event"
        },
        {
            "anonymous": false,
            "inputs": [
                {
                    "indexed": true,
                    "internalType": "bytes32",
                    "name": "id",
                    "type": "bytes32"
                },
                {
                    "indexed": true,
                    "internalType": "address",
                    "name": "to",
                    "type": "address"
                }
            ],
            "name": "RevertSynthesizeRequest",
            "type": "event"
        },
        {
            "anonymous": false,
            "inputs": [
                {
                    "indexed": true,
                    "internalType": "bytes32",
                    "name": "id",
                    "type": "bytes32"
                },
                {
                    "indexed": true,
                    "internalType": "address",
                    "name": "to",
                    "type": "address"
                },
                {
                    "indexed": false,
                    "internalType": "uint256",
                    "name": "amount",
                    "type": "uint256"
                },
                {
                    "indexed": false,
                    "internalType": "uint256",
                    "name": "bridgingFee",
                    "type": "uint256"
                },
                {
                    "indexed": false,
                    "internalType": "address",
                    "name": "token",
                    "type": "address"
                }
            ],
            "name": "SynthesizeCompleted",
            "type": "event"
        },
        {
            "inputs": [],
            "name": "bridge",
            "outputs": [
                {
                    "internalType": "address",
                    "name": "",
                    "type": "address"
                }
            ],
            "stateMutability": "view",
            "type": "function"
        },
        {
            "inputs": [
                {
                    "internalType": "uint256",
                    "name": "_stableBridgingFee",
                    "type": "uint256"
                },
                {
                    "internalType": "address",
                    "name": "_stoken",
                    "type": "address"
                },
                {
                    "internalType": "uint256",
                    "name": "_amount",
                    "type": "uint256"
                },
                {
                    "internalType": "address",
                    "name": "_chain2address",
                    "type": "address"
                },
                {
                    "internalType": "address",
                    "name": "_receiveSide",
                    "type": "address"
                },
                {
                    "internalType": "address",
                    "name": "_oppositeBridge",
                    "type": "address"
                },
                {
                    "internalType": "address",
                    "name": "_revertableAddress",
                    "type": "address"
                },
                {
                    "internalType": "uint256",
                    "name": "_chainID",
                    "type": "uint256"
                }
            ],
            "name": "burnSyntheticToken",
            "outputs": [
                {
                    "internalType": "bytes32",
                    "name": "internalID",
                    "type": "bytes32"
                }
            ],
            "stateMutability": "nonpayable",
            "type": "function"
        },
        {
            "inputs": [],
            "name": "fabric",
            "outputs": [
                {
                    "internalType": "address",
                    "name": "",
                    "type": "address"
                }
            ],
            "stateMutability": "view",
            "type": "function"
        },
        {
            "inputs": [
                {
                    "internalType": "address",
                    "name": "_bridge",
                    "type": "address"
                },
                {
                    "internalType": "address",
                    "name": "_trustedForwarder",
                    "type": "address"
                },
                {
                    "internalType": "contract IMetaRouter",
                    "name": "_metaRouter",
                    "type": "address"
                }
            ],
            "name": "initialize",
            "outputs": [],
            "stateMutability": "nonpayable",
            "type": "function"
        },
        {
            "inputs": [
                {
                    "internalType": "address",
                    "name": "forwarder",
                    "type": "address"
                }
            ],
            "name": "isTrustedForwarder",
            "outputs": [
                {
                    "internalType": "bool",
                    "name": "",
                    "type": "bool"
                }
            ],
            "stateMutability": "view",
            "type": "function"
        },
        {
            "inputs": [
                {
                    "components": [
                        {
                            "internalType": "uint256",
                            "name": "stableBridgingFee",
                            "type": "uint256"
                        },
                        {
                            "internalType": "uint256",
                            "name": "amount",
                            "type": "uint256"
                        },
                        {
                            "internalType": "address",
                            "name": "syntCaller",
                            "type": "address"
                        },
                        {
                            "internalType": "address",
                            "name": "finalReceiveSide",
                            "type": "address"
                        },
                        {
                            "internalType": "address",
                            "name": "sToken",
                            "type": "address"
                        },
                        {
                            "internalType": "bytes",
                            "name": "finalCallData",
                            "type": "bytes"
                        },
                        {
                            "internalType": "uint256",
                            "name": "finalOffset",
                            "type": "uint256"
                        },
                        {
                            "internalType": "address",
                            "name": "chain2address",
                            "type": "address"
                        },
                        {
                            "internalType": "address",
                            "name": "receiveSide",
                            "type": "address"
                        },
                        {
                            "internalType": "address",
                            "name": "oppositeBridge",
                            "type": "address"
                        },
                        {
                            "internalType": "address",
                            "name": "revertableAddress",
                            "type": "address"
                        },
                        {
                            "internalType": "uint256",
                            "name": "chainID",
                            "type": "uint256"
                        }
                    ],
                    "internalType": "struct MetaRouteStructs.MetaBurnTransaction",
                    "name": "_metaBurnTransaction",
                    "type": "tuple"
                }
            ],
            "name": "metaBurnSyntheticToken",
            "outputs": [
                {
                    "internalType": "bytes32",
                    "name": "internalID",
                    "type": "bytes32"
                }
            ],
            "stateMutability": "nonpayable",
            "type": "function"
        },
        {
            "inputs": [
                {
                    "components": [
                        {
                            "internalType": "uint256",
                            "name": "stableBridgingFee",
                            "type": "uint256"
                        },
                        {
                            "internalType": "uint256",
                            "name": "amount",
                            "type": "uint256"
                        },
                        {
                            "internalType": "bytes32",
                            "name": "externalID",
                            "type": "bytes32"
                        },
                        {
                            "internalType": "address",
                            "name": "tokenReal",
                            "type": "address"
                        },
                        {
                            "internalType": "uint256",
                            "name": "chainID",
                            "type": "uint256"
                        },
                        {
                            "internalType": "address",
                            "name": "to",
                            "type": "address"
                        },
                        {
                            "internalType": "address[]",
                            "name": "swapTokens",
                            "type": "address[]"
                        },
                        {
                            "internalType": "address",
                            "name": "secondDexRouter",
                            "type": "address"
                        },
                        {
                            "internalType": "bytes",
                            "name": "secondSwapCalldata",
                            "type": "bytes"
                        },
                        {
                            "internalType": "address",
                            "name": "finalReceiveSide",
                            "type": "address"
                        },
                        {
                            "internalType": "bytes",
                            "name": "finalCalldata",
                            "type": "bytes"
                        },
                        {
                            "internalType": "uint256",
                            "name": "finalOffset",
                            "type": "uint256"
                        }
                    ],
                    "internalType": "struct MetaRouteStructs.MetaMintTransaction",
                    "name": "_metaMintTransaction",
                    "type": "tuple"
                }
            ],
            "name": "metaMintSyntheticToken",
            "outputs": [],
            "stateMutability": "nonpayable",
            "type": "function"
        },
        {
            "inputs": [],
            "name": "metaRouter",
            "outputs": [
                {
                    "internalType": "contract IMetaRouter",
                    "name": "",
                    "type": "address"
                }
            ],
            "stateMutability": "view",
            "type": "function"
        },
        {
            "inputs": [
                {
                    "internalType": "uint256",
                    "name": "_stableBridgingFee",
                    "type": "uint256"
                },
                {
                    "internalType": "bytes32",
                    "name": "_externalID",
                    "type": "bytes32"
                },
                {
                    "internalType": "address",
                    "name": "_tokenReal",
                    "type": "address"
                },
                {
                    "internalType": "uint256",
                    "name": "_chainID",
                    "type": "uint256"
                },
                {
                    "internalType": "uint256",
                    "name": "_amount",
                    "type": "uint256"
                },
                {
                    "internalType": "address",
                    "name": "_to",
                    "type": "address"
                }
            ],
            "name": "mintSyntheticToken",
            "outputs": [],
            "stateMutability": "nonpayable",
            "type": "function"
        },
        {
            "inputs": [],
            "name": "owner",
            "outputs": [
                {
                    "internalType": "address",
                    "name": "",
                    "type": "address"
                }
            ],
            "stateMutability": "view",
            "type": "function"
        },
        {
            "inputs": [],
            "name": "pause",
            "outputs": [],
            "stateMutability": "nonpayable",
            "type": "function"
        },
        {
            "inputs": [],
            "name": "paused",
            "outputs": [
                {
                    "internalType": "bool",
                    "name": "",
                    "type": "bool"
                }
            ],
            "stateMutability": "view",
            "type": "function"
        },
        {
            "inputs": [],
            "name": "renounceOwnership",
            "outputs": [],
            "stateMutability": "nonpayable",
            "type": "function"
        },
        {
            "inputs": [],
            "name": "requestCount",
            "outputs": [
                {
                    "internalType": "uint256",
                    "name": "",
                    "type": "uint256"
                }
            ],
            "stateMutability": "view",
            "type": "function"
        },
        {
            "inputs": [
                {
                    "internalType": "bytes32",
                    "name": "",
                    "type": "bytes32"
                }
            ],
            "name": "requests",
            "outputs": [
                {
                    "internalType": "address",
                    "name": "recipient",
                    "type": "address"
                },
                {
                    "internalType": "address",
                    "name": "chain2address",
                    "type": "address"
                },
                {
                    "internalType": "uint256",
                    "name": "amount",
                    "type": "uint256"
                },
                {
                    "internalType": "address",
                    "name": "token",
                    "type": "address"
                },
                {
                    "internalType": "address",
                    "name": "stoken",
                    "type": "address"
                },
                {
                    "internalType": "enum Synthesis.RequestState",
                    "name": "state",
                    "type": "uint8"
                }
            ],
            "stateMutability": "view",
            "type": "function"
        },
        {
            "inputs": [
                {
                    "internalType": "uint256",
                    "name": "_stableBridgingFee",
                    "type": "uint256"
                },
                {
                    "internalType": "bytes32",
                    "name": "_externalID",
                    "type": "bytes32"
                }
            ],
            "name": "revertBurn",
            "outputs": [],
            "stateMutability": "nonpayable",
            "type": "function"
        },
        {
            "inputs": [
                {
                    "internalType": "uint256",
                    "name": "_stableBridgingFee",
                    "type": "uint256"
                },
                {
                    "internalType": "bytes32",
                    "name": "_internalID",
                    "type": "bytes32"
                },
                {
                    "internalType": "address",
                    "name": "_receiveSide",
                    "type": "address"
                },
                {
                    "internalType": "address",
                    "name": "_oppositeBridge",
                    "type": "address"
                },
                {
                    "internalType": "uint256",
                    "name": "_chainID",
                    "type": "uint256"
                }
            ],
            "name": "revertSynthesizeRequest",
            "outputs": [],
            "stateMutability": "nonpayable",
            "type": "function"
        },
        {
            "inputs": [
                {
                    "internalType": "address",
                    "name": "_fabric",
                    "type": "address"
                }
            ],
            "name": "setFabric",
            "outputs": [],
            "stateMutability": "nonpayable",
            "type": "function"
        },
        {
            "inputs": [
                {
                    "internalType": "contract IMetaRouter",
                    "name": "_metaRouter",
                    "type": "address"
                }
            ],
            "name": "setMetaRouter",
            "outputs": [],
            "stateMutability": "nonpayable",
            "type": "function"
        },
        {
            "inputs": [
                {
                    "internalType": "address",
                    "name": "_token",
                    "type": "address"
                },
                {
                    "internalType": "uint256",
                    "name": "_threshold",
                    "type": "uint256"
                }
            ],
            "name": "setTokenThreshold",
            "outputs": [],
            "stateMutability": "nonpayable",
            "type": "function"
        },
        {
            "inputs": [
                {
                    "internalType": "bytes32",
                    "name": "",
                    "type": "bytes32"
                }
            ],
            "name": "synthesizeStates",
            "outputs": [
                {
                    "internalType": "enum Synthesis.SynthesizeState",
                    "name": "",
                    "type": "uint8"
                }
            ],
            "stateMutability": "view",
            "type": "function"
        },
        {
            "inputs": [
                {
                    "internalType": "address",
                    "name": "",
                    "type": "address"
                }
            ],
            "name": "tokenThreshold",
            "outputs": [
                {
                    "internalType": "uint256",
                    "name": "",
                    "type": "uint256"
                }
            ],
            "stateMutability": "view",
            "type": "function"
        },
        {
            "inputs": [
                {
                    "internalType": "address",
                    "name": "newOwner",
                    "type": "address"
                }
            ],
            "name": "transferOwnership",
            "outputs": [],
            "stateMutability": "nonpayable",
            "type": "function"
        },
        {
            "inputs": [],
            "name": "unpause",
            "outputs": [],
            "stateMutability": "nonpayable",
            "type": "function"
        },
        {
            "inputs": [],
            "name": "versionRecipient",
            "outputs": [
                {
                    "internalType": "string",
                    "name": "",
                    "type": "string"
                }
            ],
            "stateMutability": "pure",
            "type": "function"
        }
    ],
    "bytecode": "0x608060405234801561001057600080fd5b506133b0806100206000396000f3fe608060405234801561001057600080fd5b50600436106101a35760003560e01c806390a1733e116100ee578063dbec15bb11610097578063eadd5c3411610071578063eadd5c3414610406578063f2fde38b14610419578063f70519ae1461042c578063fb0fcdd41461043f57600080fd5b8063dbec15bb146103c8578063dd8c9039146103db578063e78cea92146103ee57600080fd5b8063c0c53b8b116100c8578063c0c53b8b14610372578063d23fd79614610385578063d5f8fbcb146103b557600080fd5b806390a1733e146102e25780639d866985146102f5578063b236d3f31461035f57600080fd5b80635e6d50df116101505780638456cb591161012a5780638456cb59146102b65780638bb39802146102be5780638da5cb5b146102d157600080fd5b80635e6d50df1461027b578063687752781461028e578063715018a6146102ae57600080fd5b80635badbe4c116101815780635badbe4c1461022c5780635c975abb146102435780635d176f2f1461025057600080fd5b80633f4ba83a146101a8578063486ff0cd146101b2578063572b6c05146101fa575b600080fd5b6101b0610452565b005b604080518082018252600581527f322e302e31000000000000000000000000000000000000000000000000000000602082015290516101f19190612ff7565b60405180910390f35b61021c610208366004612a35565b6065546001600160a01b0391821691161490565b60405190151581526020016101f1565b61023560665481565b6040519081526020016101f1565b60675461021c9060ff1681565b606854610263906001600160a01b031681565b6040516001600160a01b0390911681526020016101f1565b610235610289366004612b28565b6104dc565b61023561029c366004612a35565b606b6020526000908152604090205481565b6101b0610abb565b6101b0610b40565b6101b06102cc366004612ac1565b610bc8565b6033546001600160a01b0316610263565b6101b06102f0366004612e29565b610c5d565b61034d610303366004612b0f565b606a60205260009081526040902080546001820154600283015460038401546004909401546001600160a01b0393841694928416939192821691811690600160a01b900460ff1686565b6040516101f196959493929190612f65565b6101b061036d366004612e7b565b610ee5565b6101b0610380366004612a76565b6112d8565b6103a8610393366004612b0f565b60696020526000908152604090205460ff1681565b6040516101f19190612fe4565b6101b06103c3366004612c43565b61140f565b606c54610263906001600160a01b031681565b6101b06103e9366004612a35565b61192b565b6067546102639061010090046001600160a01b031681565b6101b0610414366004612a35565b611a2c565b6101b0610427366004612a35565b611b50565b6101b061043a366004612e07565b611c4e565b61023561044d366004612d79565b611f5c565b61045a612483565b6001600160a01b03166104756033546001600160a01b031690565b6001600160a01b0316146104d05760405162461bcd60e51b815260206004820181905260248201527f4f776e61626c653a2063616c6c6572206973206e6f7420746865206f776e657260448201526064015b60405180910390fd5b6067805460ff19169055565b60675460009060ff16156105215760405162461bcd60e51b815260206004820152600c60248201526b14de5b588e881c185d5cd95960a21b60448201526064016104c7565b60808201516001600160a01b03166000908152606b60209081526040909120549083015110156105935760405162461bcd60e51b815260206004820152601c60248201527f53796d623a20616d6f756e7420756e646572207468726573686f6c640000000060448201526064016104c7565b6068546001600160a01b031663a8160b766105ac612483565b602085015160808601516040516001600160e01b031960e086901b1681526001600160a01b0393841660048201526024810192909252919091166044820152606401600060405180830381600087803b15801561060857600080fd5b505af115801561061c573d6000803e3d6000fd5b505050506101408201516001600160a01b03166106485760e08201516001600160a01b03166101408301525b60685460808301516040517f161acb470000000000000000000000000000000000000000000000000000000081526001600160a01b039182166004820152600092919091169063161acb479060240160206040518083038186803b1580156106af57600080fd5b505afa1580156106c3573d6000803e3d6000fd5b505050506040513d601f19601f820116820180604052508101906106e79190612a59565b6066546040516bffffffffffffffffffffffff193060601b166020820152603481019190915246605482015290915060740160408051601f1981840301815282825280516020918201206101008701516101408801516101608901519386018390526bffffffffffffffffffffffff19606092831b811695870195909552901b90921660548401526068830152925060009060880160405160208183030381529060405280519060200120905060006040518060800160405280604f81526020016132d6604f9139805190602001208560000151838760e001518860200151878a606001518b60a001518c60c001516040516024016107ed989796959493929190613116565b604051602081830303815290604052907bffffffffffffffffffffffffffffffffffffffffffffffffffffffff19166020820180517bffffffffffffffffffffffffffffffffffffffffffffffffffffffff838183161783525050505090506040518060c0016040528086604001516001600160a01b031681526020018660e001516001600160a01b0316815260200186602001518152602001846001600160a01b0316815260200186608001516001600160a01b03168152602001600160028111156108bc576108bc613260565b90526000838152606a60209081526040918290208351815473ffffffffffffffffffffffffffffffffffffffff199081166001600160a01b039283161783559285015160018301805485169183169190911790559284015160028083019190915560608501516003830180548516918616919091179055608085015160048301805494851691909516908117855560a0860151929492937fffffffffffffffffffffff000000000000000000000000000000000000000000161790600160a01b90849081111561098e5761098e613260565b02179055505060668054915060006109a583613211565b909155505060675461010086810151610120880151610160890151604051633675e4e160e11b8152939094046001600160a01b031693636cebc9c2936109f393879390929091600401612fae565b600060405180830381600087803b158015610a0d57600080fd5b505af1158015610a21573d6000803e3d6000fd5b505050505050508161014001516001600160a01b031682610160015183604001516001600160a01b03167f5f00e8f0d61ff1190912879949026c85a81f3f96038c7f4cd868bdfe882e0eeb848660e0015187602001518860800151604051610aae94939291909384526001600160a01b039283166020850152604084019190915216606082015260800190565b60405180910390a4919050565b610ac3612483565b6001600160a01b0316610ade6033546001600160a01b031690565b6001600160a01b031614610b345760405162461bcd60e51b815260206004820181905260248201527f4f776e61626c653a2063616c6c6572206973206e6f7420746865206f776e657260448201526064016104c7565b610b3e60006124c9565b565b610b48612483565b6001600160a01b0316610b636033546001600160a01b031690565b6001600160a01b031614610bb95760405162461bcd60e51b815260206004820181905260248201527f4f776e61626c653a2063616c6c6572206973206e6f7420746865206f776e657260448201526064016104c7565b6067805460ff19166001179055565b610bd0612483565b6001600160a01b0316610beb6033546001600160a01b031690565b6001600160a01b031614610c415760405162461bcd60e51b815260206004820181905260248201527f4f776e61626c653a2063616c6c6572206973206e6f7420746865206f776e657260448201526064016104c7565b6001600160a01b039091166000908152606b6020526040902055565b60675460ff1615610c9f5760405162461bcd60e51b815260206004820152600c60248201526b14de5b588e881c185d5cd95960a21b60448201526064016104c7565b60008430610cab612483565b6040805160208101949094526bffffffffffffffffffffffff19606093841b811691850191909152911b16605482015246606882015260880160408051601f1981840301815291905280516020909101209050600160008281526069602052604090205460ff166002811115610d2357610d23613260565b1415610d975760405162461bcd60e51b815260206004820152602560248201527f53796d623a2073796e74686574696320746f6b656e7320616c7265616479206d60448201527f696e74656400000000000000000000000000000000000000000000000000000060648201526084016104c7565b6000818152606960209081526040808320805460ff191660021790558051606081019091526021808252909161335a908301398051602090910120604051602481018990526044810184905260640160408051601f198184030181529181526020820180517bffffffffffffffffffffffffffffffffffffffffffffffffffffffff166001600160e01b0319909416939093179092526067549151633675e4e160e11b81529092506001600160a01b036101009092049190911690636cebc9c290610e6c908490899089908990600401612fae565b600060405180830381600087803b158015610e8657600080fd5b505af1158015610e9a573d6000803e3d6000fd5b5050505050610ea7612483565b6001600160a01b0316857f9bc8099e19706f253ae634ef1a5fb6ef84b4748c2183472905b9b2511cfa861760405160405180910390a3505050505050565b60675461010090046001600160a01b03163314610f445760405162461bcd60e51b815260206004820152601e60248201527f53796d623a2063616c6c6572206973206e6f742074686520627269646765000060448201526064016104c7565b60675460ff1615610f865760405162461bcd60e51b815260206004820152600c60248201526b14de5b588e881c185d5cd95960a21b60448201526064016104c7565b60008581526069602052604081205460ff166002811115610fa957610fa9613260565b146110425760405162461bcd60e51b815260206004820152604d60248201527f53796d623a2072657665727453796e74686573697a656452657175657374206360448201527f616c6c6564206f7220746f6b656e732068617665206265656e20616c7265616460648201527f792073796e74686573697a656400000000000000000000000000000000000000608482015260a4016104c7565b600085815260696020526040808220805460ff1916600117905560685490517f506890a00000000000000000000000000000000000000000000000000000000081526001600160a01b038781166004830152602482018790529091169063506890a09060440160206040518083038186803b1580156110c057600080fd5b505afa1580156110d4573d6000803e3d6000fd5b505050506040513d601f19601f820116820180604052508101906110f89190612a59565b90506001600160a01b0381166111765760405162461bcd60e51b815260206004820152603460248201527f53796d623a205468657265206973206e6f2073796e7420726570726573656e7460448201527f6174696f6e20666f72207468697320746f6b656e00000000000000000000000060648201526084016104c7565b6068546001600160a01b031663e49029fc836111928a876131ce565b6040516001600160e01b031960e085901b1681526001600160a01b03928316600482015260248101919091529084166044820152606401600060405180830381600087803b1580156111e357600080fd5b505af11580156111f7573d6000803e3d6000fd5b50506068546067546040516339240a7f60e21b81526001600160a01b0361010090920482166004820152602481018c905285821660448201529116925063e49029fc9150606401600060405180830381600087803b15801561125857600080fd5b505af115801561126c573d6000803e3d6000fd5b50505050816001600160a01b0316867fcf9c9a943779bb691d0ed429f605107973fc5e52f4e10dffc28a1ef2d6784cb489866112a891906131ce565b60408051918252602082018c90526001600160a01b038a169082015260600160405180910390a350505050505050565b600054610100900460ff166112f35760005460ff16156112f7565b303b155b6113695760405162461bcd60e51b815260206004820152602e60248201527f496e697469616c697a61626c653a20636f6e747261637420697320616c72656160448201527f647920696e697469616c697a656400000000000000000000000000000000000060648201526084016104c7565b600054610100900460ff1615801561138b576000805461ffff19166101011790555b61139483612528565b606780547fffffffffffffffffffffff0000000000000000000000000000000000000000ff166101006001600160a01b038781169190910291909117909155606c805473ffffffffffffffffffffffffffffffffffffffff19169184169190911790558015611409576000805461ff00191690555b50505050565b60675461010090046001600160a01b0316331461146e5760405162461bcd60e51b815260206004820152601e60248201527f53796d623a2063616c6c6572206973206e6f742074686520627269646765000060448201526064016104c7565b60675460ff16156114b05760405162461bcd60e51b815260206004820152600c60248201526b14de5b588e881c185d5cd95960a21b60448201526064016104c7565b600060408083015160009081526069602052205460ff1660028111156114d8576114d8613260565b146115715760405162461bcd60e51b815260206004820152604d60248201527f53796d623a2072657665727453796e74686573697a656452657175657374206360448201527f616c6c6564206f7220746f6b656e732068617665206265656e20616c7265616460648201527f792073796e74686573697a656400000000000000000000000000000000000000608482015260a4016104c7565b60408181015160009081526069602052818120805460ff191660011790556068546060840151608085015193517f506890a00000000000000000000000000000000000000000000000000000000081526001600160a01b0391821660048201526024810194909452919291169063506890a09060440160206040518083038186803b1580156115ff57600080fd5b505afa158015611613573d6000803e3d6000fd5b505050506040513d601f19601f820116820180604052508101906116379190612a59565b90506001600160a01b0381166116b55760405162461bcd60e51b815260206004820152603460248201527f53796d623a205468657265206973206e6f2073796e7420726570726573656e7460448201527f6174696f6e20666f72207468697320746f6b656e00000000000000000000000060648201526084016104c7565b606854825160208401516001600160a01b039092169163e49029fc9130916116dd91906131ce565b6040516001600160e01b031960e085901b1681526001600160a01b03928316600482015260248101919091529084166044820152606401600060405180830381600087803b15801561172e57600080fd5b505af1158015611742573d6000803e3d6000fd5b505060685460675485516040516339240a7f60e21b81526001600160a01b0361010090930483166004820152602481019190915285821660448201529116925063e49029fc9150606401600060405180830381600087803b1580156117a657600080fd5b505af11580156117ba573d6000803e3d6000fd5b5050835160208501516117d093509091506131ce565b6020830181905260a08301516040808501518551606087015192516001600160a01b039094169491937fcf9c9a943779bb691d0ed429f605107973fc5e52f4e10dffc28a1ef2d6784cb49361184093929192835260208301919091526001600160a01b0316604082015260600190565b60405180910390a360c08201515161186957611865818360a001518460200151612620565b5050565b6118ab8260c0015160008151811061188357611883613276565b6020026020010151606c60009054906101000a90046001600160a01b03168460200151612620565b606c546040517fe1edd61c0000000000000000000000000000000000000000000000000000000081526001600160a01b039091169063e1edd61c906118f490859060040161300a565b600060405180830381600087803b15801561190e57600080fd5b505af1158015611922573d6000803e3d6000fd5b50505050505b50565b611933612483565b6001600160a01b031661194e6033546001600160a01b031690565b6001600160a01b0316146119a45760405162461bcd60e51b815260206004820181905260248201527f4f776e61626c653a2063616c6c6572206973206e6f7420746865206f776e657260448201526064016104c7565b6068546001600160a01b0316156119fd5760405162461bcd60e51b815260206004820152601860248201527f53796d623a2046616272696320616c726561647920736574000000000000000060448201526064016104c7565b6068805473ffffffffffffffffffffffffffffffffffffffff19166001600160a01b0392909216919091179055565b611a34612483565b6001600160a01b0316611a4f6033546001600160a01b031690565b6001600160a01b031614611aa55760405162461bcd60e51b815260206004820181905260248201527f4f776e61626c653a2063616c6c6572206973206e6f7420746865206f776e657260448201526064016104c7565b6001600160a01b038116611b215760405162461bcd60e51b815260206004820152602760248201527f53796d623a206d657461526f757465722063616e6e6f74206265207a65726f2060448201527f616464726573730000000000000000000000000000000000000000000000000060648201526084016104c7565b606c805473ffffffffffffffffffffffffffffffffffffffff19166001600160a01b0392909216919091179055565b611b58612483565b6001600160a01b0316611b736033546001600160a01b031690565b6001600160a01b031614611bc95760405162461bcd60e51b815260206004820181905260248201527f4f776e61626c653a2063616c6c6572206973206e6f7420746865206f776e657260448201526064016104c7565b6001600160a01b038116611c455760405162461bcd60e51b815260206004820152602660248201527f4f776e61626c653a206e6577206f776e657220697320746865207a65726f206160448201527f646472657373000000000000000000000000000000000000000000000000000060648201526084016104c7565b611928816124c9565b60675461010090046001600160a01b03163314611cad5760405162461bcd60e51b815260206004820152601e60248201527f53796d623a2063616c6c6572206973206e6f742074686520627269646765000060448201526064016104c7565b60675460ff1615611cef5760405162461bcd60e51b815260206004820152600c60248201526b14de5b588e881c185d5cd95960a21b60448201526064016104c7565b6000818152606a6020526040902060016004820154600160a01b900460ff166002811115611d1f57611d1f613260565b14611d925760405162461bcd60e51b815260206004820152602960248201527f53796d623a207374617465206e6f74206f70656e206f7220747820646f65732060448201527f6e6f74206578697374000000000000000000000000000000000000000000000060648201526084016104c7565b6004810180547fffffffffffffffffffffff00ffffffffffffffffffffffffffffffffffffffff1674020000000000000000000000000000000000000000179055606854815460028301546001600160a01b039283169263e49029fc921690611dfc9087906131ce565b60048581015460405160e086901b6001600160e01b03191681526001600160a01b0394851692810192909252602482019290925291166044820152606401600060405180830381600087803b158015611e5457600080fd5b505af1158015611e68573d6000803e3d6000fd5b50506068546067546004858101546040516339240a7f60e21b81526001600160a01b0361010090940484169281019290925260248201899052821660448201529116925063e49029fc9150606401600060405180830381600087803b158015611ed057600080fd5b505af1158015611ee4573d6000803e3d6000fd5b5050825460028401546001600160a01b0390911692508491507fb6f5f7b98cc78a8031c967af163a8c197f470a35df1e326a9038859679e6a18490611f2a9087906131ce565b600485015460408051928352602083018990526001600160a01b039091169082015260600160405180910390a3505050565b60675460009060ff1615611fa15760405162461bcd60e51b815260206004820152600c60248201526b14de5b588e881c185d5cd95960a21b60448201526064016104c7565b6001600160a01b0388166000908152606b60205260409020548710156120095760405162461bcd60e51b815260206004820152601c60248201527f53796d623a20616d6f756e7420756e646572207468726573686f6c640000000060448201526064016104c7565b6068546001600160a01b031663a8160b76612022612483565b6040516001600160e01b031960e084901b1681526001600160a01b039182166004820152602481018b9052908b166044820152606401600060405180830381600087803b15801561207257600080fd5b505af1158015612086573d6000803e3d6000fd5b505050506001600160a01b03831661209c578592505b6068546040517f161acb470000000000000000000000000000000000000000000000000000000081526001600160a01b038a81166004830152600092169063161acb479060240160206040518083038186803b1580156120fb57600080fd5b505afa15801561210f573d6000803e3d6000fd5b505050506040513d601f19601f820116820180604052508101906121339190612a59565b6066546040516bffffffffffffffffffffffff193060601b166020820152603481019190915246605482015290915060740160408051601f1981840301815282825280516020918201209083018190526bffffffffffffffffffffffff1960608a811b8216938501939093529187901b90911660548301526068820185905292506000906088016040516020818303038152906040528051906020012090506000604051806060016040528060358152602001613325603591398051602090910120604051602481018e9052604481018490526001600160a01b038086166064830152608482018d90528b1660a482015260c40160408051601f198184030181529181526020820180517bffffffffffffffffffffffffffffffffffffffffffffffffffffffff166001600160e01b031990941693909317909252815160c08101909252915080612282612483565b6001600160a01b0390811682528b81166020830152604082018d905285811660608301528d16608082015260a001600190526000838152606a60209081526040918290208351815473ffffffffffffffffffffffffffffffffffffffff199081166001600160a01b039283161783559285015160018301805485169183169190911790559284015160028083019190915560608501516003830180548516918616919091179055608085015160048301805494851691909516908117855560a0860151929492937fffffffffffffffffffffff000000000000000000000000000000000000000000161790600160a01b90849081111561238457612384613260565b021790555050606680549150600061239b83613211565b9091555050606754604051633675e4e160e11b81526101009091046001600160a01b031690636cebc9c2906123da9084908c908c908b90600401612fae565b600060405180830381600087803b1580156123f457600080fd5b505af1158015612408573d6000803e3d6000fd5b50505050505050826001600160a01b031682612422612483565b604080518581526001600160a01b038b811660208301529181018c90528c821660608201529116907f5f00e8f0d61ff1190912879949026c85a81f3f96038c7f4cd868bdfe882e0eeb9060800160405180910390a498975050505050505050565b6065546000906001600160a01b03163314156124c457507fffffffffffffffffffffffffffffffffffffffffffffffffffffffffffffffec36013560601c90565b503390565b603380546001600160a01b0383811673ffffffffffffffffffffffffffffffffffffffff19831681179093556040519116919082907f8be0079c531659141344cd1fd0a4f28419497f9722a3daafe3b4186f6b6457e090600090a35050565b600054610100900460ff166125435760005460ff1615612547565b303b155b6125b95760405162461bcd60e51b815260206004820152602e60248201527f496e697469616c697a61626c653a20636f6e747261637420697320616c72656160448201527f647920696e697469616c697a656400000000000000000000000000000000000060648201526084016104c7565b600054610100900460ff161580156125db576000805461ffff19166101011790555b6125e361278f565b6065805473ffffffffffffffffffffffffffffffffffffffff19166001600160a01b0384161790558015611865576000805461ff00191690555050565b604080516001600160a01b038481166024830152604480830185905283518084039091018152606490920183526020820180517bffffffffffffffffffffffffffffffffffffffffffffffffffffffff167fa9059cbb0000000000000000000000000000000000000000000000000000000017905291516000928392908716916126aa9190612f49565b6000604051808303816000865af19150503d80600081146126e7576040519150601f19603f3d011682016040523d82523d6000602084013e6126ec565b606091505b50915091508180156127165750805115806127165750808060200190518101906127169190612aed565b6127885760405162461bcd60e51b815260206004820152602d60248201527f5472616e7366657248656c7065723a3a736166655472616e736665723a20747260448201527f616e73666572206661696c65640000000000000000000000000000000000000060648201526084016104c7565b5050505050565b600054610100900460ff1661280c5760405162461bcd60e51b815260206004820152602b60248201527f496e697469616c697a61626c653a20636f6e7472616374206973206e6f74206960448201527f6e697469616c697a696e6700000000000000000000000000000000000000000060648201526084016104c7565b61281461281c565b610b3e612899565b600054610100900460ff16610b3e5760405162461bcd60e51b815260206004820152602b60248201527f496e697469616c697a61626c653a20636f6e7472616374206973206e6f74206960448201527f6e697469616c697a696e6700000000000000000000000000000000000000000060648201526084016104c7565b600054610100900460ff166129165760405162461bcd60e51b815260206004820152602b60248201527f496e697469616c697a61626c653a20636f6e7472616374206973206e6f74206960448201527f6e697469616c697a696e6700000000000000000000000000000000000000000060648201526084016104c7565b610b3e612921612483565b6124c9565b8035612931816132c0565b919050565b600082601f83011261294757600080fd5b8135602067ffffffffffffffff8211156129635761296361328c565b8160051b61297282820161319d565b83815282810190868401838801850189101561298d57600080fd5b600093505b858410156129b95780356129a5816132c0565b835260019390930192918401918401612992565b50979650505050505050565b600082601f8301126129d657600080fd5b813567ffffffffffffffff8111156129f0576129f061328c565b612a036020601f19601f8401160161319d565b818152846020838601011115612a1857600080fd5b816020850160208301376000918101602001919091529392505050565b600060208284031215612a4757600080fd5b8135612a52816132c0565b9392505050565b600060208284031215612a6b57600080fd5b8151612a52816132c0565b600080600060608486031215612a8b57600080fd5b8335612a96816132c0565b92506020840135612aa6816132c0565b91506040840135612ab6816132c0565b809150509250925092565b60008060408385031215612ad457600080fd5b8235612adf816132c0565b946020939093013593505050565b600060208284031215612aff57600080fd5b81518015158114612a5257600080fd5b600060208284031215612b2157600080fd5b5035919050565b600060208284031215612b3a57600080fd5b813567ffffffffffffffff80821115612b5257600080fd5b908301906101808286031215612b6757600080fd5b612b6f613173565b8235815260208301356020820152612b8960408401612926565b6040820152612b9a60608401612926565b6060820152612bab60808401612926565b608082015260a083013582811115612bc257600080fd5b612bce878286016129c5565b60a08301525060c083013560c0820152612bea60e08401612926565b60e08201526101009150612bff828401612926565b828201526101209150612c13828401612926565b828201526101409150612c27828401612926565b9181019190915261016091820135918101919091529392505050565b600060208284031215612c5557600080fd5b813567ffffffffffffffff80821115612c6d57600080fd5b908301906101808286031215612c8257600080fd5b612c8a613173565b823581526020830135602082015260408301356040820152612cae60608401612926565b606082015260808301356080820152612cc960a08401612926565b60a082015260c083013582811115612ce057600080fd5b612cec87828601612936565b60c083015250612cfe60e08401612926565b60e08201526101008084013583811115612d1757600080fd5b612d23888287016129c5565b828401525050610120612d37818501612926565b908201526101408381013583811115612d4f57600080fd5b612d5b888287016129c5565b91830191909152506101609283013592810192909252509392505050565b600080600080600080600080610100898b031215612d9657600080fd5b883597506020890135612da8816132c0565b9650604089013595506060890135612dbf816132c0565b94506080890135612dcf816132c0565b935060a0890135612ddf816132c0565b925060c0890135612def816132c0565b8092505060e089013590509295985092959890939650565b60008060408385031215612e1a57600080fd5b50508035926020909101359150565b600080600080600060a08688031215612e4157600080fd5b85359450602086013593506040860135612e5a816132c0565b92506060860135612e6a816132c0565b949793965091946080013592915050565b60008060008060008060c08789031215612e9457600080fd5b86359550602087013594506040870135612ead816132c0565b9350606087013592506080870135915060a0870135612ecb816132c0565b809150509295509295509295565b600081518084526020808501945080840160005b83811015612f125781516001600160a01b031687529582019590820190600101612eed565b509495945050505050565b60008151808452612f358160208601602086016131e5565b601f01601f19169290920160200192915050565b60008251612f5b8184602087016131e5565b9190910192915050565b6001600160a01b03878116825286811660208301526040820186905284811660608301528316608082015260c08101612f9d836132a2565b8260a0830152979650505050505050565b608081526000612fc16080830187612f1d565b6001600160a01b0395861660208401529390941660408201526060015292915050565b60208101612ff1836132a2565b91905290565b602081526000612a526020830184612f1d565b602081528151602082015260208201516040820152604082015160608201526000606083015161304560808401826001600160a01b03169052565b50608083015160a083015260a083015161306a60c08401826001600160a01b03169052565b5060c08301516101808060e08501526130876101a0850183612ed9565b915060e08501516101006130a5818701836001600160a01b03169052565b80870151915050601f196101208187860301818801526130c58584612f1d565b9450808801519250506101406130e5818801846001600160a01b03169052565b808801519250506101608187860301818801526131028584612f1d565b970151959092019490945250929392505050565b60006101008a83528960208401526001600160a01b03808a166040850152886060850152808816608085015280871660a0850152508060c084015261315d81840186612f1d565b9150508260e08301529998505050505050505050565b604051610180810167ffffffffffffffff811182821017156131975761319761328c565b60405290565b604051601f8201601f1916810167ffffffffffffffff811182821017156131c6576131c661328c565b604052919050565b6000828210156131e0576131e061324a565b500390565b60005b838110156132005781810151838201526020016131e8565b838111156114095750506000910152565b60007fffffffffffffffffffffffffffffffffffffffffffffffffffffffffffffffff8214156132435761324361324a565b5060010190565b634e487b7160e01b600052601160045260246000fd5b634e487b7160e01b600052602160045260246000fd5b634e487b7160e01b600052603260045260246000fd5b634e487b7160e01b600052604160045260246000fd5b6003811061192857634e487b7160e01b600052602160045260246000fd5b6001600160a01b038116811461192857600080fdfe6d657461556e73796e74686573697a652875696e743235362c627974657333322c616464726573732c75696e743235362c616464726573732c616464726573732c62797465732c75696e7432353629756e73796e74686573697a652875696e743235362c627974657333322c616464726573732c75696e743235362c616464726573732972657665727453796e74686573697a652875696e743235362c6279746573333229a264697066735822122023f46b051ad652aafb8143f6b67cc1af825ad24a2d251d6ffbc73bd4210df35f64736f6c63430008070033",
    "linkReferences": {},
    "deployedLinkReferences": {}
}