{
    "_format": "hh3-artifact-1",
    "contractName": "TimedSwapUnlocker",
    "sourceName": "contracts/DepositUnlockers.sol",
    "abi": [
        {
            "inputs": [
                {
                    "internalType": "uint256",
                    "name": "providedPrice",
                    "type": "uint256"
                },
                {
                    "internalType": "uint256",
                    "name": "requiredPrice",
                    "type": "uint256"
                },
                {
                    "internalType": "uint256",
                    "name": "providedAmount",
                    "type": "uint256"
                }
            ],
            "name": "InsufficientPrice",
            "type": "error"
        },
        {
            "anonymous": false,
            "inputs": [
                {
                    "indexed": false,
                    "internalType": "contract IERC20",
                    "name": "outToken",
                    "type": "address"
                },
                {
                    "indexed": false,
                    "internalType": "uint256",
                    "name": "delay",
                    "type": "uint256"
                },
                {
                    "indexed": false,
                    "internalType": "uint256",
                    "name": "providedPrice",
                    "type": "uint256"
                },
                {
                    "indexed": false,
                    "internalType": "uint256",
                    "name": "requiredPrice",
                    "type": "uint256"
                },
                {
                    "indexed": false,
                    "internalType": "uint256",
                    "name": "outAmount",
                    "type": "uint256"
                },
                {
                    "indexed": false,
                    "internalType": "address",
                    "name": "swapper",
                    "type": "address"
                },
                {
                    "indexed": false,
                    "internalType": "address",
                    "name": "target",
                    "type": "address"
                }
            ],
            "name": "TimedPricedSwap",
            "type": "event"
        },
        {
            "inputs": [],
            "name": "WAD",
            "outputs": [
                {
                    "internalType": "uint256",
                    "name": "",
                    "type": "uint256"
                }
            ],
            "stateMutability": "view",
            "type": "function"
        },
        {
            "inputs": [
                {
                    "internalType": "bytes",
                    "name": "condition",
                    "type": "bytes"
                }
            ],
            "name": "decodeCondition",
            "outputs": [
                {
                    "components": [
                        {
                            "internalType": "contract IERC20",
                            "name": "outToken",
                            "type": "address"
                        },
                        {
                            "internalType": "uint256",
                            "name": "startMinPrice",
                            "type": "uint256"
                        },
                        {
                            "internalType": "uint256",
                            "name": "duration",
                            "type": "uint256"
                        },
                        {
                            "internalType": "uint256",
                            "name": "discount",
                            "type": "uint256"
                        },
                        {
                            "internalType": "address",
                            "name": "target",
                            "type": "address"
                        },
                        {
                            "internalType": "bytes",
                            "name": "targetCalldata",
                            "type": "bytes"
                        },
                        {
                            "internalType": "uint256",
                            "name": "targetOffset",
                            "type": "uint256"
                        }
                    ],
                    "internalType": "struct TimedSwapUnlocker.Condition",
                    "name": "",
                    "type": "tuple"
                }
            ],
            "stateMutability": "pure",
            "type": "function"
        },
        {
            "inputs": [
                {
                    "components": [
                        {
                            "internalType": "contract IERC20",
                            "name": "outToken",
                            "type": "address"
                        },
                        {
                            "internalType": "uint256",
                            "name": "startMinPrice",
                            "type": "uint256"
                        },
                        {
                            "internalType": "uint256",
                            "name": "duration",
                            "type": "uint256"
                        },
                        {
                            "internalType": "uint256",
                            "name": "discount",
                            "type": "uint256"
                        },
                        {
                            "internalType": "address",
                            "name": "target",
                            "type": "address"
                        },
                        {
                            "internalType": "bytes",
                            "name": "targetCalldata",
                            "type": "bytes"
                        },
                        {
                            "internalType": "uint256",
                            "name": "targetOffset",
                            "type": "uint256"
                        }
                    ],
                    "internalType": "struct TimedSwapUnlocker.Condition",
                    "name": "c",
                    "type": "tuple"
                }
            ],
            "name": "encodeCondition",
            "outputs": [
                {
                    "internalType": "bytes",
                    "name": "",
                    "type": "bytes"
                }
            ],
            "stateMutability": "pure",
            "type": "function"
        },
        {
            "inputs": [
                {
                    "components": [
                        {
                            "internalType": "address",
                            "name": "swapper",
                            "type": "address"
                        },
                        {
                            "internalType": "bytes",
                            "name": "swapCalldata",
                            "type": "bytes"
                        }
                    ],
                    "internalType": "struct TimedSwapUnlocker.Solution",
                    "name": "s",
                    "type": "tuple"
                }
            ],
            "name": "encodeSolution",
            "outputs": [
                {
                    "internalType": "bytes",
                    "name": "",
                    "type": "bytes"
                }
            ],
            "stateMutability": "pure",
            "type": "function"
        },
        {
            "inputs": [
                {
                    "internalType": "contract IRouter",
                    "name": "router",
                    "type": "address"
                },
                {
                    "components": [
                        {
                            "internalType": "contract IERC20",
                            "name": "token",
                            "type": "address"
                        },
                        {
                            "internalType": "uint256",
                            "name": "amount",
                            "type": "uint256"
                        },
                        {
                            "internalType": "uint256",
                            "name": "nonce",
                            "type": "uint256"
                        }
                    ],
                    "internalType": "struct DepositoryTypes.Deposit",
                    "name": "deposit",
                    "type": "tuple"
                },
                {
                    "components": [
                        {
                            "internalType": "uint256",
                            "name": "blockNumber",
                            "type": "uint256"
                        },
                        {
                            "internalType": "uint256",
                            "name": "timestamp",
                            "type": "uint256"
                        }
                    ],
                    "internalType": "struct DepositoryTypes.BlockchainState",
                    "name": "lockState",
                    "type": "tuple"
                },
                {
                    "internalType": "bytes",
                    "name": "condition",
                    "type": "bytes"
                },
                {
                    "internalType": "bytes",
                    "name": "solution",
                    "type": "bytes"
                }
            ],
            "name": "unlock",
            "outputs": [],
            "stateMutability": "nonpayable",
            "type": "function"
        }
    ],
    "bytecode": "0x60806040523460195760405161120361001e823961120390f35b5f80fdfe60806040526004361015610011575f80fd5b5f3560e01c80634d8893d0146100605780636a1460241461005b578063760bd118146100565780638d8bf0a2146100515763f7b53fb103610086576103c4565b610369565b61030a565b6101bb565b61015e565b6001600160a01b031690565b90565b6001600160a01b0381165b0361008657565b5f80fd5b9050359061009782610074565b565b908160609103126100865790565b908160409103126100865790565b909182601f830112156100865781359167ffffffffffffffff831161008657602001926001830284011161008657565b909161010082840312610086576100fc838361008a565b9261010a8160208501610099565b9261011882608083016100a7565b9260c082013567ffffffffffffffff811161008657836101399184016100b5565b92909360e082013567ffffffffffffffff81116100865761015a92016100b5565b9091565b346100865761017d6101713660046100e5565b9594909493919361084a565b60405180805b0390f35b5f91031261008657565b6100716100716100719290565b610071670de0b6b3a7640000610191565b61007161019e565b9052565b34610086576101cb366004610187565b6101836101d66101af565b6040519182918290815260200190565b9060208282031261008657813567ffffffffffffffff81116100865761015a92016100b5565b610065610071610071926001600160a01b031690565b6100719061020c565b61007190610222565b6101b79061022b565b90825f9392825e0152565b61026961027260209361027c9361025d815190565b80835293849260200190565b9586910161023d565b601f01601f191690565b0190565b906100719060c0806102f160e0840161029f5f8801515f870190610234565b6102ae60208801516020870152565b6102bd60408801516040870152565b6102cc60608801516060870152565b6080878101516001600160a01b03169086015260a087015185820360a0870152610248565b940151910152565b602080825261007192910190610280565b34610086576101836103266103203660046101e6565b90610c84565b604051918291826102f9565b9060208282031261008657813567ffffffffffffffff81116100865761007192016100a7565b602080825261007192910190610248565b346100865761018361038461037f366004610332565b610d68565b60405191829182610358565b908160e09103126100865790565b9060208282031261008657813567ffffffffffffffff8111610086576100719201610390565b34610086576101836103846103da36600461039e565b610e73565b8061007f565b35610071816103df565b634e487b7160e01b5f52601160045260245ffd5b9190820391821161041057565b6103ef565b634e487b7160e01b5f52604160045260245ffd5b90601f01601f1916810190811067ffffffffffffffff82111761044b57604052565b610415565b9061009761045d60405190565b9283610429565b67ffffffffffffffff811161044b57602090601f01601f19160190565b9061049361048e83610464565b610450565b918252565b6104a2602a610481565b7f54696d656453776170556e6c6f636b65722e756e6c6f636b287461726765742c60208201527f206f7574546f6b656e2900000000000000000000000000000000000000000000604082015290565b610071610498565b6001600160a01b03811661007f565b90503590610097826104f9565b90825f939282370152565b9092919261053061048e82610464565b938185528183011161008657610097916020850190610515565b9080601f830112156100865781602061007193359101610520565b9190916040818403126100865761057c6040610450565b926105878183610508565b8452602082013567ffffffffffffffff8111610086576105a7920161054a565b6020830152565b9060208282031261008657813567ffffffffffffffff8111610086576100719201610565565b6105de6037610481565b7f54696d656453776170556e6c6f636b65722e756e6c6f636b287377617070657260208201527f2c2064656c61792c207265717569726564507269636529000000000000000000604082015290565b6100716105d4565b3561007181610074565b6101b790610191565b6100979461068c8298979561067c608096610675610699975f60a089019801906001600160a01b03169052565b60208c0152565b6001600160a01b031660408a0152565b8782036060890152610248565b94019061063f565b6040513d5f823e3d90fd5b90505190610097826103df565b9060208282031261008657610071916106ac565b8181029291811591840414171561041057565b634e487b7160e01b5f52601260045260245ffd5b81156106fe570490565b6106e0565b61070d6032610481565b7f54696d656453776170556e6c6f636b65722e756e6c6f636b286f7574416d6f7560208201527f6e742c2070726f76696465645072696365290000000000000000000000000000604082015290565b610071610703565b90815260608101939261009792909160409161077f906105a7565b0152565b9392919093156107935750509050565b7fb4686f97000000000000000000000000000000000000000000000000000000005f908152936107c593506004610764565b035ffd5b949290979695939160e08601985f87016107e291610234565b60208601526040850152606084015260808301526001600160a01b031660a082015260c001610097916001600160a01b03169052565b6100979461068c8298979561067c608096610675610845975f60a089019801906001600160a01b03169052565b940152565b959360206108616108689261086e94959896610c84565b96016103e5565b42610403565b916108c561087c8487610f51565b9160808701956108bd61089688516001600160a01b031690565b6108af6108aa8b516001600160a01b031690565b61022b565b906108b86104f1565b61102f565b8101906105ae565b926108f05f8501976108aa84846108e38c516001600160a01b031690565b6108eb61062d565b6110c7565b9363e1ee0f799360206109056108aa83610635565b9101986109226109148b6103e5565b91516001600160a01b031690565b906020840151883b156100865761095a5f8992819561094f9561094460405190565b988997889760e01b90565b875260048701610648565b0381838a5af18015610b1857610b55575b5086926109826108aa85516001600160a01b031690565b98602061098e60405190565b7f70a082310000000000000000000000000000000000000000000000000000000081526001600160a01b03891660048201529a8b9060249082905afa998a15610b18575f9a610b1d575b50610a79936108aa93610a9a610aaa97948b8e610a307fbc5629815e3a889855a56a45cea05a02b2c624a94f93ef535951aec663e3fcc197610a2a610a24610a1e61019e565b856106cd565b916103e5565b906106f4565b92610a438483610a3e61075c565b611137565b610a5282828681811015610783565b610a87610a795f610a6a8c516001600160a01b031690565b9801516001600160a01b031690565b93516001600160a01b031690565b93610a9160405190565b978897886107c9565b0390a1516001600160a01b031690565b93610abb60c060a083015192015190565b91833b1561008657610af0610ae5935f97938894610ad860405190565b9a8b998a98899760e01b90565b875260048701610818565b03925af18015610b1857610b015750565b610097905f610b108183610429565b810190610187565b6106a1565b88939592949a5060203d602011610b4e575b610b398183610429565b8101610b44916106b9565b99939194926109d8565b503d610b2f565b610b64905f610b108183610429565b5f61096b565b61007160e0610450565b610b7c610b6a565b905f8252602080808080808088015f8152015f8152015f8152015f81520160608152015f905250565b610071610b74565b90503590610097826103df565b91909160e08184031261008657610bd160e0610450565b92610bdc818361008a565b8452610beb8160208401610bad565b6020850152610bfd8160408401610bad565b6040850152610c0f8160608401610bad565b6060850152610c218160808401610508565b608085015260a082013567ffffffffffffffff81116100865782610c4c8360c093610c57960161054a565b60a087015201610bad565b60c0830152565b9060208282031261008657813567ffffffffffffffff8111610086576100719201610bba565b61007191610c90610ba5565b50810190610c5e565b50610071906020810190610508565b90357fffffffffffffffffffffffffffffffffffffffffffffffffffffffffffffffe1368390030181121561008657016020813591019167ffffffffffffffff82116100865736829003831361008657565b919061027281610d118161027c9560209181520190565b8095610515565b610071916040810191610d4990610d3f610d328280610c99565b6001600160a01b03168452565b6020810190610ca8565b916020818503910152610cfa565b602080825261007192910190610d18565b610071610d7460405190565b8092610d84602083019182610d57565b90810382520382610429565b5061007190602081019061008a565b50610071906020810190610bad565b906100719060c0610e5d610e5360e08401610dd3610dcc8880610d90565b8690610234565b610dea610de36020890189610d9f565b6020870152565b610e01610dfa6040890189610d9f565b6040870152565b610e18610e116060890189610d9f565b6060870152565b610e38610e286080890189610c99565b6001600160a01b03166080870152565b610e4560a0880188610ca8565b9086830360a0880152610cfa565b9482810190610d9f565b910152565b602080825261007192910190610dae565b610071610e7f60405190565b8092610d84602083019182610e62565b610e99603b610481565b7f54696d656453776170556e6c6f636b65722e696e746572706f6c61746550726960208201527f63652873746172744d696e50726963652c20646973636f756e74290000000000604082015290565b610071610e8f565b610efa6033610481565b7f54696d656453776170556e6c6f636b65722e696e746572706f6c61746550726960208201527f6365286475726174696f6e2c2064656c61792900000000000000000000000000604082015290565b610071610ef0565b610fce61007192610f5f5f90565b50610a2a610fc960208501926040610f75855190565b96610f8f6060820198610f868a5190565b90610a3e610ee8565b0193610fa5610f9c865190565b83610a3e610f49565b610fb0610071865190565b8211610fd4575b5195516106cd565b965190565b6106cd565b915190565b90610403565b9050610fc4610fbf610fe4865190565b92915050610fb7565b60409061102061100e6100979597969460608401908482035f860152610248565b6001600160a01b039097166020830152565b01906001600160a01b03169052565b611084906110756100979461104360405190565b9485936004602086017ffcec75e000000000000000000000000000000000000000000000000000000000815201610fed565b60208201810382520382610429565b61117d565b61077f610097946110c06110ae6060959998969960808601908682035f880152610248565b6001600160a01b039099166020850152565b6040830152565b6110756100979461108493946110dc60405190565b9586946004602087017ff8f51b1e00000000000000000000000000000000000000000000000000000000815201611089565b60409061077f61112f6100979597969460608401908482035f860152610248565b966020830152565b611084906110756100979461114b60405190565b9485936004602086017fca47c4eb0000000000000000000000000000000000000000000000000000000081520161110e565b6100979060016111bd565b5f809161119d6a636f6e736f6c652e6c6f6790565b602082519201905afa50565b634e487b7160e01b5f52605160045260245ffd5b6001036111a9576100979061118856fea26469706673582212200803c31e2425b832297b96393875daf4dca3f04bf05c7a1c645e68a34ed94ffe64736f6c634300081c0033",
    "linkReferences": {},
    "deployedLinkReferences": {},
    "immutableReferences": {},
    "inputSourceName": "project/contracts/DepositUnlockers.sol",
    "buildInfoId": "solc-0_8_28-1359284392d80c7d902af7914f511ef526f176de"
}