{
    "_format": "hh-sol-artifact-1",
    "contractName": "WithdrawUnlocker",
    "sourceName": "contracts/DepositUnlockers.sol",
    "abi": [
        {
            "inputs": [
                {
                    "internalType": "address",
                    "name": "token",
                    "type": "address"
                }
            ],
            "name": "SafeERC20FailedOperation",
            "type": "error"
        },
        {
            "inputs": [
                {
                    "internalType": "bytes",
                    "name": "condition",
                    "type": "bytes"
                }
            ],
            "name": "decodeCondition",
            "outputs": [
                {
                    "components": [
                        {
                            "internalType": "address",
                            "name": "recipient",
                            "type": "address"
                        }
                    ],
                    "internalType": "struct WithdrawUnlocker.Condition",
                    "name": "",
                    "type": "tuple"
                }
            ],
            "stateMutability": "pure",
            "type": "function"
        },
        {
            "inputs": [
                {
                    "components": [
                        {
                            "internalType": "address",
                            "name": "recipient",
                            "type": "address"
                        }
                    ],
                    "internalType": "struct WithdrawUnlocker.Condition",
                    "name": "c",
                    "type": "tuple"
                }
            ],
            "name": "encodeCondition",
            "outputs": [
                {
                    "internalType": "bytes",
                    "name": "",
                    "type": "bytes"
                }
            ],
            "stateMutability": "pure",
            "type": "function"
        },
        {
            "inputs": [],
            "name": "encodeSolution",
            "outputs": [
                {
                    "internalType": "bytes",
                    "name": "",
                    "type": "bytes"
                }
            ],
            "stateMutability": "pure",
            "type": "function"
        },
        {
            "inputs": [
                {
                    "internalType": "contract IMetaRouter",
                    "name": "metarouter",
                    "type": "address"
                },
                {
                    "internalType": "contract IERC20",
                    "name": "token",
                    "type": "address"
                },
                {
                    "internalType": "address",
                    "name": "recipient",
                    "type": "address"
                },
                {
                    "internalType": "uint256",
                    "name": "amount",
                    "type": "uint256"
                }
            ],
            "name": "transfer",
            "outputs": [],
            "stateMutability": "nonpayable",
            "type": "function"
        },
        {
            "inputs": [
                {
                    "internalType": "contract IMetaRouter",
                    "name": "metarouter",
                    "type": "address"
                },
                {
                    "components": [
                        {
                            "internalType": "contract IERC20",
                            "name": "token",
                            "type": "address"
                        },
                        {
                            "internalType": "uint256",
                            "name": "amount",
                            "type": "uint256"
                        },
                        {
                            "internalType": "uint256",
                            "name": "nonce",
                            "type": "uint256"
                        }
                    ],
                    "internalType": "struct DepositoryTypes.Deposit",
                    "name": "deposit",
                    "type": "tuple"
                },
                {
                    "internalType": "bytes",
                    "name": "condition",
                    "type": "bytes"
                },
                {
                    "internalType": "bytes",
                    "name": "solution",
                    "type": "bytes"
                }
            ],
            "name": "unlock",
            "outputs": [],
            "stateMutability": "nonpayable",
            "type": "function"
        }
    ],
    "bytecode": "0x608060405234601957604051610ba761001f8239610ba790f35b600080fdfe6080604052600436101561001257600080fd5b60003560e01c806322c0bff8146100625780635554dbd81461005d578063760bd118146100585780639bbd27b2146100535763f18d03cc0361008857610313565b61028d565b610235565b6101e4565b610144565b6001600160a01b031690565b90565b6001600160a01b0381165b0361008857565b600080fd5b9050359061009a82610076565b565b908160609103126100885790565b909182601f830112156100885781359167ffffffffffffffff831161008857602001926001830284011161008857565b919060c083820312610088576100f0818461008d565b926100fe826020830161009c565b92608082013567ffffffffffffffff8111610088578361011f9184016100aa565b92909360a082013567ffffffffffffffff81116100885761014092016100aa565b9091565b34610088576101636101573660046100da565b949390939291926105fe565b60405180805b0390f35b600091031261008857565b60005b83811061018b5750506000910152565b818101518382015260200161017b565b6101bc6101c56020936101cf936101b0815190565b80835293849260200190565b95869101610178565b601f01601f191690565b0190565b60208082526100739291019061019b565b34610088576101f436600461016d565b6101696101ff610770565b604051918291826101d3565b9060208282031261008857813567ffffffffffffffff81116100885761014092016100aa565b9052565b346100885761016961025161024b36600461020b565b906107e5565b6040519182918290516001600160a01b0316815260200190565b908160209103126100885790565b90602082820312610088576100739161026b565b34610088576101696101ff6102a3366004610279565b610839565b6001600160a01b038116610081565b9050359061009a826102a8565b80610081565b9050359061009a826102c4565b608081830312610088576102eb828261008d565b926100736102fc846020850161008d565b93606061030c82604087016102b7565b94016102ca565b34610088576101636103263660046102d7565b929190916108b6565b6100736100736100739290565b1561034357565b6040517f08c379a000000000000000000000000000000000000000000000000000000000815260206004820152602960248201527f5769746864726177556e6c6f636b657220736f6c7574696f6e2073686f756c6460448201527f20626520656d7074790000000000000000000000000000000000000000000000606482015280608481015b0390fd5b7f4e487b7100000000000000000000000000000000000000000000000000000000600052604160045260246000fd5b90601f01601f1916810190811067ffffffffffffffff82111761041e57604052565b6103cd565b9061009a61043060405190565b92836103fc565b67ffffffffffffffff811161041e57602090601f01601f19160190565b9061046661046183610437565b610423565b918252565b6104756022610454565b7f5769746864726177556e6c6f636b65722e756e6c6f636b28726563697069656e60208201527f7429000000000000000000000000000000000000000000000000000000000000604082015290565b61007361046b565b610067610073610073926001600160a01b031690565b610073906104cc565b610073906104e2565b3561007381610076565b35610073816102c4565b61052161051b6100739263ffffffff1690565b60e01b90565b7fffffffff000000000000000000000000000000000000000000000000000000001690565b610231906104eb565b61058b61009a9461057b606094989795610571608086019a6000870190610546565b6020850190610546565b6001600160a01b03166040830152565b0152565b6102319061032f565b61009a946105dd829897956105cd6080966105c66105ea97600060a089019801906001600160a01b03169052565b60208c0152565b6001600160a01b031660408a0152565b878203606089015261019b565b94019061058f565b6040513d6000823e3d90fd5b916106cd6106d26106d8926106406106de959761061f61063b9b60049b5090565b9260009b8c946106356106318761032f565b9190565b1461033c565b6107e5565b019461066361065687516001600160a01b031690565b61065e6104c4565b61090e565b6106cd898801966106be602061068961067b8b6104f4565b93516001600160a01b031690565b9a01996106958b6104fe565b906106a363f18d03cc610508565b93866106ae60405190565b9e8f96602088019081520161054f565b602082018103825203896103fc565b6104eb565b936104f4565b926104fe565b906106e8306104eb565b91813b15610088578580946107338261070060405190565b988997889687957f3add6d5a00000000000000000000000000000000000000000000000000000000875260048701610598565b03925af1801561076b57610745575050565b8161009a92903d10610764575b61075c81836103fc565b81019061016d565b503d610752565b6105f2565b6040516100738160208101805b908103825203826103fc565b6100736020610423565b61079b610789565b9060008252565b610073610793565b9190602083820312610088576107cd9060006107c66020610423565b94016102b7565b8252565b9060208282031261008857610073916107aa565b610073916107f16107a2565b508101906107d1565b506100739060208101906102b7565b61009a919060009061081b90806107fa565b6001600160a01b0316910152565b60208101929161009a9190610809565b61007361084560405190565b809261077d602083019182610829565b61085f6033610454565b7f5769746864726177556e6c6f636b65722e7472616e7366657228746f6b656e2c60208201527f20726563697069656e742c20616d6f756e742900000000000000000000000000604082015290565b610073610855565b906108db61009a9493926106cd85856108ce866104eb565b6108d66108ae565b6109a0565b90610a0b565b929160206108fe61009a936040870190878203600089015261019b565b9401906001600160a01b03169052565b9061096361009a9261095461092260405190565b9384926004602085017f319af333000000000000000000000000000000000000000000000000000000008152016108e1565b602082018103825203826103fc565b610a55565b61058b61009a9461057b61098e606095999896996080860190868203600088015261019b565b6001600160a01b039099166020850152565b61095461009a9461096393946109b560405190565b9586946004602087017f8ef3f39900000000000000000000000000000000000000000000000000000000815201610968565b6001600160a01b0391821681529116602082015260608101929161009a9160400152565b90610a5090610a4161009a95600495610a276323b872dd610508565b93610a3160405190565b97889560208701908152016109e7565b602082018103825203836103fc565b610a60565b61009a906001610b61565b906000602091610a6e600090565b50828151910182855af1156105f2573d90600051600092610a916106318561032f565b03610afc5750610aa0816104eb565b3b610aad6106318461032f565b145b610ab7575050565b6103c9610ac483926104eb565b7f5274afe70000000000000000000000000000000000000000000000000000000083526001600160a01b031660048301526024820190565b610b09610631600161032f565b1415610aaf565b60008091610b266a636f6e736f6c652e6c6f6790565b602082519201905afa50565b7f4e487b7100000000000000000000000000000000000000000000000000000000600052605160045260246000fd5b600103610b325761009a90610b1056fea26469706673582212201be08d6a83a1a9933f37b101875c39c7aea55d9af053a01792f9c6e742cedf1064736f6c634300081c0033",
    "linkReferences": {},
    "deployedLinkReferences": {}
}